:020000040800F2
:1000000018060020F14A0008C94A0008CB4A000837
:10001000154B0008194B00081D4B0008000000009C
:10002000000000000000000000000000214B00085C
:10003000CD4A000800000000254B0008CF4A000808
:10004000294B00082D4B0008314B0008354B0008A8
:10005000394B00083D4B0008414B0008454B000858
:10006000494B00084D4B0008514B0008554B000808
:10007000594B00085D4B0008614B0008654B0008B8
:10008000694B00086D4B0008714B0008754B000868
:10009000794B00087D4B0008814B0008D34A0008CB
:1000A000854B0008894B00088D4B0008914B0008D8
:1000B000954B0008994B00089D4B0008A14B000888
:1000C000A54B0008A94B0008AD4B0008B14B000838
:1000D000B54B0008B94B0008BD4B0008C14B0008E8
:1000E000D94A0008C54B0008C94B0008CD4B000891
:1000F000D14B0008D54B0008D94B0008DD4B000858
:10010000E14B0008E54B0008E94B0008ED4B000807
:10011000F14B0008F54B0008F94B0008FD4B0008B7
:10012000014C0008054C0008094C00080D4C000863
:10013000114C0008154C0008194C00081D4C000813
:10014000214C0008254C0008294C00082D4C0008C3
:10015000314C0008354C0008394C00083D4C000873
:10016000414C0008454C0008494C00084D4C000823
:10017000514C0008554C0008594C00080000000084
:100180005D4C0008614C000870B5044682B0A06860
:100190000668356800208DF800006946204600F0AA
:1001A0000DFE00B39DF80000217888421BD1042188
:1001B000204600F0AAFFB0B14021204600F00AFE20
:1001C00088B10021204600F043FF60B1DFF8C80786
:1001D00070600021204600F070FE20B10C21204606
:1001E00000F017FE10B9012002B070BD0120687048
:1001F000607102B0002070BD000070B5044682B08E
:10020000A06805682E6800208DF800006946204629
:1002100000F0D4FD98B19DF80000217888420ED1FD
:10022000A07988B1A0680068011D204600F0C8F9D7
:10023000012804D00021204600F03FFE10B9012023
:1002400002B070BD0020A071002068607070607105
:1002500002B070BD0000000010B50446A07901286E
:100260005CD0A068006890ED010ADFED9F0AB4EE53
:10027000600AF1EE10FA48BF102147D4DFED9B0A67
:10028000B4EE600AF1EE10FA48BF20213ED4DFED53
:10029000980AB4EE600AF1EE10FA48BF302135D466
:1002A000DFED940AB4EE600AF1EE10FA48BF402187
:1002B0002CD4DFED910AB4EE600AF1EE10FA48BFDB
:1002C000502123D4DFED8D0AB4EE600AF1EE10FA6E
:1002D00048BF60211AD4DFED8A0AB4EE600AF1EE5D
:1002E00010FA48BF702111D4DFED860AB4EE600A1F
:1002F000F1EE10FA48BF802108D4DFEDB00AB4EE69
:10030000600AF1EE10FA4CBF9021A021204600F0C7
:10031000D4FD08B9012010BD0120A071002010BD3E
:1003200030B5044681B0A079002847D0A0680068A5
:10033000051D6946204600F0DFFD002839D09DF8F4
:100340000000002829D0102825D0202820D03028CF
:100350001BD0402817D0502813D060280FD0702809
:100360000BD0802807D0902803D0A0281ED1B348F6
:1003700013E0B34811E0B3480FE0B3480DE0B348D1
:100380000BE0B34809E0B34807E0DFF8480304E0B6
:10039000DFF8340301E0DFF8340328600021204651
:1003A00000F08BFD40B9012001B030BDDFF8A4049E
:1003B0002860012001B030BD0020A07101B030BD27
:1003C00000B581B000F0FAFC401E8041C00F01B0C2
:1003D00000BD10B582B0044600208DF800006946CB
:1003E000204600F0EBFC20B19DF800002178884207
:1003F00002D0012002B010BD002002B010BD0000EC
:100400002DE9F04184B080460C4601A80021C0E9E6
:100410000011404601A900F02BFD002860D001A882
:100420009DF80420417802EB01269DF807108278A0
:10043000007902EB01279DF8091000EB01250DF171
:100440000101404600F087FD002849D09DF80100D9
:10045000022808BF9FED970A1DD06946404600F06C
:10046000F7FC00283CD09DF800000C2838D8DFE8C5
:1004700000F0103737370D3737370A37373707006F
:100480009FED8D0A07E09FED8D0A04E09FED8C0A39
:1004900001E09FED8C0A36B200EE906AF8EEE00AB9
:1004A00060EE800AFDEEE00AC4ED000A3FB200EE05
:1004B000907AF8EEE00A60EE800AFDEEE00AC4ED04
:1004C000010A2DB200EE905AF8EEE00A20EE800A02
:1004D000BDEEC00A84ED020A002004B0BDE8F08140
:1004E000012004B0BDE8F081010050410100D0417D
:1004F000010050420100D042010050430100D043AE
:10050000014050440180CF4410B582B00C4669468A
:100510000022C1E9002200F0ABFC10B9012002B0BA
:1005200010BD9DF801109DF8002002EB01212180F3
:100530009DF802209DF8031002EB012161809DF8D7
:1005400004009DF8051000EB0120A08002B00020FF
:1005500010BD000030B581B00C4605460DF101011B
:1005600000F0F9FC68B19DF80100022804D151485F
:10057000206001B0002030BD6946284600F068FCCC
:1005800010B9012001B030BD9DF800000C2810D832
:10059000DFE800F0070F0F0F090F0F0F0B0F0F0F02
:1005A0000D004848E4E74648E2E74448E0E74248AF
:1005B000DEE7A848206001B0012030BD0120504591
:1005C00010B582B00C46694600F096FC10B90120C7
:1005D00002B010BD9DF80000C0B110281AD020282C
:1005E0001AD030281AD040281AD050281AD06028A3
:1005F0001AD070281AD080281AD090281AD0A02893
:100600001AD03348206002B0012010BD206002B033
:10061000002010BD2D48F9E72B48F7E72D48F5E7F6
:100620000C48F3E70A48F1E70848EFE70648EDE72A
:100630000448EBE70248E9E70048E7E70020D04537
:10064000002050450080CF44004050440000D0437B
:10065000000050430000D04200B581B08279012AE9
:1006600013D104290ED8DFE801F0090907050300BA
:10067000402104E0302102E0202100E0102100F0C0
:100680001CFCA0B9012001B000BD806800680429ED
:10069000F8D8DFE801F00A0A08060400F2E7BE49CC
:1006A00004E00C4902E0084900E0084941600020EC
:1006B00001B000BD00008C4000008C4200000C42E4
:1006C00000008C4100000C410000D041000050416E
:1006D000000080BF0000504200B581B0817901293F
:1006E000DFED7A0A55D1B4EE600AF1EE10FA48BF98
:1006F000102147D4DFED9F0AB4EE600AF1EE10FA44
:1007000048BF20213ED4DFED9C0AB4EE600AF1EE32
:1007100010FA48BF302135D4DFED980AB4EE600AF4
:10072000F1EE10FA48BF40212CD4DFED950AB4EE6B
:10073000600AF1EE10FA48BF502123D4DFED910A90
:10074000B4EE600AF1EE10FA48BF60211AD4DFED72
:100750008E0AB4EE600AF1EE10FA48BF702111D48F
:10076000DFED8A0AB4EE600AF1EE10FA48BF80218C
:1007700008D4DFED870AB4EE600AF1EE10FA4CBF40
:100780009021A02100F099FB00285FD1012001B049
:1007900000BD80680068B4EE600AF1EE10FA48BF50
:1007A000B2EE0A0A50D4DFED730AB4EE600AF1EE3D
:1007B00010FA48BFB3EE0A0A46D4DFED6F0AB4EE72
:1007C000600AF1EE10FA48BF9FED720A3CD4DFEDEB
:1007D0006B0AB4EE600AF1EE10FA48BF9FED6E0AA4
:1007E00032D4DFED670AB4EE600AF1EE10FA48BFCA
:1007F0009FED6A0A28D4DFED630AB4EE600AF1EED9
:1008000010FA48BF9FED660A1ED4DFED5F0AB4EE12
:10081000600AF1EE10FA48BF9FED780A14D4DFEDBC
:100820005B0AB4EE600AF1EE10FA48BF9FED740A5D
:100830000AD4DFED570AB4EE600AF1EE10FA4CBFAD
:100840009FED700A9FED700A80ED010A002001B053
:1008500000BD0000000080BF30B581B00C460546E9
:10086000694600F078FB28B10DF10101284600F03F
:10087000EFFA10B9012001B030BD9DF80000022848
:1008800005D1DFF89801206001B0002030BD9DF84F
:1008900001000C2814D8DFE800F0071313130A1323
:1008A00013130D1313131000DFF87401EBE7DFF8D7
:1008B0007401E8E7DFF87001E5E7DFF87001E2E7CF
:1008C000DFF86C01206001B0012030BD0100504113
:1008D00000B5042981B010D8DFE801F0030F0B0F39
:1008E0000D00002100F095FA401E8041C00F01B0BC
:1008F00000BD0421F6E70C21F4E7012001B000BDA2
:1009000030B5DFED420AB4EE600AF1EE10FA81B0C4
:10091000044606D5022100F0FFFA38B3002001B0EA
:1009200030BDDFED3B0AB4EE600AF1EE10FA48BFCD
:10093000002511D4DFED370AB4EE600AF1EE10FAAB
:1009400048BF042508D4DFED340AB4EE600AF1EEA6
:1009500010FA4CBF08250C25002100F0DDFA28B163
:100960002946204600F055FA0028D7D1012001B0D1
:1009700030BD00000100D041010050420100D042D2
:10098000010050430100D043014050440180CF4456
:1009900001205045000050420000D042000050436A
:1009A0000000D04300B581B0012300F0F5F9401EEE
:1009B0008041C00F01B000BD00B581B001238DF8AA
:1009C00000206A4600F0F1F9401E8041C00F01B0DE
:1009D00000BD10B582B00C46694600F0D4FB48B1AA
:1009E0009DF8000010B1022804D10120207002B04F
:1009F000002010BD012002B010BD00000040504496
:100A00000080CF44002050450020D0450100FA422C
:100A1000010075430100FA4301007A440000FA42E4
:100A2000000075430000FA4300007A440000FA44D5
:100A3000000080BFDFED6C0A00B5B4EE600AF1EE95
:100A400010FA81B048BF082147D4DFED8E0AB4EE1A
:100A5000600AF1EE10FA48BF10213ED4DFED8A0A99
:100A6000B4EE600AF1EE10FA48BF182135D4DFED7C
:100A7000870AB4EE600AF1EE10FA48BF20212CD4A8
:100A8000DFED830AB4EE600AF1EE10FA48BF2821C8
:100A900023D4DFED800AB4EE600AF1EE10FA48BF0D
:100AA00030211AD4DFED7C0AB4EE600AF1EE10FAC0
:100AB00048BF382111D4DFED790AB4EE600AF1EEB7
:100AC00010FA48BF402108D4DFED750AB4EE600A81
:100AD000F1EE10FA4CBF4821502100F0D8FA401E28
:100AE0008041C00F01B000BD10B582B00C46694610
:100AF00000F08AFB68B19DF8000020B1202806D0E4
:100B0000012002B010BD207002B0002010BD0120F5
:100B1000F9E7012002B010BD10B582B00C4669465D
:100B200000F062FB68B19DF8000020B1102806D0EB
:100B3000012002B010BD207002B0002010BD0120C5
:100B4000F9E7012002B010BD10B582B00C4669462D
:100B500000F06AFB68B19DF8000020B1402806D083
:100B6000012002B010BD207002B0002010BD012095
:100B7000F9E7012002B010BD00B581B000F064FBC0
:100B8000401E8041C00F01B000BD00B581B000F033
:100B90009BFB401E8041C00F01B000BD00B581B07D
:100BA00000F001FB401E8041C00F01B000BD00B548
:100BB0000A0018BF082981B00BD0102918BF1829C6
:100BC00007D0202918BF282903D0302918BF382979
:100BD00006D100F0FFF9401E8041C00F01B000BDFA
:100BE000012001B000BD00000100204170B582B0BD
:100BF0000D4604460DF1020100F066FB00283ED0D0
:100C00009DF803009DF8021041EA00260DF1010154
:100C1000204600F0A0F9002831D09DF801000228FC
:100C200008BF9FED200A1CD06946204600F010F94D
:100C300028B39DF800000C2821D8DFE800F0102030
:100C400020200D2020200A20202007009FED160ADA
:100C500007E09FED160A04E09FED150A01E09FED05
:100C6000150A36B200EE906AF8EEE00A20EE800A2D
:100C7000BDEEC00A85ED000A002002B070BD012063
:100C800002B070BD0100C841010048420100C842E5
:100C9000010048430100C843010048440100C84422
:100CA00001404E4500008C4000008C4200000C4288
:100CB00000008C4100000C4100B5062981B00CD821
:100CC000DFE801F004040B04040B040000F0C0F999
:100CD000401E8041C00F01B000BD012001B000BD29
:100CE00000B50A0018BF202981B006D100F0EEF946
:100CF000401E8041C00F01B000BD012001B000BD09
:100D000000B581B000F037F9401E8041C00F01B03E
:100D100000BD00B50A0018BF802981B006D100F0DF
:100D200078F9401E8041C00F01B000BD012001B024
:100D300000BD00B5012981B006D800F0A6FA401E1A
:100D40008041C00F01B000BD012001B000BD000016
:100D500000B50C2981B00FD8DFE801F0070E0E0EA8
:100D6000070E0E0E070E0E0E070000F0EDF9401EE6
:100D70008041C00F01B000BD012001B000BD8268FC
:100D8000521C8260426832B10268531C03601170C9
:100D90004168491E4160704700B581B000F08CFB8E
:100DA000401E8041C00F01B000BD00B581B000F011
:100DB00039FB401E8041C00F01B000BD00B50A469E
:100DC00081B001230F2100F077FB401E8041C00F4E
:100DD00001B000BD30B581B00D46044601236A461E
:100DE000122100F069FB10B1002001B030BD9DF868
:100DF000000000F0BF0028438DF8000001236A4680
:100E00001221204600F00EFB401E8041C00F01B0B1
:100E100030BD30B581B00D46044601236A4611212C
:100E200000F04AFB10B1002001B030BD9DF8000079
:100E300000F0F30028438DF8000001236A461121D9
:100E4000204600F0EFFA401E8041C00F01B030BDD7
:100E500010B50C4601232246112100F02DFB08B1EC
:100E6000002010BD207800F00C002070012010BD83
:100E7000F0B581B004460D4600260327F6B206F110
:100E800022010123AA19C9B2204600F015FB50B96E
:100E9000761CF6B206F122010123AA19C9B2204636
:100EA00000F00AFB10B1002001B0F0BD761C7F1EDF
:100EB000E4D1012001B0F0BD000030B581B00D4695
:100EC000044601236A46112100F0F6FA10B1002011
:100ED00001B030BD9DF8000000F00F0028438DF8F0
:100EE000000001236A461121204600F09BFA401EB3
:100EF0008041C00F01B030BD10B50C460123224621
:100F0000112100F0D9FA08B1002010BD207800F0BE
:100F1000F0002070012010BD30B581B00D460446B0
:100F200001236A46112100F0C7FA10B1002001B078
:100F300030BD9DF8000000F0FD0028438DF8000052
:100F400001236A461121204600F06CFA401E8041C0
:100F5000C00F01B030BD10B50C460123224611214F
:100F600000F0AAFA08B1002010BD207800F00200BD
:100F70002070012010BD70B582B0044601236A467E
:100F80000D46062100F098FA2E0A78B98DF8005027
:100F900001236A460621204600F044FA30B90123B5
:100FA0006A460721204600F087FA10B1002002B0FF
:100FB00070BD9DF8000066F302008DF8000001236B
:100FC0006A460721204600F02DFA401E8041C00FDE
:100FD00002B070BD30B581B00D46044601236A46AB
:100FE000082100F069FA10B1002001B030BD9DF871
:100FF000000000F0C70028438DF8000001236A4676
:101000000821204600F00EFA401E8041C00F01B0BA
:1010100030BD30B581B00D46044601236A46092132
:1010200000F04AFA10B1002001B030BD9DF8000078
:1010300000F07F0028438DF8000001236A46092153
:10104000204600F0EFF9401E8041C00F01B030BDD6
:1010500030B581B00D46044601236A460A2100F0EE
:101060002BFA10B1002001B030BD9DF8000000F057
:10107000F80028438DF8000001236A460A21204623
:1010800000F0D0F9401E8041C00F01B030BD30B536
:1010900081B00D46044601236A460A2100F00CFA8D
:1010A00010B1002001B030BD9DF8000000F08700B5
:1010B00028438DF8000001236A460A21204600F0EB
:1010C000B1F9401E8041C00F01B030BD30B581B0D4
:1010D0000D46044601236A460D2100F0EDF910B1DA
:1010E000002001B030BD9DF8000000F0DF00284373
:1010F0008DF8000001236A460D21204600F092F988
:10110000401E8041C00F01B030BD30B581B00D46EA
:10111000044601236A46122100F0CEF910B10020E6
:1011200001B030BD9DF8000000F0FB0028438DF8B1
:10113000000001236A461221204600F073F9401E88
:101140008041C00F01B030BD30B581B00D460446BE
:1011500001236A46142100F0AFF910B1002001B05C
:1011600030BD9DF8000000F0F30028438DF800002A
:1011700001236A461421204600F054F9401E8041A4
:10118000C00F01B030BD10B50C46012322461E2110
:1011900000F092F908B1002010BD207800F00200A4
:1011A0002070012010BD30B581B00D4604460123EA
:1011B0006A463A2100F080F938B901230DF10102A5
:1011C0003B21204600F078F910B1002001B030BD7D
:1011D0009DF801009DF8001000F00F0041EA00208A
:1011E000288001B0012030BD10B50C4601232246F5
:1011F0003B2100F061F908B1002010BD207800F01B
:1012000010002070012010BD10B50C4601232246AD
:101210003B2100F051F908B1002010BD207800F00A
:1012200020002070012010BD10B50C46012322467D
:101230003B2100F041F908B1002010BD207800F0FA
:1012400040002070012010BD30B581B00D4604462D
:1012500001236A463C2100F02FF938B901230DF132
:1012600001023D21204600F027F910B1002001B015
:1012700030BD9DF801009DF8001000F0030041EA28
:101280000020288001B0012030BD30B581B00D466E
:10129000044601236A46582100F00EF910B10020DF
:1012A00001B030BD9DF8000000F0FE0028438DF82D
:1012B000000001236A465821204600F0B3F8401E82
:1012C0008041C00F01B030BD30B50D4681B004463D
:1012D00001232A463E2100F0EFF830B901236A1CB1
:1012E0003F21204600F0E8F810B1002001B030BDE9
:1012F000012001B030BD000030B5BF4C87B02046A2
:1013000000F0D2FD002844D1BC48BD4D606001A969
:101310003320A0600120E060BA482060686940F096
:1013200002006861686900F00200009000984FF4C4
:10133000407001901220029002200490002003903F
:1013400004200590B04800F0FDFD286A40F400102C
:1013500028620022286A00F4001000900021009802
:10136000286840F400102860286820F400102860E5
:101370001F2000F0F0FE1F2000F016FF00220021C9
:10138000202000F0E8FE202000F00EFF204600F0B4
:1013900041F9204600F088FD20280CBF00200120E4
:1013A00007B030BD70B5994D994C974E8CB02868F8
:1013B00040F00200286006A9286800F002000090B2
:1013C00000980794202006900220099000200890A1
:1013D000304600F0B7FD00220021172000F0BBFED0
:1013E000172000F0E1FE286840F00200286001A903
:1013F000286800F0020000900098029410200190EC
:101400000220049000200390304600F09BFD002253
:1014100000210A2000F09FFE0A2000F0C5FE0020F7
:101420000CB070BD2DE9F043044683B0207833281A
:1014300018BF4028884616461F4603D0B12806D05C
:10144000BC2822D1022F20DB48F080081DE00025B7
:10145000380016D0DFF8A0914FF48050029000962B
:101460000120019005EB0802A1780123D2B2484681
:1014700000F042F908B1484615E06D1C761CBD42EB
:10148000EADB002003B0BDE8F0834FF48050029007
:1014900001970096584DA17801234246284600F056
:1014A0002BF928B1284600F00DF900F04EF8012084
:1014B00003B0BDE8F08300002DE9F043044683B09B
:1014C0002078332818BF4028884616461F4603D088
:1014D000B12806D0BC2822D1022F20DB48F080089A
:1014E0001DE00025380016D0DFF80C914FF4805035
:1014F000029000960120019005EB0802A1780123DB
:10150000D2B2484600F0E8FA08B1484615E06D1C32
:10151000761CBD42EADB002003B0BDE8F0834FF447
:101520008050029001970096334DA17801234246E6
:10153000284600F0D1FA28B1284600F0C3F800F0A0
:1015400004F8012003B0BDE8F08330B52A4C87B021
:10155000204600F0A9FC002844D12848284D6060AE
:1015600001A93320A0600120E0602648206068695E
:1015700040F002006861686900F002000090009885
:101580004FF440700190122002900220049000203D
:101590000390042005901C4800F0D4FC286A40F415
:1015A000001028620022286A00F400100090002138
:1015B0000098286840F400102860286820F4001083
:1015C00028601F2000F0C7FD1F2000F0EDFD002265
:1015D0000021202000F0BFFD202000F0E5FD204686
:1015E00000F018F8204600F05FFC20280CBF002017
:1015F000012007B030BD0000880900203A14D11046
:101600003810024000540040000400484C100240D2
:101610000000111010B5040001D1012010BD94F894
:10162000410020B984F84000204600F089FC2420C5
:1016300084F8410020680168490849000160606839
:10164000216820F0706008612068816821F4004101
:101650008160E06821680128A0680CBF40F4004068
:1016600040F404408860E068022803D121684FF408
:10167000006048602068416841F0007141F4004119
:1016800041602068C16821F40041C160206961693E
:101690000843A16940EA01202168C860E069216A25
:1016A0000843216808602068016841F00101016079
:1016B00000206064202084F841000020206384F82A
:1016C000420010BD10B5040001D1012010BD24203E
:1016D00084F84100206801684908490001602046FB
:1016E00000F088FD0020606484F84100206384F8E5
:1016F000420084F8400010BD2DE9F04705468946B8
:1017000095F8410020289246984640F0E181089ED5
:10171000002E00F09E81099C200000F09A8195F82F
:101720004000012800F0D481012085F8400000F03D
:1017300063FD07462868816909040FD500F05CFD48
:10174000C01B1A28F6D3202085F84100002085F818
:10175000420085F840000320BDE8F087212185F88C
:1017600041105FFA88F2402185F842100021696437
:101770006E626C856963C9F309044168DFF81C97E0
:1017800009EA0101214341EA024141F0807141F43B
:10179000005141600A9E2968886980074CD4886995
:1017A000C0063BD52868816989061BD416F1010F54
:1017B000F8D026B100F020FDC01B8642F2D22020D6
:1017C00085F84100002085F8420085F84000686CEB
:1017D000686C042840F0A380002085F840000120B8
:1017E000BDE8F0871021C16120202968C861286800
:1017F0008169890744BF0021816228688169C9071E
:1018000003D4816941F0010181612868DFF89026E5
:1018100041681140416004206864D0E716F1010F6F
:10182000B9D026B100F0E8FCC01B8642B3D2686C88
:1018300040F020006864C2E7B8F1010F48D04FEAD9
:101840001A20886228688169890741D48069C006A6
:1018500028D528688169890609D416F1010FF8D0C6
:101860006EB300F0C9FCC01B8642F2D227E0102103
:10187000C16120202968C86128688169890744BF3F
:101880000021816228688169C90703D4816941F018
:10189000010181612868DFF8082641681140416034
:1018A00004200BE016F1010FCCD026B100F0A4FC0F
:1018B000C01B8642C6D2686C40F0200068642020BD
:1018C00085F84100002085F8420085F840007EE759
:1018D00028685FFA8AF1816228688169090611D453
:1018E00016F1010FF8D026B100F086FCC01B86422D
:1018F000F2D2202085F84100002085F8420085F8CA
:10190000400065E7698DFF290FD9FF212985DFF8A0
:101910009425416809EA01012143114310E00020A8
:1019200085F840000320BDE8F087698D2985C9B29C
:10193000426809EA0202224342EA014141F0007191
:10194000416028688169890721D43A463146284692
:1019500000F0ADFAA0B916F1010FF2D026B100F0F7
:101960004BFCC01B8642ECD2686C40F020006864DF
:10197000202085F84100002085F8420085F84000CD
:10198000686C042840F0A1800120BDE8F087696AF6
:101990004A1C6A6209788162688D401E6885288DBC
:1019A000401E288580B290BB688D80B3286881690D
:1019B000090613D416F1010FF8D026B100F01CFC73
:1019C000C01B8642F2D2202085F84100002085F815
:1019D000420085F840000320BDE8F087698DFF29AB
:1019E00009D9FF212985DFF8BC24416809EA0101F2
:1019F000214311430AE0698D2985C9B2426809EA89
:101A00000202224342EA014141F000714160688DC7
:101A1000002896D128688169890644D48069C00667
:101A200036D528688169890616D416F1010FF8D0D9
:101A300026B100F0E1FBC01B8642F2D2202085F8DF
:101A40004100002085F8420085F84000686C0428B9
:101A50003BD10120BDE8F0871021C1612020296819
:101A6000C86128688169890744BF002181622868AC
:101A70008169C90703D4816941F001018161286846
:101A8000DFF81C2441681140416004206864D5E7F8
:101A900026B100F0B1FBC01B8642BBD2686C40F09F
:101AA00020006864CAE72021C1612868DFF8F023BC
:101AB000416811404160202085F84100002085F8F0
:101AC000420085F84000BDE8F0870320BDE8F087BC
:101AD0000220BDE8F08700002DE9F0470546894661
:101AE00095F8410020289246984640F0D481089EFF
:101AF000002E00F09181099C200000F08D8195F866
:101B00004000012800F0C781012085F8400000F066
:101B100073FB07462868816909040FD500F06CFB48
:101B2000C01B1A28F6D3202085F84100002085F834
:101B3000420085F840000320BDE8F087222185F8A7
:101B400041105FFA88F2402185F842100021696453
:101B50006E626C856963C9F309044168DFF83C93E0
:101B600009EA0101214341EA024141F40051416087
:101B70000A9E2968886980074CD48869C0063BD5CD
:101B80002868816989061BD416F1010FF8D026B1A7
:101B900000F032FBC01B8642F2D2202085F84100C3
:101BA000002085F8420085F84000686C686C0428C5
:101BB00040F0A480002085F840000120BDE8F087B7
:101BC0001021C16120202968C861286881698907BE
:101BD00044BF0021816228688169C90703D48169F3
:101BE00041F0010181612868DFF8B42241681140A9
:101BF000416004206864D0E716F1010FB9D026B126
:101C000000F0FAFAC01B8642B3D2686C40F02000A4
:101C10006864C2E7B8F1010F48D04FEA1A20886221
:101C200028688169890741D48069C00628D5286859
:101C30008169890609D416F1010FF8D06EB300F05E
:101C4000DBFAC01B8642F2D227E01021C1612020BE
:101C50002968C86128688169890744BF00218162B9
:101C600028688169C90703D4816941F00101816154
:101C70002868DFF82C2241681140416004200BE005
:101C800016F1010FCCD026B100F0B6FAC01B864287
:101C9000C6D2686C40F020006864202085F84100BE
:101CA000002085F8420085F840007EE728685FFA4A
:101CB0008AF1816228688169490611D416F1010F01
:101CC000F8D026B100F098FAC01B8642F2D220204C
:101CD00085F84100002085F8420085F8400065E75E
:101CE000698DFF2910D9FF212985416809EA010181
:101CF000214341F0FE7141F4493112E0002085F8A2
:101D000040000320BDE8F087698D2985C9B242688B
:101D100009EA0202224342EA014141F0007141F422
:101D20001051416028688169490713D416F1010FE9
:101D3000F8D026B100F060FAC01B8642F2D2202013
:101D400085F84100002085F8420085F84000032016
:101D5000BDE8F087696A4A1C6A62406A0870288D8B
:101D6000401E288580B2698D491E698590BB688DAB
:101D700080B328688169090613D416F1010FF8D0E1
:101D800026B100F039FAC01B8642F2D2202085F835
:101D90004100002085F8420085F840000320BDE89E
:101DA000F087698DFF2909D9FF212985DFF8F42003
:101DB000416809EA0101214311430AE0698D29853F
:101DC000C9B2426809EA0202224342EA014141F0F3
:101DD00000714160688D0028A4D128688169890656
:101DE00044D48069C00636D528688169890616D42E
:101DF00016F1010FF8D026B100F0FEF9C01B8642A3
:101E0000F2D2202085F84100002085F8420085F8B4
:101E10004000686C04283BD10120BDE8F087102108
:101E2000C16120202968C86128688169890744BF89
:101E30000021816228688169C90703D4816941F062
:101E4000010181612868DFF8582041681140416034
:101E500004206864D5E726B100F0CEF9C01B8642A5
:101E6000BBD2686C40F020006864CAE72021C161E1
:101E70002868DFF82C20416811404160202085F857
:101E80004100002085F8420085F84000BDE8F08759
:101E90000320BDE8F0870220BDE8F087009800FC31
:101EA00000E800FE0000FF0190F84100704770B5A7
:101EB00004460D4620688069C00616463AD520685B
:101EC0008169890612D415F1010FF8D025B100F00F
:101ED00093F9801B8542F2D2202084F84100002033
:101EE00084F8420084F84000032070BD1021C161D5
:101EF00020202168C86120688169890744BF0021CA
:101F0000816220688169C90703D4816941F00101B8
:101F100081612068094A4168114041600420606481
:101F2000202084F84100002084F8420084F840001A
:101F3000012070BD002070BD0000000000E800FE20
:101F4000704700002DE9F04F81B00C68714BDFF84D
:101F5000C881DFF8C8910022002C4FF00F0A4FF023
:101F6000010B00F0BE800C680BFA02FC1CEA040EA8
:101F700000F0B2804C68022C18BF122C0ED1D4088D
:101F800000EB84049500266A05F01C050AFA05F7A3
:101F9000BE430F6907FA05F5354325625400032552
:101FA00006680F79A540ED4307F003072E40A740D0
:101FB0003E4306604E68012E18BF022E03D0112E3C
:101FC00018BF122E0ED18668CF682E40A7403E4320
:101FD000866046684F68C7F3001726EA0C069740EC
:101FE0003E4346604E6806F00307032F07D1C76AD9
:101FF000C6F3C00627EA0C0796403E43C662C66891
:102000002E408D6805FA04F43443C4604C68E40043
:1020100062D5D9F8004044F00104C9F800404FEA05
:10202000920CD9F8005005F0010400949500009C32
:1020300058F82C6005F00C040AFA04F526EA0505A8
:10204000B0F1904F08BF00261DD0354EB04208BFFA
:10205000012618D0334EB04208BF022613D0324EAC
:10206000B04208BF03260ED0304EB04208BF04264F
:1020700009D02F4EB04208BF052604D02D4EB042E5
:102080000CBF0626072606FA04F42C4348F82C4019
:102090006FEA0E061C684D683440ED0348BF4EEAF7
:1020A00004041C605C684D683440AD0348BF4EEAD0
:1020B00004045C609C684D683440ED0248BF4EEA01
:1020C00004049C60DC6806EA040C4C68A40248BF67
:1020D0004EEA0C0CC3F80CC0521C0C68D4407FF4C0
:1020E00042AF01B0BDE8F08F00690840401E80415A
:1020F000C043C00F70470AB1816170478162704769
:102100000D4A136803421CBF106000F011BB7047FA
:10211000000000000004014008000140601002407F
:102120000004004800080048000C00480010004867
:1021300000140048001800481404014027490A68A8
:102140004FF6FF0300021A4000F4E0601043244AF7
:1021500010430860704730B4204B1B68C3F3022360
:10216000C3F10704052C28BF04241D1D072D34BF0F
:102170000023DB1E012505FA04F4641E214099406A
:1021800005FA03F35B1E1A4011430901002807D525
:10219000144A00F00F00104400F8041C30BC7047D3
:1021A000114A115430BC7047012100F01F029140C8
:1021B0000E4A400942F820107047401EB0F1807F5F
:1021C00001D3012070470A494860F02081F8130DBF
:1021D0000020886007200860002070470CED00E0B8
:1021E0000000FA0518ED00E000E400E000E100E086
:1021F00010E000E07047000001480068704700BF31
:10220000000A00202DE9F04B88B000208DF80E0068
:10221000049000F0AFFB00F0BBFB002000F0FEFBE1
:102220000121002000F038FC00F09AFCDFF8C045E6
:10223000211D002000F0EEFC012823D10FF2B8533D
:102240000FF214724FF4807104F1080000F0F4FDF5
:1022500004F1080000F012FE82B241F2883304F16A
:102260000801DFF8900500F058FE002000F0FEFBAA
:10227000642001F0E3F8002000F003FC642001F08A
:10228000DDF8F2E7606800F027FD012823D10FF2A6
:1022900068530FF2C4624FF4807104F1080000F03B
:1022A000CBFD04F1080000F0E9FD82B241F2883371
:1022B00004F10801DFF83C0500F02FFE002000F0DB
:1022C000D5FB642001F0BAF8002000F0DAFB6420AE
:1022D00001F0B4F8F2E76068002100F00DFD01287C
:1022E0001ED06068082100F052FD012818D06068F7
:1022F0009FED5A0A00F010FD012811D060682021DE
:1023000000F070FD01280BD060681F2100F078FDFF
:10231000012805D06068802100F080FD012823D1CC
:102320000FF2D4430FF230624FF4807104F10800D1
:1023300000F082FD04F1080000F0A0FD82B241F23D
:10234000883304F10801DFF8AC0400F0E6FD00205A
:1023500000F08CFB642001F071F8002000F091FB8C
:10236000642001F06BF8F2E70FF294424FF48071B1
:1023700004F1080000F060FD04F1080000F07EFDAB
:1023800041F2883882B2434604F10801DFF8640460
:1023900000F0C3FD01E0022060706078042800F2C4
:1023A000A581DFE810F00500060047007300640116
:1023B000F3E70FF2A4424FF4807104F1080000F03B
:1023C0003BFD04F1080000F059FD82B2434604F1E0
:1023D0000801DFF8200400F0A0FD4FF47A7001F04E
:1023E0002DF86068012100F0EFFC0128D3D10FF235
:1023F00008430FF264524FF4807104F1080000F0BA
:102400001BFD04F1080000F039FD82B2434604F1DF
:102410000801DFF8E00300F080FD002000F026FB5B
:10242000642001F00BF8002000F02BFB642001F089
:1024300005F8F2E7606804A900F09AFC012802D1CF
:1024400008B0BDE8F08BBDF81000BDF8121088424E
:1024500017D0ADF81200D3A202E000BF0040CE4575
:102460004FF4807104F1080000F0E6FC04F108006C
:1024700000F004FD82B2434604F10801DD4800F09B
:102480004CFD2078002888D0032085E760680DF196
:102490000E0100F04FFC012821D10FF25C330FF246
:1024A000B8424FF4807104F1080000F0C5FC04F15B
:1024B000080000F0E3FC82B2434604F10801CD4875
:1024C00000F02BFD002000F0D1FA642000F0B6FFF0
:1024D000002000F0D6FA642000F0B0FFF2E79DF88B
:1024E0000E0001287FF459AF002000F0BFFA002051
:1024F000ADF80C008146606803A900F039FC0128A2
:1025000000F09380BDF80C000FF280324AF6AB2148
:102510004143480CADF80C0003464FF4807104F1C0
:10252000080000F089FC04F1080000F0A7FC82B26A
:10253000434604F10801AF4800F0EFFC4FF47A7015
:1025400000F07CFF0FF28C324FF4807104F1080030
:1025500000F072FC04F1080000F090FC82B24346E7
:1025600004F10801A34800F0D8FC1EE0069DBBF171
:10257000010B27D102971FFA89F00196431C0095A1
:102580004FF480710FF2983204F1080000F054FC0F
:1025900004F1080000F072FC82B2434604F1080125
:1025A000944800F0BAFC09F10109BDF80C0081451E
:1025B00020DA0020ADF81400069000250026002740
:1025C0004FF0030B606805A900F0C3FB01282CD075
:1025D000606806A900F0E9FB012826D0BDF81400C8
:1025E0000028C3D0022801D002D31EE0069FBEE718
:1025F000069EBCE70FF208324FF4807104F1080028
:1026000000F01AFC04F1080000F038FC82B24346E6
:1026100004F10801774800F080FC642000F00EFF10
:10262000002000F02EFA0420B6E60FF2CC130FF2D1
:1026300028324FF4807104F1080000F0FDFB04F132
:10264000080000F01BFC82B2434604F1080169480F
:1026500000F063FC002000F009FA642000F0EEFEB8
:10266000002000F00EFA642000F0E8FEF2E7606857
:10267000002100F0A9FB012816D00FF2B0124FF490
:10268000807104F1080000F0D7FB04F1080000F0AD
:10269000F5FB82B2434604F10801564800F03DFCC8
:1026A00000202070049077E60FF24C130FF2A8225E
:1026B0004FF4807104F1080000F0BEFB04F1080043
:1026C00000F0DCFB82B2434604F10801494800F007
:1026D00024FC002000F0CAF9642000F0AFFE0020C6
:1026E00000F0CFF9642000F0A9FEF2E70FF2081322
:1026F0000FF264224FF4807104F1080000F09CFB9B
:1027000004F1080000F0BAFB82B2434604F108016C
:10271000384800F002FC002000F0A8F9642000F026
:102720008DFE002000F0ADF9642000F087FEF2E796
:1027300010B5B0F5005F0BD1002000F0F9F90028CA
:1027400002BF2B4C6078002804BF0120607010BDD0
:102750002028274C02D10120207010BD0FF2E01379
:102760000FF2F4124FF4807104F1080000F064FBE2
:1027700004F1080000F082FB82B241F2883304F1D8
:1027800008011C4800F0C9FB002000F06FF964202C
:1027900000F054FE002000F074F9642000F04EFEBA
:1027A000F2E700002E00000010B5114C0FF2A81245
:1027B00003464FF4807104F1080000F03DFB04F182
:1027C000080000F05BFB82B241F2883304F108019B
:1027D000084800F0A2FB002000F048F9642000F057
:1027E0002DFE002000F04DF9642000F027FEF2E7F6
:1027F0008C000020180800206D61696E0000000048
:102800000D0A2D2D2D2D2D2D204C534D3644534C7E
:10281000204649464F204D6F64652044454D4F206A
:102820002D2D2D2D2D2D0D0A0D0A000050726573D2
:1028300073205553455220627574746F6E20746F07
:10284000207374617274207468652044454D4F2E66
:102850002E2E0D0A000000000D0A4C534D36445335
:102860004C2073746172747320746F2073746F7270
:102870006520746865206461746120696E746F20DE
:102880004649464F2E2E2E0D0A0D0A000D0A0D0A3E
:1028900025642073616D706C657320696E204649F4
:1028A000464F2E0D0A0D0A537461727465642064DC
:1028B0006F776E6C6F6164696E672064617461200C
:1028C00066726F6D204649464F2E2E2E0D0A0D0A58
:1028D000000000005B444154412023235D20202060
:1028E00020204759525F5820202020204759525F0E
:1028F0005920202020204759525F5A0D0A0000001D
:102900000D0A4649464F20646F776E6C6F616420F4
:10291000636F6D706C657465642E0D0A0D0A00009E
:102920005B4441544120253032645D202025386CC1
:1029300064202025386C64202025386C640D0A0042
:1029400048414C5F4750494F5F455854495F436188
:102950006C6C6261636B00000D0A4572726F7220CD
:10296000696E20272573272066756E6374696F6E04
:102970002E0D0A0000B581B00320FFF7DFFB0F200A
:1029800000F06EFD00F003F8002001B000BD7047BC
:1029900000B597B068460021002200230EC006C093
:1029A000442100F073FD1020059001200B90602061
:1029B0000D9000200C9002200F900120109011909B
:1029C00028201290022015900720139004201490C4
:1029D00005A800F05FFD18B10FF22C00FFF7E4FE30
:1029E0000F2000900421032001900020029003900A
:1029F0000490684601F002F818B10FF20C00FFF7DE
:102A0000D3FE17B000BD000053797374656D436C3D
:102A10006F636B5F436F6E666967000010B586B0C9
:102A200001A90022002300241CC10CC101000AD10D
:102A3000DFF810110A6842F001020A60096801F02B
:102A40000101009100990FF20C11DFF8FC2031F820
:102A5000101001910393012102910221049101A917
:102A600052F82000FFF76EFA06B010BD0FF2E40135
:102A7000DFF8D43031F8101053F820000122FFF7AE
:102A80003ABB0FF2D001DFF8C03031F8101053F824
:102A900020000022FFF72FBB30B587B0044601A805
:102AA0000022002300252CC00CC020000AD1DFF832
:102AB0009400026842F004020260006800F0040022
:102AC00000900098080011D10FF28C0030F814002B
:102AD0000190029302200490039301A9DFF86C0097
:102AE00050F82400FFF72EFA07B030BD01291DD1A0
:102AF0000FF2640030F814000190039301A9DFF88D
:102B00005000029002200490DFF8400050F82400AA
:102B1000FFF718FA0FF2440030F8144000220F219A
:102B200060B2FFF718FB60B2FFF73EFB07B030BDA5
:102B30000FF22401DFF8142031F8101052F82000B1
:102B4000FFF7D2BA4C1002409401002098010020F7
:102B500000002110200000000020000028000000DC
:102B600010B52948294C86B0016841F00101016087
:102B7000016801F0010100910099016841F0010133
:102B80000160016801F0010100910099C16841F400
:102B90000031C16001A9C06800F4003000900098C5
:102BA0000420019002200290002003900220049053
:102BB000072005904FF09040FFF7C4F908200190DE
:102BC00001A9072005904FF09040FFF7BBF910488E
:102BD00020604FF4E13060600020A060E060206180
:102BE000A0610C206061204600F064F900B1FEE7AE
:102BF00004F1700060654FF48070A4F85800002064
:102C0000E06606B010BD00004C100240180800201D
:102C10000044004000B581B0002200280A60084648
:102C200006D000F00CF8012806D0002001B000BD4D
:102C300000F005F80128F8D1012001B000BD30B541
:102C4000214D04466879012881B03AD0FEF754FB43
:102C5000012836D06A20287000206870D620A8701D
:102C60000020A880A8710120E87105F11400A86077
:102C70001648E860164828611648E86105F11C000E
:102C800068610020A8612560E8680168080008D133
:102C900000200021002207C503C5206001B00120EB
:102CA00030BD28468847012808D12068142100F04B
:102CB000DDFF0020206001B0012030BDFEF772FB77
:102CC000002001B030BD0000D40900203C000020ED
:102CD00000000020080A002000B581B018B1C168CA
:102CE00089680A0002D1012001B000BD884701288F
:102CF00018BF002001B000BD00B581B018B1C26896
:102D0000926A130002D1012001B000BD9047012852
:102D100018BF002001B000BD00281CBF01690029B8
:102D200006D002786A2A03D109680A0018BF08474A
:102D30000120704700281CBF0269002A07D031B16A
:102D400003786A2B03D15268130018BF1047012083
:102D5000704700281CBF0269002A07D031B10378F0
:102D60006A2B03D11269130018BF10470120704766
:102D700000281CBF0269002A07D031B103786A2BF2
:102D800003D19269130018BF104701207047002833
:102D90001CBF0269002A06D003786A2B03D1D269CE
:102DA000130018BF10470120704700281CBF02699C
:102DB000002A07D031B103786A2B03D1126A1300BD
:102DC00018BF10470120704700281CBF0269002A65
:102DD00006D003786A2B03D1526A130018BF10473C
:102DE0000120704700281CBF0269002A06D0037822
:102DF0006A2B03D1926A130018BF10470120704755
:102E000000281CBF0269002A06D003786A2B03D170
:102E1000D26A130018BF10470120704700281CBF5A
:102E20000269002A06D003786A2B03D1126B1300C3
:102E300018BF10470120704708B400B584B005AB37
:102E400003930023029311B90093019302E00090D1
:102E5000481E019003AB6946074878441A3000F0D9
:102E600009FF009911B1009A00211170002858BF84
:102E7000029804B05DF808FB07DFFFFF00F10103D3
:102E8000810704D010F8011B89B18107FAD10268CB
:102E9000B2F10131914311F0803F04BF50F8042F8B
:102EA000F6E710F8011B11B110F8011BFBE7C01A7F
:102EB0007047000010B5040014D094F8690020B9E0
:102EC00084F86800204600F0B8FA242084F86900ED
:102ED00020680168490849000160204600F094F824
:102EE000012801D1012010BD606A10B1204600F018
:102EF000FDF92068416821F49041416020688168B3
:102F000021F02A0181602068016841F0010101601F
:102F10002046BDE8104000F04CBA2DE9F0410446CF
:102F20000D4694F86900202890461E4668D1002D71
:102F300014BF5FEA0800012063D094F868000128FC
:102F40005ED0012084F868000020E066212084F82B
:102F50006900FFF751F9A4F850800746A4F85280A1
:102F600000E00185B4F8520000B3B4F85200401EEE
:102F7000A4F852002068C169090609D416F1010FAE
:102F8000F8D006B3FFF738F9C01B8642F2D21AE038
:102F9000A168B1F5805F04BF2169002912BF15F84F
:102FA000011B35F8021BC1F30801DAE72068C0698C
:102FB00040061DD416F1010FF8D026B1FFF71CF919
:102FC000C01B8642F2D22068016821F4D0710160F2
:102FD00020688168490849008160202084F86900E0
:102FE00084F86A00002084F868000320BDE8F081BE
:102FF000202084F86900002084F86800BDE8F08192
:103000000220BDE8F0810000F0B5044681B02168DF
:10301000AB4B08681840A3681843236918436369D9
:103020001843E3691843086010264868E36820F4F1
:1030300040501843486000220025A069A14B9942E6
:103040001CBF276A38438F6827F43067384388608D
:103050009D4881421CD19D48006800F00300032870
:103060004AD8DFE800F0023827480126E069B0F5C9
:10307000004F40F0DE80082E00F2CF80DFE806F03F
:1030800005B1B4CDBDCDCDCDC60000F0C5FDB6E0D7
:103090008F48814210D18D48006800F00C000C2848
:1030A0002AD8DFE800F065292929182929290729C4
:1030B0002929280002261FE0864881420DD1834835
:1030C000006810F0300053D0102804D02028F1D030
:1030D000302810D010E004260EE07F48814226D12F
:1030E0007A48006810F0C00042D04028F3D0802811
:1030F000E0D0C02800D108269942B7D1082E00F2AE
:10310000DA80DFE806F005D837D839D8D8D83C00BF
:1031100000F082FD002800F0CF80626802EB4201DF
:103120008842C0F0C880110381422BD2C3E06B48B3
:1031300081420DD16548006810F4407018D0B0F598
:10314000807FC8D0B0F5007FB4D0B0F5407FC0E735
:103150009942D1D15D48006810F4406008D0B0F5C4
:10316000806FB8D0B0F5006FA4D0B0F5406FB0E775
:103170000026C1E75A48D0E700F0F6FCCAE74FF452
:103180000040CAE7082E21D8DFE806F00520082015
:103190000E2020201A0000F03FFD07E00021514ED4
:1031A00016EB5200494107E000F0DEFC6268010EB8
:1031B000560816EB00206941002301F03DF906E0B6
:1031C000500800F50000B0FBF2F000E00125A0F58A
:1031D0004071454A91426ED22168C860284601B0CC
:1031E000F0BD00F023FD0AE06068410801F1F471D0
:1031F00001F59041B1FBF0F210E000F0B5FC616820
:103200004A0802EB4000B0FBF1F207E060684108B9
:1032100001F58031B1FBF0F200E001254FF6F070CE
:103220001040C2F3420108432168C860284601B03B
:10323000F0BD082E3FD8DFE806F005121F3E263EFF
:103240003E3E330000F0E8FC616800EB5100B0FB4B
:10325000F1F0216880B2C86001B02846F0BD00F0EE
:10326000E5FC616800EB5100B0FBF1F0216880B231
:10327000C86001B02846F0BD6068420802F57402DB
:1032800002F5105210E000F06FFC616800EB510095
:10329000B0FBF1F0216880B2C86001B02846F0BDF3
:1032A0006068420802F50042B2FBF0F080B2C860EC
:1032B00001B02846F0BD0125284601B0F0BD000050
:1032C000F369FFEF008000400038014088100240A1
:1032D0000044004000480040004C004000500040C6
:1032E0000024F400000024F400FD0F0090F82410E6
:1032F000C90706D501684A68836A22F400321A4376
:103300004A6090F82410890706D501684A68C36AA4
:1033100022F480321A434A6090F82410490706D5F7
:1033200001684A68036B22F480221A434A6090F8CD
:103330002410090706D501684A68436B22F400424D
:103340001A434A6090F82410C90606D501688A68B5
:10335000836B22F480521A438A6090F82410890605
:1033600006D501688A68C36B22F400521A438A604A
:1033700090F82410490610D501684A68036C22F4BD
:1033800080121A434A60026CB2F5801F05D14A6868
:10339000436C22F4C0021A434A6090F824100906D4
:1033A00006D501684A68806C22F400221043486008
:1033B000704730B5044681B00020E066FEF71CFF80
:1033C00005462068006800070AD52068C0698002A9
:1033D00006D4FEF711FF401BB0F1007FF5D30DE0DE
:1033E0002068006840071ED52068C06940021AD4D2
:1033F000FEF702FF401BB0F1007FF5D320680168A3
:1034000021F4D07101602068816849084900816019
:10341000202084F8690084F86A00002084F868009D
:1034200001B0032030BD202084F8690084F86A00D0
:10343000002084F8680001B030BD704730B581B01D
:103440000446FEF7D9FE14F1010F054618BF641CAF
:10345000FEF7D2FE401BA042FAD301B030BD0000FF
:1034600010B504460748084A0068A0FB0221480A34
:10347000FEF7A3FE002221464FF0FF30FEF76BFE61
:10348000002010BD9C010020986E1283002201F0E4
:103490004BB800002DE9F041044682B02078DFF8F7
:1034A000A057C00640F1B880A86810F00C0F40F09B
:1034B000D0802868800703D5A069002800F0C58067
:1034C0002868276A00074EBF2868D5F894000009CD
:1034D00000F0F000B84248D2A86D0026C00002D526
:1034E00001F03CF80EE0A86D40F08050A865A86D92
:1034F00000F080500090009801F030F8A96D21F0A4
:103500008051A965B0F5007F05D1812F0ED3A12F81
:103510000BD302260AE0812F28BF032606D2802F74
:1035200001D1022602E0702F00D10126DFF8180732
:103530000168C90846EAC1010160006800F007009F
:10354000B04240F08280286840F008002860286877
:10355000216A20F0F000084328606868E16920F4DF
:103560007F4040EA0120686047E0286840F008009A
:10357000286000262868216A20F0F00008432860AF
:103580006868E16920F47F4040EA01206860276AAA
:10359000A86DC00002D500F0E1FF0EE0A86D40F07C
:1035A0008050A865A86D00F080500090009800F051
:1035B000D5FFA96D21F08051A965B0F5007F05D137
:1035C000812F0ED3A12F0BD302260AE0812F28BF13
:1035D000032606D2802F01D1022602E0702F00D1EF
:1035E0000126DFF864060168C90846EAC1010160E6
:1035F000006800F00700B04227D100F0B5FAAA68D1
:10360000DFF84816C2F30312895CC840DFF83416AD
:1036100008600F20FFF724FF2078C00740F18D805D
:10362000A86800F00C00082809D0A86800F00C0079
:103630000C2802BFE86800F00300032843D1286883
:1036400080037AD56068002877D1012002B0BDE8F8
:10365000F081A0690028286823D040F0010028608C
:10366000FEF7CAFD06462868800708D4FEF7C4FDA9
:10367000801B0328F7D3032002B0BDE8F08128683F
:1036800040F0080028602868216A20F0F000084314
:1036900028606868E16920F47F4040EA01206860A2
:1036A000BAE7400840002860FEF7A6FD06462868F5
:1036B0008007B1D5FEF7A0FD801B0328F7D30320B8
:1036C00002B0BDE8F0816068B0F5803F03D12868A2
:1036D00040F4803010E0B0F5A02F286806D140F407
:1036E00080202860286840F4803005E020F4803095
:1036F0002860286820F480202860606870B1FEF798
:103700007BFD06462868800317D4FEF775FD801BF5
:103710006528F7D3032002B0BDE8F081FEF76CFD09
:1037200006462868800308D5FEF766FD801B6528DD
:10373000F7D3032002B0BDE8F081207880071CD5C4
:10374000A86800F00C00042809D0A86800F00C005C
:103750000C2802BFE86800F00300022829D128687D
:10376000400503D5E06800283FF46FAF6868216921
:1037700020F0F85040EA016068602078000754D5D6
:1037800060690028D5F894003BD040F00100C5F8EE
:103790009400FEF731FD0646D5F89400800744D426
:1037A000FEF72AFD801B0328F6D3032002B0BDE8F4
:1037B000F081E0680028286811D040F4807028600B
:1037C000FEF71AFD064628684005CFD4FEF714FD23
:1037D000801B0328F7D3032002B0BDE8F08120F45A
:1037E00080702860FEF708FD064628684005C4D5AD
:1037F000FEF702FD801B0328F7D3032002B0BDE8CB
:10380000F08140084000C5F89400FEF7F5FC06463C
:10381000D5F89400800708D5FEF7EEFC801B03283E
:10382000F6D3032002B0BDE8F0812078400775D5BB
:10383000A86D0027C00009D4A86D40F08050A8658D
:103840000127A86D00F0805000900098DFF80084F8
:10385000D8F80000C00516D4D8F8000040F48070F5
:10386000C8F80000FEF7C8FC4FEA0006D8F80000D0
:10387000C00508D4FEF7C0FC801B0328F6D3032044
:1038800002B0BDE8F081A068012804D1D5F890000D
:1038900040F0010014E00528D5F8900008D140F070
:1038A0000400C5F89000D5F8900040F0010007E052
:1038B00040084000C5F89000D5F8900020F00400C2
:1038C000C5F89000A06890B1FEF796FC4FEA00069C
:1038D00041F28938D5F8900080071AD4FEF78CFCA5
:1038E000801B4045F6D3032002B0BDE8F081FEF70F
:1038F00083FC064641F28938D5F89000800708D548
:10390000FEF77AFC801B4045F6D3032002B0BDE8E9
:10391000F0811FB1A86D20F08050A865A06A002832
:1039200068D0A96801F00C010C293FF48EAE022882
:10393000286820F0807028603ED1FEF75DFC0646C6
:103940002868800108D5FEF757FC801B0328F7D3B1
:10395000032002B0BDE8F081206B616B401E0902BC
:1039600041EA0010A16B090940EA4140E16A0843BD
:10397000E16B891E0905490D40EA4150216C891E01
:10398000090601F07E410843E860286840F0807035
:103990002860E86840F08070E860FEF72DFC06467D
:1039A0002868800126D4FEF727FC801B0328F7D364
:1039B000032002B0BDE8F0812868000106D4286821
:1039C000800003D4E86880088000E860E868DFF8D9
:1039D00084120840E860FEF70FFC06462868800164
:1039E00008D5FEF709FC801B0328F7D3032002B09B
:1039F000BDE8F081002002B0BDE8F0812DE9F04182
:103A0000DFF8446204463068884600F0070040450D
:103A100009D23068C00848EAC0003060306800F061
:103A2000070040457AD12078DFF81472800705D569
:103A3000B868A16820F0F0000843B8602078C0079B
:103A40005DD56068022802D13968890308E003283F
:103A500002D13968890103E00028396804D1890757
:103A600004D40120BDE8F081490557D5B96889081B
:103A700040EA8100B860FEF7BFFB05466068022897
:103A80000ED1B86800F00C00082838D0FEF7B4FB5F
:103A9000401B41F289318842F3D30320BDE8F08115
:103AA00003280ED1B86800F00C000C2827D0FEF7D0
:103AB000A3FB401B41F289318842F3D30320BDE8C8
:103AC000F08168B9B86810F00C0F18D0FEF794FBBD
:103AD000401B41F289318842F4D30320BDE8F081D4
:103AE000B86800F00C00042809D0FEF785FB401BE5
:103AF00041F289318842F3D30320BDE8F081306878
:103B000000F0070080450CD23068C00848EAC000C9
:103B10003060306800F00700404502D00120BDE869
:103B2000F0812078400705D5B868E16820F4E060AE
:103B30000843B8602078000706D5B868216920F4EA
:103B4000605040EAC100B86000F00EF8BA683F4922
:103B5000C2F30312895CC8403A4908600F20FFF79E
:103B60007FFC0020BDE8F08135498B6800220020F1
:103B700013F00C0F09D08B6803F00C030C2B02BF61
:103B8000CB6803F00303012B12D10A68334B1207F1
:103B900059BFD1F89420C2F303220A68C2F303127A
:103BA00053F822208B6813F00C0F0ED110460CE056
:103BB0008B6803F00C03042B08BF294805D08B68E1
:103BC00003F00C03082B08BF26488B6803F00C0396
:103BD0000C2B20D1C868CB68C3F302135B1C00F028
:103BE0000300022802D0032804D007E01C48B0FBE1
:103BF000F3F005E01B48B0FBF3F001E0B2FBF3F09B
:103C0000CA68C968C1F34161C2F30622491C504326
:103C10004900B0FBF1F070470A480F4A006812688B
:103C20001149C2F30222895CC840704705480A4A1C
:103C3000006812680C49C2F3C222895CC840704710
:103C4000001002409C010020002002402049000892
:103C500000700040FFFFEEFE0810024030490008EF
:103C60000024F40000127A000C4B0008002200F03F
:103C70007DBC00002DE9F04F80460FF2A47095B096
:103C800015461E46D0E90023CDE9132303AF0020DB
:103C90000391B8610DF1340900E02D190020ADF851
:103CA000020013AB4FF0FF3229460DF1020000F085
:103CB0008CFC0446012C04DA2878441EA441E44319
:103CC000E40FBDF8020025280CBFA4F1010BA346A8
:103CD000BBF1010F0EDBAA461AF8011B0398C0477F
:103CE0000028039000F0DA80B869401CBBF1010B9A
:103CF000B861F1D1BDF80200252804D10020F86098
:103D00003861786105E00028C7D1B86906E340F062
:103D1000010015F8011F2029F9D023290DD02B29E6
:103D200004D02D2906D030290AD00CE040F0020042
:103D300080B2EEE740F00400FAE740F00800F7E751
:103D400040F01000F4E72A290ED13168316051F8B3
:103D5000042B3160002A3A6204D5514240F004003D
:103D6000396280B26D1C13E0002139620BE0396AC0
:103D70006FF00043994205D001EB810302EB430150
:103D8000303939626D1C2A78A2F130010A29EED34C
:103D900029782E2903D04FF0FF31F9611FE015F883
:103DA000011F2A2907D1316831606D1C51F8042B9D
:103DB0003160FA6113E00021F9610BE0F9696FF0FD
:103DC0000043994205D001EB810302EB43013039F6
:103DD000F9616D1C2A78A2F130010A29EED3B8846A
:103DE0000FF24460297800F001FC08B115F8010BCE
:103DF0008DF832009DF83200682804BF28786828C2
:103E000003D162208DF832006D1C0DA8B86015F842
:103E1000014B252C13D0582C4BD0632C00F0A380E1
:103E2000642C18BF692C7CD06F2C42D0702C36D0FB
:103E3000732C0AD0752C18BF782C3AD0B6E001202C
:103E4000F86025208DF83400BAE09DF832006C2827
:103E50003068306018D050F8044B30607C60D7F880
:103E60001CA0BAF1000F04D52046FFF707F88246E0
:103E700007E052460021204600F0C4FB08B1A0EB49
:103E8000040AC7F810A09BE050F8042B306002A988
:103E9000404600F02DF9002840F192803CE2306865
:103EA000306050F8041B306002910DA878607821D2
:103EB00055E09DF832006C280DD0712818BF6A2893
:103EC00009D13068C01D20F007023260D2E900013C
:103ED0000832326004E03168316051F8040B31601F
:103EE00002909DF83200682802D102A8008803E001
:103EF000622802D102A80078029097F824000007F7
:103F000028D5029830B344F02000782822D1F868F0
:103F1000302109F80010401C411CF96009F80040EC
:103F200018E09DF83200314600F0BCF800280290FD
:103F300002D5F8682D2109E0B88C810702D5F86810
:103F40002B2103E0C00705D5F868202109F80010EF
:103F5000401CF8600DA8F96808447860214602A862
:103F600000F0DFF92CE09DF832006C2809D0012028
:103F7000F8603068306050F8041B30608DF8341001
:103F80001EE03068306001AA50F8041B3060ADF8C4
:103F900004100020ADF8060002A94FF0FF30F861D0
:103FA000404600F0A5F800280AD577E70120F86020
:103FB00025208DF834001CB10220F86089F80140FA
:103FC000386AF968401A7969401A3969441A97F8C9
:103FD0002400400711D42020012C8DF800000CDBB8
:103FE000A24601236A4602A9404600F001FA0028D1
:103FF0007FF454AFBAF1010AF3D1D7F80CB0BBF19A
:10400000000F0DF1340A0DD01AF8011B0398C047B8
:10401000002803903FF442AFB869401CBBF1010B8C
:10402000B861F1D1D7F814A03020BAF1010F8DF8A2
:1040300000000BDB01236A4602A9404600F0D8F9D4
:1040400000287FF42BAFBAF1010AF3D1D7F810B0F2
:10405000D7F804A0BBF1000F0DD01AF8011B03988C
:10406000C047002803903FF419AFB869401CBBF16A
:10407000010BB861F1D197F8240040077FF50EAE2F
:104080002020012C8DF80000FFF608AE01236A46BF
:1040900002A9404600F0ACF900287FF4FFAE641E90
:1040A000F4D1FBE5622815D068280CD06C2818BF25
:1040B000742816D07A2814D10A680A6052F8040BC2
:1040C0000A60002170470A680A6052F8040B0A600F
:1040D00000B20BE00A680A6052F8040B0A6040B2B2
:1040E00004E00A680A6052F8040B0A60C1177047BE
:1040F0002DE9F44F0D4694B02F6A002F804648BF3B
:104100006FF0004700F0AAFA696A401801900FF2B8
:104110002030D0E90023CDE9022395F8280040079C
:1041200002D40198412805D240200DF110090190D8
:10413000002606E000F098FA5FEA0009F8D1EBE00B
:104140003F1B012FC0F294801498018802AA0DF140
:10415000010000F0E1FA0028044600F19C80149868
:10416000008810B9641E00F19680A742C0F28080DA
:10417000286901992218914268D26E624042A96969
:10418000401A6969461A95F82800400710D4202083
:10419000012E8DF800000BDBB24601236A4629464A
:1041A000404600F025F9002875D1BAF1010AF4D192
:1041B000D5F810B0BBF1000FCA460CD01AF8011B9D
:1041C0006868C0470028686065D0E869401CBBF19A
:1041D000010BE861F2D130208DF80000D5F818A06D
:1041E000BAF1010F0ADB01236A462946404600F076
:1041F000FFF800284FD1BAF1010AF4D1D5F814B074
:10420000D5F808A0BBF1000F0CD01AF8011B6868A4
:10421000C047002868603ED0E869401CBBF1010B34
:10422000E861F2D195F8280040070DD52020012E35
:104230008DF8000008DB01236A462946404600F05D
:10424000D7F840BB761EF6D100262E61224628699B
:104250000DF10101484400F06DFA28692018286129
:104260001498801C1490801E008800287FF468AF8A
:10427000686A2969401AA969401A6969471A95F854
:10428000280040070FD4012F0DDB3C466868202131
:10429000C047686010B94FF0FF3635E0E869401C50
:1042A000641EE861F2D12B694A462946404600F077
:1042B0009FF80028EFD1AC69012C0ADB6868302137
:1042C000C04700286860E6D0E869401C641EE861C9
:1042D000F4D16B69AA682946404600F089F80028A5
:1042E000D9D195F8280040070CD5012F0ADB686862
:1042F0002021C04700286860CDD0E869401C7F1E9F
:10430000E861F4D12E616E6204A881451CBF484665
:1043100000F04CFA304601E04FF0FF3015B0BDE838
:10432000F08FF0B4C2686F2908BF082405D041F0AF
:104330002003782B14BF0A2410241823066864294C
:1043400018BF6929374602D1002E48BF7F425FB9A6
:10435000056A4DB9082C27D190F82810090723D5F4
:1043600030211723D1751FE0B7FBF4F604FB167755
:104370003037FFB25D1E3A2FA4BFA1F1510C674444
:1043800057552B46370003D08568D618B542EBD376
:10439000082C09D190F82810090705D5D15C3029DF
:1043A00002D05B1E3021D1541A448260C3F118013F
:1043B000026A4161914208DA511A81614FF6EF7247
:1043C000018D11400185F0BC7047002A0ED590F890
:1043D000282002F01402102A08D1426A0369D21A76
:1043E0008369D21A531A012BA8BF8361F0BC7047AE
:1043F000F8B504460D4616461F46002077B116F85C
:10440000011B6868A047686030B1E869401CE8613A
:1044100000207F1EF3D1F2BD4FF0FF30F2BD00004F
:104420000000000000000000686C747A4C0000007E
:1044300000000000000000001B4213D1094236D1E9
:104440002AB18446B0FBF2F002FB10C2704700F0C4
:10445000EDB9FCD30022002370470B0002000021BD
:1044600000207047904271EB030CF6D370B5B1FA9F
:1044700081F4B3FA83F52C1BA340C4F1200532FA72
:1044800005F63343A2405FF00046E64002E05B08D9
:104490005FEA3202841A71EB030524BF20462946E5
:1044A0007641F4D302000B003000002170BD012AD8
:1044B000CFD970B5140C20D0B1FA81F4B2FA82F5DC
:1044C000C4F120046419B4F12006D6D3B2405FF0E1
:1044D0000044F440002502E052085FEA3303C61AA4
:1044E00071EB020E24BF3046714664416D41F3D337
:1044F00002000B002000290070BD0C46B1FBF2F158
:1045000002FB11452D0445EA1045B5FBF2F402FB10
:10451000145580B240EA0545B5FBF2F002FB10529B
:1045200040EA044070BD000000B500BF130096468D
:104530009446103928BFA0E80C50FAD85FEA417CB5
:1045400028BF0CC048BF40F8042BC90728BF20F87B
:10455000022B48BF00F8012B00BD0000DFF8080067
:10456000006800F4C060704700700040401810F010
:10457000030308D0C91A1FD3DB0748BF00F8012D79
:1045800028BF20F8022D130030B414461546103908
:1045900028BF20E93C00FAD8490728BF20E90C00D1
:1045A00048BF40F8042D890028BF20F8022D48BFDD
:1045B00000F8012D30BC7047C91818BF00F8012D54
:1045C000CB0728BF00F8012D7047F8B504460D460B
:1045D00016461F4600F02CF93B4632462946204637
:1045E00001B0BDE8F04000F03AB900000278C9B26D
:1045F0008A421AB11CBF10F8012FF9E718BF00203A
:1046000070470000C9B2830706D0521E22D310F8AB
:10461000013B9942F7D11FE0083A13D302F104029B
:1046200041EA012141EA014150F8043B121F21BF38
:104630004B40A3F1013C2CEA030C1CF0803FF3D06B
:10464000C9B2001F083210F8013B521E28BF91EA80
:10465000030FF8D818BF0120401E704780B500F046
:10466000E7F8012002BD000070B5054605F10F0016
:10467000C408AFF30080E400A54232D2082C04D273
:10468000082402E0083000F091F822480268110086
:104690000CD1011D0A6802B31368A34238BF111D73
:1046A000F8D310E01D68A5420DD2191D0B68002B30
:1046B000F8D11268011D00E0191D0B6893420CD05F
:1046C0001D68A542F8D361B10D682A68A2F10803FC
:1046D000A3420AD26A680A600FE000F0E3F80028FB
:1046E000D0D1AFF30080002070BD2B190B60121BDE
:1046F0006E685E600B681A602C60096800291DBF37
:104700004A68002A091D00210160AFF3008005F10D
:10471000080070BDF809002070B504460D46164625
:1047200000F086F8324629462046BDE8704000F089
:1047300089B8000062B38B0708D0521E11F8013B04
:1047400000F8013B00F024808B07F6D1830740F08E
:10475000208000BF103A07D330B4B1E83810103AC7
:10476000A0E83810F9D230BC530724BFB1E80810D4
:10477000A0E8081044BF51F8043B40F8043BD207BE
:1047800024BF31F8022B20F8022B44BF0B780370B2
:104790007047083A07D3B1E80810083A40F8043BDC
:1047A00040F804CBF7D25307E4E7000000B97047A4
:1047B00038B5A0F108042068082833D310F0070F9B
:1047C00030D1AFF300801848416809B18C4203D260
:1047D0006160446017E019464B680BB1A342FAD3FD
:1047E0000B68CD18AC421BD3A54204D12268D21865
:1047F0000A600C4607E04A681AB1236823449A42CB
:104800000ED362604C60616851B12268A3188B427C
:1048100006D1002303600868801820604868606043
:10482000AFF3008031BD0000F809002070470000A0
:1048300080B5DFF80C0000F04BF8806902BD000085
:10484000A801002030B430B90FF24800D0E900458B
:10485000C2E900451BE00170012030BC704730B454
:1048600031B90FF23800D0E90045C3E900450EE048
:104870001AB930BC6FF00100704708B10A780280A5
:104880000978481E804130BCC043C00F70470020EB
:1048900030BC704700000000000000000000000075
:1048A000000000000749086808B10020704706486A
:1048B000C008C00008600549C908C900091A01609C
:1048C000704700BF040A00201F06002018080020BF
:1048D000704700000F48104BD0F8801041F4700171
:1048E000C0F880100D490A6842F001020A600022F7
:1048F0008A600A681A400A604FF48052CA600A68E7
:1049000022F480220A6000228A614FF00061016077
:104910007047000008ED00E0FFFFF6EA00100240DB
:10492000000000000000000001020304060708095F
:10493000A0860100400D0300801A060000350C001F
:1049400040420F0080841E0000093D0000127A00E2
:104950000024F40000366E010048E801006CDC021F
:10496000F0B4016844688368014401EB5402E40731
:1049700048BF4B44914202D1F0BC0C30704711F853
:10498000015B15F0030604BF11F8014BE61C2C096E
:104990000F2C07D111F8014B0F3403E011F8017B04
:1049A00003F8017B761EF9D1002CE3D0AD0811F895
:1049B000016B05F00305032D08BF11F8015B06EB41
:1049C00005256D42A41C1D44D4D015F8016B03F8D5
:1049D000016B641EF9D1CDE719E050F8041BCB0739
:1049E00044BFA9F101035918121F0023042A41F8FA
:1049F000043BF9D25FEA827C0B4604D54FF0000CF1
:104A0000A1F800C09B1CD10744BF0021197050F8C9
:104A1000042B002AE1D1704710B5074979441831B9
:104A2000064C7C44163404E00A68081D114488478B
:104A30000146A142F8D110BD2C0000004800000042
:104A40004EF68851CEF20001086840F4700008600C
:104A5000BFF34F8FBFF36F8F4FF00070E1EE100A7E
:104A60007047000075FFFFFFF401000018080020E8
:104A700000000000EDFEFFFFEC0100001801000047
:104A80000000002000F00BF8002801D0FFF7C4FF61
:104A90000020AFF30080FDF7B5FB00F002F8012025
:104AA000704700F001B800000746384600F002F8F1
:104AB000FBE7000080B5AFF30080024A1100182028
:104AC000ABBEFBE7260002007047FEE7704700F030
:104AD00007B82020FDF714BB4FF40050FDF710BBC2
:104AE00002480168491C0160704700BF000A0020AD
:104AF0000148804701480047D5480008014B00089D
:104B0000AFF30080FFF79CFFFFF7BCFF0000000041
:104B100001020304FFF7FEBFFFF7FEBFFFF7FEBF72
:104B2000FFF7FEBFFFF7FEBFFFF7FEBFFFF7FEBFB9
:104B3000FFF7FEBFFFF7FEBFFFF7FEBFFFF7FEBFA9
:104B4000FFF7FEBFFFF7FEBFFFF7FEBFFFF7FEBF99
:104B5000FFF7FEBFFFF7FEBFFFF7FEBFFFF7FEBF89
:104B6000FFF7FEBFFFF7FEBFFFF7FEBFFFF7FEBF79
:104B7000FFF7FEBFFFF7FEBFFFF7FEBFFFF7FEBF69
:104B8000FFF7FEBFFFF7FEBFFFF7FEBFFFF7FEBF59
:104B9000FFF7FEBFFFF7FEBFFFF7FEBFFFF7FEBF49
:104BA000FFF7FEBFFFF7FEBFFFF7FEBFFFF7FEBF39
:104BB000FFF7FEBFFFF7FEBFFFF7FEBFFFF7FEBF29
:104BC000FFF7FEBFFFF7FEBFFFF7FEBFFFF7FEBF19
:104BD000FFF7FEBFFFF7FEBFFFF7FEBFFFF7FEBF09
:104BE000FFF7FEBFFFF7FEBFFFF7FEBFFFF7FEBFF9
:104BF000FFF7FEBFFFF7FEBFFFF7FEBFFFF7FEBFE9
:104C0000FFF7FEBFFFF7FEBFFFF7FEBFFFF7FEBFD8
:104C1000FFF7FEBFFFF7FEBFFFF7FEBFFFF7FEBFC8
:104C2000FFF7FEBFFFF7FEBFFFF7FEBFFFF7FEBFB8
:104C3000FFF7FEBFFFF7FEBFFFF7FEBFFFF7FEBFA8
:104C4000FFF7FEBFFFF7FEBFFFF7FEBFFFF7FEBF98
:104C5000FFF7FEBFFFF7FEBFFFF7FEBFFFF7FEBF88
:104C6000FFF7FEBF1003350A0008E9041003190B13
:104C700000084904127904128B04129D0412AF0437
:104C800012ED041003B90C0008E1041003010D003B
:104C9000081304123304125104100389010008FBA5
:104CA0000410075902000821030008C10412D304AC
:104CB00010070104000809050008550412C104107A
:104CC0000359060008D904100359080008D10450FC
:104CD0000301090008000112A50C12B90422D31423
:104CE000F3F704000116480EF402644800093D1170
:0400000508000000EF
:00000001FF
