:020000040800F2
:100000001806002095490008D9480008DB48000878
:1000100000000000000000000000000000000000E0
:100020000000000000000000000000002F0B00088E
:100030000000000000000000CF100008DD480008AC
:10004000B3110008EF1100088B1E0008FF20000804
:10005000472700084B3200084F440008E9480008D1
:100060005B460008EF460008FF4800087349000897
:100070007F490008C149000800000000C34900088A
:1000800000000000C549000800000000000000005A
:10009000C749000800000000C9490008CB49000812
:1000A000CD490008CF490008D1490008D3490008CC
:1000B000D5490008D7490008D9490008DB4900089C
:1000C00070B582B00400A0680668356800206946F3
:1000D0000870200000F03EFD002824D0684600781B
:1000E000217888421FD10421200000F0E2FE002880
:1000F00019D04021200000F039FD002813D0002144
:10010000200000F079FE00280DD06C4870600021BE
:10011000200000F09FFD002805D00C21200000F0F9
:1001200044FD002801D1012003E0012068706071C6
:10013000002002B070BDF0B581B00400A06807686F
:100140003E680025684605706946200000F002FD03
:10015000002815D0684600782178884210D1A0790F
:10016000002810D0A0680068011D200000F098F958
:10017000012805D00021200000F06CFD002801D1ED
:10018000012004E0A571002078607570657101B0F0
:10019000F0BD10B50400A079012842D0A068006825
:1001A0004068874900F080FF01D2102130E0854986
:1001B00000F07AFF01D220212AE0834900F074FF89
:1001C00001D2302124E0814900F06EFF01D24021AC
:1001D0001EE07F4900F068FF01D2502118E07D4900
:1001E00000F062FF01D2602112E07B4900F05CFF69
:1001F00001D270210CE0A24900F056FF01D280210B
:1002000006E0A04900F050FF01D2902100E0A021BB
:10021000200000F01FFD002801D1012010BD0120A9
:10022000A071002010BD30B581B00400A079002875
:1002300041D0A0680068051D6946200000F029FD36
:10024000002834D068460078002826D0102823D013
:1002500020281FD030281BD0402817D0502813D07A
:1002600060280FD070280BD0802807D0902803D0AA
:10027000A0281AD1844810E084480EE084480CE09D
:1002800084480AE0844808E0844806E00B4804E01B
:10029000A24802E0A24800E0A24828600021200015
:1002A00000F0D8FC002804D101E09F48286001201C
:1002B00001E00020A07101B030BD00000000D0427C
:1002C00000B581B000F046FC401E8041C00F01B077
:1002D00000BD30B581B00400002568460570694650
:1002E000200000F037FC002804D068460078217810
:1002F000884200D00125280001B030BDF0B583B0A0
:1003000005000C0001A80021002206C001A9280058
:1003100000F07BFC002850D001A841780902027847
:100320008E18C1780902827889186A46518041790D
:10033000090200790F1800A9491C280000F0D9FC17
:1003400000283AD068464078022801D1904D16E046
:100350006946280000F048FC00282ED06846007846
:1003600000280BD0042807D0082803D00C2824D15B
:10037000884D04E0884D02E0884D00E0884D30B2A1
:1003800000F0A6FE290000F0BCFE00F013FF206084
:100390000098001400F09CFE290000F0B2FE00F06E
:1003A00009FF606038B200F093FE290000F0A9FE5A
:1003B00000F000FFA060002000E0012003B0F0BDCD
:1003C000010050410100D041010050420100D042E3
:1003D000010050430100D0430140504410B582B0A9
:1003E0000C006946002200230CC1694600F00DFC98
:1003F000002801D1012010E0684641780902027806
:1004000089182180C1780902827889186180417930
:10041000090200790818A080002002B010BD30B594
:1004200081B004000D0000A9491C00F062FC002806
:100430000ED068464078022804D155482860002034
:1004400001B030BD6946200000F0CEFB002801D18C
:100450000120F5E768460078002806D0042806D079
:10046000082806D00C2806D007E04D48E6E74B48A0
:10047000E4E74948E2E74748E0E72B482860E7E738
:100480000180CF44012050450020D0450020504538
:100490000080CF44004050440000D043000050434F
:1004A00010B582B00C00694600F0F3FB002801D1C2
:1004B00001201AE068460078002814D0102816D0D1
:1004C000202816D0302816D0402816D0502816D014
:1004D000602816D0702816D0802816D0902816D004
:1004E000A02816D017E02060002002B010BD0D48F3
:1004F000F9E70B48F7E70948F5E77B48F3E77B485E
:10050000F1E77B48EFE77B48EDE77B48EBE77B488B
:10051000E9E77B48E7E704482060C9E7000050426C
:100520000000D04100005041000080BF00B581B004
:100530008279012A15D100290CD0022908D009D3CB
:10054000042901D002D30AE0402104E0302102E076
:10055000202100E0102100F07DFB002814D10120B3
:1005600013E08068006800290CD0022908D009D364
:10057000042901D002D3F2E75B4904E0854902E097
:10058000854900E085494160002001B000BD0000C0
:1005900000008C4000008C4200000C4200008C41A6
:1005A00000000C4100B581B0020008007C4993793D
:1005B000012B3CD100F078FD01D2102130E07949C7
:1005C00000F072FD01D220212AE0774900F06CFD95
:1005D00001D2302124E0754900F066FD01D24021AE
:1005E0001EE0734900F060FD01D2502118E071490E
:1005F00000F05AFD01D2602112E06F4900F054FD75
:1006000001D270210CE06D4900F04EFD01D2802135
:1006100006E06B4900F048FD01D2902100E0A021E6
:10062000100000F017FB00282AD1012029E0926871
:10063000126800F039FD1FD35A4900F035FD1BD375
:10064000594900F031FD17D3584900F02DFD13D35F
:10065000574900F029FD0FD3564900F025FD0BD373
:10066000554900F021FD07D3544900F01DFD03D387
:10067000534900F019FD01D2481E00E020485060A7
:10068000002001B000BD30B581B005000C00694606
:1006900000F02FFB002806D000A9491C280000F01C
:1006A000A3FA002801D1012006E06846007802285C
:1006B00004D15A482060002001B030BD684640781F
:1006C000002806D0042806D0082806D00C2806D01A
:1006D00007E05348EEE75348ECE75348EAE753484E
:1006E000E8E753482060DEE70000D04200005043B6
:1006F0000000D043004050440080CF4400205045CB
:100700000020D04500B581B0002904D0022909D0CD
:10071000042909D00AE000F048FA401E8041C00FC9
:1007200001B000BD0421F6E70C21F4E70120F7E752
:1007300030B581B0040008003E4900F0B5FC08D295
:100740000221200000F0B6FA002821D0002001B0DC
:1007500030BD394900F0A8FC01D200250CE0374932
:1007600000F0A2FC01D2042506E0354900F09CFC13
:1007700001D2082500E00C250021200000F09AFAA3
:10078000002805D02900200000F00FFA0028DDD154
:100790000120DCE7000050420000D0410000504141
:1007A000010050410100D041010050420100D042FF
:1007B000010050430100D043014050440180CF4428
:1007C0000120504500B581B0012300F0B1F9401E71
:1007D0008041C00F01B000BD00B581B06B461A70FA
:1007E00001236A4600F0ADF9401E8041C00F01B000
:1007F00000BD10B582B00C00694600F098FB0028DF
:100800000AD068460078002802D0022804D10120CE
:100810002070002002B010BD0120FBE70000FA426A
:10082000000075430000FA4300007A440000FA44D7
:10083000000080BF0100FA42010075430100FA4345
:1008400001007A4400B581B0020008007D4900F043
:100850002BFC01D2082130E07B4900F025FC01D2BD
:1008600010212AE0794900F01FFC01D2182124E070
:10087000774900F019FC01D220211EE0754900F0F3
:1008800013FC01D2282118E0734900F00DFC01D2BD
:10089000302112E0714900F007FC01D238210CE050
:1008A0006F4900F001FC01D2402106E06D4900F0E3
:1008B000FBFB01D2482100E05021100000F0BBFA00
:1008C000401E8041C00F01B000BD10B582B00C00C9
:1008D000694600F06FFB00280CD0684600780028BD
:1008E00002D0202804D005E02070002002B010BD06
:1008F0000120F9E70120F9E710B582B00C00694644
:1009000000F047FB00280CD068460078002802D091
:10091000102804D005E02070002002B010BD012096
:10092000F9E70120F9E710B582B00C00694600F044
:1009300052FB00280CD068460078002802D04028DE
:1009400004D005E02070002002B010BD0120F9E7BE
:100950000120F9E700B581B000F04EFB401E804158
:10096000C00F01B000BD00B581B000F085FB401E96
:100970008041C00F01B000BD00B581B000F0E8FAC1
:10098000401E8041C00F01B000BD00B581B00A001B
:100990000DD008290BD0102909D0182907D02029FB
:1009A00005D0282903D0302901D0382905D100F0FD
:1009B000E4F9401E8041C00F00E0012001B000BDFD
:1009C00070B582B004000E0000A9891C00F054FB31
:1009D000002834D000A8801C41780D02007805431F
:1009E00000A9491C200000F084F9002827D068469F
:1009F0004078022801D11C4C16E06946200000F026
:100A0000F3F800281BD06846007800280BD0042893
:100A100007D0082803D00C2811D1144C04E0144C42
:100A200002E0144C00E0144C28B200F051FB21000D
:100A300000F067FB00F0BEFB3060002000E001200A
:100A400002B070BD010020410100C84101004842D0
:100A50000100C842010048430100C8430100484466
:100A60000100C84401404E4500008C4000008C420B
:100A700000000C4200008C4100000C4100B581B028
:100A8000012904D9CA1E012A01D9D21E05D100F0BC
:100A9000B3F9401E8041C00F00E0012001B000BD4D
:100AA00000B581B00A0001D0202905D100F0E2F99B
:100AB000401E8041C00F00E0012001B000BD00B524
:100AC00081B000F027F9401E8041C00F01B000BD89
:100AD00000B581B00A0001D0802905D100F06DF980
:100AE000401E8041C00F00E0012001B000BD00B5F4
:100AF00081B0012905D800F0A0FA401E8041C00F46
:100B000000E0012001B000BD00B581B00A0005D0B1
:100B1000042903D0082901D00C2905D100F0E8F9F7
:100B2000401E8041C00F00E0012001B000BDFEE783
:100B300000B581B000F028FC401E8041C00F01B01C
:100B400000BD00B581B000F0D4FB401E8041C00F55
:100B500001B000BD00B581B001230A000F2100F0F3
:100B600013FC401E8041C00F01B000BD30B581B004
:100B700005000C0001236A46122100F005FC002844
:100B800001D000200FE068460078BF2101400C43EF
:100B90006846047001236A461221280000F0A9FB70
:100BA000401E8041C00F01B030BD30B581B005009E
:100BB0000C0001236A46112100F0E6FB002801D059
:100BC00000200FE068460078F32101400C4368469E
:100BD000047001236A461121280000F08AFB401EA0
:100BE0008041C00F01B030BD10B50C0001232200C0
:100BF000112100F0C9FB002801D0002010BD207891
:100C00000C2101402170012010BDF0B581B007001A
:100C10000E00002403250123E4B232192100223101
:100C2000C9B2380000F0B0FB00280BD1641C0123CE
:100C3000E4B2321921002231C9B2380000F0A4FB1D
:100C4000002801D0002003E0641C6D1EE3D10120C8
:100C500001B0F0BD30B581B005000C0001236A463B
:100C6000112100F091FB002801D000200FE0684620
:100C700000780007000F04436846047001236A46A9
:100C80001121280000F035FB401E8041C00F01B04B
:100C900030BD10B50C0001232200112100F074FBBF
:100CA000002801D0002010BD2078F02101402170E3
:100CB000012010BD30B581B005000C0001236A464B
:100CC000112100F061FB002801D000200FE06846F0
:100CD0000078FD2101400C436846047001236A46F8
:100CE0001121280000F005FB401E8041C00F01B01B
:100CF00030BD10B50C0001232200112100F044FB8F
:100D0000002801D0002010BD20780221084020706A
:100D1000012010BD70B582B005000C0066050123EE
:100D20006A46062100F030FB002811D168460470A5
:100D300001236A460621280000F0DBFA002807D1CB
:100D400001236A460721280000F01EFB002801D07D
:100D5000002010E068460078F8210140700F084339
:100D60006946087001236A460721280000F0C1FA8D
:100D7000401E8041C00F02B070BD30B581B005008B
:100D80000C0001236A46082100F0FEFA002801D079
:100D900000200FE068460078C72101400C436846F8
:100DA000047001236A460821280000F0A2FA401EC0
:100DB0008041C00F01B030BD000030B581B00500EA
:100DC0000C0001236A46092100F0DEFA002801D058
:100DD00000200FE0684600784006400E0443684655
:100DE000047001236A460921280000F082FA401E9F
:100DF0008041C00F01B030BD30B581B005000C009E
:100E000001236A460A2100F0BFFA002801D0002021
:100E10000FE068460078F82101400C4368460470F2
:100E200001236A460A21280000F063FA401E80412F
:100E3000C00F01B030BD30B581B005000C000123FA
:100E40006A460A2100F0A0FA002801D000200FE035
:100E500068460078872101400C43684604700123EE
:100E60006A460A21280000F044FA401E8041C00F63
:100E700001B030BD30B581B005000C0001236A46D9
:100E80000D2100F081FA002801D000200FE0684613
:100E90000078DF2101400C436846047001236A4654
:100EA0000D21280000F025FA401E8041C00F01B03E
:100EB00030BD30B581B005000C0001236A46122117
:100EC00000F062FA002801D000200FE068460078A8
:100ED000FB2101400C436846047001236A4612213D
:100EE000280000F006FA401E8041C00F01B030BD5E
:100EF00030B581B005000C0001236A46142100F0D2
:100F000043FA002801D000200FE068460078F32162
:100F100001400C436846047001236A4614212800EE
:100F200000F0E7F9401E8041C00F01B030BD10B5A0
:100F30000C00012322001E2100F026FA002801D017
:100F4000002010BD2078022108402070012010BD33
:100F500030B581B004000D0001236A463A2100F04B
:100F600013FA002808D1012300AA521C3B212000BB
:100F700000F00AFA002801D0002008E06846407816
:100F80000007000D6946097808432880012001B058
:100F900030BD10B50C00012322003B2100F0F4F914
:100FA000002801D0002010BD2078102108402070BA
:100FB000012010BD10B50C00012322003B2100F0E0
:100FC000E3F9002801D0002010BD2078202108403E
:100FD0002070012010BD10B50C00012322003B2120
:100FE00000F0D2F9002801D0002010BD2078402167
:100FF00008402070012010BD30B581B004000D0004
:1010000001236A463C2100F0BFF9002808D10123E2
:1010100000AA521C3D21200000F0B6F9002801D0A2
:10102000002008E0684640788007800D694609780E
:1010300008432880012001B030BD30B581B00500E3
:101040000C0001236A46582100F09EF9002801D0C7
:1010500000200FE068460078FE2101400C436846FE
:10106000047001236A465821280000F042F9401E0E
:101070008041C00F01B030BD30B581B005000C001B
:10108000012322003E2100F07FF9002807D101232F
:10109000621C3F21280000F077F9002801D00020D1
:1010A00000E0012001B030BD0CB40122120603188B
:1010B000DA4207D84B18DA4204D802000A439218E1
:1010C00002D288420CBC7047FCD08142FAE7FEE7AE
:1010D0009D21020008D5F446524200F005F8012295
:1010E000D2071043604700000AD002D4491E92186C
:1010F000FCD5C905100A1206524100D3012A484105
:10110000704730B405004D400122D20715404B18FE
:101110000418240E2ED01B0E32D0FF2C34D0FF2BFF
:101120003AD0E4180002090210431143000A090AE8
:101130009446C2B24A43000AC3B24B43000A484332
:10114000110A5B181A43D2B2190A091801D44918B6
:10115000641E080A7F3C23DBFE2C08DAE40509063E
:101160001143634699416041284330BC7047FF20DA
:10117000C005F9E728001B0EFF2BF6D1D043F4E79A
:101180002800FF2CF1D1F9E74002F7D1FF2B01D164
:101190004902F3D1E005E7E7D8054902E4D0EDE7DD
:1011A00043020020641CDFD15B129B1CDCD9D805F4
:1011B000DAE7FEE70122D2070118090E7F3910D4C1
:1011C00049421F310FD4001805D2C0011043C84056
:1011D00000D5D0437047C0011043C84005D44042F9
:1011E0007047002070470042F3D510007047FEE7BB
:1011F00030B587B08A4C200000F0FEFD002835D1C4
:10120000884860603320A0600120E060864820604C
:10121000AA4D022069680143696069680140009134
:101220000099C021890001911221029104900020AF
:1012300003900420059001A9A14800F027FE80201A
:1012400080032969014329612968084328602868C7
:101250009C490140296000220021172000F00CFF6A
:10126000172000F024FF200000F038F9200000F0E3
:10127000C3FD202801D1002000E0012007B030BDCF
:10128000F0B58BB00224904F38682043386038683E
:10129000204000900098202006908C4E07960994DC
:1012A0000025089506A9864800F0F0FD00220021DF
:1012B000072000F0E1FE072000F0F9FE3868204327
:1012C0003860386820400090009810200190029605
:1012D0000494039501A97A4800F0D8FD002200216A
:1012E000072000F0C9FE072000F0E1FE00200BB04F
:1012F000F0BDFAB583B007003878332805D0402810
:1013000003D0B12809D0BC2825D1022B23DB084605
:1013100080210143684601731DE00024002B18D092
:1013200016006B4D80204001029001200190009634
:1013300001236846007B0219D2B2B978280000F078
:1013400043F9002818D1641C761C6846008A844240
:10135000E8DB002016E05E4D8020400102906846E8
:10136000008A0190009201236846027BB978280028
:1013700000F02AF9002805D0280000F009F900F053
:1013800055F8012005B0F0BDFAB583B007003878F4
:10139000332805D0402803D0B12809D0BC2825D156
:1013A000022B23DB084680210143684601731DE0C0
:1013B0000024002B18D01600454D802040010290DB
:1013C00001200190009601236846007B0219D2B2E9
:1013D000B978280000F01CFB002818D1641C761C8A
:1013E0006846008A8442E8DB002016E0384D802001
:1013F000400102906846008A0190009201236846ED
:10140000027BB978280000F003FB002805D02800F3
:1014100000F0BEF800F00AF8012005B0F0BD0000B1
:10142000880F00202E11B1000054004030B587B065
:10143000274C200000F0E0FC002835D125486060F2
:101440003320A0600120E060234820601B4D022073
:101450006968014369606968014000910099C02191
:101460008900019112210291049000200390042030
:10147000059001A9124800F009FD80208003296928
:101480000143296129680843286028680D49014003
:10149000296000220021172000F0EEFD172000F047
:1014A00006FE200000F01AF8200000F0A5FC20281D
:1014B00001D1002000E0012007B030BD281002401B
:1014C00000040050FFFFDFFF2C100240000011104D
:1014D000880F00202E11B1000054004030B581B0BB
:1014E000040001D101204CE0250040356878002837
:1014F00003D12870200000F0C7FC24206870206809
:10150000016801229143016060681F490140206821
:10151000016121681D488A6802408A60E1680129EA
:10152000A16801D1C24301E0842212020A4321686A
:101530008A60E168022903D1802109012268516093
:1015400021684A681F4B13434B602168CA681040EA
:10155000C860206961690143A069000208432168ED
:10156000C860E069216A0143206801602068016861
:1015700001220A4302600020686020216970206314
:10158000A87001B030BD0000FFFFFFF0FF7FFFFF3C
:1015900030B581B0040001D1012011E025004035B3
:1015A00024206870206801680122914301602000B6
:1015B00000F0A4FD0020686068702063A8702870A7
:1015C00001B030BD00800002FEB582B004004030A2
:1015D0004078202800D011E20A9E002E00D1CCE1F4
:1015E0000B9D280000D1C8E14020205C012800D1DB
:1015F00004E201204021605400F082FD0090206848
:101600008169090410D500F07BFD0099401A1A2861
:10161000F5D32020210040314870002721004031BF
:101620008F7040202754E7E1212122004032517081
:1016300040212200403291700027210040314F604C
:10164000666265856763694609898905890D019127
:10165000AD4E4268324011436A46128A1206120A9F
:101660000A43AA49114341600C9D2068816989079A
:1016700056D48069C0063ED5206820268169314055
:101680001ED10020C0438542F6D0002D05D000F0C9
:1016900037FD0099401A8542EED220004030467056
:1016A000210040318F704021675420004030406855
:1016B0002000403040680428675400D09CE15CE181
:1016C0001021C1612068C66120688169890700D541
:1016D000876220688169C90703D4816901220A43AE
:1016E000826120684168B34A0A40426004202100B8
:1016F00040314860D1E70020C0438542B5D0002D7D
:1017000005D000F0FDFC0099401A8542ADD220269C
:101710002000403040683043210040314860BCE741
:101720006946098A012951D069468989090A816275
:1017300020688169890749D48069C00629D5206855
:101740002026816931400CD10020C0438542F6D06B
:10175000002D32D000F0D4FC0099401A8542EED220
:101760002BE01021C1612068C6612068816989076A
:1017700000D5876220688169C90703D48169012285
:101780000A438261206841688A4A0A404260042014
:1017900010E00020C0438542CAD0002D05D000F0E3
:1017A000AFFC0099401A8542C2D22026200040306A
:1017B000406830432100403148602000403046708E
:1017C000210040318F70402167546EE76846808960
:1017D000C0B22168886220688169090615D400209A
:1017E000C0438542F7D0002D05D000F089FC009958
:1017F000401A8542EFD2202021004031487021005C
:1018000040318F704021675452E7618DFF2907D91D
:10181000FF21218541683140019A0A4379490AE054
:10182000628D228543683340019919431206120ADA
:101830000A43802189041143416020688169890736
:1018400029D4009A2900200000F0D9FA00281BD1E1
:101850000020C0438542F0D0002D05D000F050FCA0
:101860000099401A8542E8D2202620004030406886
:101870003043210040314860200040304670210054
:1018800040318F70402027542000403040680428A9
:1018900000D0B1E071E0616A4A1C6262097881623D
:1018A0005948618D09186185218D0818208500042B
:1018B0003BD1608D002838D020688169090615D495
:1018C0000020C0438542F7D0002D05D000F018FC61
:1018D0000099401A8542EFD2202021004031487003
:1018E000210040318F704020275485E0618DFF2911
:1018F0000ED9FF2121854168019A31401143414AA7
:101900000A43426011E000BF009800FC0020000183
:10191000628D228543683340019919431206120AE9
:101920000A438021890411434160608D002884D1DD
:1019300020682026816931404ED18069C0063BD5A0
:101940002068816931401AD10020C0438542F7D018
:10195000002D05D000F0D4FB0099401A8542EFD24B
:10196000200040304670210040318F7040202754C5
:1019700020004030406804283ED101203FE0102183
:10198000C1612068C66120688169890700D58762C6
:1019900020688169C90703D4816901220A438261F1
:1019A00020684168034A0A40426004202100403117
:1019B0004860D5E700E800FE002D05D000F0A0FB50
:1019C0000099401A8542B3D220004030406830432D
:1019D000210040314860C3E7C661206841680B4A76
:1019E0000A404260200040304670210040318F7034
:1019F00040202754002002E0032000E0022005B030
:101A0000F0BD00000000FF01FFFF000000E800FE45
:101A1000FFB583B0074640377878202800D0DDE155
:101A20000C9E002E00D1A0E10D9D280000D19CE16C
:101A30003878012800D1D1E10120387000F060FB36
:101A4000009003980068816909040BD500F058FBE9
:101A50000099401A1A28F4D3202078700024BC7012
:101A60003C70B9E1222179704021B97000247C607A
:101A700003994E6203994D8503994C636946098A1F
:101A80008905890D01919E4E4268324011436A4694
:101A9000128B1206120A0A43802189011143416008
:101AA0000E9D03980068816989074CD48069C0063F
:101AB00038D50398006820268169314015D100206F
:101AC000C0438542F5D0002D05D000F019FB0099E8
:101AD000401A8542EDD27E70BC703C7078687868A0
:101AE00004283C7000D077E13FE11021C1610398E8
:101AF0000068C661039800688169890700D584621F
:101B0000039800688169C90703D4816901220A43E7
:101B10008261039800684168B24A0A40426004202A
:101B20007860D8E70020C0438542BAD0002D05D0A8
:101B300000F0E6FA0099401A8542B2D22026786871
:101B400030437860C7E76946098B01294ED0694662
:101B5000898A090A8162039800688169890745D4E6
:101B60008069C0062ED5039800682026816931401F
:101B70000CD10020C0438542F5D0002D32D000F0BA
:101B8000BFFA0099401A8542EDD22BE01021C161C5
:101B900003980068C661039800688169890700D5C9
:101BA0008462039800688169C90703D481690122AE
:101BB0000A4382610398006841688A4A0A40426089
:101BC00004200EE00020C0438542C4D0002D05D083
:101BD00000F096FA0099401A8542BCD22026786817
:101BE000304378607E70BC703C7077E76846808ACE
:101BF000C0B2039909688862039800688169490640
:101C000010D40020C0438542F6D0002D05D000F04E
:101C100077FA0099401A8542EED220207870BC7085
:101C20003C705CE70399498DFF290AD9FF21039A8B
:101C3000118541683140019A0A436B491143416063
:101C40000DE00399498D039A118543683340019A49
:101C50001A430906090A1143644A0A434260039879
:101C600000688169490710D40020C0438542F6D03E
:101C7000002D05D000F044FA0099401A8542EED2BA
:101C800020207870BC703C70A6E00399496A4A1C19
:101C9000039B5A62406A087055480399098D0918D8
:101CA000039A1185039A528D1018039A50850904DE
:101CB00037D10398408D002833D00398006881699C
:101CC000090610D40020C0438542F6D0002D05D06F
:101CD00000F016FA0099401A8542EED22020787062
:101CE000BC703C7078E00399498DFF290AD9FF2127
:101CF000039A11854168019A314011433D4A0EE033
:101D0000009800FC0399498D039A1185436833407C
:101D1000019A1A430906090A1143802292040A43D0
:101D200042600398408D002899D1039800682026CE
:101D30008169314044D18069C00635D50398006877
:101D40008169314013D10020C0438542F6D0002D77
:101D500005D000F0D5F90099401A8542EED27E7088
:101D6000BC703C707868042836D1012037E010211F
:101D7000C16103980068C66103980068816989079A
:101D800000D58462039800688169C90703D481691A
:101D900001220A438261039800684168114A0A409F
:101DA000426004207860DAE7002D05D000F0A8F941
:101DB0000099401A8542B8D2786830437860CEE7FF
:101DC000C661039800684168064A0A4042607E7016
:101DD0000020B8703C7002E0032000E0022007B051
:101DE000F0BD000000E800FE0024FF010024000216
:101DF000FFFF00000000FF014121405C7047F4B587
:101E000004000F00102520688069284037D0206822
:101E100020268169314013D10020C0438742F6D08B
:101E2000002F05D000F06CF90099401A8742EED2DD
:101E300020004030467000218170017003201EE0B8
:101E4000C5612068C66120688169890701D50021C4
:101E500081622068012182690A4002D182691143AE
:101E6000816120684168074A0A4042602000403092
:101E7000042141604670002181700170012001B091
:101E8000F0BD000000E800FE7047FEE7F0B483B04C
:101E9000002203230C68002C00D1C0E001249440F0
:101EA00002940C68029D25400195019C002C00D1F4
:101EB000B0E04C68022C01D0122C13D1D408A4003D
:101EC0000419276A9600BC460F251C273740BD40E1
:101ED0006746AF430D69AC461C2535406646AE40AB
:101EE0003E4326624C68012C05D0022C03D0112CF5
:101EF00001D0122C17D1856854006E4634706C46A0
:101F000026780324B440A543CC686E463678B440A6
:101F10002C4384604468029DAC434D68EE06F60F86
:101F2000964026434660066854006D462C706C4609
:101F300025780324AC40E5432E404C681C406F4696
:101F40003F78BC4034430460C46825408C686E46CA
:101F50003678B4402C43C4604C68E4005AD53E4CFB
:101F60002468012525433C4C25603C4C9508AD0078
:101F700064190294246896000C2535400F26AE4063
:101F8000B443A026F605B04201D1002614E0344E39
:101F9000B04201D101260FE0324EB04201D10226FB
:101FA0000AE0314EB04201D1032605E02F4EB04287
:101FB00001D1052600E00626AE402643029C26609D
:101FC0002B4C2568019EF44325404E68F60302D54C
:101FD0002E00019D3543264E3560756825404E68BC
:101FE000B60302D52E00019D3543214E7560B568BC
:101FF00025404E68F60202D52E00019D35431C4E49
:10200000B560F5682C404D68AD0202D52500019CF5
:102010002C43F460521C0C68D44000D03EE703B05F
:10202000F0BC704700690840401E8041C043C00FAB
:102030007047002A01D081617047816270470D4A64
:102040001368034000D1704700B581B0106000F004
:1020500007FB01B000BD0000341002400800014041
:102060000004005000080050000C0050001C0050FC
:10207000000401401404014010B4C20018231340AE
:10208000FF249C40E2438907090E9940002804D5AB
:10209000154B0007000F083800E0144B8008800043
:1020A000181803681A401143016010BC70470121E1
:1020B000C006C00E81400E4801607047401E80215E
:1020C0004904884201D3012070470A4948600A4800
:1020D00002681202120AC0231B0613430360002089
:1020E000886007220A6070471CED00E000E400E011
:1020F00000E100E010E000E020ED00E07047FEE7C6
:1021000001480068704700BF00100020F0B589B09A
:10211000002069468873086100F002FB00F014FBA0
:10212000002000F047FB0121002000F087FB00F0B9
:10213000D5FB7649002000F021FC01281CD1744B0E
:10214000744A80214900744800F04CFD724800F048
:102150006DFDD44B82B27049D34800F0A4FD00203D
:1021600000F04EFB642001F00CF8002000F056FB5C
:10217000642001F006F8F2E7CC48406800F056FC15
:1021800001281CD1624B634A80214900624800F05B
:1021900029FD614800F04AFDC24B82B25E49C24847
:1021A00000F081FD002000F02BFB642000F0E9FF2F
:1021B000002000F033FB642000F0E3FFF2E7002191
:1021C000BA48406800F042FC012822D00821B748F4
:1021D000406800F099FC01281BD0B549B34840681D
:1021E00000F044FC012814D02021B048406800F0E1
:1021F000C3FC01280DD01F21AC48406800F0CEFC84
:10220000012806D08021A948406800F0D9FC0128A7
:102210001CD13F4B3F4A802149003F4800F0E2FC7F
:102220003D4800F003FD9F4B82B23B499E4800F0C1
:102230003AFD002000F0E4FA642000F0A2FF002044
:1022400000F0ECFA642000F09CFFF2E7C44A802121
:102250004900314800F0C6FC2F4800F0E7FC914BE4
:1022600082B22D49904800F01EFD02E002208F4905
:1022700048708E4840780028FBD002283CD004D318
:10228000042800D14EE168D389E1D44A8021490075
:10229000214800F0A7FC204800F0C8FC814B82B226
:1022A0001D49814800F0FFFCFA20800000F069FF22
:1022B00001217E48406800F04DFC0128D6D1144B26
:1022C000144A80214900144800F08CFC124800F0A8
:1022D000ADFC744B82B21049734800F0E4FC00205E
:1022E00000F08EFA642000F04CFF002000F096FA17
:1022F000642000F046FFF2E704A96C48406800F053
:10230000EFFB01280AD109B0F0BD00BF900000200A
:10231000E426000804270008940000206846008A8C
:102320006946498A884212D06846008A69464882CE
:10233000ABA280214900AB4800F054FCA94800F052
:1023400075FC584B82B2A749574800F0ACFC57487F
:10235000007800288DD0032089E703A9891C534801
:10236000406800F095FB01281CD19F4B9F4A8021BB
:1023700049009C4800F036FC9A4800F057FC494B55
:1023800082B29849484800F08EFC002000F038FAEC
:10239000642000F0F6FE002000F040FA642000F017
:1023A000F0FEF2E76846807B012800D061E700205C
:1023B00000F026FA002069468881079003A93B486F
:1023C000406800F08DFB012800D18EE068468089CE
:1023D000032100F0E3FE6946888168468389BC4A90
:1023E000802149007F4800F0FDFB7E4800F01EFC84
:1023F0002C4B82B27B492C4800F055FCFA2080001F
:1024000000F0BFFEB34A80214900764800F0EAFBA5
:10241000744800F00BFC234B82B27249224800F052
:1024200042FC1BE0069F641E26D102960195009790
:102430006846C38A5B1C00BF6EA2802149006948C0
:1024400000F0D0FB674800F0F1FB164B82B2654903
:10245000154800F028FC0798401C0790079869462B
:10246000898988422ADA6946C882002088820690D3
:10247000002700250026032405A90C48406800F029
:102480001BFB012831D006A90848406800F04EFB2C
:1024900001282AD06846808A0028C3D0022809D0A3
:1024A0000AD322E088130000180E00208C000020C0
:1024B0000040CE45069EB6E7069DB4E755A28021B2
:1024C0004900484800F08EFB464800F0AFFB484BFF
:1024D00082B24449804800F0E6FB642000F051FEDF
:1024E000002000F09BF90420C1E63F4B3F4A8021C9
:1024F00049003C4800F076FB3A4800F097FB3C4B23
:1025000082B23849744800F0CEFB002000F078F920
:10251000642000F036FE002000F080F9642000F016
:1025200030FEF2E700216D48406800F013FB0128FF
:1025300018D000BF3FA2802149002A4800F052FB7A
:10254000284800F073FB2A4B82B22649624800F00B
:10255000AAFB0020614908706946086187E600BF50
:10256000F04600085FA3214A802149001D4800F081
:1025700039FB1C4800F05AFB1D4B82B219495648E2
:1025800000F091FB002000F03BF9642000F0F9FD21
:10259000002000F043F9642000F0F3FDF2E700BFF3
:1025A00050A3124A802149000E4800F01BFB0D4841
:1025B00000F03CFB0E4B82B20A49474800F073FB27
:1025C000002000F01DF9642000F0DBFD002000F089
:1025D00025F9642000F0D5FDF2E700001C47000853
:1025E0002E00000094000020E426000804270008C4
:1025F000881300005B4441544120253032645D2043
:102600002025386C64202025386C64202025386C07
:10261000640D0A000D0A4649464F20646F776E6CC0
:102620006F616420636F6D706C657465642E0D0A54
:102630000D0A000050726573732055534552206295
:102640007574746F6E20746F20737461727420746B
:1026500068652044454D4F2E2E2E0D0A00000000C7
:1026600010B58021890188420BD1002000F020F9AB
:10267000002805D1194C6078002801D10120607034
:1026800010BD164C202802D10120207010BD00BFC3
:1026900016A300BF1BA249092000083000F0A2FACF
:1026A0002000083000F0C2FA0D4B82B22100083140
:1026B000094800F0F8FA002000F0A2F8642000F0C9
:1026C00060FD002000F0AAF8642000F05AFDF2E757
:1026D0005047000898470008180E00208C00002082
:1026E000881300006D61696E0000000048414C5F76
:1026F0004750494F5F455854495F43616C6C626174
:10270000636B00000D0A4572726F7220696E20279C
:102710002573272066756E6374696F6E2E0D0A002F
:1027200000B581B00648016802220A430260032016
:1027300000F08CFD00F006F8002001B000BD0000A4
:10274000002002407047FEE770B594B0164C6068F8
:10275000802149050143616014480168144A0A4018
:10276000C10C11430160022005900125089510213C
:1027700009910F90002610964004119000011290CC
:1027800005A800F077FD0F2000900320019002962D
:10279000039604960121684600F0F0FF2068054387
:1027A000256014B070BD00BF3410024000700040BE
:1027B000FFE7FFFF30B587B00121020007D1434A90
:1027C00013680B43136012680A400092009A00BF1E
:1027D00019A24300D55A01950291002103910321CA
:1027E00004913B4980000C1801A92068FFF74EFBBB
:1027F000002229002068FFF71CFC07B030BD000054
:1028000000B581B0012200BF0BA14300C95A304B73
:1028100080001858FFF70DFC01B000BD00B581B075
:10282000002200BF04A14300C95A294B8000185858
:10283000FFF7FFFB01B000BD2000000030B587B0FE
:102840000C00010008D10421204A13680B431360D7
:102850001268114000910099050000BF1AA069009C
:10286000405A01900020039001210491210006D1DB
:10287000029001A91848AA008058FFF707FB012C15
:1028800012D11448029001A91348AA008058FFF7FA
:10289000FDFA00BF05A0445D00220F2160B2FFF7E2
:1028A000EBFB60B2FFF703FC07B030BD0700000090
:1028B00000B581B004A14200895A074A800010582F
:1028C000FFF7B0FB01B000BD002000002C1002405B
:1028D00094010020000021109801002070B586B0FE
:1028E0000121234802680A43026002680A400092FC
:1028F000009A02680A430260026811400091009940
:10290000C168802292020A43C2600424019402201A
:1029100002900025039504900594A026F60501A9D0
:102920003000FFF7B3FA08200190059401A93000A8
:10293000FFF7ACFA0F4C10482060E12040026060C5
:10294000A560E5602561A5610C206061200000F0B4
:1029500075F9002800D0FEE7200070306065200087
:102960005830802149000180456106B070BD0000EB
:102970002C100240180E00200044004000B581B029
:1029800000220A60002807D0080000F00CF8012897
:1029900007D0002001B000BD080000F004F80128B5
:1029A000F7D10120F6E770B5050000241B4E7079C1
:1029B000012832D0FEF71CFC01282ED06A2030708E
:1029C0007470D620B070B480B4710120F071300002
:1029D0001430B0601248F060124830611248F06163
:1029E00030001C307061B4612E60F068016808002E
:1029F00005D100200021002207C603C607E03000F1
:102A00008847012806D11421286800F0F1FF2C60C6
:102A1000012070BDFEF734FC002070BDD40F0020F3
:102A20003C000020000000200810002000B581B00C
:102A3000002803D0C16889680A0001D1012003E0A1
:102A40008847012800D0002001B000BD00B581B04A
:102A5000002803D0C268926A130001D1012003E06C
:102A60009047012800D0002001B000BD00B581B022
:102A700000280AD00269002A07D003786A2B04D103
:102A80001268130001D0904700E0012001B000BDA2
:102A900000B581B000280CD00269002A09D00029B5
:102AA00007D003786A2B04D15268130001D09047F5
:102AB00000E0012001B000BD00B581B000280CD0BD
:102AC0000269002A09D0002907D003786A2B04D1B3
:102AD0001269130001D0904700E0012001B000BD51
:102AE00000B581B000280CD00269002A09D0002965
:102AF00007D003786A2B04D19269130001D0904764
:102B000000E0012001B000BD00B581B000280AD06E
:102B10000269002A07D003786A2B04D1D269130016
:102B200001D0904700E0012001B000BD00B581B0A8
:102B300000280CD00269002A09D0002907D00378A8
:102B40006A2B04D1126A130001D0904700E00120E3
:102B500001B000BD00B581B000280AD00269002A8A
:102B600007D003786A2B04D1526A130001D0904732
:102B700000E0012001B000BD00B581B000280AD0FE
:102B80000269002A07D003786A2B04D1926A1300E5
:102B900001D0904700E0012001B000BD00B581B038
:102BA00000280AD00269002A07D003786A2B04D1D2
:102BB000D26A130001D0904700E0012001B000BDAF
:102BC00000B581B000280AD00269002A07D0037836
:102BD0006A2B04D1126B130001D0904700E0012052
:102BE00001B000BD08B410B585B007AB0393002455
:102BF0000294002902D10094019402E00090491E41
:102C0000019103AB6946084878441C3000F0F2FE9D
:102C10000099002900D00C70002800D4029805B05B
:102C2000019910BC02B00847091D0000010000E036
:102C3000491C0A78002AFBD1081A704730B581B0C8
:102C4000040001D101202CE02500683568780028B7
:102C500003D12870200000F093FA242068702068C7
:102C60000168012291430160606A002802D02000BF
:102C700000F0C0F9200000F09FF8012811D0206872
:102C800041684B4A0A404260206881682A22914389
:102C900081602068016801220A430260200000F080
:102CA0000DFA01B030BDF5B581B00D001C0006462F
:102CB0005036707E202877D1002D0DD0002A0BD001
:102CC0000198806880214901884207D101980069F4
:102CD000002803D1E80701D5012066E0307E0128F5
:102CE00062D0012030760027F76121207076FFF74F
:102CF00007FA009068460089308068460089708035
:102D000004E02988C905C90D8162AD1C70880028BE
:102D100022D07088401E708001980068C169090641
:102D20000CD40020C0438442F6D0002C25D0FFF7FD
:102D3000E7F90099401A8442EED21EE001998968B1
:102D400080225201914203D1019909690029D8D00A
:102D5000297881626D1CD9E701980068C069400636
:102D60001DD40020C0438442F6D0002C05D0FFF7CC
:102D7000C7F90099401A8442EED2019800680168B0
:102D80000C4A0A4002600198006881680122914360
:102D9000816020207076B0763776032005E0202011
:102DA00070763776002000E0022003B0F0BD00000E
:102DB000FFB7FFFF5FFEFFFFF0B583B007001024F1
:102DC0001025002669460E7039680868824A02405C
:102DD000B86810433A69024378691043FA690243BC
:102DE0000A6048687D4A0240F86810434860B86944
:102DF0007B4A914202D00200386A10438A68794BBC
:102E0000134018438860784881420BD17748C06CE2
:102E10008007800F04D0022812D029D3032823E092
:102E2000012528E0724881420CD17048C06C0C2109
:102E300001401BD004291BD0082901D00C2913E024
:102E4000022518E06648814215D16848C06CC0214F
:102E5000090101400AD0A001814209D0400081420D
:102E6000EED0C0200001814204D004E0002502E041
:102E7000042500E00825022001F0DCF929003D6866
:102E8000574A954233D1002906D0022913D004298C
:102E900019D008291AD097E000F059FD002800D178
:102EA00095E07A6851008918884200D28CE01103BD
:102EB00081420DD288E04D480068044001D09F480F
:102EC000EFE7A148EDE700F00FFDE7E7D00BE8E7FB
:102ED000050E04025008002100196941002301F089
:102EE00081FA97494118974A91426DD261E0D20B1D
:102EF000FB6993423BD108292CD801A2525C97442C
:102F000008102252365252524200796840004A0854
:102F10001BE000F026FD7968019140004908401847
:102F2000019913E079684808304A1268144001D0CA
:102F3000864A0AE0864A08E000F0D6FC796840003C
:102F40004A0802E0796848082203801800F026F950
:102F5000060002E00120694608707E4931403006D3
:102F6000400E4007400F01433868C1602FE0082938
:102F70002AD801A0405C8744080E144E284E4E4EBD
:102F80003E0000F0E4FC0EE000F0EBFC0BE07968A2
:102F90004808164A1268144001D0684A0EE06A4A8E
:102FA0000CE000F0A1FC79684A08801800F0F6F8FF
:102FB00080B23968C8600AE079684808801800F073
:102FC000EDF880B2E86002E00120694608706846CA
:102FD000007803B0F0BD0000F369FFEFFFCFFFFF03
:102FE00000480040FFF4FFFF00380140001002409D
:102FF000004400402421415CC90706D501684A68A5
:10300000554B1340826A1A434A602421415C890768
:1030100006D501684A68514B1340C26A1A434A6098
:103020002421415C490706D501684A684C4B13408E
:10303000026B1A434A602421415C090706D50168E6
:103040004A68484B1340426B1A434A602421415C52
:10305000C90606D501688A68434B1340826B1A4340
:103060008A602421415C890606D501688A683F4B45
:103070001340C26B1A438A602421415C490611D572
:1030800001684A683A4B1340026C1A434A60026C6A
:1030900080235B039A4205D14A68364B1340426C49
:1030A0001A434A602421415C090606D501684A6832
:1030B000314B1340806C184348607047F0B581B0C5
:1030C00004002500683500266E60FFF719F8070038
:1030D0002068006800070BD52068C069800207D40B
:1030E000FFF70EF8C01B802189048842F4D30EE05C
:1030F0002068006840071AD52068C069400216D4CD
:10310000FEF7FEFFC01B802189048842F4D32068AB
:1031100001681A4A0A4002602068816801229143CE
:10312000816020206870A8702E70032004E02020A9
:103130006870A8702E70002001B0F0BD00093D003D
:1031400000FDFFFF00FD0F000024F40000127A00D4
:103150000048E801F0FF0000FFFFFDFFFFFFFEFF5A
:10316000FFFFFBFFFF7FFFFFFFEFFFFFFFDFFFFF23
:10317000FFFFEFFFFFFF9FFFFFFFF7FF5FFEFFFF78
:10318000704711B581B0FEF7BBFF0400FEF7B8FF32
:10319000001B01998842F9D302B010BD0022030A36
:1031A0008B420BD203098B4219D243088B422ED299
:1031B000411A00D20146524110467047FF220902CF
:1031C0003FD012068B4205D3121209028B4201D363
:1031D0001212090203098B4219D300E0090AC3093C
:1031E0008B4201D3CB01C01A524183098B4201D3D8
:1031F0008B01C01A524143098B4201D34B01C01AC3
:10320000524103098B4201D30B01C01A5241C3083A
:103210008B4201D3CB00C01A524183088B4201D3A9
:103220008B00C01A524143088B4201D34B00C01A95
:103230005241884200D3401A5241CFD20146104633
:10324000704708B501F004F908BDFEE710B50400A9
:1032500007480068FA218900FFF7A0FFFEF72EFF5C
:10326000002221000020C043FEF706FF002010BD11
:103270009C010020F0B581B00400BB4D2078C00750
:103280004CD50C21E8680840082808D0802040026E
:10329000EA6811400C290AD1E968014007D0286882
:1032A00080033BD56068002838D101205BE261686B
:1032B000814207D0A022D2029142296806D1820021
:1032C0000A432A602968084328600AE0A74A0A409E
:1032D0002A6029680840009000982868A4490140A5
:1032E00029608027BF02606800280BD0FEF708FF26
:1032F00006002868384011D1FEF702FF801B6528C0
:10330000F7D32DE2FEF7FCFE06002868384005D012
:10331000FEF7F6FE801B6528F7D321E220788007B0
:1033200018D50C21E8680840042806D0E868014058
:103330000C2937D1E868C00334D42868400702D587
:10334000E0680128B1D16868C149014020690002E4
:10335000084368602078C00600D4BFE06F0DE868BD
:103360000C21014000D0CFE02868074002D0E0697E
:1033700000289AD0606AF02100226B68E0263602AD
:103380001E4086425FD20092EA6811403FD1C021C0
:103390004901B04F80225205AB6B134027D03A68E9
:1033A0000A402DE0E0680427002810D0296809228F
:1033B000914308432860FEF7A3FE060028683840C2
:1033C000C1D1FEF79DFE801B0328F7D3C8E1286812
:1033D000012188432860FEF793FE060028683840E4
:1033E000B8D0FEF78DFE801B0328F7D3B8E1AB6B96
:1033F0001A43AA633A680A40AB6BB44E1E40AE63F0
:103400008A4204D1C900884201D101200090B0480D
:10341000016801229143009A0A4302600068C107D3
:10342000C90F0098814200D03FE76868A949014070
:10343000606A0843686068680002000A216A090639
:103440000143696039E06B68A24E1E4030436860FA
:1034500068680002000A236A1B0603436B60606A07
:103460000092EA6811401AD1C0214901794F8022A7
:103470005205AB6B134002D03A680A4008E0AB6BD0
:103480001A43AA633A680A40AB6B904E1E40AE6383
:103490008A4204D1C900884201D1012000908C48A1
:1034A000016801229143009A0A4302600068C10743
:1034B000C90F0098814200D0F7E60120616A490BEC
:1034C000491C8840C003A949EA681206120F895CAA
:1034D000C840A74908600320FFF7B8FE207800071E
:1034E00057D560690028286D44D001210143296522
:1034F000FEF706FE0600286D80074AD4FEF700FEA0
:10350000801B0328F7D32BE1E069002828681CD032
:10351000A90D01432960FEF7F3FD06002868384035
:1035200005D1FEF7EDFD801B0328F7D318E168688D
:1035300068490140606A0843686068680002000AE0
:10354000216A090601436960C8E78A490140296088
:10355000FEF7D6FD060028683840BFD0FEF7D0FD44
:10356000801B0328F7D3FBE000100240FFFFFEFFA3
:10357000FFFFFBFF012188432865FEF7C1FD060020
:10358000286D800705D5FEF7BBFD801B0328F7D308
:10359000E6E02078400766D50020009080225205A2
:1035A000A86B104004D1A86B0243AA6301200090CD
:1035B000284F3868C0050FD43868A90D0143396019
:1035C000FEF79EFD06003868C00505D4FEF798FD9D
:1035D000801B6528F7D3C3E0A068A90D884202D1FB
:1035E000286D014315E0002801D1286D0BE0A021D2
:1035F000C9008842286D06D1290D01432965286D2F
:10360000A90D014305E05B4901402965286D5A4930
:10361000014029656F0DA06800280CD0FEF770FDF1
:103620000600286D384017D1FEF76AFD801BAA49B5
:103630008842F6D394E0FEF763FD0600286D38401B
:103640000AD0FEF75DFD801BA3498842F6D387E0D0
:10365000FFE0FFFF007000400098002803D0A86B37
:103660001A490140A9632078800635D59B48A16995
:103670000029A96816D001220A43AA60696B0122B9
:103680000A436A630168420C0A430260FEF738FD90
:103690000600A86880071FD4FEF732FD801B0328B0
:1036A000F7D35DE001229143A96001688C4A0A408A
:1036B0000260FEF725FD0600A86880070CD5FEF71E
:1036C0001FFD801B0328F7D34AE000BFFFFFFFEF79
:1036D00000200240FF1FFFFFA06A002842D0E968D7
:1036E0000C220A400C2A00D1DFE58027BF047D4967
:1036F0000228286827D101402960FEF701FD060055
:103700002868384005D0FEF7FBFC801B0328F7D360
:1037100026E0E86898490140E06A0843216B0143CC
:10372000606B0843E8602868790801432960FEF768
:10373000E7FC06002868384014D1FEF7E1FC801B46
:103740000328F7D30CE001402960FEF7D9FC0600FE
:103750002868384006D0FEF7D3FC801B0328F7D337
:10376000032000E0002001B0F0BD00001C4800086C
:103770009C010020FFFEFFFFFFFBFFFFF2B50400EE
:103780007E480068C107C90F009881420DD27B486E
:10379000006801218843009901437848016000686E
:1037A000C107C90F0098814270D1754D20788007FC
:1037B00005D5E868F0218843A1680143E9602078D5
:1037C000C0074ED56068022802D12968890308E045
:1037D000032802D12968890103E00128296802D160
:1037E000490702D452E0890550D5E9680322914384
:1037F0000843E860FEF784FC070060680C26022896
:103800000AD1E868304008282BD0FEF779FCC01BAD
:1038100031498842F5D322E003280AD1E8683040D4
:103820000C281ED0FEF76CFCC01B2B498842F5D338
:1038300015E001280AD1E8683040042811D0FEF7CD
:103840005FFCC01B24498842F5D308E0E86830409B
:1038500007D0FEF755FCC01B1F498842F6D3032052
:1038600037E0009845490968CA07D20F90420FD245
:103870004248006801218843009901433F480160A4
:103880000068C107C90F0098814201D0012020E0E3
:103890002078400705D5E8683A490140E0680843C8
:1038A000E8602078000706D5E868374901402069BC
:1038B000C0000843E86000F017F83449EA681206CF
:1038C000120F895CC840324908600320FFF7BEFC34
:1038D000002001B0F0BD000089130000200001406D
:1038E000FFDFFFFFFFFFFFFE00B5254AD1680C2078
:1038F0000840042804D0082809D00C2809D01EE06C
:103900001068C00601D5244800BD244800BD2448E5
:1039100000BD24488B021B0FC05C0902890F491CA3
:10392000D368DB0301D51E4A05E01268D20601D533
:10393000194A00E0194A5043FFF730FC00BD5068B7
:1039400001210004400F401C8140C80300BD104805
:10395000006815490F4A12685205520F895CC84029
:1039600070470B48006810490A4A12689204520FC7
:10397000895CC84070470000FFFF02FF0020024042
:1039800000100240FFF8FFFFFFC7FFFF1C480008C0
:103990009C0100200C10024000093D000024F400AE
:1039A00000127A002C480008B0490008094205D0EE
:1039B000830705D00270401C491EF9D170470000F2
:1039C000130030B414001500103902D310393CC074
:1039D000FCD2490700D30CC000D504C0890002D333
:1039E0000280801C002900D5027030BC70470000A6
:1039F0000022DBE7F9B595B014004A487844FF305F
:103A000025300CC813A80CC0099108AD0020E8614E
:103A100001E00098241800206946C88013AB0022FA
:103A2000D243210001A8801C00F013FD0090012862
:103A300005DA2078411E8941C943C90F00916846C3
:103A4000C0882528009F00D17F1E012F0EDB260095
:103A500031780998159A90470990002800D1ECE038
:103A6000E869401CE861761C7F1EF1D16846C08879
:103A7000252804D1002028616861A86108E0684613
:103A8000C0880028C5D1E869D9E0010001200843B9
:103A9000641C21782029F8D023290ED02B2904D0AA
:103AA0002D2907D030290BD00DE00100022008435A
:103AB00080B2EDE701000420F9E701000820F6E7F5
:103AC00001001020F3E72A2912D116990968169AE5
:103AD00011600A68091D169B19606A62002A05D5E3
:103AE0005142696201000420084380B2641C12E064
:103AF000002169620AE06A6A0B4B9A4205D0930082
:103B00009A185200511830396962641C21780A00F1
:103B1000303A0A2AEFD321782E2907D00021C94351
:103B2000296225E0940E0000FFFFFF7F641C2178CE
:103B30002A290AD116990968169A11600A68091D7E
:103B4000169B19602A62641C12E0002129620AE0B7
:103B50002A6AC34B9A4205D093009A185200511812
:103B600030392962641C21780A00303A0A2AEFD3DE
:103B700028852678310000BFBAA000F078FC002824
:103B800001D0641C00E000262A202E54285C6828FE
:103B900006D12078682803D162202A216854641C49
:103BA00002A8E8602678641C252E15D0582E55D022
:103BB000632E00D1B3E0642E00D18EE0692E00D1D7
:103BC0008BE06F2E4AD0702E3BD0732E0AD0752E0C
:103BD00044D0782E42D0CAE00120286125206946D1
:103BE0000872CFE02A20285C6C2816980068169985
:103BF000086017D00668001D16990860AE602F6A2D
:103C0000002F03D53000FFF711F809E03A0000213A
:103C1000300000F036FC002801D0801B00E03800A6
:103C20006861AFE00268001D1699086008A9159840
:103C300000F042F9002800D4A4E00020C04317B0EF
:103C4000F0BD16980068169908600168001D169A64
:103C50001060089102A8A86078215CE02A20285C06
:103C60006C2801D1169810E0712801D1169802E055
:103C70006A28169809D10268D21D07208243169837
:103C8000026003CA169B1A6005E0016801600868BB
:103C9000091D169A116008902A20285C682802D114
:103CA000089880B203E0622802D10898C0B2089058
:103CB0002820285C000729D50898002826D0202035
:103CC0003043782822D12869302102AA1154401C9F
:103CD000411C296102A90E5418E016992A20285C7B
:103CE00000F0C4F80890002802D528692D2109E0C9
:103CF000288D810702D528692B2103E0C00705D54F
:103D00002869202102AA1154401C286102A82969AF
:103D10004018A860310008A800F0F8F932E02A2025
:103D2000285C6C280CD00120286116980068169930
:103D300008600168001D169A10606846017221E053
:103D400016980068169908600168001D169A1060A0
:103D500068460180002069464880C04328626A4660
:103D600008A9159800F0A8F800280BD565E70120F0
:103D70002861252069460872300003D0022028619E
:103D800002A84670686A2969401AA969401A6969D7
:103D9000401A00902820285C400711D42020694652
:103DA0000871009801280BDB009E012301AA08A9D5
:103DB000159800F027FA002800D03EE7761EF4D1CF
:103DC0002F6902AE002F0DD031780998159A9047CF
:103DD0000990002800D130E7E869401CE861761CB2
:103DE0007F1EF1D1302069460871AE69012E0ADBD1
:103DF000012301AA08A9159800F004FA002800D0B0
:103E00001BE7761EF4D1AE686F69002F0DD03178B4
:103E10000998159A90470990002800D10DE7E869A4
:103E2000401CE861761C7F1EF1D12820285C4007E9
:103E300000D4F0E52020694608710098012800DAD6
:103E4000E9E5009E012301AA08A9159800F0DAF916
:103E5000002800D0F1E6761E00D1DCE5F2E700BFD5
:103E6000FFFFFF7F686C747A4C000000622815D059
:103E700068280CD06C2818D0742816D07A2814D151
:103E80000A680A601068121D0A60002170470A68FB
:103E90000A601068121D0A6000B20BE00A680A602E
:103EA0001068121D0A6040B204E00A680A601068D7
:103EB000121D0A60C1177047F4B59AB007000C00D4
:103EC000206A002800D58E48039000F0E6FA616A67
:103ED000081806908BA003C807AA03C22820205CFC
:103EE000400702D40698412806D209A80290402033
:103EF0000690002005900EE000F0D4FA0290002811
:103F0000F7D10020C043F8E01A98801C1A9003985B
:103F10000199401A03900398012800DA93E007AA58
:103F20001A98018800A8401C00F018FB0190002896
:103F300000D59FE01A980088002804D10198401EFF
:103F4000019000D596E00398019988427BDB2069B7
:103F50000699019A8218914264D20021616241421D
:103F6000A069081A6169401A04902820205C400763
:103F700010D4202069460870049801280ADB049DAB
:103F800001236A462100380000F03CF9002871D175
:103F90006D1EF5D12669029D002E0BD02978606830
:103FA000B8476060002865D0E069401CE0616D1C86
:103FB000761EF3D1302069460870A569012D09DB12
:103FC00001236A462100380000F01CF9002851D175
:103FD0006D1EF5D1A5686669002E0BD02978606842
:103FE000B8476060002845D0E069401CE0616D1C66
:103FF000761EF3D12820205C400710D5202069468A
:104000000870049801280ADB049D01236A462100F8
:10401000380000F0F7F800282CD16D1EF5D10020F3
:1040200005902061019A00A9491C02982369C018D3
:1040300000F0A0FA20690199401820611A980088C0
:10404000002800D060E7059800284FD1606A2169F8
:10405000401AA169401A6169461A2820205C40076D
:1040600011D4012E0FDB350020216068B847606055
:10407000002803D10020C043059037E0E069401CD0
:10408000E0616D1EF0D12369029A2100380000F032
:10409000B9F80028EED1A569012D0ADB302160684E
:1040A000B84760600028E5D0E069401CE0616D1E03
:1040B000F4D16369A2682100380000F0A3F8002859
:1040C000D8D12820205C40070DD5012E0BDB350010
:1040D00020216068B84760600028CBD0E069401CB0
:1040E000E0616D1EF4D1002020616062029809A990
:1040F000884201D000F06CFA05981BB0F0BD0000BA
:10410000FFFFFF7F0000000000000000F2B582B05A
:104110000400E06800906846007A6F2801D1082505
:1041200006E020220243782A01D00A2500E010256B
:10413000182721680E00642801D0692803D10029BE
:1041400001D570420600002E0DD1206A00280AD148
:10415000082D31D12820205C00072DD517273020CD
:104160000099C87528E07F1E019730002900FFF7ED
:1041700015F83031C9B23A2903DB6846007A513864
:1041800009180098C15530002900FFF707F806000C
:1041900004D0A0680099C9198842E4D3082D0BD136
:1041A0002820205C000707D50098C05D302803D088
:1041B0007F1E30200099C8551820C01B60610099EF
:1041C000C919A160216A884206DA081AA061208D07
:1041D0000B490140218510E000290ED52821615CA2
:1041E00014220A40102A08D1616A2269891AA26938
:1041F000891A0F1A012F00DBA76103B0F0BD000080
:10420000EFFF0000F1B50E0014000027002B0FD0C7
:104210001D0021787068009A90477060002806D0D1
:10422000F069401CF061641C6D1E01D0F1E7FF4392
:104230003800F2BD30B581B00100002001296BD0FB
:10424000022977D0042900D183E0082900D198E021
:10425000102900D1AAE0202906D0402934D080229C
:104260001201914200D0A7E0544A136DC024A40269
:10427000116D214080256D02A94201D1990566E0AA
:104280006D00A94204D1990700D495E04C4893E011
:10429000A14200D090E011680D4000D18CE0106880
:1042A0002101014080204003814209D04000814229
:1042B00004D02001814205D142487DE042487BE0A4
:1042C000424879E0424877E08023DB043B4AD16CE6
:1042D00019401AD1116889016ED5D068D1683D4B5B
:1042E0008002000F1B5C0802810F491CD068C003CC
:1042F00006D41068C00601D5354802E0364800E013
:1043000036485843FEF74AFF56E0994254D1916827
:10431000890751D532484FE0284AD16C8907890F67
:1043200002D1FFF71EFB47E002291BD001293AD03A
:10433000032909E0214AD36C0C2119403AD00829FD
:1043400010D004292FD00C2936D1116D890515D430
:1043500032E0C0231B01194AD16C19402AD0D40C79
:10436000A14203D11168490718D425E0140DA142D8
:1043700019D0994220D1116D89051DD580200002E8
:104380001AE00E4AD36CC0218901194012D0802353
:104390009B01994204D1116849070DD50E480BE0E5
:1043A000920C914208D1FFF79FFA05E00349896B0F
:1043B000490201D5FFF7CBFA01B030BD0010024031
:1043C0008890000020A1070040420F0080841E005A
:1043D00000093D002C4800080024F40000127A0077
:1043E000006CDC02124224D0994228D970B5002515
:1043F0001B4202D00C00002109E0002401264918CC
:104400006441944200D3A41A7641F8D331000126C6
:1044100001E0764109D2001864416D41A41A9D4122
:10442000F7D2A4185D41B619F5D3300022002B0055
:1044300070BD1B42D8D108B500F00EF908BD01D1FE
:104440009042D3D202000B00002100207047FEE70B
:104450007047F8B504000F0015001E0000F0FEF8CC
:1044600033002A003900200000F00CF9F2BDC9B277
:1044700000E0401C02788A4202D0002AF9D10020D4
:104480007047C9B201E0401C521E002A03D00378D5
:104490008B42F8D170470020704780B500F0DEF8FD
:1044A000012002BD70B505002C000F3407208443A5
:1044B00000BF00BFA54233D2082C04D2082402E07A
:1044C000083000F085F82448026811000CD1011D65
:1044D0000A68002A20D01368A34212D2111DF7E700
:1044E0001D68A5420DD2191D0B68002BF8D112686A
:1044F000011D00E0191D0B6893420DD01D68A542F7
:10450000F8D300290CD00D682A681300083BA34299
:104510000AD26A680A600FE000F0D2F80028CFD112
:1045200000BF00BF002070BD2B190B606E685E607D
:10453000121B0B681A602C600968002904D04A68B5
:10454000002A01D0091D00E00021016000BF00BF6A
:104550002800083070BD0000F80F002070B504007E
:104560000D00160000F07AF832002900200000F05B
:104570007FF870BD124207D08B0706D00B78491C1C
:104580000370401C521EF7D87047830706D00B7883
:10459000491C0370401C521EF9D1704770B4103A88
:1045A00003D378C9103A78C0FBD2530701D318C996
:1045B00018C001D508C908C0D20704D30B880380EE
:1045C000891C801C002A01D50B78037070BC7047D1
:1045D000002800D1704738B5083804002068082842
:1045E00036D3400734D100BF00BF1A4841680029C4
:1045F00001D08C4203D26160446019E019004B681D
:10460000002B01D0A342F9D30B68CD18AC421DD3C7
:10461000A54204D122689A180A600C0008E04A6892
:10462000002A03D02368E3189A420FD362604C60DB
:10463000616800290AD02268A3188B4206D10023A2
:1046400003600868101820604868606000BF00BF01
:1046500031BD0000F80F00207047FEE780B5034829
:1046600000F044F8806902BD00000000A8010020AD
:10467000002804D10EA003C803C2002070470170B7
:1046800001207047002904D10BA003C803C30020F8
:104690007047002A02D10120C0437047002801D092
:1046A0000A7802800978481E8041C043C00F7047D5
:1046B00000000000000000000000000000000000FA
:1046C00007490868002801D00020704705480722E4
:1046D0009043086004499143091A0160704700BF84
:1046E000041000201F060020180E00207047FEE76F
:1046F0000D0A2D2D2D2D2D2D204C534D3644534C70
:10470000204649464F204D6F64652044454D4F205B
:104710002D2D2D2D2D2D0D0A0D0A00000D0A4C53A7
:104720004D3644534C2073746172747320746F203F
:1047300073746F72652074686520646174612069A8
:104740006E746F204649464F2E2E2E0D0A0D0A001C
:104750000D0A0D0A25642073616D706C6573206904
:104760006E204649464F2E0D0A0D0A53746172742D
:10477000656420646F776E6C6F6164696E67206436
:104780006174612066726F6D204649464F2E2E2E51
:104790000D0A0D0A000000005B4441544120232310
:1047A0005D20202020204759525F582020202020C3
:1047B0004759525F5920202020204759525F5A0DF7
:1047C0000A0000000F480168820D0A430260C168B8
:1047D0000D4A0A40C26001680C4A0A4002608168C2
:1047E0000122914381600168094A0A400260C16860
:1047F000084A0A40C2600021016180200005064984
:1048000008607047001002400C40FF88F6FFF6FE7B
:10481000FFFFFBFFFFFF02FF08ED00E000000000CC
:10482000000000000102030406070809030406084B
:104830000C1018203000000070B40121002213E099
:104840000468001D0C4202D04D466D1E64192260A2
:10485000241D1B1F042BFAD225009E0701D52280A0
:10486000AD1C0B4000D02A700368001D002BE7D15F
:1048700070BC704730B501684118446862088A18F6
:104880008368E40701D54C461B19914201D10C30D5
:1048900030BD0C7864B2491C0D78491C1D705B1C3E
:1048A000002C02D5641CF9D1EFE7641EF4D5ECE7C7
:1048B00010B5074979441831064C7C44163404E09D
:1048C000081D0A68891888470100A142F8D110BD67
:1048D000400000005C0000007047FEE700B581B0BA
:1048E00000F00EF801B000BD00B581B02020FDF74A
:1048F000A6FB80208001FDF7A2FB01B000BDFEE712
:1049000002480168491C0160704700BF0010002088
:1049100029FFFFFFF4010000180E00200000000036
:1049200055FFFFFFB8000000360100000000002026
:104930008268521C82604268002A06D00268531CBA
:10494000036011704168491E4160704700F00BF828
:10495000002801D0FFF7ACFF002000BF00BFFDF72B
:10496000D5FB00F002F80120704780B500F002F896
:1049700001BDFEE70746384600F002F8FBE7FEE718
:1049800080B500BF00BF024A11001820ABBEFBE794
:10499000260002000148804701480047C54700083B
:1049A000A549000800BF00BF00BF00BFFFF7CEFF52
:1049B00000000000010203040000000000000000ED
:1049C000FEE7FEE7FEE7FEE7FEE7FEE7FEE7FEE7BF
:1049D000FEE7FEE7FEE7FEE7FEE7FEE777450800B5
:1049E00008CB080008F90800082709000855090045
:1049F0000867090008790900088B090008C1090047
:104A0000087D0A0008A10A0008BF0A0008D10A00B0
:104A100008EF0A0008090B0008C100000837010070
:104A2000089301000827020008C1020008D3020011
:104A300008FD020008DD0300081F040008A10400AF
:104A4000082D050008A505000887060008050700D1
:104A50000831070008F8000DC5070008D90700084D
:104A6000F3070008000481008100F50007500008EA
:074A7000005080841E8B0042
:0400000508000000EF
:00000001FF
