:020000040800F2
:1000000000080020658D0008D18C0008D38C000802
:1000100000000000000000000000000000000000E0
:10002000000000000000000000000000673500082C
:1000300000000000000000004B360008D58C0008CE
:100040008736000873430008E74500080755000895
:100050004B590008037400080F760008E18C000873
:10006000A3760008438D00084F8D0008918D00088D
:10007000938D0008958D000800000000978D000802
:1000800000000000998D0008000000000000000042
:100090009B8D0008000000009D8D00089F8D0008CA
:1000A000A18D0008A38D0008A58D0008A78D00086C
:1000B000A98D0008AB8D0008AD8D0008AF8D00083C
:1000C00010B582B00400002069460870200002F0DC
:1000D00055F8002838D0684600782178884233D116
:1000E0000421200002F09EFA00282DD0402120009B
:1000F00002F050F8002827D00021200002F016FA64
:10010000002821D01448A168096808600021200057
:1001100002F0B4F8002817D00021200002F059F8AE
:10012000002811D00821200002F0F8FA00280BD096
:100130001021200002F022FB002805D02021200001
:1001400002F04CFB002801D1012002E00120607187
:10015000002002B010BD00000000D04270B582B097
:100160000400A068066800256846057069462000FE
:1001700002F004F8002800D1BAE06846007821783F
:10018000884200D0B4E00021200003F04DF80028A0
:1001900000D1ADE00021200003F000F9002800D1DB
:1001A000A6E00021200002F0A9FF002800D19FE076
:1001B0000021200002F083FF002800D198E00021F8
:1001C000200002F0F3FF002800D191E00021200080
:1001D00003F0A6F8002800D18AE00021200002F0F8
:1001E0004AFE002800D183E00021200002F0FBF944
:1001F00000287DD00021200002F0FDFD002877D0EE
:100200000021200002F0C9FB002871D0002120004D
:1002100003F051F900286BD00021200003F042F8D0
:10022000002865D00021200003F0F6F800285FD0F8
:100230000021200002F0FEFD002859D000212000FE
:1002400002F038FE002853D00021200002F053FEB7
:1002500000284DD00021200002F051FD002847D099
:100260000021200002F06AFD002841D0002120007A
:1002700002F083FD00283BD00021200002F0B5FFF2
:10028000002835D00021200003F069F800282FD085
:100290000021200002F0CEFD002829D000212000FE
:1002A00002F008FE002823D00021200002F023FEE7
:1002B00000281DD00021200002F03FFE002817D0AA
:1002C0000021200002F07AFE002811D00021200039
:1002D00002F015FD00280BD00021200002F02EFDB9
:1002E000002805D00021200002F047FD002801D1A0
:1002F000012043E00021200002F039FF0028F7D060
:100300000021200002F0EDFF0028F1D000212000A4
:1003100002F052FD0028EBD00021200002F03DFB4E
:100320000028E5D00021200002F09DFF0028DFD04A
:100330000021200003F051F80028D9D0002120002E
:1003400002F09BFE0028D3D00021200002F015FE11
:100350000028CDD0A07900280DD0A0680168200029
:1003600000F06CF90128C3D00021200001F086FFC5
:100370000028BDD0A57100203060657102B070BD4D
:1003800010B50400A079012842D0A0680068006878
:100390007F4903F0D5F801D2102130E07D4903F008
:1003A000CFF801D220212AE07B4903F0C9F801D21D
:1003B000302124E09B4903F0C3F801D240211EE024
:1003C000994903F0BDF801D2502118E0974903F094
:1003D000B7F801D2602112E0954903F0B1F801D2DB
:1003E00070210CE0934903F0ABF801D2802106E0C4
:1003F000914903F0A5F801D2902100E0A02120004E
:1004000001F03CFF002801D1012010BD0120A071A6
:10041000002010BD30B581B00400A079002840D084
:10042000A06805686946200001F047FF002834D025
:1004300068460078002826D0102823D020281FD016
:1004400030281BD0402817D0502813D060280FD058
:1004500070280BD0802807D0902803D0A0281AD16C
:10046000954810E095480EE095480CE095480AE064
:10047000954808E0954806E0954804E0954802E074
:10048000954800E0954828600021200001F0F6FE24
:10049000002804D101E092482860012001E00020FA
:1004A000A07101B030BD00B581B001F067FE401E03
:1004B0008041C00F01B000BD30B581B004000025FF
:1004C000684605706946200001F058FE002804D0F7
:1004D000684600782178884200D00125280001B0C4
:1004E00030BDF0B583B005000C0001A8002100224A
:1004F00006C001A9280001F09CFE002844D001A8F4
:100500004178090202788E18C17809028278891828
:100510006A4651804179090200790F18694628001E
:1005200001F076FE00282FD06846007800280CD015
:10053000042804D0082806D00C2802D024E0824DDC
:1005400004E0824D02E0824D00E0824D30B203F0C3
:100550000BF8290003F021F803F078F820600098E8
:10056000001403F001F8290003F017F803F06EF807
:10057000606038B202F0F8FF290003F00EF803F0D3
:1005800065F8A060002000E0012003B0F0BD00008D
:10059000010050410100D0410100504210B582B02D
:1005A0000C006946002200230CC1694601F041FE9F
:1005B000002801D1012010E0684641780902027844
:1005C00089182180C178090282788918618041796F
:1005D000090200790818A080002002B010BD10B5F3
:1005E00082B00C00694601F013FE002801D1012001
:1005F0000DE068460078002806D004280DD00828B1
:1006000007D00C2807D00AE052482060002002B032
:1006100010BD4F48F9E74D48F7E74B48F5E730483C
:100620002060E4E70100D042010050430100D043C4
:10063000014050440180CF440120504510B582B0A4
:100640000C00694601F039FE002801D101201AE0B2
:1006500068460078002814D0102816D0202816D01C
:10066000302816D0402816D0502816D0602816D032
:10067000702816D0802816D0902816D0A02816D022
:1006800017E02060002002B010BD1448F9E71248BE
:10069000F7E71048F5E70E48F3E70C48F1E70A489A
:1006A000EFE70848EDE70648EBE70448E9E70248CA
:1006B000E7E70B482060C9E70020D04500205045FF
:1006C0000080CF44004050440000D043000050431D
:1006D0000000D042000050420000D04100005041D4
:1006E000000080BF00B581B08279012A15D10029B0
:1006F0000CD0022908D009D3042901D002D30AE082
:10070000402104E0302102E0202100E0102101F02E
:10071000B5FD002814D1012013E08068006800298D
:100720000CD0022908D009D3042901D002D3F2E762
:100730006E4904E06E4902E06E4900E06E490160D6
:10074000002001B000BD000023DBF93E23DB793E31
:1007500023DBF93D23DB793D00B581B002000800C1
:1007600066499379012B3CD102F0EAFE01D21021B7
:1007700030E0634902F0E4FE01D220212AE0614921
:1007800002F0DEFE01D2302124E05F4902F0D8FE03
:1007900001D240211EE05D4902F0D2FE01D250217B
:1007A00018E05B4902F0CCFE01D2602112E0594909
:1007B00002F0C6FE01D270210CE0574902F0C0FEE3
:1007C00001D2802106E0554902F0BAFE01D2902103
:1007D00000E0A021100001F051FD00282AD10120E5
:1007E00029E09268126802F0ABFE1FD3444902F080
:1007F000A7FE1BD3434902F0A3FE17D3424902F0E0
:100800009FFE13D3414902F09BFE0FD3404902F0F3
:1008100097FE0BD33F4902F093FE07D33E4902F007
:100820008FFE03D33D4902F08BFE01D2481E00E04B
:10083000A5481060002001B000BD10B582B00C00CA
:10084000694601F0E5FC002801D101200EE0684670
:100850000078002806D004280ED0082808D00C28DC
:1008600008D00BE08020C0052060002002B010BD41
:100870008120F8E78220F6E78320F4E793482060A0
:10088000E3E700B581B0002904D0022909D004298A
:1008900009D00AE001F09DFC401E8041C00F01B06C
:1008A00000BD0821F6E70C21F4E70120F7E700B5C9
:1008B00081B002000800AF4902F042FE01D20021DF
:1008C0000CE0AD4902F03CFE01D2082106E0AB4944
:1008D00002F036FE01D20C2100E00421100001F0EC
:1008E00078FC401E8041C00F01B000BD0000D04226
:1008F000000050420000D041000050410100504132
:100900000100D041010050420100D042010050439B
:100910000100D043014050440180CF4401205045A4
:1009200030B581B005000C0000A9891C01F015FF4D
:1009300000280CD000A9491C280001F03EFF002827
:1009400005D06946280001F068FF002801D1012088
:1009500018E068468078082801D1012000E00020D6
:10096000207068464078102801D1012000E0002066
:10097000607068460078202801D1012000E0002046
:10098000A070002001B030BD30B581B004000D0072
:100990002878012801D1082100E00021200001F081
:1009A000BDFE00280AD06878012801D1102100E09E
:1009B0000021200001F0E2FE002801D101200BE01F
:1009C000A878012801D1202100E00021200001F0B9
:1009D00005FF401E8041C00F01B030BD00B581B0A1
:1009E000012301F0C2FB401E8041C00F01B000BDD9
:1009F00000B581B06B461A7001236A4601F0ACFB6A
:100A0000401E8041C00F01B000BD10B582B00C0087
:100A1000694602F09CF8002809D068460078002852
:100A200001D0012803D12070002002B010BD0120A8
:100A3000FBE710B582B00400002069460870200072
:100A400001F09CFB002838D0684600782178884265
:100A500033D10421200001F0E5FD00282DD04021F4
:100A6000200001F097FB002827D00021200001F092
:100A70005DFD002821D08248A16809680860002136
:100A8000200001F05BFC002817D00C21200001F0B1
:100A900025FC002811D00821200001F0EEFE0028DE
:100AA0000BD01021200001F018FF002805D02021D4
:100AB000200001F042FF002801D1012002E00120C6
:100AC0006071002002B010BD0020D045000080BF42
:100AD000F0B581B00400A06807680026684606707B
:100AE0006946200001F04AFB002841D068460078A2
:100AF000217888423CD1A079002832D0A0680568CE
:100B00006946200001F039FC002831D068460078A1
:100B100000281ED010281BD0202817D0302813D032
:100B200040280FD050280BD0602807D0702803D061
:100B300080281BD193480CE093480AE0934808E0D2
:100B4000934806E04E4804E0924802E0924800E0F4
:100B5000924828600021200001F0F0FB002807D017
:100B6000A67100203860667101B0F0BD8C48286025
:100B70000120F9E701000040010080400100004130
:100B800010B50400A079012836D0A068006800687C
:100B9000844902F0D5FC01D2102124E0824902F000
:100BA000CFFC01D220211EE0804902F0C9FC01D215
:100BB000302118E07E4902F0C3FC01D2402112E04E
:100BC000A54902F0BDFC01D250210CE0A34902F07E
:100BD000B7FC01D2602106E0A14902F0B1FC01D2CC
:100BE000702100E08021200001F0A8FB002801D145
:100BF000012010BD0120A071002010BD30B581B0D2
:100C00000400A079002838D0A06805686946200053
:100C100001F0B3FB00282CD06846007800281ED0D5
:100C200010281BD0202817D0302813D040280FD0F0
:100C300050280BD0602807D0702803D0802816D108
:100C400050480CE050480AE0504808E0504806E0A0
:100C50000B4804E04F4802E04F4800E04F4828604E
:100C60000021200001F06AFB002804D101E04C487B
:100C70002860012001E00020A07101B030BD00001B
:100C80000000D04200B581B001F078FA401E8041EA
:100C9000C00F01B000BD30B581B00400002568462A
:100CA00005706946200001F069FA002804D0684602
:100CB00000782178884200D00125280001B030BD9D
:100CC000F0B583B005000C0001A80021002206C089
:100CD00001A9280001F062FB002850D001A841784A
:100CE000090202788E18C1780902827889186A464A
:100CF00051804179090200790F1800A9491C280088
:100D000001F090FB00283AD068464078022801D1D3
:100D1000884D16E06946280001F0FFFA00282ED021
:100D20006846007800280BD0042807D0082803D094
:100D30000C2824D1804D04E0804D02E0804D00E07D
:100D4000804D30B202F010FC290002F026FC02F0C7
:100D50007DFC20600098001402F006FC290002F0DF
:100D60001CFC02F073FC606038B202F0FDFB29004D
:100D700002F013FC02F06AFCA060002000E00120F9
:100D800003B0F0BD0080CF44004050440000D04389
:100D900000005043000050420000D041000050418C
:100DA000000080BF010050410100D04101005042CD
:100DB0000100D04210B582B00C0069460022002329
:100DC0000CC1694601F0EAFA002801D1012010E0C7
:100DD000684641780902027889182180C1780902A1
:100DE0008278891861804179090200790818A08009
:100DF000002002B010BD30B581B004000D0000A984
:100E0000491C01F00FFB00280ED0684640780228EC
:100E100004D148482860002001B030BD6946200058
:100E200001F07BFA002801D10120F5E7684600783F
:100E3000002806D0042806D0082806D00C2806D0A2
:100E400007E04048E6E73E48E4E73C48E2E73A4846
:100E5000E0E784482860E7E7010050430100D04301
:100E60000140504410B582B00C00694601F085FA8B
:100E7000002801D1012016E068460078002810D033
:100E8000102812D0202812D0302812D0402812D09A
:100E9000502812D0602812D0702812D0802812D08A
:100EA00013E02060002002B010BD6F48F9E76F48E2
:100EB000F7E76F48F5E76F48F3E76F48F1E76F48EA
:100EC000EFE76F48EDE76F48EBE766482060D1E752
:100ED00000B581B08279012A15D100290CD00229F0
:100EE00008D009D3042901D002D30AE0402104E04C
:100EF000302102E0202100E0102101F01FFA00283B
:100F000014D1012013E08068006800290CD0022968
:100F100008D009D3042901D002D3F2E7554904E0EF
:100F2000534902E0514900E04F490160002001B0FF
:100F300000BD000000008C4000008C4200000C420C
:100F400000008C4100000C4100B581B00200080097
:100F500071499379012B30D102F0F2FA01D21021BC
:100F600024E06E4902F0ECFA01D220211EE06C4927
:100F700002F0E6FA01D2302118E06A4902F0E0FA04
:100F800001D2402112E0684902F0DAFA01D2502180
:100F90000CE0664902F0D4FA01D2602106E064490F
:100FA00002F0CEFA01D2702100E08021100001F0A1
:100FB000C5F9002822D1012021E09268126802F0D0
:100FC000BFFA17D3554902F0BBFA13D3544902F0C4
:100FD000B7FA0FD3534902F0B3FA0BD3524902F0D8
:100FE000AFFA07D3514902F0ABFA03D3504902F0EC
:100FF000A7FA01D2481E00E022481060002001B08C
:1010000000BD30B581B005000C00694601F00AFA58
:10101000002806D000A9491C280001F07EF900280C
:1010200001D1012006E068460078022804D1414839
:101030002060002001B030BD68464078002806D00E
:10104000042806D0082806D00C2806D007E0A148BE
:10105000EEE7A148ECE7A148EAE7A148E8E7014844
:101060002060DEE7000080BF000050410000D0415A
:10107000000050420000D042000050430000D04326
:10108000004050440080CF4400B581B0002904D016
:10109000022909D0042909D00AE001F01FF9401EF5
:1010A0008041C00F01B000BD0421F6E70C21F4E738
:1010B0000120F7E730B581B004000800894902F04B
:1010C0003FFA08D20221200001F08DF9002821D03A
:1010D000002001B030BDAA4902F032FA01D2002549
:1010E0000CE0A84902F02CFA01D2042506E0A6493A
:1010F00002F026FA01D2082500E00C25002120008C
:1011000001F071F9002805D02900200001F0E6F86F
:101110000028DDD10120DCE7010050410100D04171
:10112000010050420100D042010050430100D04371
:10113000014050440000FA4230B581B005000C0077
:1011400000A9891C01F0B8FB00280CD000A9491C9B
:10115000280001F0E1FB002805D06946280001F0D5
:101160000BFC002801D1012018E06846807808288F
:1011700001D1012000E0002020706846407810284E
:1011800001D1012000E0002060706846007820282E
:1011900001D1012000E00020A070002001B030BD8E
:1011A00030B581B004000D002878012801D1082154
:1011B00000E00021200001F060FB00280AD06878E0
:1011C000012801D1102100E00021200001F085FB61
:1011D000002801D101200BE0A878012801D12021AD
:1011E00000E00021200001F0A8FB401E8041C00F5C
:1011F00001B030BD00B581B0012300F0B6FF401E44
:101200008041C00F01B000BD00B581B06B461A70BF
:1012100001236A4600F0A0FF401E8041C00F01B0CC
:1012200000BD10B582B00C00694601F0A1FC002899
:101230000AD068460078002802D0022804D1012094
:101240002070002002B010BD0120FBE700B581B086
:1012500002000800834902F073F901D2102130E046
:10126000814902F06DF901D220212AE07F4902F084
:1012700067F901D2302124E07D4902F061F901D201
:1012800040211EE07B4902F05BF901D2502118E0B9
:10129000794902F055F901D2602112E0774902F054
:1012A0004FF901D270210CE0BE4902F049F901D298
:1012B000802106E0BC4902F043F901D2902100E010
:1012C000A021100000F0DAFF401E8041C00F01B0E5
:1012D00000BD0000000075430000FA4300007A449E
:1012E0000000FA440100FA4230B581B004000D005C
:1012F000AE49A079012805D12000FFF7A7FF0128FA
:1013000003D13AE0A068006801600021200000F0ED
:1013100060FF002831D00621200001F0EFFE0028F8
:101320002BD00021200001F0A8FE002825D00021AC
:10133000200001F083FE00281FD00021200001F0D2
:101340005CFE002819D00321200001F0B8FE00281F
:1013500013D0002D02D0012D09D00EE01021200065
:1013600001F062FF002808D0002001B030BD10213C
:10137000200002F013F80028F6D10120F5E7000064
:10138000010075430100FA4301007A4410B50400DE
:10139000002101F049FF00280BD00021200001F0BE
:1013A000FDFF002805D00021200001F0A7FE002845
:1013B00001D1012010BD0021200001F080FE401E5F
:1013C0008041C00F10BD10B582B00C00694601F01D
:1013D00014FB00280AD068460078002802D0202894
:1013E00004D101202070002002B010BD0120FBE7D5
:1013F00000B581B001F063FE401E8041C00F01B016
:1014000000BD10B50400A049A079012805D1200035
:10141000FFF71CFF012803D110BDA0680068016020
:101420000021200000F0D5FE002811D01721200057
:1014300002F041F800280BD00421200001F0ADFAA1
:10144000002805D04021200001F0D5FC002801D162
:10145000012010BD8021200001F0C5F8401E804110
:10146000C00F10BD010050410100D04101005042A9
:101470000100D042010050430100D04301405044DC
:1014800010B50400002101F0AEF800280BD00021B7
:10149000200001F0B0FC002805D00021200001F060
:1014A0007CFA002801D1012010BD0021200002F0AB
:1014B00002F8401E8041C00F10BD10B582B00C0074
:1014C000694601F0DBFB00280AD068460078002856
:1014D00002D0102804D101202070002002B010BDDD
:1014E0000120FBE700B581B001F0CDFF401E804137
:1014F000C00F01B000BD00B581B0022101F09EF91E
:10150000401E8041C00F01B000BD00B581B0002178
:1015100001F094F9401E8041C00F01B000BD00B53C
:1015200081B001F0C8FF401E8041C00F01B000BD76
:1015300030B581B004000D005349A079012805D1D0
:101540002000FFF783FE012803D128E0A06800688F
:1015500001600021200000F03CFE00281FD0042183
:10156000200001F01AFA002819D02021200001F0F3
:1015700023FC002813D0002D02D0012D09D00EE04D
:101580000221200001F0F3FD002808D0002001B066
:1015900030BD0221200001F0A4FE0028F6D1012078
:1015A000F5E700000180CF44012050450000D04302
:1015B00010B50400002101F0DAFD00280BD0002155
:1015C000200001F08EFE002805D00021200001F04F
:1015D000F3FB002801D1012010BD0021200001F003
:1015E000DCF9401E8041C00F10BD10B582B00C0068
:1015F000694601F054FB00280AD0684600780028AC
:1016000002D0202804D101202070002002B010BD9B
:101610000120FBE730B581B004000D00B549A07989
:10162000012805D12000FFF711FE012803D128E091
:10163000A068006801600021200000F0CAFD0028B9
:101640001FD00021200001F018FD002819D0022130
:10165000200001F092FC002813D0002D02D0012DB3
:1016600009D00EE02021200001F0FDFD002808D067
:10167000002001B030BD2021200001F0AEFE002886
:10168000F6D10120F5E700000000D04110B50400BC
:10169000002101F0E8FD00280BD00021200001F01E
:1016A0009CFE002805D00021200001F0E6FC002867
:1016B00001D1012010BD0021200001F05EFC401E80
:1016C0008041C00F10BD10B582B00C00694601F01A
:1016D00083F900280AD068460078002802D008283C
:1016E00004D101202070002002B010BD0120FBE7D2
:1016F00000B581B001F041FC401E8041C00F01B037
:1017000000BD30B581B004000D007A49A0790128F0
:1017100005D12000FFF79AFD012803D140E0A06821
:10172000006801600021200000F053FD002837D040
:101730000821200001F021FB002831D004212000E5
:1017400001F0FCFA00282BD00221200001F0D7FA8A
:10175000002825D00821200001F06CFB00281FD0B4
:101760000221200001F0A6FB002819D00121200051
:1017700001F0C1FB002813D0002D02D0012D09D0AB
:101780000EE04021200001F08DFD002808D000204F
:1017900001B030BD4021200001F03EFE0028F6D10E
:1017A0000120F5E710B50400002101F07BFD0028C1
:1017B00023D00021200001F02FFE00281DD00021A1
:1017C000200001F037FB002817D00021200001F095
:1017D00071FB002811D00021200001F08CFB0028B3
:1017E0000BD00021200001F08AFA002805D000214A
:1017F000200001F0A3FA002801D1012010BD002132
:10180000200001F0BAFA401E8041C00F10BD10B593
:1018100082B00C00694601F012F900280AD068462F
:101820000078002802D0202804D101202070002058
:1018300002B010BD0120FBE730B581B004000D00FF
:101840002C49A079012805D12000FFF7FFFC0128D1
:1018500003D14CE0A068006801600021200000F086
:10186000B8FC002843D00821200001F086FA0028A7
:101870003DD00421200001F061FA002837D0022178
:10188000200001F03CFA002831D00821200001F0AE
:10189000D1FA00282BD00321200001F00BFB0028F7
:1018A00025D00321200001F026FB00281FD00821AD
:1018B000200001F042FB002819D08021200001F017
:1018C0007DFB002813D0002D02D0012D09D00EE0A1
:1018D0000821200001F089FC002808D0002001B078
:1018E00030BD0821200001F03AFD0028F6D101208A
:1018F000F5E700000000D04310B50400002101F01E
:1019000074FC00282FD00021200001F028FD0028C1
:1019100029D00021200001F08DFA002823D00021D9
:10192000200001F0C7FA00281DD00021200001F09E
:10193000E2FA002817D00021200001F0FEFA00286A
:1019400011D00021200001F039FB00280BD000212C
:10195000200001F0D4F9002805D00021200001F07A
:10196000EDF9002801D1012010BD0021200001F077
:1019700004FA401E8041C00F10BD10B582B00C00AB
:10198000694601F04BF800280AD068460078002824
:1019900002D0102804D101202070002002B010BD18
:1019A0000120FBE700B581B001F044FA401E804100
:1019B000C00F01B000BD00B581B001F07BFA401E40
:1019C0008041C00F01B000BD00B581B001F093FAB5
:1019D000401E8041C00F01B000BD00B581B001F0D4
:1019E000ACFA401E8041C00F01B000BD30B581B0DF
:1019F00004000D001749A079012805D12000FFF748
:101A000025FC012803D122E0A068006801600021C4
:101A1000200000F0DEFB002819D04021200001F05A
:101A20002AFA002813D0002D02D0012D09D00EE093
:101A30000421200001F0BAFB002808D0002001B0EA
:101A400030BD0421200001F06BFC0028F6D10120FC
:101A5000F5E700000000D04310B50400002101F0BC
:101A6000A5FB002805D00021200001F059FC00282A
:101A700001D1012010BD0021200001F0FCF9401E21
:101A80008041C00F10BD10B582B00C00694601F056
:101A90004DF800280AD068460078002802D0402877
:101AA00004D101202070002002B010BD0120FBE70E
:101AB00010B582B00C00694600F0D2FF002809D0B2
:101AC00068460078002801D0012803D1207000204A
:101AD00002B010BD0120FBE710B582B00C006946D2
:101AE00000F0CFFF00280AD068460078002802D016
:101AF000022804D101202070002002B010BD012076
:101B0000FBE710B582B00C00694600F0CBFF00285F
:101B10000AD068460078002802D0042804D10120A9
:101B20002070002002B010BD0120FBE710B582B08C
:101B30000C00694600F0C7FF00280AD0684600780C
:101B4000002802D0082804D101202070002002B013
:101B500010BD0120FBE710B582B00C00694600F013
:101B6000C3FF00280AD068460078002802D0102859
:101B700004D101202070002002B010BD0120FBE73D
:101B800010B582B00C00694600F0BFFF00280AD0F3
:101B900068460078002802D0202804D10120207057
:101BA000002002B010BD0120FBE730B583B0050076
:101BB0000C0000206A469080907110600421200083
:101BC00001F084FD012301AA1B21280000F0CDFAB9
:101BD000002800D1A7E0012300AAD21C1C21280064
:101BE00000F0C3FA002800D19DE0012301AA921C55
:101BF0001D21280000F0B9FA002800D193E001234C
:101C000000AA921C5321280000F0AFFA002800D14E
:101C100089E0012300AA521C5E21280000F0A5FAE9
:101C2000002800D17FE001236A465F21280000F0F0
:101C30009CFA002877D0012301AA521C0D2128000C
:101C400000F093FA00286ED068464078C00603D4AE
:101C500068460078C00607D568460079800603D537
:101C6000206801210143216068464078800603D442
:101C700068460078800607D568460079000703D5D6
:101C8000206808210143216068464078400603D45B
:101C900068460078400607D56846C078800603D5B8
:101CA000206802210143216068464078000703D480
:101CB00068460078000707D56846C078C00603D597
:101CC000206804210143216068464078400703D41E
:101CD00068460078400707D568468079400603D5F6
:101CE000206840210143216068464079000607D5FD
:101CF00068468078C00603D5206810210143216022
:101D000068464078800703D468460078800707D586
:101D100068468078800603D5206820210143216031
:101D2000002003B030BD0120FBE700B581B0020008
:101D300008009F4901F004FC01D2082130E09D49D0
:101D400001F0FEFB01D210212AE09B4901F0F8FBD3
:101D500001D2182124E0994901F0F2FB01D220219F
:101D60001EE0974901F0ECFB01D2282118E09549CB
:101D700001F0E6FB01D2302112E0934901F0E0FBD3
:101D800001D238210CE0914901F0DAFB01D2402167
:101D900006E08F4901F0D4FB01D2482100E0502138
:101DA000100000F0E2FB401E8041C00F01B000BDFA
:101DB00010B582B00C00694600F01DFF00280CD061
:101DC00068460078002802D0202804D005E0207062
:101DD000002002B010BD0120F9E70120F9E710B59D
:101DE00082B00C00694600F0F5FE00280CD0684671
:101DF0000078002802D0102804D005E020700020D0
:101E000002B010BD0120F9E70120F9E710B582B05A
:101E10000C00694600F000FF00280CD068460078EE
:101E2000002802D0402804D005E02070002002B035
:101E300010BD0120F9E70120F9E700B581B000F0FD
:101E4000FCFE401E8041C00F01B000BD00B581B056
:101E500001F001FB401E8041C00F01B000BD00B584
:101E600081B000F096FE401E8041C00F01B000BD61
:101E700000B581B0072905D800F018FB401E80414D
:101E8000C00F00E0012001B000BD00B581B00A0024
:101E90000DD008290BD0102909D0182907D02029E6
:101EA00005D0282903D0302901D0382905D100F0E8
:101EB0001DFB401E8041C00F00E0012001B000BDAD
:101EC00070B582B004000E0000A9891C01F0C3FAAD
:101ED000002828D000A8801C41780D020078054316
:101EE0006946200000F094F900281CD0684600786C
:101EF00000280CD0042804D0082806D00C2802D0D2
:101F000011E0344C04E0344C02E0344C00E0344C3A
:101F100028B201F029FB210001F03FFB01F096FB04
:101F20003060002000E0012002B070BD70B582B0CA
:101F300004000E0000A9891C01F08DFA002834D09D
:101F400000A8801C41780D020078054300A9491CB7
:101F5000200000F067FA002827D068464078022861
:101F600001D1204C16E06946200000F0D6F9002887
:101F70001BD06846007800280BD0042807D008281A
:101F800003D00C2811D1184C04E0184C02E0184C76
:101F900000E0184C28B201F0E7FA210001F0FDFA48
:101FA00001F054FB3060002000E0012002B070BD61
:101FB000010020410100C841010048420100C8421F
:101FC000010048430100C843010048440100C844DF
:101FD00001404E4523DBF93E23DB793E23DBF93D0F
:101FE00023DB793D00008C4000008C4200000C4255
:101FF00000008C4100000C4100B581B0012904D9DA
:10200000CA1E012A01D9D21E05D100F08FFA401E46
:102010008041C00F00E0012001B000BD00B581B0DB
:102020000A0001D0202905D100F0BEFA401E8041EF
:10203000C00F00E0012001B000BD00B581B000F08C
:1020400002FA401E8041C00F01B000BD00B581B052
:10205000012905D800F005FB401E8041C00F00E0BB
:10206000012001B000BD00B581B0012905D800F004
:1020700027FE401E8041C00F00E0012001B000BDDE
:1020800000B581B0032905D800F00AFB401E80414D
:10209000C00F00E0012001B000BD00B581B00129F2
:1020A00005D800F00DFE401E8041C00F00E0012069
:1020B00001B000BD00B581B00A0005D0042903D0ED
:1020C000082901D00C2905D100F009FB401E8041F0
:1020D000C00F00E0012001B000BDF8B40168421853
:1020E00043685908511800918168DB0701D54B46B8
:1020F000C918009B9A4202D10C30F2BC7047137889
:10210000521C032403261E4002D11678F61C521CD2
:102110001D090F2D07D115780F35521C03E01778D4
:10212000521C0F70491C761EF9D1002DE1D0167893
:10213000521C9B081C40032C01D11478521C230212
:10214000F3185C420B19AD1CD3D01C785B1C0C70CF
:10215000491C6D1ECDD0F8E700B581B001F03FFB02
:10216000401E8041C00F01B000BD00B581B001F03C
:1021700080FB401E8041C00F01B000BD00B581B0A2
:1021800001230A000F2101F074FB401E8041C00FA3
:1021900001B000BD30B581B005000C0001236A46D6
:1021A000122101F066FB002801D000200FE06846F4
:1021B0000078BF2101400C436846047001236A4641
:1021C0001221280001F00BFB401E8041C00F01B01E
:1021D00030BD30B581B005000C0001236A461021E6
:1021E00001F047FB002801D000200FE0684600788E
:1021F000F32101400C436846047001236A46102114
:10220000280001F0ECFA401E8041C00F01B030BD43
:1022100010B50C0001232200102101F02AFB002838
:1022200001D0002010BD20780C2101402170012038
:1022300010BDF0B581B007000E0000240325012376
:10224000E4B2321921002831C9B2380001F011FB83
:1022500000280BD1641C0123E4B23219210028317B
:10226000C9B2380001F005FB002801D0002003E0CE
:10227000641C6D1EE3D1012001B0F0BD30B581B00A
:1022800005000C0001236A46102101F0F2FA002833
:1022900001D000200FE0684600780007000F0443DB
:1022A0006846047001236A461021280001F097FA5D
:1022B000401E8041C00F01B030BD10B50C0001239D
:1022C0002200102101F0D5FA002801D0002010BD15
:1022D0002078F02101402170012010BD30B581B07F
:1022E00005000C0001236A46112101F0C2FA002802
:1022F00001D000200FE068460078F32101400C4334
:102300006846047001236A461121280001F067FA2B
:10231000401E8041C00F01B030BD10B50C0001233C
:102320002200112101F0A5FA002801D0002010BDE3
:1023300020780C2101402170012010BD30B581B002
:1023400005000C0001236A46112101F092FA0028D1
:1023500001D000200FE0684600780007000F04431A
:102360006846047001236A461121280001F037FAFB
:10237000401E8041C00F01B030BD10B50C000123DC
:102380002200112101F075FA002801D0002010BDB3
:102390002078F02101402170012010BDF0B581B0FE
:1023A00007000E00002403250123E4B232192100A6
:1023B0002231C9B2380001F05CFA00280BD1641C4C
:1023C0000123E4B2321921002231C9B2380001F0F0
:1023D00050FA002801D0002003E0641C6D1EE3D1F8
:1023E000012001B0F0BD30B581B005000C00012323
:1023F0006A46112101F03DFA002801D000200FE0CB
:1024000068460078FD2101400C43684604700123B2
:102410006A461121280001F0E2F9401E8041C00FF8
:1024200001B030BD10B50C0001232200112101F0D4
:1024300020FA002801D0002010BD20780221084099
:102440002070012010BD70B582B005000C0026057B
:1024500001236A46062101F00CFA002811D16846D2
:10246000047001236A460621280001F0B8F900280B
:1024700007D101236A460721280001F0FAF9002854
:1024800001D0002010E068460078F0210140300FB4
:1024900008436946087001236A460721280001F0B5
:1024A0009EF9401E8041C00F02B070BD30B581B0B2
:1024B00005000C0001236A46082101F0DAF9002822
:1024C00001D000200FE068460078F82101400C435D
:1024D0006846047001236A460821280001F07FF94C
:1024E000401E8041C00F01B030BD000030B581B04A
:1024F00005000C0001236A46082101F0BAF9002802
:1025000001D000200FE068460078C72101400C434D
:102510006846047001236A460821280001F05FF92B
:10252000401E8041C00F01B030BD000030B581B009
:1025300005000C0001236A460A2101F09AF90028DF
:1025400001D000200FE068460078F82101400C43DC
:102550006846047001236A460A21280001F03FF909
:10256000401E8041C00F01B030BD30B581B00500C4
:102570000C0001236A460A2101F07BF9002801D0F2
:1025800000200FE068460078872101400C43684630
:10259000047001236A460A21280001F020F9401E38
:1025A0008041C00F01B030BD30B581B005000C00D6
:1025B00001236A460D2101F05CF9002801D00020BA
:1025C0000FE068460078DF2101400C436846047044
:1025D00001236A460D21280001F001F9401E8041C7
:1025E000C00F01B030BD30B581B005000C00012333
:1025F0006A460D2101F03DF9002801D000200FE0CE
:10260000684600784006400E044368460470012383
:102610006A460D21280001F0E2F8401E8041C00FFB
:1026200001B030BD30B581B005000C0001236A4611
:10263000122101F01EF9002801D000200FE06846A9
:102640000078FB2101400C436846047001236A4670
:102650001221280001F0C3F8401E8041C00F01B0D4
:1026600030BD30B581B005000C0001236A4613214E
:1026700001F0FFF8002801D000200FE06846007844
:10268000FE2101400C436846047001236A46132171
:10269000280001F0A4F8401E8041C00F01B030BDF9
:1026A00030B581B005000C0001236A46142101F009
:1026B000E0F8002801D000200FE068460078FC21F7
:1026C00001400C436846047001236A461421280027
:1026D00001F085F8401E8041C00F01B030BD30B51B
:1026E00081B005000C0001236A46142101F0C1F8F5
:1026F000002801D000200FE068460078F321014057
:102700000C436846047001236A461421280001F036
:1027100066F8401E8041C00F01B030BD30B581B0B9
:1027200005000C0001236A46182101F0A2F80028D8
:1027300001D000200FE068460078F72101400C43EB
:102740006846047001236A461821280001F047F802
:10275000401E8041C00F01B030BD10B50C000123F8
:102760002200182101F085F8002801D0002010BDBA
:102770002078082108402070012010BD30B581B0BC
:1027800005000C0001236A46182101F072F80028A8
:1027900001D000200FE068460078EF2101400C4393
:1027A0006846047001236A461821280001F017F8D2
:1027B000401E8041C00F01B030BD10B50C00012398
:1027C0002200182101F055F8002801D0002010BD8A
:1027D0002078102108402070012010BD30B581B054
:1027E00005000C0001236A46182101F042F8002878
:1027F00001D000200FE068460078DF2101400C4343
:102800006846047001236A461821280000F0E7FF9B
:10281000401E8041C00F01B030BD10B50C00012337
:102820002200182101F025F8002801D0002010BD59
:102830002078202108402070012010BD30B581B0E3
:1028400005000C0001236A46192101F012F8002846
:1028500001D000200FE068460078FD2101400C43C4
:102860006846047001236A461921280000F0B7FF6A
:10287000401E8041C00F01B030BD30B581B00500B1
:102880000C0001236A46192100F0F3FF002801D053
:1028900000200FE068460078F72101400C436846AD
:1028A000047001236A461921280000F098FF401E99
:1028B0008041C00F01B030BD10B50C0001232200D3
:1028C000192100F0D6FF002801D0002010BD20788B
:1028D000082108402070012010BD30B581B00500EE
:1028E0000C0001236A46192100F0C3FF002801D023
:1028F00000200FE068460078EF2101400C43684655
:10290000047001236A461921280000F068FF401E68
:102910008041C00F01B030BD10B50C000123220072
:10292000192100F0A6FF002801D0002010BD20785A
:10293000102108402070012010BD30B581B0050085
:102940000C0001236A46192100F093FF002801D0F2
:1029500000200FE068460078DF2101400C43684604
:10296000047001236A461921280000F038FF401E38
:102970008041C00F01B030BD10B50C000123220012
:10298000192100F076FF002801D0002010BD20782A
:10299000202108402070012010BD30B581B0050015
:1029A0000C0001236A46192100F063FF002801D0C2
:1029B00000200FE068460078FB2101400C43684688
:1029C000047001236A461921280000F008FF401E08
:1029D0008041C00F01B030BD10B50C0001232200B2
:1029E0001B2100F046FF002801D0002010BD2078F8
:1029F000082108402070012010BD10B50C000123F3
:102A000022001B2100F035FF002801D0002010BD5E
:102A10002078202108402070012010BD10B50C0046
:102A2000012322001C2100F024FF002801D00020F7
:102A300010BD2078102108402070012010BD10B575
:102A40000C00012322001C2100F013FF002801D0FC
:102A5000002010BD2078202108402070012010BDEA
:102A600010B50C00012322001D2100F002FF0028F8
:102A700001D0002010BD2078C107C90F21700120AE
:102A800010BD10B50C00012322001D2100F0F1FE45
:102A9000002801D0002010BD2078022108402070BD
:102AA000012010BD10B50C00012322001D2100F0F3
:102AB000E0FE002801D0002010BD2078042108404D
:102AC0002070012010BD10B50C00012322001D2133
:102AD00000F0CFFE002801D0002010BD2078082192
:102AE00008402070012010BD10B50C000123220009
:102AF0001D2100F0BEFE002801D0002010BD20786E
:102B0000102108402070012010BD10B50C000123D9
:102B100022001D2100F0ADFE002801D0002010BDD4
:102B20002078202108402070012010BD10B50C0035
:102B3000012322001D2100F09CFE002801D000206E
:102B400010BD2078402108402070012010BD10B534
:102B50000C00012322001E2100F08BFE002801D072
:102B6000002010BD2078C107C90F2170012010BDC1
:102B700010B50C00012322001E2100F07AFE00286F
:102B800001D0002010BD20780221084020700120D3
:102B900010BD30B581B004000D0001236A463A2112
:102BA00000F067FE002808D1012300AA521C3B2137
:102BB000200000F05EFE002801D0002008E06846FA
:102BC00040780007000D69460978084328800120F5
:102BD00001B030BD10B50C00012322003B2100F0F4
:102BE00048FE002801D0002010BD207810210840A8
:102BF0002070012010BD10B50C00012322003B21E4
:102C000000F037FE002801D0002010BD20782021E0
:102C100008402070012010BD10B50C0001232200D7
:102C20003B2100F026FE002801D0002010BD2078B6
:102C3000402108402070012010BD30B581B0040053
:102C40000D0001236A463C2100F013FE002808D144
:102C5000012300AA521C3D21200000F00AFE00289A
:102C600001D0002008E0684640788007800D694662
:102C7000097808432880012001B030BD10B50C0050
:102C800001232200532100F0F4FD002801D0002090
:102C900010BD2078102108402070012010BD10B513
:102CA0000C0001232200532100F0E3FD002801D095
:102CB000002010BD2078202108402070012010BD88
:102CC00030B581B005000C0001236A46582100F0A0
:102CD000D0FD002801D000200FE068460078FE21DA
:102CE00001400C436846047001236A4658212800BD
:102CF00000F075FD401E8041C00F01B030BD30B501
:102D000081B005000C0001236A46582100F0B1FD96
:102D1000002801D000200FE068460078FD21014026
:102D20000C436846047001236A465821280000F0CD
:102D300056FD401E8041C00F01B030BD30B581B09E
:102D400005000C0001236A46582100F092FD00287E
:102D500001D000200FE068460078FB2101400C43C1
:102D60006846047001236A465821280000F037FDA8
:102D7000401E8041C00F01B030BD30B581B00500AC
:102D80000C0001236A46582100F073FD002801D091
:102D900000200FE068460078F72101400C436846A8
:102DA000047001236A465821280000F018FD401ED7
:102DB0008041C00F01B030BD30B581B005000C00BE
:102DC00001236A46582100F054FD002801D000205C
:102DD0000FE068460078DF2101400C43684604702C
:102DE00001236A465821280000F0F9FC401E80416A
:102DF000C00F01B030BD30B581B005000C0001231B
:102E00006A46582100F035FD002801D000200FE06F
:102E100068460078BF2101400C43684604700123D6
:102E20006A465821280000F0DAFC401E8041C00F9D
:102E300001B030BD30B581B005000C0001236A46F9
:102E4000592100F016FD002801D0002011E068464D
:102E50000078E0210140E006C00E08436946087092
:102E600001236A465921280000F0B9FC401E804128
:102E7000C00F01B030BD30B581B005000C0001239A
:102E80006A46592100F0F5FC002801D000200FE02F
:102E9000684600789F2101400C4368460470012376
:102EA0006A465921280000F09AFC401E8041C00F5C
:102EB00001B030BD30B581B005000C0001236A4679
:102EC0005A2100F0D6FC002801D0002011E068460D
:102ED0000078FC210140A007800F08436946087074
:102EE00001236A465A21280000F079FC401E8041E7
:102EF000C00F01B030BD30B581B005000C0001231A
:102F00006A465A2100F0B5FC002801D0002012E0EA
:102F100068460078F3210140A0000C2202400A43D9
:102F20006846027001236A465A21280000F057FCC7
:102F3000401E8041C00F01B030BD30B581B00500EA
:102F40000C0001236A465A2100F093FC002801D0AE
:102F5000002010E0684600780007000F21010143BF
:102F60006846017001236A465A21280000F037FCA8
:102F7000401E8041C00F01B030BD30B581B00500AA
:102F80000C0001236A465B2100F073FC002801D08D
:102F9000002011E068460078C0210140A006800EA4
:102FA00008436946087001236A465B21280000F047
:102FB00016FC401E8041C00F01B030BD30B581B05D
:102FC00005000C0001236A465B2100F052FC00283A
:102FD00001D000200FE0684600784006400E044310
:102FE0006846047001236A465B21280000F0F7FB65
:102FF000401E8041C00F01B030BD30B581B005002A
:103000000C0001236A465C2100F033FC002801D04B
:10301000002011E068460078F02101402007000FF1
:1030200008436946087001236A465C21280000F0C5
:10303000D6FB401E8041C00F01B030BD30B581B01D
:1030400005000C0001236A465C2100F012FC0028F8
:1030500001D000200FE068460078EF2101400C43CA
:103060006846047001236A465C21280000F0B7FB23
:10307000401E8041C00F01B030BD30B581B00500A9
:103080000C0001236A465C2100F0F3FB002801D00C
:10309000002012E0684600789F2101406001602214
:1030A00002400A436846027001236A465C212800F8
:1030B00000F095FB401E8041C00F01B030BD30B51F
:1030C00081B005000C0001236A465D2100F0D1FBB0
:1030D000002801D000200FE068460078F821014068
:1030E0000C436846047001236A465D21280000F005
:1030F00076FB401E8041C00F01B030BD70B582B07C
:1031000005000C00660901236A465D2100F0B1FB51
:10311000002817D1684600784007400FE1000143BE
:103120006846017001236A465D21280000F057FBC4
:10313000002807D101236A465C21280000F099FB92
:10314000002801D0002010E0684600784006400EBC
:10315000F10101436846017001236A465C212800A1
:1031600000F03DFB401E8041C00F02B070BD30B585
:1031700081B005000C0001236A465E2100F079FB56
:10318000002801D000200FE068460078FD210140B2
:103190000C436846047001236A465E21280000F053
:1031A0001EFB401E8041C00F01B030BD30B581B064
:1031B00005000C0001236A465E2100F05AFB00283E
:1031C00001D000200FE068460078FB2101400C434D
:1031D0006846047001236A465E21280000F0FFFA69
:1031E000401E8041C00F01B030BD30B581B0050038
:1031F0000C0001236A465E2100F03BFB002801D051
:1032000000200FE068460078F72101400C43684633
:10321000047001236A465E21280000F0E0FA401E97
:103220008041C00F01B030BD30B581B005000C0049
:1032300001236A465E2100F01CFB002801D000201B
:103240000FE068460078EF2101400C4368460470A7
:1032500001236A465E21280000F0C1FA401E804129
:10326000C00F01B030BD30B581B005000C000123A6
:103270006A465E2100F0FDFA002801D000200FE030
:1032800068460078DF2101400C4368460470012342
:103290006A465E21280000F0A2FA401E8041C00F5D
:1032A00001B030BD30B581B005000C0001236A4685
:1032B0005E2100F0DEFA002801D000200FE0684611
:1032C0000078BF2101400C436846047001236A4620
:1032D0005E21280000F083FA401E8041C00F01B03B
:1032E00030BD30B581B005000C0001236A465F2176
:1032F00000F0BFFA002801D000200FE068460078F7
:10330000FD2101400C436846047001236A465F2199
:10331000280000F064FA401E8041C00F01B030BDAB
:1033200030B581B005000C0001236A465F2100F032
:10333000A0FA002801D000200FE068460078FB21A9
:1033400001400C436846047001236A465F2128004F
:1033500000F045FA401E8041C00F01B030BD30B5CD
:1033600081B005000C0001236A465F2100F081FA5C
:10337000002801D000200FE068460078F7210140C6
:103380000C436846047001236A465F21280000F060
:1033900026FA401E8041C00F01B030BD30B581B06B
:1033A00005000C0001236A465F2100F062FA002844
:1033B00001D000200FE068460078EF2101400C4367
:1033C0006846047001236A465F21280000F007FA6E
:1033D000401E8041C00F01B030BD30B581B0050046
:1033E0000C0001236A465F2100F043FA002801D057
:1033F00000200FE068460078DF2101400C4368465A
:10340000047001236A465F21280000F0E8F9401E9D
:103410008041C00F01B030BD30B581B005000C0057
:1034200001236A465F2100F024FA002801D0002021
:103430000FE068460078BF2101400C4368460470E5
:1034400001236A465F21280000F0C9F9401E80412F
:10345000C00F01B030BD30B581B005000C000123B4
:1034600022003E2100F005FA002807D10123621C4A
:103470003F21280000F0FDF9002801D0002000E0E5
:10348000012001B030BD30B581B005000C00012332
:1034900022004B2100F0EDF9002807D10123621C26
:1034A0004C21280000F0E5F9002801D0002000E0C0
:1034B000012001B030BD30B581B005000C00012302
:1034C0006A46012100F0D5F900280BD16846007842
:1034D000802101436846017001236A4601212800CA
:1034E00000F07DF9012300AA521C0F21280000F0F2
:1034F000C0F968464078E0210140E006C00E08436C
:1035000069464870012300AA521C0F21280000F0D0
:1035100066F901236A460121280000F0AAF9002873
:103520000BD1684600784006400E694608700123BA
:103530006A460121280000F052F9012001B030BD97
:103540000CB4012212060318DA4207D84B18DA42EB
:1035500004D802000A43921802D288420CBC704779
:10356000FCD08142FAE7FEE79D21020008D5F4462F
:10357000524200F005F80122D207104360470000D4
:103580000AD002D4491E9218FCD5C905100A1206A9
:10359000524100D3012A4841704730B405004D40E4
:1035A0000122D20715404B180418240E2ED01B0EF2
:1035B00032D0FF2C34D0FF2B3AD0E418000209029D
:1035C00010431143000A090A9446C2B24A43000A52
:1035D000C3B24B43000A4843110A5B181A43D2B2E4
:1035E000190A091801D44918641E080A7F3C23DB14
:1035F000FE2C08DAE405090611436346994160414F
:10360000284330BC7047FF20C005F9E728001B0E97
:10361000FF2BF6D1D043F4E72800FF2CF1D1F9E7D6
:103620004002F7D1FF2B01D14902F3D1E005E7E7D2
:10363000D8054902E4D0EDE743020020641CDFD145
:103640005B129B1CDCD9D805DAE7FEE70122D20722
:103650000118090E7F3910D449421F310FD40018C8
:1036600005D2C0011043C84000D5D0437047C00107
:103670001043C84005D440427047002070470042C4
:10368000F3D510007047FEE7094205D0830705D047
:103690000270401C491EF9D170470000130030B47D
:1036A00014001500103902D310393CC0FCD2490770
:1036B00000D30CC000D504C0890002D30280801C56
:1036C000002900D5027030BC704700000022DBE703
:1036D00030B587B08C4C200000F002FE002835D1B8
:1036E0008A4860603320A0600120E0608848206044
:1036F000AC4D02206968014369606968014000912E
:103700000099C021890001911221029104900020AA
:1037100003900420059001A9A34800F02BFE80200F
:1037200080032969014329612968084328602868C2
:103730009E490140296000220021172000F010FF5F
:10374000172000F028FF200000F03CF9200000F0D6
:10375000C7FD202801D1002000E0012007B030BDC6
:1037600000207047F0B58BB00125914800682843D0
:103770008F49086008682840009000981020069043
:103780008C4F0797022409940026089606A9A020CA
:10379000C00500F0EFFD00220021072000F0E0FE50
:1037A000072000F0F8FE8248006820438049086046
:1037B00008682040009000980195029704940396B1
:1037C00001A9794800F0D6FD00220021052000F073
:1037D000C7FE052000F0DFFE00200BB0F0BDFAB5FB
:1037E00083B0070038783D3804D074380AD00B38DD
:1037F000012825D8022B23DB084680210143684697
:1038000001731DE00024002B18D016006A4D8020A3
:103810004001029001200190009601236846007B40
:103820000219D2B2B978280000F042F9002818D164
:10383000641C761C6846008A8442E8DB002016E09F
:103840005D4D8020400102906846008A0190009200
:1038500001236846027BB978280000F029F9002886
:1038600005D0280000F008F900F054F8012005B058
:10387000F0BDFAB583B0070038783D3804D074380D
:103880000AD00B38012825D8022B23DB08468021DB
:103890000143684601731DE00024002B18D0160078
:1038A000454D8020400102900120019000960123A7
:1038B0006846007B0219D2B2B978280000F01CFBE0
:1038C000002818D1641C761C6846008A8442E8DB14
:1038D000002016E0384D8020400102906846008AA2
:1038E0000190009201236846027BB978280000F01D
:1038F00003FB002805D0280000F0BEF800F00AF80D
:10390000012005B0F0BD0000701100202E11B100A3
:103910000054004030B587B0274C200000F0E0FC98
:10392000002835D1254860603320A0600120E06088
:10393000234820601B4D0220696801436960696863
:10394000014000910099C02189000191122102914A
:103950000490002003900420059001A9124800F073
:1039600009FD8020800329690143296129680843F2
:10397000286028680D490140296000220021172095
:1039800000F0EEFD172000F006FE200000F01AF80F
:10399000200000F0A5FC202801D1002000E001203B
:1039A00007B030BD2810024000040050FFFFDFFFC9
:1039B0002C10024000001110701100202E11B100D7
:1039C0000054004030B581B0040001D101204CE02A
:1039D000250040356878002803D12870200000F0C9
:1039E000C7FC2420687020680168012291430160AF
:1039F00060681F4901402068016121681D488A688C
:103A000002408A60E1680129A16801D1C24301E056
:103A1000842212020A4321688A60E168022903D1E4
:103A2000802109012268516021684A681F4B1343B5
:103A30004B602168CA681040C86020696169014311
:103A4000A069000208432168C860E069216A014357
:103A5000206801602068016801220A43026000209A
:103A60006860202169702063A87001B030BD00003B
:103A7000FFFFFFF0FF7FFFFF30B581B0040001D1F1
:103A8000012011E02500403524206870206801687D
:103A9000012291430160200000F0A4FD0020686035
:103AA00068702063A870287001B030BD00800002EB
:103AB000FEB582B0040040304078202800D011E2EA
:103AC0000A9E002E00D1CCE10B9D280000D1C8E158
:103AD0004020205C012800D104E2012040216054F4
:103AE00000F082FD009020688169090410D500F083
:103AF0007BFD0099401A1A28F5D32020210040317F
:103B000048700027210040318F7040202754E7E1A2
:103B10002121220040325170402122004032917018
:103B20000027210040314F60666265856763694602
:103B300009898905890D0191AD4E426832401143D2
:103B40006A46128A1206120A0A43AA4911434160C0
:103B50000C9D20688169890756D48069C0063ED5CE
:103B600020682026816931401ED10020C043854253
:103B7000F6D0002D05D000F037FD0099401A85429F
:103B8000EED2200040304670210040318F7040213D
:103B900067542000403040682000403040680428CE
:103BA000675400D09CE15CE11021C1612068C661CE
:103BB00020688169890700D5876220688169C90703
:103BC00003D4816901220A43826120684168B34AB3
:103BD0000A4042600420210040314860D1E70020C3
:103BE000C0438542B5D0002D05D000F0FDFC009902
:103BF000401A8542ADD22026200040304068304334
:103C0000210040314860BCE76946098A012951D04A
:103C100069468989090A816220688169890749D4CE
:103C20008069C00629D520682026816931400CD1E1
:103C30000020C0438542F6D0002D32D000F0D4FCE5
:103C40000099401A8542EED22BE01021C161206814
:103C5000C66120688169890700D58762206881690B
:103C6000C90703D4816901220A438261206841683F
:103C70008A4A0A404260042010E00020C043854286
:103C8000CAD0002D05D000F0AFFC0099401A854243
:103C9000C2D220262000403040683043210040310D
:103CA0004860200040304670210040318F70402134
:103CB00067546EE768468089C0B2216888622068D0
:103CC0008169090615D40020C0438542F7D0002D34
:103CD00005D000F089FC0099401A8542EFD22020DF
:103CE000210040314870210040318F7040216754DD
:103CF00052E7618DFF2907D9FF21218541683140B5
:103D0000019A0A4379490AE0628D2285436833406B
:103D1000019919431206120A0A43802189041143AA
:103D2000416020688169890729D4009A2900200010
:103D300000F0D9FA00281BD10020C0438542F0D002
:103D4000002D05D000F050FC0099401A8542E8D2C1
:103D50002026200040304068304321004031486038
:103D6000200040304670210040318F7040202754A1
:103D7000200040304068042800D0B1E071E0616A62
:103D80004A1C6262097881625948618D091861850F
:103D9000218D0818208500043BD1608D002838D083
:103DA00020688169090615D40020C0438542F7D0F8
:103DB000002D05D000F018FC0099401A8542EFD282
:103DC0002020210040314870210040318F70402078
:103DD000275485E0618DFF290ED9FF212185416897
:103DE000019A31401143414A0A43426011E000BF49
:103DF000009800FC00200001628D2285436833405A
:103E0000019919431206120A0A43802189041143B9
:103E10004160608D002884D120682026816931406E
:103E20004ED18069C0063BD52068816931401AD1E6
:103E30000020C0438542F7D0002D05D000F0D4FB10
:103E40000099401A8542EFD2200040304670210090
:103E500040318F70402027542000403040680428B3
:103E60003ED101203FE01021C1612068C661206879
:103E70008169890700D5876220688169C90703D4F1
:103E8000816901220A43826120684168034A0A402D
:103E900042600420210040314860D5E700E800FE80
:103EA000002D05D000F0A0FB0099401A8542B3D246
:103EB0002000403040683043210040314860C3E773
:103EC000C661206841680B4A0A40426020004030C9
:103ED0004670210040318F7040202754002002E0BE
:103EE000032000E0022005B0F0BD00000000FF014B
:103EF000FFFF000000E800FEFFB583B00746403733
:103F00007878202800D0DDE10C9E002E00D1A0E1C1
:103F10000D9D280000D19CE13878012800D1D1E125
:103F20000120387000F060FB009003980068816900
:103F300009040BD500F058FB0099401A1A28F4D355
:103F4000202078700024BC703C70B9E12221797087
:103F50004021B97000247C6003994E6203994D851D
:103F600003994C636946098A8905890D01919E4E22
:103F70004268324011436A46128B1206120A0A4303
:103F800080218901114341600E9D03980068816979
:103F900089074CD48069C00638D50398006820266C
:103FA0008169314015D10020C0438542F5D0002DF4
:103FB00005D000F019FB0099401A8542EDD27E70C1
:103FC000BC703C707868786804283C7000D077E159
:103FD0003FE11021C16103980068C6610398006841
:103FE0008169890700D58462039800688169C907DF
:103FF00003D4816901220A43826103980068416801
:10400000B24A0A40426004207860D8E70020C043EA
:104010008542BAD0002D05D000F0E6FA0099401A8A
:104020008542B2D22026786830437860C7E7694677
:10403000098B01294ED06946898A090A8162039851
:1040400000688169890745D48069C0062ED5039828
:1040500000682026816931400CD10020C043854290
:10406000F5D0002D32D000F0BFFA0099401A8542F9
:10407000EDD22BE01021C16103980068C66103985E
:1040800000688169890700D58462039800688169A6
:10409000C90703D4816901220A4382610398006839
:1040A00041688A4A0A40426004200EE00020C04372
:1040B0008542C4D0002D05D000F096FA0099401A30
:1040C0008542BCD220267868304378607E70BC7010
:1040D0003C7077E76846808AC0B2039909688862B5
:1040E000039800688169490610D40020C0438542C6
:1040F000F6D0002D05D000F077FA0099401A8542DD
:10410000EED220207870BC703C705CE70399498D3A
:10411000FF290AD9FF21039A118541683140019A8C
:104120000A436B49114341600DE00399498D039A9D
:10413000118543683340019A1A430906090A11435D
:10414000644A0A434260039800688169490710D4B1
:104150000020C0438542F6D0002D05D000F044FA7F
:104160000099401A8542EED220207870BC703C70D5
:10417000A6E00399496A4A1C039B5A62406A087088
:1041800055480399098D0918039A1185039A528D90
:104190001018039A5085090437D10398408D0028E0
:1041A00033D0039800688169090610D40020C04309
:1041B0008542F6D0002D05D000F016FA0099401A7D
:1041C0008542EED220207870BC703C7078E0039974
:1041D000498DFF290AD9FF21039A11854168019A67
:1041E000314011433D4A0EE0009800FC0399498D8F
:1041F000039A118543683340019A1A430906090A54
:104200001143802292040A4342600398408D0028A3
:1042100099D10398006820268169314044D1806992
:10422000C00635D5039800688169314013D100205C
:10423000C0438542F6D0002D05D000F0D5F9009995
:10424000401A8542EED27E70BC703C7078680428BB
:1042500036D1012037E01021C16103980068C661A2
:10426000039800688169890700D584620398006813
:104270008169C90703D4816901220A4382610398D5
:1042800000684168114A0A40426004207860DAE719
:10429000002D05D000F0A8F90099401A8542B8D247
:1042A000786830437860CEE7C6610398006841685B
:1042B000064A0A4042607E700020B8703C7002E0FE
:1042C000032000E0022007B0F0BD000000E800FE7F
:1042D0000024FF0100240002FFFF00000000FF0196
:1042E0004121405C7047F4B504000F0010252068A0
:1042F0008069284037D0206820268169314013D159
:104300000020C0438742F6D0002F05D000F06CF9A2
:104310000099401A8742EED22000403046700021BA
:104320008170017003201EE0C5612068C6612068AD
:104330008169890701D50021816220680121826994
:104340000A4002D182691143816120684168074AAD
:104350000A40426020004030042141604670002144
:1043600081700170012001B0F0BD000000E800FE86
:104370007047FEE7F0B483B0002203230C68002CE2
:1043800000D1C0E00124944002940C68029D2540B5
:104390000195019C002C00D1B0E04C68022C01D0AA
:1043A000122C13D1D408A4000419276A9600BC4625
:1043B0000F251C273740BD406746AF430D69AC460B
:1043C0001C2535406646AE403E4326624C68012CB3
:1043D00005D0022C03D0112C01D0122C17D18568E6
:1043E00054006E4634706C4626780324B440A543CE
:1043F000CC686E463678B4402C4384604468029D95
:10440000AC434D68EE06F60F9640264346600668BC
:1044100054006D462C706C4625780324AC40E5436F
:104420002E404C681C406F463F78BC4034430460CB
:10443000C46825408C686E463678B4402C43C4600E
:104440004C68E4005AD53E4C2468012525433C4C79
:1044500025603C4C9508AD006419029424689600D0
:104460000C2535400F26AE40B443A026F605B042D9
:1044700001D1002614E0344EB04201D101260FE0F4
:10448000324EB04201D102260AE0314EB04201D193
:10449000032605E02F4EB04201D1052600E0062696
:1044A000AE402643029C26602B4C2568019EF443B7
:1044B00025404E68F60302D52E00019D3543264E59
:1044C0003560756825404E68B60302D52E00019D03
:1044D0003543214E7560B56825404E68F60202D519
:1044E0002E00019D35431C4EB560F5682C404D688B
:1044F000AD0202D52500019C2C43F460521C0C68CF
:10450000D44000D03EE703B0F0BC704700690840DB
:10451000401E8041C043C00F7047002A01D0816116
:104520007047816270470D4A1368034000D170479D
:1045300000B581B0106000F07FFF01B000BD000049
:1045400034100240080001400004005000080050F0
:10455000000C0050001C00500004014014040140F5
:1045600010B4C20018231340FF249C40E243890783
:10457000090E9940002804D5154B0007000F083894
:1045800000E0144B80088000181803681A4011439B
:10459000016010BC70470121C006C00E81400E486A
:1045A00001607047401E80214904884201D30120E8
:1045B00070470A4948600A4802681202120AC0237A
:1045C0001B06134303600020886007220A607047BF
:1045D0001CED00E000E400E000E100E010E000E09D
:1045E00020ED00E07047FEE701480068704700BF1B
:1045F00054120020F0B581B000F072FF00F084FF8B
:10460000002000F0B7FF0121002000F0F7FF01F0CB
:1046100045F8AA4C21002831012001F08FF801282B
:1046200032D021002C31012001F090F901282BD04B
:10463000A06A01F027F9012804D0E06A01F028FA05
:10464000012843D1774B784A80214900200030303F
:1046500001F080FA2000303001F0A0FA984B82B2CD
:1046600021003031714801F0D6FAFA24A40000206C
:1046700000F0A6FF200001F03CFD002000F0AEFF9E
:10468000200001F036FDF2E7664B674A80214900C1
:104690002000303001F05EFA2000303001F07EFA68
:1046A000874B82B221003031604801F0B4FAFA241D
:1046B000A400002000F084FF200001F01AFD00207B
:1046C00000F08CFF200001F014FDF2E759A28021D8
:1046D00049002000303001F03DFA2000303001F078
:1046E0005DFA524F764E330082B2210030313800ED
:1046F00001F091FA4E4D01E0012020702078002851
:1047000002D001284CD06AE000F0C4F8012821D181
:104710005EA3454A802149002000303001F01AFA9A
:104720002000303001F03AFA330082B221003031FB
:10473000380001F070FAFA24A400002000F040FFD5
:10474000200001F0D6FC002000F048FF200001F01E
:10475000D0FCF2E700F070FB0128CDD14BA3324A28
:10476000802149002000303001F0F4F92000303081
:1047700001F014FA330082B221003031380001F028
:104780004AFAFA24A400002000F01AFF200001F0E9
:10479000B0FC002000F022FF200001F0AAFCF2E7AC
:1047A0002FA2802149002000303001F0D3F92000F1
:1047B000303001F0F3F9330082B22100303138009B
:1047C00001F029FA2868022188432860012100208D
:1047D00001F09CFC28680221014329608EE700BF9C
:1047E0002AA3114A802149002000303001F0B2F99B
:1047F0002000303001F0D2F9330082B22100303194
:10480000380001F008FAFA24A400002000F0D8FED5
:10481000200001F06EFC002000F0E0FE200001F01E
:1048200068FCF2E78C480008C4540008001000201F
:1048300010E000E00D0A2D2D2D2D2D2D204C534D77
:10484000364453332073656C662D7465737420444D
:10485000454D4F202D2D2D2D2D2D0D0A0000000032
:104860000D0A50726573732055534552206275745A
:10487000746F6E20746F2073746172742074686535
:104880002044454D4F202E2E2E0D0A006D61696E7D
:1048900000000000F0B591B0002069460870074C98
:1048A000914A802149002000303001F053F9200066
:1048B000303001F073F9024B04E000BF50020020D9
:1048C0008813000082B221003031884801F0A3F93A
:1048D000FA20800001F00DFC002000F071FE0DAD0B
:1048E000271D0A262A003978A06A00F0EDFF01286A
:1048F00000D1B3E07F1C6D1C761EF3D1270010376A
:10490000261D0A253A783178A06A00F0EDFF0128CB
:1049100000D1A3E0761C7F1C6D1EF3D1C82001F0EE
:10492000E8FB00A9491CA06A00F0ECFF012800D1B7
:1049300094E0684640780028F3D009A9A06A00F006
:10494000B1FF012800D189E0002006900590049075
:104950000526052500A9491CA06A00F0D3FF0128FF
:104960007CD0684640780028F4D009A9A06A00F0FD
:1049700099FF012872D00698099940180690059869
:104980000A994018059004980B99401804906D1EE0
:10499000E0D10698052101F0E9FB06900598052174
:1049A00001F0E4FB05900498052101F0DFFB049081
:1049B0000121A06A00F0B6FF01284FD0C82001F005
:1049C00098FB00A9491CA06A00F09CFF012845D073
:1049D000684640780028F4D009A9A06A00F062FF78
:1049E00001283BD0002003900290019000A9491CAF
:1049F000A06A00F087FF012830D068464078002880
:104A0000F4D009A9A06A00F04DFF012826D0039830
:104A100009994018039002980A9940180290019849
:104A20000B9940180190761EE0D10398052101F002
:104A30009DFB03900298052101F098FB02900198DC
:104A4000052101F093FB01900DAD271D0A262A7860
:104A50003978A06A00F048FF012801D1012057E110
:104A60007F1C6D1C761EF2D103980699401AFEF742
:104A70007BFD0700A74D0126780040082900FEF7BE
:104A80005FFD03D3A44901F0CBFB01D869460E704A
:104A900002980599401AFEF767FD0890400040080B
:104AA0002900FEF74DFD06D30898400040089A49BA
:104AB00001F0B6FB01D869460E7001980499401ABE
:104AC000FEF752FD0790400040082900FEF738FD30
:104AD0000ED30798400040088F4901F0A1FB07D989
:104AE000684600780C9004E0CC8A00080010002092
:104AF0000C968A4A31022000303001F02BF8200059
:104B0000303001F04BF8864B82B2210030318548BD
:104B100001F081F8844A31022000303001F01AF8A7
:104B20002000303001F03AF87D4B82B22100303164
:104B30007C4801F070F87D4D2A00310220003030B1
:104B400001F008F82000303001F028F8744B82B2F0
:104B500021003031734801F05EF803980090069B05
:104B600075A231022000303000F0F4FF2000303018
:104B700001F014F86A4B82B221003031694801F02B
:104B80004AF802980090059B74A231022000303050
:104B900000F0E0FF2000303001F000F8604B82B2FE
:104BA000210030315F4801F036F801980090049BF5
:104BB00073A231022000303000F0CCFF20003030F2
:104BC00000F0ECFF564B82B221003031554801F025
:104BD00022F800BF73A231022000303000F0BAFF8B
:104BE0002000303000F0DAFF4D4B82B2210030312E
:104BF0004C4801F010F84E4A31022000303000F0ED
:104C0000A9FF2000303000F0C9FF454B82B22100DF
:104C10003031444800F0FFFF2A00310220003030DC
:104C200000F098FF2000303000F0B8FF3C4B82B21B
:104C3000210030313B4800F0EEFF00BF61A63D4D42
:104C4000019578004008FEF701FD00905A233200DC
:104C5000802149002000303000F07CFF20003030FF
:104C600000F09CFF2E4B82B2210030312D4800F025
:104C7000D2FF0195089840004008FEF7E7FC00903D
:104C80005A233200802149002000303000F062FFBA
:104C90002000303000F082FF214B82B22100303101
:104CA000204800F0B8FF0195079840004008FEF743
:104CB000CDFC00905A233200802149002000303082
:104CC00000F048FF2000303000F068FF144B82B243
:104CD00021003031134800F09EFF0C98002801D1CC
:104CE0003FA200E049A2802149002000303000F0BE
:104CF00031FF2000303000F051FF094B82B221001B
:104D00003031084800F087FF002000F067FC0020E9
:104D100011B0F0BD0000B4420180D444188B0008EB
:104D20008813000000100020388B0008DC520008B7
:104D30009C530008A406000020202020202020589A
:104D40002020202020207C2025386C64202020205A
:104D5000207C2025386C640D0A00000020202020D3
:104D6000202020592020202020207C2025386C6401
:104D700020202020207C2025386C640D0A000000B3
:104D8000202020202020205A2020202020207C208D
:104D900025386C6420202020207C2025386C640D70
:104DA0000A0000000D0A54657374206C696D697403
:104DB0007320616E642064617461205B6D675D3A8D
:104DC0000D0A00002538642020202020207C20258A
:104DD000386420202020207C202538640D0A000023
:104DE0000D0A4C534D3644533320616363656C6543
:104DF000726F6D657465722073656C662D74657372
:104E00007420504153534544210D0A000D0A4C5360
:104E10004D3644533320616363656C65726F6D6515
:104E20007465722073656C662D74657374204641D9
:104E3000494C4544210D0A00F0B591B00020694667
:104E40000870914C914A802149002000303000F0D8
:104E500081FE2000303000F0A1FEB14B82B2210073
:104E600030318B4800F0D7FEFA20800001F041F984
:104E7000002000F0A5FB0EAD271D0A262A00397878
:104E8000E06A00F027FE012800D1B4E07F1C6D1C11
:104E9000761EF3D127001C37261D0A253A78317873
:104EA000E06A00F027FE012800D1A4E0761C7F1CF8
:104EB0006D1EF3D1C820800001F01BF900A9491C28
:104EC000E06A00F025FE012800D194E068464078B1
:104ED0000028F3D00AA9E06A00F0EAFD012800D119
:104EE00089E000200690059004900526052500A97C
:104EF000491CE06A00F00CFE01287CD0684640782E
:104F00000028F4D00AA9E06A00F0D2FD012872D08E
:104F100006980A994018069005980B994018059034
:104F200004980C99401804906D1EE0D10698052154
:104F300001F01CF906900598052101F017F905907C
:104F40000498052101F012F904900421E06A00F0B0
:104F5000EFFD01284FD03C2001F0CBF800A9491CFF
:104F6000E06A00F0D5FD012845D068464078002869
:104F7000F4D00AA9E06A00F09BFD01283BD0002094
:104F800003900290019000A9491CE06A00F0C0FD66
:104F9000012830D0684640780028F4D00AA9E06A99
:104FA00000F086FD012826D003980A994018039046
:104FB00002980B994018029001980C9940180190A2
:104FC000761EE0D10398052101F0D0F803900298F5
:104FD000052101F0CBF802900198052101F0C6F8F7
:104FE00001900EAD271D0A262A783978E06A00F074
:104FF00081FD012801D1012064E17F1C6D1C761E1A
:10500000F2D103980699401AFEF7AEFA0990AE4D18
:105010000126400040082900FEF792FA06D30998BD
:1050200040004008A94901F0FBF801D869460E701C
:1050300002980599401AFEF797FA08904000400838
:105040002900FEF77DFA06D30898400040089F49E2
:1050500001F0E6F801D869460E7001980499401AEB
:10506000FEF782FA0790400040082900FEF768FA30
:1050700010D3079840004008944901F0D1F809D9AD
:10508000684600780D9006E050020020688B00080A
:10509000001000200D968E4A31022000303000F0C2
:1050A00059FD2000303000F079FD1D4B82B2210007
:1050B0003031884800F0AFFD874A3102200030309F
:1050C00000F048FD2000303000F068FD144B82B243
:1050D000210030317F4800F09EFD00BF7FA52A00EF
:1050E00031022000303000F035FD2000303000F07B
:1050F00055FD0B4B82B221003031764800F08BFD1C
:1051000003980090069B00BF80A23102200030303F
:1051100000F020FD2000303000F040FD004B01E0A9
:105120008813000082B2210030316A4800F073FD1C
:1051300002980090059B00BF7DA231022000303014
:1051400000F008FD2000303000F028FDD24B82B284
:10515000210030315F4800F05EFD01980090049B13
:105160007CA231022000303000F0F4FC200030300E
:1051700000F014FDC84B82B221003031554800F0D8
:105180004AFD00BF7CA231022000303000F0E2FC7A
:105190002000303000F002FDBF4B82B221003031E0
:1051A0004C4800F038FD00BF7CA2310220003030B6
:1051B00000F0D0FC2000303000F0F0FCB64B82B2A2
:1051C00021003031434800F026FD2A003102200042
:1051D000303000F0BFFC2000303000F0DFFCAE4B80
:1051E00082B2210030313B4800F015FD77A7AB4E6D
:1051F000AB4D0195099840004008FEF727FA009052
:1052000033003A00802149002000303000F0A2FC39
:105210002000303000F0C2FC9F4B82B221003031C0
:105220002C4800F0F8FC0195089840004008FEF773
:105230000DFA009033003A00802149002000303000
:1052400000F088FC2000303000F0A8FC924B82B2C5
:10525000210030311F4800F0DEFC01950798400026
:105260004008FEF7F3F9009033003A00802149002E
:105270002000303000F06EFC2000303000F08EFC5A
:10528000854B82B221003031124800F0C4FC0D98E9
:10529000002801D154A200E05DA280214900200035
:1052A000303000F057FC2000303000F077FC7A4BB3
:1052B00082B221003031074800F0ADFC002000F040
:1052C0008DF9002011B0F0BD007C124801E62A499A
:1052D000B08B000800100020388B00082D2D2D2DDC
:1052E0002D2D2D2D2D2D2D2D2D2D7C2D2D2D2D2D9F
:1052F0002D2D2D2D2D2D2D2D2D7C2D2D2D2D2D2D8F
:105300002D2D2D2D2D2D2D2D0D0A0000202020209E
:10531000202020582020202020207C202025386C90
:1053200064202020207C202025386C640D0A000099
:1053300020202020202020592020202020207C20D8
:105340002025386C64202020207C202025386C64A7
:105350000D0A0000202020202020205A202020207C
:1053600020207C202025386C64202020207C2020D8
:1053700025386C640D0A00000D0A54657374206CA6
:10538000696D69747320616E642064617461205B6F
:105390006D6470735D3A0D0A000000000D0A202054
:1053A0004C4F57204C494D49542020207C2020440C
:1053B0004946464552454E434520207C20204849D9
:1053C0004748204C494D49540D0A000020202538FB
:1053D00064202020207C2020253864202020207C70
:1053E00020202538640D0A000D0A4C534D364453D5
:1053F00033206779726F73636F70652073656C66B5
:105400002D7465737420504153534544210D0A0097
:105410000D0A4C534D36445333206779726F7363D2
:105420006F70652073656C662D74657374204641DA
:10543000494C4544210D0A0010B58021890188425C
:1054400007D1002000F014F9002801D11549087097
:1054500010BD144C15A300BF1AA24909200030301A
:1054600000F078FB2000303000F098FB0A4B82B24D
:10547000210030310C4800F0CEFBFA24A4000020BB
:1054800000F09EF8200000F034FE002000F0A6F8A6
:10549000200000F02EFEF2E788130000F049020021
:1054A00060AE0A00500200200010002048414C5F0E
:1054B0004750494F5F455854495F43616C6C626186
:1054C000636B00000D0A4572726F7220696E2027AF
:1054D0002573272066756E6374696F6E2E0D0A0042
:1054E00000B581B00648016802220A430260032029
:1054F00000F0AAFE00F006F8002001B000BD000098
:10550000002002407047FEE770B594B0164C60680A
:10551000802149050143616014480168144A0A402A
:10552000C10C11430160022005900125089510214E
:1055300009910F90002610964004119000011290DE
:1055400005A800F095FE0F20009003200190029620
:10555000039604960121684601F00EF92068054380
:10556000256014B070BD00BF3410024000700040D0
:10557000FFE7FFFF30B587B00121020007D1434AA2
:1055800013680B43136012680A400092009A00BF30
:1055900019A24300D55A01950291002103910321DC
:1055A00004913B4980000C1801A92068FEF7E2FE37
:1055B000002229002068FEF7B0FF07B030BD0000D0
:1055C00000B581B0012200BF0BA14300C95A304B86
:1055D00080001858FEF7A1FF01B000BD00B581B0F2
:1055E000002200BF04A14300C95A294B800018586B
:1055F000FEF793FF01B000BD2000000030B587B07A
:105600000C00010008D10421204A13680B431360E9
:105610001268114000910099050000BF1AA06900AE
:10562000405A01900020039001210491210006D1ED
:10563000029001A91848AA008058FEF79BFE012C91
:1056400012D11448029001A91348AA008058FEF70D
:1056500091FE00BF05A0445D00220F2160B2FEF75D
:105660007FFF60B2FEF797FF07B030BD0700000074
:1056700000B581B004A14200895A074A8000105841
:10568000FEF744FF01B000BD002000002C100240D6
:1056900080030020000021108403002070B586B034
:1056A0000121234802680A43026002680A4000920E
:1056B000009A02680A430260026811400091009952
:1056C000C168802292020A43C2600424019402202D
:1056D00002900025039504900594A026F60501A9E3
:1056E0003000FEF747FE08200190059401A9300024
:1056F000FEF740FE0F4C10482060E1204002606041
:10570000A560E5602561A5610C206061200000F0C6
:105710004DFA002800D0FEE72000703060652000C0
:105720005830802149000180456106B070BD0000FD
:105730002C100240001000200044004010B50C0066
:105740000021216000280DD0012811D0200000F098
:1057500050F8012804D1200000F011F801280CD0E5
:10576000002010BD200000F00AF80128F8D104E064
:10577000200000F03EF80128F2D1012010BD70B5E4
:10578000050000243A4E7079012831D0FDF7A0FFC2
:1057900001282DD0682030707470D620B070B4808D
:1057A000B4710120F07130002830B0603148F060F1
:1057B00034613148F06330003830B062F4622E60FA
:1057C000F0680168080005D100200021002207C60A
:1057D00003C607E030008847012806D11421286855
:1057E000FDF774FF2C60012070BDFDF7B9FF0020AC
:1057F00070BD70B5050000241D4E707E012836D0A6
:10580000FDF766FF012832D0692030757475D42009
:10581000B075012030767476B476F0763000303092
:10582000F0611648306216487062300040303063D4
:105830007463300014302860306A0168080007D1B2
:10584000300014300021002200230EC006C008E002
:10585000300014308847012806D114212868FDF74C
:1058600035FF2C60012070BDFDF77CFF002070BD6E
:10587000BC1100200000002044120020B0010020D4
:10588000A000002000B581B0002803D0C16889685D
:105890000A0001D1012003E08847012800D0002040
:1058A00001B000BD00B581B0002805D0C268002954
:1058B00002D09269130001D1012003E09047012832
:1058C00000D0002001B000BD10B5002805D0C3688D
:1058D000002A02D05B6C1C0001D1012010BD98474A
:1058E000012800D0002010BD10B5002803D0C368E7
:1058F0009B6C1C0001D1012010BD9847012800D0ED
:10590000002010BD00B581B0002803D0C268D26C61
:10591000130001D1012003E09047012800D00020AE
:1059200001B000BD00B581B000280BD00269002A8B
:1059300008D00378692B05D1D023D258130001D0A9
:10594000904700E0012001B000BDFEE710B50C005B
:105950000021216000280DD0012811D0200000F086
:105960004EF8012804D1200000F011F801280CD0D5
:10597000002010BD200000F00AF80128F8D104E052
:10598000200000F03CF80128F2D1012010BD70B5D4
:1059900005000024394E707901282FD0FDF798FEBC
:1059A00001282BD0682030707470D620B070B4807D
:1059B000B4710120F07130002830B0603048F060E0
:1059C00034613048F06330003830B062F4622E60E9
:1059D000F0680168080005D100200021002207C6F8
:1059E00003C607E030008847012806D11421286843
:1059F000FDF76CFE2C60012070BD002070BD70B5FD
:105A0000050000241D4E707E012836D0FDF760FE93
:105A1000012832D0692030757475D420B07501200A
:105A200030767476B476F07630003030F061164817
:105A3000306216487062300040303063746330006A
:105A400014302860306A0168080007D13000143033
:105A50000021002200230EC006C008E030001430F0
:105A60008847012806D114212868FDF72FFE2C60F5
:105A7000012070BDFDF776FE002070BD00120020F1
:105A80005000002044120020000200207401002079
:105A900000B581B0002803D0C16889680A0001D12F
:105AA000012003E08847012800D0002001B000BD9C
:105AB00000B581B0002805D0C268002902D09269E3
:105AC000130001D1012003E09047012800D00020FD
:105AD00001B000BD10B5002805D0C368002A02D06F
