:020000040800F2
:10000000B80B002019D0000859CF00085BCF0008BA
:1000100000000000000000000000000000000000E0
:10002000000000000000000000000000673500082C
:1000300000000000000000004F3600085DCF0008FF
:100040008B360008BB4300082B4600086B4D0008A8
:10005000DF6B0008D77200084F7A000869CF0008EC
:10006000338700088F88000823890008D7AD00086F
:1000700013B30008A3BE0008000000006BC3000813
:100080000000000027CC0008000000000000000075
:100090006FCD000800000000DFCE0008CBCF0008C5
:1000A000DBCF000807D0000845D0000847D0000883
:1000B00049D000084BD000084DD000084FD00008B0
:1000C00010B582B00400002069460870200002F0DC
:1000D00055F8002838D0684600782178884233D116
:1000E0000421200002F09EFA00282DD0402120009B
:1000F00002F050F8002827D00021200002F016FA64
:10010000002821D01448A168096808600021200057
:1001100002F0B4F8002817D00021200002F059F8AE
:10012000002811D00821200002F0F8FA00280BD096
:100130001021200002F022FB002805D02021200001
:1001400002F04CFB002801D1012002E00120607187
:10015000002002B010BD00000000D04270B582B097
:100160000400A068066800256846057069462000FE
:1001700002F004F8002800D1BAE06846007821783F
:10018000884200D0B4E00021200003F04DF80028A0
:1001900000D1ADE00021200003F000F9002800D1DB
:1001A000A6E00021200002F0A9FF002800D19FE076
:1001B0000021200002F083FF002800D198E00021F8
:1001C000200002F0F3FF002800D191E00021200080
:1001D00003F0A6F8002800D18AE00021200002F0F8
:1001E0004AFE002800D183E00021200002F0FBF944
:1001F00000287DD00021200002F0FDFD002877D0EE
:100200000021200002F0C9FB002871D0002120004D
:1002100003F051F900286BD00021200003F042F8D0
:10022000002865D00021200003F0F6F800285FD0F8
:100230000021200002F0FEFD002859D000212000FE
:1002400002F038FE002853D00021200002F053FEB7
:1002500000284DD00021200002F051FD002847D099
:100260000021200002F06AFD002841D0002120007A
:1002700002F083FD00283BD00021200002F0B5FFF2
:10028000002835D00021200003F069F800282FD085
:100290000021200002F0CEFD002829D000212000FE
:1002A00002F008FE002823D00021200002F023FEE7
:1002B00000281DD00021200002F03FFE002817D0AA
:1002C0000021200002F07AFE002811D00021200039
:1002D00002F015FD00280BD00021200002F02EFDB9
:1002E000002805D00021200002F047FD002801D1A0
:1002F000012043E00021200002F039FF0028F7D060
:100300000021200002F0EDFF0028F1D000212000A4
:1003100002F052FD0028EBD00021200002F03DFB4E
:100320000028E5D00021200002F09DFF0028DFD04A
:100330000021200003F051F80028D9D0002120002E
:1003400002F09BFE0028D3D00021200002F015FE11
:100350000028CDD0A07900280DD0A0680168200029
:1003600000F06CF90128C3D00021200001F086FFC5
:100370000028BDD0A57100203060657102B070BD4D
:1003800010B50400A079012842D0A0680068006878
:100390007F4903F0D5F801D2102130E07D4903F008
:1003A000CFF801D220212AE07B4903F0C9F801D21D
:1003B000302124E09B4903F0C3F801D240211EE024
:1003C000994903F0BDF801D2502118E0974903F094
:1003D000B7F801D2602112E0954903F0B1F801D2DB
:1003E00070210CE0934903F0ABF801D2802106E0C4
:1003F000914903F0A5F801D2902100E0A02120004E
:1004000001F03CFF002801D1012010BD0120A071A6
:10041000002010BD30B581B00400A079002840D084
:10042000A06805686946200001F047FF002834D025
:1004300068460078002826D0102823D020281FD016
:1004400030281BD0402817D0502813D060280FD058
:1004500070280BD0802807D0902803D0A0281AD16C
:10046000954810E095480EE095480CE095480AE064
:10047000954808E0954806E0954804E0954802E074
:10048000954800E0954828600021200001F0F6FE24
:10049000002804D101E092482860012001E00020FA
:1004A000A07101B030BD00B581B001F067FE401E03
:1004B0008041C00F01B000BD30B581B004000025FF
:1004C000684605706946200001F058FE002804D0F7
:1004D000684600782178884200D00125280001B0C4
:1004E00030BDF0B583B005000C0001A8002100224A
:1004F00006C001A9280001F09CFE002844D001A8F4
:100500004178090202788E18C17809028278891828
:100510006A4651804179090200790F18694628001E
:1005200001F076FE00282FD06846007800280CD015
:10053000042804D0082806D00C2802D024E0824DDC
:1005400004E0824D02E0824D00E0824D30B203F0C3
:100550000BF8290003F023F803F07AF820600098E4
:10056000001403F001F8290003F019F803F070F803
:10057000606038B202F0F8FF290003F010F803F0D1
:1005800067F8A060002000E0012003B0F0BD00008B
:10059000010050410100D0410100504210B582B02D
:1005A0000C006946002200230CC1694601F041FE9F
:1005B000002801D1012010E0684641780902027844
:1005C00089182180C178090282788918618041796F
:1005D000090200790818A080002002B010BD10B5F3
:1005E00082B00C00694601F013FE002801D1012001
:1005F0000DE068460078002806D004280DD00828B1
:1006000007D00C2807D00AE052482060002002B032
:1006100010BD4F48F9E74D48F7E74B48F5E730483C
:100620002060E4E70100D042010050430100D043C4
:10063000014050440180CF440120504510B582B0A4
:100640000C00694601F039FE002801D101201AE0B2
:1006500068460078002814D0102816D0202816D01C
:10066000302816D0402816D0502816D0602816D032
:10067000702816D0802816D0902816D0A02816D022
:1006800017E02060002002B010BD1448F9E71248BE
:10069000F7E71048F5E70E48F3E70C48F1E70A489A
:1006A000EFE70848EDE70648EBE70448E9E70248CA
:1006B000E7E70B482060C9E70020D04500205045FF
:1006C0000080CF44004050440000D043000050431D
:1006D0000000D042000050420000D04100005041D4
:1006E000000080BF00B581B08279012A15D10029B0
:1006F0000CD0022908D009D3042901D002D30AE082
:10070000402104E0302102E0202100E0102101F02E
:10071000B5FD002814D1012013E08068006800298D
:100720000CD0022908D009D3042901D002D3F2E762
:100730006E4904E06E4902E06E4900E06E490160D6
:10074000002001B000BD000023DBF93E23DB793E31
:1007500023DBF93D23DB793D00B581B002000800C1
:1007600066499379012B3CD102F0EAFE01D21021B7
:1007700030E0634902F0E4FE01D220212AE0614921
:1007800002F0DEFE01D2302124E05F4902F0D8FE03
:1007900001D240211EE05D4902F0D2FE01D250217B
:1007A00018E05B4902F0CCFE01D2602112E0594909
:1007B00002F0C6FE01D270210CE0574902F0C0FEE3
:1007C00001D2802106E0554902F0BAFE01D2902103
:1007D00000E0A021100001F051FD00282AD10120E5
:1007E00029E09268126802F0ABFE1FD3444902F080
:1007F000A7FE1BD3434902F0A3FE17D3424902F0E0
:100800009FFE13D3414902F09BFE0FD3404902F0F3
:1008100097FE0BD33F4902F093FE07D33E4902F007
:100820008FFE03D33D4902F08BFE01D2481E00E04B
:10083000A5481060002001B000BD10B582B00C00CA
:10084000694601F0E5FC002801D101200EE0684670
:100850000078002806D004280ED0082808D00C28DC
:1008600008D00BE08020C0052060002002B010BD41
:100870008120F8E78220F6E78320F4E793482060A0
:10088000E3E700B581B0002904D0022909D004298A
:1008900009D00AE001F09DFC401E8041C00F01B06C
:1008A00000BD0821F6E70C21F4E70120F7E700B5C9
:1008B00081B002000800AF4902F042FE01D20021DF
:1008C0000CE0AD4902F03CFE01D2082106E0AB4944
:1008D00002F036FE01D20C2100E00421100001F0EC
:1008E00078FC401E8041C00F01B000BD0000D04226
:1008F000000050420000D041000050410100504132
:100900000100D041010050420100D042010050439B
:100910000100D043014050440180CF4401205045A4
:1009200030B581B005000C0000A9891C01F015FF4D
:1009300000280CD000A9491C280001F03EFF002827
:1009400005D06946280001F068FF002801D1012088
:1009500018E068468078082801D1012000E00020D6
:10096000207068464078102801D1012000E0002066
:10097000607068460078202801D1012000E0002046
:10098000A070002001B030BD30B581B004000D0072
:100990002878012801D1082100E00021200001F081
:1009A000BDFE00280AD06878012801D1102100E09E
:1009B0000021200001F0E2FE002801D101200BE01F
:1009C000A878012801D1202100E00021200001F0B9
:1009D00005FF401E8041C00F01B030BD00B581B0A1
:1009E000012301F0C2FB401E8041C00F01B000BDD9
:1009F00000B581B06B461A7001236A4601F0ACFB6A
:100A0000401E8041C00F01B000BD10B582B00C0087
:100A1000694602F09CF8002809D068460078002852
:100A200001D0012803D12070002002B010BD0120A8
:100A3000FBE710B582B00400002069460870200072
:100A400001F09CFB002838D0684600782178884265
:100A500033D10421200001F0E5FD00282DD04021F4
:100A6000200001F097FB002827D00021200001F092
:100A70005DFD002821D08248A16809680860002136
:100A8000200001F05BFC002817D00C21200001F0B1
:100A900025FC002811D00821200001F0EEFE0028DE
:100AA0000BD01021200001F018FF002805D02021D4
:100AB000200001F042FF002801D1012002E00120C6
:100AC0006071002002B010BD0020D045000080BF42
:100AD000F0B581B00400A06807680026684606707B
:100AE0006946200001F04AFB002841D068460078A2
:100AF000217888423CD1A079002832D0A0680568CE
:100B00006946200001F039FC002831D068460078A1
:100B100000281ED010281BD0202817D0302813D032
:100B200040280FD050280BD0602807D0702803D061
:100B300080281BD193480CE093480AE0934808E0D2
:100B4000934806E04E4804E0924802E0924800E0F4
:100B5000924828600021200001F0F0FB002807D017
:100B6000A67100203860667101B0F0BD8C48286025
:100B70000120F9E701000040010080400100004130
:100B800010B50400A079012836D0A068006800687C
:100B9000844902F0D5FC01D2102124E0824902F000
:100BA000CFFC01D220211EE0804902F0C9FC01D215
:100BB000302118E07E4902F0C3FC01D2402112E04E
:100BC000A54902F0BDFC01D250210CE0A34902F07E
:100BD000B7FC01D2602106E0A14902F0B1FC01D2CC
:100BE000702100E08021200001F0A8FB002801D145
:100BF000012010BD0120A071002010BD30B581B0D2
:100C00000400A079002838D0A06805686946200053
:100C100001F0B3FB00282CD06846007800281ED0D5
:100C200010281BD0202817D0302813D040280FD0F0
:100C300050280BD0602807D0702803D0802816D108
:100C400050480CE050480AE0504808E0504806E0A0
:100C50000B4804E04F4802E04F4800E04F4828604E
:100C60000021200001F06AFB002804D101E04C487B
:100C70002860012001E00020A07101B030BD00001B
:100C80000000D04200B581B001F078FA401E8041EA
:100C9000C00F01B000BD30B581B00400002568462A
:100CA00005706946200001F069FA002804D0684602
:100CB00000782178884200D00125280001B030BD9D
:100CC000F0B583B005000C0001A80021002206C089
:100CD00001A9280001F062FB002850D001A841784A
:100CE000090202788E18C1780902827889186A464A
:100CF00051804179090200790F1800A9491C280088
:100D000001F090FB00283AD068464078022801D1D3
:100D1000884D16E06946280001F0FFFA00282ED021
:100D20006846007800280BD0042807D0082803D094
:100D30000C2824D1804D04E0804D02E0804D00E07D
:100D4000804D30B202F010FC290002F028FC02F0C5
:100D50007FFC20600098001402F006FC290002F0DD
:100D60001EFC02F075FC606038B202F0FDFB290049
:100D700002F015FC02F06CFCA060002000E00120F5
:100D800003B0F0BD0080CF44004050440000D04389
:100D900000005043000050420000D041000050418C
:100DA000000080BF010050410100D04101005042CD
:100DB0000100D04210B582B00C0069460022002329
:100DC0000CC1694601F0EAFA002801D1012010E0C7
:100DD000684641780902027889182180C1780902A1
:100DE0008278891861804179090200790818A08009
:100DF000002002B010BD30B581B004000D0000A984
:100E0000491C01F00FFB00280ED0684640780228EC
:100E100004D148482860002001B030BD6946200058
:100E200001F07BFA002801D10120F5E7684600783F
:100E3000002806D0042806D0082806D00C2806D0A2
:100E400007E04048E6E73E48E4E73C48E2E73A4846
:100E5000E0E784482860E7E7010050430100D04301
:100E60000140504410B582B00C00694601F085FA8B
:100E7000002801D1012016E068460078002810D033
:100E8000102812D0202812D0302812D0402812D09A
:100E9000502812D0602812D0702812D0802812D08A
:100EA00013E02060002002B010BD6F48F9E76F48E2
:100EB000F7E76F48F5E76F48F3E76F48F1E76F48EA
:100EC000EFE76F48EDE76F48EBE766482060D1E752
:100ED00000B581B08279012A15D100290CD00229F0
:100EE00008D009D3042901D002D30AE0402104E04C
:100EF000302102E0202100E0102101F01FFA00283B
:100F000014D1012013E08068006800290CD0022968
:100F100008D009D3042901D002D3F2E7554904E0EF
:100F2000534902E0514900E04F490160002001B0FF
:100F300000BD000000008C4000008C4200000C420C
:100F400000008C4100000C4100B581B00200080097
:100F500071499379012B30D102F0F2FA01D21021BC
:100F600024E06E4902F0ECFA01D220211EE06C4927
:100F700002F0E6FA01D2302118E06A4902F0E0FA04
:100F800001D2402112E0684902F0DAFA01D2502180
:100F90000CE0664902F0D4FA01D2602106E064490F
:100FA00002F0CEFA01D2702100E08021100001F0A1
:100FB000C5F9002822D1012021E09268126802F0D0
:100FC000BFFA17D3554902F0BBFA13D3544902F0C4
:100FD000B7FA0FD3534902F0B3FA0BD3524902F0D8
:100FE000AFFA07D3514902F0ABFA03D3504902F0EC
:100FF000A7FA01D2481E00E022481060002001B08C
:1010000000BD30B581B005000C00694601F00AFA58
:10101000002806D000A9491C280001F07EF900280C
:1010200001D1012006E068460078022804D1414839
:101030002060002001B030BD68464078002806D00E
:10104000042806D0082806D00C2806D007E0A148BE
:10105000EEE7A148ECE7A148EAE7A148E8E7014844
:101060002060DEE7000080BF000050410000D0415A
:10107000000050420000D042000050430000D04326
:10108000004050440080CF4400B581B0002904D016
:10109000022909D0042909D00AE001F01FF9401EF5
:1010A0008041C00F01B000BD0421F6E70C21F4E738
:1010B0000120F7E730B581B004000800894902F04B
:1010C0003FFA08D20221200001F08DF9002821D03A
:1010D000002001B030BDAA4902F032FA01D2002549
:1010E0000CE0A84902F02CFA01D2042506E0A6493A
:1010F00002F026FA01D2082500E00C25002120008C
:1011000001F071F9002805D02900200001F0E6F86F
:101110000028DDD10120DCE7010050410100D04171
:10112000010050420100D042010050430100D04371
:10113000014050440000FA4230B581B005000C0077
:1011400000A9891C01F0B8FB00280CD000A9491C9B
:10115000280001F0E1FB002805D06946280001F0D5
:101160000BFC002801D1012018E06846807808288F
:1011700001D1012000E0002020706846407810284E
:1011800001D1012000E0002060706846007820282E
:1011900001D1012000E00020A070002001B030BD8E
:1011A00030B581B004000D002878012801D1082154
:1011B00000E00021200001F060FB00280AD06878E0
:1011C000012801D1102100E00021200001F085FB61
:1011D000002801D101200BE0A878012801D12021AD
:1011E00000E00021200001F0A8FB401E8041C00F5C
:1011F00001B030BD00B581B0012300F0B6FF401E44
:101200008041C00F01B000BD00B581B06B461A70BF
:1012100001236A4600F0A0FF401E8041C00F01B0CC
:1012200000BD10B582B00C00694601F0A1FC002899
:101230000AD068460078002802D0022804D1012094
:101240002070002002B010BD0120FBE700B581B086
:1012500002000800834902F073F901D2102130E046
:10126000814902F06DF901D220212AE07F4902F084
:1012700067F901D2302124E07D4902F061F901D201
:1012800040211EE07B4902F05BF901D2502118E0B9
:10129000794902F055F901D2602112E0774902F054
:1012A0004FF901D270210CE0BE4902F049F901D298
:1012B000802106E0BC4902F043F901D2902100E010
:1012C000A021100000F0DAFF401E8041C00F01B0E5
:1012D00000BD0000000075430000FA4300007A449E
:1012E0000000FA440100FA4230B581B004000D005C
:1012F000AE49A079012805D12000FFF7A7FF0128FA
:1013000003D13AE0A068006801600021200000F0ED
:1013100060FF002831D00621200001F0EFFE0028F8
:101320002BD00021200001F0A8FE002825D00021AC
:10133000200001F083FE00281FD00021200001F0D2
:101340005CFE002819D00321200001F0B8FE00281F
:1013500013D0002D02D0012D09D00EE01021200065
:1013600001F062FF002808D0002001B030BD10213C
:10137000200002F013F80028F6D10120F5E7000064
:10138000010075430100FA4301007A4410B50400DE
:10139000002101F049FF00280BD00021200001F0BE
:1013A000FDFF002805D00021200001F0A7FE002845
:1013B00001D1012010BD0021200001F080FE401E5F
:1013C0008041C00F10BD10B582B00C00694601F01D
:1013D00014FB00280AD068460078002802D0202894
:1013E00004D101202070002002B010BD0120FBE7D5
:1013F00000B581B001F063FE401E8041C00F01B016
:1014000000BD10B50400A049A079012805D1200035
:10141000FFF71CFF012803D110BDA0680068016020
:101420000021200000F0D5FE002811D01721200057
:1014300002F041F800280BD00421200001F0ADFAA1
:10144000002805D04021200001F0D5FC002801D162
:10145000012010BD8021200001F0C5F8401E804110
:10146000C00F10BD010050410100D04101005042A9
:101470000100D042010050430100D04301405044DC
:1014800010B50400002101F0AEF800280BD00021B7
:10149000200001F0B0FC002805D00021200001F060
:1014A0007CFA002801D1012010BD0021200002F0AB
:1014B00002F8401E8041C00F10BD10B582B00C0074
:1014C000694601F0DBFB00280AD068460078002856
:1014D00002D0102804D101202070002002B010BDDD
:1014E0000120FBE700B581B001F0CDFF401E804137
:1014F000C00F01B000BD00B581B0022101F09EF91E
:10150000401E8041C00F01B000BD00B581B0002178
:1015100001F094F9401E8041C00F01B000BD00B53C
:1015200081B001F0C8FF401E8041C00F01B000BD76
:1015300030B581B004000D005349A079012805D1D0
:101540002000FFF783FE012803D128E0A06800688F
:1015500001600021200000F03CFE00281FD0042183
:10156000200001F01AFA002819D02021200001F0F3
:1015700023FC002813D0002D02D0012D09D00EE04D
:101580000221200001F0F3FD002808D0002001B066
:1015900030BD0221200001F0A4FE0028F6D1012078
:1015A000F5E700000180CF44012050450000D04302
:1015B00010B50400002101F0DAFD00280BD0002155
:1015C000200001F08EFE002805D00021200001F04F
:1015D000F3FB002801D1012010BD0021200001F003
:1015E000DCF9401E8041C00F10BD10B582B00C0068
:1015F000694601F054FB00280AD0684600780028AC
:1016000002D0202804D101202070002002B010BD9B
:101610000120FBE730B581B004000D00B549A07989
:10162000012805D12000FFF711FE012803D128E091
:10163000A068006801600021200000F0CAFD0028B9
:101640001FD00021200001F018FD002819D0022130
:10165000200001F092FC002813D0002D02D0012DB3
:1016600009D00EE02021200001F0FDFD002808D067
:10167000002001B030BD2021200001F0AEFE002886
:10168000F6D10120F5E700000000D04110B50400BC
:10169000002101F0E8FD00280BD00021200001F01E
:1016A0009CFE002805D00021200001F0E6FC002867
:1016B00001D1012010BD0021200001F05EFC401E80
:1016C0008041C00F10BD10B582B00C00694601F01A
:1016D00083F900280AD068460078002802D008283C
:1016E00004D101202070002002B010BD0120FBE7D2
:1016F00000B581B001F041FC401E8041C00F01B037
:1017000000BD30B581B004000D007A49A0790128F0
:1017100005D12000FFF79AFD012803D140E0A06821
:10172000006801600021200000F053FD002837D040
:101730000821200001F021FB002831D004212000E5
:1017400001F0FCFA00282BD00221200001F0D7FA8A
:10175000002825D00821200001F06CFB00281FD0B4
:101760000221200001F0A6FB002819D00121200051
:1017700001F0C1FB002813D0002D02D0012D09D0AB
:101780000EE04021200001F08DFD002808D000204F
:1017900001B030BD4021200001F03EFE0028F6D10E
:1017A0000120F5E710B50400002101F07BFD0028C1
:1017B00023D00021200001F02FFE00281DD00021A1
:1017C000200001F037FB002817D00021200001F095
:1017D00071FB002811D00021200001F08CFB0028B3
:1017E0000BD00021200001F08AFA002805D000214A
:1017F000200001F0A3FA002801D1012010BD002132
:10180000200001F0BAFA401E8041C00F10BD10B593
:1018100082B00C00694601F012F900280AD068462F
:101820000078002802D0202804D101202070002058
:1018300002B010BD0120FBE730B581B004000D00FF
:101840002C49A079012805D12000FFF7FFFC0128D1
:1018500003D14CE0A068006801600021200000F086
:10186000B8FC002843D00821200001F086FA0028A7
:101870003DD00421200001F061FA002837D0022178
:10188000200001F03CFA002831D00821200001F0AE
:10189000D1FA00282BD00321200001F00BFB0028F7
:1018A00025D00321200001F026FB00281FD00821AD
:1018B000200001F042FB002819D08021200001F017
:1018C0007DFB002813D0002D02D0012D09D00EE0A1
:1018D0000821200001F089FC002808D0002001B078
:1018E00030BD0821200001F03AFD0028F6D101208A
:1018F000F5E700000000D04310B50400002101F01E
:1019000074FC00282FD00021200001F028FD0028C1
:1019100029D00021200001F08DFA002823D00021D9
:10192000200001F0C7FA00281DD00021200001F09E
:10193000E2FA002817D00021200001F0FEFA00286A
:1019400011D00021200001F039FB00280BD000212C
:10195000200001F0D4F9002805D00021200001F07A
:10196000EDF9002801D1012010BD0021200001F077
:1019700004FA401E8041C00F10BD10B582B00C00AB
:10198000694601F04BF800280AD068460078002824
:1019900002D0102804D101202070002002B010BD18
:1019A0000120FBE700B581B001F044FA401E804100
:1019B000C00F01B000BD00B581B001F07BFA401E40
:1019C0008041C00F01B000BD00B581B001F093FAB5
:1019D000401E8041C00F01B000BD00B581B001F0D4
:1019E000ACFA401E8041C00F01B000BD30B581B0DF
:1019F00004000D001749A079012805D12000FFF748
:101A000025FC012803D122E0A068006801600021C4
:101A1000200000F0DEFB002819D04021200001F05A
:101A20002AFA002813D0002D02D0012D09D00EE093
:101A30000421200001F0BAFB002808D0002001B0EA
:101A400030BD0421200001F06BFC0028F6D10120FC
:101A5000F5E700000000D04310B50400002101F0BC
:101A6000A5FB002805D00021200001F059FC00282A
:101A700001D1012010BD0021200001F0FCF9401E21
:101A80008041C00F10BD10B582B00C00694601F056
:101A90004DF800280AD068460078002802D0402877
:101AA00004D101202070002002B010BD0120FBE70E
:101AB00010B582B00C00694600F0D2FF002809D0B2
:101AC00068460078002801D0012803D1207000204A
:101AD00002B010BD0120FBE710B582B00C006946D2
:101AE00000F0CFFF00280AD068460078002802D016
:101AF000022804D101202070002002B010BD012076
:101B0000FBE710B582B00C00694600F0CBFF00285F
:101B10000AD068460078002802D0042804D10120A9
:101B20002070002002B010BD0120FBE710B582B08C
:101B30000C00694600F0C7FF00280AD0684600780C
:101B4000002802D0082804D101202070002002B013
:101B500010BD0120FBE710B582B00C00694600F013
:101B6000C3FF00280AD068460078002802D0102859
:101B700004D101202070002002B010BD0120FBE73D
:101B800010B582B00C00694600F0BFFF00280AD0F3
:101B900068460078002802D0202804D10120207057
:101BA000002002B010BD0120FBE730B583B0050076
:101BB0000C0000206A469080907110600421200083
:101BC00001F086FD012301AA1B21280000F0CDFAB7
:101BD000002800D1A7E0012300AAD21C1C21280064
:101BE00000F0C3FA002800D19DE0012301AA921C55
:101BF0001D21280000F0B9FA002800D193E001234C
:101C000000AA921C5321280000F0AFFA002800D14E
:101C100089E0012300AA521C5E21280000F0A5FAE9
:101C2000002800D17FE001236A465F21280000F0F0
:101C30009CFA002877D0012301AA521C0D2128000C
:101C400000F093FA00286ED068464078C00603D4AE
:101C500068460078C00607D568460079800603D537
:101C6000206801210143216068464078800603D442
:101C700068460078800607D568460079000703D5D6
:101C8000206808210143216068464078400603D45B
:101C900068460078400607D56846C078800603D5B8
:101CA000206802210143216068464078000703D480
:101CB00068460078000707D56846C078C00603D597
:101CC000206804210143216068464078400703D41E
:101CD00068460078400707D568468079400603D5F6
:101CE000206840210143216068464079000607D5FD
:101CF00068468078C00603D5206810210143216022
:101D000068464078800703D468460078800707D586
:101D100068468078800603D5206820210143216031
:101D2000002003B030BD0120FBE700B581B0020008
:101D300008009F4901F004FC01D2082130E09D49D0
:101D400001F0FEFB01D210212AE09B4901F0F8FBD3
:101D500001D2182124E0994901F0F2FB01D220219F
:101D60001EE0974901F0ECFB01D2282118E09549CB
:101D700001F0E6FB01D2302112E0934901F0E0FBD3
:101D800001D238210CE0914901F0DAFB01D2402167
:101D900006E08F4901F0D4FB01D2482100E0502138
:101DA000100000F0E2FB401E8041C00F01B000BDFA
:101DB00010B582B00C00694600F01DFF00280CD061
:101DC00068460078002802D0202804D005E0207062
:101DD000002002B010BD0120F9E70120F9E710B59D
:101DE00082B00C00694600F0F5FE00280CD0684671
:101DF0000078002802D0102804D005E020700020D0
:101E000002B010BD0120F9E70120F9E710B582B05A
:101E10000C00694600F000FF00280CD068460078EE
:101E2000002802D0402804D005E02070002002B035
:101E300010BD0120F9E70120F9E700B581B000F0FD
:101E4000FCFE401E8041C00F01B000BD00B581B056
:101E500001F001FB401E8041C00F01B000BD00B584
:101E600081B000F096FE401E8041C00F01B000BD61
:101E700000B581B0072905D800F018FB401E80414D
:101E8000C00F00E0012001B000BD00B581B00A0024
:101E90000DD008290BD0102909D0182907D02029E6
:101EA00005D0282903D0302901D0382905D100F0E8
:101EB0001DFB401E8041C00F00E0012001B000BDAD
:101EC00070B582B004000E0000A9891C01F0C3FAAD
:101ED000002828D000A8801C41780D020078054316
:101EE0006946200000F094F900281CD0684600786C
:101EF00000280CD0042804D0082806D00C2802D0D2
:101F000011E0344C04E0344C02E0344C00E0344C3A
:101F100028B201F029FB210001F041FB01F098FB00
:101F20003060002000E0012002B070BD70B582B0CA
:101F300004000E0000A9891C01F08DFA002834D09D
:101F400000A8801C41780D020078054300A9491CB7
:101F5000200000F067FA002827D068464078022861
:101F600001D1204C16E06946200000F0D6F9002887
:101F70001BD06846007800280BD0042807D008281A
:101F800003D00C2811D1184C04E0184C02E0184C76
:101F900000E0184C28B201F0E7FA210001F0FFFA46
:101FA00001F056FB3060002000E0012002B070BD5F
:101FB000010020410100C841010048420100C8421F
:101FC000010048430100C843010048440100C844DF
:101FD00001404E4523DBF93E23DB793E23DBF93D0F
:101FE00023DB793D00008C4000008C4200000C4255
:101FF00000008C4100000C4100B581B0012904D9DA
:10200000CA1E012A01D9D21E05D100F08FFA401E46
:102010008041C00F00E0012001B000BD00B581B0DB
:102020000A0001D0202905D100F0BEFA401E8041EF
:10203000C00F00E0012001B000BD00B581B000F08C
:1020400002FA401E8041C00F01B000BD00B581B052
:10205000012905D800F005FB401E8041C00F00E0BB
:10206000012001B000BD00B581B0012905D800F004
:1020700027FE401E8041C00F00E0012001B000BDDE
:1020800000B581B0032905D800F00AFB401E80414D
:10209000C00F00E0012001B000BD00B581B00129F2
:1020A00005D800F00DFE401E8041C00F00E0012069
:1020B00001B000BD00B581B00A0005D0042903D0ED
:1020C000082901D00C2905D100F009FB401E8041F0
:1020D000C00F00E0012001B000BDF8B40168421853
:1020E00043685908511800918168DB0701D54B46B8
:1020F000C918009B9A4202D10C30F2BC7047137889
:10210000521C032403261E4002D11678F61C521CD2
:102110001D090F2D07D115780F35521C03E01778D4
:10212000521C0F70491C761EF9D1002DE1D0167893
:10213000521C9B081C40032C01D11478521C230212
:10214000F3185C420B19AD1CD3D01C785B1C0C70CF
:10215000491C6D1ECDD0F8E700B581B001F064FBDD
:10216000401E8041C00F01B000BD00B581B001F03C
:10217000A5FB401E8041C00F01B000BD00B581B07D
:1021800001230A000F2101F099FB401E8041C00F7E
:1021900001B000BD30B581B005000C0001236A46D6
:1021A000122101F08BFB002801D000200FE06846CF
:1021B0000078BF2101400C436846047001236A4641
:1021C0001221280001F030FB401E8041C00F01B0F9
:1021D00030BD30B581B005000C0001236A461021E6
:1021E00001F06CFB002801D000200FE06846007869
:1021F000F32101400C436846047001236A46102114
:10220000280001F011FB401E8041C00F01B030BD1D
:1022100010B50C0001232200102101F04FFB002813
:1022200001D0002010BD20780C2101402170012038
:1022300010BDF0B581B007000E0000240325012376
:10224000E4B2321921002831C9B2380001F036FB5E
:1022500000280BD1641C0123E4B23219210028317B
:10226000C9B2380001F02AFB002801D0002003E0A9
:10227000641C6D1EE3D1012001B0F0BD30B581B00A
:1022800005000C0001236A46102101F017FB00280D
:1022900001D000200FE0684600780007000F0443DB
:1022A0006846047001236A461021280001F0BCFA38
:1022B000401E8041C00F01B030BD10B50C0001239D
:1022C0002200102101F0FAFA002801D0002010BDF0
:1022D0002078F02101402170012010BD30B581B07F
:1022E00005000C0001236A46112101F0E7FA0028DD
:1022F00001D000200FE068460078F32101400C4334
:102300006846047001236A461121280001F08CFA06
:10231000401E8041C00F01B030BD10B50C0001233C
:102320002200112101F0CAFA002801D0002010BDBE
:1023300020780C2101402170012010BD30B581B002
:1023400005000C0001236A46112101F0B7FA0028AC
:1023500001D000200FE0684600780007000F04431A
:102360006846047001236A461121280001F05CFAD6
:10237000401E8041C00F01B030BD10B50C000123DC
:102380002200112101F09AFA002801D0002010BD8E
:102390002078F02101402170012010BDF0B581B0FE
:1023A00007000E00002403250123E4B232192100A6
:1023B0002231C9B2380001F081FA00280BD1641C27
:1023C0000123E4B2321921002231C9B2380001F0F0
:1023D00075FA002801D0002003E0641C6D1EE3D1D3
:1023E000012001B0F0BD30B581B005000C00012323
:1023F0006A46112101F062FA002801D000200FE0A6
:1024000068460078FD2101400C43684604700123B2
:102410006A461121280001F007FA401E8041C00FD2
:1024200001B030BD10B50C0001232200112101F0D4
:1024300045FA002801D0002010BD20780221084074
:102440002070012010BD70B582B005000C0026057B
:1024500001236A46062101F031FA002811D16846AD
:10246000047001236A460621280001F0DDF90028E6
:1024700007D101236A460721280001F01FFA00282E
:1024800001D0002010E068460078F0210140300FB4
:1024900008436946087001236A460721280001F0B5
:1024A000C3F9401E8041C00F02B070BD30B581B08D
:1024B00005000C0001236A46082101F0FFF90028FD
:1024C00001D000200FE068460078F82101400C435D
:1024D0006846047001236A460821280001F0A4F927
:1024E000401E8041C00F01B030BD000030B581B04A
:1024F00005000C0001236A46082101F0DFF90028DD
:1025000001D000200FE068460078C72101400C434D
:102510006846047001236A460821280001F084F906
:10252000401E8041C00F01B030BD000030B581B009
:1025300005000C0001236A460A2101F0BFF90028BA
:1025400001D000200FE068460078F82101400C43DC
:102550006846047001236A460A21280001F064F9E4
:10256000401E8041C00F01B030BD30B581B00500C4
:102570000C0001236A460A2101F0A0F9002801D0CD
:1025800000200FE068460078872101400C43684630
:10259000047001236A460A21280001F045F9401E13
:1025A0008041C00F01B030BD30B581B005000C00D6
:1025B00001236A460D2101F081F9002801D0002095
:1025C0000FE068460078DF2101400C436846047044
:1025D00001236A460D21280001F026F9401E8041A2
:1025E000C00F01B030BD30B581B005000C00012333
:1025F0006A460D2101F062F9002801D000200FE0A9
:10260000684600784006400E044368460470012383
:102610006A460D21280001F007F9401E8041C00FD5
:1026200001B030BD30B581B005000C0001236A4611
:10263000122101F043F9002801D000200FE0684684
:102640000078FB2101400C436846047001236A4670
:102650001221280001F0E8F8401E8041C00F01B0AF
:1026600030BD30B581B005000C0001236A4613214E
:1026700001F024F9002801D000200FE0684600781E
:10268000FE2101400C436846047001236A46132171
:10269000280001F0C9F8401E8041C00F01B030BDD4
:1026A00030B581B005000C0001236A46142101F009
:1026B00005F9002801D000200FE068460078FC21D1
:1026C00001400C436846047001236A461421280027
:1026D00001F0AAF8401E8041C00F01B030BD30B5F6
:1026E00081B005000C0001236A46142101F0E6F8D0
:1026F000002801D000200FE068460078F321014057
:102700000C436846047001236A461421280001F036
:102710008BF8401E8041C00F01B030BD30B581B094
:1027200005000C0001236A46182101F0C7F80028B3
:1027300001D000200FE068460078F72101400C43EB
:102740006846047001236A461821280001F06CF8DD
:10275000401E8041C00F01B030BD10B50C000123F8
:102760002200182101F0AAF8002801D0002010BD95
:102770002078082108402070012010BD30B581B0BC
:1027800005000C0001236A46182101F097F8002883
:1027900001D000200FE068460078EF2101400C4393
:1027A0006846047001236A461821280001F03CF8AD
:1027B000401E8041C00F01B030BD10B50C00012398
:1027C0002200182101F07AF8002801D0002010BD65
:1027D0002078102108402070012010BD30B581B054
:1027E00005000C0001236A46182101F067F8002853
:1027F00001D000200FE068460078DF2101400C4343
:102800006846047001236A461821280001F00CF87C
:10281000401E8041C00F01B030BD10B50C00012337
:102820002200182101F04AF8002801D0002010BD34
:102830002078202108402070012010BD30B581B0E3
:1028400005000C0001236A46192101F037F8002821
:1028500001D000200FE068460078FD2101400C43C4
:102860006846047001236A461921280000F0DCFF45
:10287000401E8041C00F01B030BD30B581B00500B1
:102880000C0001236A46192101F018F8002801D034
:1028900000200FE068460078F72101400C436846AD
:1028A000047001236A461921280000F0BDFF401E74
:1028B0008041C00F01B030BD10B50C0001232200D3
:1028C000192100F0FBFF002801D0002010BD207866
:1028D000082108402070012010BD30B581B00500EE
:1028E0000C0001236A46192100F0E8FF002801D0FE
:1028F00000200FE068460078EF2101400C43684655
:10290000047001236A461921280000F08DFF401E43
:102910008041C00F01B030BD10B50C000123220072
:10292000192100F0CBFF002801D0002010BD207835
:10293000102108402070012010BD30B581B0050085
:102940000C0001236A46192100F0B8FF002801D0CD
:1029500000200FE068460078DF2101400C43684604
:10296000047001236A461921280000F05DFF401E13
:102970008041C00F01B030BD10B50C000123220012
:10298000192100F09BFF002801D0002010BD207805
:10299000202108402070012010BD30B581B0050015
:1029A0000C0001236A46192100F088FF002801D09D
:1029B00000200FE068460078FB2101400C43684688
:1029C000047001236A461921280000F02DFF401EE3
:1029D0008041C00F01B030BD10B50C0001232200B2
:1029E0001B2100F06BFF002801D0002010BD2078D3
:1029F000082108402070012010BD10B50C000123F3
:102A000022001B2100F05AFF002801D0002010BD39
:102A10002078202108402070012010BD10B50C0046
:102A2000012322001C2100F049FF002801D00020D2
:102A300010BD2078102108402070012010BD10B575
:102A40000C00012322001C2100F038FF002801D0D7
:102A5000002010BD2078202108402070012010BDEA
:102A600010B50C00012322001D2100F027FF0028D3
:102A700001D0002010BD2078C107C90F21700120AE
:102A800010BD10B50C00012322001D2100F016FF1F
:102A9000002801D0002010BD2078022108402070BD
:102AA000012010BD10B50C00012322001D2100F0F3
:102AB00005FF002801D0002010BD20780421084027
:102AC0002070012010BD10B50C00012322001D2133
:102AD00000F0F4FE002801D0002010BD207808216D
:102AE00008402070012010BD10B50C000123220009
:102AF0001D2100F0E3FE002801D0002010BD207849
:102B0000102108402070012010BD10B50C000123D9
:102B100022001D2100F0D2FE002801D0002010BDAF
:102B20002078202108402070012010BD10B50C0035
:102B3000012322001D2100F0C1FE002801D0002049
:102B400010BD2078402108402070012010BD10B534
:102B50000C00012322001E2100F0B0FE002801D04D
:102B6000002010BD2078C107C90F2170012010BDC1
:102B700010B50C00012322001E2100F09FFE00284A
:102B800001D0002010BD20780221084020700120D3
:102B900010BD30B581B004000D0001236A463A2112
:102BA00000F08CFE002808D1012300AA521C3B2112
:102BB000200000F083FE002801D0002008E06846D5
:102BC00040780007000D69460978084328800120F5
:102BD00001B030BD10B50C00012322003B2100F0F4
:102BE0006DFE002801D0002010BD20781021084083
:102BF0002070012010BD10B50C00012322003B21E4
:102C000000F05CFE002801D0002010BD20782021BB
:102C100008402070012010BD10B50C0001232200D7
:102C20003B2100F04BFE002801D0002010BD207891
:102C3000402108402070012010BD30B581B0040053
:102C40000D0001236A463C2100F038FE002808D11F
:102C5000012300AA521C3D21200000F02FFE002875
:102C600001D0002008E0684640788007800D694662
:102C7000097808432880012001B030BD10B50C0050
:102C800001232200532100F019FE002801D000206A
:102C900010BD2078102108402070012010BD10B513
:102CA0000C0001232200532100F008FE002801D06F
:102CB000002010BD2078202108402070012010BD88
:102CC00030B581B005000C0001236A46582100F0A0
:102CD000F5FD002801D000200FE068460078FE21B5
:102CE00001400C436846047001236A4658212800BD
:102CF00000F09AFD401E8041C00F01B030BD30B5DC
:102D000081B005000C0001236A46582100F0D6FD71
:102D1000002801D000200FE068460078FD21014026
:102D20000C436846047001236A465821280000F0CD
:102D30007BFD401E8041C00F01B030BD30B581B079
:102D400005000C0001236A46582100F0B7FD002859
:102D500001D000200FE068460078FB2101400C43C1
:102D60006846047001236A465821280000F05CFD83
:102D7000401E8041C00F01B030BD30B581B00500AC
:102D80000C0001236A46582100F098FD002801D06C
:102D900000200FE068460078F72101400C436846A8
:102DA000047001236A465821280000F03DFD401EB2
:102DB0008041C00F01B030BD30B581B005000C00BE
:102DC00001236A46582100F079FD002801D0002037
:102DD0000FE068460078DF2101400C43684604702C
:102DE00001236A465821280000F01EFD401E804144
:102DF000C00F01B030BD30B581B005000C0001231B
:102E00006A46582100F05AFD002801D000200FE04A
:102E100068460078BF2101400C43684604700123D6
:102E20006A465821280000F0FFFC401E8041C00F78
:102E300001B030BD30B581B005000C0001236A46F9
:102E4000592100F03BFD002801D0002011E0684628
:102E50000078E0210140E006C00E08436946087092
:102E600001236A465921280000F0DEFC401E804103
:102E7000C00F01B030BD30B581B005000C0001239A
:102E80006A46592100F01AFD002801D000200FE009
:102E9000684600789F2101400C4368460470012376
:102EA0006A465921280000F0BFFC401E8041C00F37
:102EB00001B030BD30B581B005000C0001236A4679
:102EC0005A2100F0FBFC002801D0002011E06846E8
:102ED0000078FC210140A007800F08436946087074
:102EE00001236A465A21280000F09EFC401E8041C2
:102EF000C00F01B030BD30B581B005000C0001231A
:102F00006A465A2100F0DAFC002801D0002012E0C5
:102F100068460078F3210140A0000C2202400A43D9
:102F20006846027001236A465A21280000F07CFCA2
:102F3000401E8041C00F01B030BD30B581B00500EA
:102F40000C0001236A465A2100F0B8FC002801D089
:102F5000002010E0684600780007000F21010143BF
:102F60006846017001236A465A21280000F05CFC83
:102F7000401E8041C00F01B030BD30B581B00500AA
:102F80000C0001236A465B2100F098FC002801D068
:102F9000002011E068460078C0210140A006800EA4
:102FA00008436946087001236A465B21280000F047
:102FB0003BFC401E8041C00F01B030BD30B581B038
:102FC00005000C0001236A465B2100F077FC002815
:102FD00001D000200FE0684600784006400E044310
:102FE0006846047001236A465B21280000F01CFC3F
:102FF000401E8041C00F01B030BD30B581B005002A
:103000000C0001236A465C2100F058FC002801D026
:10301000002011E068460078F02101402007000FF1
:1030200008436946087001236A465C21280000F0C5
:10303000FBFB401E8041C00F01B030BD30B581B0F8
:1030400005000C0001236A465C2100F037FC0028D3
:1030500001D000200FE068460078EF2101400C43CA
:103060006846047001236A465C21280000F0DCFBFE
:10307000401E8041C00F01B030BD30B581B00500A9
:103080000C0001236A465C2100F018FC002801D0E6
:10309000002012E0684600789F2101406001602214
:1030A00002400A436846027001236A465C212800F8
:1030B00000F0BAFB401E8041C00F01B030BD30B5FA
:1030C00081B005000C0001236A465D2100F0F6FB8B
:1030D000002801D000200FE068460078F821014068
:1030E0000C436846047001236A465D21280000F005
:1030F0009BFB401E8041C00F01B030BD70B582B057
:1031000005000C00660901236A465D2100F0D6FB2C
:10311000002817D1684600784007400FE1000143BE
:103120006846017001236A465D21280000F07CFB9F
:10313000002807D101236A465C21280000F0BEFB6D
:10314000002801D0002010E0684600784006400EBC
:10315000F10101436846017001236A465C212800A1
:1031600000F062FB401E8041C00F02B070BD30B560
:1031700081B005000C0001236A465E2100F09EFB31
:10318000002801D000200FE068460078FD210140B2
:103190000C436846047001236A465E21280000F053
:1031A00043FB401E8041C00F01B030BD30B581B03F
:1031B00005000C0001236A465E2100F07FFB002819
:1031C00001D000200FE068460078FB2101400C434D
:1031D0006846047001236A465E21280000F024FB43
:1031E000401E8041C00F01B030BD30B581B0050038
:1031F0000C0001236A465E2100F060FB002801D02C
:1032000000200FE068460078F72101400C43684633
:10321000047001236A465E21280000F005FB401E71
:103220008041C00F01B030BD30B581B005000C0049
:1032300001236A465E2100F041FB002801D00020F6
:103240000FE068460078EF2101400C4368460470A7
:1032500001236A465E21280000F0E6FA401E804104
:10326000C00F01B030BD30B581B005000C000123A6
:103270006A465E2100F022FB002801D000200FE00A
:1032800068460078DF2101400C4368460470012342
:103290006A465E21280000F0C7FA401E8041C00F38
:1032A00001B030BD30B581B005000C0001236A4685
:1032B0005E2100F003FB002801D000200FE06846EB
:1032C0000078BF2101400C436846047001236A4620
:1032D0005E21280000F0A8FA401E8041C00F01B016
:1032E00030BD30B581B005000C0001236A465F2176
:1032F00000F0E4FA002801D000200FE068460078D2
:10330000FD2101400C436846047001236A465F2199
:10331000280000F089FA401E8041C00F01B030BD86
:1033200030B581B005000C0001236A465F2100F032
:10333000C5FA002801D000200FE068460078FB2184
:1033400001400C436846047001236A465F2128004F
:1033500000F06AFA401E8041C00F01B030BD30B5A8
:1033600081B005000C0001236A465F2100F0A6FA37
:10337000002801D000200FE068460078F7210140C6
:103380000C436846047001236A465F21280000F060
:103390004BFA401E8041C00F01B030BD30B581B046
:1033A00005000C0001236A465F2100F087FA00281F
:1033B00001D000200FE068460078EF2101400C4367
:1033C0006846047001236A465F21280000F02CFA49
:1033D000401E8041C00F01B030BD30B581B0050046
:1033E0000C0001236A465F2100F068FA002801D032
:1033F00000200FE068460078DF2101400C4368465A
:10340000047001236A465F21280000F00DFA401E77
:103410008041C00F01B030BD30B581B005000C0057
:1034200001236A465F2100F049FA002801D00020FC
:103430000FE068460078BF2101400C4368460470E5
:1034400001236A465F21280000F0EEF9401E80410A
:10345000C00F01B030BD30B581B005000C000123B4
:1034600022003E2100F02AFA002807D10123621C25
:103470003F21280000F022FA002801D0002000E0BF
:10348000012001B030BD30B581B005000C00012332
:1034900022004B2100F012FA002807D10123621C00
:1034A0004C21280000F00AFA002801D0002000E09A
:1034B000012001B030BD30B581B005000C00012302
:1034C0006A46012100F0FAF900280BD1684600781D
:1034D000802101436846017001236A4601212800CA
:1034E00000F0A2F9012300AA521C0F21280000F0CD
:1034F000E5F968464078E0210140E006C00E084347
:1035000069464870012300AA521C0F21280000F0D0
:103510008BF901236A460121280000F0CFF9002829
:103520000BD1684600784006400E694608700123BA
:103530006A460121280000F077F9012001B030BD72
:103540000CB4012212060318DA4207D84B18DA42EB
:1035500004D802000A43921802D288420CBC704779
:10356000FCD08142FAE7FEE79D2102000AD5F4462D
:10357000524200F007F80122D207104360470000D2
:103580009D2102000AD002D4491E9218FCD5C9051B
:10359000100A1206524100D3012A4841704730B444
:1035A00005004D400122D20715404B180418240E87
:1035B0002ED01B0E32D0FF2C34D0FF2B3AD0E41883
:1035C0000002090210431143000A090A9446C2B2DC
:1035D0004A43000AC3B24B43000A4843110A5B182E
:1035E0001A43D2B2190A091801D44918641E080AEC
:1035F0007F3C23DBFE2C08DAE40509061143634611
:1036000099416041284330BC7047FF20C005F9E76D
:1036100028001B0EFF2BF6D1D043F4E72800FF2C27
:10362000F1D1F9E74002F7D1FF2B01D14902F3D1E3
:10363000E005E7E7D8054902E4D0EDE743020020C2
:10364000641CDFD15B129B1CDCD9D805DAE7FEE7EE
:103650000122D2070118090E7F3910D449421F31C7
:103660000FD4001805D2C0011043C84000D5D04384
:103670007047C0011043C84005D440427047002045
:1036800070470042F3D510007047FEE7094205D0AD
:10369000830705D00270401C491EF9D17047000015
:1036A000130030B414001500103902D310393CC097
:1036B000FCD2490700D30CC000D504C0890002D356
:1036C0000280801C002900D5027030BC70470000C9
:1036D0000022DBE730B587B09D4C200000F024FECF
:1036E000002835D19B4860603320A0600120E06055
:1036F00099482060BD4D022069680143696069688E
:10370000014000910099C02189000191122102918C
:103710000490002003900420059001A9B44800F013
:103720004DFE8020800329690143296129680843EF
:1037300028602868AF490140296000220021172035
:1037400000F030FF172000F048FF200000F05EF985
:10375000200000F0E9FD202801D1002000E0012038
:1037600007B030BD00207047F0B58BB00125A248EE
:1037700000682843A0490860086828400090009825
:10378000102006909D4F0797022409940026089662
:1037900006A9A020C00500F011FE0022002107208C
:1037A00000F000FF072000F018FF93480068204356
:1037B00091490860086820400090009801950297A0
:1037C0000494039601A98A4800F0F8FD0022002124
:1037D000052000F0E7FE052000F0FFFE00200BB002
:1037E000F0BD00B587B0012083490A6802430A6032
:1037F0000968084000900098102001907F480290CE
:10380000022004900020039001A9A020C00500F030
:10381000D5FD00220021072000F0C4FE072000F0A3
:10382000DCFE002007B000BDFAB583B00700387891
:103830003D3804D074380AD00B38012825D8022B23
:1038400023DB084680210143684601731DE0002404
:10385000002B18D016006A4D8020400102900120F4
:103860000190009601236846007B0219D2B2B97814
:10387000280000F041F9002818D1641C761C684625
:10388000008A8442E8DB002016E05D4D8020400184
:1038900002906846008A0190009201236846027BEC
:1038A000B978280000F028F9002805D0280000F099
:1038B00007F900F053F8012005B0F0BDFAB583B068
:1038C000070038783D3804D074380AD00B38012806
:1038D00025D8022B23DB084680210143684601736B
:1038E0001DE00024002B18D01600454D802040011B
:1038F000029001200190009601236846007B021986
:10390000D2B2B978280000F01BFB002818D1641C43
:10391000761C6846008A8442E8DB002016E0384DB9
:103920008020400102906846008A019000920123A5
:103930006846027BB978280000F002FB002805D019
:10394000280000F0BDF800F009F8012005B0F0BD36
:10395000281A00202E11B1000054004030B587B065
:10396000274C200000F0E0FC002835D1254860609D
:103970003320A0600120E060234820601B4D02201E
:103980006968014369606968014000910099C0213C
:1039900089000191122102910490002003900420DB
:1039A000059001A9124800F009FD802080032969D3
:1039B0000143296129680843286028680D490140AE
:1039C000296000220021172000F0ECFD172000F0F4
:1039D00004FE200000F01AF8200000F0A5FC2028CA
:1039E00001D1002000E0012007B030BD28100240C6
:1039F00000040050FFFFDFFF2C10024000001110F8
:103A0000281A00202E11B1000054004030B581B0BA
:103A1000040001D101204CE02500403568780028E1
:103A200003D12870200000F0C7FC242068702068B3
:103A3000016801229143016060681F4901402068CC
:103A4000016121681D488A6802408A60E168012995
:103A5000A16801D1C24301E0842212020A43216815
:103A60008A60E168022903D180210901226851603E
:103A700021684A681F4B13434B602168CA68104095
:103A8000C860206961690143A06900020843216898
:103A9000C860E069216A014320680160206801680C
:103AA00001220A43026000206860202169702063BF
:103AB000A87001B030BD0000FFFFFFF0FF7FFFFFE7
:103AC00030B581B0040001D1012011E0250040355E
:103AD0002420687020680168012291430160200061
:103AE00000F0A2FD0020686068702063A870287054
:103AF00001B030BD00800002FEB582B0040040304D
:103B00004078202800D011E20A9E002E00D1CCE19E
:103B10000B9D280000D1C8E14020205C012800D185
:103B200004E201204021605400F080FD00902068F4
:103B30008169090410D500F079FD0099401A1A280E
:103B4000F5D320202100403148700027210040316A
:103B50008F7040202754E7E121212200403251702C
:103B600040212200403291700027210040314F60F7
:103B7000666265856763694609898905890D0191D2
:103B8000AD4E4268324011436A46128A1206120A4A
:103B90000A43AA49114341600C9D20688169890745
:103BA00056D48069C0063ED5206820268169314000
:103BB0001ED10020C0438542F6D0002D05D000F074
:103BC00035FD0099401A8542EED220004030467003
:103BD000210040318F704021675420004030406800
:103BE0002000403040680428675400D09CE15CE12C
:103BF0001021C1612068C66120688169890700D5EC
:103C0000876220688169C90703D4816901220A4358
:103C1000826120684168B34A0A4042600420210062
:103C200040314860D1E70020C0438542B5D0002D27
:103C300005D000F0FBFC0099401A8542ADD2202649
:103C40002000403040683043210040314860BCE7EC
:103C50006946098A012951D069468989090A816220
:103C600020688169890749D48069C00629D5206800
:103C70002026816931400CD10020C0438542F6D016
:103C8000002D32D000F0D2FC0099401A8542EED2CD
:103C90002BE01021C1612068C66120688169890715
:103CA00000D5876220688169C90703D48169012230
:103CB0000A438261206841688A4A0A4042600420BF
:103CC00010E00020C0438542CAD0002D05D000F08E
:103CD000ADFC0099401A8542C2D220262000403017
:103CE0004068304321004031486020004030467039
:103CF000210040318F70402167546EE7684680890B
:103D0000C0B22168886220688169090615D4002044
:103D1000C0438542F7D0002D05D000F087FC009904
:103D2000401A8542EFD22020210040314870210006
:103D300040318F704021675452E7618DFF2907D9C8
:103D4000FF21218541683140019A0A4379490AE0FF
:103D5000628D228543683340019919431206120A85
:103D60000A438021890411434160206881698907E1
:103D700029D4009A2900200000F0D9FA00281BD18C
:103D80000020C0438542F0D0002D05D000F04EFC4D
:103D90000099401A8542E8D2202620004030406831
:103DA00030432100403148602000403046702100FF
:103DB00040318F7040202754200040304068042854
:103DC00000D0B1E071E0616A4A1C626209788162E8
:103DD0005948618D09186185218D081820850004D6
:103DE0003BD1608D002838D020688169090615D440
:103DF0000020C0438542F7D0002D05D000F016FC0E
:103E00000099401A8542EFD22020210040314870AD
:103E1000210040318F704020275485E0618DFF29BB
:103E20000ED9FF2121854168019A31401143414A51
:103E30000A43426011E000BF009800FC002000012E
:103E4000628D228543683340019919431206120A94
:103E50000A438021890411434160608D002884D188
:103E600020682026816931404ED18069C0063BD54B
:103E70002068816931401AD10020C0438542F7D0C3
:103E8000002D05D000F0D2FB0099401A8542EFD2F8
:103E9000200040304670210040318F704020275470
:103EA00020004030406804283ED101203FE010212E
:103EB000C1612068C66120688169890700D5876271
:103EC00020688169C90703D4816901220A4382619C
:103ED00020684168034A0A404260042021004031C2
:103EE0004860D5E700E800FE002D05D000F09EFBFD
:103EF0000099401A8542B3D22000403040683043D8
:103F0000210040314860C3E7C661206841680B4A20
:103F10000A404260200040304670210040318F70DE
:103F200040202754002002E0032000E0022005B0DA
:103F3000F0BD00000000FF01FFFF000000E800FEF0
:103F4000FFB583B0074640377878202800D0DDE100
:103F50000C9E002E00D1A0E10D9D280000D19CE117
:103F60003878012800D1D1E10120387000F05EFBE3
:103F7000009003980068816909040BD500F056FB96
:103F80000099401A1A28F4D3202078700024BC70BD
:103F90003C70B9E1222179704021B97000247C6025
:103FA00003994E6203994D8503994C636946098ACA
:103FB0008905890D01919E4E4268324011436A463F
:103FC000128B1206120A0A438021890111434160B3
:103FD0000E9D03980068816989074CD48069C006EA
:103FE00038D50398006820268169314015D100201A
:103FF000C0438542F5D0002D05D000F017FB009995
:10400000401A8542EDD27E70BC703C70786878684A
:1040100004283C7000D077E13FE11021C161039892
:104020000068C661039800688169890700D58462C9
:10403000039800688169C90703D4816901220A4392
:104040008261039800684168B24A0A4042600420D5
:104050007860D8E70020C0438542BAD0002D05D053
:1040600000F0E4FA0099401A8542B2D2202678681E
:1040700030437860C7E76946098B01294ED069460D
:10408000898A090A8162039800688169890745D491
:104090008069C0062ED503980068202681693140CA
:1040A0000CD10020C0438542F5D0002D32D000F065
:1040B000BDFA0099401A8542EDD22BE01021C16172
:1040C00003980068C661039800688169890700D574
:1040D0008462039800688169C90703D48169012259
:1040E0000A4382610398006841688A4A0A40426034
:1040F00004200EE00020C0438542C4D0002D05D02E
:1041000000F094FA0099401A8542BCD220267868C3
:10411000304378607E70BC703C7077E76846808A78
:10412000C0B20399096888620398006881694906EA
:1041300010D40020C0438542F6D0002D05D000F0F9
:1041400075FA0099401A8542EED220207870BC7032
:104150003C705CE70399498DFF290AD9FF21039A36
:10416000118541683140019A0A436B49114341600E
:104170000DE00399498D039A118543683340019AF4
:104180001A430906090A1143644A0A434260039824
:1041900000688169490710D40020C0438542F6D0E9
:1041A000002D05D000F042FA0099401A8542EED267
:1041B00020207870BC703C70A6E00399496A4A1CC4
:1041C000039B5A62406A087055480399098D091883
:1041D000039A1185039A528D1018039A5085090489
:1041E00037D10398408D002833D003980068816947
:1041F000090610D40020C0438542F6D0002D05D01A
:1042000000F014FA0099401A8542EED2202078700E
:10421000BC703C7078E00399498DFF290AD9FF21D1
:10422000039A11854168019A314011433D4A0EE0DD
:10423000009800FC0399498D039A11854368334027
:10424000019A1A430906090A1143802292040A437B
:1042500042600398408D002899D103980068202679
:104260008169314044D18069C00635D50398006822
:104270008169314013D10020C0438542F6D0002D22
:1042800005D000F0D3F90099401A8542EED27E7035
:10429000BC703C707868042836D1012037E01021CA
:1042A000C16103980068C661039800688169890745
:1042B00000D58462039800688169C90703D48169C5
:1042C00001220A438261039800684168114A0A404A
:1042D000426004207860DAE7002D05D000F0A6F9EE
:1042E0000099401A8542B8D2786830437860CEE7AA
:1042F000C661039800684168064A0A4042607E70C1
:104300000020B8703C7002E0032000E0022007B0FB
:10431000F0BD000000E800FE0024FF0100240002C0
:10432000FFFF00000000FF014121405C7047F4B531
:1043300004000F00102520688069284037D02068CD
:1043400020268169314013D10020C0438742F6D036
:10435000002F05D000F06AF90099401A8742EED28A
:1043600020004030467000218170017003201EE063
:10437000C5612068C66120688169890701D500216F
:1043800081622068012182690A4002D18269114359
:10439000816120684168074A0A404260200040303D
:1043A000042141604670002181700170012001B03C
:1043B000F0BD000000E800FE7047FEE7F0B483B0F7
:1043C000002203230C68002C00D1C0E0012494409B
:1043D00002940C68029D25400195019C002C00D19F
:1043E000B0E04C68022C01D0122C13D1D408A400E8
:1043F0000419276A9600BC460F251C273740BD408C
:104400006746AF430D69AC461C2535406646AE4055
:104410003E4326624C68012C05D0022C03D0112C9F
:1044200001D0122C17D1856854006E4634706C464A
:1044300026780324B440A543CC686E463678B44051
:104440002C4384604468029DAC434D68EE06F60F31
:10445000964026434660066854006D462C706C46B4
:1044600025780324AC40E5432E404C681C406F4641
:104470003F78BC4034430460C46825408C686E4675
:104480003678B4402C43C4604C68E4005AD53D4CA7
:104490002468012525433B4C25603B4C9508AD0025
:1044A00064190294246896000C2535400F26AE400E
:1044B000B443A026F605B04201D1002614E0334EE5
:1044C000B04201D101260FE0314EB04201D10226A7
:1044D0000AE0304EB04201D1032605E02E4EB04234
:1044E00001D1052600E00626AE402643029C266048
:1044F0002A4C2568019EF44325404E68F60302D5F8
:104500002E00019D3543254E3560756825404E6867
:10451000B60302D52E00019D3543204E7560B56867
:1045200025404E68F60202D52E00019D35431B4EF4
:10453000B560F5682C404D68AD0202D52500019CA0
:104540002C43F460521C0C68D44000D03EE703B00A
:10455000F0BC7047002A01D08161704781627047CA
:1045600042694A40426170470D4A1368034000D1D6
:10457000704700B581B0106000F064FB01B000BD71
:104580000000000034100240080001400004005008
:1045900000080050000C0050001C005000040140B6
:1045A0001404014010B4C20018231340FF249C409F
:1045B000E2438907090E9940002804D5154B0007EE
:1045C000000F083800E0144B8008800018180368BA
:1045D0001A401143016010BC70470121C006C00E93
:1045E00081400E4801607047401E80214904884286
:1045F00001D3012070470A4948600A480268120244
:10460000120AC0231B0613430360002088600722A0
:104610000A6070471CED00E000E400E000E100E00B
:1046200010E000E020ED00E07047FEE70148006880
:10463000704700BF601B0020F0B5CFB000F082FBD8
:1046400000F094FB002000F009FC002000F02CFC9E
:104650000121002000F044FC00F014FD0C2000902B
:1046600000200A90802040000290002005906846BB
:1046700000F074FD002804D00120982149000A00B0
:1046800001E0FF21FF220A4C21617F21E1600949FD
:104690000860E264084860604020A060002060611B
:1046A000E0612062201D01F0F5F8002806D0FEE749
:1046B000C4040020641B0020002800406846142128
:1046C000C170022141701821817002210170012204
:1046D0006946201D01F056FA002800D0FEE701A827
:1046E0000821017010214170002141800491059141
:1046F000012201A9201D01F033F9002800D0FEE7B6
:104700000025ED4321006C31280001F03BFB210026
:104710007031280001F006FC21007431002001F006
:10472000D9FC21007831002001F03AFD21007C31D4
:10473000002001F0B5FD20008030039001462800E4
:1047400001F05AFFE06E01F0C1FB206F01F08CFC1C
:10475000606F01F0F9FCA06F01F076FDE06F01F0F1
:104760001FFF0398006802F075F82500843517E0F4
:1047700000F09AFBAE48007800280AD00EA802F09C
:104780009FF837200E900EA800F068FC606D02F0D4
:10479000A9F92078002803D0FA20400002F0A2F9FD
:1047A0000EA800F0E1FB00280CD00EA800793228FA
:1047B00008D10EA802F08EF89D480078002801D09C
:1047C0000020207000209A490978002902D1217820
:1047D000002911D0002205A9201D01F09FF9002217
:1047E00004A9201D01F099FAE16C0698081A6422C8
:1047F0005043491C02F099F98D49097800290CD0E1
:104800006946097D0EAAD17105A94978117205A9D9
:10481000897851720EA988721BE02178002918D07E
:10482000C0B2029005A88078019005A84078009059
:104830006846037D7F4A80214900280002F0D0F9B4
:10484000280002F0F1F9A94B82B22900A84802F031
:1048500028FA00206946087101A90398006802F04F
:1048600009F8002849D168460079012845D121007E
:1048700058310398006802F011F86D48007800285C
:104880000AD0206DC00738D50422210058310EA867
:104890000B3002F021FD30E0207800282DD0A76DEC
:1048A0003800002102F046FD02D980200006474072
:1048B0003800FEF7CDFE0600FEF762FE010038006C
:1048C00002F084FD02F0DAFD00225B4B02F0EFFD06
:1048D00002F0AFFE02F0B6FE00903300574A80218E
:1048E0004900280002F07CF9280002F09DF97F4B76
:1048F00082B229007E4802F0D4F90020694608718E
:1049000001A9A06F01F0B0FC002848D168460079E9
:10491000012844D121005C31A06F01F0AFFC444874
:10492000007800280AD0206D400738D504222100E5
:104930005C310EA8133002F0CFFC30E02078002864
:104940002DD0E76D3800002102F0F4FC02D9802060
:10495000000647403800FEF77BFE0600FEF710FE1B
:104960000100380002F032FD02F088FD0022324BD7
:1049700002F09DFD02F05DFE02F064FE0090330047
:10498000A7A280214900280002F02AF9280002F09D
:104990004BF9564B82B22900554802F082F90020AB
:1049A0006946087202A9E06F01F00AFE00285AD198
:1049B0006846007A012856D121006031E06F01F08D
:1049C00009FE1B48007800280AD0206D80074AD5D0
:1049D0000422210060310EA80F3002F07DFC42E07D
:1049E000207800283FD0276E3800002102F0A2FC7A
:1049F00001D8002603E00126802000064740380049
:104A0000FEF726FE0490FEF7BBFD0100380002F021
:104A1000DDFC02F033FD0022074B02F048FD02F0FE
:104A200008FE02F00FFE002E0AD02D2309E000BF81
:104A30004C000020E0CE000800005940FCCE0008E9
:104A40002B2301900498009079A28021490028002E
:104A500002F0C6F8280002F0E7F8244B82B22900E1
:104A6000234802F01EF900206946087202A9E06E90
:104A700001F03CFA00283FD16846007A01283BD17A
:104A800021002831E06E01F03BFA8D4800780028C3
:104A900015D0206DC0062FD50422A16A0EA81730AC
:104AA00002F0A8FE0422E16A0EA81B3002F0A2FE6A
:104AB0000422216B0EA81F3002F09CFE1CE020781F
:104AC000002819D0206B0190E06A0090A36A00BF13
:104AD00081A280214900280002F082F8280002F01B
:104AE000A3F8024B82B22900014803E088130000BA
:104AF000B813002002F0D5F800206946087202A918
:104B0000206F01F0C1FA002839D16846007A0128E7
:104B100035D121003431206F01F0CAFA684800789D
:104B2000002815D0206D800629D50422616B0EA8BF
:104B3000233002F05FFE0422A16B0EA8273002F0A2
:104B400059FE0422E16B0EA82B3002F053FE16E052
:104B50002078002813D0E06B0190A06B0090636B6D
:104B600066A280214900280002F03AF8280002F0ED
:104B70005BF8544B82B22900534802F092F80020AF
:104B80006946087202A9606F01F0EEFA00283AD176
:104B90006846007A012836D121004031606F01F06B
:104BA000EDFA47480078002815D0206D40062AD538
:104BB0000422216C0EA82F3002F01CFE0422616C2E
:104BC0000EA8333002F016FE0422A16C0EA8373076
:104BD00002F010FE17E02078002814D0A06C01909D
:104BE000606C0090236C00BF4DA28021490028001A
:104BF00001F0F6FF280002F017F8324B82B22900CC
:104C0000314802F04EF82E480078002803D1207871
:104C1000002800D1ACE5002000F054F9AAE500001E
:104C200048554D3A2025642E253032640D0A000087
:104C300054454D503A20256325642E253032640DAD
:104C40000A00000080218901884200D0704710B519
:104C50001E4C606E002805D1A06E002802D1FFF71F
:104C6000E5FC0AE0FFF7E2FCA066A06E616E401A68
:104C7000FF212E3188420CD3A06E60661048007868
:104C8000002801D0002003E02178481E8041C00F99
:104C9000207010BD10B586B000236C46E370207004
:104CA0006170A2700193039304930022694608483F
:104CB00000F056FE002800D0FEE706B010BD000050
:104CC0004C00002088130000B8130020C40400200A
:104CD000C8040020FEE700004143435F583A202506
:104CE000642C204143435F593A2025642C204143E2
:104CF000435F5A3A2025640D0A0000004759525F6D
:104D0000583A2025642C204759525F593A2025648F
:104D10002C204759525F5A3A2025640D0A000000A2
:104D20004D41475F583A2025642C204D41475F593B
:104D30003A2025642C204D41475F5A3A2025640DC6
:104D40000A00000000B581B00648016802220A434B
:104D50000260032002F066FD00F006F8002001B0BA
:104D600000BD0000002002407047FEE770B594B01F
:104D7000344C606880214905014361603248016814
:104D8000324A0A40C10C11430160022005900125FE
:104D90000895102109910F9000261096400411905B
:104DA0000001129005A800F0D9F90F20009003200F
:104DB00001900296039604960121684600F052FC89
:104DC00020680543256014B070BD2149096800685A
:104DD000204A904201D108201DE01432904201D1B6
:104DE000802018E01432904201D1D00C13E014322C
:104DF000904202D1802000020DE01432904202D194
:104E00008020000307E01432904202D18020000489
:104E100001E0802000050840704700684068704746
:104E20000D49016000218160C16080220261416101
:104E300081612021C161C021890101620421416099
:104E4000704700003410024000700040FFE7FFFF91
:104E500000000240080002405800024030B587B010
:104E60000121020007D13C4A13680B43136012680A
:104E70000A400092009A00BF18A24300D55A01953B
:104E800002910021039103210491344980000C1800
:104E900001A92068FFF792FA002229002068FFF795
:104EA00059FB07B030BD000000B581B0002200BF43
:104EB0000AA14300C95A294B80001858FFF74AFB42
:104EC00001B000BD00B581B004A14200895A234A57
:104ED00080001058FFF744FB01B000BD2000000027
:104EE00030B587B00C00010008D104211A4A1368BC
:104EF0000B4313601268114000910099050000BF38
:104F000014A06900405A01900020039001210491EF
:104F1000210006D1029001A91248AA008058FFF78B
:104F20004DFA012C12D10E48029001A90D48AA0099
:104F30008058FFF743FA00BF05A0445D00220F210F
:104F400060B2FFF72FFB60B2FFF747FB07B030BD41
:104F500007000000002000002C100240480600203E
:104F6000000021104C060020F1B584B000267448E2
:104F7000FFF72BFF00286ED18024A4007048FFF7B4
:104F80004CFF201A80B202906E4884880298A0429A
:104F900002DA802189004018001B80B2019000963F
:104FA000019801284FDB6848005D641CA4B2802191
:104FB00089008C4200DB0024F0283ED161488488BF
:104FC00000250BE0221811001312DB0D9A18521263
:104FD00052028C1AA4B2761C2D18ADB2601C009A35
:104FE000954216DA0112C90D091849124902471AE9
:104FF0005548005D5449BFB2C95D049AB6B29219D2
:10500000121D02F06FFBC0B20028DBD14D48878033
:1050100021E0B6B204990E6001000212D20D101800
:10502000401240020C1AA4B246498C80049802F047
:105030008EFB002801D001200EE00098401C00905B
:1050400001998842AFDB0198FF21891C884202DB6D
:1050500002983C498880002005B0F0BD30B581B091
:10506000050002F04EFB394C29002000703002F0A0
:1050700010FB374B82B221007031200001F011FE8D
:1050800001B030BD70B586B0012032490A680243D4
:105090000A600A6802400092009A0A6802430A60A5
:1050A0000A6802400092009ACA6843041343CB6026
:1050B0004A6802434A604968084000900098042406
:1050C0000194022002900025039504900594A026E7
:1050D000F60501A93000FFF771F908200190059449
:1050E00001A93000FFF76AF9184C1B482060154EE3
:1050F000B06C6060A560E5602561A5610C20606111
:10510000200001F099FD002800D0FEE730000830B3
:10511000FFF786FE3000083002F098FB2000583080
:1051200031000831C1603463074961658022920013
:1051300002804561200001F03DFE06B070BD000018
:10514000080000200000002028160020B8130020CE
:10515000881300002C10024000440040F0B581B0DC
:105160000400BB4D2078C0074CD50C21E8680840EE
:10517000082808D080204002EA6811400C290AD192
:10518000E968014007D0286880033BD560680028A3
:1051900038D101205BE26168814207D0A022D202AF
:1051A0009142296806D182000A432A60296808438F
:1051B00028600AE0A74A0A402A602968084000904F
:1051C00000982868A449014029608027BF026068D0
:1051D00000280BD0FFF72AFA06002868384011D1C2
:1051E000FFF724FA801B6528F7D32DE2FFF71EFA9C
:1051F00006002868384005D0FFF718FA801B65289C
:10520000F7D321E22078800718D50C21E868084000
:10521000042806D0E86801400C2937D1E868C003AB
:1052200034D42868400702D5E0680128B1D1686805
:10523000C149014020690002084368602078C00627
:1052400000D4BFE06F0DE8680C21014000D0CFE032
:105250002868074002D0E06900289AD0606AF021EF
:1052600000226B68E02636021E4086425FD2009222
:10527000EA6811403FD1C0214901B04F8022520558
:10528000AB6B134027D03A680A402DE0E068042752
:10529000002810D029680922914308432860FFF7AD
:1052A000C5F9060028683840C1D1FFF7BFF9801B57
:1052B0000328F7D3C8E12868012188432860FFF755
:1052C000B5F9060028683840B8D0FFF7AFF9801B61
:1052D0000328F7D3B8E1AB6B1A43AA633A680A40D4
:1052E000AB6BB44E1E40AE638A4204D1C900884203
:1052F00001D101200090B048016801229143009A39
:105300000A4302600068C107C90F0098814200D0BB
:105310003FE76868A9490140606A084368606868B7
:105320000002000A216A09060143696039E06B68DE
:10533000A24E1E403043686068680002000A236A7B
:105340001B0603436B60606A0092EA6811401AD141
:10535000C0214901794F80225205AB6B134002D026
:105360003A680A4008E0AB6B1A43AA633A680A40FD
:10537000AB6B904E1E40AE638A4204D1C900884296
:1053800001D1012000908C48016801229143009ACC
:105390000A4302600068C107C90F0098814200D02B
:1053A000F7E60120616A490B491C8840C003A949FE
:1053B000EA681206120F895CC840A74908600320FA
:1053C00002F030FA2078000757D560690028286D70
:1053D00044D0012101432965FFF728F90600286D13
:1053E00080074AD4FFF722F9801B0328F7D32BE16B
:1053F000E069002828681CD0A90D01432960FFF747
:1054000015F906002868384005D1FFF70FF9801B11
:105410000328F7D318E1686868490140606A0843C7
:10542000686068680002000A216A09060143696031
:10543000C8E78A4901402960FFF7F8F806002868A4
:105440003840BFD0FFF7F2F8801B0328F7D3FBE00A
:1054500000100240FFFFFEFFFFFFFBFF012188431A
:105460002865FFF7E3F80600286D800705D5FFF7EC
:10547000DDF8801B0328F7D3E6E02078400766D5E7
:105480000020009080225205A86B104004D1A86B28
:105490000243AA6301200090284F3868C0050FD44A
:1054A0003868A90D01433960FFF7C0F80600386875
:1054B000C00505D4FFF7BAF8801B6528F7D3C3E011
:1054C000A068A90D884202D1286D014315E000288B
:1054D00001D1286D0BE0A021C9008842286D06D1BA
:1054E000290D01432965286DA90D014305E05B499C
:1054F00001402965286D5A49014029656F0DA06852
:1055000000280CD0FFF792F80600286D384017D11C
:10551000FFF78CF8801BAA498842F6D394E0FFF786
:1055200085F80600286D38400AD0FFF77FF8801B09
:10553000A3498842F6D387E0FFE0FFFF00700040F8
:105540000098002803D0A86B1A490140A96320786D
:10555000800635D59B48A1690029A96816D001228B
:105560000A43AA60696B01220A436A630168420C1C
:105570000A430260FFF75AF80600A86880071FD4A4
:10558000FFF754F8801B0328F7D35DE00122914315
:10559000A96001688C4A0A400260FFF747F80600DC
:1055A000A86880070CD5FFF741F8801B0328F7D3C4
:1055B0004AE000BFFFFFFFEF00200240FF1FFFFF98
:1055C000A06A002842D0E9680C220A400C2A00D1C7
:1055D000DFE58027BF047D490228286827D10140E4
:1055E0002960FFF723F806002868384005D0FFF748
:1055F0001DF8801B0328F7D326E0E868984901408E
:10560000E06A0843216B0143606B0843E860286847
:10561000790801432960FFF709F806002868384037
:1056200014D1FFF703F8801B0328F7D30CE00140E7
:105630002960FEF7FBFF06002868384006D0FEF719
:10564000F5FF801B0328F7D3032000E0002001B002
:10565000F0BD0000C8CD000850060020FFFEFFFF8F
:10566000FFFBFFFFF2B504007E480068C107C90FC9
:10567000009881420DD27B4800680121884300993F
:105680000143784801600068C107C90F0098814252
:1056900070D1754D2078800705D5E868F0218843E2
:1056A000A1680143E9602078C0074ED560680228F0
:1056B00002D12968890308E0032802D129688901F9
:1056C00003E00128296802D1490702D452E0890584
:1056D00050D5E968032291430843E860FEF7A6FF2E
:1056E000070060680C2602280AD1E86830400828C4
:1056F0002BD0FEF79BFFC01B31498842F5D322E037
:1057000003280AD1E86830400C281ED0FEF78EFF2F
:10571000C01B2B498842F5D315E001280AD1E8685F
:105720003040042811D0FEF781FFC01B2449884275
:10573000F5D308E0E868304007D0FEF777FFC01BDC
:105740001F498842F6D3032037E00098454909688D
:10575000CA07D20F90420FD2424800680121884305
:10576000009901433F4801600068C107C90F0098D4
:10577000814201D0012020E02078400705D5E8686B
:105780003A490140E0680843E8602078000706D500
:10579000E868374901402069C0000843E86000F02C
:1057A00017F83449EA681206120F895CC84032497A
:1057B0000860032002F036F8002001B0F0BD0000C0
:1057C0008913000020000140FFDFFFFFFFFFFFFE05
:1057D00000B5254AD1680C200840042804D00828C8
:1057E00009D00C2809D01EE01068C00601D5244855
:1057F00000BD244800BD244800BD24488B021B0F77
:10580000C05C0902890F491CD368DB0301D51E4A1D
:1058100005E01268D20601D5194A00E0194A504342
:1058200001F086F900BD506801210004400F401CC2
:105830008140C80300BD1048006815490F4A12682E
:105840005205520F895CC84070470B4800681049E8
:105850000A4A12689204520F895CC84070470000DF
:10586000FFFF02FF0020024000100240FFF8FFFF90
:10587000FFC7FFFFC8CD0008500600200C100240F3
:1058800000093D000024F40000127A00D8CD000881
:1058900034D00008F0B581B004002CD02120205C69
:1058A000002804D120216054200002F08DF802204D
:1058B00021216054CA20216848625320216848622F
:1058C00020684025C168294017D10021C943C16023
:1058D000FEF7ACFE0700214E2068C06828400CD1BE
:1058E000FEF7A4FEC01BB042F6D3FF202168486239
:1058F00004202121605401202EE020688168864A1E
:105900000A40826020688168626823691343A26943
:105910001A430A438260E0682168086120680169CF
:10592000A26812040A4302612068C1688022914380
:10593000C1602068C16C03229143C1642068C16CBE
:10594000E269636913430B43C364FF202168486223
:10595000012021216054002001B0F0BDE9030000C6
:10596000F0B583B004000F002020205C012801D195
:105970000220CFE001202021605402202121605428
:1059800020680025002A80685BD1400600D4FD70A5
:10599000387800210A2813D3491C0A38C0B20A28D3
:1059A0000ED3491C0A38C0B20A2809D3491C0A3848
:1059B000C0B20A2804D3491C0A38C0B20A28EBD264
:1059C0000901084379780A2913D3521C0A39C9B24C
:1059D0000A290ED3521C0A39C9B20A2909D3521C0A
:1059E0000A39C9B20A2904D3521C0A39C9B20A2990
:1059F000EBD212011143BB7800220A2B13D3521CA5
:105A00000A3BDBB20A2B0ED3521C0A3BDBB20A2B39
:105A100009D3521C0A3BDBB20A2B04D3521C0A3BAB
:105A2000DBB20A2BEBD20006000A0906090C01437F
:105A300010010343DBB20B43F878000418430090D5
:105A40000DE0400600D4FD70387800047978090232
:105A50000143B8780843F978090401430091CA204A
:105A6000216848625320216848622068C16849065D
:105A700011D40021C943C160FEF7D8FD0190BD4E8D
:105A80002068C068400606D4FEF7D0FD0199401A90
:105A9000B042F5D32CE00098B7490140206801607E
:105AA00020688168B54A0A40826020688168FA6887
:105AB0003B6913430B4383602068C1688022914394
:105AC000C16020682027816839401BD1C168A022AD
:105AD0009143C160FEF7AAFD0090A64E2068C06801
