:020000040800F2
:100000000080012069240008692300086D2300088E
:10001000B9240008B9240008B92400080000000031
:10002000000000000000000000000000B9240008EB
:100030007123000800000000B9240008752300089F
:10004000B9240008B9240008B9240008B92400081C
:10005000B9240008B9240008B9240008B92400080C
:10006000B9240008B9240008B9240008B9240008FC
:10007000B9240008B9240008B9240008B9240008EC
:10008000B9240008B9240008B9240008B9240008DC
:10009000B9240008B9240008B9240008B9240008CC
:1000A000B9240008B9240008B9240008B9240008BC
:1000B000B924000879230008B9240008B9240008ED
:1000C000B9240008B9240008B9240008B92400089C
:1000D000B9240008B9240008B9240008B92400088C
:1000E00085230008B9240008B9240008B9240008B1
:1000F000B9240008B9240008B9240008B92400086C
:10010000B9240008B9240008B9240008B92400085B
:10011000B9240008B9240008B9240008B92400084B
:10012000B9240008B9240008B9240008B92400083B
:10013000B9240008B9240008B9240008B92400082B
:10014000B9240008B9240008B9240008B92400081B
:10015000B9240008B9240008B9240008B92400080B
:10016000B9240008B9240008B9240008B9240008FB
:10017000B9240008B9240008B924000800000000D0
:10018000B9240008B92400080000000000000000A5
:10019000044B05481B1A062B02D9044B03B1184720
:1001A000704700BFB3060020B0060020000000002A
:1001B00005490648091A891001EBD171491002D08E
:1001C000034B03B118477047B0060020B00600206B
:1001D0000000000010B5064C237843B9FFF7D8FFA4
:1001E000044B13B10448AFF300800123237010BD0A
:1001F000B0060020000000005812010808B5084BA6
:100200001BB108490848AFF300800848036813B9D8
:10021000BDE80840CCE7064B002BF9D09847F7E73C
:1002200000000000B406002058120108B0060020AB
:1002300000000000000000000000000000000000BE
:1002400001F0FF01102A2BDB10F0070F08D010F887
:10025000013B013A8B422DD010F0070F42B3F6D18B
:10026000F0B441EA012141EA014122F007047FF0A4
:1002700000070023F0E80256083C85EA010586EAFB
:10028000010685FA47F5A3FA87F586FA47F6A5FA37
:1002900087F68EB9EED1F0BC01F0FF0102F0070243
:1002A00032B110F8013B013A83EA010313B1F8D1EE
:1002B0000020704701387047002D06BF35460338CF
:1002C000073815F0010F07D1013015F4807F02BF08
:1002D000013015F4C03F0130F0BC0138704700BF59
:1002E00081F0004102E000BF83F0004330B54FEAE7
:1002F00041044FEA430594EA050F08BF90EA020F54
:100300001FBF54EA000C55EA020C7FEA645C7FEAE6
:10031000655C00F0E2804FEA5454D4EB5555B8BF09
:100320006D420CDD2C4480EA020281EA030382EA7A
:10033000000083EA010180EA020281EA0303362D0C
:1003400088BF30BD11F0004F4FEA01314FF4801CDF
:100350004CEA113102D0404261EB410113F0004FF1
:100360004FEA03334CEA133302D0524263EB4303A8
:1003700094EA050F00F0A780A4F10104D5F1200E46
:100380000DDB02FA0EFC22FA05F2801841F10001A1
:1003900003FA0EF2801843FA05F359410EE0A5F175
:1003A00020050EF1200E012A03FA0EFC28BF4CF0A6
:1003B000020C43FA05F3C01851EBE37101F000455C
:1003C00007D54FF0000EDCF1000C7EEB00006EEB69
:1003D0000101B1F5801F1BD3B1F5001F0CD34908F3
:1003E0005FEA30004FEA3C0C04F101044FEA44524A
:1003F00012F5800F80F09A80BCF1004F08BF5FEAD1
:10040000500C50F1000041EB045141EA050130BDB0
:100410005FEA4C0C404141EB010111F4801FA4F153
:100420000104E9D191F0000F04BF01460020B1FAA8
:1004300081F308BF2033A3F10B03B3F120020CDAE0
:100440000C3208DD02F1140CC2F10C0201FA0CF0BE
:1004500021FA02F10CE002F11402D8BFC2F1200C23
:1004600001FA02F120FA0CFCDCBF41EA0C019040D9
:10047000E41AA2BF01EB0451294330BD6FEA040422
:100480001F3C1CDA0C340EDC04F11404C4F120020D
:1004900020FA04F001FA02F340EA030021FA04F31F
:1004A00045EA030130BDC4F10C04C4F1200220FA76
:1004B00002F001FA04F340EA0300294630BD21FAB4
:1004C00004F0294630BD94F0000F83F4801306BF7A
:1004D00081F480110134013D4EE77FEA645C18BF6E
:1004E0007FEA655C29D094EA050F08BF90EA020F05
:1004F00005D054EA000C04BF1946104630BD91EAFD
:10050000030F1EBF0021002030BD5FEA545C05D1FF
:100510004000494128BF41F0004130BD14F580043E
:100520003CBF01F5801130BD01F0004545F0FE41B2
:1005300041F470014FF0000030BD7FEA645C1ABFE7
:10054000194610467FEA655C1CBF0B46024650EA1E
:10055000013406BF52EA033591EA030F41F400214A
:1005600030BD00BF90F0000F04BF0021704730B5D0
:100570004FF4806404F132044FF000054FF00001A5
:1005800050E700BF90F0000F04BF0021704730B566
:100590004FF4806404F1320410F0004548BF40423B
:1005A0004FF000013EE700BF42004FEAE2014FEA90
:1005B00031014FEA02701FBF12F07F4393F07F4F6B
:1005C00081F06051704792F0000F14BF93F07F4F9D
:1005D000704730B54FF4607401F0004521F00041E0
:1005E00020E700BF50EA010208BF704730B54FF066
:1005F00000050AE050EA010208BF704730B511F06B
:10060000004502D5404261EB41014FF4806404F1A2
:1006100032045FEA915C3FF4DCAE4FF003025FEA24
:10062000DC0C18BF03325FEADC0C18BF033202EBAC
:10063000DC02C2F1200300FA03FC20FA02F001FA06
:1006400003FE40EA0E0021FA02F11444C1E600BFA5
:1006500070B54FF0FF0C4CF4E06C1CEA11541DBF58
:100660001CEA135594EA0C0F95EA0C0F00F0DEF823
:100670002C4481EA030621EA4C5123EA4C5350EA08
:10068000013518BF52EA033541F4801143F4801359
:1006900038D0A0FB02CE4FF00005E1FB02E506F0EA
:1006A0000042E0FB03E54FF00006E1FB03569CF03F
:1006B000000F18BF4EF0010EA4F1FF04B6F5007F45
:1006C00064F5407404D25FEA4E0E6D4146EB0606B7
:1006D00042EAC62141EA55514FEAC52040EA5E5040
:1006E0004FEACE2EB4F1FD0C88BFBCF5E06F1ED8EA
:1006F000BEF1004F08BF5FEA500E50F1000041EB21
:10070000045170BD06F0004646EA010140EA0200CD
:1007100081EA0301B4EB5C04C2BFD4EB0C0541EAEF
:10072000045170BD41F480114FF0000E013C00F304
:10073000AB8014F1360FDEBF002001F0004170BD28
:10074000C4F10004203C35DA0C341BDC04F1140441
:10075000C4F1200500FA05F320FA04F001FA05F2CD
:1007600040EA020001F0004221F0004110EBD3709A
:1007700021FA04F642EB06015EEA430E08BF20EAC6
:10078000D37070BDC4F10C04C4F1200500FA04F369
:1007900020FA05F001FA04F240EA020001F00041FB
:1007A00010EBD37041F100015EEA430E08BF20EA6E
:1007B000D37070BDC4F1200500FA05F24EEA020EB6
:1007C00020FA04F301FA05F243EA020321FA04F0E5
:1007D00001F0004121FA04F220EA020000EBD3709C
:1007E0005EEA430E08BF20EAD37070BD94F0000F9C
:1007F0000FD101F00046400041EB010111F4801FD0
:1008000008BF013CF7D041EA060195F0000F18BF80
:10081000704703F00046520043EB030313F4801FBC
:1008200008BF013DF7D043EA0603704794EA0C0F76
:100830000CEA135518BF95EA0C0F0CD050EA41068C
:1008400018BF52EA4306D1D181EA030101F0004109
:100850004FF0000070BD50EA410606BF1046194631
:1008600052EA430619D094EA0C0F02D150EA01363D
:1008700013D195EA0C0F05D152EA03361CBF10467E
:1008800019460AD181EA030101F0004141F0FE411D
:1008900041F470014FF0000070BD41F0FE4141F4A1
:1008A000780170BD70B54FF0FF0C4CF4E06C1CEAA1
:1008B00011541DBF1CEA135594EA0C0F95EA0C0F56
:1008C00000F0A7F8A4EB050481EA030E52EA033511
:1008D0004FEA013100F088804FEA03334FF0805532
:1008E00045EA131343EA12634FEA022245EA11155F
:1008F00045EA10654FEA00260EF000419D4208BF10
:10090000964244F1FD0404F5407402D25B084FEABC
:100910003202B61A65EB03055B084FEA32024FF468
:1009200080104FF4002CB6EB020E75EB030E22BFC5
:10093000B61A754640EA0C005B084FEA3202B6EB85
:10094000020E75EB030E22BFB61A754640EA5C0034
:100950005B084FEA3202B6EB020E75EB030E22BFC4
:10096000B61A754640EA9C005B084FEA3202B6EBC5
:10097000020E75EB030E22BFB61A754640EADC0084
:1009800055EA060E18D04FEA051545EA16754FEAE6
:1009900006164FEAC30343EA52734FEAC2025FEA04
:1009A0001C1CC0D111F4801F0BD141EA00014FF093
:1009B00000004FF0004CB6E711F4801F04BF014364
:1009C0000020B4F1FD0C88BFBCF5E06F3FF6AFAE80
:1009D000B5EB030C04BFB6EB020C5FEA500C50F110
:1009E000000041EB045170BD0EF0004E4EEA113193
:1009F00014EB5C04C2BFD4EB0C0541EA045170BD9A
:100A000041F480114FF0000E013C90E645EA060EDD
:100A10008DE60CEA135594EA0C0F08BF95EA0C0F0B
:100A20003FF43BAF94EA0C0F0AD150EA01347FF453
:100A300034AF95EA0C0F7FF425AF104619462CE72A
:100A400095EA0C0F06D152EA03353FF4FDAE10468D
:100A5000194622E750EA410618BF52EA43067FF4DE
:100A6000C5AE50EA41047FF40DAF52EA43057FF46E
:100A7000EBAE12E74FF0FF3C06E000BF4FF0010C79
:100A800002E000BF4FF0010C4DF804CD4FEA410CDD
:100A90007FEA6C5C4FEA430C18BF7FEA6C5C1BD0AA
:100AA00001B050EA410C0CBF52EA430C91EA030F2B
:100AB00002BF90EA020F0020704710F1000F91EA88
:100AC000030F58BF994208BF90422CBFD8176FEA56
:100AD000E37040F0010070474FEA410C7FEA6C5C24
:100AE00002D150EA013C07D14FEA430C7FEA6C5C2B
:100AF000D6D152EA033CD3D05DF8040B704700BF57
:100B00008446104662468C461946634600E000BFA4
:100B100001B5FFF7B7FF002848BF10F1000F01BD76
:100B20004DF808EDFFF7F4FF0CBF012000205DF841
:100B300008FB00BF4DF808EDFFF7EAFF34BF0120C6
:100B400000205DF808FB00BF4DF808EDFFF7E0FF5F
:100B500094BF012000205DF808FB00BF4DF808EDB0
:100B6000FFF7CEFF94BF012000205DF808FB00BF17
:100B70004DF808EDFFF7C4FF34BF012000205DF8F9
:100B800008FB00BF4FEA4102B2F1E04324BFB3F5D6
:100B9000001CDCF1FE5C0DD901F0004C4FEAC002F4
:100BA0004CEA5070B2F1004F40EB830008BF20F0D8
:100BB0000100704711F0804F21D113F13872BCBF92
:100BC00001F00040704741F480114FEA5252C2F1E7
:100BD0001802C2F1200C10FA0CF320FA02F018BF30
:100BE00040F001004FEAC1234FEAD32303FA0CFC83
:100BF00040EA0C0023FA02F34FEA4303CCE77FEA12
:100C0000625307D150EA01331EBF4FF0FE4040F45B
:100C10004000704701F0004040F0FE4040F400000A
:100C2000704700BF53B94AB9002908BF00281CBF4C
:100C30004FF0FF314FF0FF3000F07EB9ADF1080CFE
:100C40006DE904CE00F006F8DDF804E0DDE90223EA
:100C500004B070472DE9F0478C460E460446089DC7
:100C6000002B50D18A4217466CD9B2FA82FEBEF1EF
:100C7000000F0BD0CEF1200420FA04F401FA0EF696
:100C800044EA060C02FA0EF700FA0EF44FEA17498E
:100C9000220CBCFBF9F01FFA87F809FB10C642EAE8
:100CA000064600FB08F3B34209D9F61900F1FF32FA
:100CB00080F02281B34240F21F8102383E44F61A8E
:100CC000A2B2B6FBF9F309FB136642EA064403FB42
:100CD00008F8A04509D9E41903F1FF3280F00A8130
:100CE000A04540F20781023B3C44C8EB040443EAC0
:100CF00000400021002D62D024FA0EF400232C6065
:100D00006B60BDE8F0878B4207D9002D55D00021DC
:100D100085E841000846BDE8F087B3FA83F1002971
:100D200040F09080B34202D3824200F2F880841AED
:100D300066EB03060120B446002D40D085E8101074
:100D4000BDE8F08712B90127B7FBF2F7B7FA87FEC3
:100D5000BEF1000F35D1F31B4FEA17481FFA87FC8D
:100D60000121B3FBF8F0220C08FB103642EA0646DC
:100D70000CFB00F3B34207D9F61900F1FF3202D29F
:100D8000B34200F2CE801046F61AA2B2B6FBF8F3D8
:100D900008FB136642EA06440CFB03FCA44507D992
:100DA000E41903F1FF3202D2A44500F2B5801346E4
:100DB000CCEB040443EA00409CE729462846BDE802
:100DC000F087CEF1200106FA0EF307FA0EF720FAAB
:100DD00001F94FEA1748CE4049EA0309B6FBF8FA91
:100DE0004FEA194408FB1A661FFA87FC44EA0643D7
:100DF0000AFB0CF29A4200FA0EF40AD9DB190AF146
:100E0000FF3180F087809A4240F28480AAF1020A82
:100E10003B449B1A1FFA89F9B3FBF8F108FB113325
:100E200049EA034301FB0CF69E4207D9DB1901F1A5
:100E3000FF326BD29E4269D902393B449B1B41EA87
:100E40000A418EE7C1F1200E22FA0EF48B402343B3
:100E500020FA0EF706FA01F44FEA134C26FA0EF6C2
:100E60003C43B6FBFCF9270C0CFB19661FFA83F810
:100E700047EA064609FB08F7B74202FA01F200FA10
:100E800001FA08D9F61809F1FF3041D2B7423FD92B
:100E9000A9F102091E44F61BA0B2B6FBFCF40CFB40
:100EA000146640EA064704FB08F8B84507D9FF185E
:100EB00004F1FF3028D2B84526D9023C1F4444EA49
:100EC0000940C8EB0707A0FB02894F4544464E4640
:100ED00014D329D065B3BAEB040367EB060707FA0E
:100EE0000EFECB40CF404EEA030385E88800002188
:100EF000BDE8F0871346F8E61046E0E6B8EB0204DA
:100F000069EB03060138E5E70446D8E7114695E7A3
:100F10008146C0E78A467CE7023B3C4448E70846F6
:100F20000AE702383E442FE7C245E7D33E46D1E701
:100F30002946BDE8F08700BF704700BFF0B500222A
:100F400083B00023CDE900231A4E1B4BD6E90001E4
:100F50004A1C08BFB0F1FF3FCDE9000108BF1E46A3
:100F600006F104070CBF4FF0000E4FF4803E002541
:100F7000AB197C19A34208D26A46F3E80201A342E6
:100F8000E2E80201F9D3DDE900014B1C08BFB0F132
:100F9000FF3F03D00835B5F5803FE9D1074A08483F
:100FA000136873441D4485428CBF002001201560E6
:100FB00003B0F0BD00F80E0800F80D080000002096
:100FC0005FF20F082DE9F843054601F0EDFC1D4BDB
:100FD0009A694CF2FA3142F000429A6119616DB39C
:100FE0006E1EF6B2184F194CDFF86480ED00013622
:100FF0007F1B04EBC60645464FF0010904E04FF0A5
:1010000000090834A64211D0D8F800309F424FF0B2
:1010100000001946F3D9D4E9002301F069FC50B966
:101020002B6808340833A6422B60EDD101F0CEFCCA
:101030004846BDE8F88300F0D3FFE2E74FF001092E
:10104000F4E700BF0020024000F80F089C330020A6
:101050000000002010B586B00023294A01930293B6
:10106000136813F4807F274B1A884FF6FF730FD154
:101070009A4242D0244B25495202134003F10063A7
:101080008B4234D80221214A0391D21AD30A0FE0AD
:101090009A422ED01C4B1D495202134003F10063AB
:1010A0008B4298BF0121EED90223039340F2BF1374
:1010B00040220493059201F077FC154B9A694CF29B
:1010C000FA3042F000429A6101A9186102A801F0C9
:1010D000CDFC40B9012401F079FC0E4B0B4A1A609B
:1010E000204606B010BD00F07BFF0024F3E701238B
:1010F000DBE701230393BF23DAE70223FAE700BF0C
:1011000000000140E075FF1F00FE1F0000F80D0801
:10111000002002400000002099B10A4A30B40023A8
:101120000D4600F10804A04203F1010303D2D0E907
:101130000001C2E90001AB4202F108022046F0D1F1
:1011400030BC70479C330020044B1B780371322164
:101150000822032341718271036070470800002058
:101160000268012A40F28880F0B50679322E83B0F9
:1011700002D0002003B0F0BD84790C2C054600F0AD
:10118000AE8151D8052C00F0558177D8012C00F0A4
:101190001E81022CEDD1032AEBD19B4B42790271C7
:1011A00003F10801EA1D05F10F048220914288BF76
:1011B0009C426E71A87100F2C681510740F0C38154
:1011C000083BD3E90201C2E90001D3E90401C4E903
:1011D0000001D3E9060105F11702C2E90001D3E9D4
:1011E000080105F11F02C2E9000193F8282085F8E3
:1011F000272093F8292085F8282093F82A2085F8BD
:10120000292093F82B2085F82A2093F82C2085F8A4
:101210002B2093F82D3085F82C30292328462B607D
:1012200000F05CFA0120A5E7622C00F0DD8058D8C0
:101230000E2C00F0C180602C9BD1022A99D04379FA
:10124000724A2B71E023AB7110686E710DF10701CA
:1012500005F0D2F99DF80730012B00F0A580002B96
:1012600000F0CA80022B53D104220321E81D00F0B4
:10127000FBFF07232B604BE000207047082C4CD06D
:10128000092C7FF476AF022A3FF473AF604B6148BC
:1012900000241C7003F01AFD5C4B186805F094F9EB
:1012A0005D4B186805F0C8FB5C4B186804F034FF10
:1012B0005B4B186804F034FD5A4B186804F076FE56
:1012C000594B186804F0CCFFAB796979574A2971FA
:1012D000803B2846AB716E71146000F0FFF901206D
:1012E00048E7762C4DD07A2C7FF443AF022A3FF4A6
:1012F00040AF43794C4A2B71FA23AB7110686E7181
:101300000DF1070104F0C4FF9DF80730002B73D0E6
:10131000284600F0E3F901202CE7022A3FF429AF28
:101320000421073000F094FF404CC307206000F117
:101330000481870700F1FB80460700F1F280C106B7
:1013400000F1E980820600F1E080430603D5364BC8
:10135000186804F075FF2F482D4E03F0ABFCAB79F5
:1013600033496A790A70803B0124322003213470AA
:101370006871AB7128462A71296000F0AFF92046E8
:10138000F8E6022A3FF4F5AE4379264A2B71F6239C
:10139000AB7110686E710DF1070104F01FFE9DF82E
:1013A00007304BB3012BB3D104220221E81D00F01A
:1013B0005BFF07232B60ABE7032A7FF4DAAE4179AA
:1013C00002608E230171467183710120D2E6032AE7
:1013D0007FF4CFAE41790260812301714671837140
:1013E00000F07CF92046C5E6022A3FF4C2AE4379FC
:1013F0000371E2234671837104220121E81D00F08C
:1014000033FF07232B6083E7100000201407002020
:1014100023070020483A00200C0700201007002076
:10142000000700200407002008070020F006002025
:1014300008000020022A3FF49CAE484F484B3A680F
:101440004848134404224FEA136E1E0C190AAC18C4
:10145000EB716E71A97141F2883385F804E02A605E
:10146000214603F0F3FD404E3B68B34230D93F4D77
:1014700030460421FFF750FE2B686868A968D5F84C
:101480000CE023606060364B3868A16006F50062AE
:10149000034492B29A1AC4F80CE0202A2B696869B6
:1014A000A969D5F81CE0C4F81CE028BF202292B23C
:1014B0002361606141F28833A1612A482B4903F01E
:1014C000C5FD0A2001F02CF83B682036B342CFD886
:1014D000FFF7C0FD002005F009FB01204AE6022AC3
:1014E0003FF447AE437903718C2203234671827126
:1014F0000360427A017AC07900F058FD6B7B2A7B49
:10150000E97AA87A00F03AFD02E7194B186804F06E
:101510003DFD206819E7174B186804F0F1FB2068BF
:1015200010E7154B186804F0E7FD206807E7134B38
:10153000186805F071FA2068FEE6114B186805F08E
:1015400033F82068F5E60F4BAA1D03F1260013F8C7
:10155000011F02F8011F8342F9D15EE6000000205E
:101560000008F2F78C34002000F80D089C330020AE
:101570000407002000070020100700200C070020AF
:10158000140700200F00002010B5044682B00DF0B3
:1015900013F920460DF1030104F0DAFB9DF8033046
:1015A0007BB1012B0BD16E21772275238DF80410AE
:1015B0008DF805208DF8063001A80DF021F902B054
:1015C00010BD65216E2275238DF804108DF805205D
:1015D0008DF80630F0E700BF0DF09EB910B50C464F
:1015E0000EF0E6FB206010BD2DE9F04F814683B080
:1015F000374800F02BF918B1002003B0BDE8F08F98
:10160000334800F081F9334BC0F500709C8883B2F9
:10161000A34236BFC4F5007BC4EB030B9B4401938C
:101620001FFA8BF30093002BE6D04FF0000ADFF88F
:10163000A8B05546D046564605E00136009B1FFA35
:1016400086F843453CD9621C1BF8043094B2B4F5CB
:10165000007F28BF0024F02BEFD11E4B9C880EB3D7
:10166000002701E047451DD204F1010ACAF3080A28
:1016700009EB05021BF804001BF80A10043200F005
:1016800009FDC0B283B21F4401352344BFB2C3F386
:101690000804ADB20028E5D10E4BA3F804A003B0B6
:1016A000BDE8F08F01340B4BC9F80050C4F30804B7
:1016B00048469C8000F066FD0028BED001209CE7D3
:1016C000B3F5807F98D9034BBDF804209A8093E747
:1016D0003C340020843400204435002070B5084C90
:1016E000054600F0E9FC2946204600F0A3FC21460F
:1016F00082B241F288330348BDE8704003F0A6BCD3
:10170000443700208C340020334BF0B5DA6C334C76
:1017100042F00102DA64DA6C8BB002F0010201924D
:10172000019ADA6C42F00102DA64DA6C02F001022A
:101730000292029A9A6D42F400329A659A6D02F40E
:1017400000320392039A9A6C42F001029A649B6CF5
:1017500003F0010300250422049305A902230726B0
:101760004FF09040059206930893049F07950996C1
:1017700001F088FA08234FF0904005A905930996D7
:1017800001F080FA164B174A1B68636020460C2351
:10179000A560E5602561A5612260636103F0CCFD71
:1017A00010B100F01DFCFEE70F4D104E0746284615
:1017B00000F0AEF8284600F031FF4FF400733146D8
:1017C0001A4620466566AC62E7666665A4F858303E
:1017D00003F0BCFC0BB0F0BD001002408C340020C4
:1017E00038000020004400403C34002044350020F4
:1017F000F0B597B01020012302226027002628258B
:1018000007240421059005A80B93109311930D97BD
:101810000C960F92159212951394149102F01AF8E7
:1018200080B900230F24032204216846009401920A
:1018300002930393049302F025FB08B100F0D0FB60
:1018400017B0F0BD00F0CCFBEBE700BF0368294AFE
:10185000934219D9284902F560728B4212682FD041
:1018600014318B4232D014318B4231D014318B423F
:1018700037D014318B423AD0204883420CBF4FF40A
:1018800000034FF000631CE01D4A1E4993420868A4
:1018900013D01432934217D0143293421ED0143214
:1018A000934221D01432934215D0143293420CBF8C
:1018B0004FF400034FF0006300E008231840704726
:1018C000082303EA020070478023F7E78023F8E744
:1018D0004FF40063F5E74FF40023EFE74FF40063A4
:1018E000ECE74FF40043ECE74FF40043E6E74FF436
:1018F0000023E6E780000240080402406C04024036
:10190000080002400000024003685868704700BFAA
:1019100030B4094B03608025002320244FF440514C
:1019200002220561C461016242608360C360436159
:10193000836130BC704700BF6C00024070B5104D31
:1019400086B0044601A90022284603F029F869461A
:101950002846002203F006F99DF801609DF8025028
:101960009DF803009DF804109DF805209DF80630B1
:1019700026706570A070E1702271637106B070BD51
:10198000CC06002070B54D4C636ADB0684B058D598
:101990004B4BDFED4C7A93ED006AD3ED016A93ED8A
:1019A000027A94F82830B8EEC66AF8EEE66AB8EE25
:1019B000C77AC6EE275A012B86EEA76AC7EE276ABA
:1019C000CDED015A8DED026ACDED036A54D03B4E48
:1019D00001A806F12901FFF7FFFD94F82850012D19
:1019E00042D085B3012D00D0FEE7374B1A78012A8B
:1019F00046D094F83000314E13282CD894F8292082
:101A000094F831302D4E9A4213D0304D05EBC00082
:101A1000FFF794FF96F8303096F8292086F83120A9
:101A200005EBC3050133D8B2012386F83000AB7152
:101A3000EA71E36A214C43F69722934236D8013388
:101A4000E36204B070BD94F829102148042200F02C
:101A50000BFC04B070BDFFF7B5FA08B986F8325038
:101A6000002084F83000C9E7002005F03FF896F820
:101A70002850002DB6D1E6E7002005F02DF8A6E7A6
:101A8000124E002530461D70E56284F83050FFF795
:101A900055FF94F8303084F8315006EBC30601331B
:101AA000B571F57184F8303004B070BDFFF78AFA73
:101AB0000023E36284F8303004B070BDCC0600200F
:101AC000843A002000007A443C0000209C3300202F
:101AD0007F39002030B5154C636A83B00022DB06E5
:101AE0008DF8072001D403B030BD0DF10701606B04
:101AF00004F026F90028F6D19DF80730012BF2D129
:101B00000B4D606B294604F02BF929680948042223
:101B100000F0AAFB69680848042200F0A5FBA96848
:101B20000648042200F0A0FBDDE700BFCC06002041
:101B3000843A00205B3900205F390020633900209F
:101B40002DE9F04FA1B000F0D1FCFFF751FE0020CD
:101B500004F09CFF0121002004F0DAFFBA4BBB4CDB
:101B60009A6C42F480529A649B6C03F4805304F1A3
:101B7000340102934FF0FF30029B03F0DBFF9FED37
:101B8000B40A606B04F0FEF80221606B04F00AF9FD
:101B900004F138014FF0FF3004F014F904F13C0176
:101BA0004FF0FF3004F0E2FA04F140014FF0FF3053
:101BB00004F03CFD04F144014FF0FF3004F028FA3A
:101BC00004F148014FF0FF3004F07CFB606BFFF73D
:101BD000DBFC01A906A8FFF701FD0125FFF794FD35
:101BE0000C2200230FA80F9219931493119501F062
:101BF00031FE7F22E8B1F923E564A260E36023654A
:101C0000944B236040220023904862602361A361CB
:101C1000E36102F0A3FD00B1FEE720AE8E4B46F873
:101C2000743D01223146894802F0F0FE034630B18E
:101C3000FEE7FF23E064A260E3602365E0E741F292
:101C4000080501220FA98148129313930F9502F002
:101C5000E3FD074600B1FEE7804D8149A86049F6E3
:101C60003F422723286128466A602960EB6002F022
:101C7000A9FF4FF480530FA928460F9303F03CF8B7
:101C8000314628460397059703F0B0F9FFF756F958
:101C9000DFF8D49189F80100002840F0C08004F0FA
:101CA0001BFF704F694D07F1130B31E094F8323090
:101CB0009BB14FF00008694885F8328003F006F8C0
:101CC000686B04F02DF86B6A95F8300023F0100370
:101CD0006B62FFF777F985F8288094F8553093B157
:101CE00000234FF00108686B85F8553089F80080B3
:101CF00004F006F86B6A594843F010036B6202F077
:101D0000D9FF85F8288094F85630DFF840815BBB16
:101D10005448FFF769FC20B1524B1B79322B00F07D
:101D2000898094F85430002BC0D00023184685F8E1
:101D3000543004F0DBFEFFF78DF94FF0030800206C
:101D400004F0DEFE4FF4FA7000F0EAFB002004F02D
:101D5000D7FE4FF47A7000F0E3FBB8F10108EED142
:101D6000012389F80130A1E798F828A0002388F81A
:101D70005630BAF1000F08D0BAF1010F00D0FEE7DB
:101D8000FFF7A8FEFFF7FEFDC2E752460FA9404647
:101D900002F006FE52463146404602F0E3FED8F815
:101DA0005010109B9DF83C209DF83D00FA71CB1A15
:101DB000642238729DF83E007872013102FB03F311
:101DC00093FBF1F3BB72FFF785FED8F824308DF852
:101DD0000CA09B0600F1A080636A002258068DF8D3
:101DE0000C2067D4636A002259078DF80C207FD439
:101DF000636A00228DF80C209A0749D4636A002296
:101E0000DB078DF80C2031D4FFF7BCFD1548FFF738
:101E10009BF93B2313483B60FFF760FC78E73846AB
:101E200004F05AFE4FF4FA7000F07AFB384604F0E2
:101E30005DFE36E794F82830002B7FF472AF094836
:101E4000FFF78EF96DE700BF00100240CC060020BE
:101E5000000048420028004001032116483A0020B3
:101E600000040040443900203C0000203146A86CAA
:101E700004F0BAFB0028C7D19DF80C30012BC3D168
:101E80000FA9A86C04F0C0FB344B0F981860BBE797
:101E90003146286C04F0E0FD0028AFD19DF80C30ED
:101EA000012BABD10FA9286C04F0DEFD2C4B0F9851
:101EB0001860A3E73146E86B04F0E2F9002891D1FD
:101EC0009DF80C30012B8DD10FA9E86B04F0E8F9D7
:101ED0000F992448042200F0C7F9109922480422DF
:101EE00000F0C2F904221199204800F0BDF979E709
:101EF0003146686C04F020F900287FF479AF9DF832
:101F00000C30012B7FF474AF0FA9686C04F01CF93E
:101F10000F98CBF800006BE73146D8F8380004F092
:101F200055F800287FF458AF9DF80C30012B7FF452
:101F300053AF0FA9D8F8380004F058F80F990C489F
:101F4000042200F091F910990A48042200F08CF95B
:101F500004221199084800F087F93DE74F39002025
:101F60005339002073390020773900207B39002055
:101F7000673900206B3900206F39002010B500242C
:101F800063F3070482B061F30F2462F3174402A9DC
:101F900060F31F6441F8044D0022034802F036FD4F
:101FA00000B1FEE702B010BDCC06002000B587B03E
:101FB00000238DF804008DF805108DF8062001A986
:101FC0001A4606488DF8073002930493059302F0F1
:101FD00023FC00B1FEE707B05DF804FBCC0600204F
:101FE000FEE700BFB0F5005F00D0704708B50020E5
:101FF00004F0D6FD30B9074B93F828201AB1012A16
:1020000005D0FEE708BD012283F8552008BD83F8FE
:10201000322008BDCC0600200268044B9A4200D052
:102020007047034B012283F856207047000400409C
:10203000CC0600200A68F0B5074642B300221046DD
:10204000CD1C4FF0F10C4FF0F20E09E0F12B1BD13B
:102050002370637002260B680130834232440FD92B
:1020600015F8013FF02B07EB0204EFD107F802C08F
:1020700084F801E00B680130022683423244EFD835
:10208000501CF023BB54F0BD01262370E3E7012070
:10209000F7E700BFF12802D0107001207047F12946
:1020A00003D0F22904D0002070471170022070473D
:1020B000F0231370022070470268002A5CD0F0B54C
:1020C000141FA408531E0134042B4FEA840550D971
:1020D00000273E4600F1040E5EF8043B03F07F311A
:1020E0006FEA030CC1F180310CF080334B4003F0F8
:1020F0007F310137734006F07F3603F080330E44A2
:10210000BC4286EA0306E7D8C6F307233344C6F386
:1021100007441C4404EB166395422946DBB223D0E6
:1021200045184C1C2D799442A3EB0503DBB21BD25E
:1021300005198C1C2D79A242A3EB0503DBB213D940
:102140000519CC1C2D79A242A3EB0503DBB20BD9F8
:102150000444043124798A42A3EB0403DBB203D99B
:10216000014409795B1ADBB2511C0244137101600E
:10217000F0BD00210B46D3E7134602440121137141
:10218000016070470168F0B500295CD00D1FAD08F3
:102190004F1E0135062F4FEA850251D900263346DE
:1021A00000F1040C5CF8044B013604F07F3E5C4007
:1021B00003F07F3304F080347344AE4283EA0403B7
:1021C000F0D3C3F307241D19C3F307442C4404EBD5
:1021D00013639142DBB22DD08518541C2D798C42AB
:1021E0002B44DBB226D20519941C2D79A1422B4435
:1021F000DBB21FD90519D41C2D79A1422B44DBB2C7
:1022000018D90519141D2D79A1422B44DBB211D91F
:102210000519541D2D79A1422B44DBB20AD904447F
:102220000632247991422344DBB203D90244127965
:102230001344DBB2B3FA83F35B0907601846F0BDC1
:1022400000221346C8E701234FF0FF37F5E700BF30
:1022500001394318425C29B113F8011D984201EB82
:102260000222F9D11046704732B1024400F8011B36
:1022700090424FEA2121F9D1704700BF284B00B5A9
:102280009A6D42F080529A659B6DB5B003F0805311
:102290000093009B01F018FA224B1B680C2133BB02
:1022A000012201A80B9306930191039201F0D2FA47
:1022B00098BB4FF400324FF4807312A812923393FC
:1022C00002F034F808B1FFF78BFE154AD2F89030CF
:1022D00043F40043C2F890300F210022292000F07F
:1022E0003FF9292000F074F935B05DF804FB0023B4
:1022F000012201A801910B930393069201F0AAFA1F
:1023000020B94FF400324FF40073D6E7FFF768FEB0
:102310004FF400324FF40073CFE7FFF761FEC8E7D8
:10232000001002401807002002680E4B9A4200D0AD
:10233000704703F5033300B59A6D42F002029A65C7
:102340009B6D83B003F00203019300220F211D2037
:10235000019B00F005F91D2000F03AF903B05DF88B
:1023600004FB00BF00040040704700BFFEE700BF51
:10237000704700BF00F0C6B8014802F08DBD00BF35
:10238000483A0020124B5A69920419D5114A127822
:102390009AB9114B10B51C789CB940F6AC5000F0BE
:1023A000BFF8204604F0FCFB10B90C4B01221A7058
:1023B000074B4FF400525A6110BD4FF400525A615E
:1023C00070474FF40050BDE8104000F085BD00BFDD
:1023D00000040140230700203D00002020070020CA
:1023E00070B5161E07DD0C468D19AFF3008004F89A
:1023F000010BA542F9D1304670BD00BF70B5161E65
:1024000007DD0C468D1914F8010BAFF30080A542CF
:10241000F9D1304670BD00BF0A4A08B5136873B1E0
:1024200018446946884202D81060184608BD0EF06C
:1024300005F80C2303604FF0FF33184608BD024B2C
:102440001360EDE724070020D43A00204FF0FF305E
:10245000704700BF4FF400534B600020704700BF2F
:102460000120704700207047DFF834D0002103E0DE
:102470000C4B5B58435004310B480C4B42189A42AA
:10248000F6D30B4A02E0002342F8043B094B9A4280
:10249000F9D303F063F90DF0D7FFFFF751FBFEE727
:1024A00000800120C817010800000020B0060020AD
:1024B000B0060020D43A0020FEE70000704700BFBD
:1024C000084B094A1B6810B5A2FB03230446980970
:1024D00000F08AF8214600224FF0FF3000F040F86B
:1024E000002010BD40000020D34D621008B503202D
:1024F00000F024F80F20FFF7E3FFFFF7DFFF0020D5
:1025000008BD00BF024A136801331360704700BF63
:10251000903A0020014B1868704700BF903A0020A5
:1025200038B50446FFF7F6FF631C054618BF0134B3
:10253000FFF7F0FF401B8442FAD838BD074AD16844
:102540004FF6FF030B40000243F0BF6300F4E0606E
:1025500043F400330343D360704700BF00ED00E055
:10256000194BDB68C3F3022330B4C3F10705042D14
:1025700003F1040428BF0425062C18D9033B0124C9
:102580009C40013C22400124AC40013C214001FA26
:1025900003F3002842EA03020CDB00F1604000F57F
:1025A00061401201D2B280F8002330BC7047002293
:1025B0001346E8E7054B00F00F0012010344D2B2C6
:1025C0001A7630BC704700BF00ED00E0FCEC00E084
:1025D00000F01F0101234009024A8B4042F82030DD
:1025E000704700BF00E100E00138B0F1807F0ED2FB
:1025F000084B10B4084C5860F02084F823000022E7
:10260000072110469A6019605DF8044B704701205D
:10261000704700BF10E000E000ED00E0002851D05E
:10262000F0B5324A04689442034641D9304A3149F0
:10263000DFF8D0E02244A1FB0212120992009F6849
:10264000DD681E695869C3F840E002213D4383F804
:10265000251035439969DE695A6405430D432068A6
:102660002E431D6A20F47F51354321F03001294368
:10267000B7F5804F21600FD01F498E4524D01F49E8
:102680000F200C68904024EA000008605C6808682D
:1026900004FA02F202430A6000200122D863D862E1
:1026A00018635863986383F8240083F82520F0BDED
:1026B000134A1049DFF840E02244A1FB021212093C
:1026C0009200BCE701207047D1F8A8400F2090404D
:1026D00024EA0000C1F8A8005C68D1F8A80004FA58
:1026E00002F20243C1F8A820D6E700BF0704024067
:1026F000F8FBFDBFCDCCCCCC00000240A8040240CA
:10270000F8FFFDBF00040240F0B590F82440012C12
:102710000CD090F825400125E4B2AC4280F824505A
:1027200006D0002380F824300220F0BD0220F0BD46
:1027300005680227002680F82570C6632E68076C9E
:1027400026F0010E466CC5F800E0B44086687C6057
:102750006B60036B102E0BBFAA60A960E960EA6092
:102760004BB12B6843F00E032B602B6843F0010341
:102770002B600020F0BD2B6823F004032B602B6836
:1027800043F00A032B60F0E7354B1B699A0704D529
:10279000344A536843F001035360314B1B691B07F4
:1027A00004D5304A536843F0020353602C4B1B6935
:1027B000D80604D52B4A536843F004035360284BD2
:1027C0001B69990604D5274A536843F008035360F0
:1027D000234B1B695A0604D5224A536843F0100361
:1027E00053601F4B1B691B0604D51E4A536843F0F8
:1027F000200353601A4B1B69D80504D5194A536846
:1028000043F040035360164B1B69990504D5154AE4
:10281000536843F080035360114B1B695A0404D57D
:10282000104A536843F4807353600D4B1B691B04BB
:1028300004D50C4A536843F400735360084B9B69FA
:10284000002B04DA074A536843F480635360044B57
:102850009A694CF2FA3142F000429A61196170476C
:1028600000200240943A002038B5FFF753FE1F4D78
:1028700000F5434450342A691C4BD20305D5FFF7B9
:1028800049FE8442F7D8032038BD1A69900726D440
:102890001A69110723D41A69D20620D41A69950639
:1028A0001DD41A6954061AD41A69100617D41A6965
:1028B000D10514D41A69920511D41B695B040ED496
:1028C0000A4A136913F4004009D19369002B06DB0F
:1028D000136913F0010306D00123136138BDFFF71C
:1028E00053FF012038BD184638BD00BF002002400C
:1028F0002DE9F8432A4D2C78012C02D10220BDE8A5
:10290000F8839846012391460E4607462B70FFF741
:10291000ABFF044600BB234A6860136813F480636E
:102920001FD01368022123F4806313602977D7B97D
:102930001C4A536943F0010353616FF00107C6F865
:102940000090C6F80480FFF78FFF164A53693B409A
:102950000446536100F062F9002320462B70BDE865
:10296000F8832B77E3E77B1E012B03D9FFF77CFF6E
:102970000446EFE70B494B6943F480234A464B6119
:1029800072B6B11A09F58074136853500432944238
:10299000FAD162B6022FE9D16FF48027D3E700BFE6
:1029A000943A002000200240054B5A69002A01DBBE
:1029B000012070470349044A996000209A607047DB
:1029C0000020024023016745AB89EFCD034A5369DC
:1029D00043F0004353610020704700BF00200240D5
:1029E00070B50446FFF796FD1F4D0619601C32D1E5
:1029F0001D4A1369D903FCD41B4B1A69900726D4CE
:102A00001A69110723D41A69D20620D41A699606C6
:102A10001DD41A6955061AD41A69140617D41A69EE
:102A2000D00514D41A69910511D41A6952040ED430
:102A30001B691B040BD40C4A9369002B07DB136939
:102A400013F001031CBF01231361002070BDFFF7C9
:102A50009BFE012070BD2B69DB03CDD5FFF75AFD2E
:102A60008642C3D8032070BD002002402DE9F04704
:102A7000DFF8A49199F80030012B02D10220BDE8C3
:102A8000F087054601244CF250300F4689F800408B
:102A9000FFF7A6FF064600286FD15E4BC9F8040079
:102AA0001A6812F4007F1A680DD022F400721A60BE
:102AB0001A6850056FD51A68032122F480621A60E3
:102AC00089F81C1003E051055DD489F81C002B68BF
:102AD000012B7FD04FF0FF333B60D5F808A0EB68A7
:102AE00053449A4536D24B4C4FF4FF6806E0AA682F
:102AF000EB680AF1010A134453452BD96B6813F0B4
:102B0000010F636914BF23F4006343F4006363613E
:102B1000636998FAA8F2B2FA82F20AFA02F223F48E
:102B2000FF6313436361636943F002036361636995
:102B300043F4803363614CF25030FFF751FF636917
:102B400023F4FF6323F0020363610028CFD0C7F8AA
:102B500000A0064699F81C302F4A012B2CD0137F79
:102B6000032B29D099F81C302B4A022B16D0137F47
:102B7000032B13D0002389F81C300023304689F83A
:102B80000030BDE8F0871A68022122F480621A60E2
:102B900089F81C109BE789F81C4098E71D4B1A68C0
:102BA00042F480521A601A6822F480521A601A683D
:102BB00042F480621A60DDE7164B1A6842F4006244
:102BC0001A601A6822F400621A601A6842F40072ED
:102BD0001A60C7E76B68DA0704D50E494A6942F004
:102BE00004024A619B0704D50A4A536943F400432F
:102BF0005361084C636943F4803363614CF2503095
:102C0000FFF7EEFE636923F4004323F00403064656
:102C100063619FE700200240943A0020174B1A7F1F
:102C2000012A1CD01A7F032A19D01A7F1349022ABD
:102C300005D00A7F032A02D000221A777047104A73
:102C4000116841F480511160116821F480511160C4
:102C5000116841F48061116000221A777047084AB8
:102C6000116841F400611160116821F40061116084
:102C7000116841F400711160D7E700BF943A002059
:102C8000002002408C460968002900F003812DE9EC
:102C9000F04FDFF820E283B0002588E04FEA4508D6
:102CA0000323D0F8009003FA08F3DB4304F0030A8F
:102CB00009EA03090AFA08FB013F4BEA0909012F57
:102CC000C0F8009040F2A780BAF1030F00F0BB807B
:102CD000C768DCF808203B4002FA08F21343C360DF
:102CE000E30060D56C4B6C4A1B6E43F00103136626
:102CF000136E25F0030202F1804203F0010302F596
:102D00008032019305F00303019FD2F808909846A2
:102D10000F279B009F40B0F1904F29EA070900F070
:102D20009F805E4FB84200F09D805D4FB84200F03A
:102D30009D805C4FB84200F09E805B4FB84200F02F
:102D40009F805A4FB84200F0A080594FB8420CBF44
:102D50004FF006084FF0070808FA03F343EA0903A7
:102D60009360DEF80030F243E7034CBF3343134077
:102D7000CEF80030DEF80430A7034CBF33431340D5
:102D8000CEF80430DEF80830E7024CBF334313407E
:102D9000CEF80830DEF80C30A40254BF02EA030675
:102DA0001E43CEF80C60013531FA05F355D00123EE
:102DB00003FA05F212EA0106F5D0DCF8044024F02B
:102DC0001007022F7FF46AAF4FEAD50A00EB8A0A98
:102DD00005F00709DAF82030DCF810704FEA8909AD
:102DE0004FF00F0808FA09F823EA080807FA09F370
:102DF00043EA0803CAF820304FEA4508032307686E
:102E000003FA08F3DB4304F0030A1F400AFA08F947
:102E100049EA07070760876807EA0309DCF80C70CE
:102E200007FA08F747EA090787604768C4F30019FB
:102E300027EA020709FA05F949EA0707BAF1030F79
:102E400047607FF445AFC76AC4F3C00927EA0202AE
:102E50004F46AF403A43C2623AE703B0BDE8F08F55
:102E600000237BE7012707FA03F377E74FF0020817
:102E700008FA03F372E74FF0030808FA03F36DE76B
:102E80004FF0040808FA03F368E74FF0050808FA62
:102E900003F363E7704700BF0010024000040048DE
:102EA00000080048000C00480010004800140048CA
:102EB00000180048000401400369194214BF0120B2
:102EC000002070470AB9816270478161704700BF76
:102ED0004369594041617047044A5169014200D138
:102EE000704708B55061FFF77DF808BD0004014048
:102EF00070B504460D4616466B1C226828D19369AE
:102F0000980728D49369D906F9D593699D06FCD50D
:102F100010212023D161D3619369980744BF002316
:102F200093629369D90703D4936943F001039361D2
:102F300051681F4B04250B4020200021536065641D
:102F400084F8401084F8410084F84210012070BDDC
:102F500093699B0701D5002070BD9369D90619D4E8
:102F600025B1FFF7D7FA801B8542C5D2636C2021BB
:102F700000220B43636484F8402084F8411003204E
:102F800084F8422070BD4DB1FFF7C4FA801B854222
:102F900004D3226893699B06F5D5B9E70023202264
:102FA00084F8412084F8403084F84230012070BD1C
:102FB00000E800FE70B5044616460D4629B93BE010
:102FC000FFF7A8FA801B85423DD3226893699806D3
:102FD00046D49369D906F3D5681C22D19369990622
:102FE000FCD510212023D161D3619369980744BF98
:102FF000002393629369D90703D4936943F00103D3
:10300000936151681D4B04250B4020200021536023
:10301000656484F8401084F8410084F8421001206F
:1030200070BD93699B06DCD4E5B1FFF773FA801B92
:10303000854217D32268CFE7026893699B061BD4A9
:103040009369DB06C8D4636C202100220B436364C0
:1030500084F8402084F84110032084F8422070BD99
:10306000002070BD0023202284F8412084F84030E5
:1030700084F84230012070BD084670BD00E800FEB3
:103080002DE9F041D0F800E0294CDEF80470069EEE
:103090003C40C1F3090144F400541F462143DBB214
:1030A00041EA03419046CEF80410079A314605469E
:1030B000FFF71EFF60B9012F044610D02B684FEABE
:1030C00018229A623146079A2846FFF711FF30B15D
:1030D0006B6C042B1FD003242046BDE8F0812968C7
:1030E0005FFA88F38B62731C07D18B6903F040038E
:1030F000002BFAD02046BDE8F0818B6903F0400335
:10310000002BE9D15EB1FFF705FA079BC01A864292
:1031100005D32968E7E701242046BDE8F0810023B4
:10312000202285F8412085F8403085F84230D2E7EA
:10313000009800FC2DE9F84307682B4CD7F804E011
:10314000089E0EEA040444F08074C1F3090144F4BB
:1031500000540C43D9B244EA014491467C60099A78
:10316000314605469846FFF7C3FE68B9B8F1010F2E
:10317000044610D02B684FEA19229A623146099A08
:103180002846FFF7B5FE30B16B6C042B1FD003242B
:103190002046BDE8F88329685FFA89F38B62731CC7
:1031A00007D18B6903F08003002BFAD02046BDE8DD
:1031B000F8838B6903F08003002BE9D15EB1FFF740
:1031C000A9F9099BC01A864205D32968E7E70124BB
:1031D0002046BDE8F8830023202285F8412085F8A9
:1031E000403085F84230D2E7009800FC704700BFBD
:1031F000002850D0F8B590F84130044603F0FF02A3
:10320000002B3FD02368E068242284F8412019680D
:10321000626821F0010122F0706219601A619A68F7
:10322000012822F400429A60A26830D042F404429D
:1032300002289A6004BF4FF400625A6058686169BE
:10324000256A2269A769E66940F0007040F40040F1
:103250005860D8680A4342EA072246EA050120F48A
:103260000040D860DA6019601968002241F001015D
:10327000202519601046626484F84150226384F866
:103280004220F8BD80F84020FFF7B0FFBAE742F4D3
:1032900000429A60D2E70120704700BF704700BF2C
:1032A000B0B10268242310B580F84130136823F0D0
:1032B000010304461360FFF7F1FF0023636484F801
:1032C000403084F841301846236384F8423010BD02
:1032D000012070472DE9F04790F8414082B0202C42
:1032E000BDF82C5003D0022002B0BDE8F0870A9C44
:1032F000002C40D0002D3ED090F84040012CF2D060
:103300001F46012380F84030164688460446FFF7E2
:1033100001F9814605E0FFF7FDF8C9EB0000192827
:103320002BD82368986900F400400028F3D10A9B49
:103330006362212040214FF0000A0C9B0093CDF8DE
:1033400004903B4684F84100324684F84210C4F8A9
:1033500034A0C4F844A0414665852046FFF7EAFE44
:10336000A0B1636C84F840A0042B04D00320BBE719
:10337000636C042BFAD10120B6E70023202284F8E5
:10338000412084F8403084F84230EFE7638D9BB2EF
:10339000FF2B67D92268474B51680B4043F0FF73FE
:1033A000C8F3090843F4803348EA0303FF21218569
:1033B0005360FF2503E0638D9BB2002B64D04A4627
:1033C0000C992046FFF794FD0028D1D1626A21684C
:1033D000238D501C606212788A62628D013B013A33
:1033E00092B29BB262852385002BE4D1638D9BB2A0
:1033F000002BE0D00C9B013314D18B6903F08003C8
:10340000002BFAD0638D9BB2FF2B1CD94A68294B45
:103410002585134043F0FF7343F4803348EA0303E8
:103420004B60C8E78B6903F08003002BEAD10C9B4B
:10343000002BA2D0FFF76EF80C9BC9EB0000834273
:103440009BD32168D7E7628D1A4B486892B203403C
:1034500043F00073D0B243EA004348EA03032285F5
:103460004B60A8E72168628D124B486892B2034016
:1034700043F00073D0B2C8F3090843EA004348EAB6
:10348000030322854B6094E74A460C992046FFF7D8
:1034900091FD00287FF46CAF2368074A2021D96191
:1034A0005D682A405A6084F8411084F8400084F82E
:1034B000420019E7009800FC00E800FE2DE9F04703
:1034C00090F8414082B0202CBDF82C5003D002204F
:1034D00002B0BDE8F0870A9C002C48D0002D46D0F1
:1034E00090F84040012CF2D09946012380F84030FA
:1034F00017460E460446FFF70DF8804605E0FFF735
:1035000009F8C8EB0000192841D82368986900F42D
:1035100000400028F3D10A9B6362222040214FF033
:10352000000A0C9B0093CDF804804B4684F84100C0
:103530003A4684F84210C4F834A0C4F844A0314696
:1035400065852046FFF79CFD58B3636C84F840A066
:10355000042B0CD00320BBE742460C992046FFF712
:1035600029FD002800F09980636C042BF2D1012022
:10357000AEE7936903F08003002B5FD10C9B33B15E
:10358000FEF7C8FF0C9BC8EB000083424ED200231D
:10359000202284F8412084F8403084F8423003200F
:1035A00096E7638D22689BB2FF2B64D95168424B2A
:1035B0000B4043F0FF73C6F3090643F492333343E1
:1035C000FF21218553600C9BFF2501331CD193699A
:1035D00003F00403002BFAD0636A526A591C61623B
:1035E0001A70238D628D013B013A9BB292B2238502
:1035F000628513B9638D9BB2BBB9638D9BB2002BFF
:10360000AAD022680C9BE0E7936903F00403002B27
:10361000E2D10C9B002BBAD0FEF77CFF0C9BC8EBD1
:1036200000008342B3D32268CFE70C9B22680133AA
:103630009FD1936903F08003002BFAD0638D9BB276
:10364000FF2B0AD951681C4B25850B4043F0FF73B3
:1036500043F4803333435360CFE7618D164B50689A
:1036600089B2034043F00073C8B243EA00433343D6
:1036700021855360C1E7618D0F4B5068034089B2CB
:1036800043F00073C8B243F41053C6F3090643EA8B
:10369000004333432185536095E72368074A20217F
:1036A000D9615D682A405A6084F8411084F840006E
:1036B00084F842000CE700BF009800FC00E800FE20
:1036C00090F84100704700BF024A136843F48073CA
:1036D0001360704700700040024B186800F4C0602F
:1036E000704700BF00700040564B9A6812F00C0FF4
:1036F00010B421D09A6802F00C020C2A17D0514A5B
:10370000936803F00C03042B00F08480936803F0AB
:103710000C03082B00F092800020044649498A6877
:1037200002F00C020C2A24D05DF8044B7047DB68D1
:1037300003F00303012BE2D1424B1A6812074CD568
:103740001B68F02292FAA2F2B2FA82F203F0F003BE
:10375000D3403D493B4A51F823409268394912F021
:103760000C0F8A6802F00C020CBF204600200C2AC5
:10377000DAD1C868CA68702393FAA3F302F0700222
:10378000B3FA83F322FA03F300F00302022A03F1EF
:10379000010342D0032A2CD0CA684FF4FE4090FAAD
:1037A000A0F0B0FA80F002F4FE42C240B4FBF3F3A2
:1037B00003FB02F3234A4FF0C060D26890FAA0F0F6
:1037C000B0FA80F002F0C06222FA00F0013040004E
:1037D0005DF8044BB3FBF0F07047D3F894304FF42E
:1037E000706292FAA2F2B2FA82F203F47063D340EA
:1037F000AFE7CA684FF4FE4090FAA0F002F4FE4230
:10380000B0FA80F022FA00F0104AB2FBF3F303FBA7
:1038100000F3CFE70E48002480E7CA684FF4FE406B
:1038200090FAA0F002F4FE42B0FA80F022FA00F022
:10383000074AB2FBF3F303FB00F3BBE703480024A2
:103840006CE700BF001002408412010800127A00E9
:103850000024F4002DE9F0410368DC0684B005463D
:1038600064D5B24B9A6812F00C0F40F052811B687D
:10387000980703D5AB69002B00F0D881AB4B2C6ABD
:103880001A68AA4E110756BFD3F894301B681B095B
:1038900003F0F003A34280F09981B36DDA0040F1A8
:1038A0005382FFF719FFB0F5007F00F09882802C5B
:1038B00000F2778200F0E082A4F17004B4FA84F49C
:1038C00064099B4A136823F00703234313601368BA
:1038D00003F007039C4240F0A981944B1A6842F020
:1038E00008021A6019682A6A21F0F0010A431A6076
:1038F0005A68E96922F47F4242EA01225A60FFF7DE
:10390000F3FE8A4B0146F0229B6892FAA2F2B2FAC9
:1039100082F203F0F003D3408648874AC35C0F204D
:1039200021FA03F31360FEF7CBFD2B68D9072FD5DF
:103930007E498A6802F00C02082A00F093818A68A6
:1039400002F00C020C2A00F087816B68B3F5803F0F
:1039500000F09281B3F5A02F00F01682734C22681C
:1039600022F480322260226822F480222260002B1E
:1039700040F08781FEF7CEFD064605E0FEF7CAFD62
:10398000801B642800F2B88123689F03F6D42B685B
:103990009E0732D565498A6802F00C02042A00F0BD
:1039A00084818A6802F00C020C2A00F07881EB68AE
:1039B0005E4C002B00F03E81236843F4807323604B
:1039C000FEF7A8FD064605E0FEF7A4FD801B0228D1
:1039D00000F292812368554A5805F5D551684FF099
:1039E000F85393FAA3F32869B3FA83F321F0F8515B
:1039F00000FA03F30B4353602B681A0719D56B6960
:103A00004A4C002B00F0CD80D4F8943043F00103F1
:103A1000C4F89430FEF77EFD064605E0FEF77AFD19
:103A2000801B022800F26881D4F894309B07F5D5FA
:103A30002B685E073ED53D4B9A6DD40000F1608146
:103A40009A6D42F080529A659B6D03F0805301930A
:103A5000019B0126394C2368D80540F13D81AB68B4
:103A6000012B00F0AD81052B00F04C812F4CD4F8D8
:103A7000902022F00102C4F89020D4F8902022F087
:103A80000402C4F89020002B40F04981FEF742FD6B
:103A900041F28837804606E0FEF73CFDC8EB0000A7
:103AA000B84200F22981D4F890309B07F4D4002E5C
:103AB00040F08081AA6A42B31C4B996801F00C0166
:103AC0000C2900F0B380022A1A6822F080721A6072
:103AD00000F08C811A68110103D41A68920040F139
:103AE0006481124CE36823F0887323F48033E3602D
:103AF000FEF710FD054605E0FEF70CFD401B022811
:103B000000F2FA8023689B01F6D4002004B0BDE8DF
:103B1000F0818269002A30D01A6842F001021A60EE
:103B20001C46FEF7F7FC064610E000BF00100240FE
:103B300000200240B4120108400000200070004044
:103B4000FEF7E8FC801B022800F2D6802368AA4A10
:103B50009F07F5D5136843F00803136011682B6ABB
:103B600021F0F0010B4313605368E96923F47F43AC
:103B700043EA012353602B68D8E61A6822F0010259
:103B80001A601C46FEF7C6FC064605E0FEF7C2FCBE
:103B9000801B022800F2B08023689807F6D42B68B7
:103BA000C4E6D4F8943023F00103C4F89430FEF74F
:103BB000B1FC064605E0FEF7ADFC801B022800F2D2
:103BC0009B80D4F894309F07F5D431E7336843F0F5
:103BD00008033360336823F0F003234333607368D2
:103BE000EA6923F47F4343EA02237360B36DDB0089
:103BF00040F1BA80FFF770FDB0F5007F00F0E8807B
:103C0000802C00F2D08000F03981A4F17004B4FA65
:103C100084F46409794A136823F00703234313608B
:103C2000136803F007039C423FF469AE012004B01F
:103C3000BDE8F081236823F480732360FEF76AFCFB
:103C4000064604E0FEF766FC801B022854D8236871
:103C50005905F7D42B68D0E6CA6802F00302032A9C
:103C60007FF473AE644A126892037FF591AE6A687E
:103C7000002A7FF48DAED9E75F4A136843F480339E
:103C80001360FEF747FC5C4C064604E0FEF742FC7E
:103C9000801B642830D823689B03F7D577E6CA6871
:103CA00002F00302022A7FF482AE534A12685405DE
:103CB00002D5EA68002AB9D04F4C4FF0F85261683B
:103CC00092FAA2F22869B2FA82F221F0F85100FACF
:103CD00002F20A43626090E6236843F48073236033
:103CE000FEF718FC07462368D9053FF5B8AEFEF786
:103CF00011FCC01B0228F6D9032004B0BDE8F081F6
:103D00000026A7E63C4BD3F8902042F00402C3F80B
:103D10009020D3F8902042F00102C3F89020FEF7E3
:103D2000F9FB354C804641F2883705E0FEF7F2FB9F
:103D3000C8EB0000B842DFD8D4F890309A07F5D528
:103D4000002E3FF4B7AE35E0B36D43F08053B3655A
:103D5000B36D03F080530293029BFFF7BDFCB36D7C
:103D600023F08053B3659EE5B36D43F08053B36594
:103D7000B36D03F080530393039BFFF7ADFCB36D6A
:103D800023F08053B36537E703F18043A3F53C3359
:103D90001A6842F480221A601A6842F480321A606B
:103DA0006FE703248DE5032434E7DA6822F0030289
:103DB000DA6096E6104A936D23F08053936579E6B6
:103DC0000D4AD2F8903043F00103C2F89030A6E7D4
:103DD000802C4DD9A12C34BF012402241AE7802C59
:103DE00048D9A12C34BF012402246AE51C46FEF701
:103DF00091FB06460AE000BF00100240002002408E
:103E0000FEF788FB801B02283FF676AF23681C4A2A
:103E10009F01F5D405F12C03C8CBAC6BE86B296C82
:103E200043EA0723751E43EA05132409400843EAC1
:103E300044430138490843EA4053013943EA4163A6
:103E4000D360136843F080731360D36843F08073CA
:103E5000D3601446FEF75EFB054605E0FEF75AFB0D
:103E6000401B02283FF648AF23689801F6D54CE680
:103E70000024CFE6002424E5022422E50224C9E63A
:103E8000001002405B4A136803F007038B422DE9E0
:103E9000F0410CD2136823F007030B43136013683F
:103EA00003F00703994202D00120BDE8F0810368C6
:103EB0009A0706D5504D8268AC6824F0F00422437E
:103EC000AA60DB0706460C4628D543684A4A022BFF
:103ED000126800F08780032B7ED0002B40F0868094
:103EE0009007E1D5444DAA6822F003021343AB606A
:103EF000FEF710FB7368022B074641F288384FD05B
:103F0000032B63D0002B56D104E0FEF703FBC01B4C
:103F1000404564D8AB6813F00C0FF6D1354A1368EE
:103F200003F007039C4209D2136823F007032343DD
:103F30001360136803F007039C42B5D133685A0736
:103F400006D52D48F268816821F4E0610A43826059
:103F50001B0707D5284A3169936823F4605343EA65
:103F6000C1039360FFF7C0FB234B0146F0229B681F
:103F700092FAA2F2B2FA82F203F0F003D3401F48A1
:103F80001F4AC35C0F2021FA03F31360FEF798FA6F
:103F90000020BDE8F081FEF7BDFAC01B40451ED8E9
:103FA000AB6803F00C03082BF5D1B7E7FEF7B2FAC4
:103FB000C01B404513D8AB6803F00C03042BF5D1AC
:103FC000ACE7FEF7A7FAC01B404508D8AB6803F082
:103FD0000C030C2BF5D1A1E7950183D464E70320F2
:103FE000BDE8F08197033FF57DAF5DE751057FF5B3
:103FF0005BAF77E70020024000100240B4120108D6
:1040000040000020084B4FF4E0629B6892FAA2F255
:10401000B2FA82F203F4E063D3400449044ACB5C71
:104020001068D840704700BF00100240C412010859
:1040300040000020084B4FF460529B6892FAA2F2B5
:10404000B2FA82F203F46053D3400449044ACB5CD1
:104050001068D840704700BF00100240C412010829
:10406000400000205C4AF8B5D3689B0707D0D368AE
:10407000046803F00303A3420DD00120F8BD0368D8
:10408000022B18D0032B71D0012BF6D112689707A1
:1040900014D41846F8BD002BEFD0D368702292FAE2
:1040A000A2F2B2FA82F203F07003D3404268013305
:1040B0009342E2D111E012685605DED5464E7024D7
:1040C000F56894FAA4F44268B4FA84F425F0730510
:1040D000013A2B43A2401343F3603F4C236823F083
:1040E000806323600F460546FEF714FA064604E097
:1040F000FEF710FA801B022836D82368364A1901C9
:10410000F6D4002F39D113694FF4FE4191FAA1F191
:104110004FF40036B1FA81F496FAA6F6E868A96879
:10412000B6FA86F6000923F41F33B040A14023F409
:10413000407301430B431361274C236843F08063B2
:104140002360FEF7E7F9064604E0FEF7E3F9801B7B
:10415000022809D82368204A1B01F6D5AB691169EA
:104160000B4313610020F8BD0320F8BD1468A503BC
:10417000A4D41268540380D5A0E7012F13694FF42B
:10418000FE4017D090FAA0F04FF0C066B0FA80F46D
:1041900096FAA6F66969A8684908B6FA86F601395A
:1041A00023F0C063B140A04023F4FE4301430B431E
:1041B0001361C1E790FAA0F04FF4C006B0FA80F4A2
:1041C00096FAA6F62969A8684908B6FA86F601396A
:1041D00023F4C003E6E700BF00100240524AF8B5DE
:1041E000D3689B0707D0D368046803F00303A34296
:1041F0000DD00120F8BD0368022B18D0032B71D01D
:10420000012BF6D11268970714D41846F8BD002B7D
:10421000EFD0D368702292FAA2F2B2FA82F203F0DF
:104220007003D340426801339342E2D111E0126837
:104230005605DED53C4E7024F56894FAA4F4426825
:10424000B4FA84F425F07305013A2B43A2401343DA
:10425000F360354C236823F0805323600F460546F6
:10426000FEF758F9064604E0FEF754F9801B0228D1
:1042700036D823682C4A9900F6D4002F39D15369D7
:104280004FF4FE4191FAA1F14FF40036B1FA81F4F6
:1042900096FAA6F6E868A968B6FA86F6000923F445
:1042A0001F33B040A14023F4407301430B435361DB
:1042B0001D4C236843F080532360FEF72BF906461C
:1042C00004E0FEF727F9801B022809D82368164A64
:1042D0009B00F6D56B6951690B4353610020F8BD13
:1042E0000320F8BD1468A503A4D41268540380D534
:1042F000A0E753694FF4FE4090FAA0F04FF0C0667B
:10430000B0FA80F496FAA6F62969A8684908B6FAC0
:1043100086F6013923F0C063B140A04023F4FE4388
:1043200001430B435361C3E7001002402DE9F04302
:10433000036813F4006683B0044617D0416EB1F5EC
:10434000800F00F0B88140F2CF81B1F5000F00F08E
:104350009981B1F5400F40F0D681C348D0F888204C
:1043600022F440021143C0F888100026D80440F11E
:104370000081A16EB1F1807F00F0958140F2BA8199
:10438000B1F1007F00F08481B1F1407F40F0F08016
:104390003746002F40F08581B348A26ED0F88810D0
:1043A00021F040710A439903C0F8882000F1E580AC
:1043B000DA0708D5AC48A26BD0F8881021F00301C9
:1043C0000A43C0F888209F0708D5A748E26BD0F8B9
:1043D000881021F00C010A43C0F888205D0708D539
:1043E000A148226CD0F8881021F030010A43C0F8AF
:1043F0008820180708D59C48626CD0F8881021F0F6
:10440000C0010A43C0F88820D90608D59648A26C96
:10441000D0F8881021F440710A43C0F888209A0629
:1044200008D59148E26CD0F8881021F440610A4325
:10443000C0F888209F0508D58B48E26DD0F8881019
:1044400021F440210A43C0F888205D0508D586483C
:10445000226ED0F8881021F440110A43C0F8882059
:10446000580608D58048226DD0F8881021F44051B4
:104470000A43C0F88820190608D57B48626DD0F839
:10448000881021F440410A43C0F88820DA0508D595
:104490007548A26DD0F8881021F440310A43C0F865
:1044A00088209F0410D57048E16ED0F8882022F053
:1044B00040620A43B1F1006FC0F8882000F0D88054
:1044C000B1F1806F00F026811D0310D56648216F81
:1044D000D0F8882022F040620A43B1F1006FC0F8A2
:1044E000882000F0CA80B1F1806F00F0238158036A
:1044F00010D55D48616FD0F8882022F040620A43F1
:10450000B1F1006FC0F8882000F0A880B1F1806F91
:1045100000F00881590410D55348A16FD0F88820C5
:1045200022F040520A43B1F1805FC0F8882000F0C9
:10453000CA80B1F1005F00F0CE801A0408D54A4865
:10454000E26FD0F8881021F080410A43C0F888203B
:10455000DB0309D54449D4F88020D1F8883023F012
:1045600000431343C1F88830304603B0BDE8F08300
:104570000126374699037FF51BAF3B4B9A6DD2005E
:1045800056D54FF00008394D2B6843F480732B60EB
:10459000FDF7C0FF814605E0FDF7BCFFC9EB000059
:1045A000022851D82B68DB05F6D5002F40F0D280C9
:1045B0002D4AD2F8903013F440732AD0D4F88410E6
:1045C0008B4200F0BF80D2F89030D2F8900040F4D7
:1045D0008030C2F89000D2F8900023F4407320F4A9
:1045E0008030C2F89000C2F89030D80740F18D803A
:1045F000FDF790FF1C4D814641F2883705E0FDF73D
:1046000089FFC9EB0000B8421ED8D5F89030990751
:10461000F5D5D4F884301449D1F8902022F44072B2
:104620001343C1F89030B8F1000F11D12368BFE6F1
:104630009A6D42F080529A659B6D03F0805301930E
:10464000019B4FF001089EE70326B8F1000FEDD063
:10465000054A936D23F080539365E7E7C26842F4FF
:104660008012C26056E700BF001002400070004098
:10467000C26842F48012C26026E7C26842F4801227
:10468000C26034E73448C26842F48032C26064E6F3
:104690003149CA68374642F48032CA60002F3FF47D
:1046A0007BAE3E4666E7002104F12000FFF796FD51
:1046B000236807466DE600212030FFF78FFD064690
:1046C0002EB3236852E60221201DFFF7CBFC48B130
:1046D0000646236831E7022104F12000FFF77EFD42
:1046E0000028F5D1236828E769B90430FFF7BAFC40
:1046F0000646E5E700297FF43BAF201DFFF7B2FC3B
:104700002368074645E6012630E60B4683E7616EDF
:10471000236822E60121201DFFF7A4FCA0B1064674
:104720002368D1E60121201DFFF79CFC70B10646ED
:104730002368EFE60121201DFFF794FC40B10646F7
:104740002368D4E60B4650E72368BDE62368E1E61C
:104750002368CCE63E4666E700100240002859D0A8
:10476000F8B590F82130044603F0FF02002B4CD03E
:104770002368CA215322022084F8210059625A6218
:10478000DA68510629D59A682569A1696668E068E2
:10479000A76822F4E00222F040029A609A6832434D
:1047A0002A430A439A60186118696169E26940EA1C
:1047B00007401861D86820F08000D860D86C20F0DD
:1047C0000300D864D86C02430A43FF250121DA6450
:1047D00000205D6284F82110F8BD4FF0FF32DA60EE
:1047E000FDF798FE05462368DA685206CBD4FDF73C
:1047F00091FE401BB0F57A7FF5D92268FF21042392
:104800005162012084F82130F8BD80F82020FDF7A6
:1048100035FDADE7012070472DE9F84390F82030D1
:10482000012B00F086800124022380F8204080F8CC
:1048300021300468002A3ED0A7684E780B7817F024
:10484000400516BFCF78CD703D044FEA06268F781D
:1048500008BF046846EA03433B4343EA0507CA220C
:10486000532362626362E3685A068846064663D54C
:1048700007F07F3323F0FE432360A168D8F80C30A3
:10488000D8F8102021F48021A160A1680B431343C4
:10489000A360E36823F08003E360A3689B0668D508
:1048A0000023FF2101226162184686F8212086F844
:1048B0002030BDE8F883A6680B7816F0400615BFD7
:1048C000CE78CE7036040468092B65D900220A3BE5
:1048D000DBB2092B02F10102F9D84FEA021E5FFA9E
:1048E0008EFE4A7843EA0E03092A4FEA034E4FF040
:1048F000000507D90A3AD2B2092A05F10105F9D80B
:104900002D01EDB28B782A43092B4FEA02254FF097
:10491000000707D90A3BDBB2092B07F10107F9D8D9
:104920003F01FFB24EEA06022A433B4342EA030735
:1049300095E70220BDE8F8834FF0FF33E360FDF711
:10494000E9FD81463468E36813F0400590D1FDF736
:10495000E1FDC9EB0000B0F57A7FF3D93268FF21A1
:1049600004235162012086F8205086F82130BDE8EA
:10497000F883E36823F0A003E360FDF7CBFD07466F
:104980003468E36813F020058AD1FDF7C3FDC01B2E
:10499000B0F57A7FF4D9E1E74FF0000EA1E700BF50
:1049A0000368F0B59D6A1C691B684D6003F07F3396
:1049B00023F0FE43180CC3F30627C4F30E04DBB246
:1049C00000F0400E00F03F068C6081F803E00E70AE
:1049D0004F708B70BAB93D091C09360906EB860683
:1049E00005EB850504EB840400F00F0007F00F07CA
:1049F00003F00F0300EB460007EB450503EB44040F
:104A000008704D708C700020F0BD00BFF8B590F8B4
:104A10002030012B65D00124022380F8204080F84B
:104A2000213042B34A78CB788D780C78110241EA74
:104A300003422A4342EA44340368CA21532259629A
:104A40005A62DA68510607464DD524F07F4424F0B7
:104A5000C0045C60DA6822F08002DA609A6892062C
:104A600062D50022FF2001215862104687F82110EC
:104A700087F82020F8BD4B78DC064FD4CA78092A85
:104A80004FF0000407D90A3AD2B2092A04F101040E
:104A9000F9D82401E4B22243092B4FEA02425FD93C
:104AA00000240A3BDBB2092B04F10104F9D82501EB
:104AB000EDB28C782B43092C4FEA03254FF000060A
:104AC00007D90A3CE4B2092C06F10106F9D83601EF
:104AD000F6B20B7842EA433242EA050334431C4300
:104AE000AAE70220F8BD4FF0FF32DA60FDF712FDB1
:104AF00006463B68DA6812F04005A6D1FDF70AFDCC
:104B0000801BB0F57A7FF4D93A68FF210423516203
:104B1000012087F8205087F82130F8BD23F01003DA
:104B20000A33DBB24B70A9E7DA6822F0A002DA6040
:104B3000FDF7F0FC05463B68DA6812F0200490D1DE
:104B4000FDF7E8FC401BB0F57A7FF4D93A68FF2105
:104B500004235162012087F8204087F82130F8BDF6
:104B60000025A6E703685B6823F07F4323F0C003BA
:104B7000F0B4C3F30725DEB2C3F3423705F01F00DC
:104B80001B0C0F704870CB708E70BAB900093409D5
:104B90001A09870004EB840405F00F0506F00F06E0
:104BA000384402EB820203F00F0306EB440405EBEA
:104BB000400003EB42038C704870CB700020F0BCC7
:104BC000704700BF00286CD090F8393070B503F002
:104BD000FF020446002B4FD023683349022284F899
:104BE00039208B421A684CD0B3F1804F26D0A1F502
:104BF00094318B4222D001F580618B421ED001F5A9
:104C000080618B421AD001F594318B4216D001F5A8
:104C100040618B4216D001F580618B4212D001F5C4
:104C200080618B420ED0E06861681A60D862996238
:104C300001225A61002084F8392070BDA16822F059
:104C400070020A4321691948E668656822F44072D7
:104C5000114383421960DE629D620AD0144A934276
:104C600007D002F58062934203D002F5806293423E
:104C7000DED162691A63DBE780F83820FDF754FB68
:104C8000AAE7A168206922F07002114321F4407163
:104C900001431960E268DA6262689A6262691A63C3
:104CA000C6E70120704700BF002C014000340140DE
:104CB000004001400368DA6842F00102DA601A68D5
:104CC00042F001021A600020704700BF0368DA68F2
:104CD00022F00102DA60196A41F211120A4042B967
:104CE000196A40F244420A401AB91A6822F00102D5
:104CF0001A600020704700BF90F83830012B40D078
:104D00000222036870B480F839209D680C685D4AFF
:104D1000402C02EA05024FF0010580F838509A60F5
:104D200079D018D9702C62D02DD9B4F5805F57D0C6
:104D3000B4F5005F1CD19C688A684D68CE682A4330
:104D400024F47F410A4342EA06229A609A6842F4B8
:104D500080429A600CE0102C32D038D9202C72D0CE
:104D6000302C05D19A6822F0700242F037029A6026
:104D70000023012280F8392080F8383070BC1846B2
:104D8000704702207047502C64D0602CF0D11C6A10
:104D90004D68CE6824F010041C6299691A6A21F4E7
:104DA000704122F0A00242EA051241EA06319961FF
:104DB0001A629A6822F0700242F067029A60D7E79E
:104DC0009A6822F0700242F017029A60D0E7002C35
:104DD000CED19A6822F0700242F007029A60C7E7CB
:104DE0009A6822F4803222F007029A60C0E79C6839
:104DF0008A684D68CE682A4324F47F410A4342EA18
:104E000006229A609A6822F4803222F0770242F0F9
:104E100077029A60ACE71A6A1C6A4E68CD6824F083
:104E200001041C62996922F00A0221F0F001324368
:104E300041EA051199611A629A6822F0700242F003
:104E400047029A6094E79A6822F0700242F02702C3
:104E50009A608DE71A6A1C6A4E68CD6824F00104D6
:104E60001C62996922F00A0221F0F001324341EA02
:104E7000051199611A629A6822F0700242F0570295
:104E80009A6075E78800FEFF704700BF704700BF5B
:104E9000704700BF704700BF03681A69910710B5DB
:104EA000044602D5DA68920762D41A69500702D51F
:104EB000DA68510749D41A69120702D5DA6810076F
:104EC00031D41A69D20602D5DA68D00618D41A6924
:104ED000D10702D5DA68D2076BD41A69100602D559
:104EE000DA6811066DD41A69520602D5DA685006DE
:104EF00057D41A69910602D5DA68920649D410BDD2
:104F00006FF010021A61DB69082213F4407F2276E9
:104F1000204661D1FFF7B8FF2046FFF7B9FF002216
:104F200023682276D3E76FF008021A61DB69042256
:104F300099072276204655D1FFF7A6FF2046FFF7B6
:104F4000A7FF002223682276BBE76FF004021A61F4
:104F50009B69022213F4407F227620463FD1FFF75F
:104F600093FF2046FFF794FF002223682276A2E7F2
:104F70006FF002021A619B6901229B07027628D119
:104F8000FFF782FF2046FFF783FF00222368227687
:104F90008BE76FF0200220461A61BDE8104000F058
:104FA0004FB86FF040021A612046FFF773FF236885
:104FB0009FE76FF001021A612046FDF72DF8236884
:104FC0008BE76FF080021A61204600F03BF82368FF
:104FD00089E7FFF75BFFD8E7FFF758FF9FE7FFF789
:104FE00055FFC1E7FFF752FFABE700BF90F838303D
:104FF000012B1BD0036870B4104CA34202465868C2
:105000009E6815D004F50064A34211D00D688C6829
:1050100020F0700026F080012843214300245860CE
:105020002046996082F8384070BC70470220704773
:105030004C6820F470002043E8E700BF002C0140DA
:10504000704700BF704700BF704700BFF0B50E4605
:1050500090F86910202983B002D0022003B0F0BD7F
:105060008EB382B31D4690F86830012B0446F4D00D
:10507000002001212123E06684F8681084F869305B
:105080000192FDF747FA019AA4F8502007462068DC
:10509000A4F85220B4F852309BB20BB3B4F852309B
:1050A000013B9BB2A4F852306A1C27D1C26902F0BE
:1050B0008002002AFAD0A368B3F5805F3CD0337831
:1050C00003850136E6E70120C8E7C36903F0400322
:1050D0006BB9FDB1FDF71EFAC01B8542206819D3DC
:1050E0006B1CF2D1C36903F04003002BFAD02023DC
:1050F000002084F8693084F86800AFE7C36903F0E2
:105100008003002BD7D12DB1FDF704FAC01B8542D7
:105110002068C9D2036823F4D07303608368202217
:1051200023F001030021836084F86920032084F8C0
:10513000681084F86A2091E72369002BBFD136F804
:10514000023BC3F308030385A4E700BFF8B590F85A
:105150006A40202C01D00220F8BD002930D0002A5E
:105160002ED090F86830012BF5D004460127406E10
:10517000144E84F868700025134622270A462168D9
:105180006265A4F85830E56684F86A700E4FC6620E
:105190000E4E8563076346632431FDF7B5FA236835
:1051A00084F868501A6842F480721A609A6842F073
:1051B00001029A609A6842F0400228469A60F8BD5F
:1051C0000120F8BDD55100081152000821520008F5
:1051D000704700BF08B50368806A1B6813F020039E
:1051E00011D10268A0F85A30136823F48073136059
:1051F000936823F0010393609368202123F0400318
:10520000936080F86A10FFF7E3FF08BD704700BFA6
:1052100008B5806AFFF7FAFF08BD00BF704700BFFE
:10522000806A08B590F86930212B1DD090F86A305B
:10523000222B06D0C36E43F01003C366FFF7EEFFC8
:1052400008BD03689A685206F4D50022A0F85A20D7
:105250001A6822F490721A609A68202122F00102E2
:105260009A6080F86A10E5E703689A681106DDD550
:105270000022A0F852201A68202122F0C0021A60F1
:1052800080F86910D2E700BF436ADA0710B406D588
:105290000468826A616821F400310A4362609C07F5
:1052A00006D50468C26A616821F480310A436260ED
:1052B000590706D50468026B616821F480210A430E
:1052C00062601A0706D50468426B616821F40041E8
:1052D0000A436260DC0606D50468826BA16821F48B
:1052E00080510A43A260990606D50468C26BA16882
:1052F00021F400510A43A2605A0609D50168046CE2
:105300004A6822F480122243B4F5801F4A600BD011
:105310001B0606D50168826C4B6823F400231343F7
:105320004B605DF8044B70474C68426C24F4C00439
:1053300022434A60ECE700BF002800F03381F8B553
:1053400090F86930044603F0FF02002B3DD0256839
:10535000A76822696169E069242384F869302E68AE
:10536000BE4B26F001062E602E683A430A433340B6
:10537000024313432B606968E268B94BA66921F4C4
:1053800040510A439D426A6000F0BA80AA68236ACD
:10539000B44922F43062334313438D42AB6000F0D2
:1053A000DE80B14B9D4200F0C581B04B9D4211D0D3
:1053B000AF4B9D4200F0F880AE4B9D4233D0B0F52C
:1053C000004F00F0AD810120F8BD80F86820FFF7A4
:1053D0003BFEBCE703F5E433D3F8883003F0300339
:1053E000102B00F00C812AD9202B00F00E81302BDD
:1053F000E5D1B0F5004F40F016816268530803F51F
:105400008033B3FBF2F3C3F3420223F00F031343E1
:105410009BB20022EB60002AD5D1636A1BB3204601
:10542000FFF732FF1FE003F5E033D3F8883003F4D1
:105430004073B3F5807F00F0E28000F20781002B1B
:10544000BDD1B0F5004F02D1FEF7DCFDF6E0FEF76E
:10545000D9FD636800EB5300B0FBF3F39BB2EB6044
:10546000636A002BDBD123685A6822F490425A60A9
:105470009A6822F02A029A601A68002142F001021A
:105480001A60E166FDF746F823681A6811070546B9
:105490000BD41A68520726D42023002084F86930E0
:1054A00084F8680084F86A30F8BDDA6902F4001202
:1054B000002AEED1FDF72EF8401BB0F1007F2368E3
:1054C000F3D31A6822F4D0721A609A68202122F06D
:1054D000010200259A60032084F8691084F868505E
:1054E00084F86A10F8BDDB6903F48003002BD3D184
:1054F000FDF710F8401BB0F1007F2368F3D3E0E71D
:10550000AB685D4A23F430633343AB60D2F8885014
:1055100005F44065B5F5806F00F0058140F2F78035
:10552000B5F5006F00F0AF80B5F5406F7FF44BAF7D
:1055300008254FF40040626802EB420383423FF6C5
:1055400042AFB0EB023F3FF63EAF082D00F2DD80E8
:10555000DFE805F0C3DBB7DB9CDBDBDBC600464BDB
:10556000464AD3F8883003F00303D35CB0F5004F0C
:105570002AD1082B00F2D48001A252F823F000BFF8
:105580004954000839560008F95600082157000808
:1055900081560008215700082157000821570008AC
:1055A000FB5300080120704703F5E233D3F888303D
:1055B00003F0C003402B22D07FF641AF802B24D0D4
:1055C000C02B3FF416AFFAE6082B3FF6FCAE01A263
:1055D00052F823F04F540008F955000811560008FE
:1055E000C753000805560008C7530008C7530008F2
:1055F000C753000827560008FEF71CFD29E7B0F541
:10560000004F3DD0FEF770F823E7B0F5004F73D0A0
:1056100061684A0802F5740303F51053B3FBF1F314
:105620009BB2EB601CE76268530803F50043B3FBD1
:10563000F2F39BB2EB6013E7FEF7FCFC63682568AE
:105640005A0802EB4000B0FBF3F3DCE6B3F5007F51
:10565000DBD0B3F5407F3FF4CCAEB0E6F369FFEFAB
:1056600000800040003801400044004000480040F5
:10567000004C004000500040001002407012010831
:10568000FEF732F8DAE702252F4854E7FEF72CF848
:1056900062684FF4807356080027E3FB00673046CA
:1056A00039460023FBF7BEFA0022284BA0F54071D3
:1056B00099423FF688AE2368D860002A3FF4ADAE29
:1056C00081E623485308C0184FF0000141F1000162
:1056D0000023FBF7A7FA0022E7E7FEF793FCD7E7E2
:1056E000500810F500004FF0000141F100010023C7
:1056F000FBF798FA0022D8E761684A0802F1F473D0
:1057000003F59043B3FBF1F37DE60122CDE7002DD5
:105710007FF459AEFEF776FC00287FF40CAF9FE6CD
:105720000023012276E6FDF7DFFF042500287FF441
:1057300002AF95E6074B084AD3F8883003F00C0314
:1057400013441B7912E700BF0024F400FFFC0F0094
:10575000000024F400100240701201081149124B9D
:10576000D1F8882042F4700210B4C1F888201A6879
:10577000002042F001021A6098601A6822F0A852D4
:1057800022F410224FF480541A60DC601A684FF043
:10579000006422F480221A6098618C605DF8044BEA
:1057A000704700BF00ED00E000100240F0B52A4C49
:1057B00089B02046FDF784FF38B12748FDF780FF08
:1057C000203818BF012009B0F0BD244D244B2360C0
:1057D000EB6C244A626043F00203EB64EB6C03F071
:1057E00002030193332201234FF440710646A26065
:1057F000E3600222042303911B48DDF804E00692D3
:1058000003A91227079305960497FDF73BFAAB6DA2
:1058100043F40013AB65AB6D03F400130293029BDA
:10582000AB6B43F40013AB63AB6B23F40013AB63BC
:10583000324631461F20FCF793FE1F20FCF7C8FEBE
:10584000324631462020FCF78BFE2020FCF7C0FEBC
:105850002046FDF7CDFCB0E72C07002000100240E9
:10586000005400403A14D11000040048F0B52A4C0E
:1058700089B02046FDF724FF38B12748FDF720FF07
:10588000203818BF012009B0F0BD244D244B2360FF
:10589000EB6C244A626043F00203EB64EB6C03F0B0
:1058A00002030193332201234FF440710646A260A4
:1058B000E3600222042303911B48DDF804E0069212
:1058C00003A91227079305960497FDF7DBF9AB6D43
:1058D00043F40013AB65AB6D03F400130293029B1A
:1058E000AB6B43F40013AB63AB6B23F40013AB63FC
:1058F000324631461F20FCF733FE1F20FCF768FEBE
:10590000324631462020FCF72BFE2020FCF760FEBB
:105910002046FDF76DFCB0E72C0700200010024088
:10592000005400403A14D110000400480020704791
:10593000F0B51D4D1D4EEB6C43F00103EB64EB6CB9
:105940008DB003F0010300240227009302A9102365
:105950004FF090400293009A039605970494FDF748
:1059600091F9224621460A20FCF7FAFD0A20FCF7AD
:105970002FFEEB6C0E483B43EB64EB6C08963B4010
:10598000019307A901230793019A0A970994FDF748
:1059900079F9224621460620FCF7E2FD0620FCF7B5
:1059A00017FE20460DB0F0BD00100240000011109F
:1059B00000040048114B1249DA6C30B542F0010284
:1059C000DA64DB6C87B003F00103002400930291DA
:1059D0000223102201A94FF0904004930192009DF0
:1059E0000394FDF74FF9224621460A20FCF7B8FD43
:1059F0000A20FCF7EDFD204607B030BD0010024044
:105A0000000011102DE9F0470F460178B12984B04C
:105A1000054690461E461BD012D83D2913D04FF4A0
:105A20008053A9781C4802930196CDF800803A462D
:105A30000123FDF74FFC30BB002004B0BDE8F08728
:105A4000BC390129EBD8012E88BF47F08007E6E773
:105A5000002BF1D000244FF4805A4FF0010901E0EF
:105A6000B442E9D008EB04033A19A9780A48009334
:105A7000CDF808A0CDF80490D2B20123FDF72AFC9E
:105A800001340028ECD00448FDF70AFCFFF78EFE35
:105A9000012004B0BDE8F0872C0700202DE9F04775
:105AA0000F460178B12984B0054690461E461BD0AA
:105AB00012D83D2913D04FF48053A9781C48029383
:105AC0000196CDF800803A460123FDF7F7FC30BB84
:105AD000002004B0BDE8F087BC390129EBD8012EC5
