:020000040800F2
:10000000900500203D5300081553000817530008C1
:10001000595300085D5300086153000800000000B8
:100020000000000000000000000000006553000810
:100030001953000800000000695300081B53000812
:100040006D53000871530008755300087953000878
:100050007D53000881530008855300088953000828
:100060008D530008915300081F5300089553000852
:10007000995300089D530008A1530008A553000898
:10008000A9530008AD530008B1530008B553000848
:10009000B9530008BD530008C1530008C5530008F8
:1000A000C9530008CD530008D1530008D5530008A8
:1000B000D9530008DD530008E1530008E553000858
:1000C000E9530008ED530008F1530008F553000808
:1000D000F9530008FD5300080154000805540008B6
:1000E00025530008095400080D5400081154000855
:1000F00015540008195400081D5400082154000824
:1001000025540008295400082D54000831540008D3
:1001100035540008395400083D5400084154000883
:1001200045540008495400084D5400085154000833
:1001300055540008595400085D54000861540008E3
:1001400065540008695400086D5400087154000893
:1001500075540008795400087D5400088154000843
:1001600085540008895400088D54000891540008F3
:1001700095540008995400089D54000800000000A0
:10018000A1540008A554000810B582B00446002010
:100190008DF800006946204601F00EFC002831D0A1
:1001A0009DF80000217888422CD10421204601F0DE
:1001B0007AFD38B34021204601F00AFC10B300213B
:1001C000204601F0F4FCE8B1A068DFF804190068EB
:1001D00001600021204601F06DFC98B1002120460D
:1001E00001F015FC70B10821204601F0B9FD48B1BD
:1001F0001021204601F0E3FD20B12021204601F02E
:100200000DFE10B9012002B010BD0120607102B0D6
:10021000002010BD30B5044681B0A06805680020FC
:100220008DF800006946204601F0C6FB002800F06A
:10023000B0809DF800002178884240F0AA8000211B
:10024000204602F048FA002800F0A3800021204652
:1002500002F0FBFA002800F09C800021204602F00A
:10026000A6F9002800F095800021204602F080F9D0
:10027000002800F08E800021204602F0EEF90028D0
:1002800000F087800021204602F0A1FA002800F04B
:1002900080800021204602F058F8002879D0002103
:1002A000204601F0E1FC002873D00021204602F036
:1002B0000FF800286DD00021204601F0FDFD002838
:1002C00067D00021204602F04BFB002861D00021BE
:1002D000204602F03EFA00285BD00021204602F0C2
:1002E000F2FA002855D00021204602F010F800282C
:1002F0004FD00021204602F047F8002849D00021C5
:10030000204602F05FF8002843D00021204601F08B
:1003100063FF00283DD00021204601F07CFF00282B
:1003200037D00021204601F095FF002831D0002170
:10033000204602F0B1F960B30021204602F066FACF
:1003400038B30021204601F0E2FF10B3002120461F
:1003500002F01AF8E8B10021204602F033F8C0B1EB
:100360000021204602F04CF898B10021204602F00E
:1003700085F870B10021204601F02EFF48B1002120
:10038000204601F048FF20B10021204601F062FF25
:1003900010B9012001B030BD0021204602F03EF925
:1003A0000028F6D00021204602F0F2F90028F0D013
:1003B0000021204601F06DFF0028EAD000212046F0
:1003C00001F07AFD0028E4D00021204602F0A2F9D5
:1003D0000028DED00021204602F056FA0028D8D0AE
:1003E0000021204602F0A6F80028D2D000212046A5
:1003F00002F026F80028CCD0A07970B1A06801687E
:10040000204600F0ADF90128C3D00021204601F0BC
:1004100051FB0028BDD00020A07100202860607131
:1004200001B030BD10B50446A07901285CD0A068A9
:10043000006890ED000ADFED9B0AB4EE600AF1EE71
:1004400010FA48BF102147D4DFED970AB4EE600AD6
:10045000F1EE10FA48BF20213ED4DFED940AB4EE4D
:10046000600AF1EE10FA48BF302135D4DFED900A72
:10047000B4EE600AF1EE10FA48BF40212CD4DFED53
:100480008D0AB4EE600AF1EE10FA48BF502123D471
:10049000DFEDAF0AB4EE600AF1EE10FA48BF60215A
:1004A0001AD4DFEDAC0AB4EE600AF1EE10FA48BFE0
:1004B000702111D4DFEDA80AB4EE600AF1EE10FA53
:1004C00048BF802108D4DFEDA50AB4EE600AF1EE42
:1004D00010FA4CBF9021A021204601F0EBFA08B998
:1004E000012010BD0120A071002010BD30B50446D0
:1004F00081B0A07900284DD0A068056869462046E3
:1005000001F0F7FA002840D09DF80000002830D014
:1005100010282CD0202827D0302822D040281DD0C9
:10052000502818D0602813D070280ED0802809D009
:10053000902804D0A02825D1DFF8AC0619E0DFF818
:10054000A40616E0DFF8980613E0DFF8900610E046
:10055000DFF884060DE0DFF87C060AE0DFF87005BE
:1005600007E0DFF8680504E0DFF88C0601E0DFF85B
:100570008C0628600021204601F09CFA40B9012039
:1005800001B030BDDFF878062860012001B030BD31
:100590000020A07101B030BD00B581B001F00CFAAF
:1005A000401E8041C00F01B000BD10B582B00446AE
:1005B00000208DF800006946204601F0FDF920B1C9
:1005C0009DF800002178884202D0012002B010BDC1
:1005D000002002B010BD00002DE9F04184B00C46AF
:1005E0000021CDE900118046694601F03FFA00285C
:1005F00054D09DF801109DF800209DF8040002EBF6
:1006000001269DF803109DF8022002EB01279DF8BA
:10061000051000EB012502A9404601F017FA002859
:100620003CD09DF808000C2838D8DFE800F01037DF
:100630003737073737370D3737370A009FED840ACA
:1006400007E09FED840A04E09FED830A01E09FED3F
:10065000830A36B200EE906AF8EEE00A60EE800A95
:10066000FDEEE00AC4ED000A3FB200EE907AF8EE2B
:10067000E00A60EE800AFDEEE00AC4ED010A2DB248
:1006800000EE905AF8EEE00A20EE800ABDEEC00AB5
:1006900084ED020A002004B0BDE8F081012004B01E
:1006A000BDE8F081010050410100D04101005042FD
:1006B0000100D0420100504310B582B00C4669469B
:1006C0000022C1E9002201F0D1F910B9012002B0E5
:1006D00010BD9DF801109DF8002002EB0121218042
:1006E0009DF802209DF8031002EB012161809DF826
:1006F00004009DF8051000EB0120A08002B000204E
:1007000010BD000010B582B00C46694601F09EF99C
:10071000D0B19DF800000C2813D8DFE800F00712D4
:100720001212101212120C1212120E004B482060FC
:1007300002B0002010BD4848F9E74648F7E74448B2
:10074000F5E7DFF8C0042060012002B010BD000012
:100750000100D043014050440180CF440120504566
:1007600010B582B00C46694601F0C3F910B90120FA
:1007700002B010BD9DF80000C8B110281BD0202881
:100780001CD030281DD040281DD050281DD06028F6
:100790001ED070281FD0802820D0902821D0A028DB
:1007A00022D0DFF85C04206002B0012010BD206080
:1007B00002B0002010BDDFF84404F8E7DFF8380489
:1007C000F5E7C248F3E7C248F1E7DFF80804EEE7CF
:1007D000DFF80404EBE7DFF80404E8E7DFF80004DF
:1007E000E5E7DFF80004E2E7DFF8FC03DFE70000FD
:1007F00000B581B08279012A13D104290ED8DFE82F
:1008000001F0090907050300402104E0302102E05E
:10081000202100E0102101F04DF9B0B9012001B014
:1008200000BD806800680429F8D8DFE801F00B0BF0
:1008300008060400F2E7A64906E0A44904E0DFF850
:10084000B81301E0DFF8B4130160002001B000BD6F
:1008500023DBF93E23DB793E23DBF93D23DB793DC6
:1008600000B581B081790129DFED8F0A55D1B4EE51
:10087000600AF1EE10FA48BF102147D4DFED8B0A71
:10088000B4EE600AF1EE10FA48BF20213ED4DFED4D
:10089000880AB4EE600AF1EE10FA48BF302135D470
:1008A000DFED840AB4EE600AF1EE10FA48BF402191
:1008B0002CD4DFED810AB4EE600AF1EE10FA48BFE5
:1008C000502123D4DFED7D0AB4EE600AF1EE10FA78
:1008D00048BF60211AD4DFED7A0AB4EE600AF1EE67
:1008E00010FA48BF702111D4DFED760AB4EE600A29
:1008F000F1EE10FA48BF802108D4DFED730AB4EEA0
:10090000600AF1EE10FA4CBF9021A02101F0D2F85C
:1009100000285FD1012001B000BD80680068B4EEFE
:10092000600AF1EE10FA48BFB2EE0A0A50D4DFEDC9
:100930005F0AB4EE600AF1EE10FA48BFB3EE0A0A9D
:1009400046D4DFED5B0AB4EE600AF1EE10FA48BF60
:100950009FED5E0A3CD4DFED570AB4EE600AF1EE7B
:1009600010FA48BF9FED5A0A32D4DFED530AB4EEB5
:10097000600AF1EE10FA48BF9FED960A28D4DFED29
:100980004F0AB4EE600AF1EE10FA48BF9FED920AEA
:100990001ED4DFED4B0AB4EE600AF1EE10FA48BF48
:1009A0009FED8E0A14D4DFED470AB4EE600AF1EE33
:1009B00010FA48BF9FED8A0A0AD4DFED430AB4EE6D
:1009C000600AF1EE10FA4CBF9FED860A9FED860A91
:1009D00080ED000A002001B000BD000010B582B01B
:1009E0000C46694601F032F8F0B19DF800000C2881
:1009F00017D8DFE800F007161616131616160D1690
:100A0000161610004FF08040206002B0002010BD8C
:100A10004FF08140F8E74FF08240F5E74FF0834018
:100A2000F2E7DFF8E0012060012002B010BD000015
:100A300000B5042981B010D8DFE801F0030F0B0FD7
:100A40000D00002100F0E3FF401E8041C00F01B007
:100A500000BD0821F6E70C21F4E7012001B000BD3C
:100A6000DFED620A00B5B4EE600AF1EE10FA81B073
:100A700048BF002111D4DFED5E0AB4EE600AF1EE4A
:100A800010FA48BF082108D4DFED5A0AB4EE600A14
:100A9000F1EE10FA4CBF0C21042100F0B8FF401E0B
:100AA0008041C00F01B000BD010050410100D041A4
:100AB000010050420100D042010050430100D043E8
:100AC000014050440180CF44012050450000504275
:100AD0000000D04230B581B00D4604460DF1020150
:100AE00001F05DF950B10DF10101204601F086F9E8
:100AF00020B16946204601F0B0F910B9012001B0DB
:100B000030BD9DF8020008280CBF0120002028708D
:100B10009DF8010010280CBF0120002068709DF88E
:100B2000000020280CBF01200020A87001B0002088
:100B300030BD30B50D4681B00446287801280CBF81
:100B400008210021204601F00BF940B16878012806
:100B50000CBF10210021204601F031F910B901200D
:100B600001B030BDA87801280CBF2021002120460B
:100B700001F054F9401E8041C00F01B030BD00B5F6
:100B800081B0012300F00FFF401E8041C00F01B073
:100B900000BD00B581B001238DF800206A4600F049
:100BA000F9FE401E8041C00F01B000BD10B582B0FB
:100BB0000C46694601F04FFA48B19DF80000002844
:100BC00018BF012803D1207002B0002010BD012001
:100BD00002B010BD000050430000D043004050441C
:100BE0000080CF44002050450020D0450100004047
:100BF00001008040010000410000D0410000504150
:100C0000000080BF000080BFDFED510A00B5B4EEE8
:100C1000600AF1EE10FA81B048BF102147D4DFED31
:100C20004D0AB4EE600AF1EE10FA48BF20213ED41E
:100C3000DFED490AB4EE600AF1EE10FA48BF302148
:100C400035D4DFED460AB4EE600AF1EE10FA48BF83
:100C500040212CD4DFED420AB4EE600AF1EE10FA26
:100C600048BF502123D4DFED3F0AB4EE600AF1EE15
:100C700010FA48BF60211AD4DFED3B0AB4EE600AD7
:100C8000F1EE10FA48BF702111D4DFED380AB4EE4E
:100C9000600AF1EE10FA48BF802108D4DFED340A73
:100CA000B4EE600AF1EE10FA4CBF9021A02100F0E2
:100CB00001FF401E8041C00F01B000BD30B50446A9
:100CC00081B0A07901280D469FED2A0A07D1204660
:100CD000FFF79AFF012806D1012001B030BDA068BE
:100CE000006880ED000A0021204600F090FE60B30D
:100CF0000621204601F05BFC38B30021204601F0BC
:100D000019FC10B30021204601F0F5FBE8B10021E9
:100D1000204601F0D2FBC0B10321204601F028FC9F
:100D200098B125B1012D0AD0012001B030BD1021AC
:100D3000204601F0D0FC40B1002001B030BD1021B0
:100D4000204601F082FD0028F6D1012001B030BD1F
:100D5000010050410100D041010050420100D04249
:100D6000010050430100D043014050440180CF4472
:100D7000012050450000D04310B50446002101F089
:100D8000AAFC48B10021204601F05FFD20B10021FE
:100D9000204601F00CFC08B9012010BD00212046BE
:100DA00001F0E6FB401E8041C00F10BD10B582B0BF
:100DB0000C46694601F0AFF848B19DF8000010B14B
:100DC000202804D10120207002B0002010BD012095
:100DD00002B010BD00B581B001F0CAFB401E8041D9
:100DE000C00F01B000BD10B50446B3EE0A0AA079E9
:100DF000012805D12046FFF707FF012804D110BDC7
:100E0000A068006880ED000A0021204600F0FFFD88
:100E100070B11721204601F0A3FD48B104212046FE
:100E200001F04AF820B14021204601F051FA08B9FA
:100E3000012010BD8021204600F016FF401E804199
:100E4000C00F10BD10B50446002100F00DFF48B1E1
:100E50000021204601F03CFA20B10021204601F09B
:100E60002BF808B9012010BD0021204601F078FDC3
:100E7000401E8041C00F10BD10B582B00C466946BF
:100E800001F06BF948B19DF8000010B1102804D1B1
:100E90000120207002B0002010BD012002B010BD62
:100EA00000B581B001F045FD401E8041C00F01B08A
:100EB00000BD00B581B0022100F0DFFF401E80417F
:100EC000C00F01B000BD00B581B0002100F0D5FF1A
:100ED000401E8041C00F01B000BD00B581B001F0DF
:100EE0003FFD401E8041C00F01B000BD30B504463B
:100EF00081B0A07901280D46B3EE0A0A07D1204639
:100F0000FFF782FE012806D1012001B030BDA068A4
:100F1000006880ED000A0021204600F078FDE8B16D
:100F20000421204600F0C8FFC0B12021204601F076
:100F3000B0F998B125B1012D0AD0012001B030BD22
:100F40000221204601F06AFB40B1002001B030BD13
:100F50000221204601F01CFC0028F6D1012001B03E
:100F600030BD10B50446002101F058FB48B1002106
:100F7000204601F00DFC20B10021204601F089F946
:100F800008B9012010BD0021204600F095FF401E49
:100F90008041C00F10BD10B582B00C46694601F00B
:100FA000ECF848B19DF8000010B1202804D10120D0
:100FB000207002B0002010BD012002B010BD000062
:100FC00030B5044681B0A07901280D469FEDAC0AEA
:100FD00007D12046FFF718FE012806D1012001B0F5
:100FE00030BDA068006880ED000A0021204600F0B6
:100FF0000EFDE8B10021204601F09CFAC0B10221AB
:10100000204601F01DFA98B125B1012D0AD001202A
:1010100001B030BD2021204601F07CFB40B1002012
:1010200001B030BD2021204601F02EFC0028F6D171
:10103000012001B030BD10B50446002101F06AFB6B
:1010400048B10021204601F01FFC20B100212046BC
:1010500001F070FA08B9012010BD0021204601F00E
:10106000EFF9401E8041C00F10BD10B582B00C4694
:10107000694600F040FF48B19DF8000010B1082813
:1010800004D10120207002B0002010BD012002B068
:1010900010BD00B581B001F0D3F9401E8041C00FF2
:1010A00001B000BD30B5044681B0A07901280D46DD
:1010B0009FED730A07D12046FFF7A6FD012806D150
:1010C000012001B030BDA068006880ED000A002159
:1010D000204600F09CFC002831D00821204601F079
:1010E000B9F860B30421204601F095F838B3022125
:1010F000204601F071F810B30821204601F007F9ED
:10110000E8B10221204601F03FF9C0B1012120469B
:1011100001F058F998B125B1012D0AD0012001B094
:1011200030BD4021204601F014FB40B1002001B049
:1011300030BD4021204601F0C6FB0028F6D1012039
:1011400001B030BD10B50446002101F002FBE8B14A
:101150000021204601F0B7FBC0B10021204601F07C
:10116000D6F898B10021204601F00EF970B10021A7
:10117000204601F027F948B10021204601F02CF863
:1011800020B10021204601F046F808B9012010BD29
:101190000021204601F05EF8401E8041C00F10BDC6
:1011A00010B582B00C46694600F0D5FE48B19DF8F6
:1011B000000010B1202804D10120207002B00020CE
:1011C00010BD012002B010BD30B5044681B0A07939
:1011D00001280D469FED2A0A07D12046FFF714FD8E
:1011E000012806D1012001B030BDA068006880ED63
:1011F000000A0021204600F00AFC00283DD008210A
:10120000204601F027F8002837D00421204601F0BD
:1012100002F8002831D00221204600F0DDFF60B343
:101220000821204601F073F838B30321204601F06D
:10123000ABF810B30321204601F0C4F8E8B108214F
:10124000204601F0DDF8C0B18021204601F016F9FA
:1012500098B125B1012D0AD0012001B030BD08217F
:10126000204601F019FA40B1002001B030BD08213C
:10127000204601F0CBFA0028F6D1012001B030BDA4
:101280000000D04310B50446002101F005FA38B340
:101290000021204601F0BAFA10B30021204601F0E7
:1012A00036F8E8B10021204601F06EF8C0B1002107
:1012B000204601F087F898B10021204601F0A0F8FF
:1012C00070B10021204601F0D9F848B10021204634
:1012D00000F082FF20B10021204600F09CFF08B9F9
:1012E000012010BD0021204600F0B4FF401E8041C7
:1012F000C00F10BD10B582B00C46694600F01BFE51
:1013000048B19DF8000010B1102804D101202070D0
:1013100002B0002010BD012002B010BD00B581B0A8
:1013200000F0F5FF401E8041C00F01B000BD00B5C8
:1013300081B001F029F8401E8041C00F01B000BD0E
:1013400000B581B001F03EF8401E8041C00F01B0F1
:1013500000BD00B581B001F053F8401E8041C00FC0
:1013600001B000BD30B5044681B0A07901280D461A
:101370009FED170A07D12046FFF746FC012806D14A
:10138000012001B030BDA068006880ED000A002196
:10139000204600F03CFBC0B14021204600F0D5FFC4
:1013A00098B125B1012D0AD0012001B030BD042132
:1013B000204601F052F940B1002001B030BD0421B7
:1013C000204601F004FA0028F6D1012001B030BD1A
:1013D0000000D04310B50446002101F03EF920B1D1
:1013E0000021204601F0F3F908B9012010BD0021C9
:1013F000204600F0AAFF401E8041C00F10BD10B56E
:1014000082B00C46694600F016FE48B19DF8000017
:1014100010B1402804D10120207002B0002010BD7E
:10142000012002B010BD10B582B00C46694600F034
:10143000A2FD48B19DF80000002818BF012803D183
:10144000207002B0002010BD012002B010BD10B508
:1014500082B00C46694600F09EFD48B19DF8000040
:1014600010B1022804D10120207002B0002010BD6C
:10147000012002B010BD10B582B00C46694600F0E4
:101480009AFD48B19DF8000010B1042804D1012054
:10149000207002B0002010BD012002B010BD10B5B8
:1014A00082B00C46694600F096FD48B19DF80000F8
:1014B00010B1082804D10120207002B0002010BD16
:1014C000012002B010BD10B582B00C46694600F094
:1014D00092FD48B19DF8000010B1102804D1012000
:1014E000207002B0002010BD012002B010BD10B568
:1014F00082B00C46694600F08EFD48B19DF80000B0
:1015000010B1202804D10120207002B0002010BDAD
:10151000012002B010BD30B583B004460020ADF804
:1015200004008DF8060000900D460421284601F0C5
:1015300057FA012301AA1B21204600F034FA0028A3
:1015400000F0A88001230DF103021C21204600F0C9
:101550002AFA002800F09E8001230DF106021D21C9
:10156000204600F020FA002800F0948001230DF1BD
:1015700002025321204600F016FA002800F08A806B
:1015800001230DF101025E21204600F00CFA002833
:1015900000F0808001236A465F21204600F003FAB4
:1015A000002877D001230DF105020D21204600F01F
:1015B000FAF900286ED09DF80100C00603D49DF80A
:1015C0000000C00607D59DF80400800603D52868F2
:1015D00040F0010028609DF80100800603D49DF8CA
:1015E0000000800607D59DF80400000703D5286891
:1015F00040F0080028609DF80100400603D49DF8E3
:101600000000400607D59DF80300800603D5286832
:1016100040F0020028609DF80100000703D49DF807
:101620000000000707D59DF80300C00603D5286811
:1016300040F0040028609DF80100400703D49DF8A5
:101640000000400707D59DF80600400603D528682E
:1016500040F0400028609DF80500000607D59DF881
:101660000200C00603D5286840F0100028609DF8ED
:101670000100800703D49DF80000800707D59DF87E
:101680000200800603D5286840F020002860002072
:1016900003B030BD012003B030BD0000DFED840A8F
:1016A00000B5B4EE600AF1EE10FA81B048BF08212F
:1016B00047D4DFED800AB4EE600AF1EE10FA48BFBD
:1016C00010213ED4DFED7C0AB4EE600AF1EE10FA90
:1016D00048BF182135D4DFED790AB4EE600AF1EE87
:1016E00010FA48BF20212CD4DFED750AB4EE600A51
:1016F000F1EE10FA48BF282123D4DFED720AB4EED0
:10170000600AF1EE10FA48BF30211AD4DFED6E0AFC
:10171000B4EE600AF1EE10FA48BF382111D4DFEDC3
:101720006B0AB4EE600AF1EE10FA48BF402108D40B
:10173000DFED670AB4EE600AF1EE10FA4CBF482103
:10174000502100F053FA401E8041C00F01B000BD8F
:1017500010B582B00C46694600F0BEFC68B19DF839
:10176000000020B1202806D0012002B010BD20705A
:1017700002B0002010BD0120F9E7012002B010BD29
:1017800010B582B00C46694600F096FC68B19DF831
:10179000000020B1102806D0012002B010BD20703A
:1017A00002B0002010BD0120F9E7012002B010BDF9
:1017B00010B582B00C46694600F09EFC68B19DF8F9
:1017C000000020B1402806D0012002B010BD2070DA
:1017D00002B0002010BD0120F9E7012002B010BDC9
:1017E00000B581B000F098FC401E8041C00F01B0F0
:1017F00000BD00B581B001F085F8401E8041C00FEA
:1018000001B000BD00B581B000F035FC401E804144
:10181000C00F01B000BD00B5072981B006D800F0A7
:10182000A7F9401E8041C00F01B000BD012001B0EA
:1018300000BD000070B582B00D460446694601F057
:1018400061F8002831D09DF801009DF8001041EAB0
:1018500000260DF10201204600F0F8F828B39DF8AB
:1018600002000C2821D8DFE800F0102020200720FB
:1018700020200D2020200A009FED160A07E09FED92
:10188000160A04E09FED150A01E09FED150A36B235
:1018900000EE906AF8EEE00A20EE800ABDEEC00A83
:1018A00085ED000A002002B070BD012002B070BDBD
:1018B000010020410100C841010048420100C84226
:1018C000010048430100C843010048440100C844E6
:1018D00001404E4523DBF93E23DB793E23DBF93D16
:1018E00023DB793D00B5062981B00CD8DFE801F093
:1018F00004040B04040B040000F059F9401E80415D
:10190000C00F01B000BD012001B000BD00B50A004C
:1019100018BF202981B006D100F087F9401E804110
:10192000C00F01B000BD012001B000BD00B581B005
:1019300000F0EFF8401E8041C00F01B000BD00B5BF
:10194000012981B006D800F0CDF9401E8041C00FBA
:1019500001B000BD012001B000BD00B5012981B07A
:1019600006D800F01AFC401E8041C00F01B000BD37
:10197000012001B000BD00B5032981B006D800F0F8
:10198000D0F9401E8041C00F01B000BD012001B060
:1019900000BD000000B581B001F0BEF8401E8041DE
:1019A000C00F01B000BD00B581B001F0FFF8401ECE
:1019B0008041C00F01B000BD00B50A4681B00123CF
:1019C0000F2101F0F3F8401E8041C00F01B000BDAF
:1019D00030B581B00D46044601236A46122101F05C
:1019E000E5F810B1002001B030BD9DF8000000F016
:1019F000BF0028438DF8000001236A4612212046CB
:101A000001F08AF8401E8041C00F01B030BD30B5F2
:101A100081B00D46044601236A46102101F0C6F844
:101A200010B1002001B030BD9DF8000000F0F300BF
:101A300028438DF8000001236A461021204601F05A
:101A40006BF8401E8041C00F01B030BD10B50C4690
:101A500001232246102101F0A9F808B1002010BD91
:101A6000207800F00C002070012010BDF0B581B08E
:101A700004460D4600260327F6B206F1280101238D
:101A8000AA19C9B2204601F091F850B9761CF6B2F5
:101A900006F128010123AA19C9B2204601F086F8EF
:101AA00010B1002001B0F0BD761C7F1EE4D10120F2
:101AB00001B0F0BD30B581B00D46044601236A4641
:101AC000102101F073F810B1002001B030BD9DF875
:101AD000000000F00F0028438DF8000001236A4643
:101AE0001021204601F018F8401E8041C00F01B0BF
:101AF00030BD10B50C4601232246102101F056F8E6
:101B000008B1002010BD207800F0F0002070012006
:101B100010BD70B582B0044601236A460D46062109
:101B200001F044F82E0A78B98DF8005001236A4676
:101B30000621204600F0F0FF30B901236A46072154
:101B4000204601F033F810B1002002B070BD9DF8BE
:101B5000000066F303008DF8000001236A460721A8
:101B6000204600F0D9FF401E8041C00F02B070BD7A
:101B700030B581B00D46044601236A46082101F0C4
:101B800015F810B1002001B030BD9DF8000000F044
:101B9000F80028438DF8000001236A4608212046FA
:101BA00000F0BAFF401E8041C00F01B030BD30B51B
:101BB00081B00D46044601236A460A2100F0F6FF73
:101BC00010B1002001B030BD9DF8000000F0F80019
:101BD00028438DF8000001236A460A21204600F0C0
:101BE0009BFF401E8041C00F01B030BD30B581B0B9
:101BF0000D46044601236A460A2100F0D7FF10B1C2
:101C0000002001B030BD9DF8000000F0870028439F
:101C10008DF8000001236A460A21204600F07CFF6F
:101C2000401E8041C00F01B030BD30B581B00D46BF
:101C3000044601236A460D2100F0B8FF10B10020D0
:101C400001B030BD9DF8000000F0DF0028438DF8A2
:101C5000000001236A460D21204600F05DFF401E72
:101C60008041C00F01B030BD30B581B00D46044693
:101C700001236A460D2100F099FF10B1002001B048
:101C800030BD9DF8000000F07F0028438DF8000073
:101C900001236A460D21204600F03EFF401E804190
:101CA000C00F01B030BD30B581B00D4604460123F0
:101CB0006A46122100F07AFF10B1002001B030BD59
:101CC0009DF8000000F0FB0028438DF80000012380
:101CD0006A461221204600F01FFF401E8041C00FBF
:101CE00001B030BD30B581B00D46044601236A46CF
:101CF000132100F05BFF10B1002001B030BD9DF852
:101D0000000000F0FE0028438DF8000001236A4621
:101D10001321204600F000FF401E8041C00F01B09B
:101D200030BD30B581B00D46044601236A4614210A
:101D300000F03CFF10B1002001B030BD9DF8000064
:101D400000F0FC0028438DF8000001236A461421AE
:101D5000204600F0E1FE401E8041C00F01B030BDC2
:101D600030B581B00D46044601236A46182100F0C3
:101D70001DFF10B1002001B030BD9DF8000000F043
:101D8000F70028438DF8000001236A4618212046F9
:101D900000F0C2FE401E8041C00F01B030BD10B542
:101DA0000C4601232246182100F000FF08B1002054
:101DB00010BD207800F008002070012010BD30B563
:101DC00081B00D46044601236A46182100F0EEFE5C
:101DD00010B1002001B030BD9DF8000000F0EF0010
:101DE00028438DF8000001236A461821204600F0A0
:101DF00093FE401E8041C00F01B030BD10B50C46AF
:101E000001232246182100F0D1FE08B1002010BDA8
:101E1000207800F010002070012010BD30B581B096
:101E20000D46044601236A46182100F0BFFE10B19A
:101E3000002001B030BD9DF8000000F0DF00284315
:101E40008DF8000001236A461821204600F064FE48
:101E5000401E8041C00F01B030BD10B50C460123BB
:101E60002246182100F0A2FE08B1002010BD207803
:101E700000F020002070012010BD30B581B00D466B
:101E8000044601236A46192100F090FE10B100209B
:101E900001B030BD9DF8000000F0FD0028438DF832
:101EA000000001236A461921204600F035FE401E3D
:101EB0008041C00F01B030BD30B581B00D46044641
:101EC00001236A46192100F071FE10B1002001B013
:101ED00030BD9DF8000000F0FB0028438DF80000A5
:101EE00001236A461921204600F016FE401E80415B
:101EF000C00F01B030BD10B50C46012322461B2196
:101F000000F054FE08B1002010BD207800F0080059
:101F10002070012010BD10B50C46012322461B2164
:101F200000F044FE08B1002010BD207800F0200031
:101F30002070012010BD10B50C46012322461C2143
:101F400000F034FE08B1002010BD207800F0100031
:101F50002070012010BD10B50C46012322461C2123
:101F600000F024FE08B1002010BD207800F0200011
:101F70002070012010BD10B50C46012322461D2102
:101F800000F014FE08B1002010BD207800F0010020
:101F90002070012010BD10B50C46012322461D21E2
:101FA00000F004FE08B1002010BD207800F002000F
:101FB0002070012010BD10B50C46012322461D21C2
:101FC00000F0F4FD08B1002010BD207800F00400FE
:101FD0002070012010BD10B50C46012322461D21A2
:101FE00000F0E4FD08B1002010BD207800F00800EA
:101FF0002070012010BD10B50C46012322461D2182
:1020000000F0D4FD08B1002010BD207800F01000D1
:102010002070012010BD10B50C46012322461D2161
:1020200000F0C4FD08B1002010BD207800F02000B1
:102030002070012010BD10B50C46012322461D2141
:1020400000F0B4FD08B1002010BD207800F0400081
:102050002070012010BD10B50C46012322461E2120
:1020600000F0A4FD08B1002010BD207800F00100B0
:102070002070012010BD30B581B00D46044601230B
:102080006A463A2100F092FD38B901230DF10102B0
:102090003B21204600F08AFD10B1002001B030BD88
:1020A0009DF801009DF8001000F00F0041EA0020AB
:1020B000288001B0012030BD10B50C460123224616
:1020C0003B2100F073FD08B1002010BD207800F026
:1020D00010002070012010BD10B50C4601232246CF
:1020E0003B2100F063FD08B1002010BD207800F016
:1020F00020002070012010BD10B50C46012322469F
:102100003B2100F053FD08B1002010BD207800F005
:1021100040002070012010BD30B581B00D4604464E
:1021200001236A463C2100F041FD38B901230DF13D
:1021300001023D21204600F039FD10B1002001B020
:1021400030BD9DF801009DF8001000F0030041EA49
:102150000020288001B0012030BD10B50C460123BD
:102160002246532100F022FD08B1002010BD207846
:1021700000F010002070012010BD10B50C460123A6
:102180002246532100F012FD08B1002010BD207836
:1021900000F020002070012010BD30B581B00D4648
:1021A000044601236A46582100F000FD10B10020CA
:1021B00001B030BD9DF8000000F0FE0028438DF80E
:1021C000000001236A465821204600F0A5FC401E6D
:1021D0008041C00F01B030BD30B581B00D4604461E
:1021E00001236A46582100F0E1FC10B1002001B043
:1021F00030BD9DF8000000F0FD0028438DF8000080
:1022000001236A465821204600F086FC401E80418A
:10221000C00F01B030BD30B581B00D46044601237A
:102220006A46582100F0C2FC10B1002001B030BD58
:102230009DF8000000F0FB0028438DF8000001230A
:102240006A465821204600F067FC401E8041C00FBE
:1022500001B030BD30B581B00D46044601236A4659
:10226000582100F0A3FC10B1002001B030BD9DF852
:10227000000000F0F70028438DF8000001236A46B3
:102280005821204600F048FC401E8041C00F01B09C
:1022900030BD30B581B00D46044601236A46582151
:1022A00000F084FC10B1002001B030BD9DF80000AA
:1022B00000F0DF0028438DF8000001236A46582112
:1022C000204600F029FC401E8041C00F01B030BD07
:1022D00030B581B00D46044601236A46582100F00E
:1022E00065FC10B1002001B030BD9DF8000000F089
:1022F000BF0028438DF8000001236A46582120467C
:1023000000F00AFC401E8041C00F01B030BD30B566
:1023100081B00D46044601236A46592100F046FC6F
:1023200010B1002001B030BD9DF8000065F304003D
:102330008DF8000001236A465921204600F0ECFB8D
:10234000401E8041C00F01B030BD30B581B00D4698
:10235000044601236A46592100F028FC10B10020F0
:1023600001B030BD9DF8000000F09F0028438DF8BB
:10237000000001236A465921204600F0CDFB401E93
:102380008041C00F01B030BD30B581B00D4604466C
:1023900001236A465A2100F009FC10B1002001B067
:1023A00030BD9DF8000065F301008DF800000123A9
:1023B0006A465A21204600F0AFFB401E8041C00F04
:1023C00001B030BD30B581B00D46044601236A46E8
:1023D0005A2100F0EBFB10B1002001B030BD9DF898
:1023E000000065F383008DF8000001236A465A213E
:1023F000204600F091FB401E8041C00F01B030BD6F
:1024000030B581B00D46044601236A465A2100F0DA
:10241000CDFB10B1002001B030BD9DF8000000F0F0
:102420000F0040EA05108DF8000001236A465A218A
:10243000204600F071FB401E8041C00F01B030BD4E
:1024400030B581B00D46044601236A465B2100F099
:10245000ADFB10B1002001B030BD9DF8000065F368
:1024600005008DF8000001236A465B21204600F03C
:1024700053FB401E8041C00F01B030BD30B581B06C
:102480000D46044601236A465B2100F08FFB10B124
:10249000002001B030BD9DF8000000F07F0028430F
:1024A0008DF8000001236A465B21204600F034FBD2
:1024B000401E8041C00F01B030BD30B581B00D4627
:1024C000044601236A465C2100F070FB10B1002035
:1024D00001B030BD9DF8000065F303008DF80000E9
:1024E00001236A465C21204600F016FB401E804115
:1024F000C00F01B030BD30B581B00D460446012398
:102500006A465C2100F052FB10B1002001B030BDE2
:102510009DF8000000F0EF0028438DF80000012333
:102520006A465C21204600F0F7FA401E8041C00F49
:1025300001B030BD30B581B00D46044601236A4676
:102540005C2100F033FB10B1002001B030BD9DF8DC
:10255000000065F346108DF8000001236A465C21F7
:10256000204600F0D9FA401E8041C00F01B030BDB6
:1025700030B581B00D46044601236A465D2100F066
:1025800015FB10B1002001B030BD9DF8000000F037
:10259000F80028438DF8000001236A465D2120469B
:1025A00000F0BAFA401E8041C00F01B030BD70B5D6
:1025B00082B0044601236A460E465D2100F0F6FA19
:1025C0007509A8B99DF8000000F0070040EAC600B0
:1025D0008DF8000001236A465D21204600F09CFA38
:1025E00030B901236A465C21204600F0DFFA10B1C1
:1025F000002002B070BD9DF8000000F07F0040EAAE
:10260000C5108DF8000001236A465C21204600F0C9
:1026100083FA401E8041C00F02B070BD30B581B05A
:102620000D46044601236A465E2100F0BFFA10B150
:10263000002001B030BD9DF8000000F0FD002843EF
:102640008DF8000001236A465E21204600F064FAFE
:10265000401E8041C00F01B030BD30B581B00D4685
:10266000044601236A465E2100F0A0FA10B1002062
:1026700001B030BD9DF8000000F0FB0028438DF84C
:10268000000001236A465E21204600F045FA401E04
:102690008041C00F01B030BD30B581B00D46044659
:1026A00001236A465E2100F081FA10B1002001B0DA
:1026B00030BD9DF8000000F0F70028438DF80000C1
:1026C00001236A465E21204600F026FA401E804122
:1026D000C00F01B030BD30B581B00D4604460123B6
:1026E0006A465E2100F062FA10B1002001B030BDF0
:1026F0009DF8000000F0EF0028438DF80000012352
:102700006A465E21204600F007FA401E8041C00F55
:1027100001B030BD30B581B00D46044601236A4694
:102720005E2100F043FA10B1002001B030BD9DF8E9
:10273000000000F0DF0028438DF8000001236A4606
:102740005E21204600F0E8F9401E8041C00F01B034
:1027500030BD30B581B00D46044601236A465E2186
:1027600000F024FA10B1002001B030BD9DF8000047
:1027700000F0BF0028438DF8000001236A465E2167
:10278000204600F0C9F9401E8041C00F01B030BDA5
:1027900030B581B00D46044601236A465F2100F042
:1027A00005FA10B1002001B030BD9DF8000000F026
:1027B000FD0028438DF8000001236A465F21204672
:1027C00000F0AAF9401E8041C00F01B030BD30B505
:1027D00081B00D46044601236A465F2100F0E6F908
:1027E00010B1002001B030BD9DF8000000F0FB00EA
:1027F00028438DF8000001236A465F21204600F03F
:102800008BF9401E8041C00F01B030BD30B581B0A2
:102810000D46044601236A465F2100F0C7F910B156
:10282000002001B030BD9DF8000000F0F700284303
:102830008DF8000001236A465F21204600F06CF904
:10284000401E8041C00F01B030BD30B581B00D4693
:10285000044601236A465F2100F0A8F910B1002068
:1028600001B030BD9DF8000000F0EF0028438DF866
:10287000000001236A465F21204600F04DF9401E0A
:102880008041C00F01B030BD30B581B00D46044667
:1028900001236A465F2100F089F910B1002001B0E0
:1028A00030BD9DF8000000F0DF0028438DF80000E7
:1028B00001236A465F21204600F02EF9401E804128
:1028C000C00F01B030BD30B581B00D4604460123C4
:1028D0006A465F2100F06AF910B1002001B030BDF6
:1028E0009DF8000000F0BF0028438DF80000012390
:1028F0006A465F21204600F00FF9401E8041C00F5C
:1029000001B030BD30B50D4681B0044601232A46E2
:102910003E2100F04BF930B901236A1C3F212046CB
:1029200000F044F910B1002001B030BD012001B029
:1029300030BD30B50D4681B0044601232A464B21F7
:1029400000F034F930B901236A1C4C21204600F014
:102950002DF910B1002001B030BD012001B030BD13
:1029600030B581B00D46044601236A46012100F0CE
:102970001DF958B99DF8000040F080008DF8000066
:1029800001236A460121204600F0C6F801230DF11B
:1029900001020F21204600F009F99DF8010065F3BE
:1029A00004008DF8010001230DF101020F212046E2
:1029B00000F0B2F801236A460121204600F0F6F843
:1029C00058B99DF8000000F07F008DF80000012349
:1029D0006A460121204600F09FF8012001B030BD79
:1029E000002200F091B9000030B5C04C87B02046FD
:1029F00000F004FE002844D1BD48BE4D606001A92E
:102A00003320A0600120E060BB482060686940F08E
:102A100002006861686900F00200009000984FF4BD
:102A20004070019012200290022004900020039038
:102A300004200590B14800F02FFE286A40F40010F1
:102A400028620022286A00F40010009000210098FB
:102A5000286840F400102860286820F400102860DE
:102A60001F2000F022FF1F2000F048FF002200215D
:102A7000202000F01AFF202000F040FF204600F048
:102A800073F9204600F0BAFD20280CBF0020012079
:102A900007B030BD0020704730B5994C994D8BB0D0
:102AA000206840F00100206006A9206800F00100C5
:102AB00000900098079510200690022009900020B1
:102AC00008904FF0904000F0E7FD002200210A201E
:102AD00000F0EBFE0A2000F011FF206840F0020039
:102AE000206001A9206800F0020000900098029583
:102AF0000120019002200490002003907F4800F004
:102B0000CBFD00220021062000F0CFFE062000F0C1
:102B1000F5FE00200BB030BD2DE9F043044683B034
:102B200020783D38884615461E4604D0743807D0B4
:102B30000B38012823D8022E21DB48F080081EE044
:102B40000027300000F01780DFF8A0914FF480508C
:102B5000029000950120019007EB0802A178012363
:102B6000D2B2484600F072F908B1484615E07F1C21
:102B70006D1CB742EADB002003B0BDE8F0834FF4E0
:102B80008050029001960095584FA178012342464B
:102B9000384600F05BF928B1384600F03DF900F006
:102BA0004EF8012003B0BDE8F08300002DE9F043AA
:102BB000044683B020783D38884615461E4604D02A
:102BC000743807D00B38012823D8022E21DB48F0B7
:102BD00080081EE00027300000F01780DFF80C911D
:102BE0004FF48050029000950120019007EB0802FD
:102BF000A1780123D2B2484600F018FB08B148463C
:102C000015E07F1C6D1CB742EADB002003B0BDE875
:102C1000F0834FF48050029001960095334FA178D5
:102C200001234246384600F001FB28B1384600F047
:102C3000F3F800F004F8012003B0BDE8F08330B5EC
:102C40002A4C87B0204600F0D9FC002844D12848FF
:102C5000284D606001A93320A0600120E060264873
:102C60002060686940F002006861686900F0020055
:102C7000009000984FF440700190122002900220C2
:102C8000049000200390042005901C4800F004FDEF
:102C9000286A40F4001028620022286A00F400101C
:102CA000009000210098286840F4001028602868EF
:102CB00020F4001028601F2000F0F7FD1F2000F016
:102CC0001DFE00220021202000F0EFFD202000F05A
:102CD00015FE204600F048F8204600F08FFC202822
:102CE0000CBF0020012007B030BD0000900500207F
:102CF0003A14D1103810024000540040000400483B
:102D00004C10024000001110401810F0030308D0CE
:102D1000C91A1FD3DB0748BF00F8012D28BF20F8D0
:102D2000022D130030B414461546103928BF20E98F
:102D30003C00FAD8490728BF20E90C0048BF40F8FA
:102D4000042D890028BF20F8022D48BF00F8012D6E
:102D500030BC7047C91818BF00F8012DCB0728BF39
:102D600000F8012D7047000010B5040001D10120CA
:102D700010BD94F8410020B984F84000204600F0CE
:102D800089FC242084F84100206801684908490032
:102D900001606068216820F07060086120688168C7
:102DA00021F400418160E06821680128A0680CBF1F
:102DB00040F4004040F404408860E068022803D1F9
:102DC00021684FF4006048602068416841F000715C
:102DD00041F4004141602068C16821F40041C160B4
:102DE000206961690843A16940EA01202168C8603F
:102DF000E069216A0843216808602068016841F0A1
:102E00000101016000206064202084F8410000205E
:102E1000206384F8420010BD10B5040001D10120E8
:102E200010BD242084F84100206801684908490049
:102E30000160204600F088FD0020606484F84100B5
:102E4000206384F8420084F8400010BD2DE9F0476B
:102E50000546894695F8410020289246984640F05C
:102E6000E181089E002E00F09E81099C200000F068
:102E70009A8195F84000012800F0D481012085F85E
:102E8000400000F063FD07462868816909040FD5FA
:102E900000F05CFDC01B1A28F6D3202085F8410005
:102EA000002085F8420085F840000320BDE8F08747
:102EB000212185F841105FFA88F2402185F84210FF
:102EC000002169646E626C856963C9F30904416815
:102ED000DFF81C9709EA0101214341EA024141F070
:102EE000807141F4005141600A9E29688869800719
:102EF0004CD48869C0063BD52868816989061BD4F3
:102F000016F1010FF8D026B100F020FDC01B86425B
:102F1000F2D2202085F84100002085F8420085F893
:102F20004000686C686C042840F0A380002085F89D
:102F300040000120BDE8F0871021C16120202968F0
:102F4000C86128688169890744BF002181622868B7
:102F50008169C90703D4816941F001018161286851
:102F6000DFF8902641681140416004206864D0E792
:102F700016F1010FB9D026B100F0E8FCC01B864263
:102F8000B3D2686C40F020006864C2E7B8F1010F6A
:102F900048D04FEA1A20886228688169890741D49D
:102FA0008069C00628D528688169890609D416F188
:102FB000010FF8D06EB300F0C9FCC01B8642F2D2FC
:102FC00027E01021C16120202968C8612868816933
:102FD000890744BF0021816228688169C90703D439
:102FE000816941F0010181612868DFF808264168A4
:102FF0001140416004200BE016F1010FCCD026B146
:1030000000F0A4FCC01B8642C6D2686C40F02000D1
:103010006864202085F84100002085F8420085F88A
:1030200040007EE728685FFA8AF18162286881693A
:10303000090611D416F1010FF8D026B100F086FC74
:10304000C01B8642F2D2202085F84100002085F87E
:10305000420085F8400065E7698DFF290FD9FF21FF
:103060002985DFF89425416809EA010121431143CC
:1030700010E0002085F840000320BDE8F087698D4E
:103080002985C9B2426809EA0202224342EA0141A3
:1030900041F00071416028688169890721D43A466E
:1030A0003146284600F0ADFAA0B916F1010FF2D072
:1030B00026B100F04BFCC01B8642ECD2686C40F09D
:1030C00020006864202085F84100002085F8420037
:1030D00085F84000686C042840F0A1800120BDE81C
:1030E000F087696A4A1C6A6209788162688D401EAD
:1030F0006885288D401E288580B290BB688D80B37E
:1031000028688169090613D416F1010FF8D026B199
:1031100000F01CFCC01B8642F2D2202085F8410042
:10312000002085F8420085F840000320BDE8F087C4
:10313000698DFF2909D9FF212985DFF8BC24416861
:1031400009EA0101214311430AE0698D2985C9B2C9
:10315000426809EA0202224342EA014141F0007159
:103160004160688D002896D128688169890644D419
:103170008069C00636D528688169890616D416F19B
:10318000010FF8D026B100F0E1FBC01B8642F2D25D
:10319000202085F84100002085F8420085F8400095
:1031A000686C04283BD10120BDE8F0871021C16183
:1031B00020202968C86128688169890744BF0021E7
:1031C000816228688169C90703D4816941F00101DE
:1031D00081612868DFF81C244168114041600420A7
:1031E0006864D5E726B100F0B1FBC01B8642BBD2B4
:1031F000686C40F020006864CAE72021C16128683B
:10320000DFF8F023416811404160202085F841003B
:10321000002085F8420085F84000BDE8F0870320D3
:10322000BDE8F0870220BDE8F08700002DE9F047F7
:103230000546894695F8410020289246984640F078
:10324000D481089E002E00F09181099C200000F09E
:103250008D8195F84000012800F0C781012085F894
:10326000400000F073FB07462868816909040FD508
:1032700000F06CFBC01B1A28F6D3202085F8410013
:10328000002085F8420085F840000320BDE8F08763
:10329000222185F841105FFA88F2402185F842101A
:1032A000002169646E626C856963C9F30904416831
:1032B000DFF83C9309EA0101214341EA024141F46C
:1032C000005141600A9E2968886980074CD488694A
:1032D000C0063BD52868816989061BD416F1010F09
:1032E000F8D026B100F032FBC01B8642F2D220207B
:1032F00085F84100002085F8420085F84000686CA0
:10330000686C042840F0A480002085F8400001206B
:10331000BDE8F0871021C16120202968C8612868B4
:103320008169890744BF0021816228688169C907D2
:1033300003D4816941F0010181612868DFF8B4227A
:1033400041681140416004206864D0E716F1010F24
:10335000B9D026B100F0FAFAC01B8642B3D2686C2D
:1033600040F020006864C2E7B8F1010F48D04FEA8E
:103370001A20886228688169890741D48069C0065B
:1033800028D528688169890609D416F1010FF8D07B
:103390006EB300F0DBFAC01B8642F2D227E01021A8
:1033A000C16120202968C86128688169890744BFF4
:1033B0000021816228688169C90703D4816941F0CD
:1033C000010181612868DFF82C22416811404160C9
:1033D00004200BE016F1010FCCD026B100F0B6FAB4
:1033E000C01B8642C6D2686C40F020006864202072
:1033F00085F84100002085F8420085F840007EE70E
:1034000028685FFA8AF1816228688169490611D4C7
:1034100016F1010FF8D026B100F098FAC01B8642D1
:10342000F2D2202085F84100002085F8420085F87E
:10343000400065E7698DFF2910D9FF212985416882
:1034400009EA0101214341F0FE7141F4493112E0E2
:10345000002085F840000320BDE8F087698D2985AC
:10346000C9B2426809EA0202224342EA014141F03C
:10347000007141F41051416028688169490713D4F3
:1034800016F1010FF8D026B100F060FAC01B864299
:10349000F2D2202085F84100002085F8420085F80E
:1034A00040000320BDE8F087696A4A1C6A62406AEE
:1034B0000870288D401E288580B2698D491E698557
:1034C00090BB688D80B328688169090613D416F112
:1034D000010FF8D026B100F039FAC01B8642F2D2B3
:1034E000202085F84100002085F8420085F8400042
:1034F0000320BDE8F087698DFF2909D9FF212985BF
:10350000DFF8F420416809EA0101214311430AE090
:10351000698D2985C9B2426809EA0202224342EA5A
:10352000014141F000714160688D0028A4D12868F4
:103530008169890644D48069C00636D528688169C6
:10354000890616D416F1010FF8D026B100F0FEF965
:10355000C01B8642F2D2202085F84100002085F869
:10356000420085F84000686C04283BD10120BDE88A
:10357000F0871021C16120202968C861286881690D
:10358000890744BF0021816228688169C90703D483
:10359000816941F0010181612868DFF858204168A4
:1035A0001140416004206864D5E726B100F0CEF9EF
:1035B000C01B8642BBD2686C40F020006864CAE73A
:1035C0002021C1612868DFF82C204168114041604A
:1035D000202085F84100002085F8420085F8400051
:1035E000BDE8F0870320BDE8F0870220BDE8F08742
:1035F000009800FC00E800FE0000FF0190F8410088
:10360000704770B504460D4620688069C0061646AE
:103610003AD520688169890612D415F1010FF8D0D6
:1036200025B100F093F9801B8542F2D2202084F866
:103630004100002084F8420084F84000032070BD5F
:103640001021C16120202168C86120688169890733
:1036500044BF0021816220688169C90703D4816960
:1036600041F0010181612068094A416811404160CF
:1036700004206064202084F84100002084F8420087
:1036800084F84000012070BD002070BD00000000E3
:1036900000E800FE704700002DE9F04F81B00C6893
:1036A000714BDFF8C881DFF8C8910022002C4FF081
:1036B0000F0A4FF0010B00F0BE800C680BFA02FC01
:1036C0001CEA040E00F0B2804C68022C18BF122CC9
:1036D0000ED1D40800EB84049500266A05F01C0581
:1036E0000AFA05F7BE430F6907FA05F53543256267
:1036F0005400032506680F79A540ED4307F0030742
:103700002E40A7403E4306604E68012E18BF022E91
:1037100003D0112E18BF122E0ED18668CF682E400E
:10372000A7403E43866046684F68C7F3001726EA05
:103730000C0697403E4346604E6806F00307032F91
:1037400007D1C76AC6F3C00627EA0C0796403E4376
:10375000C662C6682E408D6805FA04F43443C4601E
:103760004C68E40062D5D9F8004044F00104C9F87F
:1037700000404FEA920CD9F8005005F00104009483
:103780009500009C58F82C6005F00C040AFA04F52A
:1037900026EA0505B0F1904F08BF00261DD0354E32
:1037A000B04208BF012618D0334EB04208BF0226EF
:1037B00013D0324EB04208BF03260ED0304EB04276
:1037C00008BF042609D02F4EB04208BF052604D0FA
:1037D0002D4EB0420CBF0626072606FA04F42C43F1
:1037E00048F82C406FEA0E061C684D683440ED0323
:1037F00048BF4EEA04041C605C684D683440AD0369
:1038000048BF4EEA04045C609C684D683440ED0299
:1038100048BF4EEA04049C60DC6806EA040C4C686D
:10382000A40248BF4EEA0C0CC3F80CC0521C0C6832
:10383000D4407FF442AF01B0BDE8F08F006908408A
:10384000401E8041C043C00F70470AB1816170477C
:10385000816270470D4A136803421CBF106000F07C
:10386000F4B8704700000000000401400800014067
:10387000601002400004004800080048000C0048A6
:1038800000100048001400480018004814040140CB
:1038900027490A684FF6FF0300021A4000F4E0606F
:1038A0001043244A10430860704730B4204B1B6813
:1038B000C3F30223C3F10704052C28BF04241D1DF4
:1038C000072D34BF0023DB1E012505FA04F4641E16
:1038D0002140994005FA03F35B1E1A401143090188
:1038E000002807D5144A00F00F00104400F8041C0B
:1038F00030BC7047114A115430BC7047012100F0B0
:103900001F0291400E4A400942F820107047401EA5
:10391000B0F1807F01D3012070470A494860F02050
:1039200081F8130D00208860072008600020704790
:103930000CED00E00000FA0518ED00E000E400E006
:1039400000E100E010E000E070470000014800687E
:10395000704700BF2806002010B582B000F09EF826
:1039600000F0AAF8002000F0DFF80121002000F0AC
:1039700019F9484C04F10801012000F077F90128F9
:1039800003D1002000F0F8F8FEE7A06800F024FA68
:1039900047E0022820D1A068694600F065FAD8B94E
:1039A0000098C0F38000B8B1002000F0E5F8642072
:1039B00000F06AFA002000F0EAF8642000F064FAEF
:1039C000002000F0D9F8642000F05EFA002000F03A
:1039D000DEF8642000F058FA6078012808D1A06869
:1039E000002100F009FA18B9012020710020607050
:1039F000A07801280CD1A06800F00CFA40B9A068AA
:103A0000002100F015FA18B9022020710020A070E2
:103A1000E078012805D1A06800F018FA08B92071F3
:103A2000E07020780128D7D100202070207901286B
:103A3000AFD1A068694600F017FA0028CCD10098F1
:103A4000C0F340000028C7D0BAE700B5B0F5005F6A
:103A500081B016D1002000F0F1F828B90D480179A5
:103A60000A0003D10121417001B000BD012908BF46
:103A70008170F9D0022903D10121C17001B000BDCC
:103A8000FEE7102804D103490120087001B000BDF1
:103A9000FEE7000074010020FEE7000000B581B0E1
:103AA0000320FFF7F5FE0F2000F000FA00F003F806
:103AB000002001B000BD704700B597B068460021F6
:103AC000002200230EC006C0442100F005FA102099
:103AD000059001200B9060200D9000200C9002209A
:103AE0000F90012010901190282012900220159024
:103AF000072013900420149005A800F0F1F908B1F4
:103B0000FFF7CAFF0F20009004210320019000203E
:103B1000029003900490684600F096FC08B1FFF70D
:103B2000BBFF17B000BD000010B586B001A9002290
:103B3000002300241CC10CC101000AD1DFF81011C0
:103B40000A6842F001020A60096801F0010100916F
:103B500000990FF20C11DFF8FC2031F810100191E0
:103B60000393012102910221049101A952F820003E
:103B7000FFF792FD06B010BD0FF2E401DFF8D4307C
:103B800031F8101053F820000122FFF75EBE0FF24B
:103B9000D001DFF8C03031F8101053F820000022B7
:103BA000FFF753BE30B587B0044601A800220023BA
:103BB00000252CC00CC020000AD1DFF89400026858
:103BC00042F004020260006800F0040000900098D7
:103BD000080011D10FF28C0030F81400019002930C
:103BE00002200490039301A9DFF86C0050F8240030
:103BF000FFF752FD07B030BD01291DD10FF264005F
:103C000030F814000190039301A9DFF850000290EE
:103C100002200490DFF8400050F82400FFF73CFD3C
:103C20000FF2440030F8144000220F2160B2FFF779
:103C30003CFE60B2FFF762FE07B030BD0FF2240118
:103C4000DFF8142031F8101052F82000FFF7F6BD0D
:103C50004C1002408001002084010020000021104F
:103C600020000000002000002800000010B50C46D5
:103C70000021216068B10128204611D000F05AF8D7
:103C8000012804D1204600F011F801280CD00020B2
:103C900010BD204600F00AF80128F8D1012010BD1F
:103CA00000F048F80128F2D1012010BD30B5454D93
:103CB00004466879012881B03AD0FEF795FE0128C4
:103CC00036D06820287000206870D620A8700020A8
:103CD000A880A8710120E87105F12800A8603A4881
:103CE000E860002028613948E86305F13800A862DF
:103CF0000020E8622560E8680168080008D100201B
:103D00000021002207C503C5206001B0012030BD9D
:103D100028468847012808D120681421FEF760FE54
:103D20000020206001B0012030BDFEF7B3FE00206E
:103D300001B030BD30B5234D0446687E012881B006
:103D40003DD0FEF751FE012839D0692028750020AA
:103D50006875D420A8750120287600206876A8769A
:103D60000120E87605F13000E86119482862194819
:103D7000686205F1400028630020686305F11400C3
:103D80002060286A0168080005F1140008D10021AC
:103D9000002200230EC006C02160012001B030BD0A
:103DA0008847012808D120681421FEF719FE002059
:103DB000206001B0012030BDFEF76EFE002001B092
:103DC00030BD0000DC05002000000020200600209F
:103DD000240100205000002000B581B018B1C16856
:103DE00089680A0002D1012001B000BD884701287E
:103DF00018BF002001B000BD00281CBF0269002AC6
:103E000006D00378692B03D1926C130018BF1047BA
:103E10000120704700281CBF0169002906D00278E4
:103E2000692A03D1C96C0A0018BF084701207047EE
:103E300000281CBF0269002A06D00378692B03D131
:103E4000526D130018BF10470120704700281CBF97
:103E50000169002906D00278692A03D1896D0A0018
:103E600018BF08470120704700281CBF0269002ABC
:103E700008D039B10378692B04D1D2F8942013000B
:103E800018BF10470120704730B581B00446FFF7D6
:103E90005DFD14F1010F054618BF641CFFF756FDC8
:103EA000401BA042FAD301B030BD000010B504465B
:103EB0000748084A0068A0FB0221480AFFF727FDCF
:103EC000002221464FF0FF30FFF7EFFC002010BD2D
:103ED00088010020986E1283002200F0D5BB0000FC
:103EE0002DE9F041044682B02078DFF87857C0060B
:103EF00040F1B880A86810F00C0F40F0D08028681E
:103F0000800703D5A069002800F0C5802868276ACB
:103F100000074EBF2868D5F89400000900F0F000B3
:103F2000B84248D2A86D0026C00002D500F0C6FBFA
:103F30000EE0A86D40F08050A865A86D00F080509C
:103F40000090009800F0BAFBA96D21F08051A9659E
:103F5000B0F5007F05D1812F0ED3A12F0BD3022600
:103F60000AE0812F28BF032606D2802F01D1022626
:103F700002E0702F00D10126DFF8F0060168C908C1
:103F800046EAC1010160006800F00700B04240F05D
:103F90008280286840F0080028602868216A20F0A4
:103FA000F000084328606868E16920F47F4040EA37
:103FB0000120686047E0286840F00800286000267B
:103FC0002868216A20F0F000084328606868E169E9
:103FD00020F47F4040EA01206860276AA86DC00095
:103FE00002D500F06BFB0EE0A86D40F08050A86594
:103FF000A86D00F080500090009800F05FFBA96D64
:1040000021F08051A965B0F5007F05D1812F0ED335
:10401000A12F0BD302260AE0812F28BF032606D248
:10402000802F01D1022602E0702F00D10126DFF897
:104030003C060168C90846EAC1010160006800F059
:104040000700B04227D100F0B5FAAA68DFF82016C1
:10405000C2F30312895CC840DFF80C1608600F2019
:10406000FFF724FF2078C00740F18D80A86800F09A
:104070000C00082809D0A86800F00C000C2802BF2A
:10408000E86800F00300032843D1286880037AD54C
:104090006068002877D1012002B0BDE8F081A069F6
:1040A0000028286823D040F001002860FFF74EFC6C
:1040B00006462868800708D4FFF748FC801B0328C1
:1040C000F7D3032002B0BDE8F081286840F0080073
:1040D00028602868216A20F0F0000843286068689A
:1040E000E16920F47F4040EA01206860BAE74008B7
:1040F00040002860FFF72AFC064628688007B1D5F3
:10410000FFF724FC801B0328F7D3032002B0BDE88F
:10411000F0816068B0F5803F03D1286840F48030BA
:1041200010E0B0F5A02F286806D140F48020286068
:10413000286840F4803005E020F48030286028684A
:1041400020F480202860606870B1FFF7FFFB06460E
:104150002868800317D4FFF7F9FB801B6528F7D385
:10416000032002B0BDE8F081FFF7F0FB06462868A7
:10417000800308D5FFF7EAFB801B6528F7D30320EF
:1041800002B0BDE8F081207880071CD5A86800F057
:104190000C00042809D0A86800F00C000C2802BF0D
:1041A000E86800F00300022829D12868400503D5FB
:1041B000E06800283FF46FAF6868216920F0F8508C
:1041C00040EA016068602078000754D560690028E3
:1041D000D5F894003BD040F00100C5F89400FFF7FB
:1041E000B5FB0646D5F89400800744D4FFF7AEFB34
:1041F000801B0328F6D3032002B0BDE8F081E068FD
:104200000028286811D040F480702860FFF79EFBDA
:10421000064628684005CFD4FFF798FB801B03288B
:10422000F7D3032002B0BDE8F08120F4807028604D
:10423000FFF78CFB064628684005C4D5FFF786FBD0
:10424000801B0328F7D3032002B0BDE8F0814008AB
:104250004000C5F89400FFF779FB0646D5F89400B6
:10426000800708D5FFF772FB801B0328F6D30320D5
:1042700002B0BDE8F0812078400775D5A86D002711
:10428000C00009D4A86D40F08050A8650127A86D32
:1042900000F0805000900098DFF8D883D8F8000034
:1042A000C00516D4D8F8000040F48070C8F80000AB
:1042B000FFF74CFB4FEA0006D8F80000C00508D411
:1042C000FFF744FB801B0328F6D3032002B0BDE8B0
:1042D000F081A068012804D1D5F8900040F00100D9
:1042E00014E00528D5F8900008D140F00400C5F886
:1042F0009000D5F8900040F0010007E04008400031
:10430000C5F89000D5F8900020F00400C5F89000A2
:10431000A06890B1FFF71AFB4FEA000641F2893816
:10432000D5F8900080071AD4FFF710FB801B40459A
:10433000F6D3032002B0BDE8F081FFF707FB064685
:1043400041F28938D5F89000800708D5FFF7FEFACA
:10435000801B4045F6D3032002B0BDE8F0811FB1B9
:10436000A86D20F08050A865A06A002868D0A968D0
:1043700001F00C010C293FF48EAE0228286820F0D1
:10438000807028603ED1FFF7E1FA06462868800178
:1043900008D5FFF7DBFA801B0328F7D3032002B010
:1043A000BDE8F081206B616B401E090241EA0010FC
:1043B000A16B090940EA4140E16A0843E16B891EAB
:1043C0000905490D40EA4150216C891E090601F09A
:1043D0007E410843E860286840F080702860E86803
:1043E00040F08070E860FFF7B1FA06462868800167
:1043F00026D4FFF7ABFA801B0328F7D3032002B0C3
:10440000BDE8F0812868000106D42868800003D444
:10441000E86880088000E860E868DFF85C1208401F
:10442000E860FFF793FA06462868800108D5FFF791
:104430008DFA801B0328F7D3032002B0BDE8F0817A
:10444000002002B0BDE8F0812DE9F041DFF81C62E8
:1044500004463068884600F00700404509D23068BD
:10446000C00848EAC0003060306800F007004045EE
:104470007AD12078DFF8EC71800705D5B868A1689B
:1044800020F0F0000843B8602078C0075DD5606870
:10449000022802D13968890308E0032802D139686B
:1044A000890103E00028396804D1890704D4012078
:1044B000BDE8F081490557D5B968890840EA81000F
:1044C000B860FFF743FA0546606802280ED1B86865
:1044D00000F00C00082838D0FFF738FA401B41F2F2
:1044E00089318842F3D30320BDE8F08103280ED13F
:1044F000B86800F00C000C2827D0FFF727FA401B03
:1045000041F289318842F3D30320BDE8F08168B9D4
:10451000B86810F00C0F18D0FFF718FA401B41F2E2
:1045200089318842F4D30320BDE8F081B86800F0F7
:104530000C00042809D0FFF709FA401B41F2893129
:104540008842F3D30320BDE8F081306800F0070013
:1045500080450CD23068C00848EAC000306030683E
:1045600000F00700404502D00120BDE8F08120782E
:10457000400705D5B868E16820F4E0600843B860FA
:104580002078000706D5B868216920F4605040EA19
:10459000C100B86000F00EF8BA683549C2F30312E2
:1045A000895CC840304908600F20FFF77FFC00207D
:1045B000BDE8F0812B498B680022002013F00C0F1E
:1045C00009D08B6803F00C030C2B02BFCB6803F0FF
:1045D0000303012B12D10A68284B120759BFD1F8E7
:1045E0009420C2F303220A68C2F3031253F8222074
:1045F0008B6813F00C0F0ED110460CE08B6803F0A3
:104600000C03042B08BF1E4805D08B6803F00C0375
:10461000082B08BF1B488B6803F00C030C2B20D120
:10462000C868CB68C3F302135B1C00F003000228C8
:1046300002D0032804D007E01148B0FBF3F005E0F6
:104640001048B0FBF3F001E0B2FBF3F0CA68C968B0
:10465000C1F34161C2F30622491C50434900B0FB3B
:10466000F1F0704700100240880100200020024055
:104670006C51000800700040FFFFEEFE7C51000806
:104680000024F40000127A0000B500BF1300964623
:104690009446103928BFA0E80C50FAD85FEA417C54
:1046A00028BF0CC048BF40F8042BC90728BF20F81A
:1046B000022B48BF00F8012B00BD0000DFF8080006
:1046C000006800F4C06070470070004010B582B010
:1046D000044600208DF800006946204600F0B6FB35
:1046E00060B39DF800002178884227D1042120463C
:1046F00000F0F6FC10B3A068DFF804170068016052
:104700004021204600F00CFCC0B10021204600F002
:10471000D8FB98B10021204600F0A4FB70B108211D
:10472000204600F050FC48B11021204600F07AFCF1
:1047300020B12021204600F0A4FC10B9012002B0D5
:1047400010BD0120607102B0002010BD30B50446DC
:1047500081B0A068056800208DF8000069462046F9
:1047600000F074FB90B19DF80000217888420DD1D3
:10477000A07980B1A0680168204600F06BF901289B
:1047800004D00021204600F09CFB10B9012001B0AC
:1047900030BD0020A07100202860607101B030BDE4
:1047A00010B50446A079012838D0A068006890EDC3
:1047B000000ADFEDA40AB4EE600AF1EE10FA48BF79
:1047C000202123D4DFEDA00AB4EE600AF1EE10FA46
:1047D00048BF40211AD4DFED9D0AB4EE600AF1EE25
:1047E00010FA48BF602111D4DFED990AB4EE600AD7
:1047F000F1EE10FA48BF802108D4DFEDB50AB4EE1F
:10480000600AF1EE10FA4CBFA021C021204600F052
:1048100058FB08B9012010BD0120A071002010BD77
:1048200030B5044681B0A07900283ED0A068056864
:1048300068680178012909D1406828600021204674
:1048400000F03FFB78BB012001B030BD6946204637
:1048500000F056FB20B39DF800000028EDD0202882
:1048600018D0402813D060280ED0802809D0A02866
:1048700004D0C02811D1DFF89405DEE7DFF8880501
:10488000DBE7DFF88005D8E7DFF87405D5E7DFF868
:104890006C05D2E7DFF88405CFE7DFF884052860F0
:1048A000012001B030BD0020A07101B030BD00B5C5
:1048B00081B000F0CBFA401E8041C00F01B000BDB6
:1048C00010B582B0044600208DF8000069462046ED
:1048D00000F0BCFA20B19DF800002178884202D097
:1048E000012002B010BD002002B010BD2DE9F04142
:1048F00084B088460021CDE900110446694600F0E5
:104900002EFB002850D09DF801109DF800209DF846
:10491000040002EB01269DF803109DF8022002EB33
:1049200001279DF8051000EB012502A9204600F0A3
:10493000B8FAC8B39DF8080078B1082804D0102848
:1049400008D0182803D02FE09FED790A07E09FEDEB
:10495000790A04E09FED780A01E09FEDB00A36B2D3
:1049600000EE906AF8EEE00A60EE800AFDEEE00AE2
:10497000C8ED000A3FB200EE907AF8EEE00A60EE71
:10498000800AFDEEE00AC8ED010A2DB200EE905A51
:10499000F8EEE00A20EE800ABDEEC00A88ED020AB9
:1049A000002004B0BDE8F081012004B0BDE8F08132
:1049B00010B582B00C4669460022C1E9002200F021
:1049C000CEFA10B9012002B010BD9DF801109DF87B
:1049D000002002EB012121809DF802209DF80310A8
:1049E00002EB012161809DF804009DF8051000EBA9
:1049F0000120A08002B0002010BD10B582B00C468E
:104A0000694600F04EFA10B9012002B010BD9DF8C1
:104A1000000058B1082812D010280CD018280CD04B
:104A2000DFF8FC03206002B0012010BD7B4820604D
:104A300002B0002010BD4048F9E73E48F7E73C4887
:104A4000F5E7000001002041010048420100EE426C
:104A500001006E4310B582B00C4681680968496850
:104A60000A78012A02D1486820601CE0694600F0FB
:104A700047FA10B9012002B010BD9DF8000088B1BE
:104A8000202813D0402814D0602815D0802816D0B4
:104A9000A02817D0C02818D0DFF88403206002B007
:104AA000012010BD2060002002B010BDDFF86C03B3
:104AB000F8E7DFF84803F5E7DFF84403F2E7DFF84B
:104AC0004403EFE7DFF84003ECE7DFF84003E9E7F2
:104AD0000100EE4300B581B08279012A11D1042989
:104AE0000CD8DFE801F0070705050300602102E0AC
:104AF000402100E0202100F0E4F9A8B9012001B034
:104B000000BD806800680429F8D8DFE801F00A0ACF
:104B100007070400F2E7DFF8E81204E0DFF8DC1230
:104B200001E0DFF8F8120160002001B000BD0000D4
:104B30005A643B3F23DB793E23DBF93D00B581B06E
:104B400081790129DFED680A30D1B4EE600AF1EE17
:104B500010FA48BF202123D4DFED640AB4EE600AC6
:104B6000F1EE10FA48BF40211AD4DFED610AB4EE2D
:104B7000600AF1EE10FA48BF602111D4DFED9D0A02
:104B8000B4EE600AF1EE10FA48BF802108D4DFEDE0
:104B90009A0AB4EE600AF1EE10FA4CBFA021C021CF
:104BA00000F08FF9B8BB012001B000BD806800683B
:104BB000B4EE600AF1EE10FA48BFB2EE040A28D44F
:104BC000DFED4A0AB4EE600AF1EE10FA48BF9FED3D
:104BD0008B0A1ED4DFED460AB4EE600AF1EE10FA3D
:104BE00048BF9FED870A14D4DFED820AB4EE600A55
:104BF000F1EE10FA48BF9FED830A0AD4DFED7E0A7A
:104C0000B4EE600AF1EE10FA4CBF9FED7F0A9FED03
:104C10007F0A80ED000A002001B000BD23DB793D52
:104C200010B582B00C46694600F03BF910B901207E
:104C300002B010BD9DF8000058B1082815D010280A
:104C40000DD018280ED0DFF8DC01206002B0012062
:104C500010BD4FF08040206002B0002010BD4FF02A
:104C60008140F8E74FF08240F5E74FF08340F2E7EC
:104C700000B5042981B010D8DFE801F0030F0B0F55
:104C80000D00002100F0EEF8401E8041C00F01B081
:104C900000BD1021F6E71821F4E7012001B000BDA6
:104CA000DFED5B0A00B5B4EE600AF1EE10FA81B0F8
:104CB00048BF002111D4DFED570AB4EE600AF1EECF
:104CC00010FA48BF102108D4DFED530AB4EE600A91
:104CD000F1EE10FA4CBF1821082100F0C3F8401E75
:104CE0008041C00F01B000BD0100204101004842D9
:104CF0000100EE4230B581B00D4604460DF10201CF
:104D000000F080F950B10DF10101204600F0A9F941
:104D100020B16946204600F0D3F910B9012001B056
:104D200030BD9DF8020008280CBF0120002028702B
:104D30009DF8010010280CBF0120002068709DF82C
:104D4000000020280CBF01200020A87001B0002026
:104D500030BD30B50D4681B00446287801280CBF1F
:104D600008210021204600F02EF940B16878012882
:104D70000CBF10210021204600F054F910B9012089
:104D800001B030BDA87801280CBF202100212046A9
:104D900000F077F9401E8041C00F01B030BD00B572
:104DA00081B0012300F049F8401E8041C00F01B0DE
:104DB00000BD00B581B001238DF800206A4600F0E7
:104DC00033F8401E8041C00F01B000BD10B582B065
:104DD0000C46694600F0E7F848B19DF8000000284D
:104DE00018BF012803D1207002B0002010BD01209F
:104DF00002B010BD01006E430100EE4300004842C6
:104E00000000EE4200006E430000EE4300006E44DE
:104E100001000040010080400100004100002041ED
:104E2000000080BF000080BF00B581B0FDF774FEB8
:104E3000401E8041C00F01B000BD00B581B0FDF73C
:104E4000B5FE401E8041C00F01B000BD00B50A464E
:104E500081B001230F21FDF7A9FE401E8041C00F44
:104E600001B000BD30B581B00D46044601236A464D
:104E70002021FDF79BFE10B1002001B030BD9DF850
:104E8000000000F0E70028438DF8000001236A4687
:104E900020212046FDF740FE401E8041C00F01B09A
:104EA00030BD10B50C46012322462021FDF77EFEC1
:104EB00008B1002010BD207800F0180020700120FB
:104EC00010BD30B581B00D46044601236A4620214D
:104ED000FDF76CFE10B1002001B030BD9DF8000060
:104EE00000F01F0028438DF8000001236A462021AE
:104EF0002046FDF711FE401E8041C00F01B030BDBD
:104F000010B50C46012322462021FDF74FFE08B1C3
:104F1000002010BD207800F0E0002070012010BDBE
:104F200030B581B00D46044601236A462221FDF7C3
:104F30003DFE10B1002001B030BD9DF8000000F032
:104F4000BF0028438DF8000001236A462221204635
:104F5000FDF7E2FD401E8041C00F01B030BDF0B54D
:104F600081B004460D4600260327F6B206F128015B
:104F70000123AA19C9B22046FDF718FE50B9761CC4
:104F8000F6B206F128010123AA19C9B22046FDF79D
:104F90000DFE10B1002001B0F0BD761C7F1EE4D1E3
:104FA000012001B0F0BD10B50C4601232246272197
:104FB000FDF7FCFD08B1002010BD207800F00100D5
:104FC0002070012010BD30B581B00D46044601238C
:104FD0006A461F21FDF7EAFD10B1002001B030BD87
:104FE0009DF8000000F0F70028438DF80000012331
:104FF0006A461F212046FDF78FFD401E8041C00FED
:1050000001B030BD10B50C46012322461F21FDF72B
:10501000CDFD08B1002010BD207800F00800207000
:10502000012010BD30B581B00D46044601236A460B
:105030001F21FDF7BBFD10B1002001B030BD9DF870
:10504000000000F0EF0028438DF8000001236A46BD
:105050001F212046FDF760FD401E8041C00F01B0BA
:1050600030BD10B50C46012322461F21FDF79EFDE1
:1050700008B1002010BD207800F010002070012041
:1050800010BD30B581B00D46044601236A461F218C
:10509000FDF78CFD10B1002001B030BD9DF800007F
:1050A00000F0DF0028438DF8000001236A461F212D
:1050B0002046FDF731FD401E8041C00F01B030BDDC
:1050C00010B50C46012322461F21FDF76FFD08B1E4
:1050D000002010BD207800F020002070012010BDBD
:1050E00030B581B00D46044601236A462221FDF702
:1050F0005DFD10B1002001B030BD9DF8000000F052
:10510000FB0028438DF8000001236A462221204637
:10511000FDF702FD401E8041C00F01B030BD000010
:105120000F48104BD0F8801041F47001C0F8801087
:105130000D490A6842F001020A6000228A600A688A
:105140001A400A604FF48052CA600A6822F4802232
:105150000A6000228A614FF0006101607047000020
:1051600008ED00E0FFFFF6EA00100240000000003A
:10517000000000000102030406070809A0860100E0
:10518000400D0300801A060000350C0040420F005D
:1051900080841E0000093D0000127A000024F40003
:1051A00000366E010048E801006CDC02F0B40168D2
:1051B00044688368014401EB5402E40748BF4B4450
:1051C000914202D1F0BC0C30704711F8015B15F030
:1051D000030604BF11F8014BE61C2C090F2C07D164
:1051E00011F8014B0F3403E011F8017B03F8017B48
:1051F000761EF9D1002CE3D0AD0811F8016B05F053
:105200000305032D08BF11F8015B06EB05256D4270
:10521000A41C1D44D4D015F8016B03F8016B641E67
:10522000F9D1CDE719E050F8041BCB0744BFA9F131
:1052300001035918121F0023042A41F8043BF9D234
:105240005FEA827C0B4604D54FF0000CA1F800C049
:105250009B1CD10744BF0021197050F8042B002A71
:10526000E1D1704710B5074979441831064C7C44A8
:10527000163404E00A68081D114488470146A1421B
:10528000F8D110BD2C000000480000004EF68851F7
:10529000CEF20001086840F470000860BFF34F8F41
:1052A000BFF36F8F4FF00070E1EE100A70470000FF
:1052B00075FFFFFF9C00000090050020000000002B
:1052C000EDFEFFFFE40100009E0200000000002050
:1052D00000F00BF8002801D0FFF7C4FF0020AFF367
:1052E0000080FEF739FB00F002F80120704700F063
:1052F00001B800000746384600F002F8FBE700005E
:1053000080B5AFF30080024A11001820ABBEFBE766
:10531000260002007047FEE7704700F007B8102033
:10532000FEF798BA4FF40050FEF794BA02480168AD
:10533000491C0160704700BF2806002001488047D3
:1053400001480047215100084D530008AFF3008089
:10535000FFF79CFFFFF7BCFFFFF7FEBFFFF7FEBFA5
:10536000FFF7FEBFFFF7FEBFFFF7FEBFFFF7FEBF71
:10537000FFF7FEBFFFF7FEBFFFF7FEBFFFF7FEBF61
:10538000FFF7FEBFFFF7FEBFFFF7FEBFFFF7FEBF51
:10539000FFF7FEBFFFF7FEBFFFF7FEBFFFF7FEBF41
:1053A000FFF7FEBFFFF7FEBFFFF7FEBFFFF7FEBF31
:1053B000FFF7FEBFFFF7FEBFFFF7FEBFFFF7FEBF21
:1053C000FFF7FEBFFFF7FEBFFFF7FEBFFFF7FEBF11
:1053D000FFF7FEBFFFF7FEBFFFF7FEBFFFF7FEBF01
:1053E000FFF7FEBFFFF7FEBFFFF7FEBFFFF7FEBFF1
:1053F000FFF7FEBFFFF7FEBFFFF7FEBFFFF7FEBFE1
:10540000FFF7FEBFFFF7FEBFFFF7FEBFFFF7FEBFD0
:10541000FFF7FEBFFFF7FEBFFFF7FEBFFFF7FEBFC0
:10542000FFF7FEBFFFF7FEBFFFF7FEBFFFF7FEBFB0
:10543000FFF7FEBFFFF7FEBFFFF7FEBFFFF7FEBFA0
:10544000FFF7FEBFFFF7FEBFFFF7FEBFFFF7FEBF90
:10545000FFF7FEBFFFF7FEBFFFF7FEBFFFF7FEBF80
:10546000FFF7FEBFFFF7FEBFFFF7FEBFFFF7FEBF70
:10547000FFF7FEBFFFF7FEBFFFF7FEBFFFF7FEBF60
:10548000FFF7FEBFFFF7FEBFFFF7FEBFFFF7FEBF50
:10549000FFF7FEBFFFF7FEBFFFF7FEBFFFF7FEBF40
:1054A000FFF7FEBFFFF7FEBF1007CD4600084D47D0
:1054B0000008A104100321480008AF0412C104121F
:1054C000ED041003B1490008FB041003554A00081D
:1054D000D504133D4B2410024C0008710412A104A2
:1054E00012F5041003534D00089F0412B30412CDAB
:1054F000041007BD0C0008790D0008AD0412D50496
:1055000012E70413450E14110412A10412B304127D
:10551000C70412DB0412ED041003630F00089704A4
:1055200012C1041003371000086B0412930412A573
:105530000413451134110412C904138512701104A7
:1055400010031D1300082F041241041253041265A6
:105550000412D50412FF041003271400084F04128C
:105560007704129F0412C70412EF04100B171500E2
:10557000089D16000851170008810412B10412E1B9
:105580000412F30413051820110412350412E50463
:1055900010030D1900082D04123F04125B0412774A
:1055A00004100889010008150200082504B411043C
:1055B000100399050008AB0412D90413B90644106E
:1055C00002070008610422F1081007080008DD093D
:1055D0000008310A0C110412D5041003330B000823
:1055E0007F0412930412AD04A00100010001156AAA
:0755F00011040001093D0058
:0400000508000000EF
:00000001FF
