:020000040800F2
:1000000018060020B94400089144000893440008F1
:10001000DD440008E1440008E54400080000000059
:10002000000000000000000000000000E94400089B
:100030009544000800000000ED44000897440008C3
:10004000F1440008F5440008F9440008FD440008A4
:100050000145000805450008094500080D45000850
:100060001145000815450008194500081D45000800
:100070002145000825450008294500082D450008B0
:1000800031450008354500083945000800000000EA
:100090000000000000000000000000009B44000879
:1000A0003D45000841450008454500084945000810
:1000B0004D450008514500085545000859450008C0
:1000C0005D45000861450008654500086945000870
:1000D0006D450008714500087545000800000000E6
:1000E000A1440008794500087D4500080000000093
:1000F0000000000000000000000000008145000832
:100100000000000085450008894500088D4500086D
:1001100000000000000000000000000000000000DF
:100120009145000895450008994500089D4500083F
:10013000A1450008000000000000000000000000D1
:10014000000000000000000000000000A5450008BD
:10015000A9450008AD450008B1450008B5450008AF
:10016000B9450008BD45000800000000000000007F
:10017000000000000000000000000000000000007F
:1001800000000000C1450008000000000000000061
:10019000C545000870B5044682B0A0680668356899
:1001A00000208DF800006946204600F00DFE00B3E7
:1001B0009DF80000217888421BD10421204600F0E0
:1001C000AAFFB0B14021204600F00AFE88B100210C
:1001D000204600F043FF60B1DFF8C80770600021DF
:1001E000204600F070FE20B10C21204600F017FEE2
:1001F00010B9012002B070BD01206870607102B0BA
:10020000002070BD000070B5044682B0A06805688B
:100210002E6800208DF800006946204600F0D4FDCD
:1002200098B19DF80000217888420ED1A07988B15C
:10023000A0680068011D204600F0C8F9012804D01C
:100240000021204600F03FFE10B9012002B070BD31
:100250000020A071002068607070607102B070BDF5
:100260000000000010B50446A07901285CD0A06809
:10027000006890ED010ADFED9F0AB4EE600AF1EE2E
:1002800010FA48BF102147D4DFED9B0AB4EE600A94
:10029000F1EE10FA48BF20213ED4DFED980AB4EE0B
:1002A000600AF1EE10FA48BF302135D4DFED940A30
:1002B000B4EE600AF1EE10FA48BF40212CD4DFED15
:1002C000910AB4EE600AF1EE10FA48BF502123D42F
:1002D000DFED8D0AB4EE600AF1EE10FA48BF60213E
:1002E0001AD4DFED8A0AB4EE600AF1EE10FA48BFC4
:1002F000702111D4DFED860AB4EE600AF1EE10FA37
:1003000048BF802108D4DFEDB00AB4EE600AF1EEF8
:1003100010FA4CBF9021A021204600F0D4FD08B96E
:10032000012010BD0120A071002010BD30B5044691
:1003300081B0A079002847D0A0680068051D6946F3
:10034000204600F0DFFD002839D09DF8000000288D
:1003500029D0102825D0202820D030281BD0402894
:1003600017D0502813D060280FD070280BD08028C9
:1003700007D0902803D0A0281ED1B34813E0B3487B
:1003800011E0B3480FE0B3480DE0B3480BE0B348C9
:1003900009E0B34807E0DFF8480304E0DFF834037E
:1003A00001E0DFF8340328600021204600F08BFDD7
:1003B00040B9012001B030BDDFF8A404286001205D
:1003C00001B030BD0020A07101B030BD00B581B0DA
:1003D00000F0FAFC401E8041C00F01B000BD10B516
:1003E00082B0044600208DF800006946204600F0E7
:1003F000EBFC20B19DF800002178884202D001205A
:1004000002B010BD002002B010BD00002DE9F04187
:1004100084B080460C4601A80021C0E90011404686
:1004200001A900F02BFD002860D001A89DF8042050
:10043000417802EB01269DF807108278007902EBE3
:1004400001279DF8091000EB01250DF1010140463F
:1004500000F087FD002849D09DF80100022808BF60
:100460009FED970A1DD06946404600F0F7FC002832
:100470003CD09DF800000C2838D8DFE800F0103799
:1004800037370D3737370A37373707009FED8D0A73
:1004900007E09FED8D0A04E09FED8C0A01E09FEDDF
:1004A0008C0A36B200EE906AF8EEE00A60EE800A3E
:1004B000FDEEE00AC4ED000A3FB200EE907AF8EEDD
:1004C000E00A60EE800AFDEEE00AC4ED010A2DB2FA
:1004D00000EE905AF8EEE00A20EE800ABDEEC00A67
:1004E00084ED020A002004B0BDE8F081012004B0D0
:1004F000BDE8F081010050410100D04101005042AF
:100500000100D042010050430100D043014050445B
:100510000180CF4410B582B00C4669460022C1E983
:10052000002200F0ABFC10B9012002B010BD9DF814
:1005300001109DF8002002EB012121809DF802208E
:100540009DF8031002EB012161809DF804009DF8E5
:10055000051000EB0120A08002B0002010BD0000BB
:1005600030B581B00C4605460DF1010100F0F9FCF3
:1005700068B19DF80100022804D15148206001B003
:10058000002030BD6946284600F068FC10B9012003
:1005900001B030BD9DF800000C2810D8DFE800F055
:1005A000070F0F0F090F0F0F0B0F0F0F0D0048480C
:1005B000E4E74648E2E74448E0E74248DEE7A84887
:1005C000206001B0012030BD0120504510B582B03F
:1005D0000C46694600F096FC10B9012002B010BD2F
:1005E0009DF80000C0B110281AD020281AD0302859
:1005F0001AD040281AD050281AD060281AD0702853
:100600001AD080281AD090281AD0A0281AD033489F
:10061000206002B0012010BD206002B0002010BD9B
:100620002D48F9E72B48F7E72D48F5E70C48F3E7A5
:100630000A48F1E70848EFE70648EDE70448EBE72A
:100640000248E9E70048E7E70020D0450020504590
:100650000080CF44004050440000D043000050438D
:100660000000D04200B581B08279012A13D104295B
:100670000ED8DFE801F0090907050300402104E076
:10068000302102E0202100E0102100F01CFCA0B984
:10069000012001B000BD806800680429F8D8DFE8B7
:1006A00001F00A0A08060400F2E7BE4904E00C491A
:1006B00002E0084900E008494160002001B000BDA7
:1006C00000008C4000008C4200000C4200008C4175
:1006D00000000C410000D04100005041000080BFEC
:1006E0000000504200B581B081790129DFED7A0A1E
:1006F00055D1B4EE600AF1EE10FA48BF102147D48C
:10070000DFED9F0AB4EE600AF1EE10FA48BF202137
:100710003ED4DFED9C0AB4EE600AF1EE10FA48BF59
:10072000302135D4DFED980AB4EE600AF1EE10FA0C
:1007300048BF40212CD4DFED950AB4EE600AF1EEFB
:1007400010FA48BF502123D4DFED910AB4EE600ABD
:10075000F1EE10FA48BF60211AD4DFED8E0AB4EE34
:10076000600AF1EE10FA48BF702111D4DFED8A0A59
:10077000B4EE600AF1EE10FA48BF802108D4DFED34
:10078000870AB4EE600AF1EE10FA4CBF9021A02166
:1007900000F099FB00285FD1012001B000BD806806
:1007A0000068B4EE600AF1EE10FA48BFB2EE0A0A31
:1007B00050D4DFED730AB4EE600AF1EE10FA48BFD0
:1007C000B3EE0A0A46D4DFED6F0AB4EE600AF1EE2A
:1007D00010FA48BF9FED720A3CD4DFED6B0AB4EE0D
:1007E000600AF1EE10FA48BF9FED6E0A32D4DFEDD9
:1007F000670AB4EE600AF1EE10FA48BF9FED6A0A8C
:1008000028D4DFED630AB4EE600AF1EE10FA48BFB7
:100810009FED660A1ED4DFED5F0AB4EE600AF1EECA
:1008200010FA48BF9FED780A14D4DFED5B0AB4EEEE
:10083000600AF1EE10FA48BF9FED740A0AD4DFEDAA
:10084000570AB4EE600AF1EE10FA4CBF9FED700A41
:100850009FED700A80ED010A002001B000BD00008C
:10086000000080BF30B581B00C460546694600F0F7
:1008700078FB28B10DF10101284600F0EFFA10B91C
:10088000012001B030BD9DF80000022805D1DFF83D
:100890009801206001B0002030BD9DF801000C28B7
:1008A00014D8DFE800F0071313130A1313130D1302
:1008B00013131000DFF87401EBE7DFF87401E8E7C9
:1008C000DFF87001E5E7DFF87001E2E7DFF86C01BF
:1008D000206001B0012030BD0100504100B5042965
:1008E00081B010D8DFE801F0030F0B0F0D000021DD
:1008F00000F095FA401E8041C00F01B000BD0421F8
:10090000F6E70C21F4E7012001B000BD30B5DFEDC2
:10091000420AB4EE600AF1EE10FA81B0044606D540
:10092000022100F0FFFA38B3002001B030BDDFED46
:100930003B0AB4EE600AF1EE10FA48BF002511D46C
:10094000DFED370AB4EE600AF1EE10FA48BF042575
:1009500008D4DFED340AB4EE600AF1EE10FA4CBFB1
:1009600008250C25002100F0DDFA28B12946204693
:1009700000F055FA0028D7D1012001B030BD0000A9
:100980000100D041010050420100D042010050431B
:100990000100D043014050440180CF440120504524
:1009A000000050420000D042000050430000D043FD
:1009B00000B581B0012300F0F5F9401E8041C00F61
:1009C00001B000BD00B581B001238DF800206A465A
:1009D00000F0F1F9401E8041C00F01B000BD10B51C
:1009E00082B00C46694600F0D4FB48B19DF8000087
:1009F00010B1022804D10120207002B0002010BDE7
:100A0000012002B010BD0000004050440080CF44DF
:100A1000002050450020D0450100FA4201007543F6
:100A20000100FA4301007A440000FA4200007543D5
:100A30000000FA4300007A440000FA44000080BF3E
:100A4000DFED6C0A00B5B4EE600AF1EE10FA81B089
:100A500048BF082147D4DFED8E0AB4EE600AF1EEFC
:100A600010FA48BF10213ED4DFED8A0AB4EE600AC6
:100A7000F1EE10FA48BF182135D4DFED870AB4EE45
:100A8000600AF1EE10FA48BF20212CD4DFED830A72
:100A9000B4EE600AF1EE10FA48BF282123D4DFED4E
:100AA000800AB4EE600AF1EE10FA48BF30211AD481
:100AB000DFED7C0AB4EE600AF1EE10FA48BF38218F
:100AC00011D4DFED790AB4EE600AF1EE10FA48BFF6
:100AD000402108D4DFED750AB4EE600AF1EE10FA99
:100AE0004CBF4821502100F0D8FA401E8041C00F71
:100AF00001B000BD10B582B00C46694600F08AFB1B
:100B000068B19DF8000020B1202806D0012002B075
:100B100010BD207002B0002010BD0120F9E70120B7
:100B200002B010BD10B582B00C46694600F062FB01
:100B300068B19DF8000020B1102806D0012002B055
:100B400010BD207002B0002010BD0120F9E7012087
:100B500002B010BD10B582B00C46694600F06AFBC9
:100B600068B19DF8000020B1402806D0012002B0F5
:100B700010BD207002B0002010BD0120F9E7012057
:100B800002B010BD00B581B000F064FB401E804192
:100B9000C00F01B000BD00B581B000F09BFB401E4E
:100BA0008041C00F01B000BD00B581B000F001FB75
:100BB000401E8041C00F01B000BD00B50A0018BF43
:100BC000082981B00BD0102918BF182907D0202977
:100BD00018BF282903D0302918BF382906D100F0C2
:100BE000FFF9401E8041C00F01B000BD012001B0DF
:100BF00000BD00000100204170B582B00D460446E2
:100C00000DF1020100F066FB00283ED09DF80300C4
:100C10009DF8021041EA00260DF10101204600F086
:100C2000A0F9002831D09DF80100022808BF9FEDEF
:100C3000200A1CD06946204600F010F928B39DF820
:100C400000000C2821D8DFE800F0102020200D2023
:100C500020200A20202007009FED160A07E09FEDC4
:100C6000160A04E09FED150A01E09FED150A36B261
:100C700000EE906AF8EEE00A20EE800ABDEEC00AAF
:100C800085ED000A002002B070BD012002B070BDE9
:100C90000100C841010048420100C8420100484328
:100CA0000100C843010048440100C84401404E45CA
:100CB00000008C4000008C4200000C4200008C417F
:100CC00000000C4100B5062981B00CD8DFE801F026
:100CD00004040B04040B040000F0C0F9401E804122
:100CE000C00F01B000BD012001B000BD00B50A0079
:100CF00018BF202981B006D100F0EEF9401E8041D6
:100D0000C00F01B000BD012001B000BD00B581B031
:100D100000F037F9401E8041C00F01B000BD00B5A2
:100D20000A0018BF802981B006D100F078F9401E72
:100D30008041C00F01B000BD012001B000BD00B571
:100D4000012981B006D800F0A6FA401E8041C00FEC
:100D500001B000BD012001B000BD000000B50C29AC
:100D600081B00FD8DFE801F0070E0E0E070E0E0E51
:100D7000070E0E0E070000F0EDF9401E8041C00F77
:100D800001B000BD012001B000BD8268521C82602C
:100D9000426832B10268531C036011704168491EF9
:100DA0004160704700B581B000F098FB401E804163
:100DB000C00F01B000BD00B581B000F045FB401E82
:100DC0008041C00F01B000BD00B50A4681B00123CB
:100DD0000F2100F083FB401E8041C00F01B000BD19
:100DE00030B581B00D46044601236A46122100F059
:100DF00075FB10B1002001B030BD9DF8000000F07F
:100E0000BF0028438DF8000001236A4612212046C6
:100E100000F01AFB401E8041C00F01B030BD30B55C
:100E200081B00D46044601236A46112100F056FBAD
:100E300010B1002001B030BD9DF8000000F0F300BB
:100E400028438DF8000001236A461121204600F056
:100E5000FBFA401E8041C00F01B030BD10B50C46FA
:100E600001232246112100F039FB08B1002010BDFA
:100E7000207800F00C002070012010BDF0B581B08A
:100E800004460D4600260327F6B206F1220101238F
:100E9000AA19C9B2204600F021FB50B9761CF6B25F
:100EA00006F122010123AA19C9B2204600F016FB5F
:100EB00010B1002001B0F0BD761C7F1EE4D10120EE
:100EC00001B0F0BD000030B581B00D4604460123ED
:100ED0006A46112100F002FB10B1002001B030BDC4
:100EE0009DF8000000F00F0028438DF8000001235A
:100EF0006A461121204600F0A7FA401E8041C00F2B
:100F000001B030BD10B50C4601232246112100F07E
:100F1000E5FA08B1002010BD207800F0F000207044
:100F2000012010BD30B581B00D46044601236A464C
:100F3000112100F0D3FA10B1002001B030BD9DF8AE
:100F4000000000F0FD0028438DF8000001236A46F0
:100F50001121204600F078FA401E8041C00F01B0F8
:100F600030BD10B50C4601232246112100F0B6FA1F
:100F700008B1002010BD207800F002002070012090
:100F800010BD70B582B0044601236A460D460621A5
:100F900000F0A4FA2E0A78B98DF8005001236A46B1
:100FA0000621204600F050FA30B901236A46072195
:100FB000204600F093FA10B1002002B070BD9DF8F9
:100FC000000066F302008DF8000001236A46072145
:100FD000204600F039FA401E8041C00F02B070BDBB
:100FE00030B581B00D46044601236A46082100F061
:100FF00075FA10B1002001B030BD9DF8000000F07E
:10100000C70028438DF8000001236A4608212046C6
:1010100000F01AFA401E8041C00F01B030BD30B55B
:1010200081B00D46044601236A46092100F056FAB4
:1010300010B1002001B030BD9DF8000000F07F002D
:1010400028438DF8000001236A460921204600F05C
:10105000FBF9401E8041C00F01B030BD30B581B0FA
:101060000D46044601236A460A2100F037FA10B102
:10107000002001B030BD9DF8000000F0F8002843CA
:101080008DF8000001236A460A21204600F0DCF9B1
:10109000401E8041C00F01B030BD30B581B00D465B
:1010A000044601236A460A2100F018FA10B1002014
:1010B00001B030BD9DF8000000F0870028438DF896
:1010C000000001236A460A21204600F0BDF9401EB7
:1010D0008041C00F01B030BD30B581B00D4604462F
:1010E00001236A460D2100F0F9F910B1002001B08A
:1010F00030BD9DF8000000F0DF0028438DF80000AF
:1011000001236A460D21204600F09EF9401E8041D1
:10111000C00F01B030BD30B581B00D46044601238B
:101120006A46122100F0DAF910B1002001B030BD9A
:101130009DF8000000F0FB0028438DF8000001231B
:101140006A461221204600F07FF9401E8041C00F00
:1011500001B030BD30B581B00D46044601236A466A
:10116000142100F0BBF910B1002001B030BD9DF892
:10117000000000F0F30028438DF8000001236A46C8
:101180001421204600F060F9401E8041C00F01B0DC
:1011900030BD10B50C46012322461E2100F09EF9F9
:1011A00008B1002010BD207800F00200207001205E
:1011B00010BD30B581B00D46044601236A463A2180
:1011C00000F08CF938B901230DF101023B212046D2
:1011D00000F084F910B1002001B030BD9DF801008D
:1011E0009DF8001000F00F0041EA0020288001B0B7
:1011F000012030BD10B50C46012322463B2100F0F2
:101200006DF908B1002010BD207800F010002070AA
:10121000012010BD10B50C46012322463B2100F0F1
:101220005DF908B1002010BD207800F0200020708A
:10123000012010BD10B50C46012322463B2100F0D1
:101240004DF908B1002010BD207800F0400020705A
:10125000012010BD30B581B00D46044601236A4619
:101260003C2100F03BF938B901230DF101023D2189
:10127000204600F033F910B1002001B030BD9DF8D8
:1012800001009DF8001000F0030041EA00202880D2
:1012900001B0012030BD30B581B00D4604460123B8
:1012A0006A46582100F01AF910B1002001B030BD93
:1012B0009DF8000000F0FE0028438DF80000012397
:1012C0006A465821204600F0BFF8401E8041C00FFA
:1012D00001B030BD30B50D4681B0044601232A4629
:1012E0003E2100F0FBF830B901236A1C3F21204663
:1012F00000F0F4F810B1002001B030BD012001B0C1
:1013000030BD000030B5C84C87B0204600F03EFE2E
:1013100000284BD1C548C64D606001A90020A060DF
:101320003320E0604FF480402061C24820600020FC
:101330000090286940F002002861286900F002004E
:10134000009000984FF4407001901220029002200B
:1013500004900020039004200590B74800F01AFE86
:10136000002000900022286A40F40010286200212A
:10137000286A00F4001000900098286840F40010DB
:101380002860286820F4001028601F2000F0FBFE71
:101390001F2000F021FF00220021202000F0F3FE9A
:1013A000202000F019FF204600F04CF9204600F004
:1013B000EDFD20280CBF0020012007B030BD70B526
:1013C0008CB00020009006A99C4E9D4C30689A4D30
:1013D00040F002003060306800F002000090009899
:1013E00007942020069002200990002008902846AB
:1013F00000F0D0FD00220021172000F0C4FE1720CD
:1014000000F0EAFE0020009001A9306840F00200E0
:101410003060306800F002000090009802941020C4
:1014200001900220049000200390284600F0B2FDB5
:10143000002200210A2000F0A6FE0A2000F0CCFEC7
:1014400000200CB070BD00002DE9F043044683B0CD
:101450002078332818BF4028884616461F4603D0F8
:10146000B12806D0BC2822D1022F20DB48F080080A
:101470001DE00025380016D0DFF8AC914FF4805005
:10148000029000960120019005EB0802A17801234B
:10149000D2B2484600F066F908B1484615E06D1C26
:1014A000761CBD42EADB002003B0BDE8F0834FF4B8
:1014B00080500290019700965B4DA178012342462F
:1014C000284600F04FF928B1284600F02AF900F02C
:1014D0004EF8012003B0BDE8F08300002DE9F04391
:1014E000044683B02078332818BF40288846164623
:1014F0001F4603D0B12806D0BC2822D1022F20DB02
:1015000048F080081DE00025380016D0DFF818915B
:101510004FF48050029000960120019005EB0802E4
:10152000A1780123D2B2484600F0A1FA08B148469A
:1015300015E06D1C761CBD42EADB002003B0BDE85F
:10154000F0834FF48050029001970096364DA178B9
:1015500001234246284600F08AFA28B1284600F0C6
:10156000E0F800F004F8012003B0BDE8F08330B5E6
:101570002D4C87B0204600F009FD00284BD12B48A8
:101580002B4D606001A90020A0603320E0604FF483
:10159000804020612748206000200090286940F0AA
:1015A00002002861286900F00200009000984FF4C2
:1015B00040700190122002900220049000200390BD
:1015C000042005901C4800F0E5FC0020009000225B
:1015D000286A40F4001028620021286A00F40010F4
:1015E00000900098286840F400102860286820F4D3
:1015F000001028601F2000F0C6FD1F2000F0ECFD49
:1016000000220021202000F0BEFD202000F0E4FD9B
:10161000204600F017F8204600F0B8FC20280CBF48
:101620000020012007B030BD58090020801A0600B4
:10163000203802400054004000040240303802408C
:101640000000111030B5040081B008BF012066D041
:1016500094F83D0020B984F83C00204600F099FC45
:10166000242084F83D002068016849084900016091
:1016700000F088FEDFF8E020A0FB02212268C90C00
:1016800051606368DFF8D420934208D34FF4967317
:1016900013FB01F1DFF8C850A1FB0553590A236879
:1016A000491C19626168914208D24900B0FBF1F00F
:1016B000C0F30B01042913D2042011E0A26822B95F
:1016C00001EB4101B0FBF1F005E019225143B0FB01
:1016D000F1F040F4804001050CBF012040F40040CF
:1016E0002168C861E069216A0843216808602069AF
:1016F000E1680843216888606069A169084321683E
:10170000C8602068016841F0010101600020206488
:10171000202084F83D000020206384F83E0001B0C2
:1017200030BD10B5040001D1012010BD242084F883
:101730003D0020680168490849000160204600F02A
:1017400067FE0020206484F83D00206384F83E009A
:1017500084F83C0010BD000006BD3786A18601005C
:10176000986E12832DE9F04381B0044689461546F0
:10177000984600F04FFE064694F83D00202812D10E
:1017800020688169890712D500F044FE801B1A2861
:10179000F6D300202063202084F83D00002084F848
:1017A0003E0084F83C00022001B0BDE8F08394F8CC
:1017B0003C100129F7D0012184F83C100168C907C9
:1017C00003D4016841F0010101602068016821F43F
:1017D00000610160212084F83D00402084F83E0033
:1017E000002020640898606209986085DFF89807F7
:1017F000E062608D20852068016841F4807101609D
:101800000A9F20684169C9071DD417F1010FF8D05C
:1018100027B100F0FFFD801B8742F2D20020206339
:10182000202084F83D00002084F83E0084F83C002D
:10183000206C042840F08B80002084F83C0001B02C
:101840000120BDE8F08309F0FE01016120684169D3
:10185000890720D4416949050AD5016841F400711E
:1018600001606FF48060216848610420206408E012
:1018700017F1010FEAD027B100F0CCFD801B8742A1
:10188000E4D200202063202084F83D00002084F86A
:101890003C00206CCCE700210091416900918069F7
:1018A0000090009821684869000625D448694005E1
:1018B00015D56FF480604861042020640020206307
:1018C000202084F83D00002084F83C00206C04288F
:1018D000AED12068016841F400710160A8E717F1FA
:1018E000010FDFD027B100F095FD801B8742D9D2D0
:1018F000206C40F02000E0E7B8F1010F23D0280A67
:1019000008612068416909061DD44169490504D56B
:101910006FF48061416104200BE017F1010FF0D0FA
:1019200027B100F077FD801B8742EAD2206C40F09F
:101930002000206400202063202084F83D00002047
:1019400084F83C00C2E72068EDB2056111E0002098
:1019500084F83C00032001B0BDE8F083606A421CBB
:10196000626200780861208D401E2085608D401ED7
:101970006085208D00283ED020684169090628D462
:101980004169490518D56FF48061416104202064E4
:1019900000202063202084F83D00002084F83C00D3
:1019A000206C0428D6D12068016841F400710160E0
:1019B000012001B0BDE8F08317F1010FDCD027B1A1
:1019C00000F028FD801B8742D6D2206C40F020001A
:1019D000DDE7616A4A1C626209780161208D401E60
:1019E0002085618D491E618521684A695207C0D5ED
:1019F00080B20028B2D120684169490728D44169E2
:101A0000490518D56FF480614161042020640020ED
:101A10002063202084F83D00002084F83C00206CE6
:101A2000042897D12068016841F400710160012009
:101A300001B0BDE8F08317F1010FDCD027B100F051
:101A4000E9FC801B8742D6D2206C40F02000DDE705
:101A5000016841F400710160202084F83D000020FD
:101A600084F83E0084F83C0001B0BDE8F0832DE925
:101A7000F04381B0044688461646994600F0CAFCF9
:101A8000074694F83D00202812D120688169890713
:101A900012D500F0BFFCC01B1A28F6D3002020632B
:101AA000202084F83D00002084F83E0084F83C00AB
:101AB000022001B0BDE8F08394F83C100129F7D072
:101AC000012184F83C100168C90703D4016841F082
:101AD000010101602068016821F400610160222099
:101AE00084F83D00402084F83E00002020640898DF
:101AF000606209986085DFF89004E062608D20855F
:101B00002068016841F4806101602068016841F447
:101B1000807101600A9D20684169C9070BD415F1E5
:101B2000010FF8D0002D00F0BB8000F073FCC01B4B
:101B30008542F0D2B4E008F0FE01016120684169FD
:101B400089071FD4416949050AD5016841F400712C
:101B500001606FF48060216848610420206408E01F
:101B600015F1010FEAD025B100F054FCC01B8542ED
:101B7000E4D200202063202084F83D00002084F877
:101B80003C00B5E00021009141690091806900901E
:101B900000982168486900061DD4486940050DD5A4
:101BA0006FF48060486104202064002020632020BE
:101BB00084F83D00002084F83C0057E015F1010F47
:101BC000E7D025B100F026FCC01B8542E1D2206C95
:101BD00040F02000E8E7B9F1010F23D0300A086196
:101BE0002068416909061DD44169490504D56FF48F
:101BF0008061416104200BE015F1010FF0D025B1A7
:101C000000F008FCC01B8542EAD2206C40F02000A6
:101C1000206400202063202084F83D00002084F808
:101C20003C0023E02068F6B206612068416909069D
:101C300025D44169490504D56FF4806141610420D0
:101C40000BE015F1010FF0D025B100F0E3FBC01B54
:101C50008542EAD2206C40F02000206400202063FE
:101C6000202084F83D00002084F83C00206C0428EB
:101C70003FD12068016841F40071016039E00168DA
:101C800041F48071016020684169C90713D415F1DE
:101C9000010FF8D025B100F0BDFBC01B8542F2D288
:101CA00000202063202084F83D00002084F83E00BE
:101CB00084F83C001DE048F00101C9B201612068D0
:101CC000416989072AD4416949051CD5016841F455
:101CD000007101606FF48060216848610420206415
:101CE00000202063202084F83D00002084F83C0080
:101CF000206C206C042817D1002084F83C000120BF
:101D000001B0BDE8F08315F1010FD8D0002DE7D068
:101D100000F080FBC01B8542D1D2E1E7218D0A0093
:101D200009D1002100910FE0002084F83C0001B0AF
:101D30000320BDE8F083012910D1016821F48061FE
:101D40000160002000902068416900918169009144
:101D50000099016841F40071016021E002290CD171
:101D6000016821F4806101602068016841F400612C
:101D7000016000200090206801E00021009141698D
:101D800000918069009000980AE0606A421C6262DB
:101D900009690170208D401E2085608D401E608580
:101DA000208D010000F0E480042880F0A580012847
:101DB00024D1216848694006E7D44869C00606D5A1
:101DC0006FF01000486100202064206309E025B115
:101DD00000F020FBC01B8542EBD2206C40F02000BD
:101DE0002064202084F83D00002084F83C00206C12
:101DF000202884D1032001B0BDE8F08302282AD135
:101E000020684169490711D415F1010FF8D025B1B7
:101E100000F000FBC01B8542F2D20020206320208E
:101E200084F83D00002084F83E007EE7016841F41C
:101E300000710160606A411C61622168096901707A
:101E4000208D401E2085608D401E6085606A411C8B
:101E5000616221689CE720684169490711D415F146
:101E6000010FF8D025B100F0D5FAC01B8542F2D29F
:101E700000202063202084F83D00002084F83E00EC
:101E800053E7016821F480610160606A411C61626E
:101E9000216809690170208D401E2085608D401EDB
:101EA000608520684169490711D415F1010FF8D008
:101EB00025B100F0AFFAC01B8542F2D200202063AA
:101EC000202084F83D00002084F83E002DE70168C2
:101ED00041F400710160606A411C61622168096916
:101EE0000170208D401E2085608D401E6085606AD7
:101EF000411C616221684BE720684169490621D491
:101F00004169C90613D56FF01001416100202064BA
:101F10002063202084F83D00002084F83C00206CE1
:101F200020287FF4ECAE032001B0BDE8F08325B19A
:101F300000F070FAC01B8542DED2206C40F0200019
:101F40002064E6E7616A4A1C626200690870208DBD
:101F5000401E2085608D401E6085206841694907CC
:101F60007FF51EAF616A4A1C62620069087011E762
:101F7000202084F83D00002084F83E0084F83C00D6
:101F800001B0BDE8F08300000000FFFF90F83D00C5
:101F9000704770472DE9F04F002381B002460024BE
:101FA0009946DFF8A4A1694F4FF00F0E01200D688C
:101FB000984000EA0508804540F0A7804D68022D52
:101FC00018BF122D11D1DD0802EB850C09F01C059C
:101FD000DCF820600EFA05FB26EA0B06D1F810B0FB
:101FE0000BFA05F53543CCF8205003261568A640BA
:101FF0006FEA060C0E7906F003060CEA0505A6400A
:10200000354315604D68012D18BF022D03D0112DE9
:1020100018BF122D0FD19568CE680CEA0505A640B1
:1020200035439560556825EA00004D68C5F30015F5
:102030009D4028435060D0688D680CEA0000A540A0
:102040002843D0604868C0005FD50020009009F0A8
:102050000C0C38683E4E40F480403860386800F41C
:10206000804000900098980856F820500EFA0CF620
:10207000B543384EB24208BF002613D0364EB242A6
:1020800008BF01260ED0354EB24208BF022609D045
:10209000334EB24208BF032604D0324EB2420CBFC8
:1020A0000426072606FA0CF62E43294D45F8206033
:1020B0006FEA0800DAF8005000EA050C4D68ED03FD
:1020C00048BF48EA0C0CCAF800C0DAF8045000EA2D
:1020D000050C4D68AD0348BF48EA0C0CCAF804C0B3
:1020E000DAF8085000EA050C4D68ED0248BF48EAEE
:1020F0000C0CCAF808C0DAF80C5028404D68AD0244
:1021000048BF48EA0000CAF80C005B1CA41C102B56
:1021100009F10409FFF44AAF01B0BDE8F08F00698E
:102120000840401E8041C043C00F704702B90904F7
:10213000816170470C4A136803421CBF106000F0B5
:1021400005BC704700000000003C014044380240DC
:10215000083801400000024000040240000802402C
:10216000000C024000100240143C014027490A685C
:102170004FF6FF0300021A4000F4E0601043244AC7
:1021800010430860704730B4204B1B68C3F3022330
:10219000C3F10704052C28BF04241D1D072D34BFDF
:1021A0000023DB1E012505FA04F4641E214099403A
:1021B00005FA03F35B1E1A4011430901002807D5F5
:1021C000144A00F00F00104400F8041C30BC7047A3
:1021D000114A115430BC7047012100F01F02914098
:1021E0000E4A400942F820107047401EB0F1807F2F
:1021F00001D3012070470A494860F02081F8130D8F
:102200000020886007200860002070470CED00E087
:102210000000FA0518ED00E000E400E000E100E055
:1022200010E000E0F0B5614E81B00446D6F800043D
:102230000D4600F00F00A84207D286F80054D6F8E9
:10224000000400F00F00A84276D12078800705D561
:10225000B068A16820F0F0000843B0602078C007A3
:102260005CD56068012802D13168890305E0022845
:1022700018BF032805D13168890105D4012001B0B8
:10228000F0BD3168890757D5B168890840EA8100F7
:10229000B06000F0BFF80746606801280ED1B06852
:1022A00000F00C00042839D000F0B4F8C01B41F253
:1022B00089318842F3D3032001B0F0BD02280ED14A
:1022C000B06800F00C00082828D000F0A3F8C01B6C
:1022D00041F289318842F3D3032001B0F0BD0328D5
:1022E0000ED1B06800F00C000C2817D000F092F866
:1022F000C01B41F289318842F3D3032001B0F0BD05
:10230000B06810F00C0F09D000F084F8C01B41F247
:1023100089318842F4D3032001B0F0BDD6F800041F
:1023200000F00F0085420AD286F80054D6F8000467
:1023300000F00F00A84202D0012001B0F0BD2078CB
:10234000400705D5B068E16820F4E0500843B0606C
:102350002078000706D5B068216920F4604040EA83
:10236000C100B06000F02CF8B2681149C2F303124A
:10237000895CC8400F4908600F2000F0E5FB002091
:1023800001B0F0BD0B480C4A006812680B49C2F35B
:102390008222895CC84070470648074A0068126874
:1023A0000649C2F34232895CC84070470038024097
:1023B000904300089C01002008380240D4440008E3
:1023C0001048416801F00C01042903D0082903D00A
:1023D0000D4870470D48704701680268520201F0CD
:1023E0003F014CBF094A084AB2FBF1F1026800689C
:1023F000C0F30140C2F38812401C51434000B1FBBE
:10240000F0F07047043802400024F40000127A0013
:102410007047000001480068704700BFD8090020DD
:102420002DE9F04B88B000208DF80E00049000F0EC
:10243000A1FB00F0BDFB002000F002FC0121002008
:1024400000F03EFC00F098FCDFF87845211D0020EC
:1024500000F0F2FC012823D10FF270530FF2CC628E
:102460004FF4807104F1080000F0F8FD04F1080059
:1024700000F016FE82B241F2883304F10801DFF861
:10248000480500F059FE002000F004FC642001F033
:1024900009F8002000F009FC642001F003F8F2E7DD
:1024A000606800F02BFD012823D10FF220530FF2BA
:1024B0007C624FF4807104F1080000F0CFFD04F15C
:1024C000080000F0EDFD82B241F2883304F108010A
:1024D000DFF8F40400F030FE002000F0DBFB6420A5
:1024E00000F0E0FF002000F0E0FB642000F0DAFFE5
:1024F000F2E76068002100F011FD01281ED060683D
:10250000082100F056FD012818D060689FED5A0A96
:1025100000F014FD012811D06068202100F074FD46
:1025200001280BD060681F2100F07CFD012805D038
:102530006068802100F084FD012823D10FF28C43D4
:102540000FF2E8524FF4807104F1080000F086FDAC
:1025500004F1080000F0A4FD82B241F2883304F1D6
:102560000801DFF8640400F0E7FD002000F092FBB2
:10257000642000F097FF002000F097FB642000F03B
:1025800091FFF2E70FF24C424FF4807104F1080022
:1025900000F064FD04F1080000F082FD41F288388B
:1025A00082B2434604F10801DFF81C0400F0C4FDC8
:1025B00001E0022060706078042800F2A581DFE865
:1025C00010F005000600470073006401F3E70FF206
:1025D0005C424FF4807104F1080000F03FFD04F10B
:1025E000080000F05DFD82B2434604F10801DFF807
:1025F000D80300F0A1FD4FF47A7000F053FF60683B
:10260000012100F0F3FC0128D3D10FF2C0330FF207
:102610001C524FF4807104F1080000F01FFD04F11A
:10262000080000F03DFD82B2434604F10801DFF8E6
:10263000980300F081FD002000F02CFB642000F0E6
:1026400031FF002000F031FB642000F02BFFF2E7A7
:10265000606804A900F09EFC012802D108B0BDE822
:10266000F08BBDF81000BDF81210884217D0ADF8FD
:102670001200D3A202E000BF0040CE454FF48071AB
:1026800004F1080000F0EAFC04F1080000F008FD85
:1026900082B2434604F10801CB4800F04DFD20789A
:1026A000002888D0032085E760680DF10E0100F056
:1026B00053FC012821D10FF214330FF270424FF472
:1026C000807104F1080000F0C9FC04F1080000F07A
:1026D000E7FC82B2434604F10801BB4800F02CFD40
:1026E000002000F0D7FA642000F0DCFE002000F0AB
:1026F000DCFA642000F0D6FEF2E79DF80E00012817
:102700007FF459AF002000F0C5FA0020ADF80C00AE
:102710008146606803A900F03DFC012800F0938029
:10272000BDF80C000FF238324AF6AB214143480C99
:10273000ADF80C0003464FF4807104F1080000F07E
:102740008DFC04F1080000F0ABFC82B2434604F1BA
:1027500008019D4800F0F0FC4FF47A7000F0A2FEF2
:102760000FF244324FF4807104F1080000F076FC5F
:1027700004F1080000F094FC82B2434604F1080121
:10278000914800F0D9FC1EE0069DBBF1010B27D15A
:1027900002971FFA89F00196431C00954FF480714F
:1027A0000FF2503204F1080000F058FC04F1080068
:1027B00000F076FC82B2434604F10801824800F042
:1027C000BBFC09F10109BDF80C00814520DA0020AD
:1027D000ADF8140006900025002600274FF0030BEB
:1027E000606805A900F0C7FB01282CD0606806A925
:1027F00000F0EDFB012826D0BDF814000028C3D05E
:10280000022801D002D31EE0069FBEE7069EBCE769
:102810000FF2C0224FF4807104F1080000F01EFC9A
:1028200004F1080000F03CFC82B2434604F10801C8
:10283000654800F081FC642000F034FE002000F0C8
:1028400034FA0420B6E60FF284130FF2E0224FF4BC
:10285000807104F1080000F001FC04F1080000F0B0
:102860001FFC82B2434604F10801574800F064FCA3
:10287000002000F00FFA642000F014FE002000F0A9
:1028800014FA642000F00EFEF2E76068002100F008
:10289000ADFB012816D00FF268124FF4807104F1DD
:1028A000080000F0DBFB04F1080000F0F9FB82B245
:1028B000434604F10801444800F03EFC002020702B
:1028C000049077E60FF204130FF260224FF4807148
:1028D00004F1080000F0C2FB04F1080000F0E0FB86
:1028E00082B2434604F10801374800F025FC00207D
:1028F00000F0D0F9642000F0D5FD002000F0D5F9FB
:10290000642000F0CFFDF2E70FF2C0030FF21C22AB
:102910004FF4807104F1080000F0A0FB04F10800FE
:1029200000F0BEFB82B2434604F10801264800F0E5
:1029300003FC002000F0AEF9642000F0B3FD00209D
:1029400000F0B3F9642000F0ADFDF2E710B5B0F58A
:10295000005F0BD1002000F0F7F9002802BF194CEE
:102960006078002804BF0120607010BD2028154C3D
:1029700002D10120207010BD0FF298130FF2AC129B
:102980004FF4807104F1080000F068FB04F10800C6
:1029900000F086FB82B241F2883304F108010A4854
:1029A00000F0CAFB002000F075F9642000F07AFD09
:1029B000002000F07AF9642000F074FDF2E70000D6
:1029C0002E0000008C000020180800206D61696E48
:1029D000000000000D0A2D2D2D2D2D2D204C534DC6
:1029E0003644534C204649464F204D6F6465204481
:1029F000454D4F202D2D2D2D2D2D0D0A0D0A00009A
:102A00005072657373205553455220627574746F0C
:102A10006E20746F20737461727420746865204432
:102A2000454D4F2E2E2E0D0A000000000D0A4C536E
:102A30004D3644534C2073746172747320746F204C
:102A400073746F72652074686520646174612069B5
:102A50006E746F204649464F2E2E2E0D0A0D0A0029
:102A60000D0A0D0A25642073616D706C6573206911
:102A70006E204649464F2E0D0A0D0A53746172743A
:102A8000656420646F776E6C6F6164696E67206443
:102A90006174612066726F6D204649464F2E2E2E5E
:102AA0000D0A0D0A000000005B444154412023231D
:102AB0005D20202020204759525F582020202020D0
:102AC0004759525F5920202020204759525F5A0D04
:102AD0000A0000000D0A4649464F20646F776E6C6D
:102AE0006F616420636F6D706C657465642E0D0A90
:102AF0000D0A00005B4441544120253032645D20C2
:102B00002025386C64202025386C64202025386C02
:102B1000640D0A0048414C5F4750494F5F45585487
:102B2000495F43616C6C6261636B00000D0A457222
:102B3000726F7220696E20272573272066756E6379
:102B400074696F6E2E0D0A0010B504460748084AD6
:102B50000068A0FB0221480AFFF747FB002221463C
:102B60004FF0FF30FFF70FFB002010BD9C0100204D
:102B7000986E128300B50C4881B0016841F4007171
:102B80000160016841F480610160016841F4807175
:102B900001600320FFF7EAFA0F20FFF7D5FF00F0EE
:102BA00005F8002001B000BD003C02407047000065
:102BB00000B593B0002000901F48016841F080519B
:102BC0000160006800F080500090009800200090A4
:102BD0001A48016821F4404141F400410160006855
:102BE00000F44040009000980220069001200990D7
:102BF00010200A9002200C9000200D9010200E90C2
:102C00004FF4A8700F90042010900720119006A890
:102C100000F05AFC0F2001900221022002900020B7
:102C200003904FF4805004900020059001A8FFF716
:102C3000F9FA13B000BD00BF4038024000700040F8
:102C400070B586B0044600200090DFF81061DFF810
:102C50001001016841F00101016001A9006800F064
:102C60000100009000980FF2041030F81450019504
:102C700001200290002003900220049056F82400C6
:102C8000FFF788F956F8240000222946FFF74EFA8C
:102C900006B070BD0FF2D401DFF8C03031F810106B
:102CA00053F820000122FFF741BA0FF2C001DFF80C
:102CB000AC3031F8101053F820000022FFF736BA7C
:102CC00030B587B00446002000900D46DFF8900034
:102CD000016841F004010160006800F00400009008
:102CE0002800009810D10FF2880030F814000190ED
:102CF00001A900200290022003900490DFF86400F4
:102D000050F82400FFF746F9012D1BD10FF26000A7
:102D100030F81400019001A900200390DFF848006A
:102D20000290DFF8400050F82400FFF733F90FF26B
:102D30004400045D00220F2160B2FFF724FA60B264
:102D4000FFF74AFA07B030BD0FF22401DFF8142074
:102D500031F8101052F82000FFF7E1B9940100207B
:102D600030380240980100200000211020000000AF
:102D7000002000002800000010B586B00020009060
:102D8000294C2A48016841F001010160016801F005
:102D900001010091009900210091016841F00101B9
:102DA0000160016801F0010100910099002100918A
:102DB000016941F40031016101A9006900F40030AA
:102DC00000900098042001900220029000200390BF
:102DD00002200490072005902046FFF7DBF808202A
:102DE000019001A9072005902046FFF7D3F8104C69
:102DF000104820604FF4E13060600020A060E06087
:102E00002061A0610C206061204600F065F900B1EE
:102E1000FEE704F14000A0624FF48070A08500201E
:102E2000E06306B010BD00000000024030380240F0
:102E3000180800200044004000B581B0002200289E
:102E40000A60084606D000F00CF8012806D00020E1
:102E500001B000BD00F005F80128F8D1012001B053
:102E600000BD30B5214D04466879012881B03AD0C3
:102E7000FEF748FA012836D06A20287000206870D2
:102E8000D620A8700020A880A8710120E87105F163
:102E90001400A8601648E860164828611648E861E2
:102EA00005F11C0068610020A8612560E8680168E0
:102EB000080008D100200021002207C503C52060BA
:102EC00001B0012030BD28468847012808D120687C
:102ED000142100F063FC0020206001B0012030BD0F
:102EE000FEF76DFA002001B030BD0000AC090020F3
:102EF0003C00002000000020E009002000B581B067
:102F000018B1C16889680A0002D1012001B000BD72
:102F10008847012818BF002001B000BD00B581B06E
:102F200018B1C268926A130002D1012001B000BD3D
:102F30009047012818BF002001B000BD00281CBF29
:102F40000169002906D002786A2A03D109680A00BB
:102F500018BF08470120704700281CBF0269002ADB
:102F600007D031B103786A2B03D15268130018BF20
:102F700010470120704700281CBF0269002A07D0B3
:102F800031B103786A2B03D11269130018BF1047BF
:102F90000120704700281CBF0269002A07D031B108
:102FA00003786A2B03D19269130018BF10470120E0
:102FB000704700281CBF0269002A06D003786A2BDC
:102FC00003D1D269130018BF1047012070470028B1
:102FD0001CBF0269002A07D031B103786A2B03D1E4
:102FE000126A130018BF10470120704700281CBF49
:102FF0000269002A06D003786A2B03D1526A1300B3
:1030000018BF10470120704700281CBF0269002A22
:1030100006D003786A2B03D1926A130018BF1047B9
:103020000120704700281CBF0269002A06D00378DF
:103030006A2B03D1D26A130018BF104701207047D2
:1030400000281CBF0269002A06D003786A2B03D12E
:10305000126B130018BF10470120704708B400B569
:1030600084B005AB03930023029311B9009301933D
:1030700002E00090481E019003AB6946074878447F
:103080001A3000F08FFB009911B1009A00211170E5
:10309000002858BF029804B05DF808FBEFDCFFFF82
:1030A00000F10103810704D010F8011B89B18107E9
:1030B000FAD10268B2F10131914311F0803F04BFAF
:1030C00050F8042FF6E710F8011B11B110F8011B9E
:1030D000FBE7C01A7047000010B5040001D10120C1
:1030E00010BD94F8390020B984F83800204600F06B
:1030F000D7F9242084F839002068C16821F40051F0
:10310000C160204600F09BF82068016921F49041DD
:1031100001612068416921F02A0141612068C1688C
:1031200041F40051C1600020E063202084F83900A0
:1031300084F83A00002010BD2DE9F04104460D4608
:1031400094F83900202890461E4675D1002D14BFF2
:103150005FEA0800012070D094F8380001286BD095
:10316000012084F838000020E063212084F8390031
:10317000FFF750F9A4F824800746A4F8268002E05F
:1031800015F8011B4160E08C60B3E08C401EE084C8
:10319000A068B0F5805F17D120680168090609D4DE
:1031A00016F1010FF8D056B3FFF734F9C01B864271
:1031B000F2D224E02988C1F3080141602069002887
:1031C00014BF6D1CAD1CDEE7206801680906D7D46A
:1031D00016F1010FF8D096B1FFF71CF9C01B86421B
:1031E000F2D20CE02068006840061DD416F1010FF1
:1031F000F8D026B1FFF70EF9C01B8642F2D2206844
:10320000C16821F4D071C160206841694908490052
:103210004161202084F8390084F83A00002084F8C5
:1032200038000320BDE8F081202084F83900002018
:1032300084F83800BDE8F0810220BDE8F0812DE976
:10324000F041044620680169E26821F440511143CD
:1032500001618F4AC1681140A2681143226911437C
:1032600062691143E2691143C1604169A26921F4B5
:10327000407111434161E2698649B2F5004F40F067
:10328000A38088421CBF844988424ED1FFF784F84E
:103290000546FFF781F80646FFF77EF80746FFF779
:1032A0007BF88046FFF778F819225543DFF8ECE108
:1032B000616857434B00B5FBF3F5A5FB0EEC4FEAF5
:1032C0009C15B7FBF3F7DFF8D4E15643A7FB0EECF0
:1032D0006421B6FBF3F64FEA9C1701FB1766F60074
:1032E0003236DFF8B8C1A6FB0CC7BE09760006F47B
:1032F000F87606EB051502FB08F65043B6FBF3F62D
:10330000B0FBF3F0654BA0FB0332900901FB1060AA
:10331000C0003230614AA0FB02218809216800F018
:10332000070040198860BDE8F081FFF72BF80546DB
:10333000FFF728F80646FFF725F80746FFF722F8BB
:103340008046FFF71FF819225543DFF850E1616806
:1033500057434B00B5FBF3F5A5FB0EEC4FEA9C156C
:10336000B7FBF3F7DFF834E15643A7FB0EEC64211B
:10337000B6FBF3F64FEA9C1701FB1766F6003236F0
:10338000DFF818C1A6FB0CC7BE09760006F4F87674
:1033900006EB051502FB08F65043B6FBF3F6B0FB4F
:1033A000F3F03E4BA0FB0332900901FB1060C0001C
:1033B00032303A4AA0FB02218809216800F0070058
:1033C00040198860BDE8F08188421CBF32498842BC
:1033D0000ED1FEF7E1FF0546FEF7DEFF0646FEF7DB
:1033E000DBFF0746FEF7D8FF8046FEF7D5FF0DE06E
:1033F000FEF7C8FF0546FEF7C5FF0646FEF7C2FF0B
:103400000746FEF7BFFF8046FEF7BCFF1922554373
:10341000DFF888E0616857438B00B5FBF3F5A5FB47
:103420000EEC4FEA9C15B7FBF3F7DFF870E056435C
:10343000A7FB0EEC6421B6FBF3F64FEA9C1701FBE9
:10344000176636013236DFF854C0A6FB0CC7BE093A
:1034500006F0F00606EB051502FB08F65043B6FB36
:10346000F3F6B0FBF3F00D4BA0FB0332900901FB28
:10347000106000013230094AA0FB0221880921684E
:1034800000F00F0040198860BDE8F08100000000E6
:10349000F369FFFF00100140001401403E0AD7A36A
:1034A0007047000031B5FEF7B5FF009D15F1010F23
:1034B000044618BF6D1C00BFFEF7ACFF001BA842FE
:1034C000FAD301B030BD0000F0B5044681B02078D9
:1034D000AF4DC0074CD5A86800F00C00042807D0F9
:1034E000A86800F00C0008280AD16868400207D5D7
:1034F000286880033CD56068D0BB012001B0F0BDD6
:103500006068B0F5803F03D1286840F4803010E057
:10351000B0F5A02F286806D140F4802028602868E4
:1035200040F4803005E020F480302860286820F4E2
:1035300080202860606868B1FEF76CFF0646286846
:10354000800315D4FEF766FF801B6528F7D30320A0
:1035500001B0F0BDFEF75EFF06462868800307D580
:10356000FEF758FF801B6528F7D3032001B0F0BD9C
:103570002078800718D5A86810F00C0F07D0A8682D
:1035800000F00C00082826D16868400223D428687F
:10359000800702D5E0680128AFD12868216920F0B2
:1035A000F80040EAC10028602078000745D560692E
:1035B000784F90B30120C7F8800EFEF72BFF064628
:1035C000686F800739D4FEF725FF801B0328F7D3E7
:1035D000032001B0F0BDE0686E4F78B10120386083
:1035E000FEF718FF064628688007D6D4FEF712FFBC
:1035F000801B0328F7D3032001B0F0BD3860FEF72D
:1036000009FF064628688007CED5FEF703FF801B1A
:103610000328F7D3032001B0F0BDC7F8800EFEF7F2
:10362000F9FE0646686F800707D5FEF7F3FE801B9C
:103630000328F7D3032001B0F0BD2078400757D509
:1036400000200090544F286C40F080502864286C73
:1036500000F0805000900098386840F48070386026
:10366000FEF7D8FE06463868C00507D4FEF7D2FE3E
:10367000801B0328F7D3032001B0F0BDA068012808
:1036800003D1286F40F001000FE00528286F06D114
:1036900040F004002867286F40F0010005E0400872
:1036A00040002867286F20F004002867A06878B1E0
:1036B000FEF7B0FE064641F28937286F800717D41F
:1036C000FEF7A8FE801BB842F7D3032001B0F0BD7F
:1036D000FEF7A0FE064641F28937286F800707D51E
:1036E000FEF798FE801BB842F7D3032001B0F0BD6F
:1036F000A069002848D0A96801F00C0108293FF40E
:10370000FCAE0228234F2FD100203866FEF782FE40
:1037100006462868800107D5FEF77CFE801B03283B
:10372000F7D3032001B0F0BDE069216A0843616A64
:1037300040EA8110A16A891EC903090C40EA0140D0
:10374000E16A40EA0160686001203866FEF762FEC7
:1037500006462868800117D4FEF75CFE801B03280C
:10376000F7D3032001B0F0BD00203866FEF752FE0B
:1037700006462868800107D5FEF74CFE801B03280B
:10378000F7D3032001B0F0BD002001B0F0BD00BFB1
:10379000003802400000474200700040002200F064
:1037A000E3BB00002DE9F04F80460FF2A47095B006
:1037B00015461E46D0E90023CDE9132303AF0020B0
:1037C0000391B8610DF1340900E02D190020ADF826
:1037D000020013AB4FF0FF3229460DF1020000F05A
:1037E000F2FB0446012C04DA2878441EA441E44389
:1037F000E40FBDF8020025280CBFA4F1010BA3467D
:10380000BBF1010F0EDBAA461AF8011B0398C04753
:103810000028039000F0DA80B869401CBBF1010B6E
:10382000B861F1D1BDF80200252804D10020F8606C
:103830003861786105E00028C7D1B86906E340F037
:10384000010015F8011F2029F9D023290DD02B29BB
:1038500004D02D2906D030290AD00CE040F0020017
:1038600080B2EEE740F00400FAE740F00800F7E726
:1038700040F01000F4E72A290ED13168316051F888
:10388000042B3160002A3A6204D5514240F0040012
:10389000396280B26D1C13E0002139620BE0396A95
:1038A0006FF00043994205D001EB810302EB430125
:1038B000303939626D1C2A78A2F130010A29EED321
:1038C00029782E2903D04FF0FF31F9611FE015F858
:1038D000011F2A2907D1316831606D1C51F8042B72
:1038E0003160FA6113E00021F9610BE0F9696FF0D2
:1038F0000043994205D001EB810302EB43013039CB
:10390000F9616D1C2A78A2F130010A29EED3B8843E
:103910000FF24460297800F067FB08B115F8010B3D
:103920008DF832009DF83200682804BF2878682896
:1039300003D162208DF832006D1C0DA8B86015F817
:10394000014B252C13D0582C4BD0632C00F0A380B6
:10395000642C18BF692C7CD06F2C42D0702C36D0D0
:10396000732C0AD0752C18BF782C3AD0B6E0012001
:10397000F86025208DF83400BAE09DF832006C28FC
:103980003068306018D050F8044B30607C60D7F855
:103990001CA0BAF1000F04D52046FFF781FB824638
:1039A00007E052460021204600F02AFB08B1A0EBB8
:1039B000040AC7F810A09BE050F8042B306002A95D
:1039C000404600F02DF9002840F192803CE230683A
:1039D000306050F8041B306002910DA878607821A7
:1039E00055E09DF832006C280DD0712818BF6A2868
:1039F00009D13068C01D20F007023260D2E9000111
:103A00000832326004E03168316051F8040B3160F3
:103A100002909DF83200682802D102A8008803E0D5
:103A2000622802D102A80078029097F824000007CB
:103A300028D5029830B344F02000782822D1F868C5
:103A4000302109F80010401C411CF96009F80040C1
:103A500018E09DF83200314600F0BCF800280290D2
:103A600002D5F8682D2109E0B88C810702D5F868E5
:103A70002B2103E0C00705D5F868202109F80010C4
:103A8000401CF8600DA8F96808447860214602A837
:103A900000F0DFF92CE09DF832006C2809D00120FD
:103AA000F8603068306050F8041B30608DF83410D6
:103AB0001EE03068306001AA50F8041B3060ADF899
:103AC00004100020ADF8060002A94FF0FF30F861A5
:103AD000404600F0A5F800280AD577E70120F860F5
:103AE00025208DF834001CB10220F86089F80140CF
:103AF000386AF968401A7969401A3969441A97F89E
:103B00002400400711D42020012C8DF800000CDB8C
:103B1000A24601236A4602A9404600F001FA0028A5
:103B20007FF454AFBAF1010AF3D1D7F80CB0BBF16E
:103B3000000F0DF1340A0DD01AF8011B0398C0478D
:103B4000002803903FF442AFB869401CBBF1010B61
:103B5000B861F1D1D7F814A03020BAF1010F8DF877
:103B600000000BDB01236A4602A9404600F0D8F9A9
:103B700000287FF42BAFBAF1010AF3D1D7F810B0C7
:103B8000D7F804A0BBF1000F0DD01AF8011B039861
:103B9000C047002803903FF419AFB869401CBBF13F
:103BA000010BB861F1D197F8240040077FF50EAE04
:103BB0002020012C8DF80000FFF608AE01236A4694
:103BC00002A9404600F0ACF900287FF4FFAE641E65
:103BD000F4D1FBE5622815D068280CD06C2818BFFA
:103BE000742816D07A2814D10A680A6052F8040B97
:103BF0000A60002170470A680A6052F8040B0A60E4
:103C000000B20BE00A680A6052F8040B0A6040B286
:103C100004E00A680A6052F8040B0A60C117704792
:103C20002DE9F44F0D4694B02F6A002F804648BF0F
:103C30006FF0004700F010FA696A401801900FF227
:103C40002030D0E90023CDE9022395F82800400771
:103C500002D40198412805D240200DF110090190AD
:103C6000002606E000F0FEF95FEA0009F8D1EBE07B
:103C70003F1B012FC0F294801498018802AA0DF115
:103C8000010000F047FA0028044600F19C801498D7
:103C9000008810B9641E00F19680A742C0F28080AF
:103CA000286901992218914268D26E624042A9693E
:103CB000401A6969461A95F82800400710D4202058
:103CC000012E8DF800000BDBB24601236A4629461F
:103CD000404600F025F9002875D1BAF1010AF4D167
:103CE000D5F810B0BBF1000FCA460CD01AF8011B72
:103CF0006868C0470028686065D0E869401CBBF16F
:103D0000010BE861F2D130208DF80000D5F818A041
:103D1000BAF1010F0ADB01236A462946404600F04A
:103D2000FFF800284FD1BAF1010AF4D1D5F814B048
:103D3000D5F808A0BBF1000F0CD01AF8011B686879
:103D4000C047002868603ED0E869401CBBF1010B09
:103D5000E861F2D195F8280040070DD52020012E0A
:103D60008DF8000008DB01236A462946404600F032
:103D7000D7F840BB761EF6D100262E612246286970
:103D80000DF10101484400F0D3F928692018286199
:103D90001498801C1490801E008800287FF468AF5F
:103DA000686A2969401AA969401A6969471A95F829
:103DB000280040070FD4012F0DDB3C466868202106
:103DC000C047686010B94FF0FF3635E0E869401C25
:103DD000641EE861F2D12B694A462946404600F04C
:103DE0009FF80028EFD1AC69012C0ADB686830210C
:103DF000C04700286860E6D0E869401C641EE8619E
:103E0000F4D16B69AA682946404600F089F8002879
:103E1000D9D195F8280040070CD5012F0ADB686836
:103E20002021C04700286860CDD0E869401C7F1E73
:103E3000E861F4D12E616E6204A881451CBF48463A
:103E400000F0B2F9304601E04FF0FF3015B0BDE8A8
:103E5000F08FF0B4C2686F2908BF082405D041F084
:103E60002003782B14BF0A24102418230668642921
:103E700018BF6929374602D1002E48BF7F425FB97B
:103E8000056A4DB9082C27D190F82810090723D5C9
:103E900030211723D1751FE0B7FBF4F604FB16772A
:103EA0003037FFB25D1E3A2FA4BFA1F1510C674419
:103EB00057552B46370003D08568D618B542EBD34B
:103EC000082C09D190F82810090705D5D15C3029B4
:103ED00002D05B1E3021D1541A448260C3F1180114
:103EE000026A4161914208DA511A81614FF6EF721C
:103EF000018D11400185F0BC7047002A0ED590F865
:103F0000282002F01402102A08D1426A0369D21A4A
:103F10008369D21A531A012BA8BF8361F0BC704782
:103F2000F8B504460D4616461F46002077B116F830
:103F3000011B6868A047686030B1E869401CE8610F
:103F400000207F1EF3D1F2BD4FF0FF30F2BD000024
:103F50000000000000000000686C747A4C00000053
:103F60000000000000000000401810F0030308D01B
:103F7000C91A1FD3DB0748BF00F8012D28BF20F85E
:103F8000022D130030B414461546103928BF20E91D
:103F90003C00FAD8490728BF20E90C0048BF40F888
:103FA000042D890028BF20F8022D48BF00F8012DFC
:103FB00030BC7047C91818BF00F8012DCB0728BFC7
:103FC00000F8012D7047F8B504460D4616461F4609
:103FD00000F02AF93B4632462946204601B0BDE8AA
:103FE000F04000F038B900000278C9B28A421AB134
:103FF0001CBF10F8012FF9E718BF00207047000020
:10400000C9B2830706D0521E22D310F8013B994251
:10401000F7D11FE0083A13D302F1040241EA01216B
:1040200041EA014150F8043B121F21BF4B40A3F16C
:10403000013C2CEA030C1CF0803FF3D0C9B2001FF6
:10404000083210F8013B521E28BF91EA030FF8D83E
:1040500018BF0120401E704780B500F0E5F8012030
:1040600002BD000070B5054605F10F00C408AFF3AE
:104070000080E400A54232D2082C04D2082402E0D9
:10408000083000F091F82248026811000CD1011D9F
:104090000A6802B31368A34238BF111DF8D310E0B9
:1040A0001D68A5420DD2191D0B68002BF8D11268AE
:1040B000011D00E0191D0B6893420CD01D68A5423C
:1040C000F8D361B10D682A68A2F10803A3420AD2AD
:1040D0006A680A600FE000F0E1F80028D0D1AFF381
:1040E0000080002070BD2B190B60121B6E685E6093
:1040F0000B681A602C60096800291DBF4A68002AF5
:10410000091D00210160AFF3008005F1080070BDBA
:10411000D009002070B504460D46164600F084F81C
:10412000324629462046BDE8704000F087B80000BE
:1041300062B38B0708D0521E11F8013B00F8013B17
:1041400000F024808B07F6D1830740F0208000BF69
:10415000103A07D330B4B1E83810103AA0E838105C
:10416000F9D230BC530724BFB1E80810A0E808100A
:1041700044BF51F8043B40F8043BD20724BF31F858
:10418000022B20F8022B44BF0B7803707047083ACB
:1041900007D3B1E80810083A40F8043B40F804CBD4
:1041A000F7D25307E4E7000000B9704738B5A0F133
:1041B00008042068082833D310F0070F30D1AFF37C
:1041C00000801848416809B18C4203D261604460A4
:1041D00017E019464B680BB1A342FAD30B68CD1810
:1041E000AC421BD3A54204D12268D2180A600C4607
:1041F00007E04A681AB1236823449A420ED36260EA
:104200004C60616851B12268A3188B4206D100232B
:10421000036008688018206048686060AFF3008021
:1042200031BD0000D009002080B5DFF80C0000F09F
:104230004BF8806902BD0000A801002030B430B9FD
:104240000FF24800D0E90045C2E900451BE00170CB
:10425000012030BC704730B431B90FF23800D0E9DA
:104260000045C3E900450EE01AB930BC6FF001000B
:10427000704708B10A7802800978481E804130BC36
:10428000C043C00F7047002030BC704700000000E2
:10429000000000000000000000000000074908685E
:1042A00008B1002070470648C008C00008600549F2
:1042B000C908C900091A0160704700BFDC09002065
:1042C0001F060020180800207047F0B401684468F9
:1042D0008368014401EB5402E40748BF4B44914218
:1042E00002D1F0BC0C30704711F8015B15F00306E9
:1042F00004BF11F8014BE61C2C090F2C07D111F853
:10430000014B0F3403E011F8017B03F8017B761EAB
:10431000F9D1002CE3D0AD0811F8016B05F00305CD
:10432000032D08BF11F8015B06EB05256D42A41CA7
:104330001D44D4D015F8016B03F8016B641EF9D14C
:10434000CDE700000E480F4BD0F8801041F470010B
:10435000C0F880100C490A6842F001020A6000228D
:104360008A600A681A400A60084A4A600A6822F4A9
:1043700080220A600022CA604FF00061016070472D
:1043800008ED00E0FFFFF6FE003802401030002488
:1043900000000000000000000102030406070809F5
:1043A00019E050F8041BCB0744BFA9F101035918C9
:1043B000121F0023042A41F8043BF9D25FEA827CF1
:1043C0000B4604D54FF0000CA1F800C09B1CD10790
:1043D00044BF0021197050F8042B002AE1D1704726
:1043E00010B5074979441831064C7C44163404E072
:1043F0000A68081D114488470146A142F8D110BD42
:104400002C000000480000004EF68851CEF200015A
:10441000086840F470000860BFF34F8FBFF36F8FE0
:104420004FF00070E1EE100A7047000075FFFFFFCB
:10443000CC01000018080020000000008FFEFFFFE4
:10444000880100001A0100000000002000F00BF8B5
:10445000002801D0FFF7C4FF0020AFF30080FDF774
:10446000DFFF00F002F80120704700F001B8000003
:104470000746384600F002F8FBE7000080B5AFF3CE
:104480000080024A11001820ABBEFBE726000200A4
:104490007047FEE7704700F007B82020FDF74ABEDE
:1044A0004FF40050FDF746BE02480168491C016008
:1044B000704700BFD80900200148804701480047E5
:1044C00045430008C9440008AFF30080FFF79CFF94
:1044D000FFF7BCFF0000000001020304FFF7FEBF6E
:1044E000FFF7FEBFFFF7FEBFFFF7FEBFFFF7FEBF00
:1044F000FFF7FEBFFFF7FEBFFFF7FEBFFFF7FEBFF0
:10450000FFF7FEBFFFF7FEBFFFF7FEBFFFF7FEBFDF
:10451000FFF7FEBFFFF7FEBFFFF7FEBFFFF7FEBFCF
:10452000FFF7FEBFFFF7FEBFFFF7FEBFFFF7FEBFBF
:10453000FFF7FEBFFFF7FEBFFFF7FEBFFFF7FEBFAF
:10454000FFF7FEBFFFF7FEBFFFF7FEBFFFF7FEBF9F
:10455000FFF7FEBFFFF7FEBFFFF7FEBFFFF7FEBF8F
:10456000FFF7FEBFFFF7FEBFFFF7FEBFFFF7FEBF7F
:10457000FFF7FEBFFFF7FEBFFFF7FEBFFFF7FEBF6F
:10458000FFF7FEBFFFF7FEBFFFF7FEBFFFF7FEBF5F
:10459000FFF7FEBFFFF7FEBFFFF7FEBFFFF7FEBF4F
:1045A000FFF7FEBFFFF7FEBFFFF7FEBFFFF7FEBF3F
:1045B000FFF7FEBFFFF7FEBFFFF7FEBFFFF7FEBF2F
:1045C000FFF7FEBFFFF7FEBF1003410A0008F50426
:1045D0001003250B0008550412850412970412A934
:1045E0000412BB0412F9041003C50C0008ED0410FA
:1045F000030D0D00081F04123F04125D04100795FF
:1046000001000807020008650410032D030008CD0F
:104610000412DF0410070D040008150500086104EA
:1046200012CD04100365060008E5041003650800B8
:1046300008DD0450030D090008000112B10C12C579
:104640000422DF14F3F60400011002024000080403
:05465000F76424F411E1
:0400000508000000EF
:00000001FF
