:020000040800F2
:1000000000800120352200088D2100089121000880
:1000100085220008852200088522000800000000D3
:100020000000000000000000000000008522000821
:1000300085220008000000008522000895210008A4
:1000400085220008852200088522000885220008F4
:1000500085220008852200088522000885220008E4
:1000600085220008852200088522000885220008D4
:1000700085220008852200088522000885220008C4
:1000800085220008852200088522000885220008B4
:1000900085220008852200088522000885220008A4
:1000A0008522000885220008852200088522000894
:1000B0008522000899210008852200088522000871
:1000C0008522000885220008852200088522000874
:1000D0008522000885220008852200088522000864
:1000E000A521000885220008852200088522000835
:1000F0008522000885220008852200088522000844
:100100008522000885220008852200088522000833
:100110008522000885220008852200088522000823
:100120008522000885220008852200088522000813
:100130008522000885220008852200088522000803
:1001400085220008852200088522000885220008F3
:1001500085220008852200088522000885220008E3
:1001600085220008852200088522000885220008D3
:100170008522000885220008852200080000000072
:100180008522000885220008000000000000000011
:10019000044B05481B1A062B02D9044B03B1184720
:1001A000704700BF4304002040040020000000000E
:1001B00005490648091A891001EBD171491002D08E
:1001C000034B03B11847704740040020400400204F
:1001D0000000000010B5064C237843B9FFF7D8FFA4
:1001E000044B13B10448AFF300800123237010BD0A
:1001F00040040020000000002426010808B5084B38
:100200001BB108490848AFF300800848036813B9D8
:10021000BDE80840CCE7064B002BF9D09847F7E73C
:1002200000000000440400202426010840040020AF
:1002300000000000000000000000000000000000BE
:1002400001F0FF01102A2BDB10F0070F08D010F887
:10025000013B013A8B422DD010F0070F42B3F6D18B
:10026000F0B441EA012141EA014122F007047FF0A4
:1002700000070023F0E80256083C85EA010586EAFB
:10028000010685FA47F5A3FA87F586FA47F6A5FA37
:1002900087F68EB9EED1F0BC01F0FF0102F0070243
:1002A00032B110F8013B013A83EA010313B1F8D1EE
:1002B0000020704701387047002D06BF35460338CF
:1002C000073815F0010F07D1013015F4807F02BF08
:1002D000013015F4C03F0130F0BC0138704700BF59
:1002E00081F0004102E000BF83F0004330B54FEAE7
:1002F00041044FEA430594EA050F08BF90EA020F54
:100300001FBF54EA000C55EA020C7FEA645C7FEAE6
:10031000655C00F0E2804FEA5454D4EB5555B8BF09
:100320006D420CDD2C4480EA020281EA030382EA7A
:10033000000083EA010180EA020281EA0303362D0C
:1003400088BF30BD11F0004F4FEA01314FF4801CDF
:100350004CEA113102D0404261EB410113F0004FF1
:100360004FEA03334CEA133302D0524263EB4303A8
:1003700094EA050F00F0A780A4F10104D5F1200E46
:100380000DDB02FA0EFC22FA05F2801841F10001A1
:1003900003FA0EF2801843FA05F359410EE0A5F175
:1003A00020050EF1200E012A03FA0EFC28BF4CF0A6
:1003B000020C43FA05F3C01851EBE37101F000455C
:1003C00007D54FF0000EDCF1000C7EEB00006EEB69
:1003D0000101B1F5801F1BD3B1F5001F0CD34908F3
:1003E0005FEA30004FEA3C0C04F101044FEA44524A
:1003F00012F5800F80F09A80BCF1004F08BF5FEAD1
:10040000500C50F1000041EB045141EA050130BDB0
:100410005FEA4C0C404141EB010111F4801FA4F153
:100420000104E9D191F0000F04BF01460020B1FAA8
:1004300081F308BF2033A3F10B03B3F120020CDAE0
:100440000C3208DD02F1140CC2F10C0201FA0CF0BE
:1004500021FA02F10CE002F11402D8BFC2F1200C23
:1004600001FA02F120FA0CFCDCBF41EA0C019040D9
:10047000E41AA2BF01EB0451294330BD6FEA040422
:100480001F3C1CDA0C340EDC04F11404C4F120020D
:1004900020FA04F001FA02F340EA030021FA04F31F
:1004A00045EA030130BDC4F10C04C4F1200220FA76
:1004B00002F001FA04F340EA0300294630BD21FAB4
:1004C00004F0294630BD94F0000F83F4801306BF7A
:1004D00081F480110134013D4EE77FEA645C18BF6E
:1004E0007FEA655C29D094EA050F08BF90EA020F05
:1004F00005D054EA000C04BF1946104630BD91EAFD
:10050000030F1EBF0021002030BD5FEA545C05D1FF
:100510004000494128BF41F0004130BD14F580043E
:100520003CBF01F5801130BD01F0004545F0FE41B2
:1005300041F470014FF0000030BD7FEA645C1ABFE7
:10054000194610467FEA655C1CBF0B46024650EA1E
:10055000013406BF52EA033591EA030F41F400214A
:1005600030BD00BF90F0000F04BF0021704730B5D0
:100570004FF4806404F132044FF000054FF00001A5
:1005800050E700BF90F0000F04BF0021704730B566
:100590004FF4806404F1320410F0004548BF40423B
:1005A0004FF000013EE700BF42004FEAE2014FEA90
:1005B00031014FEA02701FBF12F07F4393F07F4F6B
:1005C00081F06051704792F0000F14BF93F07F4F9D
:1005D000704730B54FF4607401F0004521F00041E0
:1005E00020E700BF50EA010208BF704730B54FF066
:1005F00000050AE050EA010208BF704730B511F06B
:10060000004502D5404261EB41014FF4806404F1A2
:1006100032045FEA915C3FF4DCAE4FF003025FEA24
:10062000DC0C18BF03325FEADC0C18BF033202EBAC
:10063000DC02C2F1200300FA03FC20FA02F001FA06
:1006400003FE40EA0E0021FA02F11444C1E600BFA5
:1006500070B54FF0FF0C4CF4E06C1CEA11541DBF58
:100660001CEA135594EA0C0F95EA0C0F00F0DEF823
:100670002C4481EA030621EA4C5123EA4C5350EA08
:10068000013518BF52EA033541F4801143F4801359
:1006900038D0A0FB02CE4FF00005E1FB02E506F0EA
:1006A0000042E0FB03E54FF00006E1FB03569CF03F
:1006B000000F18BF4EF0010EA4F1FF04B6F5007F45
:1006C00064F5407404D25FEA4E0E6D4146EB0606B7
:1006D00042EAC62141EA55514FEAC52040EA5E5040
:1006E0004FEACE2EB4F1FD0C88BFBCF5E06F1ED8EA
:1006F000BEF1004F08BF5FEA500E50F1000041EB21
:10070000045170BD06F0004646EA010140EA0200CD
:1007100081EA0301B4EB5C04C2BFD4EB0C0541EAEF
:10072000045170BD41F480114FF0000E013C00F304
:10073000AB8014F1360FDEBF002001F0004170BD28
:10074000C4F10004203C35DA0C341BDC04F1140441
:10075000C4F1200500FA05F320FA04F001FA05F2CD
:1007600040EA020001F0004221F0004110EBD3709A
:1007700021FA04F642EB06015EEA430E08BF20EAC6
:10078000D37070BDC4F10C04C4F1200500FA04F369
:1007900020FA05F001FA04F240EA020001F00041FB
:1007A00010EBD37041F100015EEA430E08BF20EA6E
:1007B000D37070BDC4F1200500FA05F24EEA020EB6
:1007C00020FA04F301FA05F243EA020321FA04F0E5
:1007D00001F0004121FA04F220EA020000EBD3709C
:1007E0005EEA430E08BF20EAD37070BD94F0000F9C
:1007F0000FD101F00046400041EB010111F4801FD0
:1008000008BF013CF7D041EA060195F0000F18BF80
:10081000704703F00046520043EB030313F4801FBC
:1008200008BF013DF7D043EA0603704794EA0C0F76
:100830000CEA135518BF95EA0C0F0CD050EA41068C
:1008400018BF52EA4306D1D181EA030101F0004109
:100850004FF0000070BD50EA410606BF1046194631
:1008600052EA430619D094EA0C0F02D150EA01363D
:1008700013D195EA0C0F05D152EA03361CBF10467E
:1008800019460AD181EA030101F0004141F0FE411D
:1008900041F470014FF0000070BD41F0FE4141F4A1
:1008A000780170BD70B54FF0FF0C4CF4E06C1CEAA1
:1008B00011541DBF1CEA135594EA0C0F95EA0C0F56
:1008C00000F0A7F8A4EB050481EA030E52EA033511
:1008D0004FEA013100F088804FEA03334FF0805532
:1008E00045EA131343EA12634FEA022245EA11155F
:1008F00045EA10654FEA00260EF000419D4208BF10
:10090000964244F1FD0404F5407402D25B084FEABC
:100910003202B61A65EB03055B084FEA32024FF468
:1009200080104FF4002CB6EB020E75EB030E22BFC5
:10093000B61A754640EA0C005B084FEA3202B6EB85
:10094000020E75EB030E22BFB61A754640EA5C0034
:100950005B084FEA3202B6EB020E75EB030E22BFC4
:10096000B61A754640EA9C005B084FEA3202B6EBC5
:10097000020E75EB030E22BFB61A754640EADC0084
:1009800055EA060E18D04FEA051545EA16754FEAE6
:1009900006164FEAC30343EA52734FEAC2025FEA04
:1009A0001C1CC0D111F4801F0BD141EA00014FF093
:1009B00000004FF0004CB6E711F4801F04BF014364
:1009C0000020B4F1FD0C88BFBCF5E06F3FF6AFAE80
:1009D000B5EB030C04BFB6EB020C5FEA500C50F110
:1009E000000041EB045170BD0EF0004E4EEA113193
:1009F00014EB5C04C2BFD4EB0C0541EA045170BD9A
:100A000041F480114FF0000E013C90E645EA060EDD
:100A10008DE60CEA135594EA0C0F08BF95EA0C0F0B
:100A20003FF43BAF94EA0C0F0AD150EA01347FF453
:100A300034AF95EA0C0F7FF425AF104619462CE72A
:100A400095EA0C0F06D152EA03353FF4FDAE10468D
:100A5000194622E750EA410618BF52EA43067FF4DE
:100A6000C5AE50EA41047FF40DAF52EA43057FF46E
:100A7000EBAE12E74FF0FF3C06E000BF4FF0010C79
:100A800002E000BF4FF0010C4DF804CD4FEA410CDD
:100A90007FEA6C5C4FEA430C18BF7FEA6C5C1BD0AA
:100AA00001B050EA410C0CBF52EA430C91EA030F2B
:100AB00002BF90EA020F0020704710F1000F91EA88
:100AC000030F58BF994208BF90422CBFD8176FEA56
:100AD000E37040F0010070474FEA410C7FEA6C5C24
:100AE00002D150EA013C07D14FEA430C7FEA6C5C2B
:100AF000D6D152EA033CD3D05DF8040B704700BF57
:100B00008446104662468C461946634600E000BFA4
:100B100001B5FFF7B7FF002848BF10F1000F01BD76
:100B20004DF808EDFFF7F4FF0CBF012000205DF841
:100B300008FB00BF4DF808EDFFF7EAFF34BF0120C6
:100B400000205DF808FB00BF4DF808EDFFF7E0FF5F
:100B500094BF012000205DF808FB00BF4DF808EDB0
:100B6000FFF7CEFF94BF012000205DF808FB00BF17
:100B70004DF808EDFFF7C4FF34BF012000205DF8F9
:100B800008FB00BF4FEA410212F5001215D211D541
:100B90006FF47873B3EB625212D94FEAC12343F07A
:100BA000004343EA505311F0004F23FA02F018BFFC
:100BB000404270474FF00000704750EA013005D1C5
:100BC00011F0004008BF6FF0004070474FF0000088
:100BD000704700BF4A0011D212F5001211D20DD594
:100BE0006FF47873B3EB62520ED44FEAC12343F033
:100BF000004343EA505323FA02F070474FF00000DD
:100C0000704750EA013002D14FF0FF3070474FF08B
:100C1000000070474FEA4102B2F1E04324BFB3F550
:100C2000001CDCF1FE5C0DD901F0004C4FEAC00263
:100C30004CEA5070B2F1004F40EB830008BF20F047
:100C40000100704711F0804F21D113F13872BCBF01
:100C500001F00040704741F480114FEA5252C2F156
:100C60001802C2F1200C10FA0CF320FA02F018BF9F
:100C700040F001004FEAC1234FEAD32303FA0CFCF2
:100C800040EA0C0023FA02F34FEA4303CCE77FEA81
:100C9000625307D150EA01331EBF4FF0FE4040F4CB
:100CA0004000704701F0004040F0FE4040F400007A
:100CB000704700BF7BB972B90029BEBF00204FF05A
:100CC000004106E008BF00281CBF6FF000414FF054
:100CD000FF3000F0C9B9ADF1080C6DE904CE002970
:100CE00009DB002B1ADB00F04DF8DDF804E0DDE94C
:100CF000022304B07047404261EB4101002B1BDB33
:100D000000F040F8DDF804E0DDE9022304B04042E1
:100D100061EB4101524263EB43037047524263EB84
:100D2000430300F02FF8DDF804E0DDE9022304B00E
:100D3000404261EB41017047524263EB430300F0D4
:100D400021F8DDF804E0DDE9022304B0524263EB50
:100D50004303704753B94AB9002908BF00281CBF94
:100D60004FF0FF314FF0FF3000F07EB9ADF1080CCD
:100D70006DE904CE00F006F8DDF804E0DDE90223B9
:100D800004B070472DE9F0478C460E460446089D96
:100D9000002B50D18A4217466CD9B2FA82FEBEF1BE
:100DA000000F0BD0CEF1200420FA04F401FA0EF665
:100DB00044EA060C02FA0EF700FA0EF44FEA17495D
:100DC000220CBCFBF9F01FFA87F809FB10C642EAB7
:100DD000064600FB08F3B34209D9F61900F1FF32C9
:100DE00080F02281B34240F21F8102383E44F61A5D
:100DF000A2B2B6FBF9F309FB136642EA064403FB11
:100E000008F8A04509D9E41903F1FF3280F00A81FE
:100E1000A04540F20781023B3C44C8EB040443EA8E
:100E200000400021002D62D024FA0EF400232C6033
:100E30006B60BDE8F0878B4207D9002D55D00021AB
:100E400085E841000846BDE8F087B3FA83F1002940
:100E500040F09080B34202D3824200F2F880841ABC
:100E600066EB03060120B446002D40D085E8101043
:100E7000BDE8F08712B90127B7FBF2F7B7FA87FE92
:100E8000BEF1000F35D1F31B4FEA17481FFA87FC5C
:100E90000121B3FBF8F0220C08FB103642EA0646AB
:100EA0000CFB00F3B34207D9F61900F1FF3202D26E
:100EB000B34200F2CE801046F61AA2B2B6FBF8F3A7
:100EC00008FB136642EA06440CFB03FCA44507D961
:100ED000E41903F1FF3202D2A44500F2B5801346B3
:100EE000CCEB040443EA00409CE729462846BDE8D1
:100EF000F087CEF1200106FA0EF307FA0EF720FA7A
:100F000001F94FEA1748CE4049EA0309B6FBF8FA5F
:100F10004FEA194408FB1A661FFA87FC44EA0643A5
:100F20000AFB0CF29A4200FA0EF40AD9DB190AF114
:100F3000FF3180F087809A4240F28480AAF1020A51
:100F40003B449B1A1FFA89F9B3FBF8F108FB1133F4
:100F500049EA034301FB0CF69E4207D9DB1901F174
:100F6000FF326BD29E4269D902393B449B1B41EA56
:100F70000A418EE7C1F1200E22FA0EF48B40234382
:100F800020FA0EF706FA01F44FEA134C26FA0EF691
:100F90003C43B6FBFCF9270C0CFB19661FFA83F8DF
:100FA00047EA064609FB08F7B74202FA01F200FADF
:100FB00001FA08D9F61809F1FF3041D2B7423FD9FA
:100FC000A9F102091E44F61BA0B2B6FBFCF40CFB0F
:100FD000146640EA064704FB08F8B84507D9FF182D
:100FE00004F1FF3028D2B84526D9023C1F4444EA18
:100FF0000940C8EB0707A0FB02894F4544464E460F
:1010000014D329D065B3BAEB040367EB060707FADC
:101010000EFECB40CF404EEA030385E88800002156
:10102000BDE8F0871346F8E61046E0E6B8EB0204A8
:1010300069EB03060138E5E70446D8E7114695E772
:101040008146C0E78A467CE7023B3C4448E70846C5
:101050000AE702383E442FE7C245E7D33E46D1E7D0
:101060002946BDE8F08700BF704700BF044B1B78DE
:10107000037132210822032341718271036070479A
:10108000000000200268012A65D9F0B50679322EE9
:1010900083B002D0002003B0F0BD84790C2C05464B
:1010A00000F0418120D9622C00F0298155D80E2C06
:1010B00073D0602CEED1022AECD04379B44A2B7164
:1010C000E023AB7110686E710DF1070105F012F8A5
:1010D0009DF80730002B5BD104220321E81D00F0AE
:1010E000CBFF07232B6053E0022C00F0BF8040F2BF
:1010F000AD80082C6FD0092CCCD1022ACAD0A44BC9
:10110000A44C186804F0DEFFA34B186805F006F93C
:10111000A24B186804F068FEA14B186804F0D6FCD6
:10112000A04B186804F0AAFD9F4B186804F00AFF52
:1011300000239E4A9E4823601946137003F0BAFAB2
:10114000AB796A792A71803B2846AB716E7100F0E9
:1011500053FA01209FE700207047762C28D07A2C84
:1011600098D1022A96D043798F4A2B71FA23AB711A
:1011700010686E710DF1070104F0FCFE9DF8073058
:1011800033B904220221E81D00F076FF07232B600B
:10119000284600F031FA01207DE7032A7FF47AAF78
:1011A000417902608E23017146718371012072E7DB
:1011B000022A3FF46FAF43797A4A2B71F623AB7161
:1011C00010686E710DF1070104F070FD9DF8073095
:1011D000002BDDD180E7022A3FF45CAF0421073009
:1011E00000F03EFF6B4C20602368DF0700F1BF80FA
:1011F00023689E0700F1B6802368580700F1AD8090
:101200002368D90600F1A48023689A0600F19B8028
:1012100023685B0603D5644B186804F083FE634BB8
:101220006348012400211C7003F014FAAB79614972
:101230006A790A70803B322003216871AB712846BD
:101240002A71296000F0D8F9204624E7012C7FF4A8
:1012500021AF032A7FF41EAF41790260812301711F
:101260004671837100F0C8F9204614E7032A7FF421
:1012700011AF504B4279027103F1100103F10800E4
:10128000EA1D05F10F048227914288BF84426E71E6
:10129000AF7171D851076FD1D3E90201C2E90001E2
:1012A000D3E90401C4E90001D3E9060105F11702FD
:1012B000C2E90001D3E9080105F11F02C2E90001FA
:1012C00093F8282085F8272093F8292085F82820EE
:1012D00093F82A2085F8292093F82B2085F82A20D6
:1012E00093F82C2085F82B2093F82D3085F82C309E
:1012F000292328462B6000F07FF90120CBE6022A43
:101300003FF4C8AE43790371E2238371467104222E
:101310000121073000F0B0FE072328462B6000F0C3
:101320006BF90120B7E6022A3FF4B4AE43790371AA
:101330008C220323467182710360427A017AC0795C
:1013400000F050FD24E7174B186804F087FC5FE7B6
:10135000134B186804F0AAFB56E7104B186804F00A
:1013600033FD4DE70C4B186804F0C8FF44E7084B09
:10137000186804F097FE3BE70F4BAA1D03F1260007
:1013800013F8011F02F8011F8342F9D1B0E700BF33
:10139000700400209C040020680400206C040020DD
:1013A0005C0400206404002060040020EC0C002099
:1013B000B00C0020000000200700002001210EF0EA
:1013C00071BB00BF0EF09EBC0EF03EBE10B50C46C9
:1013D0000EF08CFE206010BD30B591B0054603A81C
:1013E0000C460EF031FEDDED037ADFED366A2B6838
:1013F000F5EEC07AF1EE10FAACBFB6EE007ABEEEB2
:10140000007AA7EEA67ADDED066AFDEEC77A9DEDBD
:10141000047ACDED017ABDF8042012B29B1A07EED2
:10142000903AF8EEE77AB5EEC07A67EEA67AF1EE7A
:1014300010FAFDEEE77ADFED236A6B68C4ED007AFF
:10144000ACBFF6EE007AFEEE007AE7EE267ADDED2E
:101450000A6A9DED057AFDEEE77AB5EEC07ACDED2C
:10146000017ABDF8042012B29B1A07EE903AF8EE0A
:10147000E77AF1EE10FA67EEA67ADFED126AAB6852
:10148000FDEEE77AC4ED017AACBFF6EE007AFEEE2F
:10149000007AE7EE267A9DED0E7AFDEEE77ACDED45
:1014A000017ABDF8042012B29B1A07EE903AF8EECA
:1014B000E77A67EE877AFDEEE77AC4ED027A11B03B
:1014C00030BD00BF00007A44B5EEC00AF1EE10FA5C
:1014D0009FED097AACBFF6EE007AFEEE007AE0EE00
:1014E000077A82B0FDEEE77ACDED017ABDF804000F
:1014F00000B202B0704700BF00007A44012070477C
:10150000012070472DE9F04F814683B0374800F045
:101510002BF918B1002003B0BDE8F08F334800F07C
:1015200081F9334BC0F500709C8883B2A34236BF6B
:10153000C4F5007BC4EB030B9B4401931FFA8BF3B0
:101540000093002BE6D04FF0000ADFF8A8B0554614
:10155000D046564605E00136009B1FFA86F8434503
:101560003CD9621C1BF8043094B2B4F5007F28BF4C
:101570000024F02BEFD11E4B9C880EB3002701E016
:1015800047451DD204F1010ACAF3080A09EB050216
:101590001BF804001BF80A10043200F083FCC0B2F0
:1015A00083B21F4401352344BFB2C3F30804ADB274
:1015B0000028E5D10E4BA3F804A003B0BDE8F08FDE
:1015C00001340B4BC9F80050C4F3080448469C8012
:1015D00000F0E0FC0028BED001209CE7B3F5807F3E
:1015E00098D9034BBDF804209A8093E7A406002005
:1015F000EC060020AC07002070B5084C054600F052
:1016000063FC2946204600F01DFC214682B241F2CF
:1016100088330348BDE8704003F0D2BBAC0900201A
:10162000F4060020334BF0B5DA6C334C42F0010283
:10163000DA64DA6C8BB002F001020192019ADA6C82
:1016400042F00102DA64DA6C02F001020292029ABC
:101650009A6D42F400329A659A6D02F40032039258
:10166000039A9A6C42F001029A649B6C03F00103A6
:1016700000250422049305A9022307264FF0904079
:10168000059206930893049F0795099600F054FF6E
:1016900008234FF0904005A90593099600F04CFFF0
:1016A000164B174A1B68636020460C23A560E56053
:1016B0002561A5612260636103F0F8FC10B100F0C0
:1016C000ABFBFEE70F4D104E0746284600F0AEF884
:1016D000284600F07BFE4FF4007331461A46204640
:1016E0006566AC62E7666665A4F8583003F0E8FB0F
:1016F0000BB0F0BD00100240F406002030000020C6
:1017000000440040A4060020AC070020F0B597B0CC
:101710001020012302226027002628250724042107
:10172000059005A80B93109311930D970C960F92AB
:10173000159212951394149101F0D6FC80B90023F0
:101740000F2403220421684600940192029303931C
:10175000049301F0E1FF08B100F05EFB17B0F0BDAB
:1017600000F05AFBEBE700BF0368294A934219D9FE
:10177000284902F560728B4212682FD014318B42D7
:1017800032D014318B4231D014318B4237D01431E6
:101790008B423AD0204883420CBF4FF400034FF0F5
:1017A00000631CE01D4A1E499342086813D014329E
:1017B000934217D0143293421ED01432934221D058
:1017C0001432934215D0143293420CBF4FF40003ED
:1017D0004FF0006300E0082318407047082303EA35
:1017E000020070478023F7E78023F8E74FF4006397
:1017F000F5E74FF40023EFE74FF40063ECE74FF415
:101800000043ECE74FF40043E6E74FF40023E6E73C
:1018100080000240080402406C04024008000240BC
:101820000000024003685868704700BF30B4094B9D
:1018300003608025002320244FF4405102220561DB
:10184000C461016242608360C3604361836130BCF4
:10185000704700BF6C0002402DE9F04F2DED028B68
:10186000A5B000F029FDFFF751FF002004F080FD36
:101870000121002004F0A2FD874B884C9A6CDFF810
:1018800048A242F480529A649B6C03F48053029302
:1018900021464FF0FF30029B04F012F8022120682D
:1018A00004F04EF99FED7E0A206804F039F9211DFD
:1018B0004FF0FF3004F0C2FA04F108014FF0FF309E
:1018C00004F04EF904F10C014FF0FF3004F02CFC51
:1018D00004F110014FF0FF3004F002FA04F114019A
:1018E0004FF0FF3004F060FB1420FFF767FD01A903
:1018F0000AA8FFF76BFD0125FFF794FE00230C22D9
:1019000013A81D9318931392159501F0EDFB654BE9
:10191000F8B11D607F22F923CAF8003063622262A9
:10192000614BA361402200236048E261A36223630C
:10193000636302F05DFB00B1FEE70DF190085C4BC4
:1019400048F8783D01224146584802F0A9FC40B1D0
:10195000FEE718607F22FF23CAF80030636222622C
:10196000DEE741F2080316901790012213A94F48B1
:10197000139302F09BFB064600B1FEE74D4D4E4926
:10198000A86049F63F422723284685E806002E61D5
:10199000EB6002F061FD4FF4805341462846069308
:1019A00003F064F8284602F0DDFD284603A90396FB
:1019B000059603F0D5F932460223284613A913965B
:1019C00015961796149302F0B9FE284602F0BCFD56
:1019D0003A4D3B4F314E9FED3B8AA9463748FFF7C2
:1019E00091FD18B199F80430322B51D03B78002B7F
:1019F000F4D094F83C30002BF0D04FF0000B5A4656
:101A000013A92A4886F83CB002F014FC5A46414615
:101A1000264802F0F1FCDAF80010149B9DF84C20E7
:101A2000306CEA71CB1A642202FB03F39DF84DE09F
:101A30009DF84E2085F808E0400601F101016A7228
:101A400093FBF1F3AB7241D4236C9A0663D4236CFD
:101A5000580700F18780236C9A0700F1A180236C5E
:101A6000D80700F1BB80236CDA0600F1D58013485B
:101A7000FFF7FCFA772311482B60FFF7BDFD0F48F5
:101A8000FFF740FD0028B1D099F80430322BADD1DA
:101A90000A48FFF7F7FAA9E7001002405C040020AB
:101AA00000004842B00400200028004074040020D8
:101AB00001032116B00C002000040040AC0B0020F4
:101AC000EC0C002000007A44F00C0020336C8DF800
:101AD00018B05906B8D54146706804F043FA00289A
:101AE000B2D19DF81830012BAED113A9706804F063
:101AF00049FA042213999E4800F0BEFA0422149970
:101B00009C4800F0B9FA042215999B4800F0B4FAF9
:101B1000236C9A069BD5336C00229B068DF8182007
:101B200095D54146B06804F0B9F800288FD19DF8EA
:101B30001830012B8BD113A9B06804F0BFF8042230
:101B400013998E4800F098FA042214998C4800F0FA
:101B500093FA8C481599042200F08EFA236C5807EA
:101B60007FF579AF336C002259078DF818207FF587
:101B700072AF4146306904F047F900287FF46BAF3B
:101B80009DF81830012B7FF466AF13A9306904F07B
:101B900043F97D4B13981860236C9A077FF55FAF6C
:101BA000336C00229B078DF818207FF558AF414613
:101BB000F06804F0C3FB00287FF451AF9DF81830A3
:101BC000012B7FF44CAF13A9F06804F0BFFB6F4BFF
:101BD00013981860236CD8077FF545AF336C00224B
:101BE000D9078DF818207FF53EAF4146706904F0A3
:101BF00079FA00287FF437AF9DF81830012B7FF475
:101C000032AF13A9706904F07DFA614B1398186024
:101C1000236CDA067FF52BAF336C0022DB068DF8E0
:101C20004C2000F18580D4ED117A236DF8EEE76A3F
:101C3000D4ED127AB8EEE77AD4ED137AF8EEE77ABB
:101C400086EE886A03EB83039B0040460993C7EE48
:101C5000086A87EE887A8DED066ACDED076A8DED0C
:101C6000087AFFF7AFFB13A8FFF7AEFB03A94948BB
:101C7000FFF7B2FB9DED130AFFF726FC0422014695
:101C8000454800F0F9F99DED140AFFF71DFC042208
:101C90000146424800F0F0F99DED150AFFF714FCEB
:101CA000042201463E4800F0E7F99DED160A3D4842
:101CB00000F0ECF99DED170A3B4800F0E7F99DEDC7
:101CC000180A3A4800F0E2F99DED190A384800F088
:101CD000DDF99DED1A0A374800F0D8F99DED1B0A91
:101CE000354800F0D3F99DED1C0A344800F0CEF9D8
:101CF0009DED1D0A324800F0C9F99DED1E0A3148DC
:101D000000F0C4F903993048042200F0B5F90499B1
:101D10002E48042200F0B0F905992D48042200F065
:101D2000ABF904229DF87C102A4800F0A5F99EE644
:101D300013A9306803F0DAFE00287FF474AF9DF831
:101D40004C30012B7FF46FAF1249306803F0D6FEA0
:101D5000716C2148042200F08FF9B16C1F480422F5
:101D600000F08AF90422F16C1D4800F085F95AE769
:101D7000DB0B0020DF0B0020E30B0020CF0B00204B
:101D8000D30B0020D70B0020BF0B0020BB0B002083
:101D9000B70B0020A0040020E70B0020EB0B002075
:101DA000EF0B0020F30B0020F70B0020FB0B0020B3
:101DB000FF0B0020030C0020070C00200B0C002060
:101DC0000F0C0020130C0020170C00201B0C00200F
:101DD0001F0C0020230C0020C30B0020C70B002089
:101DE000CB0B002000B587B000238DF804008DF8E0
:101DF00005108DF8062001A91A4606488DF807300F
:101E000002930493059302F051F900B1FEE707B085
:101E10005DF804FB74040020FEE700BF704700BFBC
:101E20000268064B9A4200D07047054B012283F8A6
:101E30003C201A6D01321A65704700BF0004004053
:101E40005C0400200A68F0B5074642B30022104641
:101E5000CD1C4FF0F10C4FF0F20E09E0F12B1BD12D
:101E60002370637002260B680130834232440FD91D
:101E700015F8013FF02B07EB0204EFD107F802C081
:101E800084F801E00B680130022683423244EFD827
:101E9000501CF023BB54F0BD01262370E3E7012062
:101EA000F7E700BFF12802D0107001207047F12938
:101EB00003D0F22904D0002070471170022070472F
:101EC000F0231370022070470268002A5CD0F0B53E
:101ED000141FA408531E0134042B4FEA840550D963
:101EE00000273E4600F1040E5EF8043B03F07F310C
:101EF0006FEA030CC1F180310CF080334B4003F0EA
:101F00007F310137734006F07F3603F080330E4493
:101F1000BC4286EA0306E7D8C6F307233344C6F378
:101F200007441C4404EB166395422946DBB223D0D8
:101F300045184C1C2D799442A3EB0503DBB21BD250
:101F400005198C1C2D79A242A3EB0503DBB213D932
:101F50000519CC1C2D79A242A3EB0503DBB20BD9EA
:101F60000444043124798A42A3EB0403DBB203D98D
:101F7000014409795B1ADBB2511C02441371016000
:101F8000F0BD00210B46D3E7134602440121137133
:101F9000016070470168F0B500295CD00D1FAD08E5
:101FA0004F1E0135062F4FEA850251D900263346D0
:101FB00000F1040C5CF8044B013604F07F3E5C40F9
:101FC00003F07F3304F080347344AE4283EA0403A9
:101FD000F0D3C3F307241D19C3F307442C4404EBC7
:101FE00013639142DBB22DD08518541C2D798C429D
:101FF0002B44DBB226D20519941C2D79A1422B4427
:10200000DBB21FD90519D41C2D79A1422B44DBB2B8
:1020100018D90519141D2D79A1422B44DBB211D911
:102020000519541D2D79A1422B44DBB20AD9044471
:102030000632247991422344DBB203D90244127957
:102040001344DBB2B3FA83F35B0907601846F0BDB3
:1020500000221346C8E701234FF0FF37F5E700BF22
:1020600001394318425C29B113F8011D984201EB74
:102070000222F9D11046704732B1024400F8011B28
:1020800090424FEA2121F9D1704700BF82B002ABE4
:1020900023ED010A02461868106002B0704700BFC5
:1020A000284B00B59A6D42F080529A659B6DB5B091
:1020B00003F080530093009B00F050FF224B1B68FD
:1020C0000C2133BB012201A80B93069301910392CB
:1020D00001F00AF898BB4FF400324FF4807312A855
:1020E0001292339301F06CFD08B1FFF795FE154A8B
:1020F000D2F8903043F40043C2F890300F21002210
:10210000292000F005F9292000F03AF935B05DF8F2
:1021100004FB0023012201A801910B930393069273
:1021200000F0E2FF20B94FF400324FF40073D6E71D
:10213000FFF772FE4FF400324FF40073CFE7FFF762
:102140006BFEC8E700100240B004002002680E4B8E
:102150009A4200D0704703F5033300B59A6D42F000
:1021600002029A659B6D83B003F002030193002283
:102170000F211D20019B00F0CBF81D2000F000F97D
:1021800003B05DF804FB00BF00040040704700BFCF
:10219000FEE700BF00F09CB8014802F037BD00BF69
:1021A000B00C00204FF4005000F0E0BA70B5161EDD
:1021B00007DD0C468D19AFF3008004F8010BA54232
:1021C000F9D1304670BD00BF70B5161E07DD0C4654
:1021D0008D1914F8010BAFF30080A542F9D13046F8
:1021E00070BD00BF0A4A08B5136873B11844694648
:1021F000884202D81060184608BD0FF005FB0C237A
:1022000003604FF0FF33184608BD024B1360EDE743
:10221000B4040020141500204FF0FF30704700BFB9
:102220004FF400534B600020704700BF01207047FF
:1022300000207047DFF834D0002103E00C4B5B58DE
:10224000435004310B480C4B42189A42F6D30B4AC8
:1022500002E0002342F8043B094B9A42F9D303F011
:1022600037F90FF0D7FAFFF7F7FAFEE70080012001
:10227000802C0108000000204004002040040020C1
:1022800014150020FEE70000704700BF084B094A04
:102290001B6810B5A2FB03230446980900F07CF8E4
:1022A000214600224FF0FF3000F032F8002010BD30
:1022B00034000020D34D621008B5032000F016F85A
:1022C0000F20FFF7E3FFFFF7DFFF002008BD00BF8F
:1022D000024A136801331360704700BFF40C0020FA
:1022E000014B1868704700BFF40C0020074AD16802
:1022F0004FF6FF030B40000243F0BF6300F4E060C1
:1023000043F400330343D360704700BF00ED00E0A7
:10231000194BDB68C3F3022330B4C3F10705042D66
:1023200003F1040428BF0425062C18D9033B01241B
:102330009C40013C22400124AC40013C214001FA78
:1023400003F3002842EA03020CDB00F1604000F5D1
:1023500061401201D2B280F8002330BC70470022E5
:102360001346E8E7054B00F00F0012010344D2B218
:102370001A7630BC704700BF00ED00E0FCEC00E0D6
:1023800000F01F0101234009024A8B4042F820302F
:10239000704700BF00E100E00138B0F1807F0ED24D
:1023A000084B10B4084C5860F02084F82300002239
:1023B000072110469A6019605DF8044B70470120B0
:1023C000704700BF10E000E000ED00E0002851D0B1
:1023D000F0B5324A04689442034641D9304A314943
:1023E000DFF8D0E02244A1FB0212120992009F689C
:1023F000DD681E695869C3F840E002213D4383F857
:10240000251035439969DE695A6405430D432068F8
:102410002E431D6A20F47F51354321F030012943BA
:10242000B7F5804F21600FD01F498E4524D01F493A
:102430000F200C68904024EA000008605C6808687F
:1024400004FA02F202430A6000200122D863D86233
:1024500018635863986383F8240083F82520F0BD3F
:10246000134A1049DFF840E02244A1FB021212098E
:102470009200BCE701207047D1F8A8400F2090409F
:1024800024EA0000C1F8A8005C68D1F8A80004FAAA
:1024900002F20243C1F8A820D6E700BF07040240B9
:1024A000F8FBFDBFCDCCCCCC00000240A80402401C
:1024B000F8FFFDBF00040240F0B590F82440012C65
:1024C0000CD090F825400125E4B2AC4280F82450AD
:1024D00006D0002380F824300220F0BD0220F0BD99
:1024E00005680227002680F82570C6632E68076CF1
:1024F00026F0010E466CC5F800E0B44086687C60AA
:102500006B60036B102E0BBFAA60A960E960EA60E4
:102510004BB12B6843F00E032B602B6843F0010393
:102520002B600020F0BD2B6823F004032B602B6888
:1025300043F00A032B60F0E78C460968002900F09D
:1025400003812DE9F04FDFF820E283B0002588E019
:102550004FEA45080323D0F8009003FA08F3DB4361
:1025600004F0030A09EA03090AFA08FB013F4BEAEF
:102570000909012FC0F8009040F2A780BAF1030FBB
:1025800000F0BB80C768DCF808203B4002FA08F284
:102590001343C360E30060D56C4B6C4A1B6E43F081
:1025A00001031366136E25F0030202F1804203F06B
:1025B000010302F58032019305F00303019FD2F875
:1025C000089098460F279B009F40B0F1904F29EA52
:1025D000070900F09F805E4FB84200F09D805D4F7C
:1025E000B84200F09D805C4FB84200F09E805B4F87
:1025F000B84200F09F805A4FB84200F0A080594F77
:10260000B8420CBF4FF006084FF0070808FA03F372
:1026100043EA09039360DEF80030F243E7034CBF5E
:1026200033431340CEF80030DEF80430A7034CBF2C
:1026300033431340CEF80430DEF80830E7024CBFD5
:1026400033431340CEF80830DEF80C30A40254BFF8
:1026500002EA03061E43CEF80C60013531FA05F399
:1026600055D0012303FA05F212EA0106F5D0DCF891
:10267000044024F01007022F7FF46AAF4FEAD50A16
:1026800000EB8A0A05F00709DAF82030DCF8107050
:102690004FEA89094FF00F0808FA09F823EA0808F9
:1026A00007FA09F343EA0803CAF820304FEA45085D
:1026B0000323076803FA08F3DB4304F0030A1F400F
:1026C0000AFA08F949EA07070760876807EA030971
:1026D000DCF80C7007FA08F747EA090787604768D3
:1026E000C4F3001927EA020709FA05F949EA0707BE
:1026F000BAF1030F47607FF445AFC76AC4F3C0095E
:1027000027EA02024F46AF403A43C2623AE703B0BB
:10271000BDE8F08F00237BE7012707FA03F377E793
:102720004FF0020808FA03F372E74FF0030808FAC3
:1027300003F36DE74FF0040808FA03F368E74FF07E
:10274000050808FA03F363E7704700BF0010024072
:102750000004004800080048000C00480010004831
:10276000001400480018004800040140044A516960
:10277000014200D1704708B55061FFF74FFB08BD1B
:102780000004014070B504460D4616466B1C2268D5
:1027900028D19369980728D49369D906F9D5936904
:1027A0009D06FCD510212023D161D3619369980740
:1027B00044BF002393629369D90703D4936943F01C
:1027C0000103936151681F4B04250B402020002119
:1027D0005360656484F8401084F8410084F8421026
:1027E000012070BD93699B0701D5002070BD9369DE
:1027F000D90619D425B1FFF773FD801B8542C5D2D8
:10280000636C202100220B43636484F8402084F829
:102810004110032084F8422070BD4DB1FFF760FDE8
:10282000801B854204D3226893699B06F5D5B9E7DE
:102830000023202284F8412084F8403084F842307C
:10284000012070BD00E800FE70B5044616460D4636
:1028500029B93BE0FFF744FD801B85423DD3226848
:102860009369980646D49369D906F3D5681C22D19A
:1028700093699906FCD510212023D161D361936916
:10288000980744BF002393629369D90703D49369DF
:1028900043F00103936151681D4B04250B40202038
:1028A00000215360656484F8401084F8410084F886
:1028B0004210012070BD93699B06DCD4E5B1FFF79F
:1028C0000FFD801B854217D32268CFE7026893690A
:1028D0009B061BD49369DB06C8D4636C20210022BD
:1028E0000B43636484F8402084F84110032084F88B
:1028F000422070BD002070BD0023202284F84120BA
:1029000084F8403084F84230012070BD084670BD24
:1029100000E800FE2DE9F041D0F800E0294CDEF897
:102920000470069E3C40C1F3090144F400541F4664
:102930002143DBB241EA03419046CEF80410079AE6
:1029400031460546FFF71EFF60B9012F044610D03F
:102950002B684FEA18229A623146079A2846FFF7F9
:1029600011FF30B16B6C042B1FD003242046BDE84F
:10297000F08129685FFA88F38B62731C07D18B6939
:1029800003F04003002BFAD02046BDE8F0818B69AC
:1029900003F04003002BE9D15EB1FFF7A1FC079BD8
:1029A000C01A864205D32968E7E701242046BDE81E
:1029B000F0810023202285F8412085F8403085F8F9
:1029C0004230D2E7009800FC2DE9F84307682B4C11
:1029D000D7F804E0089E0EEA040444F08074C1F3C2
:1029E000090144F400540C43D9B244EA014491462D
:1029F0007C60099A314605469846FFF7C3FE68B9E0
:102A0000B8F1010F044610D02B684FEA19229A62E0
:102A10003146099A2846FFF7B5FE30B16B6C042B9E
:102A20001FD003242046BDE8F88329685FFA89F3A4
:102A30008B62731C07D18B6903F08003002BFAD0E3
:102A40002046BDE8F8838B6903F08003002BE9D1B1
:102A50005EB1FFF745FC099BC01A864205D3296881
:102A6000E7E701242046BDE8F8830023202285F80B
:102A7000412085F8403085F84230D2E7009800FCCC
:102A8000704700BF002850D0F8B590F84130044698
:102A900003F0FF02002B3FD02368E068242284F873
:102AA00041201968626821F0010122F0706219600A
:102AB0001A619A68012822F400429A60A26830D014
:102AC00042F4044202289A6004BF4FF400625A6044
:102AD00058686169256A2269A769E66940F0007053
:102AE00040F400405860D8680A4342EA072246EAA8
:102AF000050120F40040D860DA60196019680022EE
:102B000041F00101202519601046626484F84150AB
:102B1000226384F84220F8BD80F84020FFF7B0FF20
:102B2000BAE742F400429A60D2E70120704700BF42
:102B3000704700BFB0B10268242310B580F841305F
:102B4000136823F0010304461360FFF7F1FF00232D
:102B5000636484F8403084F841301846236384F875
:102B6000423010BD012070472DE9F04790F84140F8
:102B700082B0202CBDF82C5003D0022002B0BDE85A
:102B8000F0870A9C002C40D0002D3ED090F84040A9
:102B9000012CF2D01F46012380F8403016468846AB
:102BA0000446FFF79DFB814605E0FFF799FBC9EB63
:102BB000000019282BD82368986900F400400028E9
:102BC000F3D10A9B6362212040214FF0000A0C9B45
:102BD0000093CDF804903B4684F84100324684F8D7
:102BE0004210C4F834A0C4F844A04146658520468C
:102BF000FFF7EAFEA0B1636C84F840A0042B04D078
:102C00000320BBE7636C042BFAD10120B6E7002355
:102C1000202284F8412084F8403084F84230EFE7E5
:102C2000638D9BB2FF2B67D92268474B51680B40DD
:102C300043F0FF73C8F3090843F4803348EA030301
:102C4000FF2121855360FF2503E0638D9BB2002B9C
:102C500064D04A460C992046FFF794FD0028D1D154
:102C6000626A2168238D501C606212788A62628DCC
:102C7000013B013A92B29BB262852385002BE4D1DD
:102C8000638D9BB2002BE0D00C9B013314D18B6978
:102C900003F08003002BFAD0638D9BB2FF2B1CD96D
:102CA0004A68294B2585134043F0FF7343F4803372
:102CB00048EA03034B60C8E78B6903F08003002BED
:102CC000EAD10C9B002BA2D0FFF70AFB0C9BC9EBAF
:102CD000000083429BD32168D7E7628D1A4B486876
:102CE00092B2034043F00073D0B243EA004348EA93
:102CF000030322854B60A8E72168628D124B486868
:102D000092B2034043F00073D0B2C8F3090843EA1B
:102D1000004348EA030322854B6094E74A460C9936
:102D20002046FFF791FD00287FF46CAF2368074A27
:102D30002021D9615D682A405A6084F8411084F8E6
:102D4000400084F8420019E7009800FC00E800FE0B
:102D50002DE9F04790F8414082B0202CBDF82C506E
:102D600003D0022002B0BDE8F0870A9C002C48D0B6
:102D7000002D46D090F84040012CF2D09946012316
:102D800080F8403017460E460446FFF7A9FA804601
:102D900005E0FFF7A5FAC8EB0000192841D8236821
:102DA000986900F400400028F3D10A9B6362222056
:102DB00040214FF0000A0C9B0093CDF804804B4655
:102DC00084F841003A4684F84210C4F834A0C4F8AC
:102DD00044A0314665852046FFF79CFD58B3636CDF
:102DE00084F840A0042B0CD00320BBE742460C998A
:102DF0002046FFF729FD002800F09980636C042B22
:102E0000F2D10120AEE7936903F08003002B5FD17C
:102E10000C9B33B1FFF764FA0C9BC8EB00008342B4
:102E20004ED20023202284F8412084F8403084F8D8
:102E30004230032096E7638D22689BB2FF2B64D952
:102E40005168424B0B4043F0FF73C6F3090643F44D
:102E500092333343FF21218553600C9BFF250133BF
:102E60001CD1936903F00403002BFAD0636A526A01
:102E7000591C61621A70238D628D013B013A9BB22D
:102E800092B22385628513B9638D9BB2BBB9638D02
:102E90009BB2002BAAD022680C9BE0E7936903F059
:102EA0000403002BE2D10C9B002BBAD0FFF718FAD9
:102EB0000C9BC8EB00008342B3D32268CFE70C9B86
:102EC000226801339FD1936903F08003002BFAD06D
:102ED000638D9BB2FF2B0AD951681C4B25850B4093
:102EE00043F0FF7343F4803333435360CFE7618D86
:102EF000164B506889B2034043F00073C8B243EAEE
:102F00000043334321855360C1E7618D0F4B506807
:102F1000034089B243F00073C8B243F41053C6F3C0
:102F2000090643EA004333432185536095E723684C
:102F3000074A2021D9615D682A405A6084F841100F
:102F400084F8400084F842000CE700BF009800FCC1
:102F500000E800FE90F84100704700BF024A136885
:102F600043F480731360704700700040024B186890
:102F700000F4C060704700BF00700040564B9A6874
:102F800012F00C0F10B421D09A6802F00C020C2A37
:102F900017D0514A936803F00C03042B00F084808F
:102FA000936803F00C03082B00F092800020044685
:102FB00049498A6802F00C020C2A24D05DF8044BBF
:102FC0007047DB6803F00303012BE2D1424B1A6820
:102FD00012074CD51B68F02292FAA2F2B2FA82F2E2
:102FE00003F0F003D3403D493B4A51F82340926837
:102FF000394912F00C0F8A6802F00C020CBF20460F
:1030000000200C2ADAD1C868CA68702393FAA3F3A7
:1030100002F07002B3FA83F322FA03F300F0030222
:10302000022A03F1010342D0032A2CD0CA684FF4CC
:10303000FE4090FAA0F0B0FA80F002F4FE42C240E6
:10304000B4FBF3F303FB02F3234A4FF0C060D268F2
:1030500090FAA0F0B0FA80F002F0C06222FA00F01C
:10306000013040005DF8044BB3FBF0F07047D3F83B
:1030700094304FF4706292FAA2F2B2FA82F203F440
:103080007063D340AFE7CA684FF4FE4090FAA0F0F7
:1030900002F4FE42B0FA80F022FA00F0104AB2FBCD
:1030A000F3F303FB00F3CFE70E48002480E7CA6880
:1030B0004FF4FE4090FAA0F002F4FE42B0FA80F025
:1030C00022FA00F0074AB2FBF3F303FB00F3BBE77D
:1030D000034800246CE700BF00100240542601089A
:1030E00000127A000024F4002DE9F0410368DC06A8
:1030F00084B0054664D5B24B9A6812F00C0F40F0CC
:1031000052811B68980703D5AB69002B00F0D8816A
:10311000AB4B2C6A1A68AA4E110756BFD3F89430ED
:103120001B681B0903F0F003A34280F09981B36D83
:10313000DA0040F15382FFF719FFB0F5007F00F08D
:103140009882802C00F2778200F0E082A4F1700473
:10315000B4FA84F464099B4A136823F007032343F9
:103160001360136803F007039C4240F0A981944B5D
:103170001A6842F008021A6019682A6A21F0F00100
:103180000A431A605A68E96922F47F4242EA01223E
:103190005A60FFF7F3FE8A4B0146F0229B6892FAD1
:1031A000A2F2B2FA82F203F0F003D3408648874AD3
:1031B000C35C0F2021FA03F31360FFF767F82B6855
:1031C000D9072FD57E498A6802F00C02082A00F040
:1031D00093818A6802F00C020C2A00F087816B68E8
:1031E000B3F5803F00F09281B3F5A02F00F0168276
:1031F000734C226822F480322260226822F48022FA
:103200002260002B40F08781FFF76AF8064605E050
:10321000FFF766F8801B642800F2B88123689F03DB
:10322000F6D42B689E0732D565498A6802F00C02F5
:10323000042A00F084818A6802F00C020C2A00F053
:103240007881EB685E4C002B00F03E81236843F4EC
:1032500080732360FFF744F8064605E0FFF740F867
:10326000801B022800F292812368554A5805F5D543
:1032700051684FF0F85393FAA3F32869B3FA83F334
:1032800021F0F85100FA03F30B4353602B681A073F
:1032900019D56B694A4C002B00F0CD80D4F89430DE
:1032A00043F00103C4F89430FFF71AF8064605E02E
:1032B000FFF716F8801B022800F26881D4F89430DA
:1032C0009B07F5D52B685E073ED53D4B9A6DD40024
:1032D00000F160819A6D42F080529A659B6D03F017
:1032E00080530193019B0126394C2368D80540F196
:1032F0003D81AB68012B00F0AD81052B00F04C81C6
:103300002F4CD4F8902022F00102C4F89020D4F879
:10331000902022F00402C4F89020002B40F0498154
:10332000FEF7DEFF41F28837804606E0FEF7D8FF61
:10333000C8EB0000B84200F22981D4F890309B0716
:10334000F4D4002E40F08081AA6A42B31C4B9968E5
:1033500001F00C010C2900F0B380022A1A6822F057
:1033600080721A6000F08C811A68110103D41A6807
:10337000920040F16481124CE36823F0887323F4D7
:103380008033E360FEF7ACFF054605E0FEF7A8FFDB
:10339000401B022800F2FA8023689B01F6D400202B
:1033A00004B0BDE8F0818269002A30D01A6842F08A
:1033B00001021A601C46FEF793FF064610E000BFAC
:1033C0000010024000200240842601083400002042
:1033D00000700040FEF784FF801B022800F2D680B8
:1033E0002368AA4A9F07F5D5136843F008031360C2
:1033F00011682B6A21F0F0010B4313605368E969EF
:1034000023F47F4343EA012353602B68D8E61A680C
:1034100022F001021A601C46FEF762FF064605E034
:10342000FEF75EFF801B022800F2B0802368980739
:10343000F6D42B68C4E6D4F8943023F00103C4F822
:103440009430FEF74DFF064605E0FEF749FF801B6E
:10345000022800F29B80D4F894309F07F5D431E71E
:10346000336843F008033360336823F0F0032343E9
:1034700033607368EA6923F47F4343EA022373608D
:10348000B36DDB0040F1BA80FFF770FDB0F5007F4F
:1034900000F0E880802C00F2D08000F03981A4F1A7
:1034A0007004B4FA84F46409794A136823F00703BA
:1034B00023431360136803F007039C423FF469AE93
:1034C000012004B0BDE8F081236823F480732360F9
:1034D000FEF706FF064604E0FEF702FF801B022807
:1034E00054D823685905F7D42B68D0E6CA6802F08F
:1034F0000302032A7FF473AE644A126892037FF5D5
:1035000091AE6A68002A7FF48DAED9E75F4A1368EE
:1035100043F480331360FEF7E3FE5C4C064604E0A0
:10352000FEF7DEFE801B642830D823689B03F7D5A6
:1035300077E6CA6802F00302022A7FF482AE534A99
:103540001268540502D5EA68002AB9D04F4C4FF0F2
:10355000F852616892FAA2F22869B2FA82F221F076
:10356000F85100FA02F20A43626090E6236843F4DD
:1035700080732360FEF7B4FE07462368D9053FF544
:10358000B8AEFEF7ADFEC01B0228F6D9032004B08A
:10359000BDE8F0810026A7E63C4BD3F8902042F02E
:1035A0000402C3F89020D3F8902042F00102C3F83F
:1035B0009020FEF795FE354C804641F2883705E0B5
:1035C000FEF78EFEC8EB0000B842DFD8D4F890308A
:1035D0009A07F5D5002E3FF4B7AE35E0B36D43F052
:1035E0008053B365B36D03F080530293029BFFF7E2
:1035F000BDFCB36D23F08053B3659EE5B36D43F01E
:103600008053B365B36D03F080530393039BFFF7BF
:10361000ADFCB36D23F08053B36537E703F180430E
:10362000A3F53C331A6842F480221A601A6842F407
:1036300080321A606FE703248DE5032434E7DA68EB
:1036400022F00302DA6096E6104A936D23F080536D
:10365000936579E60D4AD2F8903043F00103C2F841
:103660009030A6E7802C4DD9A12C34BF0124022430
:103670001AE7802C48D9A12C34BF012402246AE522
:103680001C46FEF72DFE06460AE000BF0010024071
:1036900000200240FEF724FE801B02283FF676AF92
:1036A00023681C4A9F01F5D405F12C03C8CBAC6BF1
:1036B000E86B296C43EA0723751E43EA05132409C6
:1036C000400843EA44430138490843EA405301397A
:1036D00043EA4163D360136843F080731360D36897
:1036E00043F08073D3601446FEF7FAFD054605E00B
:1036F000FEF7F6FD401B02283FF648AF236898010D
:10370000F6D54CE60024CFE6002424E5022422E589
:103710000224C9E6001002405B4A136803F0070365
:103720008B422DE9F0410CD2136823F007030B43C1
:103730001360136803F00703994202D00120BDE82B
:10374000F08103689A0706D5504D8268AC6824F072
:10375000F0042243AA60DB0706460C4628D54368DE
:103760004A4A022B126800F08780032B7ED0002B80
:1037700040F086809007E1D5444DAA6822F003020C
:103780001343AB60FEF7ACFD7368022B074641F2B2
:1037900088384FD0032B63D0002B56D104E0FEF7BE
:1037A0009FFDC01B404564D8AB6813F00C0FF6D1E9
:1037B000354A136803F007039C4209D2136823F0CB
:1037C000070323431360136803F007039C42B5D13A
:1037D00033685A0706D52D48F268816821F4E06104
:1037E0000A4382601B0707D5284A3169936823F48E
:1037F000605343EAC1039360FFF7C0FB234B0146CC
:10380000F0229B6892FAA2F2B2FA82F203F0F0037D
:10381000D3401F481F4AC35C0F2021FA03F31360F3
:10382000FEF734FD0020BDE8F081FEF759FDC01B16
:1038300040451ED8AB6803F00C03082BF5D1B7E761
:10384000FEF74EFDC01B404513D8AB6803F00C03D8
:10385000042BF5D1ACE7FEF743FDC01B404508D86B
:10386000AB6803F00C030C2BF5D1A1E7950183D4D1
:1038700064E70320BDE8F08197033FF57DAF5DE786
:1038800051057FF55BAF77E7002002400010024052
:103890008426010834000020084B4FF4E0629B6846
:1038A00092FAA2F2B2FA82F203F4E063D34004493E
:1038B000044ACB5C1068D840704700BF001002403B
:1038C0009426010834000020084B4FF460529B6896
:1038D00092FAA2F2B2FA82F203F46053D34004499E
:1038E000044ACB5C1068D840704700BF001002400B
:1038F00094260108340000205C4AF8B5D3689B0781
:1039000007D0D368046803F00303A3420DD001205D
:10391000F8BD0368022B18D0032B71D0012BF6D110
:103920001268970714D41846F8BD002BEFD0D3685F
:10393000702292FAA2F2B2FA82F203F07003D3403C
:10394000426801339342E2D111E012685605DED598
:10395000464E7024F56894FAA4F44268B4FA84F4EC
:1039600025F07305013A2B43A2401343F3603F4C0B
:10397000236823F0806323600F460546FEF7B0FC02
:10398000064604E0FEF7ACFC801B022836D823680C
:10399000364A1901F6D4002F39D113694FF4FE418C
:1039A00091FAA1F14FF40036B1FA81F496FAA6F635
:1039B000E868A968B6FA86F6000923F41F33B04018
:1039C000A14023F4407301430B431361274C236848
:1039D00043F080632360FEF783FC064604E0FEF7B5
:1039E0007FFC801B022809D82368204A1B01F6D5DA
:1039F000AB6911690B4313610020F8BD0320F8BDCA
:103A00001468A503A4D41268540380D5A0E7012F3D
:103A100013694FF4FE4017D090FAA0F04FF0C06643
:103A2000B0FA80F496FAA6F66969A8684908B6FA69
:103A300086F6013923F0C063B140A04023F4FE4371
:103A400001430B431361C1E790FAA0F04FF4C006A5
:103A5000B0FA80F496FAA6F62969A8684908B6FA79
:103A600086F6013923F4C003E6E700BF00100240E8
:103A7000524AF8B5D3689B0707D0D368046803F0AF
:103A80000303A3420DD00120F8BD0368022B18D018
:103A9000032B71D0012BF6D11268970714D4184666
:103AA000F8BD002BEFD0D368702292FAA2F2B2FADE
:103AB00082F203F07003D340426801339342E2D1B3
:103AC00011E012685605DED53C4E7024F56894FA74
:103AD000A4F44268B4FA84F425F07305013A2B4348
:103AE000A2401343F360354C236823F080532360D6
:103AF0000F460546FEF7F4FB064604E0FEF7F0FB32
:103B0000801B022836D823682C4A9900F6D4002F4F
:103B100039D153694FF4FE4191FAA1F14FF40036C7
:103B2000B1FA81F496FAA6F6E868A968B6FA86F6BC
:103B3000000923F41F33B040A14023F44073014334
:103B40000B4353611D4C236843F080532360FEF701
:103B5000C7FB064604E0FEF7C3FB801B022809D81A
:103B60002368164A9B00F6D56B6951690B43536174
:103B70000020F8BD0320F8BD1468A503A4D4126882
:103B8000540380D5A0E753694FF4FE4090FAA0F0AB
:103B90004FF0C066B0FA80F496FAA6F62969A868D4
:103BA0004908B6FA86F6013923F0C063B140A04057
:103BB00023F4FE4301430B435361C3E7001002406B
:103BC0002DE9F043036813F4006683B0044617D070
:103BD000416EB1F5800F00F0B88140F2CF81B1F5B0
:103BE000000F00F09981B1F5400F40F0D681C34835
:103BF000D0F8882022F440021143C0F88810002633
:103C0000D80440F10081A16EB1F1807F00F0958170
:103C100040F2BA81B1F1007F00F08481B1F1407FC0
:103C200040F0F0803746002F40F08581B348A26E07
:103C3000D0F8881021F040710A439903C0F8882019
:103C400000F1E580DA0708D5AC48A26BD0F88810FF
:103C500021F003010A43C0F888209F0708D5A74830
:103C6000E26BD0F8881021F00C010A43C0F88820DC
:103C70005D0708D5A148226CD0F8881021F03001EA
:103C80000A43C0F88820180708D59C48626CD0F811
:103C9000881021F0C0010A43C0F88820D90608D551
:103CA0009648A26CD0F8881021F440710A43C0F8FD
:103CB00088209A0608D59148E26CD0F8881021F443
:103CC00040610A43C0F888209F0508D58B48E26D03
:103CD000D0F8881021F440210A43C0F888205D05FF
:103CE00008D58648226ED0F8881021F440110A4386
:103CF000C0F88820580608D58048226DD0F8881072
:103D000021F440510A43C0F88820190608D57B48A1
:103D1000626DD0F8881021F440410A43C0F8882031
:103D2000DA0508D57548A26DD0F8881021F4403125
:103D30000A43C0F888209F0410D57048E16ED0F87F
:103D4000882022F040620A43B1F1006FC0F8882059
:103D500000F0D880B1F1806F00F026811D0310D5EE
:103D60006648216FD0F8882022F040620A43B1F102
:103D7000006FC0F8882000F0CA80B1F1806F00F0B9
:103D80002381580310D55D48616FD0F8882022F058
:103D900040620A43B1F1006FC0F8882000F0A880AB
:103DA000B1F1806F00F00881590410D55348A16F1C
:103DB000D0F8882022F040520A43B1F1805FC0F869
:103DC000882000F0CA80B1F1005F00F0CE801A04B4
:103DD00008D54A48E26FD0F8881021F080410A43A4
:103DE000C0F88820DB0309D54449D4F88020D1F8F5
:103DF000883023F000431343C1F88830304603B0C5
:103E0000BDE8F0830126374699037FF51BAF3B4B96
:103E10009A6DD20056D54FF00008394D2B6843F407
:103E200080732B60FEF75CFA814605E0FEF758FAD6
:103E3000C9EB0000022851D82B68DB05F6D5002F0E
:103E400040F0D2802D4AD2F8903013F440732AD03B
:103E5000D4F884108B4200F0BF80D2F89030D2F8B2
:103E6000900040F48030C2F89000D2F8900023F423
:103E7000407320F48030C2F89000C2F89030D80728
:103E800040F18D80FEF72CFA1C4D814641F28837B7
:103E900005E0FEF725FAC9EB0000B8421ED8D5F8B8
:103EA00090309907F5D5D4F884301449D1F8902092
:103EB00022F440721343C1F89030B8F1000F11D1D1
:103EC0002368BFE69A6D42F080529A659B6D03F0BD
:103ED00080530193019B4FF001089EE70326B8F140
:103EE000000FEDD0054A936D23F080539365E7E70B
:103EF000C26842F48012C26056E700BF0010024060
:103F000000700040C26842F48012C26026E7C268B6
:103F100042F48012C26034E73448C26842F480320E
:103F2000C26064E63149CA68374642F48032CA60EA
:103F3000002F3FF47BAE3E4666E7002104F12000EF
:103F4000FFF796FD236807466DE600212030FFF756
:103F50008FFD06462EB3236852E60221201DFFF78F
:103F6000CBFC48B10646236831E7022104F120006A
:103F7000FFF77EFD0028F5D1236828E769B90430F2
:103F8000FFF7BAFC0646E5E700297FF43BAF201DAA
:103F9000FFF7B2FC2368074645E6012630E60B46EC
:103FA00083E7616E236822E60121201DFFF7A4FC50
:103FB000A0B106462368D1E60121201DFFF79CFC35
:103FC00070B106462368EFE60121201DFFF794FC3F
:103FD00040B106462368D4E60B4650E72368BDE6A9
:103FE0002368E1E62368CCE63E4666E7001002401F
:103FF000002859D0F8B590F82130044603F0FF02AC
:10400000002B4CD02368CA215322022084F82100BF
:1040100059625A62DA68510629D59A682569A169F8
:104020006668E068A76822F4E00222F040029A6025
:104030009A6832432A430A439A6018611869616991
:10404000E26940EA07401861D86820F08000D86033
:10405000D86C20F00300D864D86C02430A43FF25D3
:104060000121DA6400205D6284F82110F8BD4FF070
:10407000FF32DA60FEF734F905462368DA68520643
:10408000CBD4FEF72DF9401BB0F57A7FF5D9226825
:10409000FF2104235162012084F82130F8BD80F80B
:1040A0002020FDF7FDFFADE7012070472DE9F84323
:1040B00090F82030012B00F086800124022380F844
:1040C000204080F821300468002A3ED0A7684E784E
:1040D0000B7817F0400516BFCF78CD703D044FEA3E
:1040E00006268F7808BF046846EA03433B4343EA49
:1040F0000507CA22532362626362E3685A06884650
:10410000064663D507F07F3323F0FE432360A168A2
:10411000D8F80C30D8F8102021F48021A160A168D3
:104120000B431343A360E36823F08003E360A368B9
:104130009B0668D50023FF2101226162184686F89C
:10414000212086F82030BDE8F883A6680B7816F0A9
:10415000400615BFCE78CE7036040468092B65D9A9
:1041600000220A3BDBB2092B02F10102F9D84FEA27
:10417000021E5FFA8EFE4A7843EA0E03092A4FEACE
:10418000034E4FF0000507D90A3AD2B2092A05F1C9
:104190000105F9D82D01EDB28B782A43092B4FEA9E
:1041A00002254FF0000707D90A3BDBB2092B07F1C4
:1041B0000107F9D83F01FFB24EEA06022A433B430A
:1041C00042EA030795E70220BDE8F8834FF0FF338A
:1041D000E360FEF785F881463468E36813F0400534
:1041E00090D1FEF77DF8C9EB0000B0F57A7FF3D9E6
:1041F0003268FF2104235162012086F8205086F89E
:104200002130BDE8F883E36823F0A003E360FEF704
:1042100067F807463468E36813F020058AD1FEF793
:104220005FF8C01BB0F57A7FF4D9E1E74FF0000EDC
:10423000A1E700BF0368F0B59D6A1C691B684D606B
:1042400003F07F3323F0FE43180CC3F30627C4F3B7
:104250000E04DBB200F0400E00F03F068C6081F8E7
:1042600003E00E704F708B70BAB93D091C09360916
:1042700006EB860605EB850504EB840400F00F00D1
:1042800007F00F0703F00F0300EB460007EB4505AF
:1042900003EB440408704D708C700020F0BD00BF2B
:1042A000F8B590F82030012B65D00124022380F866
:1042B000204080F8213042B34A78CB788D780C7852
:1042C000110241EA03422A4342EA44340368CA2104
:1042D000532259625A62DA68510607464DD524F0D6
:1042E0007F4424F0C0045C60DA6822F08002DA6067
:1042F0009A68920662D50022FF200121586210467A
:1043000087F8211087F82020F8BD4B78DC064FD4C1
:10431000CA78092A4FF0000407D90A3AD2B2092A0A
:1043200004F10104F9D82401E4B22243092B4FEA35
:1043300002425FD900240A3BDBB2092B04F10104DD
:10434000F9D82501EDB28C782B43092C4FEA0325CF
:104350004FF0000607D90A3CE4B2092C06F1010629
:10436000F9D83601F6B20B7842EA433242EA050345
:1043700034431C43AAE70220F8BD4FF0FF32DA6055
:10438000FDF7AEFF06463B68DA6812F04005A6D19D
:10439000FDF7A6FF801BB0F57A7FF4D93A68FF21BC
:1043A00004235162012087F8205087F82130F8BD9E
:1043B00023F010030A33DBB24B70A9E7DA6822F06E
:1043C000A002DA60FDF78CFF05463B68DA6812F060
:1043D000200490D1FDF784FF401BB0F57A7FF4D91B
:1043E0003A68FF2104235162012087F8204087F8B2
:1043F0002130F8BD0025A6E703685B6823F07F4302
:1044000023F0C003F0B4C3F30725DEB2C3F3423791
:1044100005F01F001B0C0F704870CB708E70BAB97E
:10442000000934091A09870004EB840405F00F051C
:1044300006F00F06384402EB820203F00F0306EB8E
:10444000440405EB400003EB42038C704870CB70D2
:104450000020F0BC704700BF00286CD090F83930C5
:1044600070B503F0FF020446002B4FD02368334998
:10447000022284F839208B421A684CD0B3F1804F65
:1044800026D0A1F594318B4222D001F580618B4278
:104490001ED001F580618B421AD001F594318B4218
:1044A00016D001F540618B4216D001F580618B4238
:1044B00012D001F580618B420ED0E06861681A600D
:1044C000D862996201225A61002084F8392070BDB7
:1044D000A16822F070020A4321691948E6686568FC
:1044E00022F44072114383421960DE629D620AD059
:1044F000144A934207D002F58062934203D002F53A
:1045000080629342DED162691A63DBE780F838206B
:10451000FDF71CFEAAE7A168206922F07002114392
:1045200021F4407101431960E268DA6262689A62BC
:1045300062691A63C6E70120704700BF002C014082
:1045400000340140004001400368DA6842F0010293
:10455000DA601A6842F001021A600020704700BF5A
:10456000704700BF00286CD090F8393070B503F068
:10457000FF020446002B4FD023683349022284F8FF
:1045800039208B421A684CD0B3F1804F26D0A1F568
:1045900094318B4222D001F580618B421ED001F50F
:1045A00080618B421AD001F594318B4216D001F50F
:1045B00040618B4216D001F580618B4212D001F52B
:1045C00080618B420ED0E06861681A60D86299629F
:1045D00001225A61002084F8392070BDA16822F0C0
:1045E00070020A4321691948E668656822F440723E
:1045F000114383421960DE629D620AD0144A9342DD
:1046000007D002F58062934203D002F580629342A4
:10461000DED162691A63DBE780F83820FFF7A0FF7C
:10462000AAE7A168206922F07002114321F44071C9
:1046300001431960E268DA6262689A6262691A6329
:10464000C6E70120704700BF002C01400034014044
:104650000040014003680122186A02FA01F120EAD1
:10466000010010B418621A6A104C1143A342196277
:1046700016D00F4A934213D002F5406293420FD0F6
:1046800002F5806293420BD002F58062934207D01C
:104690001A685DF8044B42F0010200201A6070476E
:1046A0005A6C42F400425A64F2E700BF002C014009
:1046B00000340140036801201A6A00FA01F110B4C5
:1046C00022EA01021B4C1A621A6A1A62A34220D023
:1046D000194A93421DD002F54062934219D002F567
:1046E0008062934215D002F58062934211D0196A1C
:1046F00041F211120A4042B9196A40F244420A409A
:104700001AB91A6822F001021A6000205DF8044B01
:104710007047196A41F211120A40002AE7D1196A5A
:1047200040F244420A40002AE1D15A6C22F400428D
:104730005A64DCE7002C01400034014090F8383026
:10474000012B5AD0F0B50223012480F8384080F8BC
:104750003930142A49D8DFE812F0860048004800B2
:104760004800B800480048004800EB0048004800F6
:10477000480015004800480048001801480048005B
:104780004800520003688F681D6A0E68DFF8D8E29F
:1047900025F480551D621D6AD3F804C0DC6924F03D
:1047A000807222F4E64225F40054734544EA07344B
:1047B00042EA062200F02381AA4DAB4200F01F819D
:1047C00005F54065AB4200F01A8105F58065AB4206
:1047D00000F0158105F58065AB4200F01081496855
:1047E000C3F804C0DA6119641C620023012280F856
:1047F000392080F838301846F0BD02207047036831
:104800008F681D6A0E68DFF860E225F480151D626E
:104810001D6AD3F804C05C6D24F0807222F4E0427B
:1048200025F40014734544EA075442EA062200F0D6
:10483000DA808C4DAB4200F0D68005F54065AB4286
:1048400000F0D18005F58065AB4200F0CC8005F525
:104850008065AB4200F0C7804968C3F804C05A6560
:10486000D9651C62C1E70368D1F808E01D6A0E68CB
:104870007D4F25F001051D621A6A5D689C6924F46C
:10488000803422F0020224F07304BB4242EA0E029A
:1048900044EA060400F0D980724EB34200F0D5809D
:1048A00006F54066B34200F0D08006F58066B3425C
:1048B00000F0CB8006F58066B34200F0C680496800
:1048C0005D609C6159631A628FE70368D1F808C084
:1048D0001D6AD1F800E0644F25F010051D621D6AC5
:1048E0005E689C6924F0807222F4E64225F0200480
:1048F000BB4244EA0C1442EA0E2200F09680594D65
:10490000AB4200F0928005F54065AB4200F0948028
:1049100005F58065AB4200F08F8005F58065AB4200
:1049200000F08A8049685E609A6199631C625CE766
:1049300003688F681D6A0E68DFF82CE125F4807526
:104940001D621C6A5D68DA6922F4803224F4007406
:1049500022F07302734544EA072442EA060254D067
:10496000404EB34251D006F54066B34254D006F5EE
:104970008066B34250D006F58066B3424CD0496899
:104980005D60DA61D9631C622FE703688E681C6A78
:104990000D68354F24F480341C621A6AD3F804E0A1
:1049A0005C6D24F4803422F4003224F07004BB42A5
:1049B00042EA064244EA05041BD02A4DAB4218D015
:1049C00005F54065AB4214D005F58065AB4210D0CB
:1049D00005F58065AB420CD04968C3F804E05C651E
:1049E00099651A6201E74D692CF4802C4CEA852CFC
:1049F00032E74D692EF4803E4EEA052EECE74D6914
:104A00002CF4804C4CEA851CE9E6CE6824F4006462
:104A100044EA062424F480644E698F6925F44055E5
:104A200045EA061545EA0715A9E7CD6824F0800494
:104A300044EA051424F040044F698D6926F4406669
:104A400046EA870646EA85066CE7CE684F6922F09B
:104A5000080232438E6925F440753E4322F0040279
:104A600035432CE700340140002C014090F83830E9
:104A7000012B40D00222036870B480F839209D6871
:104A80000C685D4A402C02EA05024FF0010580F8EF
:104A900038509A6079D018D9702C62D02DD9B4F5DD
:104AA000805F57D0B4F5005F1CD19C688A684D6860
:104AB000CE682A4324F47F410A4342EA06229A60E0
:104AC0009A6842F480429A600CE0102C32D038D9B7
:104AD000202C72D0302C05D19A6822F0700242F05E
:104AE00037029A600023012280F8392080F838309C
:104AF00070BC1846704702207047502C64D0602C60
:104B0000F0D11C6A4D68CE6824F010041C629969CB
:104B10001A6A21F4704122F0A00242EA051241EA29
:104B2000063199611A629A6822F0700242F06702B7
:104B30009A60D7E79A6822F0700242F017029A60F2
:104B4000D0E7002CCED19A6822F0700242F0070222
:104B50009A60C7E79A6822F4803222F007029A60CE
:104B6000C0E79C688A684D68CE682A4324F47F4178
:104B70000A4342EA06229A609A6822F4803222F0BE
:104B8000770242F077029A60ACE71A6A1C6A4E68B4
:104B9000CD6824F001041C62996922F00A0221F018
:104BA000F001324341EA051199611A629A6822F0D4
:104BB000700242F047029A6094E79A6822F070020D
:104BC00042F027029A608DE71A6A1C6A4E68CD6827
:104BD00024F001041C62996922F00A0221F0F0011C
:104BE000324341EA051199611A629A6822F0700213
:104BF00042F057029A6075E78800FEFF704700BFD9
:104C0000704700BF704700BF704700BF03681A6954
:104C1000910710B5044602D5DA68920762D41A6982
:104C2000500702D5DA68510749D41A69120702D52C
:104C3000DA68100731D41A69D20602D5DA68D006CC
:104C400018D41A69D10702D5DA68D2076BD41A6969
:104C5000100602D5DA6811066DD41A69520602D51B
:104C6000DA68500657D41A69910602D5DA689206B6
:104C700049D410BD6FF010021A61DB69082213F4E9
:104C8000407F2276204661D1FFF7B8FF2046FFF72C
:104C9000B9FF002223682276D3E76FF008021A6179
:104CA000DB69042299072276204655D1FFF7A6FF3B
:104CB0002046FFF7A7FF002223682276BBE76FF0AC
:104CC00004021A619B69022213F4407F2276204677
:104CD0003FD1FFF793FF2046FFF794FF00222368A0
:104CE0002276A2E76FF002021A619B6901229B07FC
:104CF000027628D1FFF782FF2046FFF783FF0022CC
:104D0000236822768BE76FF0200220461A61BDE807
:104D1000104000F04FB86FF040021A612046FFF7D4
:104D200073FF23689FE76FF001021A612046FDF7C9
:104D300077F823688BE76FF080021A61204600F055
:104D40003BF8236889E7FFF75BFFD8E7FFF758FFD9
:104D50009FE7FFF755FFC1E7FFF752FFABE700BF43
:104D600090F83830012B1BD0036870B4104CA3426C
:104D7000024658689E6815D004F50064A34211D01D
:104D80000D688C6820F0700026F0800128432143D4
:104D9000002458602046996082F8384070BC704703
:104DA000022070474C6820F470002043E8E700BF01
:104DB000002C0140704700BF704700BF704700BF24
:104DC000F0B50E4690F86910202983B002D0022079
:104DD00003B0F0BD8EB382B31D4690F86830012B4E
:104DE0000446F4D0002001212123E06684F86810F5
:104DF00084F869300192FDF773FA019AA4F8502003
:104E000007462068A4F85220B4F852309BB20BB386
:104E1000B4F85230013B9BB2A4F852306A1C27D13F
:104E2000C26902F08002002AFAD0A368B3F5805F5D
:104E30003CD0337803850136E6E70120C8E7C36933
:104E400003F040036BB9FDB1FDF74AFAC01B854280
:104E5000206819D36B1CF2D1C36903F04003002B07
:104E6000FAD02023002084F8693084F86800AFE786
:104E7000C36903F08003002BD7D12DB1FDF730FAC1
:104E8000C01B85422068C9D2036823F4D073036035
:104E90008368202223F001030021836084F86920C5
:104EA000032084F8681084F86A2091E72369002BB6
:104EB000BFD136F8023BC3F308030385A4E700BF64
:104EC000F8B590F86A40202C01D00220F8BD0029E6
:104ED00030D0002A2ED090F86830012BF5D004464F
:104EE0000127406E144E84F868700025134622276F
:104EF0000A4621686265A4F85830E56684F86A704D
:104F00000E4FC6620E4E8563076346632431FDF77C
:104F1000D3FA236884F868501A6842F480721A60E1
:104F20009A6842F001029A609A6842F0400228466C
:104F30009A60F8BD0120F8BD494F0008854F000870
:104F4000954F0008704700BF08B50368806A1B686A
:104F500013F0200311D10268A0F85A30136823F42B
:104F600080731360936823F001039360936820219A
:104F700023F04003936080F86A10FFF7E3FF08BD59
:104F8000704700BF08B5806AFFF7FAFF08BD00BF91
:104F9000704700BF806A08B590F86930212B1DD09A
:104FA00090F86A30222B06D0C36E43F01003C3661C
:104FB000FFF7EEFF08BD03689A685206F4D5002299
:104FC000A0F85A201A6822F490721A609A68202178
:104FD00022F001029A6080F86A10E5E703689A6897
:104FE0001106DDD50022A0F852201A68202122F0F7
:104FF000C0021A6080F86910D2E700BF436ADA077E
:1050000010B406D50468826A616821F400310A434D
:1050100062609C0706D50468C26A616821F4803129
:105020000A436260590706D50468026B616821F47F
:1050300080210A4362601A0706D50468426B6168E2
:1050400021F400410A436260DC0606D50468826BE5
:10505000A16821F480510A43A260990606D504682C
:10506000C26BA16821F400510A43A2605A0609D517
:105070000168046C4A6822F480122243B4F5801F50
:105080004A600BD01B0606D50168826C4B6823F47E
:10509000002313434B605DF8044B70474C68426C2F
:1050A00024F4C00422434A60ECE700BF002800F06B
:1050B0003381F8B590F86930044603F0FF02002B05
:1050C0003DD02568A76822696169E069242384F8D6
:1050D00069302E68BE4B26F001062E602E683A43DA
:1050E0000A433340024313432B606968E268B94BBB
:1050F000A66921F440510A439D426A6000F0BA80DB
:10510000AA68236AB44922F43062334313438D42C0
:10511000AB6000F0DE80B14B9D4200F0C581B04B2A
:105120009D4211D0AF4B9D4200F0F880AE4B9D42A6
:1051300033D0B0F5004F00F0AD810120F8BD80F80C
:105140006820FFF73BFEBCE703F5E433D3F8883073
:1051500003F03003102B00F00C812AD9202B00F033
:105160000E81302BE5D1B0F5004F40F0168162681A
:10517000530803F58033B3FBF2F3C3F3420223F089
:105180000F0313439BB20022EB60002AD5D1636A60
:105190001BB32046FFF732FF1FE003F5E033D3F8DF
:1051A000883003F44073B3F5807F00F0E28000F2B2
:1051B0000781002BBDD1B0F5004F02D1FEF76CFB8B
:1051C000F6E0FEF769FB636800EB5300B0FBF3F316
:1051D0009BB2EB60636A002BDBD123685A6822F430
:1051E00090425A609A6822F02A029A601A68002156
:1051F00042F001021A60E166FDF772F823681A684E
:10520000110705460BD41A68520726D42023002024
:1052100084F8693084F8680084F86A30F8BDDA6987
:1052200002F40012002AEED1FDF75AF8401BB0F14B
:10523000007F2368F3D31A6822F4D0721A609A6848
:10524000202122F0010200259A60032084F86910D1
:1052500084F8685084F86A10F8BDDB6903F48003B1
:10526000002BD3D1FDF73CF8401BB0F1007F236841
:10527000F3D3E0E7AB685D4A23F430633343AB60BC
:10528000D2F8885005F44065B5F5806F00F00581CF
:1052900040F2F780B5F5006F00F0AF80B5F5406FD4
:1052A0007FF44BAF08254FF40040626802EB4203E5
:1052B00083423FF642AFB0EB023F3FF63EAF082DD0
:1052C00000F2DD80DFE805F0C3DBB7DB9CDBDBDB76
:1052D000C600464B464AD3F8883003F00303D35C3C
:1052E000B0F5004F2AD1082B00F2D48001A252F869
:1052F00023F000BFBD510008AD5300086D540008F5
:1053000095540008F553000895540008955400087A
:10531000955400086F5100080120704703F5E233EF
:10532000D3F8883003F0C003402B22D07FF641AF82
:10533000802B24D0C02B3FF416AFFAE6082B3FF6A3
:10534000FCAE01A252F823F0C35100086D530008CF
:10535000855300083B510008795300083B51000871
:105360003B5100083B5100089B530008FEF7ACFA84
:1053700029E7B0F5004F3DD0FDF700FE23E7B0F57B
:10538000004F73D061684A0802F5740303F51053A7
:10539000B3FBF1F39BB2EB601CE76268530803F5C3
:1053A0000043B3FBF2F39BB2EB6013E7FEF78CFA1A
:1053B000636825685A0802EB4000B0FBF3F3DCE6B3
:1053C000B3F5007FDBD0B3F5407F3FF4CCAEB0E661
:1053D000F369FFEF008000400038014000440040C6
:1053E00000480040004C00400050004000100240C7
:1053F00040260108FDF7C2FDDAE702252F4854E7F1
:10540000FDF7BCFD62684FF4807356080027E3FB8C
:105410000067304639460023FBF79CFC0022284BEE
:10542000A0F5407199423FF688AE2368D860002A03
:105430003FF4ADAE81E623485308C0184FF0000199
:1054400041F100010023FBF785FC0022E7E7FEF7AE
:1054500023FAD7E7500810F500004FF0000141F1A2
:1054600000010023FBF776FC0022D8E761684A08B8
:1054700002F1F47303F59043B3FBF1F37DE60122EF
:10548000CDE7002D7FF459AEFEF706FA00287FF431
:105490000CAF9FE60023012276E6FDF76FFD0425A1
:1054A00000287FF402AF95E6074B084AD3F888300E
:1054B00003F00C0313441B7912E700BF0024F4002F
:1054C000FFFC0F00000024F40010024040260108F9
:1054D0001149124BD1F8882042F4700210B4C1F87F
:1054E00088201A68002042F001021A6098601A6849
:1054F00022F0A85222F410224FF480541A60DC608B
:105500001A684FF0006422F480221A6098618C605F
:105510005DF8044B704700BF00ED00E00010024052
:10552000F0B52A4C89B02046FDF714FD38B1274864
:10553000FDF710FD203818BF012009B0F0BD244D43
:10554000244B2360EB6C244A626043F00203EB645B
:10555000EB6C03F002030193332201234FF44071FB
:105560000646A260E3600222042303911B48DDF893
:1055700004E0069203A91227079305960497FCF707
:10558000DBFFAB6D43F40013AB65AB6D03F40013AD
:105590000293029BAB6B43F40013AB63AB6B23F43E
:1055A0000013AB63324631461F20FCF7B1FE1F20CB
:1055B000FCF7E6FE324631462020FCF7A9FE20200B
:1055C000FCF7DEFE2046FDF75DFAB0E7BC040020E4
:1055D00000100240005400403A14D110000400486A
:1055E000F0B52A4C89B02046FDF7B4FC38B1274805
:1055F000FDF7B0FC203818BF012009B0F0BD244DE4
:10560000244B2360EB6C244A626043F00203EB649A
:10561000EB6C03F002030193332201234FF440713A
:105620000646A260E3600222042303911B48DDF8D2
:1056300004E0069203A91227079305960497FCF746
:105640007BFFAB6D43F40013AB65AB6D03F400134C
:105650000293029BAB6B43F40013AB63AB6B23F47D
:105660000013AB63324631461F20FCF751FE1F206A
:10567000FCF786FE324631462020FCF749FE20200A
:10568000FCF77EFE2046FDF7FDF9B0E7BC040020E4
:1056900000100240005400403A14D11000040048A9
:1056A0002DE9F041204D214EEB6C214F43F00203D8
:1056B000EB64EB6C8CB003F0020300244FF00208A3
:1056C00000933046202302A90293009A0397CDF855
:1056D00014800494FCF730FF224621461720FCF783
:1056E00017FE1720FCF74CFEEB6C43EA0803EB6453
:1056F000EB6C089703EA080301933046102307A9CF
:105700000793019ACDF828800994FCF715FF2246EB
:1057100021460A20FCF7FCFD0A20FCF731FE20465A
:105720000CB0BDE8F08100BF00100240000400484A
:1057300000001110114B1249DA6C124830B542F0DA
:105740000202DA64DB6C87B003F0020300240093EA
:10575000029102234FF4806201A904930192009DFB
:105760000394FCF7E9FE224621462820FCF7D0FDF1
:105770002820FCF705FE204607B030BD001002408F
:1057800000001110000400482DE9F0470F46017891
:10579000402984B0054690461E463BD038D9B129F1
:1057A00022D18BB300244FF4805A4FF0010901E05D
:1057B000B44229D008EB04033A19A9781848009399
:1057C000CDF808A0CDF80490D2B20123FDF7CCF9B2
:1057D00001340028ECD01248FDF7ACF9FFF7A0FE29
:1057E000012004B0BDE8F087BC2913D04FF48053EA
:1057F000A9780B4802930196CDF800803A46012320
:10580000FDF7B2F90028E6D1002004B0BDE8F0872A
:105810003329EBD1012E88BF47F08007E6E700BFB0
:10582000BC0400202DE9F0470F460178402984B0E0
:10583000054690461E463BD038D9B12922D18BB3BC
:1058400000244FF4805A4FF0010901E0B44229D0FE
:1058500008EB04033A19A97818480093CDF808A07A
:10586000CDF80490D2B20123FDF772FA013400287A
:10587000ECD01248FDF75EF9FFF752FE012004B0AC
:10588000BDE8F087BC2913D04FF48053A9780B48AA
:1058900002930196CDF800803A460123FDF758FAAD
:1058A0000028E6D1002004B0BDE8F0873329EBD111
:1058B000012E88BF47F08007E6E700BFBC04002048
:1058C000F8B500250F460D600646724C002800F022
:1058D000978001282FD1637E012B00F08F80FFF786
:1058E0007FFE012800F08A8023466B4A43F8402F50
:1058F0004FF0330C4FF0320E04F13001674A6575FA
:1059000004F1140026766576A576E676236384F89E
:1059100014C084F816E0226265626563E161386054
:10592000236A1B68002B00F09F809847012800F035
:1059300093800020F8BD6379012B2DD0FFF750FE36
:10594000012829D02346564A43F8382F4FF06A0ED3
:10595000A362D626534B544A6570012004F12801F6
:1059600025716571A57184F800E0A670E071E260B0
:105970002361E562A1603C60E3681B68002B00F0D6
:10598000828020469847012862D13B681D605D6097
:105990009D60DD601D613D60637E3E4D012B2DD01D
:1059A000FFF71EFE012829D02B463B4A43F8402F23
:1059B00032200026A87501222B634FF0330E374B9F
:1059C00085F814E005F1300105F114006E756E766E
:1059D000AE762A76EA762B626E626E63E961386093
:1059E0002B6A1B68002B3FD098470128A1D13B6848
:1059F0001E605E609E60DE601E613E600120F8BD3C
:105A00006379012BFAD0FFF7EBFD0128F6D023468E
:105A1000234A43F8382F4FF06A0EA362D625214B54
:105A2000214A6670012004F1280126716671A67171
:105A300084F800E0A570E071E2602361E662A16095
:105A40003C60E3681B68BBB1204698470128CED074
:105A5000FFF726FE0020F8BD3B681D605D609D607D
:105A6000DD601D613D60C9E70023636143608360C1
:105A7000C36003613B60C1E723606360A360E360D0
:105A800023613B60BAE723606360A360E360236146
:105A90003B6081E708050020040D00208C010020F8
:105AA000080D0020000300207402002060B108B53A
:105AB000C3689B6833B19847A0F10100B0FA80F049
:105AC000400908BD012008BD0120704760B108B53C
:105AD000C368DB6833B19847A0F10100B0FA80F0E9
