:020000040800F2
:10000000280F002001BF0008DDBE0008DFBE000889
:1000100025BF000829BF00082DBF00080000000010
:1000200000000000000000000000000031BF0008D8
:10003000E1BE00080000000035BF0008E3BE000874
:1000400039BF00083DBF000841BF000845BF000898
:1000500049BF00084DBF000851BF000855BF000848
:1000600059BF00085DBF000861BF000865BF0008F8
:1000700069BF00086DBF000871BF000875BF0008A8
:1000800079BF00087DBF000881BF000800000000A4
:1000900000000000000000000000000085BF000814
:1000A00089BF00088DBF000891BF000895BF0008F8
:1000B00099BF00089DBF0008A1BF0008A5BF0008A8
:1000C000A9BF0008ADBF0008B1BF0008B5BF000858
:1000D000B9BF0008BDBF0008C1BF00080000000094
:1000E000E7BE0008C5BF0008C9BF00080000000047
:1000F000000000000000000000000000CDBF00086C
:1001000000000000D1BF0008D5BF0008D9BF00081B
:1001100000000000000000000000000000000000DF
:10012000DDBF0008E1BF0008E5BF0008E9BF000827
:10013000EDBF00080000000000000000000000000B
:10014000000000000000000000000000F1BF0008F7
:10015000F5BF0008F9BF0008FDBF000801C0000896
:1001600005C0000809C000080000000000000000F1
:10017000000000000000000000000000000000007F
:10018000000000000DC0000800000000000000009A
:1001900011C0000870B5044682B0A06806683568D2
:1001A00000208DF800006946204602F0F9F800B3FF
:1001B0009DF80000217888421BD10421204602F0DE
:1001C00057FBB0B14021204602F0F6F888B100217B
:1001D000204602F0D1FA60B1DFF8FC09706000211E
:1001E000204602F05BF920B10021204602F003F91D
:1001F00010B9012002B070BD01202870607102B0FA
:10020000002070BD70B5044682B0A06805682E68F5
:1002100000208DF800006946204602F0C1F8002851
:1002200000F0CC809DF800002178884240F0C68024
:100230000021204602F0D6FF002800F0BF800021F8
:10024000204603F089F8002800F0B88000212046FD
:1002500002F0C5FD002800F0B1800021204602F028
:100260002DFF002800F0AA800021204602F007FFA1
:10027000002800F0A3800021204602F075FF00282E
:1002800000F09C800021204603F028F8002800F0B0
:1002900095800021204602F0A2FD002800F08E800B
:1002A0000021204602F0D8FD002800F087800021C0
:1002B000204602F0BEFA002800F08080002120468F
:1002C00002F071FB002879D00021204602F08AFB61
:1002D000002873D00021204603F0C9F800286DD013
:1002E0000021204602F0BCFF002867D000212046F4
:1002F00003F070F8002861D00021204602F06FFD65
:1003000000285BD00021204602F088FD002855D04F
:100310000021204602F0BFFD00284FD000212046DA
:1003200002F0D7FD002849D00021204602F0FAFC57
:10033000002843D00021204602F013FD00283DD0C4
:100340000021204602F02CFD002837D00021204655
:1003500002F029FF002831D00021204602F0DDFF05
:1003600060B30021204602F03AFD38B30021204658
:1003700002F054FD10B30021204602F08CFDE8B1DC
:100380000021204602F0A5FDC0B10021204602F068
:10039000BEFD98B10021204602F0F7FD70B10021AA
:1003A000204602F0BFFC48B10021204602F0D9FCF3
:1003B00020B10021204602F0F3FC10B9012002B068
:1003C00070BD0021204602F0B0FE0028F6D00021CA
:1003D000204602F064FF0028F0D00021204602F001
:1003E000C3FA0028EAD00021204602F0FBFA0028D8
:1003F000E4D00021204602F014FF0028DED00021C6
:10040000204602F0C8FF0028D8D00021204602F084
:10041000E6FC0028D2D00021204602F012FE00287F
:10042000CCD00021204602F092FD0028C6D0A07951
:1004300078B1A0680068011D204600F0AFF90128DE
:10044000BCD00021204602F029F80028B6D00020B8
:10045000A071002068603070607102B070BD000053
:1004600010B50446A07901285CD0A068006890ED22
:10047000010ADFED9B0AB4EE600AF1EE10FA48BF04
:10048000102147D4DFED970AB4EE600AF1EE10FABE
:1004900048BF20213ED4DFED940AB4EE600AF1EEAD
:1004A00010FA48BF302135D4DFED900AB4EE600A6F
:1004B000F1EE10FA48BF40212CD4DFED8D0AB4EEE6
:1004C000600AF1EE10FA48BF502123D4DFEDAF0AE5
:1004D000B4EE600AF1EE10FA48BF60211AD4DFEDE5
:1004E000AC0AB4EE600AF1EE10FA48BF702111D4E4
:1004F000DFEDA80AB4EE600AF1EE10FA48BF8021E1
:1005000008D4DFEDA50AB4EE600AF1EE10FA4CBF94
:100510009021A021204601F0C1FF08B9012010BDA3
:100520000120A071002010BD30B5044681B0A07933
:1005300000284ED0A0680068051D6946204601F0DD
:10054000CCFF002840D09DF80000002830D01028B3
:100550002CD0202827D0302822D040281DD0502849
:1005600018D0602813D070280ED0802809D0902889
:1005700004D0A02825D1DFF89C0719E0DFF86C062D
:1005800016E0DFF8640613E0DFF8580610E0DFF845
:1005900050060DE0DFF844060AE0DFF83C0607E00D
:1005A000DFF8300604E0DFF8240B01E0DFF8200B71
:1005B00028600021204601F071FF40B9012001B000
:1005C00030BDDFF8100B2860012001B030BD0020E5
:1005D000A07101B030BD00B581B001F0E1FE401E58
:1005E0008041C00F01B000BD10B582B004460020AC
:1005F0008DF800006946204601F0D2FE20B19DF83A
:1006000000002178884202D0012002B010BD0020F5
:1006100002B010BD2DE9F04184B00C460021CDE9B7
:1006200000118046694601F015FF002854D09DF85E
:1006300001109DF800209DF8040002EB01269DF8B2
:1006400003109DF8022002EB01279DF8051000EB36
:10065000012502A9404601F0EDFE00283CD09DF89E
:1006600008000C2838D8DFE800F010373737073794
:1006700037370D3737370A009FED850A07E09FEDC2
:10068000850A04E09FED840A01E09FED840A36B2FA
:1006900000EE906AF8EEE00A60EE800AFDEEE00AF5
:1006A000C4ED000A3FB200EE907AF8EEE00A60EE88
:1006B000800AFDEEE00AC4ED010A2DB200EE905A68
:1006C000F8EEE00A20EE800ABDEEC00A84ED020AD0
:1006D000002004B0BDE8F081012004B0BDE8F08145
:1006E000010050410100D041010050420100D042C0
:1006F0000100504310B582B00C4669460022C1E9A2
:10070000002201F0A7FE10B9012002B010BD9DF833
:1007100001109DF8002002EB012121809DF80220AC
:100720009DF8031002EB012161809DF804009DF803
:10073000051000EB0120A08002B0002010BD0000D9
:1007400010B582B00C46694601F074FED0B19DF838
:1007500000000C2813D8DFE800F007121212101264
:1007600012120C1212120E004C48206002B000202F
:1007700010BD4948F9E74748F7E74548F5E7DFF88E
:10078000D80A2060012002B010BD00000100D04353
:10079000014050440180CF440120504510B582B043
:1007A0000C46694601F099FE10B9012002B010BD57
:1007B0009DF80000C8B110281BD020281CD030287C
:1007C0001DD040281ED050281FD0602820D070286F
:1007D00021D0802822D0902823D0A02824D0DFF850
:1007E000F408206002B0012010BD206002B000209B
:1007F00010BDDFF8DC08F8E7DFF8D008F5E7DFF830
:10080000D403F2E7DFF8D003EFE7DFF8D003ECE73B
:10081000DFF8CC03E9E7DFF8CC03E6E7DFF8C8034D
:10082000E3E7DFF8C803E0E7DFF8E804DDE700000E
:1008300000B581B08279012A13D104290ED8DFE8EE
:1008400001F0090907050300402104E0302102E01E
:10085000202100E0102101F021FEB0B9012001B0FB
:1008600000BD806800680429F8D8DFE801F00B0BB0
:1008700008060400F2E7D84906E0D64904E0DFF8AC
:100880004C1801E0DFF848184160002001B000BDBD
:1008900023DBF93E23DB793E23DBF93D23DB793D86
:1008A00000B581B081790129DFED8F0A55D1B4EE11
:1008B000600AF1EE10FA48BF102147D4DFED8B0A31
:1008C000B4EE600AF1EE10FA48BF20213ED4DFED0D
:1008D000880AB4EE600AF1EE10FA48BF302135D430
:1008E000DFED840AB4EE600AF1EE10FA48BF402151
:1008F0002CD4DFEDB30AB4EE600AF1EE10FA48BF73
:10090000502123D4DFEDAF0AB4EE600AF1EE10FA05
:1009100048BF60211AD4DFEDAC0AB4EE600AF1EEF4
:1009200010FA48BF702111D4DFEDA80AB4EE600AB6
:10093000F1EE10FA48BF802108D4DFEDA50AB4EE2D
:10094000600AF1EE10FA4CBF9021A02101F0A6FD43
:1009500000285FD1012001B000BD80680068B4EEBE
:10096000600AF1EE10FA48BFB2EE0A0A50D4DFED89
:100970005F0AB4EE600AF1EE10FA48BFB3EE0A0A5D
:1009800046D4DFED5B0AB4EE600AF1EE10FA48BF20
:100990009FED900A3CD4DFED570AB4EE600AF1EE09
:1009A00010FA48BF9FED8C0A32D4DFED850AB4EE11
:1009B000600AF1EE10FA48BF9FED880A28D4DFEDF7
:1009C000810AB4EE600AF1EE10FA48BF9FED840A86
:1009D0001ED4DFED7D0AB4EE600AF1EE10FA48BFD6
:1009E0009FED800A14D4DFED790AB4EE600AF1EECF
:1009F00010FA48BF9FED7C0A0AD4DFED750AB4EE09
:100A0000600AF1EE10FA4CBF9FED780A9FEDC10A23
:100A100080ED010A002001B000BD000010B582B0D9
:100A20000C46694601F006FDF0B19DF800000C2867
:100A300017D8DFE800F007161616131616160D164F
:100A4000161610004FF08040206002B0002010BD4C
:100A50004FF08140F8E74FF08240F5E74FF08340D8
:100A6000F2E7DFF8F4072060012002B010BD0000BB
:100A700000B5042981B010D8DFE801F0030F0B0F97
:100A80000D00002101F0B7FC401E8041C00F01B0F5
:100A900000BD0821F6E70C21F4E7012001B000BDFC
:100AA000DFED9D0A00B5B4EE600AF1EE10FA81B0F8
:100AB00048BF002111D4DFED990AB4EE600AF1EECF
:100AC00010FA48BF082108D4DFEDBD0AB4EE600A71
:100AD000F1EE10FA4CBF0C21042101F08CFC401EF9
:100AE0008041C00F01B000BD010050410100D04164
:100AF000010050420100D04200B581B0012301F055
:100B00003DFC401E8041C00F01B000BD00B581B06A
:100B100001238DF800206A4601F039FC401E804117
:100B2000C00F01B000BD10B582B00C46694602F09E
:100B300028F848B19DF80000002818BF012803D10B
:100B4000207002B0002010BD012002B010BD70B5B1
:100B5000044682B0A0680668356800208DF8000061
:100B60006946204601F01CFC00B39DF80000217886
:100B700088421BD10421204601F07AFEB0B1402109
:100B8000204601F019FC88B10021204601F0F4FD57
:100B900060B1DFF8080870600021204601F001FD17
:100BA00020B10C21204601F0A8FC10B9012002B0B0
:100BB00070BD01206870607102B0002070BD00003F
:100BC000010050430100D043014050440180CF4414
:100BD00001205045000050420000D0420000504328
:100BE0000000D043004050440080CF4400205045D6
:100BF00070B5044682B0A06805682E6800208DF8A4
:100C000000006946204601F0CBFB98B19DF800003A
:100C1000217888420ED1A07988B1A0680068011DB2
:100C2000204600F0CFF9012804D00021204601F031
:100C3000B8FC10B9012002B070BD0020A0710020E6
:100C400068607070607102B070BD000010B504463D
:100C5000A07901285CD0A068006890ED010ADFED62
:100C6000A30AB4EE600AF1EE10FA48BF102147D48F
:100C7000DFED9F0AB4EE600AF1EE10FA48BF2021C2
:100C80003ED4DFED9C0AB4EE600AF1EE10FA48BFE4
:100C9000302135D4DFED980AB4EE600AF1EE10FA97
:100CA00048BF40212CD4DFED950AB4EE600AF1EE86
:100CB00010FA48BF502123D4DFED910AB4EE600A48
:100CC000F1EE10FA48BF60211AD4DFED8E0AB4EEBF
:100CD000600AF1EE10FA48BF702111D4DFED8A0AE4
:100CE000B4EE600AF1EE10FA48BF802108D4DFEDBF
:100CF000B40AB4EE600AF1EE10FA4CBF9021A021C4
:100D0000204601F04EFC08B9012010BD0120A07161
:100D1000002010BD0020D0450100004001008040AF
:100D200030B5044681B0A079002847D0A06800689B
:100D3000051D6946204601F053FC002839D09DF876
:100D40000000002829D0102825D0202820D03028C5
:100D50001BD0402817D0502813D060280FD07028FF
:100D60000BD0802807D0902803D0A0281ED1B448EB
:100D700013E0B44811E0B4480FE0B4480DE0B448C3
:100D80000BE0B44809E0B44807E0DFF84C0304E0A6
:100D9000DFF8380301E0DFF838032860002120463F
:100DA00001F0FFFB40B9012001B030BDDFF8A8041D
:100DB0002860012001B030BD0020A07101B030BD1D
:100DC0000100004100B581B001F0EAFA401E804107
:100DD000C00F01B000BD10B582B0044600208DF8F0
:100DE00000006946204601F0DBFA20B19DF80000C2
:100DF0002178884202D0012002B010BD002002B04C
:100E000010BD00002DE9F04184B080460C4601A8D9
:100E10000021C0E90011404601A901F09DFB002816
:100E200060D001A89DF80420417802EB01269DF8CE
:100E300007108278007902EB01279DF8091000EB7A
:100E400001250DF10101404601F0F9FB002849D0D0
:100E50009DF80100022808BF9FED970A1DD0694642
:100E6000404601F069FB00283CD09DF800000C28AA
:100E700038D8DFE800F0103737370D3737370A3703
:100E8000373707009FED8D0A07E09FED8D0A04E0DC
:100E90009FED8C0A01E09FED8C0A36B200EE906A5D
:100EA000F8EEE00A60EE800AFDEEE00AC4ED000A0A
:100EB0003FB200EE907AF8EEE00A60EE800AFDEEB6
:100EC000E00AC4ED010A2DB200EE905AF8EEE00AF5
:100ED00020EE800ABDEEC00A84ED020A002004B0B4
:100EE000BDE8F081012004B0BDE8F081010050416F
:100EF0000100D041010050420100D04201005043A6
:100F00000100D043014050440180CF4410B582B06D
:100F10000C4669460022C1E9002201F01DFB10B910
:100F2000012002B010BD9DF801109DF8002002EBD9
:100F3000012121809DF802209DF8031002EB012180
:100F400061809DF804009DF8051000EB0120A08051
:100F500002B0002010BD000030B581B00C4605463F
:100F60000DF1010101F06BFB68B19DF80100022851
:100F700004D15148206001B0002030BD69462846A8
:100F800001F0DAFA10B9012001B030BD9DF800007F
:100F90000C2810D8DFE800F0070F0F0F090F0F0F14
:100FA0000B0F0F0F0D004848E4E74648E2E74448BE
:100FB000E0E74248DEE7A848206001B0012030BDEC
:100FC0000120504510B582B00C46694601F008FB7F
:100FD00010B9012002B010BD9DF80000C0B110286A
:100FE0001AD020281AD030281AD040281AD05028D9
:100FF0001AD060281AD070281AD080281AD09028C9
:101000001AD0A0281AD03348206002B0012010BDA9
:10101000206002B0002010BD2D48F9E72B48F7E70B
:101020002D48F5E70C48F3E70A48F1E70848EFE7F1
:101030000648EDE70448EBE70248E9E70048E7E740
:101040000020D045002050450080CF44004050444F
:101050000000D043000050430000D04200B581B0F2
:101060008279012A13D104290ED8DFE801F0090999
:1010700007050300402104E0302102E0202100E0C8
:10108000102101F08EFAA0B9012001B000BD8068E6
:1010900000680429F8D8DFE801F00A0A080604000D
:1010A000F2E7BE4904E00C4902E0084900E00849C3
:1010B0004160002001B000BD00008C4000008C4267
:1010C00000000C4200008C4100000C410000D041A7
:1010D00000005041000080BF0000504200B581B0C8
:1010E00081790129DFED7A0A55D1B4EE600AF1EE7B
:1010F00010FA48BF102147D4DFED9F0AB4EE600A12
:10110000F1EE10FA48BF20213ED4DFED9C0AB4EE88
:10111000600AF1EE10FA48BF302135D4DFED980AAD
:10112000B4EE600AF1EE10FA48BF40212CD4DFED96
:10113000950AB4EE600AF1EE10FA48BF502123D4AC
:10114000DFED910AB4EE600AF1EE10FA48BF6021BB
:101150001AD4DFED8E0AB4EE600AF1EE10FA48BF41
:10116000702111D4DFED8A0AB4EE600AF1EE10FAB4
:1011700048BF802108D4DFED870AB4EE600AF1EEA3
:1011800010FA4CBF9021A02101F00BFA00285FD18A
:10119000012001B000BD80680068B4EE600AF1EE85
:1011A00010FA48BFB2EE0A0A50D4DFED730AB4EE6B
:1011B000600AF1EE10FA48BFB3EE0A0A46D4DFED3A
:1011C0006F0AB4EE600AF1EE10FA48BF9FED720AA2
:1011D0003CD4DFED6B0AB4EE600AF1EE10FA48BFC2
:1011E0009FED6E0A32D4DFED670AB4EE600AF1EECD
:1011F00010FA48BF9FED6A0A28D4DFED630AB4EE07
:10120000600AF1EE10FA48BF9FED660A1ED4DFEDCA
:101210005F0AB4EE600AF1EE10FA48BF9FEDA50A2E
:1012200014D4DFED5B0AB4EE600AF1EE10FA48BFA9
:101230009FEDA10A0AD4DFED570AB4EE600AF1EE81
:1012400010FA4CBF9FED9D0A9FED9D0A80ED010AAB
:10125000002001B000BD0000000080BF30B581B0AB
:101260000C460546694601F0EAF928B10DF1010185
:10127000284601F061F910B9012001B030BD9DF898
:101280000000022805D1DFF8C809206001B0002065
:1012900030BD9DF801000C2814D8DFE800F00713DA
:1012A00013130A1313130D1313131000DFF8A409FB
:1012B000EBE7DFF8A409E8E7DFF8A009E5E7DFF8E6
:1012C000A009E2E7DFF89C09206001B0012030BDF1
:1012D0000100504100B5042981B010D8DFE801F0C9
:1012E000030F0B0F0D00002101F007F9401E804194
:1012F000C00F01B000BD0421F6E70C21F4E7012086
:1013000001B000BD30B5DFED970AB4EE600AF1EE32
:1013100010FA81B0044606D5022101F071F938B304
:10132000002001B030BDDFED900AB4EE600AF1EEAE
:1013300010FA48BF002511D4DFED8C0AB4EE600A24
:10134000F1EE10FA48BF042508D4DFED890AB4EEA7
:10135000600AF1EE10FA4CBF08250C25002101F0BF
:101360004FF928B12946204601F0C7F80028D7D107
:10137000012001B030BD00000100D0410100504209
:101380000100D042010050430100D04301405044CD
:101390000180CF4401205045000050420000D0425F
:1013A000000050430000D04300B581B0012300F09D
:1013B000E5FF401E8041C00F01B000BD00B581B007
:1013C00001238DF800206A4600F0E1FF401E8041B5
:1013D000C00F01B000BD10B582B00C46694601F0E7
:1013E000E0FB48B19DF8000010B1022804D10120B3
:1013F000207002B0002010BD012002B010BD00001E
:10140000DFED5C0A00B5B4EE600AF1EE10FA81B0CF
:1014100048BF102147D4DFED580AB4EE600AF1EE60
:1014200010FA48BF20213ED4DFED540AB4EE600A22
:10143000F1EE10FA48BF302135D4DFED510AB4EE99
:10144000600AF1EE10FA48BF40212CD4DFED4D0ABE
:10145000B4EE600AF1EE10FA48BF502123D4DFED5C
:101460004A0AB4EE600AF1EE10FA48BF60211AD4BD
:10147000DFED460AB4EE600AF1EE10FA48BF7021C3
:1014800011D4DFED430AB4EE600AF1EE10FA48BF62
:10149000802108D4DFED3F0AB4EE600AF1EE10FAC5
:1014A0004CBF9021A02100F0F9FF401E8041C00FE9
:1014B00001B000BD004050440080CF4400205045A2
:1014C0000020D04530B5044681B0A07901280D46F2
:1014D0009FED310A07D12046FFF792FF012806D180
:1014E000012001B030BDA068006880ED010A002134
:1014F000204600F080FF002831D00621204601F070
:10150000DDFD60B30021204601F09BFD38B30021D2
:10151000204601F077FD10B30021204601F054FD74
:10152000E8B10321204601F0AAFDC0B18021204688
:1015300001F055FC98B125B1012D0AD0012001B070
:1015400030BD1021204601F04DFE40B1002001B019
:1015500030BD1021204601F0FFFE0028F6D1012009
:1015600001B030BD0100FA42010075430100FA43A9
:1015700001007A44010050410100D0410100504275
:101580000100D042010050430100D04301405044CB
:101590000180CF44012050450000D04310B50446DF
:1015A000002101F01FFE70B10021204601F0D4FEA1
:1015B00048B10021204601F012FC20B10021204654
:1015C00001F07CFD08B9012010BD0021204601F08A
:1015D00056FD401E8041C00F10BD10B582B00C46B4
:1015E000694601F02EFA48B19DF8000010B120289C
:1015F00004D10120207002B0002010BD012002B0F3
:1016000010BD00B581B001F03AFD401E8041C00F11
:1016100001B000BD10B50446B3EE0A0AA079012856
:1016200005D12046FFF7ECFE012804D110BDA068CB
:10163000006880ED010A0021204600F0DCFE70B158
:101640001721204601F013FF48B10421204601F084
:10165000C9F920B11021204601F0A5F908B90120EF
:1016600010BD8021204601F0E4F8401E8041C00FEB
:1016700010BD10B50446002101F0DBF848B100218F
:10168000204601F090F920B10021204601F0AAF98E
:1016900008B9012010BD0021204601F0E8FE401EDF
:1016A0008041C00F10BD10B582B00C46694601F0F4
:1016B000FAFA48B19DF8000010B1102804D10120B9
:1016C000207002B0002010BD012002B010BD00B596
:1016D00081B001F0B5FE401E8041C00F01B000BDD9
:1016E00000B581B0022101F020F9401E8041C00FF9
:1016F00001B000BD00B581B0002101F016F9401E17
:101700008041C00F01B000BD00B581B001F0AFFE57
:10171000401E8041C00F01B000BD30B5044681B00D
:10172000A07901280D46B3EE0A0A07D12046FFF73B
:1017300067FE012806D1012001B030BDA068006815
:1017400080ED010A0021204600F055FEE8B1042199
:10175000204601F047F9C0B10821204601F004F904
:1017600098B125B1012D0AD0012001B030BD022170
:10177000204601F0DAFC40B1002001B030BD02216A
:10178000204601F08CFD0028F6D1012001B030BDCB
:1017900010B50446002101F0C8FC48B100212046E4
:1017A00001F07DFD20B10021204601F0DDF808B9EF
:1017B000012010BD0021204601F014F9401E804197
:1017C000C00F10BD10B582B00C46694601F07BFA1F
:1017D00048B19DF8000010B1202804D101202070EC
:1017E00002B0002010BD012002B010BD30B504468B
:1017F00081B0A07901280D469FEDBA0A07D1204695
:10180000FFF7FEFD012806D1012001B030BDA06820
:10181000006880ED010A0021204600F0ECFD10B3C5
:101820000021204601F00DFCE8B10221204601F024
:101830008EFBC0B18021204601F0D1FA98B125B1CC
:10184000012D0AD0012001B030BD2021204601F039
:10185000E8FC40B1002001B030BD2021204601F05D
:101860009AFD0028F6D1012001B030BD10B5044624
:10187000002101F0D6FC70B10021204601F08BFD63
:1018800048B10021204601F0AAFA20B100212046EB
:1018900001F0D7FB08B9012010BD0021204601F05E
:1018A00056FB401E8041C00F10BD10B582B00C46E3
:1018B000694601F0B6F848B19DF8000010B108285B
:1018C00004D10120207002B0002010BD012002B020
:1018D00010BD00B581B001F03AFB401E8041C00F41
:1018E00001B000BD30B5044681B0A07901280D4695
:1018F0009FED7C0A07D12046FFF782FD012806D123
:10190000012001B030BDA068006880ED010A00210F
:10191000204600F070FD002837D00821204601F055
:101920003FFA002831D00421204601F01AFA60B3B2
:101930000221204601F0F6F938B30821204601F0D3
:101940006DFA10B30221204601F0A5FAE8B1012199
:10195000204601F0BEFAC0B18021204601F03FFAD6
:1019600098B125B1012D0AD0012001B030BD402130
:10197000204601F075FC40B1002001B030BD40218F
:10198000204601F027FD0028F6D1012001B030BD2E
:1019900010B50446002101F063FC10B3002120467D
:1019A00001F018FDE8B10021204601F018FAC0B19D
:1019B0000021204601F032FA98B10021204601F0C2
:1019C0006AFA70B10021204601F083FA48B1002183
:1019D000204601F0A7F920B10021204601F0C1F90D
:1019E00008B9012010BD0021204601F0D9F9401EA0
:1019F0008041C00F10BD10B582B00C46694601F0A1
:101A000040F848B19DF8000010B1202804D1012011
:101A1000207002B0002010BD012002B010BD0000F7
:101A200030B5044681B0A07901280D469FED2D0AFE
:101A300007D12046FFF7E4FC012806D1012001B0C0
:101A400030BDA068006880ED010A0021204600F04A
:101A5000D2FC002843D00821204601F0A1F900283B
:101A60003DD00421204601F07CF9002837D0022126
:101A7000204601F057F9002831D00821204601F016
:101A8000CDF960B30321204601F005FA38B30321F4
:101A9000204601F01EFA10B30821204601F037FA63
:101AA000E8B18021204601F070FAC0B180212046C3
:101AB00001F095F998B125B1012D0AD0012001B0AE
:101AC00030BD0821204601F06EFB40B1002001B07E
:101AD00030BD0821204601F020FC0028F6D101206D
:101AE00001B030BD0000D04310B50446002101F024
:101AF0005AFB00282CD00021204601F00EFC38B300
:101B00000021204601F06BF910B30021204601F0BE
:101B100085F9E8B10021204601F0BDF9C0B10021EE
:101B2000204601F0D6F998B10021204601F0EFF9E6
:101B300070B10021204601F028FA48B1002120466A
:101B400001F0F0F820B10021204601F00AF908B9AF
:101B5000012010BD0021204601F022F9401E8041E5
:101B6000C00F10BD10B582B00C46694600F079FF79
:101B700048B19DF8000010B1102804D10120207058
:101B800002B0002010BD012002B010BD00B581B030
:101B900001F044F9401E8041C00F01B000BD00B506
:101BA00081B001F078F9401E8041C00F01B000BD46
:101BB00000B581B001F08DF9401E8041C00F01B029
:101BC00000BD00B581B001F0A2F9401E8041C00FF8
:101BD00001B000BD30B5044681B0A07901280D46A2
:101BE0009FED1A0A07D12046FFF70AFC012806D10B
:101BF000012001B030BDA068006880ED010A00211D
:101C0000204600F0F8FBE8B14021204601F024F91D
:101C1000C0B18021204601F0E2F898B125B1012D34
:101C20000AD0012001B030BD0421204601F09CFA09
:101C300040B1002001B030BD0421204601F04EFB30
:101C40000028F6D1012001B030BD00000000D043D3
:101C50000000FA42000075430000FA4300007A4495
:101C60000000FA44000080BF10B50446002101F0D6
:101C70007BFA48B10021204601F030FB20B1002161
:101C8000204601F0ACF808B9012010BD0021204623
:101C900001F0E2F8401E8041C00F10BD10B582B0C7
:101CA0000C46694600F05DFF48B19DF8000010B198
:101CB000402804D10120207002B0002010BD012076
:101CC00002B010BD10B582B00C46694600F0E9FEC6
:101CD00048B19DF80000002818BF012803D12070EA
:101CE00002B0002010BD012002B010BD10B582B0BE
:101CF0000C46694600F0E5FE48B19DF8000010B1C1
:101D0000022804D10120207002B0002010BD012063
:101D100002B010BD10B582B00C46694600F0E1FE7D
:101D200048B19DF8000010B1042804D101202070B2
:101D300002B0002010BD012002B010BD10B582B06D
:101D40000C46694600F0DDFE48B19DF8000010B178
:101D5000082804D10120207002B0002010BD01200D
:101D600002B010BD10B582B00C46694600F0D9FE35
:101D700048B19DF8000010B1102804D10120207056
:101D800002B0002010BD012002B010BD10B582B01D
:101D90000C46694600F0D5FE48B19DF8000010B130
:101DA000202804D10120207002B0002010BD0120A5
:101DB00002B010BD30B583B004460020ADF8040079
:101DC0008DF8060000900D460421284601F090FB96
:101DD000012301AA1B21204600F0D0FA002800F0C0
:101DE000A88001230DF103021C21204600F0C6FA51
:101DF000002800F09E8001230DF106021D212046DF
:101E000000F0BCFA002800F0948001230DF10202DA
:101E10005321204600F0B2FA002800F08A80012306
:101E20000DF101025E21204600F0A8FA002800F022
:101E3000808001236A465F21204600F09FFA002837
:101E400077D001230DF105020D21204600F096FA0E
:101E500000286ED09DF80100C00603D49DF8000054
:101E6000C00607D59DF80400800603D5286840F019
:101E7000010028609DF80100800603D49DF8000051
:101E8000800607D59DF80400000703D5286840F0B8
:101E9000080028609DF80100400603D49DF800006A
:101EA000400607D59DF80300800603D5286840F05A
:101EB000020028609DF80100000703D49DF800008F
:101EC000000707D59DF80300C00603D5286840F039
:101ED000040028609DF80100400703D49DF800002D
:101EE000400707D59DF80600400603D5286840F056
:101EF000400028609DF80500000607D59DF8020007
:101F0000C00603D5286840F0100028609DF8010045
:101F1000800703D49DF80000800707D59DF80200D4
:101F2000800603D5286840F020002860002003B018
:101F300030BD012003B030BDDFED920A00B5B4EE34
:101F4000600AF1EE10FA81B048BF082147D4DFEDF6
:101F5000B40AB4EE600AF1EE10FA48BF10213ED484
:101F6000DFEDB00AB4EE600AF1EE10FA48BF1821B6
:101F700035D4DFEDAD0AB4EE600AF1EE10FA48BFD9
:101F800020212CD4DFEDA90AB4EE600AF1EE10FA9C
:101F900048BF282123D4DFEDA60AB4EE600AF1EE93
:101FA00010FA48BF30211AD4DFEDA20AB4EE600A5D
:101FB000F1EE10FA48BF382111D4DFED9F0AB4EEDC
:101FC000600AF1EE10FA48BF402108D4DFED9B0A09
:101FD000B4EE600AF1EE10FA4CBF4821502100F037
:101FE000EAFB401E8041C00F01B000BD10B582B0B9
:101FF0000C46694600F016FE68B19DF8000020B15D
:10200000202806D0012002B010BD207002B00020B0
:1020100010BD0120F9E7012002B010BD10B582B05B
:102020000C46694600F0EEFD68B19DF8000020B155
:10203000102806D0012002B010BD207002B0002090
:1020400010BD0120F9E7012002B010BD10B582B02B
:102050000C46694600F0F6FD68B19DF8000020B11D
:10206000402806D0012002B010BD207002B0002030
:1020700010BD0120F9E7012002B010BD00B581B00C
:1020800000F0F0FD401E8041C00F01B000BD00B562
:1020900081B001F0BEF9401E8041C00F01B000BD0B
:1020A00000B581B000F08DFD401E8041C00F01B031
:1020B00000BD00B5072981B006D800F0FFFA401E28
:1020C0008041C00F01B000BD012001B000BD00B5CE
:1020D0000A0018BF082981B00BD0102918BF182991
:1020E00007D0202918BF282903D0302918BF382944
:1020F00006D100F003FB401E8041C00F01B000BDBF
:10210000012001B000BD000070B582B00D4604464C
:10211000694601F07EF9002831D09DF801009DF854
:10212000001041EA00260DF10201204600F082F97C
:1021300028B39DF802000C2821D8DFE800F0102019
:102140002020072020200D2020200A009FED3C0A9F
:1021500007E09FED3C0A04E09FED3B0A01E09FEDA4
:102160003B0A36B200EE906AF8EEE00A20EE800AF2
:10217000BDEEC00A85ED000A002002B070BD01204E
:1021800002B070BD0100204170B582B00D4604461A
:102190000DF1020101F03DF900283ED09DF8030049
:1021A0009DF8021041EA00260DF10101204600F0E1
:1021B00046FA002831D09DF80100022808BF9FEDA3
:1021C000240A1CD06946204600F0B6F928B39DF8D1
:1021D00000000C2821D8DFE800F0102020200D207E
:1021E00020200A20202007009FED1A0A07E09FED1B
:1021F0001A0A04E09FED190A01E09FED190A36B2B0
:1022000000EE906AF8EEE00A20EE800ABDEEC00A09
:1022100085ED000A002002B070BD012002B070BD43
:102220000100C841010048420100C8420100484382
:102230000100C843010048440100C84401404E4524
:1022400023DBF93E23DB793E23DBF93D23DB793DBC
:1022500000008C4000008C4200000C4200008C41C9
:1022600000000C4100B5062981B00CD8DFE801F070
:1022700004040B04040B040000F07EFA401E8041AD
:10228000C00F01B000BD012001B000BD00B50A00C3
:1022900018BF202981B006D100F0ACFA401E804161
:1022A000C00F01B000BD012001B000BD00B581B07C
:1022B00000F0D5F9401E8041C00F01B000BD00B54F
:1022C0000A0018BF802981B006D100F036FA401EFE
:1022D0008041C00F01B000BD012001B000BD00B5BC
:1022E000012981B006D800F0FEFC401E8041C00FDD
:1022F00001B000BD012001B000BD00B5032981B0CF
:1023000006D800F0D4FA401E8041C00F01B000BDD5
:10231000012001B000BD00B5012981B006D800F050
:10232000E2FC401E8041C00F01B000BD012001B0A1
:1023300000BD000000B50C2981B00FD8DFE801F026
:10234000070E0E0E070E0E0E070E0E0E070000F003
:10235000CDFA401E8041C00F01B000BD012001B088
:1023600000BD8268521C8260426832B10268531C10
:10237000036011704168491E4160704700B581B02B
:1023800001F0CCF9401E8041C00F01B000BD00B586
:1023900081B001F079F9401E8041C00F01B000BD4D
:1023A00000B50A4681B001230F2101F0B7F9401EA4
:1023B0008041C00F01B000BD30B581B00D4604466C
:1023C00001236A46122101F0A9F910B1002001B0E1
:1023D00030BD9DF8000000F0BF0028438DF80000DC
:1023E00001236A461221204601F04EF9401E804129
:1023F000C00F01B030BD30B581B00D460446012399
:102400006A46102101F08AF910B1002001B030BDF8
:102410009DF8000000F0F30028438DF80000012330
:102420006A461021204601F02FF9401E8041C00F5E
:1024300001B030BD10B50C4601232246102101F039
:102440006DF908B1002010BD207800F00C0020705C
:10245000012010BDF0B581B004460D4600260327CB
:10246000F6B206F128010123AA19C9B2204601F0EB
:1024700055F950B9761CF6B206F128010123AA19C4
:10248000C9B2204601F04AF910B1002001B0F0BDF8
:10249000761C7F1EE4D1012001B0F0BD30B581B0C3
:1024A0000D46044601236A46102101F037F910B1A8
:1024B000002001B030BD9DF8000000F00F0028435F
:1024C0008DF8000001236A461021204601F0DCF857
:1024D000401E8041C00F01B030BD10B50C46012335
:1024E0002246102101F01AF908B1002010BD207811
:1024F00000F0F0002070012010BD30B581B00D4615
:10250000044601236A46112101F008F910B10020A8
:1025100001B030BD9DF8000000F0F30028438DF8B5
:10252000000001236A461121204601F0ADF8401E4B
:102530008041C00F01B030BD10B50C4601232246CA
:10254000112101F0EBF808B1002010BD207800F057
:102550000C002070012010BDF0B581B004460D467E
:1025600000260327F6B206F122010123AA19C9B2F7
:10257000204601F0D3F850B9761CF6B206F12201DC
:102580000123AA19C9B2204601F0C8F810B10020F1
:1025900001B0F0BD761C7F1EE4D1012001B0F0BD7A
:1025A000000030B581B00D46044601236A46112172
:1025B00001F0B4F810B1002001B030BD9DF800006A
:1025C00000F00F0028438DF8000001236A46112116
:1025D000204601F059F8401E8041C00F01B030BDC7
:1025E00010B50C4601232246112101F097F808B1DD
:1025F000002010BD207800F0F0002070012010BDF8
:1026000030B581B00D46044601236A46112101F020
:1026100085F810B1002001B030BD9DF8000000F039
:10262000FD0028438DF8000001236A461121204651
:1026300001F02AF8401E8041C00F01B030BD10B536
:102640000C4601232246112101F068F808B1002050
:1026500010BD207800F002002070012010BD70B580
:1026600082B0044601236A460D46062101F056F861
:102670002E0A78B98DF8005001236A4606212046BB
:1026800001F002F830B901236A460721204601F023
:1026900045F810B1002002B070BD9DF8000066F34F
:1026A00002008DF8000001236A460721204600F051
:1026B000EBFF401E8041C00F02B070BD30B581B04D
:1026C0000D46044601236A46082101F027F810B19F
:1026D000002001B030BD9DF8000000F0F800284354
:1026E0008DF8000001236A460821204600F0CCFF47
:1026F000401E8041C00F01B030BD000030B581B038
:102700000D46044601236A46082101F007F810B17E
:10271000002001B030BD9DF8000000F0C700284344
:102720008DF8000001236A460821204600F0ACFF26
:10273000401E8041C00F01B030BD30B581B00D46A4
:10274000044601236A46092100F0E8FF10B1002089
:1027500001B030BD9DF8000000F07F0028438DF8E7
:10276000000001236A460921204600F08DFF401E2B
:102770008041C00F01B030BD30B581B00D46044678
:1027800001236A460A2100F0C9FF10B1002001B000
:1027900030BD9DF8000000F0F80028438DF80000DF
:1027A00001236A460A21204600F06EFF401E804148
:1027B000C00F01B030BD30B581B00D4604460123D5
:1027C0006A460A2100F0AAFF10B1002001B030BD16
:1027D0009DF8000000F0870028438DF800000123D9
:1027E0006A460A21204600F04FFF401E8041C00F7C
:1027F00001B030BD30B581B00D46044601236A46B4
:102800000D2100F08BFF10B1002001B030BD9DF80C
:10281000000000F0DF0028438DF8000001236A4625
:102820000D21204600F030FF401E8041C00F01B056
:1028300030BD30B581B00D46044601236A460D21F6
:1028400000F06CFF10B1002001B030BD9DF8000019
:1028500000F07F0028438DF8000001236A460D2117
:10286000204600F011FF401E8041C00F01B030BD76
:1028700030B581B00D46044601236A46122100F0AE
:102880004DFF10B1002001B030BD9DF8000000F0F8
:10289000FB0028438DF8000001236A4612212046E0
:1028A00000F0F2FE401E8041C00F01B030BD30B5D7
:1028B00081B00D46044601236A46142100F02EFF24
:1028C00010B1002001B030BD9DF8000000F0FC0008
:1028D00028438DF8000001236A461421204600F0A9
:1028E000D3FE401E8041C00F01B030BD30B581B075
:1028F0000D46044601236A46142100F00FFF10B173
:10290000002001B030BD9DF8000000F0F300284326
:102910008DF8000001236A461421204600F0B4FE21
:10292000401E8041C00F01B030BD30B581B00D46B2
:10293000044601236A46192100F0F0FE10B1002080
:1029400001B030BD9DF8000000F0FD0028438DF877
:10295000000001236A461921204600F095FE401E22
:102960008041C00F01B030BD30B581B00D46044686
:1029700001236A46192100F0D1FE10B1002001B0F8
:1029800030BD9DF8000000F0F70028438DF80000EE
:1029900001236A461921204600F076FE401E804140
:1029A000C00F01B030BD30B581B00D4604460123E3
:1029B0006A46192100F0B2FE10B1002001B030BD0E
:1029C0009DF8000000F0EF0028438DF8000001237F
:1029D0006A461921204600F057FE401E8041C00F74
:1029E00001B030BD30B581B00D46044601236A46C2
:1029F000192100F093FE10B1002001B030BD9DF808
:102A0000000000F0FB0028438DF8000001236A4617
:102A10001921204600F038FE401E8041C00F01B051
:102A200030BD10B50C46012322461B2100F076FE76
:102A300008B1002010BD207800F0080020700120AF
:102A400010BD10B50C46012322461B2100F066FE86
:102A500008B1002010BD207800F020002070012077
:102A600010BD10B50C46012322461C2100F056FE75
:102A700008B1002010BD207800F010002070012067
:102A800010BD10B50C46012322461C2100F046FE65
:102A900008B1002010BD207800F020002070012037
:102AA00010BD10B50C46012322461D2100F036FE54
:102AB00008B1002010BD207800F001002070012036
:102AC00010BD10B50C46012322461D2100F026FE44
:102AD00008B1002010BD207800F002002070012015
:102AE00010BD10B50C46012322461D2100F016FE34
:102AF00008B1002010BD207800F0040020700120F3
:102B000010BD10B50C46012322461D2100F006FE23
:102B100008B1002010BD207800F0080020700120CE
:102B200010BD10B50C46012322461D2100F0F6FD14
:102B300008B1002010BD207800F0100020700120A6
:102B400010BD10B50C46012322461D2100F0E6FD04
:102B500008B1002010BD207800F020002070012076
:102B600010BD10B50C46012322461D2100F0D6FDF4
:102B700008B1002010BD207800F040002070012036
:102B800010BD10B50C46012322461E2100F0C6FDE3
:102B900008B1002010BD207800F001002070012055
:102BA00010BD10B50C46012322461E2100F0B6FDD3
:102BB00008B1002010BD207800F002002070012034
:102BC00010BD30B581B00D46044601236A463A2156
:102BD00000F0A4FD38B901230DF101023B2120468C
:102BE00000F09CFD10B1002001B030BD9DF8010047
:102BF0009DF8001000F00F0041EA0020288001B08D
:102C0000012030BD10B50C46012322463B2100F0C7
:102C100085FD08B1002010BD207800F01000207064
:102C2000012010BD10B50C46012322463B2100F0C7
:102C300075FD08B1002010BD207800F02000207044
:102C4000012010BD10B50C46012322463B2100F0A7
:102C500065FD08B1002010BD207800F04000207014
:102C6000012010BD30B581B00D46044601236A46EF
:102C70003C2100F053FD38B901230DF101023D2143
:102C8000204600F04BFD10B1002001B030BD9DF892
:102C900001009DF8001000F0030041EA00202880A8
:102CA00001B0012030BD10B50C460123224653214E
:102CB00000F034FD08B1002010BD207800F01000B5
:102CC0002070012010BD10B50C460123224653216F
:102CD00000F024FD08B1002010BD207800F0200095
:102CE0002070012010BD30B581B00D46044601238F
:102CF0006A46582100F012FD10B1002001B030BD2D
:102D00009DF8000000F0FE0028438DF8000001232C
:102D10006A465821204600F0B7FC401E8041C00F93
:102D200001B030BD30B581B00D46044601236A467E
:102D3000582100F0F3FC10B1002001B030BD9DF827
:102D4000000000F0FD0028438DF8000001236A46D2
:102D50005821204600F098FC401E8041C00F01B071
:102D600030BD30B581B00D46044601236A46582176
:102D700000F0D4FC10B1002001B030BD9DF800007F
:102D800000F0FB0028438DF8000001236A4658211B
:102D9000204600F079FC401E8041C00F01B030BDDC
:102DA00030B581B00D46044601236A46582100F033
:102DB000B5FC10B1002001B030BD9DF8000000F05E
:102DC000F70028438DF8000001236A465821204669
:102DD00000F05AFC401E8041C00F01B030BD30B53C
:102DE00081B00D46044601236A46582100F096FC46
:102DF00010B1002001B030BD9DF8000000F07F0050
:102E000028438DF8000001236A465821204600F02F
:102E10003BFC401E8041C00F01B030BD30B581B0D9
:102E20000D46044601236A46592100F077FC10B193
:102E3000002001B030BD9DF8000065F304008DF85E
:102E4000000001236A465921204600F01DFC401E67
:102E50008041C00F01B030BD30B581B00D46044691
:102E600001236A46592100F059FC10B1002001B03D
:102E700030BD9DF8000000F09F0028438DF8000051
:102E800001236A465921204600F0FEFB401E804186
:102E9000C00F01B030BD30B581B00D4604460123EE
:102EA0006A465A2100F03AFC10B1002001B030BD52
:102EB0009DF8000065F301008DF8000001236A46CB
:102EC0005A21204600F0E0FB401E8041C00F01B0B7
:102ED00030BD30B581B00D46044601236A465A2103
:102EE00000F01CFC10B1002001B030BD9DF80000C6
:102EF00065F383008DF8000001236A465A212046BD
:102F000000F0C2FB401E8041C00F01B030BD30B5A3
:102F100081B00D46044601236A465A2100F0FEFBAB
:102F200010B1002001B030BD9DF8000000F00F008E
:102F300040EA05108DF8000001236A465A21204618
:102F400000F0A2FB401E8041C00F01B030BD30B583
:102F500081B00D46044601236A465B2100F0DEFB8A
:102F600010B1002001B030BD9DF8000065F30500F0
:102F70008DF8000001236A465B21204600F084FBA7
:102F8000401E8041C00F01B030BD30B581B00D464C
:102F9000044601236A465B2100F0C0FB10B100200B
:102FA00001B030BD9DF8000000F07F0028438DF88F
:102FB000000001236A465B21204600F065FB401EAD
:102FC0008041C00F01B030BD30B581B00D46044620
:102FD00001236A465C2100F0A1FB10B1002001B082
:102FE00030BD9DF8000065F303008DF8000001235B
:102FF0006A465C21204600F047FB401E8041C00F1E
:1030000001B030BD30B581B00D46044601236A469B
:103010005C2100F083FB10B1002001B030BD9DF8B1
:10302000000000F0EF0028438DF8000001236A46FD
:103030005C21204600F028FB401E8041C00F01B0FB
:1030400030BD30B581B00D46044601236A465C218F
:1030500000F064FB10B1002001B030BD9DF800000D
:1030600065F346108DF8000001236A465C21204676
:1030700000F00AFB401E8041C00F01B030BD30B5EA
:1030800081B00D46044601236A465D2100F046FBEF
:1030900010B1002001B030BD9DF8000000F0F80034
:1030A00028438DF8000001236A465D21204600F088
:1030B000EBFA401E8041C00F01B030BD70B582B048
:1030C000044601236A460E465D2100F027FB750980
:1030D000A8B99DF8000000F0070040EAC6008DF88E
:1030E000000001236A465D21204600F0CDFA30B988
:1030F00001236A465C21204600F010FB10B100203D
:1031000002B070BD9DF8000000F07F0040EAC510DD
:103110008DF8000001236A465C21204600F0B4FAD5
:10312000401E8041C00F02B070BD30B581B00D4669
:10313000044601236A465E2100F0F0FA10B1002037
:1031400001B030BD9DF8000000F0FD0028438DF86F
:10315000000001236A465E21204600F095FA401ED9
:103160008041C00F01B030BD30B581B00D4604467E
:1031700001236A465E2100F0D1FA10B1002001B0AF
:1031800030BD9DF8000000F0FB0028438DF80000E2
:1031900001236A465E21204600F076FA401E8041F7
:1031A000C00F01B030BD30B581B00D4604460123DB
:1031B0006A465E2100F0B2FA10B1002001B030BDC5
:1031C0009DF8000000F0F70028438DF8000001236F
:1031D0006A465E21204600F057FA401E8041C00F2B
:1031E00001B030BD30B581B00D46044601236A46BA
:1031F0005E2100F093FA10B1002001B030BD9DF8BF
:10320000000000F0EF0028438DF8000001236A461B
:103210005E21204600F038FA401E8041C00F01B008
:1032200030BD30B581B00D46044601236A465E21AB
:1032300000F074FA10B1002001B030BD9DF800001C
:1032400000F0DF0028438DF8000001236A465E216C
:10325000204600F019FA401E8041C00F01B030BD79
:1032600030B581B00D46044601236A465E2100F068
:1032700055FA10B1002001B030BD9DF8000000F0FB
:10328000BF0028438DF8000001236A465E212046D6
:1032900000F0FAF9401E8041C00F01B030BD30B5DA
:1032A00081B00D46044601236A465F2100F036FADC
:1032B00010B1002001B030BD9DF8000000F0FD000D
:1032C00028438DF8000001236A465F21204600F064
:1032D000DBF9401E8041C00F01B030BD30B581B078
:1032E0000D46044601236A465F2100F017FA10B12B
:1032F000002001B030BD9DF8000000F0FB00284325
:103300008DF8000001236A465F21204600F0BCF9D9
:10331000401E8041C00F01B030BD30B581B00D46B8
:10332000044601236A465F2100F0F8F910B100203D
:1033300001B030BD9DF8000000F0F70028438DF883
:10334000000001236A465F21204600F09DF9401EDF
:103350008041C00F01B030BD30B581B00D4604468C
:1033600001236A465F2100F0D9F910B1002001B0B5
:1033700030BD9DF8000000F0EF0028438DF80000FC
:1033800001236A465F21204600F07EF9401E8041FD
:10339000C00F01B030BD30B581B00D4604460123E9
:1033A0006A465F2100F0BAF910B1002001B030BDCB
:1033B0009DF8000000F0DF0028438DF80000012395
:1033C0006A465F21204600F05FF9401E8041C00F31
:1033D00001B030BD30B581B00D46044601236A46C8
:1033E0005F2100F09BF910B1002001B030BD9DF8C5
:1033F000000000F0BF0028438DF8000001236A465A
:103400005F21204600F040F9401E8041C00F01B00E
:1034100030BD30B50D4681B0044601232A463E2119
:1034200000F07CF930B901236A1C3F21204600F0EE
:1034300075F910B1002001B030BD012001B030BDE0
:1034400030B50D4681B0044601232A464B2100F0D9
:1034500065F930B901236A1C4C21204600F05EF961
:1034600010B1002001B030BD012001B030BD30B539
:1034700081B00D46044601236A46012100F04EF951
:1034800058B99DF8000040F080008DF8000001233D
:103490006A460121204600F0F7F801230DF10102F0
:1034A0000F21204600F03AF99DF8010065F3040071
:1034B0008DF8010001230DF101020F21204600F0DB
:1034C000E3F801236A460121204600F027F958B9A4
:1034D0009DF8000000F07F008DF8000001236A468F
:1034E0000121204600F0D0F8012001B030BD0000DD
:1034F000002200F0C7B9000030B5DB4C87B0204691
:1035000000F094FE00284BD1D848D94D606001A945
:103510000020A0603320E0604FF480402061D54857
:10352000206000200090286940F00200286128698E
:1035300000F00200009000984FF4407001901220BB
:103540000290022004900020039004200590CA48B5
:1035500000F070FE002000900022286A40F4001065
:1035600028620021286A00F4001000900098286862
:1035700040F400102860286820F4001028601F2004
:1035800000F04DFF1F2000F073FF002200212020DB
:1035900000F045FF202000F06BFF204600F0A2F96C
:1035A000204600F043FE20280CBF0020012007B079
:1035B00030BD70B58CB00020009006A9AF4EB04C65
:1035C0003068AD4D40F002003060306800F002001D
:1035D0000090009807942020069002200990002077
:1035E0000890284600F026FE00220021172000F057
:1035F00016FF172000F03CFF0020009001A9306862
:1036000040F002003060306800F002000090009846
:10361000029410200190022004900020039028467C
:1036200000F008FE002200210A2000F0F8FE0A2027
:1036300000F01EFF00200CB070BD00B587B0002068
:1036400000908E48016841F00201016001A9006804
:1036500000F00200009000984FF4806001908848CC
:1036600002900220049000200390834800F0E2FDC5
:1036700000220021282000F0D2FE282000F0F8FED1
:10368000002007B000BD00002DE9F043044683B0E0
:103690002078332818BF4028884616461F4603D096
:1036A000B12806D0BC2822D1022F20DB48F08008A8
:1036B0001DE00025380016D0DFF8AC914FF48050A3
:1036C000029000960120019005EB0802A1780123E9
:1036D000D2B2484600F096F908B1484615E06D1C94
:1036E000761CBD42EADB002003B0BDE8F0834FF456
:1036F00080500290019700965B4DA17801234246CD
:10370000284600F07FF928B1284600F05AF900F069
:103710004EF8012003B0BDE8F08300002DE9F0432E
:10372000044683B02078332818BF402888461646C0
:103730001F4603D0B12806D0BC2822D1022F20DB9F
:1037400048F080081DE00025380016D0DFF81891F9
:103750004FF48050029000960120019005EB080282
:10376000A1780123D2B2484600F0D1FA08B1484608
:1037700015E06D1C761CBD42EADB002003B0BDE8FD
:10378000F0834FF48050029001970096364DA17857
:1037900001234246284600F0BAFA28B1284600F034
:1037A00010F900F004F8012003B0BDE8F08330B553
:1037B0002D4C87B0204600F039FD00284BD12B4816
:1037C0002B4D606001A90020A0603320E0604FF421
:1037D000804020612748206000200090286940F048
:1037E00002002861286900F00200009000984FF460
:1037F000407001901220029002200490002003905B
:10380000042005901C4800F015FD002000900022C7
:10381000286A40F4001028620021286A00F4001091
:1038200000900098286840F400102860286820F470
:10383000001028601F2000F0F2FD1F2000F018FE8D
:1038400000220021202000F0EAFD202000F010FEE0
:10385000204600F047F8204600F0E8FC20280CBF86
:103860000020012007B030BD28130020801A060078
:10387000203802400054004000040240303802402A
:1038800000001110401810F0030308D0C91A1FD30C
:10389000DB0748BF00F8012D28BF20F8022D1300D8
:1038A00030B414461546103928BF20E93C00FAD838
:1038B000490728BF20E90C0048BF40F8042D8900C3
:1038C00028BF20F8022D48BF00F8012D30BC7047FA
:1038D000C91818BF00F8012DCB0728BF00F8012D2B
:1038E0007047000030B5040081B008BF012066D0E9
:1038F00094F83D0020B984F83C00204600F099FC83
:10390000242084F83D0020680168490849000160CE
:1039100000F084FEDFF8E020A0FB02212268C90C41
:1039200051606368DFF8D420934208D34FF4967354
:1039300013FB01F1DFF8C850A1FB0553590A2368B6
:10394000491C19626168914208D24900B0FBF1F04C
:10395000C0F30B01042913D2042011E0A26822B99C
:1039600001EB4101B0FBF1F005E019225143B0FB3E
:10397000F1F040F4804001050CBF012040F400400C
:103980002168C861E069216A0843216808602069EC
:10399000E1680843216888606069A169084321687B
:1039A000C8602068016841F00101016000202064C6
:1039B000202084F83D000020206384F83E0001B000
:1039C00030BD10B5040001D1012010BD242084F8C1
:1039D0003D0020680168490849000160204600F068
:1039E00063FE0020206484F83D00206384F83E00DC
:1039F00084F83C0010BD000006BD3786A18601009A
:103A0000986E12832DE9F04381B00446894615462D
:103A1000984600F04BFE064694F83D00202812D14F
:103A200020688169890712D500F040FE801B1A28A2
:103A3000F6D300202063202084F83D00002084F885
:103A40003E0084F83C00022001B0BDE8F08394F809
:103A50003C100129F7D0012184F83C100168C90706
:103A600003D4016841F0010101602068016821F47C
:103A700000610160212084F83D00402084F83E0070
:103A8000002020640898606209986085DFF8980734
:103A9000E062608D20852068016841F480710160DA
:103AA0000A9F20684169C9071DD417F1010FF8D09A
:103AB00027B100F0FBFD801B8742F2D2002020637B
:103AC000202084F83D00002084F83E0084F83C006B
:103AD000206C042840F08B80002084F83C0001B06A
:103AE0000120BDE8F08309F0FE0101612068416911
:103AF000890720D4416949050AD5016841F400715C
:103B000001606FF48060216848610420206408E04F
:103B100017F1010FEAD027B100F0C8FD801B8742E2
:103B2000E4D200202063202084F83D00002084F8A7
:103B30003C00206CCCE70021009141690091806934
:103B40000090009821684869000625D4486940051E
:103B500015D56FF480604861042020640020206344
:103B6000202084F83D00002084F83C00206C0428CC
:103B7000AED12068016841F400710160A8E717F137
:103B8000010FDFD027B100F091FD801B8742D9D211
:103B9000206C40F02000E0E7B8F1010F23D0280AA4
:103BA00008612068416909061DD44169490504D5A9
:103BB0006FF48061416104200BE017F1010FF0D038
:103BC00027B100F073FD801B8742EAD2206C40F0E1
:103BD0002000206400202063202084F83D00002085
:103BE00084F83C00C2E72068EDB2056111E00020D6
:103BF00084F83C00032001B0BDE8F083606A421CF9
:103C0000626200780861208D401E2085608D401E14
:103C10006085208D00283ED020684169090628D49F
:103C20004169490518D56FF4806141610420206421
:103C300000202063202084F83D00002084F83C0010
:103C4000206C0428D6D12068016841F4007101601D
:103C5000012001B0BDE8F08317F1010FDCD027B1DE
:103C600000F024FD801B8742D6D2206C40F020005B
:103C7000DDE7616A4A1C626209780161208D401E9D
:103C80002085618D491E618521684A695207C0D52A
:103C900080B20028B2D120684169490728D441691F
:103CA000490518D56FF4806141610420206400202B
:103CB0002063202084F83D00002084F83C00206C24
:103CC000042897D12068016841F400710160012047
:103CD00001B0BDE8F08317F1010FDCD027B100F08F
:103CE000E5FC801B8742D6D2206C40F02000DDE747
:103CF000016841F400710160202084F83D0000203B
:103D000084F83E0084F83C0001B0BDE8F0832DE962
:103D1000F04381B0044688461646994600F0C6FC3A
:103D2000074694F83D00202812D120688169890750
:103D300012D500F0BBFCC01B1A28F6D3002020636C
:103D4000202084F83D00002084F83E0084F83C00E8
:103D5000022001B0BDE8F08394F83C100129F7D0AF
:103D6000012184F83C100168C90703D4016841F0BF
:103D7000010101602068016821F4006101602220D6
:103D800084F83D00402084F83E000020206408981C
:103D9000606209986085DFF89004E062608D20859C
:103DA0002068016841F4806101602068016841F485
:103DB000807101600A9D20684169C9070BD415F123
:103DC000010FF8D0002D00F0BB8000F06FFCC01B8D
:103DD0008542F0D2B4E008F0FE010161206841693B
:103DE00089071FD4416949050AD5016841F400716A
:103DF00001606FF48060216848610420206408E05D
:103E000015F1010FEAD025B100F050FCC01B85422E
:103E1000E4D200202063202084F83D00002084F8B4
:103E20003C00B5E00021009141690091806900905B
:103E300000982168486900061DD4486940050DD5E1
:103E40006FF48060486104202064002020632020FB
:103E500084F83D00002084F83C0057E015F1010F84
:103E6000E7D025B100F022FCC01B8542E1D2206CD6
:103E700040F02000E8E7B9F1010F23D0300A0861D3
:103E80002068416909061DD44169490504D56FF4CC
:103E90008061416104200BE015F1010FF0D025B1E4
:103EA00000F004FCC01B8542EAD2206C40F02000E8
:103EB000206400202063202084F83D00002084F846
:103EC0003C0023E02068F6B20661206841690906DB
:103ED00025D44169490504D56FF48061416104200E
:103EE0000BE015F1010FF0D025B100F0DFFBC01B96
:103EF0008542EAD2206C40F020002064002020633C
:103F0000202084F83D00002084F83C00206C042828
:103F10003FD12068016841F40071016039E0016817
:103F200041F48071016020684169C90713D415F11B
:103F3000010FF8D025B100F0B9FBC01B8542F2D2C9
:103F400000202063202084F83D00002084F83E00FB
:103F500084F83C001DE048F00101C9B2016120680D
:103F6000416989072AD4416949051CD5016841F492
:103F7000007101606FF48060216848610420206452
:103F800000202063202084F83D00002084F83C00BD
:103F9000206C206C042817D1002084F83C000120FC
:103FA00001B0BDE8F08315F1010FD8D0002DE7D0A6
:103FB00000F07CFBC01B8542D1D2E1E7218D0A00D5
:103FC00009D1002100910FE0002084F83C0001B0ED
:103FD0000320BDE8F083012910D1016821F480613C
:103FE0000160002000902068416900918169009182
:103FF0000099016841F40071016021E002290CD1AF
:10400000016821F4806101602068016841F4006169
:10401000016000200090206801E0002100914169CA
:1040200000918069009000980AE0606A421C626218
:1040300009690170208D401E2085608D401E6085BD
:10404000208D010000F0E480042880F0A580012884
:1040500024D1216848694006E7D44869C00606D5DE
:104060006FF01000486100202064206309E025B152
:1040700000F01CFBC01B8542EBD2206C40F02000FE
:104080002064202084F83D00002084F83C00206C4F
:10409000202884D1032001B0BDE8F08302282AD172
:1040A00020684169490711D415F1010FF8D025B1F5
:1040B00000F0FCFAC01B8542F2D2002020632020D1
:1040C00084F83D00002084F83E007EE7016841F45A
:1040D00000710160606A411C6162216809690170B8
:1040E000208D401E2085608D401E6085606A411CC9
:1040F000616221689CE720684169490711D415F184
:10410000010FF8D025B100F0D1FAC01B8542F2D2E0
:1041100000202063202084F83D00002084F83E0029
:1041200053E7016821F480610160606A411C6162AB
:10413000216809690170208D401E2085608D401E18
:10414000608520684169490711D415F1010FF8D045
:1041500025B100F0ABFAC01B8542F2D200202063EB
:10416000202084F83D00002084F83E002DE70168FF
:1041700041F400710160606A411C61622168096953
:104180000170208D401E2085608D401E6085606A14
:10419000411C616221684BE720684169490621D4CE
:1041A0004169C90613D56FF01001416100202064F8
:1041B0002063202084F83D00002084F83C00206C1F
:1041C00020287FF4ECAE032001B0BDE8F08325B1D8
:1041D00000F06CFAC01B8542DED2206C40F020005B
:1041E0002064E6E7616A4A1C626200690870208DFB
:1041F000401E2085608D401E60852068416949070A
:104200007FF51EAF616A4A1C62620069087011E79F
:10421000202084F83D00002084F83E0084F83C0013
:1042200001B0BDE8F08300000000FFFF90F83D0002
:10423000704770472DE9F04F002381B002460024FB
:104240009946DFF89CA1674F4FF00F0E01200D68D3
:10425000984000EA0508804540F0A7804D68022D8F
:1042600018BF122D11D1DD0802EB850C09F01C05D9
:10427000DCF820600EFA05FB26EA0B06D1F810B038
:104280000BFA05F53543CCF8205003261568A640F7
:104290006FEA060C0E7906F003060CEA0505A64047
:1042A000354315604D68012D18BF022D03D0112D27
:1042B00018BF122D0FD19568CE680CEA0505A640EF
:1042C00035439560556825EA00004D68C5F3001533
:1042D0009D4028435060D0688D680CEA0000A540DE
:1042E0002843D0604868C0005FD50020009009F0E6
:1042F0000C0C38683C4E40F480403860386800F45C
:10430000804000900098980856F820500EFA0CF65D
:10431000B543364EB24208BF002613D0344EB242E7
:1043200008BF01260ED0334EB24208BF022609D084
:10433000314EB24208BF032604D0304EB2420CBF09
:104340000426072606FA0CF62E43274D45F8206072
:104350006FEA0800DAF8005000EA050C4D68ED033A
:1043600048BF48EA0C0CCAF800C0DAF8045000EA6A
:10437000050C4D68AD0348BF48EA0C0CCAF804C0F0
:10438000DAF8085000EA050C4D68ED0248BF48EA2B
:104390000C0CCAF808C0DAF80C5028404D68AD0281
:1043A00048BF48EA0000CAF80C005B1CA41C102B94
:1043B00009F10409FFF44AAF01B0BDE8F08F02B97A
:1043C00009048161704742695140416170470C4A5C
:1043D000136803421CBF106000F018BD7047000056
:1043E000003C0140443802400838014000000240CF
:1043F0000004024000080240000C0240001002408D
:10440000143C014027490A684FF6FF0300021A4096
:1044100000F4E0601043244A10430860704730B451
:10442000204B1B68C3F30223C3F10704052C28BFEC
:1044300004241D1D072D34BF0023DB1E012505FAB2
:1044400004F4641E2140994005FA03F35B1E1A40F0
:1044500011430901002807D5144A00F00F00104449
:1044600000F8041C30BC7047114A115430BC70472E
:10447000012100F01F0291400E4A400942F820102D
:104480007047401EB0F1807F01D3012070470A4978
:104490004860F02081F8130D002088600720086034
:1044A000002070470CED00E00000FA0518ED00E078
:1044B00000E400E000E100E010E000E0F0B5614E53
:1044C00081B00446D6F800040D4600F00F00A84263
:1044D00007D286F80054D6F8000400F00F00A84276
:1044E00076D12078800705D5B068A16820F0F0006B
:1044F0000843B0602078C0075CD56068012802D10D
:104500003168890305E0022818BF032805D1316806
:10451000890105D4012001B0F0BD3168890757D564
:10452000B168890840EA8100B06000F0BFF8074632
:10453000606801280ED1B06800F00C00042839D062
:1045400000F0B4F8C01B41F289318842F3D3032054
:1045500001B0F0BD02280ED1B06800F00C000828B0
:1045600028D000F0A3F8C01B41F289318842F3D370
:10457000032001B0F0BD03280ED1B06800F00C009C
:104580000C2817D000F092F8C01B41F28931884204
:10459000F3D3032001B0F0BDB06810F00C0F09D0C8
:1045A00000F084F8C01B41F289318842F4D3032023
:1045B00001B0F0BDD6F8000400F00F0085420AD229
:1045C00086F80054D6F8000400F00F00A84202D08C
:1045D000012001B0F0BD2078400705D5B068E16842
:1045E00020F4E0500843B0602078000706D5B0689A
:1045F000216920F4604040EAC100B06000F02CF86E
:10460000B2681149C2F30312895CC8400F490860BF
:104610000F2000F0A7FC002001B0F0BD0B480C4AB1
:10462000006812680B49C2F38222895CC840704757
:104630000648074A006812680649C2F34232895C9C
:10464000C840704700380240E4A20008C4090020B6
:10465000083802401CBF00081048416801F00C01F6
:10466000042903D0082903D00D4870470D4870472E
:1046700001680268520201F03F014CBF094A084A32
:10468000B2FBF1F102680068C0F30140C2F3881286
:10469000401C51434000B1FBF0F070470438024029
:1046A0000024F40000127A007047000001480068FE
:1046B000704700BF3C1500202DE9F04F81B0DFF8B6
:1046C000C8472DED028BCEB000F062FC00F07EFCFE
:1046D000002000F067FD002000F08EFD0121002089
:1046E00000F09FFD00F088FE0C2000900020069056
:1046F0000120029000200590684600F0FBFE002893
:104700001ABF0120F921FF21E1600A467F21A16043
:10471000DFF878170860A264DFF874072060402093
:104720006060002020616061A061204601F04CF8CB
:1047300000B1FEE714208DF80300012202208DF85D
:104740000100694618208DF8020002208DF8000053
:10475000204601F09DF900B1FEE708208DF8040025
:10476000012210208DF8050001A90020ADF80600F7
:1047700004900590204601F082F800B1FEE704F1B4
:1047800068014FF0FF3001F07BFA04F16C014FF04B
:10479000FF3001F0C1FB04F170014FF0FF3001F078
:1047A000B1FC04F174014FF0FF3001F08DFD04F114
:1047B00078014FF0FF3001F069FE04F17C014FF009
:1047C000FF3001F09FFF0FF2787B0FF2607ADFF885
:1047D000C4860FF2D069DFF8C06641F2883520E068
:1047E00000F00AFD307800281CBF94F8450000282E
:1047F00010D00CA802F074F894F846008DF86B0005
:1048000038200C900CA800F0DFFD002084F8450053
:1048100084F8460094F8440018B14FF4FA7002F09E
:104820001FF90CA800F050FD58B19DF83400322853
:1048300007D10CA802F05EF8307810B1002084F89F
:104840004400206DE16C884237D0E06C2065E06F59
:10485000E16CC90702D501F0B7FF01E001F0C4FF28
:10486000606FE16C490702D501F08CFD01E001F0B9
:1048700099FDA06FE16C890702D501F0BFFE01E050
:1048800001F0CCFEA06EE16CC90602D501F0B0FAD1
:1048900001E001F0BDFAE06EE16C890602D501F09D
:1048A0009DFB01E001F0AAFB206FE16C490602D5F7
:1048B00001F086FC01E001F093FC31780020002932
:1048C00004BF94F84410002911D0002204A9204606
:1048D00001F0A8F8002203A9204601F09CF9A06C81
:1048E0000599411A64225143401C91FBF0F0317844
:1048F00071B19DF810108DF837108DF83A009DF8C1
:1049000011108DF838109DF812108DF839101EE036
:1049100094F84410D9B1C0B202904A469DF81200F2
:104920009DF8103001904FF480719DF811000090B7
:1049300004F1800002F0A6F804F1800002F0C4F84F
:1049400082B22B4604F18001404602F009F9E06C86
:10495000C00767D50020ADF804000DF10501E06F38
:1049600001F052FF002804BF9DF80500012859D12D
:10497000E06F01A901F09CFF9DF80400002851D0D0
:1049800094F84500401C84F8450004F1540194F863
:10499000460040F0080084F84600E06F01F048FF50
:1049A000307838B1042204F154010DF13B0002F0DB
:1049B0002BFB37E094F84400A0B394ED150AB5EE54
:1049C000400AF1EE10FAB8BFB1EE400ABDEEC08A5F
:1049D000F8EE480A30EE600A10EE100A02F050FBC2
:1049E0000022DFF8B83402F073FB41EC100B02F048
:1049F00040FC51EC100B02F049FC009018EE103A0C
:104A000052464FF4807104F1800002F03BF804F14B
:104A1000800002F059F882B22B4604F18001404632
:104A200002F09EF8E06C400767D50020ADF8040066
:104A30000DF10501606F01F0C5FC002804BF9DF871
:104A40000500012859D1606F01A901F00FFD9DF803
:104A50000400002851D094F84500401C84F845001B
:104A600004F1580194F8460040F0100084F8460024
:104A7000606F01F0BBFC307838B1042204F15801BA
:104A80000DF1430002F0C0FA37E094F84400A0B3FF
:104A900094ED160AB5EE400AF1EE10FAB8BFB1EE89
:104AA000400ABDEEC08AF8EE480A30EE600A10EE09
:104AB000100A02F0E5FA0022DFF8E03302F008FB0A
:104AC00041EC100B02F0D5FB51EC100B02F0DEFBB9
:104AD000009018EE103A5A464FF4807104F18000AD
:104AE00001F0D0FF04F1800001F0EEFF82B22B460E
:104AF00004F18001404602F033F8E06C80076ED587
:104B00000020ADF808000DF10901A06F01F096FD3D
:104B1000002804BF9DF80900012860D1A06F02A9F8
:104B200001F0E0FD9DF80800002858D094F84500F9
:104B3000401C84F8450004F15C0194F8460040F004
:104B4000200084F84600A06F01F08CFD307838B169
:104B5000042204F15C010DF13F0002F055FA3EE041
:104B600094F8440000283AD094ED170AB5EE400AB4
:104B7000F1EE10FAAEBF00270127B1EE400ABDEEFC
:104B8000C08AF8EE480A30EE600A10EE100A02F011
:104B900077FA0022C14B02F09BFA41EC100B02F0B5
:104BA00068FB51EC100B02F071FB0190002F14BF59
:104BB0002D232B238DED008A4FF480710FF290325C
:104BC00004F1800001F05EFF04F1800001F07CFF41
:104BD00082B22B4604F18001404601F0C1FFE06C37
:104BE000C00655D50020ADF808000DF10901A06EF2
:104BF00001F01EF9002804BF9DF80900012847D1E3
:104C0000A06E02A901F078F99DF8080000283FD0B5
:104C100094F84500401C84F8450004F1200194F804
:104C2000460040F0010084F84600A06E01F014F93F
:104C3000307890B1216A04220DF1470002F013FC94
:104C4000616A04220DF14B0002F00DFCA16A0422FE
:104C50000DF14F0002F007FC1AE094F84400B8B1DF
:104C6000A06A236A0FF2582201904FF48071606AA3
:104C7000009004F1800001F005FF04F1800001F0D4
:104C800023FF82B22B4604F18001404601F068FF09
:104C9000E06C800655D50020ADF808000DF1090143
:104CA000E06E01F0BBF9002804BF9DF8090001285F
:104CB00047D1E06E02A901F015FA9DF8080000281E
:104CC0003FD094F84500401C84F8450004F12C01C5
:104CD00094F8460040F0020084F84600E06E01F0CF
:104CE000B1F9307890B1E16A04220DF1530002F07D
:104CF000BAFB216B04220DF1570002F0B4FB616B8B
:104D000004220DF15B0002F0AEFB1AE094F84400BF
:104D1000B8B1606BE36A0FF2CC1201904FF480716E
:104D2000206B009004F1800001F0ACFE04F18000E3
:104D300001F0CAFE82B22B4604F18001404601F028
:104D40000FFFE06C400655D50020ADF808000DF1CE
:104D50000901206F01F054FA002804BF9DF80900F2
:104D6000012847D1206F02A901F09EFA9DF80800A2
:104D700000283FD094F84500401C84F8450004F119
:104D8000380194F8460040F0040084F84600206F93
:104D900001F04AFA307890B1A16B04220DF15F0066
:104DA00002F061FBE16B04220DF1630002F05BFB9A
:104DB000216C04220DF1670002F055FB1AE094F813
:104DC0004400B8B1206CA36B0FF23C1201904FF479
:104DD0008071E06B009004F1800001F053FE04F15B
:104DE000800001F071FE82B22B4604F18001404642
:104DF00001F0B6FE3078002804BF94F84400002883
:104E00003FF4EEAC002000F002FAEBE4B0F5005FF6
:104E100000D0704710B51C4C206E002804BF606E97
:104E2000002802D1FFF742FC09E0FFF73FFC606673
:104E3000606E216E401AB0F5967F0DD9606E2066C7
:104E40001548007808B1002004E094F84410481E8A
:104E50008041C00F84F8440010BD00B585B0002328
:104E60008DF800008DF801108DF802208DF80330C8
:104E700001930393049300226946034800F0FFFC6A
:104E800000B1FEE705B000BD28110020401500204C
:104E90000028004000000020AC0400200000594021
:104EA000FEE7000054696D655374616D703A20250A
:104EB000643A25643A25642E25640D0A000000003A
:104EC0004143435F583A2025642C204143435F59B6
:104ED0003A2025642C204143435F5A3A2025640D33
:104EE0000A0000004759525F583A2025642C204799
:104EF00059525F593A2025642C204759525F5A3A3B
:104F00002025640D0A0000004D41475F583A2025D6
:104F1000642C204D41475F593A2025642C204D4197
:104F2000475F5A3A2025640D0A000000505245534D
:104F3000533A2025642E253032640D0A000000000B
:104F400048554D3A2025642E253032640D0A000064
:104F500054454D503A20256325642E253032640D8A
:104F60000A00000010B504460748084A0068A0FB84
:104F70000221480AFFF785FA002221464FF0FF3050
:104F8000FFF74DFA002010BDC4090020986E12836F
:104F900000B50C4881B0016841F4007101600168FE
:104FA00041F480610160016841F480710160032077
:104FB000FFF728FA0F20FFF7D5FF00F005F80020D3
:104FC00001B000BD003C02407047000000B593B046
:104FD000002000906048016841F080510160006845
:104FE00000F0805000900098002000905B4801681D
:104FF00021F4404141F400410160006800F4404068
:1050000000900098022006900120099010200A903C
:1050100002200C9000200D9010200E904FF4A870EC
:105020000F90042010900720119006A800F062FA5B
:105030000F200190022102200290002003904FF4E3
:10504000805004900020059001A8FFF737FA13B0B4
:1050500000BD0068424A4349904214D3424AD1F805
:105060000414904208BF414854D0414A904208BFBE
:1050700040204FD03F4A904214BF4FF480004FF47D
:105080008030084070473C4A904216D33B4AD1F8E2
:105090000014904205D03A4A904205D14020084081
:1050A0007047324808407047364A904214BF4FF468
:1050B00080004FF4803008407047334A904215D347
:1050C000324A4968904205D0314A904205D1402089
:1050D000084070472548084070472E4A904214BF48
:1050E0004FF480004FF48030084070472A4A096826
:1050F000904205D0294A904205D14020084070478F
:105100001A4808407047264A90420CBF4FF480303E
:105110004FF48000084070470068406870471C49A1
:1051200001604FF00061416000218160C1604FF477
:10513000806101610021416181614FF48071C16131
:105140004FF48031016200214162032181624FF4FA
:105150000001C162016370474038024000700040A6
:105160005964024000600240706402400100800007
:1051700088640240A0640240B960024010640240AA
:10518000286402404064024059600240706002405E
:1051900088600240A0600240106002402860024027
:1051A0004060024070B586B0044600200090DFF8F1
:1051B000FC60DFF8FC00016841F00101016001A919
:1051C000006800F00100009000980FF2F00030F845
:1051D00014500195012002900020039002200490B9
:1051E00056F82400FFF726F856F824000022294636
:1051F000FFF7E5F806B070BD0FF2C001DFF8AC3084
:1052000031F8101053F820000022FFF7D8B80FF241
:10521000AC01DFF8982031F8101052F82000FFF7A9
:10522000D2B830B587B00446002000900D46DFF8B4
:105230008000016841F004010160006800F0040092
:1052400000902800009810D10FF2740030F814007C
:10525000019001A900200290022003900490DFF841
:10526000540050F82400FEF7E5FF012D1BD10FF28A
:10527000500030F81400019001A900200390DFF8DD
:1052800038000290DFF82C0050F82400FEF7D2FF1F
:105290000FF23000045D00220F2160B2FFF7BFF86B
:1052A00060B2FFF7E5F807B030BD0000BC09002090
:1052B00030380240C009002000002110200000000A
:1052C00000200000280000002DE9F04F0446854D25
:1052D00081B005F14000FFF7BCFE002700286FD128
:1052E00005F14000FFF718FFC0F50078B5F8A4609D
:1052F0001FFA88F8B045AEBFA8EB060008F50070AD
:10530000801B80B20090B9460098012852DBA81992
:10531000761CB6B290F8A800B6F5007FA8BF0026AC
:10532000F02842D1B5F8A4604FF0000A0BE08119D3
:105330000A1201EBD2525212A1EB42265044B6B2ED
:105340007F1C1FFA80FA701CCA451BDA011200EBA1
:10535000D1514912A0EB4121A8191FFA81FB90F805
:10536000A80005EB0B01BFB291F8A810E219121DBD
:1053700001F0D5FFC0B20028D9D1A5F8A4B001B082
:10538000BDE8F08F011200EBD1514912BFB2A0EB82
:1053900041262760B6B2A5F8A460204601F0FAFFC6
:1053A00018B1012001B0BDE8F08F009809F10109A2
:1053B0008145ACDB0098B0F5807FC8BFA5F8A4801C
:1053C000002001B0BDE8F08F30B581B0044601F097
:1053D000B5FF444D4FF42B702146284401F07CFF6B
:1053E00082B24FF42B702918284601B0BDE8304036
:1053F00041F2883301F0B4BB10B586B000200090B4
:10540000394C3A48016841F001010160016801F03E
:1054100001010091009900210091016841F0010112
:105420000160016801F001010091009900210091E3
:10543000016941F400310161016901F40031009119
:10544000009900210091016841F40011016001A957
:10545000006800F4001000900098042001900220E1
:10546000029000200390022004900720059020461F
:10547000FEF7E0FE0820019001A9072005902046D4
:10548000FEF7D8FE174C1A482060D4F8A8026060D6
:105490000020A060E0602061A0610C2060612046D7
:1054A00001F02EFB00B1FEE704F14000FFF737FEEC
:1054B00004F1400001F0EEFF04F140006063A467D6
:1054C00004F1A800A0624FF400724FF40070A085B0
:1054D00004F1A8010020E063204601F0C4FB06B0FF
:1054E00010BD0000000000200000024030380240E3
:1054F00000440040F0B5044681B02078AF4DC007AD
:105500004CD5A86800F00C00042807D0A86800F06B
:105510000C0008280AD16868400207D52868800373
:105520003CD56068D0BB012001B0F0BD6068B0F52B
:10553000803F03D1286840F4803010E0B0F5A02F00
:10554000286806D140F480202860286840F4803024
:1055500005E020F480302860286820F4802028604E
:10556000606868B1FFF7A2F806462868800315D482
:10557000FFF79CF8801B6528F7D3032001B0F0BD2E
:10558000FFF794F806462868800307D5FFF78EF8E2
:10559000801B6528F7D3032001B0F0BD2078800779
:1055A00018D5A86810F00C0F07D0A86800F00C0000
:1055B000082826D16868400223D42868800702D5CD
:1055C000E0680128AFD12868216920F0F80040EA9E
:1055D000C10028602078000745D56069784F90B3F6
:1055E0000120C7F8800EFFF761F80646686F800754
:1055F00039D4FFF75BF8801B0328F7D3032001B0F1
:10560000F0BDE0686E4F78B101203860FFF74EF8CA
:10561000064628688007D6D4FFF748F8801B032881
:10562000F7D3032001B0F0BD3860FFF73FF806461E
:1056300028688007CED5FFF739F8801B0328F7D3F9
:10564000032001B0F0BDC7F8800EFFF72FF8064623
:10565000686F800707D5FFF729F8801B0328F7D369
:10566000032001B0F0BD2078400757D500200090FE
:10567000544F286C40F080502864286C00F0805013
:1056800000900098386840F480703860FFF70EF89A
:1056900006463868C00507D4FFF708F8801B0328C2
:1056A000F7D3032001B0F0BDA068012803D1286F13
:1056B00040F001000FE00528286F06D140F00400FB
:1056C0002867286F40F0010005E040084000286787
:1056D000286F20F004002867A06878B1FEF7E6FF85
:1056E000064641F28937286F800717D4FEF7DEFFA0
:1056F000801BB842F7D3032001B0F0BDFEF7D6FF00
:10570000064641F28937286F800707D5FEF7CEFF9E
:10571000801BB842F7D3032001B0F0BDA069002878
:1057200048D0A96801F00C0108293FF4FCAE02281A
:10573000234F2FD100203866FEF7B8FF06462868B1
:10574000800107D5FEF7B2FF801B0328F7D30320A3
:1057500001B0F0BDE069216A0843616A40EA811046
:10576000A16A891EC903090C40EA0140E16A40EAC6
:105770000160686001203866FEF798FF06462868D9
:10578000800117D4FEF792FF801B0328F7D3032074
:1057900001B0F0BD00203866FEF788FF0646286895
:1057A000800107D5FEF782FF801B0328F7D3032073
:1057B00001B0F0BD002001B0F0BD00BF00380240D4
:1057C000000047420070004070B5040027D0607FA1
:1057D00018B92077204601F041FF02206077CA20E7
:1057E000216848625320216848622068C1684906E0
:1057F00017D44FF0FF31C16040F2E936FEF756FF93
:1058000005462068C06840060BD4FEF74FFF401BDA
:10581000B042F6D32168FF2048620420607701205F
:1058200070BD2068DFF84C248168114081602068D9
:105830008168626823691A4363691A43114381606E
:105840002168E068086120680169A26841EA0241B4
:1058500001612068C16821F08001C1602068016C8D
:1058600021F4802101642068016CA2691143016464
:10587000FF202168486201206077002070BD2DE97B
:10588000F04104460D46207F012808BF022000F0A9
:10589000C7800120207702206077002A2068806876
:1058A00057D140065CBF0020E870287800210A2804
:1058B00013D30A38491CC0B20A2821BF491C0A3830
:1058C000C0B20A2809D30A38491CC0B20A2821BF2D
:1058D000491C0A38C0B20A28EBD240EA01106978A4
:1058E0000A2913D30A39521CC9B20A2921BF521CF2
:1058F0000A39C9B20A2909D30A39521CC9B20A297C
:1059000021BF521C0A39C9B20A29EBD241EA02115D
:10591000AA7800230A2A13D30A3A5B1CD2B20A2AB5
:1059200021BF5B1C0A3AD2B20A2A09D30A3A5B1C8D
:10593000D2B20A2A21BF5B1C0A3AD2B20A2AEBD29F
:105940000906C0B2090C41EA004042EA0311C9B29B
:1059500009E040065CBF0020E870697828780902F9
:1059600041EA0040A9780843E97840EA0146216805
:10597000CA2048625320216848622068C1684906ED
:1059800011D44FF0FF31C16040F2E938FEF78EFECE
:1059900007462068C068400605D4FEF787FEC01B96
:1059A0004045F6D32BE02168DFF8CC023040086098
:1059B0002068816821F48021816020688168EA681C
:1059C0002B691A43114381602068C16821F080016E
:1059D000C1602068816889061BD4C16821F0A001DC
:1059E000C16040F2E936FEF761FE05462068C068F6
:1059F00080060ED4FEF75AFE401BB042F6D3216853
:105A0000FF20486204206077002020770120BDE855
:105A1000F0812168FF204862012060770020207714
:105A2000BDE8F0810068836A4B600369C3F30E032D
:105A30008B600068DFF840321840030C03F03F0C25
:105A400081F800C088704FEA102C03F0400081F804
:105A500001C0C870D2B90A78100900EB800302F0C7
:105A60000F0000EB430008704A78100900EB800338
:105A700002F00F0000EB430048708A78100900EB39
:105A8000800302F00F0000EB430088700020704795
:105A9000F0B5044681B0207F012808BF022000F045
:105AA000B8800120207702206077002A487879D1D9
:105AB000C20603D500F0EF000A3048700022C87813
:105AC0000A2813D30A38521CC0B20A2821BF521C1C
:105AD0000A38C0B20A2809D30A38521CC0B20A28B0
