:020000040800F2
:1000000090070020715500088D5400088F54000897
:1000100095550008995500089D55000800000000FE
:10002000000000000000000000000000A1550008D2
:100030009154000800000000A555000893540008E2
:10004000A9550008AD550008B1550008B555000880
:10005000B9550008BD550008C1550008C555000830
:10006000C9550008CD550008D1550008D5550008E0
:10007000D9550008DD550008E1550008E555000890
:10008000E9550008ED550008F15500080000000092
:10009000000000000000000000000000F55500080E
:1000A000F9550008FD5500080156000805560008DE
:1000B000095600080D56000811560008155600088C
:1000C000195600081D56000821560008255600083C
:1000D000295600082D56000831560008000000007F
:1000E00097540008355600083956000800000000F3
:1000F0000000000000000000000000003D56000865
:100100000000000041560008455600084956000806
:1001100000000000000000000000000000000000DF
:100120004D5600085156000855560008595600080B
:100130005D56000800000000000000000000000004
:1001400000000000000000000000000061560008F0
:1001500065560008695600086D560008715600087B
:1001600075560008795600080000000000000000E5
:10017000000000000000000000000000000000007F
:10018000000000007D560008000000000000000094
:100190008156000830B5044681B0A0680068056843
:1001A0006878B0BB8DF800006946204600F000FE7C
:1001B00001283BD09DF800002178884236D1DFF835
:1001C0008C0A68600121204600F0FFFD01282DD037
:1001D0000021204600F019FE012827D000212046EA
:1001E00000F047FE012821D00021204600F062FEE9
:1001F00001281BD00221204600F07CFE012815D0EA
:10020000607801000BD10021204600F0D3FE0128C8
:100210000CD001202870607101B0002030BD012891
:10022000F7D1204600F0C6FE0128F2D1012001B02E
:1002300030BD50B5044681B0A0680068066870788B
:1002400060B9A07950B1F07828B90021204600F0BB
:10025000DCFD012805D00020B070A07100203070B6
:10026000607101B050BD000030B5044681B0A06897
:1002700000680568A07901284FD095ED010ADFEDEF
:100280009C0AB4EE600AF1EE10FA48BF10211AD4AD
:10029000DFED980AB4EE600AF1EE10FA48BF2021B3
:1002A00011D4DFED950AB4EE600AF1EE10FA48BF02
:1002B000302108D4DFED910AB4EE600AF1EE10FAB5
:1002C0004CBF40215021204600F09FFD01282AD03C
:1002D0006946204600F0B9FD012824D09DF80000B1
:1002E000B8B1102813D020280ED0302809D04028CB
:1002F00004D0502814D1DFF818060AE0DFF8000512
:1003000007E0DFF8480904E0DFF8480901E04FF0B2
:100310007E5068600120A870A071002001B030BD3F
:10032000DFF834096860012001B030BD30B5044603
:1003300081B0A06800680568A07950B1E87828B954
:100340000021204600F061FD012802D00020A870A5
:10035000A07101B030BD00B581B000F029FD0128C9
:1003600018BF002001B000BD10B582B004460020C7
:100370008DF800006946204600F01AFD012806D0DD
:100380009DF800002178884214BF0120002002B0AF
:1003900010BD000010B582B00C46002100916946E6
:1003A00000F0AFFE01280AD09DED000AB8EEC00AA9
:1003B000DFED950A80EE200A84ED000A002002B0ED
:1003C00010BD10B582B00C46694600F03EFD012814
:1003D0002ED09DF8000018B310281FD0202817D069
:1003E00030280FD0402807D050281DD1DFF8200535
:1003F000206002B0002010BDDFF80404206002B0CD
:10040000002010BDDFF84408206002B0002010BDBD
:10041000DFF84008206002B0002010BD4FF07E5091
:10042000206002B0002010BDDFF82C082060012001
:1004300002B010BD30B5054681B0A86800680468F8
:10044000A87901283FD104293AD8DFE801F00B0947
:1004500007050300502106E0402104E0302102E0BE
:10046000202100E01021284600F0CFFC012827D0F1
:100470006946284600F0E9FC012821D09DF80000DB
:1004800058B1102816D0202811D030280CD0402880
:1004900007D0502811D1DFF87804606001B0002047
:1004A00030BDDFF85C03F8E7DFF8A007F5E7DFF819
:1004B000A407F2E74FF07E50EFE7DFF89C0760609B
:1004C000012001B030BD0429FAD8DFE801F00D0A9F
:1004D00007050400F4E7DEE7C948DEE7DFF86C074C
:1004E000DBE7DFF87007D8E74FF07E50D5E7000074
:1004F0000100803F010020410100C8410100484245
:1005000030B5054681B0A86800680468A879DFEDB9
:100510007A0A0128B4EE600A4ED1F1EE10FA48BF13
:1005200010211AD4DFEDB30AB4EE600AF1EE10FA2E
:1005300048BF202111D4DFEDB00AB4EE600AF1EE1D
:1005400010FA48BF302108D4DFEDAC0AB4EE600ADF
:10055000F1EE10FA4CBF40215021284600F055FC26
:10056000012826D06946284600F06FFC012820D0DB
:100570009DF8000058B1102815D0202810D0302840
:100580000BD0402807D0502810D1DFF884036060DA
:10059000002001B030BD9A48F9E7DFF8B006F6E771
:1005A000DFF8B006F3E74FF07E50F0E7DFF8A8067B
:1005B0006060012001B030BDF1EE10FA48BFB7EE27
:1005C000000A1ED4DFED8B0AB4EE600AF1EE10FAD9
:1005D00048BFB2EE040A14D4DFED870AB4EE600A15
:1005E000F1EE10FA48BFB3EE090A0AD4DFED830A30
:1005F000B4EE600AF1EE10FA4CBF9FED810A9FED58
:10060000C40A84ED010AC3E70000C84200B51346DE
:1006100081B0012200F0B6FB012818BF002001B014
:1006200000BD00B581B06B468DF80020012200F0BE
:10063000B4FB012818BF002001B000BD10B582B086
:100640000C46694600F03AFD012803D09DF80100F0
:100650002070002002B010BD30B5044681B0A06803
:10066000006805682878B0BB8DF800006946204610
:1006700000F09EFB01283BD09DF8000021788842C5
:1006800036D1DFF8C80568600121204600F09DFBE7
:1006900001282DD00021204600F0B7FB012827D0EB
:1006A0000021204600F0E5FB012821D00021204652
:1006B00000F000FC01281BD00221204600F01AFCAB
:1006C000012815D0607801000BD10021204600F0F0
:1006D00071FC01280CD001206870607101B000200D
:1006E00030BD0128F7D1204600F064FC0128F2D18A
:1006F000012001B030BD00000100803F50B504462C
:1007000081B0A06800680668307860B9A07950B1FF
:10071000B07828B90021204600F077FB012805D0E9
:100720000020F070A07100207070607101B050BDA9
:1007300030B5044681B0A06800680568A07901283A
:100740004ED095ED010ADFED9E0AB4EE600AF1EE9F
:1007500010FA48BF10211AD4DFED260AB4EE600A61
:10076000F1EE10FA48BF202111D4DFED230AB4EED8
:10077000600AF1EE10FA48BF302108D4DFED1F0AFD
:10078000B4EE600AF1EE10FA4CBF40215021204631
:1007900000F03BFB012829D06946204600F055FBBC
:1007A000012823D09DF80000B0B1102812D02028D5
:1007B0000DD0302808D0402803D0502813D15448F9
:1007C0000AE0DFF8800407E0DFF8800404E0DFF8E7
:1007D000840401E04FF07E5068600120E870A07151
:1007E000002001B030BDDFF870046860012001B066
:1007F00030BD0000010020410100C8410100484215
:100800000000484230B5044681B0A0680068056821
:10081000A07950B1A87828B90021204600F0F5FA57
:10082000012802D00020E870A07101B030BD00B5F1
:1008300081B000F0BDFA012818BF002001B000BD52
:1008400010B582B0044600208DF8000069462046AD
:1008500000F0AEFA012806D09DF800002178884209
:1008600014BF0120002002B010BD10B582B00C46AC
:100870000021ADF80010694600F067FC01280CD09B
:10088000BDF9000000EE100AB8EEC00AF2EE040A4C
:1008900080EE200A84ED000A002002B010BD10B5E1
:1008A00082B00C46694600F0D0FA01282DD09DF8A0
:1008B000000010B310281ED0202816D030280ED0EB
:1008C000402806D050281CD11148206002B00020DA
:1008D00010BDDFF87003206002B0002010BDDFF80B
:1008E0006C03206002B0002010BDDFF868032060B8
:1008F00002B0002010BD4FF07E50206002B00020FA
:1009000010BDDFF854032060012002B010BD0000CC
:100910000000964230B5054681B0A86800680468BA
:10092000A87901283AD1042935D8DFE801F00B096C
:1009300007050300502106E0402104E0302102E0D9
:10094000202100E01021284600F05FFA012822D083
:100950006946284600F079FA01281CD09DF800006D
:1009600050B1102812D020280ED030280AD04028AC
:1009700006D050280DD1B448606001B0002030BDD1
:10098000B048F9E7B148F7E7B248F5E74FF07E50D5
:10099000F2E7B1486060012001B030BD0429FAD807
:1009A000DFE801F00B0907050400F4E7E3E7A548D9
:1009B000E2E7A648E0E7A748DEE74FF07E50DBE736
:1009C0000100803F30B5054681B0A8680068046822
:1009D000A879DFED980A0128B4EE600A4AD1F1EE59
:1009E00010FA48BF10211AD4DFED930AB4EE600A62
:1009F000F1EE10FA48BF202111D4DFED900AB4EED9
:100A0000600AF1EE10FA48BF302108D4DFED8C0AFD
:100A1000B4EE600AF1EE10FA4CBF40215021284696
:100A200000F0F3F9012822D06946284600F00DFABB
:100A300001281CD09DF8000050B1102812D02028A9
:100A40000ED030280AD0402806D050280DD17E483C
:100A50006060002001B030BD7A48F9E77B48F7E7D5
:100A60007C48F5E74FF07E50F2E77B48606001205C
:100A700001B030BDF1EE10FA48BFB7EE000A1ED447
:100A8000DFED6D0AB4EE600AF1EE10FA48BFB2EE87
:100A9000040A14D4DFED690AB4EE600AF1EE10FA2C
:100AA00048BFB3EE090A0AD4DFED650AB4EE600A66
:100AB000F1EE10FA4CBF9FED630A9FED630A84EDDF
:100AC000010AC6E700B5134681B0012200F05AF9C9
:100AD000012818BF002001B000BD00B581B06B46F1
:100AE0008DF80020012200F058F9012818BF0020DD
:100AF00001B000BD10B582B00C46694600F0DEFAC8
:100B0000012803D09DF800002070002002B010BD25
:100B100010B582B00C46694600F09BFB012803D05B
:100B20009DF801002070002002B010BD10B582B009
:100B30000C46694600F08DFB012803D09DF80200A9
:100B40002070002002B010BD10B582B00C4669467E
:100B500000F07FFB012803D09DF8030020700020E7
:100B600002B010BD10B582B00C46694600F071FBB2
:100B7000012803D09DF804002070002002B010BDB1
:100B800000B5012981B006D800F0F3F9012818BF9B
:100B9000002001B000BD012001B000BD00B5012959
:100BA00081B006D800F0C4F9012818BF002001B0B8
:100BB00000BD012001B000BD10B582B00C466946F1
:100BC00000F047FB012803D09DF8000020700020B2
:100BD00002B010BD70B582B00446002001900D46F1
:100BE000164601A9204600F08CFA01281FD09DED81
:100BF000010AB8EEC00ADFED160A80EE200A85ED84
:100C0000000A0020ADF800006946204600F09DFA79
:100C100001280CD0BDF9000000EE100AB8EEC00AA1
:100C2000F2EE040A80EE200A86ED000A002002B0EF
:100C300070BD00000100803F010020410100C8415B
:100C40000100484200004842000096420000C841AE
:100C50000000C84200002041000080BF10B582B0F3
:100C60000C46694600F0B1FA012803D09DF8000057
:100C70002070002002B010BD00B50A0018BF202966
:100C800081B007D0402918BF602903D0802918BF40
:100C9000E02906D100F079FA012818BF002001B040
:100CA00000BD012001B000BD00B581B000F0C1FA67
:100CB000012818BF002001B000BD00B581B000F0D0
:100CC00098FA012818BF002001B000BD00B5012925
:100CD00081B006D800F04DF9012818BF002001B0FE
:100CE00000BD012001B000BD00B581B029B10229CD
:100CF00013D00AD3012001B000BD012100F09CF9FE
:100D000001280FD0002001B000BD012100F0B5F98D
:100D10000128F7D1012001B000BD012100F06BF9DD
:100D20000128EFD1012001B000BD00B581B029B18B
:100D3000022912D009D3012001B000BD00F07CF9D6
:100D400001280FD0002001B000BD002100F095F96E
:100D50000128F7D1012001B000BD002100F04BF9BE
:100D60000128EFD1012001B000BD8268521C8260D1
:100D7000426832B10268531C036011704168491E19
:100D80004160704710B51C461346224600F058FBE0
:100D9000401E8041C043C00F10BD10B51C46134615
:100DA000224600F003FB401E8041C043C00F10BD2F
:100DB00000B50A4681B001230F2100F041FB401E1F
:100DC0008041C043C00F01B000BD30B581B00D46B9
:100DD000044601236A461A2100F032FB10B10120BB
:100DE00001B030BD9DF8000000F0FE0028438DF8F2
:100DF000000001236A461A21204600F0D7FA401E5F
:100E00008041C043C00F01B030BD30B581B00D4648
:100E1000044601236A46102100F012FB10B10120A4
:100E200001B030BD9DF8000000F08F0028438DF820
:100E3000000001236A461021204600F0B7FA401E48
:100E40008041C043C00F01B030BD10B582B00C4628
:100E500001236A46102100F0F3FA10B1012002B01C
:100E600010BD9DF8000000F07000207002B000205E
:100E700010BD30B581B00D46044601236A461021ED
:100E800000F0DEFA10B1012001B030BD9DF8000085
:100E900000F0F70040EAC5008DF8000001236A4623
:100EA0001021204600F082FA401E8041C043C00F4E
:100EB00001B030BD30B581B00D46044601236A460D
:100EC000102100F0BDFA10B1012001B030BD9DF835
:100ED000000000F0FB0028438DF8000001236A4663
:100EE0001021204600F062FA401E8041C043C00F2E
:100EF00001B030BD30B581B00D46044601236A46CD
:100F0000102100F09DFA10B1012001B030BD9DF814
:100F1000000000F0FD0028438DF8000001236A4620
:100F20001021204600F042FA00B1002001B030BD8F
:100F300030B581B00D46044601236A46112100F008
:100F40007FFA10B1012001B030BD9DF8000000F023
:100F5000BF0040EA85108DF8000001236A46112188
:100F6000204600F023FA401E8041C043C00F01B06C
:100F700030BD30B581B00D46044601236A461121CB
:100F800000F05EFA10B1012001B030BD9DF8000004
:100F900000F0DF0040EA45108DF8000001236A46AA
:100FA0001121204600F002FA401E8041C043C00FCC
:100FB00001B030BD30B581B00D46044601236A460C
:100FC000112100F03DFA10B1012001B030BD9DF8B3
:100FD000000000F0EF0040EA05108DF8000001234A
:100FE0006A461121204600F0E1F9401E8041C043CD
:100FF000C00F01B030BD30B581B00D4604460123AD
:101000006A46122100F01CFA10B1012001B030BD77
:101010009DF8000000F0F70040EAC5008DF80000E0
:1010200001236A461221204600F0C0F9401E80418B
:10103000C043C00F01B030BD30B581B00D4604468D
:1010400001236A46122100F0FBF910B1012001B022
:1010500030BD9DF8000000F0EF0040EA05108DF86B
:10106000000001236A461221204600F09FF9401E2D
:101070008041C043C00F01B030BD30B581B00D46D6
:10108000044601236A46122100F0DAF910B101206A
:1010900001B030BD9DF8000000F0DF0040EA4510CF
:1010A0008DF8000001236A461221204600F07EF9E7
:1010B000401E8041C043C00F01B030BD10B582B0AA
:1010C0000C4601236A46272100F0BAF910B101202D
:1010D00002B010BD9DF8000000F0010060709DF8A6
:1010E000000000F0020020709DF80000C0F34010E6
:1010F000A0709DF80000C0F30010E07002B0002066
:1011000010BD10B582B00C4603236A46282100F0BA
:1011100097F910B1012002B010BD9DF800009DF8B4
:10112000011040EA01209DF8021040EA014001024E
:1011300048BF40F07F4064214843C11200EB11508A
:101140000013206002B0002010BD10B582B00C4624
:1011500002236A462B2100F073F910B1012002B07E
:1011600010BD9DF801009DF8001001EB002000B2B9
:1011700000EB800148004A4980FB0121481100EB47
:10118000D070208002B0002010BD30B581B00D4677
:10119000044601236A46142100F052F910B10120DF
:1011A00001B030BD9DF8000000F01F0028438DF80D
:1011B000000001236A461421204600F0F7F8401E83
:1011C0008041C043C00F01B030BD10B582B00C46A5
:1011D00001236A46142100F033F910B1012002B056
:1011E00010BD9DF8000000F0E000207002B000206B
:1011F00010BD30B581B00D46044601236A46142166
:1012000000F01EF910B1012001B030BD9DF80000C2
:1012100000F0E00028438DF8000001236A46142105
:10122000204600F0C3F8401E8041C043C00F01B00B
:1012300030BD10B50C4601232246142100F000F900
:1012400008B1012010BD207800F01F0020700020A0
:1012500010BD10B582B00C4601236A46262100F06D
:10126000EFF810B1012002B010BD9DF80000C009D8
:1012700020719DF80000C0F38010E0709DF8000020
:1012800000F03F00411E89412070C90F6170207835
:1012900020280CBF01200020A07002B0002010BD4B
:1012A0001F85EB5130B5B94C87B0204600F020FEC9
:1012B00000284BD1B648B74D606001A90020A0605E
:1012C0003320E0604FF480402061B348206000206C
:1012D0000090286940F002002861286900F00200AF
:1012E000009000984FF4407001901220029002206C
:1012F00004900020039004200590A84800F0FCFD15
:10130000002000900022286A40F40010286200218A
:10131000286A00F4001000900098286840F400103B
:101320002860286820F4001028601F2000F0DDFEEF
:101330001F2000F003FF00220021202000F0D5FE36
:10134000202000F0FBFE204600F02EF9204600F0A1
:10135000CFFD20280CBF0020012007B030BD00B514
:1013600087B0002000908E48016841F002010160C2
:1013700001A9006800F00200009000984FF480601E
:101380000190884802900220049000200390834836
:1013900000F0B2FD00220021282000F0A6FE282047
:1013A00000F0CCFE002007B000BD00002DE9F043A6
:1013B000044683B02078332818BF40288846164654
:1013C0001F4603D0B12806D0BC2822D1022F20DB33
:1013D00048F080081DE00025380016D0DFF8AC91F9
:1013E0004FF48050029000960120019005EB080216
:1013F000A1780123D2B2484600F066F908B1484608
:1014000015E06D1C761CBD42EADB002003B0BDE890
:10141000F0834FF480500290019700965B4DA178C5
:1014200001234246284600F04FF928B1284600F033
:101430002AF900F04EF8012003B0BDE8F083000067
:101440002DE9F043044683B02078332818BF4028A4
:10145000884616461F4603D0B12806D0BC2822D1A4
:10146000022F20DB48F080081DE00025380016D050
:10147000DFF818914FF480500290009601200190FF
:1014800005EB0802A1780123D2B2484600F0A1FA88
:1014900008B1484615E06D1C761CBD42EADB002011
:1014A00003B0BDE8F0834FF480500290019700969E
:1014B000364DA17801234246284600F08AFA28B129
:1014C000284600F0E0F800F004F8012003B0BDE881
:1014D000F08330B52D4C87B0204600F009FD002880
:1014E0004BD12B482B4D606001A90020A060332018
:1014F000E0604FF480402061274820600020009089
:10150000286940F002002861286900F0020000907C
:1015100000984FF440700190122002900220049035
:1015200000200390042005901C4800F0E5FC0020FA
:1015300000900022286A40F4001028620021286AE6
:1015400000F4001000900098286840F40010286013
:10155000286820F4001028601F2000F0C6FD1F201E
:1015600000F0ECFD00220021202000F0BEFD202034
:1015700000F0E4FD204600F017F8204600F0B8FC2B
:1015800020280CBF0020012007B030BD500B0020E8
:10159000801A060020380240005400400004024037
:1015A000303802400000111030B5040081B008BF8F
:1015B000012066D094F83D0020B984F83C00204614
:1015C00000F099FC242084F83D0020680168490857
:1015D0004900016000F088FEDFF8E020A0FB022156
:1015E0002268C90C51606368DFF8D420934208D3A5
:1015F0004FF4967313FB01F1DFF8C850A1FB0553BC
:10160000590A2368491C19626168914208D249004D
:10161000B0FBF1F0C0F30B01042913D2042011E058
:10162000A26822B901EB4101B0FBF1F005E01922FB
:101630005143B0FBF1F040F4804001050CBF0120A4
:1016400040F400402168C861E069216A08432168CC
:1016500008602069E1680843216888606069A169C1
:1016600008432168C8602068016841F001010160F9
:1016700000202064202084F83D000020206384F8AE
:101680003E0001B030BD10B5040001D1012010BDF5
:10169000242084F83D002068016849084900016061
:1016A000204600F067FE0020206484F83D0020639F
:1016B00084F83E0084F83C0010BD000006BD37866B
:1016C000A1860100986E12832DE9F04381B0044693
:1016D00089461546984600F04FFE064694F83D00B0
:1016E000202812D120688169890712D500F044FEB4
:1016F000801B1A28F6D300202063202084F83D00A8
:10170000002084F83E0084F83C00022001B0BDE8CF
:10171000F08394F83C100129F7D0012184F83C10A3
:101720000168C90703D4016841F001010160206824
:10173000016821F400610160212084F83D0040200F
:1017400084F83E0000202064089860620998608553
:10175000DFF89807E062608D20852068016841F419
:10176000807101600A9F20684169C9071DD417F183
:10177000010FF8D027B100F0FFFD801B8742F2D2A5
:1017800000202063202084F83D00002084F83E00E3
:1017900084F83C00206C042840F08B80002084F802
:1017A0003C0001B00120BDE8F08309F0FE010161B9
:1017B00020684169890720D4416949050AD5016833
:1017C00041F4007101606FF4806021684861042079
:1017D000206408E017F1010FEAD027B100F0CCFD3A
:1017E000801B8742E4D200202063202084F83D0043
:1017F000002084F83C00206CCCE700210091416976
:10180000009180690090009821684869000625D4FD
:101810004869400515D56FF4806048610420206454
:1018200000202063202084F83D00002084F83C0044
:10183000206C0428AED12068016841F40071016079
:10184000A8E717F1010FDFD027B100F095FD801B4D
:101850008742D9D2206C40F02000E0E7B8F1010FB8
:1018600023D0280A08612068416909061DD441690E
:10187000490504D56FF48061416104200BE017F144
:10188000010FF0D027B100F077FD801B8742EAD22C
:10189000206C40F02000206400202063202084F889
:1018A0003D00002084F83C00C2E72068EDB20561ED
:1018B00011E0002084F83C00032001B0BDE8F08373
:1018C000606A421C626200780861208D401E20859B
:1018D000608D401E6085208D00283ED020684169C3
:1018E000090628D44169490518D56FF48061416122
:1018F0000420206400202063202084F83D00002084
:1019000084F83C00206C0428D6D12068016841F49A
:1019100000710160012001B0BDE8F08317F1010FF3
:10192000DCD027B100F028FD801B8742D6D2206C86
:1019300040F02000DDE7616A4A1C626209780161BB
:10194000208D401E2085618D491E618521684A6970
:101950005207C0D580B20028B2D12068416949073A
:1019600028D44169490518D56FF48061416104208C
:10197000206400202063202084F83D00002084F8AB
:101980003C00206C042897D12068016841F4007164
:101990000160012001B0BDE8F08317F1010FDCD038
:1019A00027B100F0E9FC801B8742D6D2206C40F0C2
:1019B0002000DDE7016841F400710160202084F817
:1019C0003D00002084F83E0084F83C0001B0BDE8F2
:1019D000F0832DE9F04381B00446884616469946C7
:1019E00000F0CAFC074694F83D00202812D1206878
:1019F0008169890712D500F0BFFCC01B1A28F6D3F5
:101A000000202063202084F83D00002084F83E0060
:101A100084F83C00022001B0BDE8F08394F83C104B
:101A20000129F7D0012184F83C100168C90703D4CB
:101A3000016841F0010101602068016821F4006142
:101A40000160222084F83D00402084F83E00002000
:101A500020640898606209986085DFF89004E0626D
:101A6000608D20852068016841F4806101602068F4
:101A7000016841F4807101600A9D20684169C907CD
:101A80000BD415F1010FF8D0002D00F0BB8000F051
:101A900073FCC01B8542F0D2B4E008F0FE01016186
:101AA0002068416989071FD4416949050AD5016841
:101AB00041F4007101606FF4806021684861042086
:101AC000206408E015F1010FEAD025B100F054FCC4
:101AD000C01B8542E4D200202063202084F83D0012
:101AE000002084F83C00B5E000210091416900919C
:101AF0008069009000982168486900061DD44869F3
:101B000040050DD56FF480604861042020640020FA
:101B10002063202084F83D00002084F83C0057E03A
:101B200015F1010FE7D025B100F026FCC01B85425E
:101B3000E1D2206C40F02000E8E7B9F1010F23D09A
:101B4000300A08612068416909061DD441694905C8
:101B500004D56FF48061416104200BE015F1010FA1
:101B6000F0D025B100F008FCC01B8542EAD2206C01
:101B700040F02000206400202063202084F83D00F5
:101B8000002084F83C0023E02068F6B2066120685B
:101B90004169090625D44169490504D56FF480617E
:101BA000416104200BE015F1010FF0D025B100F0E8
:101BB000E3FBC01B8542EAD2206C40F02000206489
:101BC00000202063202084F83D00002084F83C00A1
:101BD000206C04283FD12068016841F40071016045
:101BE00039E0016841F48071016020684169C907EA
:101BF00013D415F1010FF8D025B100F0BDFBC01BC7
:101C00008542F2D200202063202084F83D0000208D
:101C100084F83E0084F83C001DE048F00101C9B2A0
:101C200001612068416989072AD4416949051CD5A9
:101C3000016841F4007101606FF4806021684861BF
:101C40000420206400202063202084F83D00002030
:101C500084F83C00206C206C042817D1002084F804
:101C60003C00012001B0BDE8F08315F1010FD8D090
:101C7000002DE7D000F080FBC01B8542D1D2E1E708
:101C8000218D0A0009D1002100910FE0002084F885
:101C90003C0001B00320BDE8F083012910D10168A8
:101CA00021F480610160002000902068416900916A
:101CB000816900910099016841F40071016021E09F
:101CC00002290CD1016821F480610160206801685B
:101CD00041F40061016000200090206801E00021D3
:101CE0000091416900918069009000980AE0606A63
:101CF000421C626209690170208D401E2085608D42
:101D0000401E6085208D010000F0E480042880F0F2
:101D1000A580012824D1216848694006E7D4486994
:101D2000C00606D56FF010004861002020642063D3
:101D300009E025B100F020FBC01B8542EBD2206CEE
:101D400040F020002064202084F83D00002084F82A
:101D50003C00206C202884D1032001B0BDE8F08332
:101D600002282AD120684169490711D415F1010FD1
:101D7000F8D025B100F000FBC01B8542F2D2002054
:101D80002063202084F83D00002084F83E007EE798
:101D9000016841F400710160606A411C6162216860
:101DA00009690170208D401E2085608D401E608570
:101DB000606A411C616221689CE7206841694907AB
:101DC00011D415F1010FF8D025B100F0D5FAC01BE0
:101DD0008542F2D200202063202084F83D000020BC
:101DE00084F83E0053E7016821F480610160606A75
:101DF000411C6162216809690170208D401E2085A7
:101E0000608D401E608520684169490711D415F135
:101E1000010FF8D025B100F0AFFAC01B8542F2D215
:101E200000202063202084F83D00002084F83E003C
:101E30002DE7016841F400710160606A411C616234
:101E4000216809690170208D401E2085608D401E2B
:101E50006085606A411C616221684BE720684169C6
:101E6000490621D44169C90613D56FF010014161BB
:101E7000002020642063202084F83D00002084F8A6
:101E80003C00206C20287FF4ECAE032001B0BDE8BC
:101E9000F08325B100F070FAC01B8542DED2206CC1
:101EA00040F020002064E6E7616A4A1C6262006933
:101EB0000870208D401E2085608D401E6085206842
:101EC000416949077FF51EAF616A4A1C6262006979
:101ED000087011E7202084F83D00002084F83E00BF
:101EE00084F83C0001B0BDE8F08300000000FFFF73
:101EF00090F83D00704770472DE9F04F002381B006
:101F0000024600249946DFF8A4A1694F4FF00F0E56
:101F100001200D68984000EA0508804540F0A78040
:101F20004D68022D18BF122D11D1DD0802EB850C72
:101F300009F01C05DCF820600EFA05FB26EA0B060A
:101F4000D1F810B00BFA05F53543CCF82050032634
:101F50001568A6406FEA060C0E7906F003060CEA37
:101F60000505A640354315604D68012D18BF022DAB
:101F700003D0112D18BF122D0FD19568CE680CEA31
:101F80000505A64035439560556825EA00004D6873
:101F9000C5F300159D4028435060D0688D680CEA59
:101FA0000000A5402843D0604868C0005FD50020ED
:101FB000009009F00C0C38683E4E40F480403860C8
:101FC000386800F4804000900098980856F8205037
:101FD0000EFA0CF6B543384EB24208BF002613D0B5
:101FE000364EB24208BF01260ED0354EB24208BF6F
:101FF000022609D0334EB24208BF032604D0324E27
:10200000B2420CBF0426072606FA0CF62E43294DD1
:1020100045F820606FEA0800DAF8005000EA050C85
:102020004D68ED0348BF48EA0C0CCAF800C0DAF866
:10203000045000EA050C4D68AD0348BF48EA0C0C9B
:10204000CAF804C0DAF8085000EA050C4D68ED0241
:1020500048BF48EA0C0CCAF808C0DAF80C5028400F
:102060004D68AD0248BF48EA0000CAF80C005B1C8E
:10207000A41C102B09F10409FFF44AAF01B0BDE81C
:10208000F08F00690840401E8041C043C00F704778
:1020900002B90904816170470C4A136803421CBFEE
:1020A000106000F040BC704700000000003C0140A0
:1020B0004438024008380140000002400004024059
:1020C00000080240000C024000100240143C014095
:1020D00027490A684FF6FF0300021A4000F4E06047
:1020E0001043244A10430860704730B4204B1B68EB
:1020F000C3F30223C3F10704052C28BF04241D1DCC
:10210000072D34BF0023DB1E012505FA04F4641EED
:102110002140994005FA03F35B1E1A40114309015F
:10212000002807D5144A00F00F00104400F8041CE2
:1021300030BC7047114A115430BC7047012100F087
:102140001F0291400E4A400942F820107047401E7D
:10215000B0F1807F01D3012070470A494860F02028
:1021600081F8130D00208860072008600020704768
:102170000CED00E00000FA0518ED00E000E400E0DE
:1021800000E100E010E000E0F0B5614E81B00446EF
:10219000D6F800040D4600F00F00A84207D286F8DA
:1021A0000054D6F8000400F00F00A84276D1207841
:1021B000800705D5B068A16820F0F0000843B06042
:1021C0002078C0075CD56068012802D13168890396
:1021D00005E0022818BF032805D13168890105D41C
:1021E000012001B0F0BD3168890757D5B168890871
:1021F00040EA8100B06000F0BFF80746606801283F
:102200000ED1B06800F00C00042839D000F0B4F80A
:10221000C01B41F289318842F3D3032001B0F0BDE5
:1022200002280ED1B06800F00C00082828D000F079
:10223000A3F8C01B41F289318842F3D3032001B0D7
:10224000F0BD03280ED1B06800F00C000C2817D0A8
:1022500000F092F8C01B41F289318842F3D3032089
:1022600001B0F0BDB06810F00C0F09D000F084F898
:10227000C01B41F289318842F4D3032001B0F0BD84
:10228000D6F8000400F00F0085420AD286F8005408
:10229000D6F8000400F00F00A84202D0012001B0DF
:1022A000F0BD2078400705D5B068E16820F4E05023
:1022B0000843B0602078000706D5B068216920F493
:1022C000604040EAC100B06000F02CF8B2681149EB
:1022D000C2F30312895CC8400F4908600F2000F068
:1022E00029FC002001B0F0BD0B480C4A00681268C0
:1022F0000B49C2F38222895CC84070470648074AEE
:10230000006812680649C2F34232895CC8407047CF
:1023100000380240645300082C02002008380240B4
:102320008C5500081048416801F00C01042903D0C5
:10233000082903D00D4870470D48704701680268AE
:10234000520201F03F014CBF094A084AB2FBF1F1C9
:1023500002680068C0F30140C2F38812401C514378
:102360004000B1FBF0F07047043802400024F40054
:1023700000127A007047000001480068704700BFF3
:10238000B80C00202DE9F04F81B0DFF814462DED98
:10239000048B86B000F0E4FB00F000FC002000F0AD
:1023A00045FC0121002000F081FC00F0DBFC04F181
:1023B0000801002000F036FD01282FD004F10C01A7
:1023C000012000F02DFE012828D0A06800F08CFD2F
:1023D000012847D10FF2D0530FF23C724FF48071B5
:1023E00004F1100000F0E4FE04F1100000F002FF20
:1023F00082B241F2883304F11001DFF8A80500F041
:1024000045FF002000F03CFC642001F0F5F80020BE
:1024100000F041FC642001F0EFF8F2E70FF288537E
:102420000FF2F4624FF4807104F1100000F0C0FE6E
:1024300004F1100000F0DEFE82B241F2883304F1B4
:102440001001DFF8600500F021FF002000F018FC0B
:10245000642001F0D1F8002000F01DFC642001F0A0
:10246000CBF8F2E7E06800F093FE0128B2D0A06854
:10247000002100F049FD01281DD0A068002100F0D6
:10248000A5FD012817D0A068012100F09FFD0128BB
:1024900011D0A068022100F099FD01280BD0A0689E
:1024A000002100F085FD012805D0A068052100F07D
:1024B0009BFD012823D10FF2F0430FF25C624FF431
:1024C000807104F1100000F073FE04F1100000F0C0
:1024D00091FE82B241F2883304F11001DFF8C404A6
:1024E00000F0D4FE002000F0CBFB642001F084F863
:1024F000002000F0D0FB642001F07EF8F2E70FF23C
:10250000B0424FF4807104F1100000F051FE04F16C
:10251000100000F06FFEDFF88C5441F2883882B270
:10252000434604F11001284600F0B0FE0FF2A05A15
:102530000FF288590FF2C84B9FED018B06E000BFE8
:102540000000000000005940022020712079401E48
:102550000328FBD8DFE810F005005D008A00A80121
:10256000F4E70FF278424FF4807104F1100000F0AC
:102570001FFE04F1100000F03DFE82B2434604F15C
:102580001001284600F082FE0FF2A0424FF4807145
:1025900004F1100000F00CFE04F1100000F02AFE1F
:1025A00082B2434604F11001284600F06FFE4FF45A
:1025B0007A7001F021F8A068202100F0EBFC0128DE
:1025C00005D0A068012100F01DFD0128BCD10FF24B
:1025D000D8330FF244524FF4807104F1100000F030
:1025E000E7FD04F1100000F005FE82B2434604F15D
:1025F0001001284600F04AFE002000F041FB642054
:1026000000F0FAFF002000F046FB642000F0F4FF29
:10261000F2E7A068A11C00F0AEFC012805D106B0CD
:10262000BDEC048B01B0BDE8F08FA078E278904259
:1026300012D0E070D9A24FF4807104F1100000F0C4
:10264000B7FD04F1100000F0D5FD82B2434604F15D
:102650001001284600F01AFE207808B103202071EE
:10266000A07820287FF472AF20786FE7A068611C03
:1026700000F05AFC012821D10FF22C330FF29842BE
:102680004FF4807104F1100000F092FD04F110008D
:1026900000F0B0FD82B2434604F11001284600F07C
:1026A000F5FD002000F0ECFA642000F0A5FF00200A
:1026B00000F0F1FA642000F09FFFF2E76078002854
:1026C0003FF444AF002000F0DBFA00208DF8080052
:1026D0000490039002A9A06800F04DFC012800F0CE
:1026E000C180A3780FF278324FF4807104F11000AA
:1026F00000F05EFD04F1100000F07CFD82B2434664
:1027000004F11001284600F0C1FD4FF47A7000F08A
:1027100073FF0FF28C324FF4807104F1100000F05F
:1027200047FD04F1100000F065FD82B2434604F15C
:102730001001284600F0AAFD002614E001908DED5E
:10274000009A52464FF4807104F1100000F030FD01
:1027500004F1100000F04EFD82B2434604F1100176
:10276000284600F093FD9DF80800864262DAA068D2
:1027700003AA04A900F0E7FB012873D09DED040A29
:10278000B5EE400AF1EE10FAB8BFB1EE400ABDEE68
:10279000C09AF8EE490A30EE600A10EE100A00F016
:1027A0003DFF53EC182B00F061FF41EC100B01F0E2
:1027B0002EF851EC100B01F037F80190761C8DEDDE
:1027C000009A33464A464FF4807104F1100000F03D
:1027D000EFFC04F1100000F00DFD82B2434604F15D
:1027E0001001284600F052FD9DED030AB5EE400AA7
:1027F000F1EE10FAAEBF00270127B1EE400ABDEEA0
:10280000C09AF8EE490A30EE600A10EE100A00F0A5
:1028100005FF53EC182B00F029FF41EC100B00F0E2
:10282000F6FF51EC100B00F0FFFF002F14BF2D231B
:102830002B2383E70FF2A8224FF4807104F11000DC
:1028400000F0B6FC04F1100000F0D4FC82B2434664
:1028500004F11001284600F019FD002000F01BFAD9
:10286000042072E60FF240130FF2AC224FF4807195
:1028700004F1100000F09CFC04F1100000F0BAFC20
:1028800082B2434604F11001284600F0FFFC00200C
:1028900000F0F6F9642000F0AFFE002000F0FBF934
:1028A000642000F0A9FEF2E7A068002100F072FBAE
:1028B000012816D05A464FF4807104F1100000F040
:1028C00077FC04F1100000F095FC82B2434604F15D
:1028D0001001284600F0DAFC00202070A070E070A3
:1028E00033E60FF2C4030FF230224FF4807104F18B
:1028F000100000F05DFC04F1100000F07BFC82B2DF
:10290000434604F11001284600F0C0FC002000F00E
:10291000B7F9642000F070FE002000F0BCF96420DC
:1029200000F06AFEF2E710B5B0F5005F0BD10020B1
:1029300000F000FA002802BF194C2079002804BFDB
:102940000120207110BDB0F5806F154C02D101201F
:10295000207010BD0FF2A8130FF2BC124FF480715B
:1029600004F1100000F024FC04F1100000F042FC1F
:1029700082B241F2883304F110010A4800F086FC6B
:10298000002000F07DF9642000F036FE002000F009
:1029900082F9642000F030FEF2E700002E00000013
:1029A00014010020900900206D61696E0000000094
:1029B0000D0A2D2D2D2D2D2D204C505332324842F5
:1029C000204649464F204D6F64652044454D4F20B9
:1029D0002D2D2D2D2D2D0D0A000000004649464FAE
:1029E0005F494E544552525550545F545950453AE0
:1029F000205448524553484F4C440D0A00000000F3
:102A00005072657373205553455220627574746F0C
:102A10006E20746F20737461727420746865204432
:102A2000454D4F2E2E2E0D0A000000000D0A4C5071
:102A300053323248422073746172747320746F2071
:102A400073746F72652074686520646174612069B5
:102A50006E746F204649464F2E2E2E0D0A0A000036
:102A60000D0A25642073616D706C657320696E209A
:102A70004649464F2E0D0A0A537461727420746FD2
:102A800020646F776E6C6F6164206461746120668E
:102A9000726F6D204649464F2E2E2E0D0A0A0000F9
:102AA0005B444154412023235D2020505245535321
:102AB0002020202054454D500D0A00005B44415415
:102AC00041202532645D202025642E2530326400AB
:102AD0002020256325642E253032640D0A00000075
:102AE0000D0A4649464F20646F776E6C6F61642013
:102AF000636F6D706C657465642E0D0A0D0A0000BD
:102B000048414C5F4750494F5F455854495F4361C6
:102B10006C6C6261636B00000D0A4572726F72200B
:102B2000696E20272573272066756E6374696F6E42
:102B30002E0D0A0010B504460748084A0068A0FB9D
:102B40000221480AFFF703FB002221464FF0FF3025
:102B5000FFF7CBFA002010BD2C020020986E1283E4
:102B600000B50C4881B0016841F400710160016852
:102B700041F480610160016841F4807101600320CB
:102B8000FFF7A6FA0F20FFF7D5FF00F005F80020A9
:102B900001B000BD003C02407047000000B593B09A
:102BA000002000901F48016841F0805101600068DA
:102BB00000F0805000900098002000901A480168B2
:102BC00021F4404141F400410160006800F44040BC
:102BD00000900098022006900120099010200A9091
:102BE00002200C9000200D9010200E904FF4A87041
:102BF0000F90042010900720119006A800F03AFED4
:102C00000F200190022102200290002003904FF437
:102C1000805004900020059001A8FFF7B5FA13B08A
:102C200000BD00BF403802400070004070B586B063
:102C3000044600200090DFF81061DFF81001016801
:102C400041F00101016001A9006800F0010000905D
:102C500000980FF2041030F81450019501200290F2
:102C6000002003900220049056F82400FFF744F956
:102C700056F8240000222946FFF70AFA06B070BD74
:102C80000FF2D401DFF8C03031F8101053F82000F3
:102C90000122FFF7FDB90FF2C001DFF8AC3031F8C7
:102CA000101053F820000022FFF7F2B930B587B0BA
:102CB0000446002000900D46DFF89000016841F0C6
:102CC00004010160006800F00400009028000098F2
:102CD00010D10FF2880030F81400019001A90020F3
:102CE0000290022003900490DFF8640050F8240062
:102CF000FFF702F9012D1BD10FF2600030F814002C
:102D0000019001A900200390DFF848000290DFF84D
:102D1000400050F82400FFF7EFF80FF24400045D84
:102D200000220F2160B2FFF7E0F960B2FFF706FA68
:102D300007B030BD0FF22401DFF8142031F8101075
:102D400052F82000FFF79DB92402002030380240DD
:102D500028020020000021102000000000200000B8
:102D60002800000010B586B000200090294C2A48A9
:102D7000016841F001010160016801F00101009169
:102D8000009900210091016841F001010160016892
:102D900001F001010091009900210091016941F4C5
:102DA0000031016101A9006900F400300090009831
:102DB0000420019002200290002003900220049041
:102DC000072005902046FFF797F80820019001A9F9
:102DD000072005902046FFF78FF8104C1048206020
:102DE0004FF4E13060600020A060E0602061A061ED
:102DF0000C206061204600F019FA00B1FEE704F1F2
:102E00004000A0624FF48070A0850020E06306B00F
:102E100010BD000000000240303802409009002040
:102E20000044004000B581B0002200280A60084636
:102E300006D000F00CF8012806D0002001B000BD3B
:102E400000F005F80128F8D1012001B000BD30B52F
:102E5000214D04466879012881B03AD0FEF722FA64
:102E6000012836D0B120287000206870BA20A870E0
:102E70000020A880A8710120E87105F11400A86065
:102E80001648E860164828611648E86105F11C00FC
:102E900068610020A8612560E8680168080008D121
:102EA00000200021002207C503C5206001B00120D9
:102EB00030BD28468847012808D12068142100F039
:102EC00043FE0020206001B0012030BDFEF747FA2C
:102ED000002001B030BD0000840C00203400002030
:102EE0009C000020A40C002000B581B018B1C1687E
:102EF00089680A0002D1012001B000BD884701287D
:102F000018BF002001B000BD00B581B018B1C26883
:102F1000126A130002D1012001B000BD90470128C0
:102F200018BF002001B000BD00281CBF0269002AA4
:102F300007D031B10378B12B03D1D268130018BF89
:102F400010470120704710B481B000281CBF0369EE
:102F5000002B0CD0002918BF002A08D00478B12C0F
:102F600005D1DB691C0002D001B010BC184701B0CC
:102F700010BC0120704700281CBF0269002A07D03E
:102F800031B10378B12B03D19269130018BF1047F8
:102F90000120704700281CBF0269002A06D0037870
:102FA000B12B03D1526A130018BF1047012070479C
:102FB00000281CBF0269002A06D00378B12B03D178
:102FC000526B130018BF10470120704700281CBF28
:102FD0000269002A06D00378B12B03D1926B13004B
:102FE00018BF10470120704700281CBF0269002A43
:102FF00006D00378B12B03D1D26A130018BF104753
:103000000120704700281CBF0269002A06D00378FF
:10301000B12B03D15269130018BF1047012070472C
:1030200010B50C460021216068B10128204611D05E
:1030300000F016F8012804D1204600F053F80128CA
:103040000CD0002010BD204600F00AF80128F8D16D
:10305000012010BD00F046F80128F2D1012010BD7A
:1030600030B5454D04466879012881B038D0FEF767
:1030700019F9012834D0BC20287000206870BE20C7
:10308000A8700020A880A8710120E87105F128002F
:10309000A8603A48E860002028613948A86305F133
:1030A0003800A8620020E8622560E868016808002E
:1030B00008D100200021002207C503C5206001B00F
:1030C000012030BD28468847012808D120681421F6
:1030D00000F03AFD0020206001B0012030BD00204A
:1030E00001B030BD30B5244D0446687E012881B062
:1030F0003FD0FEF7D7F801283BD0B120287500203B
:103100006875BA20A8750120287600206876A87610
:103110000120E87605F13000E8611A4828621A4873
:1031200068621A48E86305F13C0028630020686380
:1031300005F114002060286A0168080005F11400F8
:1031400008D10021002200230EC006C0216001200A
:1031500001B030BD8847012808D12068142100F053
:10316000F3FC0020206001B0012030BDFEF7F7F82D
:10317000002001B030BD0000440C00200000002001
:10318000B40C002068000020D8000020A40C00200F
:1031900000B581B018B1C16889680A0002D1012068
:1031A00001B000BD8847012818BF002001B000BD54
:1031B00008B400B584B005AB03930023029311B9A2
:1031C0000093019302E00090481E019003AB694612
:1031D000074878441A3000F0BBFC009911B1009AFE
:1031E00000211170002858BF029804B05DF808FB58
:1031F0007BDBFFFF00F10103810704D010F8011B06
:1032000089B18107FAD10268B2F10131914311F01D
:10321000803F04BF50F8042FF6E710F8011B11B1EE
:1032200010F8011BFBE7C01A7047000010B504003E
:1032300001D1012010BD94F8390020B984F838007C
:10324000204600F0D7F9242084F839002068C168AE
:1032500021F40051C160204600F09BF8206801690C
:1032600021F4904101612068416921F02A01416106
:103270002068C16841F40051C1600020E063202053
:1032800084F8390084F83A00002010BD2DE9F0419F
:1032900004460D4694F83900202890461E4675D104
:1032A000002D14BF5FEA0800012070D094F83800A8
:1032B00001286BD0012084F838000020E063212031
:1032C00084F83900FFF758F8A4F824800746A4F8DA
:1032D000268002E015F8011B4160E08C60B3E08CB1
:1032E000401EE084A068B0F5805F17D120680168B7
:1032F000090609D416F1010FF8D056B3FFF73CF8D0
:10330000C01B8642F2D224E02988C1F30801416043
:103310002069002814BF6D1CAD1CDEE72068016821
:103320000906D7D416F1010FF8D096B1FFF724F8AB
:10333000C01B8642F2D20CE02068006840061DD413
:1033400016F1010FF8D026B1FFF716F8C01B864220
:10335000F2D22068C16821F4D071C160206841694F
:10336000490849004161202084F8390084F83A0076
:10337000002084F838000320BDE8F081202084F884
:103380003900002084F83800BDE8F0810220BDE853
:10339000F0812DE9F041044620680169E26821F4DA
:1033A0004051114301618F4AC1681140A268114325
:1033B0002269114362691143E2691143C1604169A5
:1033C000A26921F4407111434161E2698649B2F575
:1033D000004F40F0A38088421CBF844988424ED1F0
:1033E000FEF78CFF0546FEF789FF0646FEF786FFCF
:1033F0000746FEF783FF8046FEF780FF19225543FC
:10340000DFF8ECE1616857434B00B5FBF3F5A5FB32
:103410000EEC4FEA9C15B7FBF3F7DFF8D4E1564307
:10342000A7FB0EEC6421B6FBF3F64FEA9C1701FBF9
:103430001766F6003236DFF8B8C1A6FB0CC7BE0926
:10344000760006F4F87606EB051502FB08F6504305
:10345000B6FBF3F6B0FBF3F0654BA0FB033290092B
:1034600001FB1060C0003230614AA0FB02218809D4
:10347000216800F0070040198860BDE8F081FEF780
:1034800033FF0546FEF730FF0646FEF72DFF0746E1
:10349000FEF72AFF8046FEF727FF19225543DFF883
:1034A00050E1616857434B00B5FBF3F5A5FB0EEC0B
:1034B0004FEA9C15B7FBF3F7DFF834E15643A7FB5F
:1034C0000EEC6421B6FBF3F64FEA9C1701FB17667E
:1034D000F6003236DFF818C1A6FB0CC7BE0976002D
:1034E00006F4F87606EB051502FB08F65043B6FB2A
:1034F000F3F6B0FBF3F03E4BA0FB0332900901FB67
:103500001060C00032303A4AA0FB022188092168CD
:1035100000F0070040198860BDE8F08188421CBFB8
:10352000324988420ED1FEF7E9FE0546FEF7E6FE77
:103530000646FEF7E3FE0746FEF7E0FE8046FEF78E
:10354000DDFE0DE0FEF7D0FE0546FEF7CDFE064699
:10355000FEF7CAFE0746FEF7C7FE8046FEF7C4FE2A
:1035600019225543DFF888E0616857438B00B5FBAB
:10357000F3F5A5FB0EEC4FEA9C15B7FBF3F7DFF86C
:1035800070E05643A7FB0EEC6421B6FBF3F64FEA5E
:103590009C1701FB176636013236DFF854C0A6FBD4
:1035A0000CC7BE0906F0F00606EB051502FB08F68F
:1035B0005043B6FBF3F6B0FBF3F00D4BA0FB033228
:1035C000900901FB106000013230094AA0FB022182
:1035D0008809216800F00F0040198860BDE8F0817B
:1035E00000000000F369FFFF0010014000140140DB
:1035F0003E0AD7A37047000031B5FEF7BDFE009D1F
:1036000015F1010F044618BF6D1C00BFFEF7B4FE94
:10361000001BA842FAD301B030BD00005FF0FF0CE0
:103620001CEAD05114BF614506E0C110400721F0EB
:10363000E04101F16051704779B900F000410002AA
:103640000AD0B0FA80FC00FA0CF001F16051A1EB55
:103650000C5101EBD0214005704741020CBF40F4F2
:10366000E0016FF00001002070470000B0B581EA72
:10367000030C0CF0004C40F2FF7515EA11541DBF0D
:1036800015EA1357AC42AF4239E0E41923EA455337
:1036900043F48013C90241F0004141EA505EC70281
:1036A0001100A7FB020200284FF00000EEFB0120F2
:1036B0004FF00001E3FB072118BF42F00102401860
:1036C00000214941E3FB0E01A4F580640F0302D2FF
:1036D00052004041494154F101046CDD470872F148
:1036E000004250F1000051EB0451A1F580115CBF84
:1036F00041EA0C01B0BD4CEA05510020B0BD05EA1D
:103700001357AC4214BFAF4241E050EA410E1CBF18
:1037100052EA430E02E061460020B0BD24423C4420
:103720001BD15FEA070EF6D0090302BF0146002055
:10373000AEF1140EB1FA81F7AEEB070401FA07FE01
:103740000C37C7F1200100FA07F7C8404EEA000E17
:1037500023EA455343F48013A2E733F00043B3FA5E
:1037600083F704BFB2FA82FE77440B3FE41BB7F144
:10377000200E2FBF02FA0EF3BB40C7F1200E22FA33
:103780000EFE38BF43EA0E03BA40641C82E750EADB
:10379000410E14BF52EA430E6FF000014FF40017C0
:1037A00017EB430F8ABF194617EB410FB5E74CEAF9
:1037B00005510020B0BDD4F10104B4F120070FDAA7
:1037C000C4F12007520828BF42F0010210FA07F5A1
:1037D00001FA07F7E1BF2A43E0403843E1400FE038
:1037E000352C98DCC7F1200452EA400220FA07F297
:1037F00018BF42F0010231FA07F0A1400A4300214C
:1038000072F1004250F1000051EB0C01B0BD00B567
:1038100083B000218DED000B684600F07BFD9DED2F
:10382000000B03B000BD0000F446400D40EAC1208B
:10383000490006D200F00EF8004248BF6FF0004089
:10384000604700F007F84FF0004188428CBF0846FF
:103850004042604740F00040490DA1F58061491C9D
:1038600005D4D1F11F0154BFC840C01770474FF0B5
:1038700000007047F0B5044681B02078AF4DC00716
:103880004CD5A86800F00C00042807D0A86800F008
:103890000C0008280AD16868400207D52868800310
:1038A0003CD56068D0BB012001B0F0BD6068B0F5C8
:1038B000803F03D1286840F4803010E0B0F5A02F9D
:1038C000286806D140F480202860286840F48030C1
:1038D00005E020F480302860286820F480202860EB
:1038E000606868B1FEF748FD06462868800315D475
:1038F000FEF742FD801B6528F7D3032001B0F0BD21
:10390000FEF73AFD06462868800307D5FEF734FD2A
:10391000801B6528F7D3032001B0F0BD2078800715
:1039200018D5A86810F00C0F07D0A86800F00C009C
:10393000082826D16868400223D42868800702D569
:10394000E0680128AFD12868216920F0F80040EA3A
:10395000C10028602078000745D56069784F90B392
:103960000120C7F8800EFEF707FD0646686F800746
:1039700039D4FEF701FD801B0328F7D3032001B0E3
:10398000F0BDE0686E4F78B101203860FEF7F4FCBE
:10399000064628688007D6D4FEF7EEFC801B032875
:1039A000F7D3032001B0F0BD3860FEF7E5FC064612
:1039B00028688007CED5FEF7DFFC801B0328F7D3ED
:1039C000032001B0F0BDC7F8800EFEF7D5FC064617
:1039D000686F800707D5FEF7CFFC801B0328F7D35D
:1039E000032001B0F0BD2078400757D5002000909B
:1039F000544F286C40F080502864286C00F08050B0
:103A000000900098386840F480703860FEF7B4FC8D
:103A100006463868C00507D4FEF7AEFC801B0328B5
:103A2000F7D3032001B0F0BDA068012803D1286FAF
:103A300040F001000FE00528286F06D140F0040097
:103A40002867286F40F0010005E040084000286723
:103A5000286F20F004002867A06878B1FEF78CFC7E
:103A6000064641F28937286F800717D4FEF784FC99
:103A7000801BB842F7D3032001B0F0BDFEF77CFCF9
:103A8000064641F28937286F800707D5FEF774FC98
:103A9000801BB842F7D3032001B0F0BDA069002815
:103AA00048D0A96801F00C0108293FF4FCAE0228B7
:103AB000234F2FD100203866FEF75EFC06462868AB
:103AC000800107D5FEF758FC801B0328F7D303209D
:103AD00001B0F0BDE069216A0843616A40EA8110E3
:103AE000A16A891EC903090C40EA0140E16A40EA63
:103AF0000160686001203866FEF73EFC06462868D3
:103B0000800117D4FEF738FC801B0328F7D303206D
:103B100001B0F0BD00203866FEF72EFC064628688E
:103B2000800107D5FEF728FC801B0328F7D303206C
:103B300001B0F0BD002001B0F0BD00BF0038024070
:103B40000000474200700040002200F023BC00004B
:103B50002DE9F04F80460FF2A47095B015461E4631
:103B6000D0E90023CDE9132303AF00200391B8610E
:103B70000DF1340900E02D190020ADF8020013AB5F
:103B80004FF0FF3229460DF1020000F032FC0446EE
:103B9000012C04DA2878441EA441E443E40FBDF864
:103BA000020025280CBFA4F1010BA346BBF1010FB5
:103BB0000EDBAA461AF8011B0398C04700280390A1
:103BC00000F0DA80B869401CBBF1010BB861F1D19B
:103BD000BDF80200252804D10020F8603861786122
:103BE00005E00028C7D1B86906E340F0010015F8E8
:103BF000011F2029F9D023290DD02B2904D02D29EC
:103C000006D030290AD00CE040F0020080B2EEE786
:103C100040F00400FAE740F00800F7E740F0100039
:103C2000F4E72A290ED13168316051F8042B316054
:103C3000002A3A6204D5514240F00400396280B251
:103C40006D1C13E0002139620BE0396A6FF000430C
:103C5000994205D001EB810302EB4301303939620F
:103C60006D1C2A78A2F130010A29EED329782E2979
:103C700003D04FF0FF31F9611FE015F8011F2A2929
:103C800007D1316831606D1C51F8042B3160FA6145
:103C900013E00021F9610BE0F9696FF000439942EC
:103CA00005D001EB810302EB43013039F9616D1C52
:103CB0002A78A2F130010A29EED3B8840FF24460C9
:103CC000297800F0A7FB08B115F8010B8DF8320038
:103CD0009DF83200682804BF2878682803D1622044
:103CE0008DF832006D1C0DA8B86015F8014B252C1D
:103CF00013D0582C4BD0632C00F0A380642C18BF39
:103D0000692C7CD06F2C42D0702C36D0732C0AD00A
:103D1000752C18BF782C3AD0B6E00120F860252029
:103D20008DF83400BAE09DF832006C2830683060BD
:103D300018D050F8044B30607C60D7F81CA0BAF162
:103D4000000F04D52046FFF755FA824607E0524699
:103D50000021204600F06AFB08B1A0EB040AC7F876
:103D600010A09BE050F8042B306002A9404600F000
:103D70002DF9002840F192803CE23068306050F824
:103D8000041B306002910DA87860782155E09DF801
:103D900032006C280DD0712818BF6A2809D130680C
:103DA000C01D20F007023260D2E900010832326003
:103DB00004E03168316051F8040B316002909DF8E5
:103DC0003200682802D102A8008803E0622802D1EC
:103DD00002A80078029097F82400000728D50298DE
:103DE00030B344F02000782822D1F868302109F857
:103DF0000010401C411CF96009F8004018E09DF8D3
:103E00003200314600F0BCF80028029002D5F86874
:103E10002D2109E0B88C810702D5F8682B2103E039
:103E2000C00705D5F868202109F80010401CF8608B
:103E30000DA8F96808447860214602A800F0DFF96F
:103E40002CE09DF832006C2809D00120F860306821
:103E5000306050F8041B30608DF834101EE030687C
:103E6000306001AA50F8041B3060ADF80410002047
:103E7000ADF8060002A94FF0FF30F861404600F0AF
:103E8000A5F800280AD577E70120F86025208DF8ED
:103E900034001CB10220F86089F80140386AF968E2
:103EA000401A7969401A3969441A97F82400400782
:103EB00011D42020012C8DF800000CDBA246012338
:103EC0006A4602A9404600F001FA00287FF454AF88
:103ED000BAF1010AF3D1D7F80CB0BBF1000F0DF124
:103EE000340A0DD01AF8011B0398C047002803902C
:103EF0003FF442AFB869401CBBF1010BB861F1D18E
:103F0000D7F814A03020BAF1010F8DF800000BDBB8
:103F100001236A4602A9404600F0D8F900287FF440
:103F20002BAFBAF1010AF3D1D7F810B0D7F804A03B
:103F3000BBF1000F0DD01AF8011B0398C0470028F1
:103F400003903FF419AFB869401CBBF1010BB86195
:103F5000F1D197F8240040077FF50EAE2020012C08
:103F60008DF80000FFF608AE01236A4602A940461C
:103F700000F0ACF900287FF4FFAE641EF4D1FBE53D
:103F8000622815D068280CD06C2818BF742816D069
:103F90007A2814D10A680A6052F8040B0A600021DA
:103FA00070470A680A6052F8040B0A6000B20BE01E
:103FB0000A680A6052F8040B0A6040B204E00A681A
:103FC0000A6052F8040B0A60C11770472DE9F44FDC
:103FD0000D4694B02F6A002F804648BF6FF000470F
:103FE00000F050FA696A401801900FF22030D0E9D1
:103FF0000023CDE9022395F82800400702D4019858
:10400000412805D240200DF110090190002606E05C
:1040100000F03EFA5FEA0009F8D1EBE03F1B012F08
:10402000C0F294801498018802AA0DF1010000F0FA
:1040300087FA0028044600F19C801498008810B983
:10404000641E00F19680A742C0F280802869019921
:104050002218914268D26E624042A969401A696989
:10406000461A95F82800400710D42020012E8DF81C
:1040700000000BDBB24601236A462946404600F0A9
:1040800025F9002875D1BAF1010AF4D1D5F810B09C
:10409000BBF1000FCA460CD01AF8011B6868C04774
:1040A0000028686065D0E869401CBBF1010BE8613D
:1040B000F2D130208DF80000D5F818A0BAF1010F28
:1040C0000ADB01236A462946404600F0FFF8002833
:1040D0004FD1BAF1010AF4D1D5F814B0D5F808A03F
:1040E000BBF1000F0CD01AF8011B6868C04700280C
:1040F00068603ED0E869401CBBF1010BE861F2D179
:1041000095F8280040070DD52020012E8DF80000DD
:1041100008DB01236A462946404600F0D7F840BB39
:10412000761EF6D100262E61224628690DF1010186
:10413000484400F013FA2869201828611498801C5C
:104140001490801E008800287FF468AF686A29698F
:10415000401AA969401A6969471A95F8280040076A
:104160000FD4012F0DDB3C4668682021C0476860F2
:1041700010B94FF0FF3635E0E869401C641EE86175
:10418000F2D12B694A462946404600F09FF80028A4
:10419000EFD1AC69012C0ADB68683021C0470028E8
:1041A0006860E6D0E869401C641EE861F4D16B6980
:1041B000AA682946404600F089F80028D9D195F828
:1041C000280040070CD5012F0ADB68682021C04772
:1041D00000286860CDD0E869401C7F1EE861F4D1FA
:1041E0002E616E6204A881451CBF484600F0F2F9BA
:1041F000304601E04FF0FF3015B0BDE8F08FF0B46D
:10420000C2686F2908BF082405D041F02003782B2D
:1042100014BF0A24102418230668642918BF6929CA
:10422000374602D1002E48BF7F425FB9056A4DB9BB
:10423000082C27D190F82810090723D530211723FF
:10424000D1751FE0B7FBF4F604FB16773037FFB2E9
:104250005D1E3A2FA4BFA1F1510C674457552B4660
:10426000370003D08568D618B542EBD3082C09D1A6
:1042700090F82810090705D5D15C302902D05B1EC3
:104280003021D1541A448260C3F11801026A41619D
:10429000914208DA511A81614FF6EF72018D114097
:1042A0000185F0BC7047002A0ED590F8282002F056
:1042B0001402102A08D1426A0369D21A8369D21AF9
:1042C000531A012BA8BF8361F0BC7047F8B50446B0
:1042D0000D4616461F46002077B116F8011B686888
:1042E000A047686030B1E869401CE86100207F1E8B
:1042F000F3D1F2BD4FF0FF30F2BD0000000000002E
:1043000000000000686C747A4C000000000000009F
:10431000000000004268C2F30A5240F2FF739A4262
:1043200009D14168090304BF0068002801D10120B8
:1043300070470220704743685B0004BF0368002B8E
:1043400025D040F233439A1A521A012A1FDB352A2C
:1043500006DB416801F0004141600021016013E08B
:10436000012102F01F039940491E920607D54268B9
:1043700011404A40426002681143002202E0026894
:1043800011404A40026011B14FF0FF3070470020E9
:1043900070470000401810F0030308D0C91A1FD35B
:1043A000DB0748BF00F8012D28BF20F8022D1300BD
:1043B00030B414461546103928BF20E93C00FAD81D
:1043C000490728BF20E90C0048BF40F8042D8900A8
:1043D00028BF20F8022D48BF00F8012D30BC7047DF
:1043E000C91818BF00F8012DCB0728BF00F8012D10
:1043F0007047F8B504460D4616461F4600F02AF9E8
:104400003B4632462946204601B0BDE8F04000F068
:1044100038B900000278C9B28A421AB11CBF10F83C
:10442000012FF9E718BF002070470000C9B28307C9
:1044300006D0521E22D310F8013B9942F7D11FE05B
:10444000083A13D302F1040241EA012141EA014191
:1044500050F8043B121F21BF4B40A3F1013C2CEA52
:10446000030C1CF0803FF3D0C9B2001F083210F8D3
:10447000013B521E28BF91EA030FF8D818BF012054
:10448000401E704780B500F0E5F8012002BD000035
:1044900070B5054605F10F00C408AFF30080E400D5
:1044A000A54232D2082C04D2082402E0083000F0E1
:1044B00091F82248026811000CD1011D0A6802B36C
:1044C0001368A34238BF111DF8D310E01D68A54240
:1044D0000DD2191D0B68002BF8D11268011D00E0E8
:1044E000191D0B6893420CD01D68A542F8D361B129
:1044F0000D682A68A2F10803A3420AD26A680A601A
:104500000FE000F0E1F80028D0D1AFF300800020E8
:1045100070BD2B190B60121B6E685E600B681A6011
:104520002C60096800291DBF4A68002A091D002166
:104530000160AFF3008005F1080070BDAC0C0020F5
:1045400070B504460D46164600F084F832462946FA
:104550002046BDE8704000F087B8000062B38B07CA
:1045600008D0521E11F8013B00F8013B00F02480F6
:104570008B07F6D1830740F0208000BF103A07D3A5
:1045800030B4B1E83810103AA0E83810F9D230BC95
:10459000530724BFB1E80810A0E8081044BF51F841
:1045A000043B40F8043BD20724BF31F8022B20F82B
:1045B000022B44BF0B7803707047083A07D3B1E869
:1045C0000810083A40F8043B40F804CBF7D25307F0
:1045D000E4E7000000B9704738B5A0F1080420688E
:1045E000082833D310F0070F30D1AFF300801848FC
:1045F000416809B18C4203D26160446017E01946FA
:104600004B680BB1A342FAD30B68CD18AC421BD355
:10461000A54204D12268D2180A600C4607E04A6815
:104620001AB1236823449A420ED362604C606168D9
:1046300051B12268A3188B4206D100230360086899
:104640008018206048686060AFF3008031BD0000D2
:10465000AC0C002080B5DFF80C0000F04BF880694E
:1046600002BD00002003002030B430B90FF2480032
:10467000D0E90045C2E900451BE00170012030BCD3
:10468000704730B431B90FF23800D0E90045C3E9C2
:1046900000450EE01AB930BC6FF00100704708B158
:1046A0000A7802800978481E804130BCC043C00FA0
:1046B0007047002030BC7047000000000000000080
:1046C00000000000000000000749086808B1002051
:1046D00070470648C008C00008600549C908C900FD
:1046E000091A0160704700BFBC0C0020970700202A
:1046F000900900207047000010B51C461346224662
:10470000FCF79EFE401E8041C043C00F10BD10B597
:104710001C4613462246FCF749FE401E8041C0431A
:10472000C00F10BD00B50A4681B001230F21FCF770
:1047300087FE401E8041C043C00F01B000BD2DE97F
:10474000F04383B08946804602236A463221FCF753
:1047500077FE88BB012301AA35214046FCF770FE95
:1047600050BB9DF804009DF8002000F0030142EAD0
:104770000121CE089DF8011000F00C0041EA8010E4
:10478000C40804236A463C214046FCF759FE98B908
:104790009DF801009DF8001002236A4641EA0025B9
:1047A0009DF803009DF8021041EA00272A214046A7
:1047B000FCF746FE2DB218B1012003B0BDE8F0832E
:1047C0009DF801009DF8001041EA002000B2401B56
:1047D00000EE100AA01B00EE900AB8EEC00AF8EE38
:1047E000E00A3FB220EE200A781B00EE900AF8EEB5
:1047F000E00A80EE200A00EE906AF8EEE00A30EE61
:10480000200AF2EE040A20EE200ABDEEC00A10EEE5
:10481000100AA9F8000003B00020BDE8F08330B50D
:1048200081B00C46154601236A462721FCF708FE95
:1048300010B1012001B030BD9DF80000C0F3400070
:1048400020709DF8000000F00100287001B00020E9
:1048500030BD10B582B0044601236A462021FCF722
:10486000EFFD10B1012002B010BD9DF8000040F036
:1048700080008DF8000001236A4620212046FCF7C5
:1048800095FD401E8041C043C00F02B010BD10B561
:1048900082B0044601236A462021FCF7D1FD10B105
:1048A000012002B010BD9DF8000000F07F008DF8DF
:1048B000000001236A4620212046FCF777FD401EB8
:1048C0008041C043C00F02B010BD30B50D46012D70
:1048D00081B004460AD0280008D040F25F220FF2CF
:1048E000D0010FF2341000F0AFF8FEE701236A4662
:1048F00020212046FCF7A4FD10B1012001B030BDFD
:104900009DF8000000F0FB0040EA85008DF80000F3
:1049100001236A4620212046FCF748FD401E8041C5
:10492000C043C00F01B030BD30B50D0018BF012D20
:1049300081B004460CD0022D18BF032D08D040F2E0
:10494000B6220FF26C010FF2D00000F07DF8FEE706
:1049500001236A462021FCF773FD10B1012001B04C
:1049600030BD9DF8000000F0FC0028438DF80000E9
:1049700001236A4620212046FCF718FD401E804195
:10498000C043C00F01B030BD10B582B00C4601234A
:104990006A462021FCF754FD10B1012002B010BD81
:1049A0009DF8000000F00300207002B0002010BD50
:1049B000433A5C53544D33325F457870616E73698E
:1049C0006F6E5F536F6674776172655F446576657D
:1049D0006C6F706D656E745F4769745C782D63757C
:1049E00062652D6D656D73315C44726976657273B5
:1049F0005C4253505C436F6D706F6E656E74735C98
:104A00006874733232315C4854533232315F4472CD
:104A1000697665722E63000057726F6E6720706151
:104A200072616D65746572732076616C75653A208C
:104A300066696C65202573206F6E206C696E652039
:104A400025640D0A000000000EB400B582B003A971
:104A5000009102466B460121034878440A30FFF773
:104A600077F806BC5DF810FBE50A000010B50446B7
:104A700082B0A06800680068007800BB8DF8000074
:104A800069462046FFF74EFE012815D09DF800002C
:104A90002178884210D12046FFF7F9FE01280BD07B
:104AA00001212046FFF711FF012805D001212046F2
:104AB000FFF73AFF012802D1012002B010BDA16822
:104AC0000968096801204870607102B0002010BDBB
:104AD00010B50446A06800680068017871B9A17932
:104AE00061B1807820B92046FFF7D1FE01280BD0B4
:104AF000A168096809680020C870A0710020A16839
:104B0000096809684870607110BD10B50446A07945
:104B100001280FD0A06800680068807820B920467E
:104B2000FFF797FE012806D0A168096809680120EF
:104B3000C870A071002010BD10B50446A07978B1EE
:104B4000A06800680068807820B92046FFF79FFEC3
:104B5000012805D0A168096809680020C870A07103
:104B600010BD00B581B0FFF7DDFD012818BF0020A2
:104B700001B000BD10B582B0044600208DF80000E1
:104B800069462046FFF7CEFD012806D09DF80000BB
:104B90002178884214BF0120002002B010BD10B55A
:104BA00082B00C460021ADF800106946FFF7C7FD42
:104BB00001280CD0BDF9000000EE100AB8EEC00AC2
:104BC000F2EE040A80EE200A84ED000A002002B012
:104BD00010BD000010B582B00C466946FFF7D4FE48
:104BE00001281FD09DF80000032818D8DFE800F046
:104BF000120C07022648206002B0002010BD254894
:104C0000206002B0002010BD4FF07E50206002B046
:104C1000002010BD0020206002B0002010BD1E4802
:104C20002060012002B010BD00B581B021B1491E45
:104C3000032909D8032100E00121FFF775FE0128AF
:104C400003D0002001B000BD012001B000BD000074
:104C5000DFED0D0A00B5B4EE600AF1EE10FA81B096
:104C600048BF012108D4DFED090AB4EE600AF1EE75
:104C700010FA4CBF02210321FFF756FE012818BF8E
:104C8000002001B000BD00000100803F0100E040B5
:104C9000000048410000E040000080BF00B513461E
:104CA00081B00122FFF728FD012818BF002001B0C4
:104CB00000BD00B581B06B468DF800200122FFF7E2
:104CC00026FD012818BF002001B000BD10B582B03C
:104CD0000C466A460DF10101FFF7A1FD012809D03C
:104CE0009DF80000002818BF012803D1207002B0F1
:104CF000002010BD012002B010BD2DE9F041044696
:104D00000D4620780321084216461F4632D0204621
:104D100000F099F870BB15B1D5E900018619012F93
:104D200030D12088C00416D5A16904F13D02204687
:104D300000F0A6F8626A804602B92269E16820465E
:104D400000F09EF8A6EB08010E1AA26AE168204660
:104D500000F096F8361A1EB94FB916F1010F09D0B6
:104D600094F903003A46314600F090F8064616F1F1
:104D7000010F0AD100F0B0F8232101604FF0FF309D
:104D8000BDE8F081022FE7D1EAE720884FF44051D7
:104D900008420ED06068E0602061A06260616068D7
:104DA000E06204F13D00A06104F12400E061002014
:104DB00060622DB1D5E9020104F13002C2E90001BF
:104DC00020884CF6FF61084020800020BDE8F0817B
:104DD00038B500F087F80446208880042ED5656831
:104DE00009E04A1B294600F07FF810F1010F18BFB7
:104DF00000280CD00544E16894F903008D42F0D3FB
:104E00000022002100F070F810F1010F0DD1606850
:104E1000E0606061E062208840F4007020802046FD
:104E200000F061F84FF0FF3032BD6568E560656104
:104E3000E5624DF6FF71208808402080204600F092
:104E400052F8002032BDF8B5A0B9AFF300800024BD
:104E50000A4D08264FF0FF37286820B1FFF7B8FF4A
:104E6000002848BF3C462D1D761EF5D1AFF30080CB
:104E70002046F2BDBDE8F240AAE70000F0020020A3
:104E8000914201D2501A70470020704730B583B06C
:104E900004000D00012A02D100F073F807E0022A95
:104EA00007D100940020019069460C20ABBE2D185C
:104EB00001E0002A0CD10094019569460A20ABBE9E
:104EC000002805D100222100280000F037F801E079
:104ED0000020C04303B030BD0148FFF70BBC000009
:104EE0008C0300207047704780B5002802D400F082
:104EF00069F802BD002002BD10B4314A00211346FA
:104F00001C68844205D1002342F8313002EBC10114
:104F100011E09C68491C84421EBF491C1C698442E4
:104F20001EBF491C9C698442EDD0491C20331029C6
:104F3000E6D310BC70474B6010BC704770B4204C77
:104F4000002325462E688E4209D1014604EBC30397
:104F5000012A04BF5A685118596070BC7047AE6886
:104F60005B1C8E421EBF5B1C2E698E421EBF5B1CEB
:104F7000AE698E42E9D05B1C2035102BE2D370BCA9
:104F8000704710B40E4A002113461C68844204D1B5
:104F900002EBC100406810BC70479C68491C844209
:104FA0001EBF491C1C6984421EBF491C9C69844267
:104FB000EED0491C20331029E7D310BC00207047E5
:104FC000D00A002080B5002901D1002002BD0128AF
:104FD00001D0022802D100F004F802BD00F011F85F
:104FE00002BD30B583B00C001500012000F032F88E
:104FF00000900194029569460520ABBE281A03B0C3
:1050000030BD10B584B003001400009301910294E8
:1050100069460520ABBE01221900201AFFF78EFF5A
:1050200004B010BD80B500F033F802000023DB436C
:105030001068984204D011000220ABBE002010601E
:105040005068984204D0111D0220ABBE0020506071
:1050500001BD000010B584B0040000F019F8A100F3
:10506000421810680021C94388420DD107A0009062
:10507000002C01D1002000E00420019003200290C8
:1050800069460120ABBE106004B010BD3A747400D4
:10509000004870471003002010B50446E0686169BD
:1050A000884253D3218849F202020A40022A08D0DA
:1050B00008044CBF4FF400704FF484400843208034
:1050C0003DE001F4C041B1F5C04F06D1A16888426E
:1050D00003D32046FFF7B7FE88BB20884FF440611A
:1050E000084202BF606804F13D01884218D14FF4C4
:1050F0000070FFF7CDF9606030B904F13D006060E9
:10510000E060401CA0600BE0218841F0400121805C
:10511000E060A0624FF4007101446068A160E06249
:1051200060682061A0686061207840070AD502228B
:105130000021204600F00CF810F1010F02D14FF0D1
:10514000FF3010BD208840F4C0402080002010BDFA
:1051500070B50C461546FFF7C5FE06462B4622469F
:105160000021FFF7CAFD04463046FFF7BCFE20468B
:1051700070BD00000178090626D51D4A136800217C
:10518000834203D1002342F821301BE05368012100
:1051900083421EBF022193688342F3D0D368032168
:1051A00083421EBF042113698342EBD0536905215A
:1051B00083421EBF0621936983421EBF0721D36924
:1051C0008342DFD0FFF706BA002101804FF0FF31A4
:1051D000C17000F13D014160C160016181624161C6
:1051E000C162816100F12401C161704700000000CB
:1051F000F002002038B5044603212078084202D08E
:105200006056002809D5AFF300802046FFF7B2FFB3
:10521000AFF300804FF0FF3527E02046FFF713FE85
:105220000546AFF300802078400644BF6068FFF772
:10523000D1F90020606094F90300022804D900F03D
:1052400016F808B14FF0FF35A06B48B100F01CF81C
:1052500008B14FF0FF35A06BFFF7BCF90020A06349
:105260002046FFF787FFAFF30080284632BD10B518
:1052700082B00200009269460220ABBE040010001A
:10528000FFF73AFE200016BD00B583B00090FDF791
:10529000B1FF019069460E20ABBE03B000BDF0B473
:1052A000016844688368014401EB5402E40748BF85
:1052B0004B44914202D1F0BC0C30704711F8015BB5
:1052C00015F0030604BF11F8014BE61C2C090F2C46
:1052D00007D111F8014B0F3403E011F8017B03F8FB
:1052E000017B761EF9D1002CE3D0AD0811F8016BDB
:1052F00005F00305032D08BF11F8015B06EB05253A
:105300006D42A41C1D44D4D015F8016B03F8016B49
:10531000641EF9D1CDE700000E480F4BD0F8801085
:1053200041F47001C0F880100C490A6842F0010293
:105330000A6000228A600A681A400A60084A4A60C5
:105340000A6822F480220A600022CA604FF00061DD
:105350000160704708ED00E0FFFFF6FE00380240F4
:1053600010300024000000000000000001020304CF
:105370000607080910B5144C206808B1FFF73AFF7A
:10538000606808B1FFF736FFA06808B1FFF732FF89
:10539000E06808B1FFF72EFF206908B1FFF72AFF88
:1053A000606908B1FFF726FFA06908B1FFF722FF87
:1053B000E06908B1FFF71EFFBDE8104000220021A0
:1053C0004FF0FF30FFF790BDF002002038B50546E2
:1053D0000846FFF787FD0446E0686169884204D308
:1053E0002046FFF759FE002810D4E068401CE0601A
:1053F00000F8015D2088010504D440050CD5EDB20C
:105400000A2D09D12046FFF71EFD28B12046FFF7DF
:105410006AFD4FF0FF3032BD2046FFF764FDE8B271
:1054200032BD19E050F8041BCB0744BFA9F10103BA
:105430005918121F0023042A41F8043BF9D25FEAED
:10544000827C0B4604D54FF0000CA1F800C09B1CD9
:10545000D10744BF0021197050F8042B002AE1D174
:105460007047000010B5074979441831064C7C4458
:10547000163404E00A68081D114488470146A14219
:10548000F8D110BD600000007C0000007047FEE70E
:10549000704700F00DB800B581B04FF40050FCF734
:1054A000FBFD01B05DF804EB4FF48060FCF7F4BD48
:1054B00002480168491C0160704700BFB80C002019
:1054C0004EF68851CEF20001086840F47000086082
:1054D000BFF34F8FBFF36F8F4FF00070E1EE100AF4
:1054E000704700003FFFFFFF3003000090090020DD
:1054F00000000000ABFDFFFF8C0100003602000041
:105500000000002000F00BF8002801D0FFF7AAFFF0
:105510000020AFF30080FCF735FF00F002F8012017
:10552000704700F001B800000746FFF723FF384638
:1055300000F002F8FBE7000080B5FFF773FD024AB8
:1055400011001820ABBEFBE72600020038B5044668
:105550000D46284600F006F8A84218BF0024204651
:1055600032BD00000149FFF731BF00BF70020020CB
:105570000148804701480047195300088155000839
:10558000AFF30080FFF79CFFFFF7BCFF00000000B7
:1055900001020304FFF7FEBFFFF7FEBFFFF7FEBFE8
:1055A000FFF7FEBFFFF7FEBFFFF7FEBFFFF7FEBF2F
:1055B000FFF7FEBFFFF7FEBFFFF7FEBFFFF7FEBF1F
:1055C000FFF7FEBFFFF7FEBFFFF7FEBFFFF7FEBF0F
:1055D000FFF7FEBFFFF7FEBFFFF7FEBFFFF7FEBFFF
:1055E000FFF7FEBFFFF7FEBFFFF7FEBFFFF7FEBFEF
:1055F000FFF7FEBFFFF7FEBFFFF7FEBFFFF7FEBFDF
:10560000FFF7FEBFFFF7FEBFFFF7FEBFFFF7FEBFCE
:10561000FFF7FEBFFFF7FEBFFFF7FEBFFFF7FEBFBE
:10562000FFF7FEBFFFF7FEBFFFF7FEBFFFF7FEBFAE
:10563000FFF7FEBFFFF7FEBFFFF7FEBFFFF7FEBF9E
:10564000FFF7FEBFFFF7FEBFFFF7FEBFFFF7FEBF8E
:10565000FFF7FEBFFFF7FEBFFFF7FEBFFFF7FEBF7E
:10566000FFF7FEBFFFF7FEBFFFF7FEBFFFF7FEBF6E
:10567000FFF7FEBFFFF7FEBFFFF7FEBFFFF7FEBF5E
:10568000FFF7FEBF10036D4A0008D10410030B4B57
:1056900000083904126304127504129F0412D50421
:1056A0001003294C00085104129D0412B30412CDBA
:1056B0000410079501000833020008690410032D47
:1056C000030008570412690412950412C304100B56
:1056D00035040008010500080D0600082304123DEA
:1056E0000412590412FD04100731070008050800D0
:1056F000082F04124104126B04129F0420031509A1
:105700000008C50410020A0008DB0412F504131196
:105710000B601104124904126504128104129D04E5
:1057200012B90412D50410035D0C0008790412A903
:105730000412BB0412CD0412E904F32D2B0D3C120C
:105740000001F3FB040001100202400008041402EF
:1057500024F400011910036D0200206E04D26D04C0
:10576000125404F50F37800C02040101F40B0020E1
:10577000440C0020F40B0412AD3CF2139440500290
:10578000080202A43492A40412ED3CF212D4401296
:0F5790003024127004F206B02C52FF01F567FFAF
:0400000508000000EF
:00000001FF
