:020000040800F2
:1000000000800120AD1D0008011D0008051D00082D
:10001000FD1D0008FD1D0008FD1D0008000000007A
:10002000000000000000000000000000FD1D0008AE
:10003000091D000800000000FD1D00080D1D00083E
:10004000FD1D0008FD1D0008FD1D0008FD1D000828
:10005000FD1D0008FD1D0008FD1D0008FD1D000818
:10006000FD1D0008FD1D0008FD1D0008FD1D000808
:10007000FD1D0008FD1D0008FD1D0008FD1D0008F8
:10008000FD1D0008FD1D0008FD1D0008000000000A
:10009000000000000000000000000000FD1D00083E
:1000A000FD1D0008FD1D0008FD1D0008FD1D0008C8
:1000B000FD1D0008111D0008FD1D0008FD1D0008A4
:1000C000FD1D0008FD1D0008FD1D0008FD1D0008A8
:1000D000FD1D0008FD1D0008FD1D000800000000BA
:1000E0001D1D0008FD1D0008FD1D0008000000008A
:1000F000000000000000000000000000FD1D0008DE
:1001000000000000FD1D0008FD1D0008FD1D000889
:1001100000000000000000000000000000000000DF
:10012000FD1D0008FD1D0008FD1D0008FD1D000847
:10013000FD1D00080000000000000000000000009D
:10014000000000000000000000000000FD1D00088D
:10015000FD1D0008FD1D0008FD1D0008FD1D000817
:10016000FD1D0008FD1D000800000000000000004B
:10017000000000000000000000000000000000007F
:1001800000000000FD1D000800000000000000004D
:10019000FD1D00080000000000000000000000003D
:1001A000044B05481B1A062B02D9044B03B1184710
:1001B000704700BFFB040020F8040020000000008E
:1001C00005490648091A891001EBD171491002D07E
:1001D000034B03B118477047F8040020F8040020CF
:1001E0000000000010B5064C237843B9FFF7D8FF94
:1001F000044B13B10448AFF300800123237010BDFA
:10020000F8040020000000000044010808B5084B75
:100210001BB108490848AFF300800848036813B9C8
:10022000BDE80840CCE7064B002BF9D09847F7E72C
:1002300000000000FC04002000440108F804002035
:1002400000000000000000000000000000000000AE
:1002500001F0FF01102A2BDB10F0070F08D010F877
:10026000013B013A8B422DD010F0070F42B3F6D17B
:10027000F0B441EA012141EA014122F007047FF094
:1002800000070023F0E80256083C85EA010586EAEB
:10029000010685FA47F5A3FA87F586FA47F6A5FA27
:1002A00087F68EB9EED1F0BC01F0FF0102F0070233
:1002B00032B110F8013B013A83EA010313B1F8D1DE
:1002C0000020704701387047002D06BF35460338BF
:1002D000073815F0010F07D1013015F4807F02BFF8
:1002E000013015F4C03F0130F0BC0138704700BF49
:1002F00081F0004102E000BF83F0004330B54FEAD7
:1003000041044FEA430594EA050F08BF90EA020F43
:100310001FBF54EA000C55EA020C7FEA645C7FEAD6
:10032000655C00F0E2804FEA5454D4EB5555B8BFF9
:100330006D420CDD2C4480EA020281EA030382EA6A
:10034000000083EA010180EA020281EA0303362DFC
:1003500088BF30BD11F0004F4FEA01314FF4801CCF
:100360004CEA113102D0404261EB410113F0004FE1
:100370004FEA03334CEA133302D0524263EB430398
:1003800094EA050F00F0A780A4F10104D5F1200E36
:100390000DDB02FA0EFC22FA05F2801841F1000191
:1003A00003FA0EF2801843FA05F359410EE0A5F165
:1003B00020050EF1200E012A03FA0EFC28BF4CF096
:1003C000020C43FA05F3C01851EBE37101F000454C
:1003D00007D54FF0000EDCF1000C7EEB00006EEB59
:1003E0000101B1F5801F1BD3B1F5001F0CD34908E3
:1003F0005FEA30004FEA3C0C04F101044FEA44523A
:1004000012F5800F80F09A80BCF1004F08BF5FEAC0
:10041000500C50F1000041EB045141EA050130BDA0
:100420005FEA4C0C404141EB010111F4801FA4F143
:100430000104E9D191F0000F04BF01460020B1FA98
:1004400081F308BF2033A3F10B03B3F120020CDAD0
:100450000C3208DD02F1140CC2F10C0201FA0CF0AE
:1004600021FA02F10CE002F11402D8BFC2F1200C13
:1004700001FA02F120FA0CFCDCBF41EA0C019040C9
:10048000E41AA2BF01EB0451294330BD6FEA040412
:100490001F3C1CDA0C340EDC04F11404C4F12002FD
:1004A00020FA04F001FA02F340EA030021FA04F30F
:1004B00045EA030130BDC4F10C04C4F1200220FA66
:1004C00002F001FA04F340EA0300294630BD21FAA4
:1004D00004F0294630BD94F0000F83F4801306BF6A
:1004E00081F480110134013D4EE77FEA645C18BF5E
:1004F0007FEA655C29D094EA050F08BF90EA020FF5
:1005000005D054EA000C04BF1946104630BD91EAEC
:10051000030F1EBF0021002030BD5FEA545C05D1EF
:100520004000494128BF41F0004130BD14F580042E
:100530003CBF01F5801130BD01F0004545F0FE41A2
:1005400041F470014FF0000030BD7FEA645C1ABFD7
:10055000194610467FEA655C1CBF0B46024650EA0E
:10056000013406BF52EA033591EA030F41F400213A
:1005700030BD00BF90F0000F04BF0021704730B5C0
:100580004FF4806404F132044FF000054FF0000195
:1005900050E700BF90F0000F04BF0021704730B556
:1005A0004FF4806404F1320410F0004548BF40422B
:1005B0004FF000013EE700BF42004FEAE2014FEA80
:1005C00031014FEA02701FBF12F07F4393F07F4F5B
:1005D00081F06051704792F0000F14BF93F07F4F8D
:1005E000704730B54FF4607401F0004521F00041D0
:1005F00020E700BF50EA010208BF704730B54FF056
:1006000000050AE050EA010208BF704730B511F05A
:10061000004502D5404261EB41014FF4806404F192
:1006200032045FEA915C3FF4DCAE4FF003025FEA14
:10063000DC0C18BF03325FEADC0C18BF033202EB9C
:10064000DC02C2F1200300FA03FC20FA02F001FAF6
:1006500003FE40EA0E0021FA02F11444C1E600BF95
:1006600070B54FF0FF0C4CF4E06C1CEA11541DBF48
:100670001CEA135594EA0C0F95EA0C0F00F0DEF813
:100680002C4481EA030621EA4C5123EA4C5350EAF8
:10069000013518BF52EA033541F4801143F4801349
:1006A00038D0A0FB02CE4FF00005E1FB02E506F0DA
:1006B0000042E0FB03E54FF00006E1FB03569CF02F
:1006C000000F18BF4EF0010EA4F1FF04B6F5007F35
:1006D00064F5407404D25FEA4E0E6D4146EB0606A7
:1006E00042EAC62141EA55514FEAC52040EA5E5030
:1006F0004FEACE2EB4F1FD0C88BFBCF5E06F1ED8DA
:10070000BEF1004F08BF5FEA500E50F1000041EB10
:10071000045170BD06F0004646EA010140EA0200BD
:1007200081EA0301B4EB5C04C2BFD4EB0C0541EADF
:10073000045170BD41F480114FF0000E013C00F3F4
:10074000AB8014F1360FDEBF002001F0004170BD18
:10075000C4F10004203C35DA0C341BDC04F1140431
:10076000C4F1200500FA05F320FA04F001FA05F2BD
:1007700040EA020001F0004221F0004110EBD3708A
:1007800021FA04F642EB06015EEA430E08BF20EAB6
:10079000D37070BDC4F10C04C4F1200500FA04F359
:1007A00020FA05F001FA04F240EA020001F00041EB
:1007B00010EBD37041F100015EEA430E08BF20EA5E
:1007C000D37070BDC4F1200500FA05F24EEA020EA6
:1007D00020FA04F301FA05F243EA020321FA04F0D5
:1007E00001F0004121FA04F220EA020000EBD3708C
:1007F0005EEA430E08BF20EAD37070BD94F0000F8C
:100800000FD101F00046400041EB010111F4801FBF
:1008100008BF013CF7D041EA060195F0000F18BF70
:10082000704703F00046520043EB030313F4801FAC
:1008300008BF013DF7D043EA0603704794EA0C0F66
:100840000CEA135518BF95EA0C0F0CD050EA41067C
:1008500018BF52EA4306D1D181EA030101F00041F9
:100860004FF0000070BD50EA410606BF1046194621
:1008700052EA430619D094EA0C0F02D150EA01362D
:1008800013D195EA0C0F05D152EA03361CBF10466E
:1008900019460AD181EA030101F0004141F0FE410D
:1008A00041F470014FF0000070BD41F0FE4141F491
:1008B000780170BD70B54FF0FF0C4CF4E06C1CEA91
:1008C00011541DBF1CEA135594EA0C0F95EA0C0F46
:1008D00000F0A7F8A4EB050481EA030E52EA033501
:1008E0004FEA013100F088804FEA03334FF0805522
:1008F00045EA131343EA12634FEA022245EA11154F
:1009000045EA10654FEA00260EF000419D4208BFFF
:10091000964244F1FD0404F5407402D25B084FEAAC
:100920003202B61A65EB03055B084FEA32024FF458
:1009300080104FF4002CB6EB020E75EB030E22BFB5
:10094000B61A754640EA0C005B084FEA3202B6EB75
:10095000020E75EB030E22BFB61A754640EA5C0024
:100960005B084FEA3202B6EB020E75EB030E22BFB4
:10097000B61A754640EA9C005B084FEA3202B6EBB5
:10098000020E75EB030E22BFB61A754640EADC0074
:1009900055EA060E18D04FEA051545EA16754FEAD6
:1009A00006164FEAC30343EA52734FEAC2025FEAF4
:1009B0001C1CC0D111F4801F0BD141EA00014FF083
:1009C00000004FF0004CB6E711F4801F04BF014354
:1009D0000020B4F1FD0C88BFBCF5E06F3FF6AFAE70
:1009E000B5EB030C04BFB6EB020C5FEA500C50F100
:1009F000000041EB045170BD0EF0004E4EEA113183
:100A000014EB5C04C2BFD4EB0C0541EA045170BD89
:100A100041F480114FF0000E013C90E645EA060ECD
:100A20008DE60CEA135594EA0C0F08BF95EA0C0FFB
:100A30003FF43BAF94EA0C0F0AD150EA01347FF443
:100A400034AF95EA0C0F7FF425AF104619462CE71A
:100A500095EA0C0F06D152EA03353FF4FDAE10467D
:100A6000194622E750EA410618BF52EA43067FF4CE
:100A7000C5AE50EA41047FF40DAF52EA43057FF45E
:100A8000EBAE12E74FEA410212F5001215D211D572
:100A90006FF47873B3EB625212D94FEAC12343F07B
:100AA000004343EA505311F0004F23FA02F018BFFD
:100AB000404270474FF00000704750EA013005D1C6
:100AC00011F0004008BF6FF0004070474FF0000089
:100AD000704700BF4FEA4102B2F1E04324BFB3F5D3
:100AE000001CDCF1FE5C0DD901F0004C4FEAC002A5
:100AF0004CEA5070B2F1004F40EB830008BF20F089
:100B00000100704711F0804F21D113F13872BCBF42
:100B100001F00040704741F480114FEA5252C2F197
:100B20001802C2F1200C10FA0CF320FA02F018BFE0
:100B300040F001004FEAC1234FEAD32303FA0CFC33
:100B400040EA0C0023FA02F34FEA4303CCE77FEAC2
:100B5000625307D150EA01331EBF4FF0FE4040F40C
:100B60004000704701F0004040F0FE4040F40000BB
:100B7000704700BF044B1B78037132210822032306
:100B80004171827103607047000000200268012AF1
:100B90006BD9F0B50679322E83B002D0002003B0B5
:100BA000F0BD84790C2C054600F04C8126D9622CCE
:100BB00000F034815BD80E2C00F0CC80602CEDD19D
:100BC000022AEBD04379BD4A2B71E023AB71106848
:100BD0006E710DF1070104F0E9FB9DF80730012B60
:100BE00075D0002B00F03E81022B56D10422032148
:100BF000E81D01F00DF807232B604EE0022C00F0F9
:100C0000C48040F2B280082C69D0092CC6D1022AD7
:100C1000C4D0AA4BAA4C186804F0B0FBA94B1868C2
:100C200004F0E4FDA84B186804F030F9A74B1868ED
:100C300003F058FFA64B186804F072F8A54B18682B
:100C400004F0C8F90023A44AA4482360194613708D
:100C500002F0F2FEAB796A792A71803B2846AB71CB
:100C60006E7100F067FA012099E700207047762C3A
:100C700018D07A2C92D1022A90D04379954A2B71C0
:100C8000FA23AB7110686E710DF1070104F0BAF927
:100C90009DF80730002B00F0E580284600F04AFA66
:100CA00001207CE7022A3FF479AF4379884A2B710F
:100CB000F623AB7110686E710DF1070104F048F86E
:100CC0009DF80730002B00F0CD80012BE5D10422E8
:100CD0000221E81D00F09CFF07232B60DDE7022ABC
:100CE0003FF45CAF0421073000F086FF744C2060B5
:100CF0002368DF0700F1C88023689E0700F1CE80DB
:100D00002368580700F1C5802368D90600F1B78031
:100D100023689A0600F1AE8023685B0603D56D4B0D
:100D2000186804F047F96C4B6C48012400211C70D2
:100D300002F064FEAB796A496A790A70803B32201E
:100D400003216871AB7128462A71296000F0F2F91D
:100D5000204624E7032A7FF421AF417902608E23E5
:100D6000017146718371012019E7012C7FF416AFE0
:100D7000032A7FF413AF4179026081230171467128
:100D8000837100F0D7F9204609E7032A7FF406AF04
:100D9000534B4279027103F1100103F10800EA1D7F
:100DA00005F10F048227914288BF84426E71AF71B2
:100DB00079D8510777D1D3E90201C2E90001D3E91B
:100DC0000401C4E90001D3E9060105F11702C2E9F3
:100DD0000001D3E9080105F11F02C2E9000193F8FF
:100DE000282085F8272093F8292085F8282093F8D3
:100DF0002A2085F8292093F82B2085F82A2093F8BB
:100E00002C2085F82B2093F82D3085F82C302923C1
:100E100028462B6000F08EF90120C0E6022A3FF43C
:100E2000BDAE43790371E22383714671042201212F
:100E3000073000F0EDFE072328462B6000F07AF91A
:100E40000120ACE6022A3FF4A9AE437903718C225B
:100E50000323467182710360427A017AC07900F0FF
:100E60008DFD1AE704220121E81D00F0D1FE0723C1
:100E70002B6012E7164B186803F042FF4CE7134B48
:100E8000186803F01FFE43E70C4B186804F066FA7D
:100E900032E70D4B186803F0E9FF35E7094B186896
:100EA00004F094FC2CE70F4BAA1D03F1260013F865
:100EB000011F02F8011F8342F9D1A8E7280500208D
:100EC00050050020200500202405002018050020E2
:100ED0001C050020140500203C13002000130020F6
:100EE000000000200700002011F01ABF12F02EB8F9
:100EF00012F058B910B50C4612F0A4F9206010BDDC
:100F000030B52DED028B8FB0054601A80C4612F0CE
:100F100049F995ED006A9DED018AD5ED016ADFED95
:100F20003C7A9DED020A9DED045ADDED075A95EDE0
:100F3000027ADDED0A0A9DED051ADDED031A9DED3D
:100F4000082ADDED0B2A9DED063ADDED093A9DED0F
:100F50000C4AB8EEC66AF2EE044AA8EE646AF8EEED
:100F6000E66AB0EE678AE0EE646AA6EE058AB0EE45
:100F7000670AA6EE250AE6EE207AB0EE485AB8EEE9
:100F8000C77AA6EE815AB0EE406AA1EEE47AA6EEE8
:100F9000826AE6EEA27AF0EE455AE7EE035AF0EEE8
:100FA000466AE7EE236AE7EE047AF5EEC05AFEEEF3
:100FB000004AF1EE10FAB6EE007AF5EEC06AB4BF60
:100FC000B0EE645AB0EE475AF1EE10FAF5EEC07A80
:100FD000B4BFB0EE646AB0EE476AF1EE10FAB8BF83
:100FE000B0EE647A75EE255A76EE266A77EE277AA9
:100FF000FDEEE55AFDEEE66AFDEEE77AC4ED005A35
:10100000C4ED016AC4ED027A0FB0BDEC028B30BDB5
:1010100000000000B5EEC00AF1EE10FAB2EE047A5C
:10102000ACBFF6EE007AFEEE007AE0EE077AFDEE57
:10103000E77A17EE900A7047012070470120704749
:101040002DE9F04F814683B0374800F043F918B1DD
:10105000002003B0BDE8F08F334800F0A9F9334B0E
:10106000C0F500709C8883B2A34236BFC4F5007BF4
:10107000C4EB030B9B4401931FFA8BF30093002BEB
:10108000E6D04FF0000ADFF8A8B05546D0465646E5
:1010900005E00136009B1FFA86F843453CD9621CE7
:1010A0001BF8043094B2B4F5007F28BF0024F02B65
:1010B000EFD11E4B9C880EB3002701E047451DD29F
:1010C00004F1010ACAF3080A09EB05021BF804003F
:1010D0001BF80A10043200F0B1FCC0B283B21F4406
:1010E00001352344BFB2C3F30804ADB20028E5D1F3
:1010F0000E4BA3F804A003B0BDE8F08F01340B4BF6
:10110000C9F80050C4F3080448469C8000F00EFD66
:101110000028BED001209CE7B3F5807F98D9034B0F
:10112000BDF804209A8093E7F40C0020540D0020B1
:10113000FC0D002070B5084C054600F091FC2946D6
:10114000204600F04BFC214682B241F2883303482E
:10115000BDE8704003F0A4B8FC0F00205C0D002037
:10116000F0B58BB0334B3448344C002501951A6BE5
:1011700042F001021A631A6B02F001020192019A15
:1011800002951A6B42F001021A631A6B02F0010217
:101190000292029A03951A6C42F400321A641A6C95
:1011A00002F400320392039A04951A6B42F400127F
:1011B0001A631B6B079503F400130422049305A91B
:1011C00002230726059206930893049F099600F0D0
:1011D000A1FF08231848059305A9099600F09AFF76
:1011E000174B184A1B68636020460C23A560E56016
:1011F0002561A5612260636103F022F810B100F05F
:10120000D7FBFEE7104D114E0746284600F0D4F8F4
:10121000284600F0A5FE4FF4007331461A462046DA
:101220006563AC63E763A662A38503F0C9F80BB0FE
:10123000F0BD00BF00380240000002405C0D0020FD
:101240003000002000440040F40C0020FC0D002081
:10125000F0B595B000241D4B0194196C1C4A41F067
:10126000805119641B6C03F080530193019B02941D
:10127000136823F4404343F40043136013680F944E
:1012800003F440430225029304211023072201277F
:101290004FF4A87608A8DDF808E00C93109312919B
:1012A000139208950E950B97119601F021FD0F22D0
:1012B0004FF48053294603A804950594079403929C
:1012C000069301F015FF15B0F0BD00BF00380240D5
:1012D0000070004003682A4A93420FD92949583ABE
:1012E0008B42526842D018318B4243D02648834209
:1012F0000CBF4FF480334FF4800338E0234A93420D
:1013000010D9234902F552728B4212682ED018313F
:101310008B422FD01F4883420CBF4FF480334FF4D1
:10132000800324E01C4A93420FD91C49583A8B424F
:1013300052681BD018318B421CD0194883420CBF15
:101340004FF480334FF4800311E0164A164993425C
:10135000086813D0183293420ED0183293420CBF53
:101360004FF480334FF48003184070470F4B03EA6B
:10137000020070474023FAE74023F5E70B4BF3E701
:101380005864024070640240A0640240B8600240A9
:1013900010640240406402405860024070600240A5
:1013A000A060024010600240006002400100800026
:1013B00003685868704700BFF0B40E4B03604FF0ED
:1013C000006700234FF480664FF480754FF480343B
:1013D0004FF40002032147600661C5610462816227
:1013E0008360C360436183614362C2620263F0BC95
:1013F000704700BF886002402DE9F04FA1B000F0B7
:1014000017FDFFF725FF002004F01AFA0121002044
:1014100004F03EFA0025874B02951A6B864CDFF8E4
:101420003CA242F480521A631B6B03F48053029374
:1014300021464FF0FF30029B03F052FD2946206801
:1014400003F00AFE0421206803F0F6FD211D4FF091
:10145000FF3003F051FA04F108014FF0FF3003F0C0
:101460006BFB04F10C014FF0FF3003F0B9FF04F106
:1014700010014FF0FF3003F085FC04F114014FF030
:10148000FF3003F0F9FD01211420FFF72DFD01A924
:101490000AA8FFF72FFD0126FFF762FE0C2313A811
:1014A000139319951895159601F022FC634BF8B12A
:1014B0001E607F22F923CAF8003063622262604B0B
:1014C000A361402200235F48E261A362E3622363D9
:1014D00001F0A8FF00B1FEE70DF180085A4B48F873
:1014E000683D01224146574802F0E6F840B1FEE768
:1014F00018607F22FF23CAF8003063622262DEE7B1
:1015000041F2080316901790012213A94D48139336
:1015100001F0E0FF064600B1FEE74C4D4C49A860E3
:101520004AF20F422723284685E806002E61EB6029
:1015300002F096F94FF4805341462846069302F094
:1015400075FB284602F0FAF9284603A9039604968B
:1015500002F0DEFC32460223284613A913961596A4
:101560001796149302F09CFA284602F0D9F9394DE7
:10157000394F314EA9463748FFF762FD18B199F847
:101580000430322B51D03B78002BF4D094F8383013
:10159000002BF0D04FF0000B5A4613A9294886F8CB
:1015A00038B002F053F85A464146264802F028F96E
:1015B000DAF80010149B9DF84C20F06BEA71CB1AFE
:1015C000642202FB03F39DF84DE09DF84E2085F860
:1015D00008E0C00601F101016A7293FBF1F3AB72FE
:1015E0003ED4E36B9A0660D4E36B580700F1848025
:1015F000E36B9A0700F19E80E36BD80700F1B88097
:10160000E36B5A0600F1D2801248FFF7B3FA772352
:1016100010482B60FFF78EFD0E48FFF711FD0028E4
:10162000B1D099F80430322BADD10A48FFF7AEFAA9
:10163000A9E700BF0038024014050020640500201F
:10164000002800402C050020010321160013002073
:1016500000040040FC1100203C1300204013002037
:10166000F36B8DF818B0D906BBD54146706803F00E
:1016700049FA0028B5D19DF81830012BB1D113A932
:10168000706803F047FA042213999F4800F0C0FAEB
:10169000042214999D4800F0BBFA042215999C4835
:1016A00000F0B6FAE36B9A069ED5F36B00229B0618
:1016B0008DF8182098D54146B06803F041FB00280A
:1016C00092D19DF81830012B8ED113A9B06803F088
:1016D00047FB042213998F4800F09AFA04221499C8
:1016E0008D4800F095FA8D481599042200F090FA83
:1016F000E36B58077FF57CAFF36B002259078DF839
:1017000018207FF575AF4146306903F0CFFB002804
:101710007FF46EAF9DF81830012B7FF469AF13A9E9
:10172000306903F0CBFB7E4B13981860E36B9A078C
:101730007FF562AFF36B00229B078DF818207FF5D1
:101740005BAF4146F06804F061F800287FF454AFC5
:101750009DF81830012B7FF44FAF13A9F06804F007
:101760005DF8704B13981860E36BD8077FF548AFAE
:10177000F36B0022D9078DF818207FF541AF414661
:10178000706903F00BFE00287FF43AAF9DF8183023
:10179000012B7FF435AF13A9706903F00FFE624B84
:1017A00013981860E36B5A067FF52EAFF36B002297
:1017B0005B068DF84C2000F18780D4ED107AE36C45
:1017C000B8EEE76AD4ED117AF8EEE76AD4ED127A52
:1017D000B8EEE77AF2EE047AC6EE275A03EB8303FB
:1017E0009B004046099386EEA76AC7EE276ACDEDB7
:1017F000065A8DED076ACDED086AFFF777FB13A84F
:10180000FFF776FB03A94948FFF77AFB9DED130A22
:10181000FFF700FC04220146454800F0F9F99DED70
:10182000140AFFF7F7FB04220146424800F0F0F9E2
:101830009DED150AFFF7EEFB042201463E4800F03D
:10184000E7F99DED160A3D4800F0ECF99DED170A09
:101850003B4800F0E7F99DED180A3A4800F0E2F93C
:101860009DED190A384800F0DDF99DED1A0A374858
:1018700000F0D8F99DED1B0A354800F0D3F99DED35
:101880001C0A344800F0CEF99DED1D0A324800F0E4
:10189000C9F99DED1E0A314800F0C4F9039930489A
:1018A000042200F0B5F904992E48042200F0B0F9A2
:1018B00005992D48042200F0ABF904229DF87C1014
:1018C0002A4800F0A5F99FE613A9306803F092FBBF
:1018D00000287FF472AF9DF84C30012B7FF46DAF80
:1018E0001249306803F096FB316C2148042200F065
:1018F0008FF9716C1F48042200F08AF90422B16C40
:101900001D4800F085F958E7131200201712002037
:101910001B1200201F12002023120020271200207B
:101920000F1200200B120020071200205405002087
:10193000371200203B1200203F12002043120020EB
:10194000471200204B1200204F120020531200209B
:10195000571200205B1200205F120020631200204B
:10196000671200206B1200206F12002073120020FB
:101970002B1200202F1200203312002000B587B058
:1019800000238DF804008DF805108DF8062001A9BC
:101990001A4606488DF8073002930493059301F028
:1019A00099FD00B1FEE707B05DF804FB2C050020AF
:1019B000FEE700BF704700BF0268064B9A4200D0A6
:1019C0007047054B012283F83820DA6C0132DA6463
:1019D000704700BF00040040140500200A68F0B5FD
:1019E000074642B300221046CD1C4FF0F10C4FF0D9
:1019F000F20E09E0F12B1BD12370637002260B68F5
:101A00000130834232440FD915F8013FF02B07EB28
:101A10000204EFD107F802C084F801E00B6801303E
:101A2000022683423244EFD8501CF023BB54F0BD51
:101A300001262370E3E70120F7E700BFF12802D079
:101A4000107001207047F12903D0F22904D0002042
:101A50007047117002207047F02313700220704706
:101A60000268002A5CD0F0B5141FA408531E01348C
:101A7000042B4FEA840550D900273E4600F1040E9E
:101A80005EF8043B03F07F316FEA030CC1F1803153
:101A90000CF080334B4003F07F310137734006F088
:101AA0007F3603F080330E44BC4286EA0306E7D853
:101AB000C6F307233344C6F307441C4404EB166300
:101AC00095422946DBB223D045184C1C2D7994420F
:101AD000A3EB0503DBB21BD205198C1C2D79A242A6
:101AE000A3EB0503DBB213D90519CC1C2D79A24257
:101AF000A3EB0503DBB20BD90444043124798A42F9
:101B0000A3EB0403DBB203D9014409795B1ADBB20E
:101B1000511C024413710160F0BD00210B46D3E754
:101B20001346024401211371016070470168F0B54A
:101B300000295CD00D1FAD084F1E0135062F4FEA5E
:101B4000850251D90026334600F1040C5CF8044BA1
:101B5000013604F07F3E5C4003F07F3304F08034B4
:101B60007344AE4283EA0403F0D3C3F307241D1980
:101B7000C3F307442C4404EB13639142DBB22DD032
:101B80008518541C2D798C422B44DBB226D20519C2
:101B9000941C2D79A1422B44DBB21FD90519D41C0A
:101BA0002D79A1422B44DBB218D90519141D2D79CA
:101BB000A1422B44DBB211D90519541D2D79A14244
:101BC0002B44DBB20AD904440632247991422344DF
:101BD000DBB203D9024412791344DBB2B3FA83F3C4
:101BE0005B0907601846F0BD00221346C8E70123D1
:101BF0004FF0FF37F5E700BF01394318425C29B1C8
:101C000013F8011D984201EB0222F9D110467047EA
:101C100032B1024400F8011B90424FEA2121F9D170
:101C2000704700BF82B002AB23ED010A024618687C
:101C3000106002B0704700BF00B51F4B1B6893B027
:101C40000C210BBB012206A80C930B930691089262
:101C500001F04EF860BB02224FF4807301A801929C
:101C6000049301F02BFB08B1FFF7A2FE134B0122F6
:101C70001A600F210022022000F014F9022000F067
:101C800049F913B05DF804FB0023012206A8069170
:101C90000C9308930B9201F02BF818B902224FF421
:101CA0000073DBE7FFF784FE02224FF40073D5E7F1
:101CB000FFF77EFECFE700BF640500203C0E4742E1
:101CC00002680E4B9A4200D0704700B583B00022E4
:101CD00003F50D330192196C41F0020119641B6C7C
:101CE00003F0020301930F211D20019B00F0DAF89D
:101CF0001D2000F00FF903B05DF804FB0004004064
:101D0000704700BFFEE700BF704700BF00F0AAB8F1
:101D1000014802F053B800BF001300204FF40050F8
:101D200000F0E2BA70B5161E07DD0C468D19AFF350
:101D3000008004F8010BA542F9D1304670BD00BF08
:101D400070B5161E07DD0C468D1914F8010BAFF3A4
:101D50000080A542F9D1304670BD00BF0A4A08B5DF
:101D6000136873B118446946884202D81060184657
:101D700008BD0BF0CDFB0C2303604FF0FF3318467A
:101D800008BD024B1360EDE76805002078170020BE
:101D90004FF0FF30704700BF4FF400534B600020FE
:101DA000704700BF0120704700207047DFF834D033
:101DB000002103E00C4B5B58435004310B480C4BA3
:101DC00042189A42F6D30B4A02E0002342F8043B41
:101DD000094B9A42F9D302F095FB0BF09FFBFFF7FA
:101DE0000BFB704700800120FC4901080000002027
:101DF000F8040020F804002078170020FEE7000017
:101E0000704700BF084B094A1B6810B5A2FB0323AB
:101E10000446980900F08AF8214600224FF0FF306E
:101E200000F040F8002010BD34000020D34D6210B7
:101E300008B50B4B1A6842F400721A601A6842F433
:101E400080621A601A6842F480721A60032000F0FF
:101E500017F80F20FFF7D6FFFFF7D2FF002008BDCD
:101E6000003C0240024A136801331360704700BF10
:101E700044130020014B1868704700BF4413002032
:101E8000074AD1684FF6FF030B40000243F0BF63DF
:101E900000F4E06043F400330343D360704700BFB5
:101EA00000ED00E0194BDB68C3F3022330B4C3F14B
:101EB0000705042D03F1040428BF0425062C18D9B6
:101EC000033B01249C40013C22400124AC40013CE6
:101ED000214001FA03F3002842EA03020CDB00F17F
:101EE000604000F561401201D2B280F8002330BC9E
:101EF000704700221346E8E7054B00F00F0012017F
:101F00000344D2B21A7630BC704700BF00ED00E047
:101F1000FCEC00E000F01F0101234009024A8B4065
:101F200042F82030704700BF00E100E00138B0F116
:101F3000807F0ED2084B10B4084C5860F02084F813
:101F400023000022072110469A6019605DF8044BB7
:101F500070470120704700BF10E000E000ED00E096
:101F6000F8B50446FFF786FF002C72D002222368E2
:101F700084F835201A68002122F0010284F8341018
:101F800005461A6005E0FFF775FF401B05283AD8A3
:101F900023681A68D107F6D404F10C0027C86768D3
:101FA000A6683E43304301431143E669206A1F6837
:101FB000344A29430E43616A30433A40042942EAD5
:101FC000000227D01A605A6922F007021143DAB2E0
:101FD0002D4D5961103AA5FB021212092B4823F42A
:101FE0007F73815CE16523F00303032A88BF043318
:101FF0003F228A4001250021A36508469A60616559
:1020000084F83550F8BD032320226265184684F811
:102010003530F8BDE06A216BA66A01430A431A60B5
:102020005A6946F0040122F0070211430028CED07D
:102030008DB1B5F5005F18D0022E03D9032EC6D19D
:10204000C201C4D5012340226265184684F83530A8
:10205000F8BD0120F8BD012E03D0F1D3022EB6D178
:10206000EEE7B0F1C07FB2D1ECE7032EAFD801A20A
:1020700052F826F0452000084120000845200008BD
:10208000632000083F8010F0ABAAAAAA18440108F8
:10209000F0B490F83440012C0DD090F83540866DA6
:1020A0000125AC4280F8345008D0002380F8343049
:1020B0000220F0BC70470220F0BC70470468022781
:1020C000002580F8357045652568876825F48025EA
:1020D000402F256063600ABFA260A160E160C16D0E
:1020E00018BFE2603F238B40026CB360236843F06B
:1020F00016032360636943F0800363611AB12368A8
:1021000043F008032360236843F0010323600020A9
:10211000CFE700BF2DE9F04FD1F800C0DFF8B8815C
:10212000DFF8B8E183B000254FF0010903E0013585
:10213000102D00F0838009FA05F232EA0C03F6D183
:102140004C6824F01006022E7BD04FEA450A032388
:10215000076803FA0AF3DB4304F0030B1F400BFA92
:102160000AFB013E4BEA0707012E076040F28C8014
:10217000C7688E683B4006FA0AF63343C360E30043
:10218000D5D500230193D8F8443043F48043C8F8F0
:102190004430D8F8443025F0030606F1804603F4B5
:1021A000804306F59C36019305F00303019FD6F8A2
:1021B00008A09B000F279F402AEA070B424FB84216
:1021C00072D007F58067B84270D0404FB84270D0E7
:1021D0003F4FB84272D03F4FB8420CBF4FF0040A95
:1021E0004FF0070A0AFA03F343EA0B03B360DEF881
:1021F0000030D643E7034CBF13433340CEF80030E2
:10220000DEF80430A7034CBF13433340CEF804304C
:10221000DEF80830E7024CBF13433340CEF80830F5
:10222000DEF80C30A40205F1010554BF06EA0302F2
:102230001A43102DCEF80C207FF47DAF03B0BDE81B
:10224000F08F4FEAD50A00EB8A0A05F00703DAF8A7
:1022500020700E699B004FF00F0B0BFA03FB27EA6F
:102260000B0706FA03F33B43CAF820304FEA450A4E
:102270000323066803FA0AF3DB4304F003071E4056
:1022800007FA0AF73E4306608668CF681E4007FAE1
:102290000AF7374387604668C4F3001726EA020648
:1022A000AF403E43466063E700239DE709FA03F32E
:1022B0009AE74FF0020A0AFA03F395E74FF0030A90
:1022C0000AFA03F390E700BF000002400008024052
:1022D000000C02400010024000380240003C014067
:1022E00002B9090481617047044A5169014200D171
:1022F000704708B55061FFF75DFB08BD003C014029
:10230000F8B504460D46164623685869C04310F0D8
:10231000020026D05A69510511D51A6800216FF4C0
:10232000806742F40072042620251A6001205F6154
:10233000266484F83C10216384F83D50F8BD6A1C83
:10234000E3D045B900232022236384F83C3084F88D
:102350003D200320F8BDFFF78DFD801B8542D3D2C1
:10236000F0E7F8BD2DE9F0410546006882B0066847
:10237000089C884646F480711F4616460160621C20
:1023800041D14369DB07FCD508F0FE010161631C04
:1023900014D043699B0714D443695A053FD4002CD9
:1023A00000F09380FFF766FD099BC01A8442C0F0DD
:1023B0008C802868EBE743695A0530D44369990754
:1023C000F9D5002301934369019383690193019B2C
:1023D000621C5CD143691B0648D443695905F9D591
:1023E00000236FF48064042120224461296485F86D
:1023F0003C302B6385F83D202B6C042B2FD0032021
:1024000002B0BDE8F0814369D907BDD4E4B1FFF75C
:1024100031FD099BC01A844216D32868AFE70368D0
:1024200000226FF4806643F40073042420210360CB
:1024300046612C6485F83C202A6385F83D102B6C9E
:10244000042BDCD10120DBE7002320222B6385F85D
:102450003C3085F83D20032085F83E30D0E72A68DF
:10246000136843F4007313600120C9E7012F0AD0F9
:10247000330A0361671C19D14369190603D4436900
:102480005A05ADD4F8E7F6B206610020B8E7436913
:102490001A06EBD443695905A2D4F4B1FFF7EAFC5C
:1024A000099BC01A844218D3286891E743691B0628
:1024B000E9D443695B0593D47CB1FFF7DBFC099B4E
:1024C000C01A844209D32868D4E7002320222B6352
:1024D00085F83C3085F83D20B1E72B6C002243F0B5
:1024E000200320212B6485F83C202A6385F83D10C9
:1024F00082E700BF2DE9F043044600688946016881
:1025000041F48061016083B001680A9E0B9D41F433
:102510008071174698460160711C42D14369DA0701
:10252000FCD55FFA89F909F0FE030361721C13D030
:1025300043699A0713D4436959053DD4002E00F02E
:10254000A880FFF797FC401B8642C0F0A28020685D
:10255000ECE7436959052FD443699B07F9D500235C
:1025600001934369019383690193019B711C63D1BA
:1025700043691A0647D443695B05F9D500236FF414
:102580008065042120224561216484F83C30236366
:1025900084F83D20236C042B2ED0032003B0BDE82B
:1025A000F0834369DB07BCD4DEB1FFF763FC401B5B
:1025B000864216D32068AFE7036800226FF4806676
:1025C00043F400730425202103604661256484F8E8
:1025D0003C20226384F83D10236C042BDDD10120C4
:1025E000DCE700232022236384F83C3084F83D207C
:1025F000032084F83E30D1E72268136843F4007367
:1026000013600120CAE7B8F1010F0AD03B0A036149
:10261000731C2FD14369190603D443695A05ADD4FD
:10262000F8E7FFB20761711C15D143691A0638D467
:1026300043695B05A2D4F8E743691906E3D443690B
:102640005B059BD4002E4CD0FFF714FC401B864248
:1026500047D320688AE743691F0622D443695F0590
:102660008CD4002E3DD0FFF705FC401B864238D3AA
:102670002068D8E743691B06D3D443695A053FF560
:102680007DAF76B3FFF7F6FB401B864229D3206867
:10269000BEE700232022236384F83C3084F83D20E9
:1026A0009AE7036843F480730360711C0DD143699A
:1026B000DA07FCD549F0010303612A46314620467A
:1026C000FFF71EFE002887D168E74369DB07F1D4D6
:1026D000002E86D0FFF7CEFB401B864281D32068B8
:1026E000E3E7236C002243F020032021236484F8D5
:1026F0003C20226384F83D104CE700BF704700BFC8
:1027000000286CD0F8B590F83D30044603F0FF0285
:10271000002B4FD02268334D242384F83D301368BA
:1027200023F00103136000F099FD2F4A61682368CC
:10273000A2FB0062920CA9425A6026D84900B0FB65
:10274000F1F0C0F30B01013203291A6298BF042093
:10275000256AD4F81CE02769E1686669A269D86136
:1027600039434EEA0500324318609960DA6019680F
:10277000002241F00101202519601046226484F8EE
:102780003D50226384F83E20F8BD4FF49675174FF4
:10279000A66805FB02F2A7FB0252920901321A62F7
:1027A0006EB901EB4101B0FBF1F0C0F30B029AB935
:1027B0000120CDE780F83C20FFF7A0FFAAE701EB5E
:1027C000810101EB8101B0FBF1F0C0F30B02002AA3
:1027D000EED040F44040BBE740F40040B8E70120B1
:1027E000704700BFA086010083DE1B43D34D6210FB
:1027F000704700BFB0B10268242310B580F83D30A7
:10280000136823F0010304461360FFF7F1FF002370
:10281000236484F83C3084F83D301846236384F800
:102820003E3010BD012070472DE9F047044682B0CC
:1028300098460E461746BDF82C90FFF71BFB94F800
:102840003D30202B04D00226304602B0BDE8F08790
:10285000054605E0FFF70EFB401B192800F28B80B0
:1028600022689369DB4313F0020AF3D094F83C30FA
:10287000012BE8D013680121D80784F83C1002D45A
:1028800013680B43136013685B4923F40063136000
:102890004FF0000A2122402384F83D2084F83E3086
:1028A000C4F840A0A4F82A90E162608D0A9B63629C
:1028B00031460C9E00960195434620853A462046B7
:1028C000FFF750FD0646002870D12368228D002AAC
:1028D00029D00C9A013259D15A6912062DD45A695D
:1028E0005705F9D500226FF48065042020215D6131
:1028F000206484F83C20226384F83D10236C042B70
:1029000074D00326A0E75A69520756D45A6957056E
:10291000E8D40C9B002B5DD0FFF7ACFA0C9B401B5E
:10292000834257D323680C9A0132ECD15A6950077D
:1029300043D45A695105D5D4F8E7606A278D421C03
:10294000626202781A61618D013989B261855969C3
:102950007A1E92B249072285B9D5002AE3D0821C9B
:10296000626242781A61618DBA1E013992B289B2EF
:1029700022856185ABE72023C4F830A084F83CA011
:1029800084F83D30022684F83EA05DE75A691006BF
:10299000D3D45A695105A5D40C9BDBB1FFF76AFA71
:1029A0000C9B401B834215D3236892E7236C84F869
:1029B0003CA0042BA5D1012646E71A68002120205F
:1029C00042F400721A6084F83D0084F83C1084F8E8
:1029D0003E1039E7236C002243F0200320212364BA
:1029E00084F83C20226384F83D1087E7226813684E
:1029F00043F400731360DEE70000FFFF2DE9F04FA2
:102A0000044687B099460F469046BDF844A0129EF2
:102A1000FFF730FA94F83D30202B04D002273846D7
:102A200007B0BDE8F08F054604E0FFF723FA401B2E
:102A300019283AD822689369DB4313F0020BF4D0CB
:102A400094F83C30012BE9D013680121DB0784F8AE
:102A50003C1002D413680B4313601368994923F4A4
:102A6000006313604FF0000B2222402384F83D20C6
:102A700084F83E30C4F840B0A4F82AA0E162608D2A
:102A8000109B63623946019500964B46208542466D
:102A90002046FFF72FFD074690B1236C84F83CB029
:102AA000042B00F0E0800327B9E72023C4F830B0FE
:102AB00084F83CB084F83D30022784F83EB0AEE79D
:102AC000228D236892B902905A6902929A69029201
:102AD000029A1A6842F400721A600023202284F8D5
:102AE0003D2084F83C3084F83E3098E7012A00F01D
:102AF000DA80022A00F0E880059059690591996909
:102B000005910599032A76D8012A00F0AE80022AA1
:102B100046D0701C50D15A695107FCD51A68616AB9
:102B200022F480621A601B694A1C62620B70638D1A
:102B3000228D013B9BB2013A63852285701C22687D
:102B400045D153695907FCD51368616A43F4007392
:102B5000136013694A1C62620B70638D218D606A79
:102B60002268013B9BB2638512694B1E411C238581
:102B700061620270228D638D013A013B92B29BB279
:102B800022856385002AA8D02368BBE75A695207CB
:102B90000BD42EB3FFF76EF9401B864220D3236877
:102BA000701CF3D15A695107FCD51A68616A42F466
:102BB00000721A601B69CDE75A695207AED47EB124
:102BC000FFF758F9401B86420AD32368A1E75369EF
:102BD0005B07B9D426B1FFF74DF9401B8642ADD251
:102BE00000232022236384F83C3084F83D2003270F
:102BF00084F83E3013E74EB922E05A69D20642D437
:102C0000FFF738F9401B864220D323685A695106E2
:102C1000F3D5626A1B69511C61621370618D236870
:102C2000228D013989B261855969013A92B2490709
:102C30002285A7D5626A1B69511C6162137099E7EE
:102C40005A695006E5D45A69D0061CD4236C202258
:102C500013430021236484F83C1084F83D20236C46
:102C6000202B3FF420AF0127D9E636B917E0FFF754
:102C700001F9401B8642E9D323685A695006D9D42A
:102C80005A69D106F3D500226FF010002021586157
:102C9000226484F83C20226384F83D10DFE75A69FF
:102CA0005206D0D5C6E7196821F4806119600390F7
:102CB00059690391996903910399196841F4007165
:102CC00019601FE70000FFFF196821F48061196097
:102CD000196841F400611960049059690491996977
:102CE000049104990EE700BF90F83D00704700BFC3
:102CF000F0B50368DD0783B004462FD5A5498A687F
:102D000002F00C02042A00F0F6808A6802F00C023D
:102D1000082A00F0EC806368B3F5803F00F02F8153
:102D2000B3F5A02F00F003819A4D2A6822F4803277
:102D30002A602A6822F480222A60002B40F0008159
:102D4000FFF798F8064605E0FFF794F8801B642823
:102D500000F2AC802B689B03F6D423689F072FD525
:102D60008C4A916811F00C0F00F0A780916801F077
:102D70000C01082900F09D80E368002B00F0EE8034
:102D8000854B844D01221A60FFF774F8064605E072
:102D9000FFF770F8801B022800F288802B687D4ABC
:102DA0009807F5D51168F82393FAA3F32069B3FACD
:102DB00083F321F0F80100FA03F30B431360236857
:102DC0001A0720D4590734D4A269CAB1714B996843
:102DD00001F00C01082977D0022A704A4FF0000157
:102DE000116000F0D2801C46FFF744F8054604E06D
:102DF000FFF740F8401B022858D823689B01F7D4FE
:102E0000002003B0F0BD6369002B60D0644B614DBE
:102E100001221A60FFF72EF8064604E0FFF72AF8B1
:102E2000801B022842D86B6F9F07F7D5236859078C
:102E3000CAD5584B5B4D002201921A6C42F0805269
:102E40001A641B6C03F080530193019B2B6843F4BD
:102E500080732B60FFF70EF8064604E0FFF70AF8D0
:102E6000801B022822D82B68DA05F7D5A368012B2E
:102E700000F0F680052B00F0DA80464D2A6F22F034
:102E800001022A672A6F22F004022A67002B40F011
:102E9000D780FEF7EFFF41F2883607462B6F980781
:102EA00092D5FEF7E7FFC01BB042F7D9032003B06D
:102EB000F0BD526856023FF55FAF364A126895077B
:102EC00023D5E268012A20D0012003B0F0BD344AA6
:102ED000304D1360FEF7CEFF064604E0FEF7CAFF52
:102EE000801B0228E2D86B6F9807F7D49EE74A68E8
:102EF00050027FF510AF274A126891037FF52EAF7D
:102F00006268002A7FF42AAFDEE7224DF8222968A2
:102F100092FAA2F22069B2FA82F221F0F80100FAE4
:102F200002F20A432A601A077FF54CAF6BE7194B90
:102F30001A6842F480221A601A6842F480321A60D9
:102F4000FEF798FF134D064604E0FEF793FF801B43
:102F50006428ABD82B689A03F7D5FEE60E4A0D4DD0
:102F60001360FEF787FF064604E0FEF783FF801B31
:102F700002289BD82B689907F7D4236820E7054AD5
:102F8000136843F480331360DAE71D46FEF772FFDF
:102F900006460FE00038024000004742600047420A
:102FA000800E474200700040FEF764FF801B02283D
:102FB0003FF67CAF2B682D4A9901F5D447F6C076D1
:102FC00096FAA6F64FF44033B6FA86F793FAA3F3CF
:102FD0004FF07065B3FA83F395FAA5F5A16A666AB6
:102FE000D4F81CC0D4F820E0E06A4908BE4001399A
:102FF0004CEA0E07B5FA85F401FA03F347EA060531
:1030000000FA04F12B431A480B430121536001607D
:103010001446FEF72FFF054605E0FEF72BFF401B89
:1030200002283FF643AF23689A01F6D5E8E60F4B36
:103030001A6F42F004021A671A6F42F001021A670F
:10304000FEF718FF094D074641F288362B6F9B07A4
:103050003FF5BAAEFEF70EFFC01BB042F6D925E72A
:10306000024A136F43F001031367E9E70038024097
:10307000600047421B4A936803F00C03042B2ED0D8
:10308000082B2AD15368516803F03F0311F4800FD5
:1030900047F6C070516890FAA0F047F6C07202EA95
:1030A0000102B0FA80F022FA00F014BF0E4A0F4A73
:1030B000B2FBF3F30B4A03FB00F352684FF44030CA
:1030C00090FAA0F002F44032B0FA80F022FA00F058
:1030D00001304000B3FBF0F07047044870470248ED
:1030E000704700BF0038024000127A000024F4004C
:1030F000564A136803F00F038B422DE9F04109D2C1
:10310000CBB21370136803F00F03994202D0012071
:10311000BDE8F08103689A0706D54D4D8268AC681A
:1031200024F0F0042243AA60DF0706460C4626D5A9
:103130004368012B00F084809A1E012A444A1268D9
:1031400078D99107E3D5424DAA6822F003021343D0
:10315000AB60FEF78FFE7368012B074641F288389B
:103160004CD0022B55D0032B05D15DE0FEF782FE3B
:10317000C01B404561D8AB6813F00C0FF6D1334A41
:10318000136803F00F039C4206D2E3B21370136876
:1031900003F00F039C42BAD133685A0706D52C4876
:1031A000F268816821F4E0510A4382601B0707D569
:1031B000274A3169936823F4604343EAC10393606B
:1031C000FFF758FF224B0146F0229B6892FAA2F2C9
:1031D000B2FA82F203F0F003D3401E481E4AC35CE9
:1031E0000F2021FA03F31360FEF70CFE0020BDE868
:1031F000F081FEF73FFEC01B40451ED8AB6803F0D0
:103200000C03042BF5D1BAE7FEF734FEC01B404592
:1032100013D8AB6803F00C03082BF5D1AFE7FEF72A
:1032200029FEC01B404508D8AB6803F00C030C2BEB
:10323000F5D1A4E7900186D469E70320BDE8F081C9
:10324000034A126895033FF57EAF60E7003C0240F9
:10325000003802402044010834000020084B4FF49D
:10326000E0529B6892FAA2F2B2FA82F203F4E053BF
:10327000D3400449044ACB5C1068D840704700BF73
:10328000003802403044010834000020084B4FF45D
:1032900060429B6892FAA2F2B2FA82F203F46043AF
:1032A000D3400449044ACB5C1068D840704700BF43
:1032B000003802403044010834000020F0B50368B3
:1032C00013F0050F83B005460BD1286883073FD460
:1032D00010F0080003D04E4B2A7C1A60002003B087
:1032E000F0BD4C4B4C4C00221A60FEF7C3FD064665
:1032F00004E0FEF7BFFD801B022826D82368464A5B
:103300001F01F6D447F6C07191FAA1F14FF0E040E9
:10331000B1FA81F190FAA0F06C68AB683D4EB0FA5A
:1033200080F004FA01F183400B430121C2F884309C
:1033300031601446FEF79EFD064623681801C4D48A
:10334000FEF798FD801B0228F7D9032003B0F0BDDB
:10335000314B324C002201921A6C42F080521A64B6
:103360001B6C03F080530193019B236843F480732B
:103370002360FEF77FFD064604E0FEF77BFD801B21
:103380000228E2D82368D905F7D523490B6F13F437
:103390004072EB6803F4407010D082420ED00B6F85
:1033A0001F4A23F4407301240020146010600B674F
:1033B0000B6FDA071DD4EB6803F44070B0F5407F63
:1033C0000CD015498A6822F4F8128A6012490A6FF3
:1033D000C3F30B0313430B67286879E70E48816832
:1033E00023F0704221F4F81122F440720A43826003
:1033F000ECE70C46FEF73EFD41F288360746236FA8
:103400009B07D8D4FEF736FDC01BB042F7D99CE726
:10341000E011474268004742003802400070004017
:10342000400E4742002852D0F8B5437F044603F0CF
:10343000FF02002B47D02368CA2153220220607765
:1034400059625A62DA68510626D59A682569606918
:103450006668E168A76822F4E00222F040029A6000
:103460009A6832432A4302439A6019611969A26932
:1034700041EA07411961D96821F08001D960196CCE
:1034800021F480211964196CFF250A4301211A6473
:1034900000205D626177F8BD4FF0FF32DA60FEF721
:1034A000E9FC05462368DA685206CED4FEF7E2FC52
:1034B000401BB0F57A7FF5D92268FF2104235162C1
:1034C00001206377F8BD0277FEF7B6FBB3E7012072
:1034D000704700BF2DE9F843037F012B00F0828085
:1034E00001240223047743770468002A3CD0A768AC
:1034F0004E780B7817F0400516BFCF78CD703D049D
:103500004FEA06268F7808BF046846EA03433B4328
:1035100043EA0507CA22532362626362E3685A06DC
:103520008846064661D507F07F3323F0FE432360CB
:10353000A168D8F80C30D8F8102021F48021A160BF
:10354000A1680B431343A360E36823F08003E360A7
:10355000A3689B0664D50023FF21012261621846FF
:1035600072773377BDE8F883A6680B7816F04006CB
:1035700015BFCE78CE7036040468092B63D90022BB
:103580000A3BDBB2092B02F10102F9D84FEA021E15
:103590005FFA8EFE4A7843EA0E03092A4FEA034E89
:1035A0004FF0000507D90A3AD2B2092A05F1010500
:1035B000F9D82D01EDB28B782A43092B4FEA022569
:1035C0004FF0000707D90A3BDBB2092B07F10107CF
:1035D000F9D83F01FFB24EEA06022A433B4342EAD2
:1035E000030797E70220BDE8F8834FF0FF33E3605D
:1035F000FEF740FC81463468E36813F0400592D141
:10360000FEF738FCC9EB0000B0F57A7FF3D93268D9
:10361000FF2104235162012035777377BDE8F883D9
:10362000E36823F0A003E360FEF724FC0746346858
:10363000E36813F020058ED1FEF71CFCC01BB0F52B
:103640007A7FF4D9E3E74FF0000EA3E70368F0B503
:103650009D6A1C691B684D6003F07F3323F0FE43B5
:10366000180CC3F30627C4F30E04DBB200F0400EBF
:1036700000F03F068C6081F803E00E704F708B7095
:10368000BAB93D091C09360906EB860605EB850526
:1036900004EB840400F00F0007F00F0703F00F03A2
:1036A00000EB460007EB450503EB440408704D7042
:1036B0008C700020F0BD00BFF8B5037F012B61D0F6
:1036C000012402230477437732B34A78CB788D788C
:1036D0000C78110241EA03422A4342EA4434036867
:1036E000CA21532259625A62DA68510607464BD5FD
:1036F00024F07F4424F0C0045C60DA6822F0800289
:10370000DA609A6892065ED50022FF200121586295
:10371000104679773A77F8BD4B78DC064DD4CA78F5
:10372000092A4FF0000407D90A3AD2B2092A04F153
:103730000104F9D82401E4B22243092B4FEA0242E2
:103740005BD900240A3BDBB2092B04F10104F9D850
:103750002501EDB28C782B43092C4FEA03254FF05D
:10376000000607D90A3CE4B2092C06F10106F9D893
:103770003601F6B20B7842EA433242EA050334439B
:103780001C43ACE70220F8BD4FF0FF32DA60FEF7D1
:1037900071FB06463B68DA6812F04005A8D1FEF7D7
:1037A00069FB801BB0F57A7FF4D93A68FF210423C6
:1037B000516201203D777B77F8BD23F010030A3377
:1037C000DBB24B70ABE7DA6822F0A002DA60FEF7FA
:1037D00051FB05463B68DA6812F0200494D1FEF7ED
:1037E00049FB401BB0F57A7FF4D93A68FF210423E6
:1037F000516201203C777B77F8BD0025AAE700BF26
:1038000003685B6823F07F4323F0C003F0B4C3F385
:103810000725DEB2C3F3423705F01F001B0C0F7003
:103820004870CB708E70BAB9000934091A09870044
:1038300004EB840405F00F0506F00F06384402EB94
:10384000820203F00F0306EB440405EB400003EB98
:1038500042038C704870CB700020F0BC704700BFF2
:10386000002858D0F8B590F83930044603F0FF022C
:10387000002B3BD023682949022284F839208B424F
:103880001A6838D0B3F1804F22D0A1F57C418B4229
:103890001ED001F580618B421AD001F580618B4208
:1038A00016D001F59A318B4216D001F580618B421A
:1038B00012D001F580618B420ED0E06861681A6019
:1038C000D862996201225A61002084F83920F8BD3B
:1038D000A16822F070020A432169E568606822F459
:1038E00040720A431A60DD629862EBE780F8382084
:1038F000FEF7E6F9BEE7A1682069E76866686569D2
:1039000022F07002114321F4407101431960DF621B
:103910009E621D63D6E70120704700BF0000014092
:103920000368DA6842F00102DA601A6842F00102C4
:103930001A600020704700BF704700BF002858D0B1
:10394000F8B590F83930044603F0FF02002B3BD065
:1039500023682949022284F839208B421A6838D01A
:10396000B3F1804F22D0A1F57C418B421ED001F5EE
:1039700080618B421AD001F580618B4216D001F52F
:103980009A318B4216D001F580618B4212D001F53D
:1039900080618B420ED0E06861681A60D8629962DB
:1039A00001225A61002084F83920F8BDA16822F074
:1039B00070020A432169E568606822F440720A4394
:1039C0001A60DD629862EBE780F83820FFF7B4FFF9
:1039D000BEE7A1682069E7686668656922F0700241
:1039E000114321F4407101431960DF629E621D633F
:1039F000D6E70120704700BF0000014003680122A4
:103A0000186A02FA01F120EA010010B418621A6A79
:103A1000084C1143A342196207D01A685DF8044BA1
:103A200042F0010200201A6070475A6C42F40042D2
:103A30005A64F2E700000140036801201A6A00FAA4
:103A400001F110B422EA0102144C1A621A6A1A62D5
:103A5000A34211D0196A41F211120A4042B9196AFF
:103A600040F244420A401AB91A6822F001021A6070
:103A700000205DF8044B7047196A41F211120A40A8
:103A8000002AE7D1196A40F244420A40002AE1D1F3
:103A90005A6C22F400425A64DCE700BF0000014087
:103AA00090F83830012B35D0F0B50223012480F88E
:103AB000384080F839300C2A24D8DFE802F0492356
:103AC000232307232323652323232D0003688E68E4
:103AD0001C6A0F68544D24F010041C621A6AD3F853
:103AE00004E09C6922F0200224F4E644AB4242EA5E
:103AF000061244EA072779D04968C3F804E09F61B9
:103B000099631A620023012280F8392080F8383046
:103B10001846F0BD0220704703688F681D6A0E6862
:103B2000DFF804E125F480551D621A6A5D68DC69DE
:103B300022F4005224F4E644734542EA073244EA90
:103B400006243DD049685D60DC6119641A62D9E7DA
:103B50000368D1F808C01D6A0E68334F25F00105CF
:103B60001D621A6A5D689C6922F0020224F07304E7
:103B7000BB4242EA0C0244EA060447D049685D6051
:103B80009C6159631A62BDE703688F681D6A0E68FD
:103B9000DFF894C025F480751D621A6A5D68DC69DF
:103BA00022F4007224F07304634542EA072244EAD7
:103BB00006040BD049685D60DC61D9631A62A1E735
:103BC0004E6925F4804545EA8615BBE7CF684E6906
:103BD00025F4405E22F400628D6942EA07224EEA33
:103BE000061622F4806246EA0515E3E7CE684D69C1
:103BF0008C692EF4406E22F0800242EA06124EEAF0
:103C0000850522F0400245EA840E75E725F4407EE2
:103C1000CE684F698D6922F0080232433D4322F09D
:103C2000040245EA0E05A9E70000014090F838308B
:103C3000012B40D00222036870B480F839209A68C2
:103C40000C6822F47F4222F077020125402C80F894
:103C500038509A6073D018D9702C60D02DD9B4F533
:103C6000805F57D0B4F5005F1CD19C688A684D68AE
:103C7000CE682A4324F47F410A4342EA06229A602E
:103C80009A6842F480429A600CE0102C32D038D905
:103C9000202C6CD0302C05D19A6822F0700242F0B2
:103CA00037029A600023012280F8392080F83830EA
:103CB00070BC1846704702207047502C5ED0602CB4
:103CC000F0D11C6A4D68CE6824F010041C6299691A
:103CD0001A6A21F4704122F0A00242EA051241EA78
:103CE000063199611A629A6822F0700242F0670206
:103CF0009A60D7E79A6822F0700242F017029A6041
:103D0000D0E7002CCED19A6822F0700242F0070270
:103D10009A60C7E79A6822F007029A60C2E79C6837
:103D20008A684D68CE682A4324F47F410A4342EAF8
:103D300006229A609A6842F077029A60B2E71A6A9D
:103D40001C6A4E68CD6824F001041C62996922F057
:103D50000A0221F0F001324341EA051199611A6229
:103D60009A6822F0700242F047029A609AE79A68D5
:103D700022F0700242F027029A6093E71A6A1C6AE6
:103D80004E68CD6824F001041C62996922F00A0291
:103D900021F0F001324341EA051199611A629A68F3
:103DA00022F0700242F057029A607BE7704700BF32
:103DB000704700BF704700BF704700BF03681A69B3
:103DC000910710B5044602D5DA68920762D41A69E1
:103DD000500702D5DA68510749D41A69120702D58B
:103DE000DA68100731D41A69D20602D5DA68D0062B
:103DF00018D41A69D10702D5DA68D2076BD41A69C8
:103E0000100602D5DA6811066DD41A69520602D579
:103E1000DA68500657D41A69910602D5DA68920614
:103E200049D410BD6FF010021A61DB69082213F447
:103E3000407F2276204661D1FFF7B8FF2046FFF78A
:103E4000B9FF002223682276D3E76FF008021A61D7
:103E5000DB69042299072276204655D1FFF7A6FF99
:103E60002046FFF7A7FF002223682276BBE76FF00A
:103E700004021A619B69022213F4407F22762046D5
:103E80003FD1FFF793FF2046FFF794FF00222368FE
:103E90002276A2E76FF002021A619B6901229B075A
:103EA000027628D1FFF782FF2046FFF783FF00222A
:103EB000236822768BE76FF0200220461A61BDE866
:103EC000104000F049B86FF040021A612046FFF739
:103ED00073FF23689FE76FF001021A612046FDF728
:103EE0006BFD23688BE76FF080021A61204600F0BB
:103EF00035F8236889E7FFF75BFFD8E7FFF758FF3E
:103F00009FE7FFF755FFC1E7FFF752FFABE700BFA1
:103F100090F83830012B1DD002460220136830B4CF
:103F200082F839005C6824F0700403C95C605C6846
:103F300020435860986820F08000986098680024BA
:103F4000012501439960204682F8395082F83840B3
:103F500030BC704702207047704700BF704700BFF9
:103F60002DE9F047066837690546C068EC69D5F861
:103F700008E02A69696927F4405738433061F368DB
:103F8000A8694EEA020223F416430A4323F00C0305
:103F900022431343F360736923F440730343B4F57E
:103FA000004F7361A34B5DD09E4200F0F68003F595
:103FB00080639E4200F0F180FFF750F96F68DFF8F0
:103FC000788200EB800000EB8000BF00B0FBF7F7C9
:103FD000FFF744F96C6800EB800000EB8000A40060
:103FE000B0FBF4F4FFF73AF9A8FB07376B6800EB76
:103FF00080009B0000EB8000B0FBF3F0A8FB0030DA
:1040000040094FF0640A0AFB1044FFF727F969687A
:1040100000EB80008A0000EB8000B0FBF2F9FFF7B4
:104020001DF924016A68323400EB80009200A8FB7D
:10403000043400EB8000B0FBF2F0A8FB00307F09F5
:10404000640940093F0104F0F0040AFB10921201D8
:104050003232A8FB0223C3F343131C442744B76046
:10406000BDE8F0879E4259D003F580639E4255D04B
:10407000FFF7F4F86F68DFF8C08100EB800000EB19
:1040800080007F00B0FBF7F7FFF7E8F86C6800EB03
:10409000800000EB80006400B0FBF4F4FFF7DEF872
:1040A0006A6800EB8000A8FB073700EB8000530034
:1040B000B0FBF3F3A8FB03235B094FF0640A0AFB90
:1040C0001344E400FFF7CAF83234A8FB04346B68E9
:1040D0007F09240900EB800000EB80005A003F01BB
:1040E00004F4F874B0FBF2F9FFF7B8F8696800EB74
:1040F000800000EB80004900B0FBF1F1A8FB01312A
:1041000049090AFB1192D2003232A8FB0223C3F301
:1041100042133B441C44B460BDE8F087FFF7B6F897
:104120006F68DFF8148100EB800000EB80007F00F7
:10413000B0FBF7F7FFF7AAF86C6800EB800000EB24
:1041400080006400B0FBF4F4FFF7A0F86A6800EBAD
:104150008000A8FB073700EB80005300B0FBF3F3AF
:10416000A8FB03235B094FF0640A0AFB1344E40035
:10417000FFF78CF83234A8FB04346B687F092409FC
:1041800000EB80005A003F0104F4F87400EB80005B
:10419000B0FBF2F9FFF77AF8A8E7FFF777F86F6856
:1041A000DFF8948000EB800000EB8000BF00B0FBE4
:1041B000F7F7FFF76BF86C6800EB800000EB80000E
:1041C000A400B0FBF4F4FFF761F86A6800EB80002C
:1041D000A8FB073700EB80009300B0FBF3F3A8FBCC
:1041E00003235B094FF0640A0AFB13442401FFF721
:1041F0004DF83234A8FB04346B6800EB80009A0061
:1042000000EB8000B0FBF2F9FFF740F8696800EBC3
:10421000800000EB80008900B0FBF1F1A8FB0131C8
:104220007F09640949093F0104F0F0040AFB119277
:104230000DE700BF001001401F85EB51704700BF24
:1042400060B338B590F83930044603F0FF0203B389
:104250002268242384F83930D36823F40053D360D0
:104260002046FFF77DFE23681A6922F490421A6106
:104270005A6922F02A025A61DA680025202142F4A4
:104280000052DA602846E56384F8391084F83A1061
:1042900038BD80F83820FFF7D1FFD9E701207047FB
:1042A000F0B50E4690F83910202983B002D00220D4
:1042B00003B0F0BD002E2ED0002A2CD01F4690F85F
:1042C0003830012B0446F2D0002001212123E06385
:1042D00084F8381084F839300192FDF7CBFD019A4B
:1042E000A28405462068E284E38C9BB2002B3BD07D
:1042F000E28CA368013A92B2B3F5805FE28418D0F1
:104300007A1C3FD1026802F08002002AFAD033788A
:1043100043600136E8E70120CAE7036803F0800341
:1043200073B9002F3AD0FDF7A5FD401B87422068E6
:1043300034D3791CF1D1026802F08002002AFAD04D
:1043400033882269C3F308034360002AE1D10236AF
:10435000CAE7036803F040036BB9FFB1FDF78AFDBC
:10436000401B8742206819D37B1CF2D1036803F0FD
:104370004003002BFAD02023002084F8393084F841
:10438000380095E7036803F08003002BBFD12FB1FD
:10439000FDF770FD401B87422068B1D2C36823F44B
:1043A000D073C3604369202223F0010300214361DD
:1043B00084F83920032084F8381084F83A2077E70D
:1043C000F0B590F83A40202C83B002D0022003B020
:1043D000F0BD002935D0002A33D090F83830012BB9
:1043E000F4D004460127406B174E84F8387000253E
:1043F000134622270A462168A262A385E56384F852
:104400003A70C663114F124E05650764C6640431E5
:10441000FDF73EFE236801951A6801925A680192E1
:10442000019ADA6884F8385042F48072DA605A6986
:1044300042F001025A615A6942F0400228465A612C
:10444000C5E70120C3E700BF5944000895440008B0
:10445000A5440008704700BF08B50368806B1B685F
:1044600013F4807310D10268C385D36823F480737A
:10447000D360536923F0010353615369202123F072
:104480004003536180F83A10FFF7E4FF08BD00BF16
:10449000704700BF08B5806BFFF7FAFF08BD00BF8B
:1044A000704700BF806B08B50368596990F83920E0
:1044B000212A1BD0596990F83A20222A06D0C36BD2
:1044C00043F01003C363FFF7EBFF08BD4A06F6D5C0
:1044D0000022C285DA6822F49072DA605A692021DB
:1044E00022F001025A6180F83A10E8E70906E1D5A6
:1044F0000022C284DA68202122F0C002DA6080F84B
:104500003910D7E71049114BD1F8882042F47002D6
:1045100010B4C1F888201A680D4C002042F0010246
:104520001A6098601A6822F0847222F480321A604D
:104530005C601A684FF0006422F480221A60D86030
:104540008C605DF8044B704700ED00E000380240DD
:1045500010300024F0B52C4D89B02846FEF7C4FB7E
:1045600038B12948FEF7C0FB203818BF012009B038
:10457000F0BD264E0190264B2B60336B254A044636
:1045800043F00203AC603363336B6A6003F00203F1
:10459000019333224FF480434FF44071EA602B6162
:1045A0000222042303911C48DDF804E0069203A9CB
:1045B0001227079305940497FDF7ACFD0294336C22
:1045C00043F400133364336C03F400130293029B2F
:1045D000336A43F400133362336A23F40013336203
:1045E000224621461F20FDF75DFC1F20FDF792FCAF
:1045F000224621462020FDF755FC2020FDF78AFCAD
:104600002846FEF77DF8ACE7700500200038024030
:1046100000540040801A060000040240F0B52C4D02
:1046200089B02846FEF760FB38B12948FEF75CFBED
:10463000203818BF012009B0F0BD264E0190264B4E
:104640002B60336B254A044643F00203AC603363AE
:10465000336B6A6003F00203019333224FF480430B
:104660004FF44071EA602B610222042303911C483D
:10467000DDF804E0069203A9122707930594049736
:10468000FDF748FD0294336C43F400133364336C3C
:1046900003F400130293029B336A43F40013336262
:1046A000336A23F400133362224621461F20FDF7AC
:1046B000F9FB1F20FDF72EFC224621462020FDF7A6
:1046C000F1FB2020FDF726FC2846FEF719F8ACE7A1
:1046D000700500200038024000540040801A060097
:1046E0000004024000207047F0B58DB000241D4D3D
:1046F00000942B6B1C4E1D4843F001032B632B6B66
:10470000049403F001030227009302A910230293EB
:10471000009A03960597FDF7FDFC224621460A20E4
:10472000FDF7C0FB0A20FDF7F5FB01942B6B104849
:104730003B432B632B6B08963B40019307A9012356
:104740000793019A0A970994FDF7E4FC2246214653
:104750000620FDF7A7FB0620FDF7DCFB20460DB089
:10476000F0BD00BF00380240000011100000024000
:104770000004024070B586B00024104B00941A6B00
:104780000F4D104842F001021A631B6B039403F0B3
:10479000010300931022022301A904930192009EB9
:1047A0000295FDF7B7FC224621460A20FDF77AFB69
:1047B0000A20FDF7AFFB204606B070BD003802406E
:1047C00000001110000002402DE9F0470F4601786B
:1047D000B12984B0054690461E461BD012D83D290B
:1047E00013D04FF48053A9781C4802930196CDF85A
:1047F00000803A460123FEF717F830BB002004B0D2
:10480000BDE8F087BC390129EBD8012E88BF47F0FD
:104810008007E6E7002BF1D000244FF4805A4FF0D8
:10482000010901E0B442E9D008EB04033A19A97880
:104830000A480093CDF808A0CDF80490D2B2012325
:10484000FDF7F2FF01340028ECD00448FDF7D2FF59
:10485000FFF780FE012004B0BDE8F087700500205E
:104860002DE9F0470F460178B12984B005469046FE
:104870001E461BD012D83D2913D04FF48053A9787F
:104880001C4802930196CDF800803A460123FEF7BA
:10489000B5F830BB002004B0BDE8F087BC39012971
:1048A000EBD8012E88BF47F08007E6E7002BF1D058
:1048B00000244FF4805A4FF0010901E0B442E9D0DE
:1048C00008EB04033A19A9780A480093CDF808A028
:1048D000CDF80490D2B20123FEF790F801340028FD
:1048E000ECD00448FDF786FFFFF734FE012004B04A
:1048F000BDE8F08770050020F8B500260F460E6071
:1049000005466B4C002800F08C800128637E2AD17C
:10491000012B00F08480FFF781FE01287FD06923FE
:10492000D4202375A07504F1380304F1300E6149D9
:10493000614A667504F1140025766676A676E576FA
:10494000216223636663C4F81CE062623860236AF4
:104950001B68002B00F09E809847012858D0FFF775
:10496000C3FE0020F8BD012B2AD0FFF757FE012817
:1049700026D06921D42201232175A27504F1300EBD
:104980004C4D4D49237604F1380204F11400E376CE
:1049900066756676A67625626663C4F81CE0616279
:1049A00022633860236A1B68002B7AD0984701285D
:1049B000D5D13B681E605E609E60DE601E613E6019
:1049C00063793B4D012B2AD0FFF728FE012826D022
:1049D0006821D622012300262970AA70EB7105F107
:1049E000280005F13C033549354A6E702E716E7111
:1049F000AE71E960AB622E61EE62A8602A643D6030
:104A0000EB681B68002B3DD02846984701282DD124
:104A10003B681E605E609E60DE601E613E6001203D
:104A2000F8BD6379012BFAD0FFF7F8FD0128F6D025
:104A30006822D6232270A370012604F13C0304F1FE
:104A400028001E491E4A657025716571A571E671C1
:104A5000E160A3622561E562A06022643C60E368D6
:104A60001B687BB120469847B04203D0FFF73AFE5F
:104A70000020F8BD3B681D605D609D60DD601D61CC
:104A80003D60CCE7002323606360A360E3602361A3
:104A90003B60C4E7636143608360C36003613B6064
:104AA000BDE7636143608360C36003613B6087E788
:104AB000C40500202C030020B80300208C02002035
:104AC0005C13002060B108B5C3689B6833B1984798
:104AD000A0F10100B0FA80F0400908BD012008BD36
:104AE0000120704760B108B5C368DB6833B19847EF
:104AF000A0F10100B0FA80F0400908BD012008BD16
:104B00000120704720B119B143790B700020704724
:104B10000120704768B108B5C26841B1936933B1EB
:104B20009847A0F10100B0FA80F0400908BD0120CB
:104B300008BD0120704700BFF8B500260F460E6083
:104B400005466A4C002800F08C800128637E2AD13B
:104B5000012B00F08480FFF761FD01287FD06923DD
:104B6000D4202375A07504F1380304F1300E604998
:104B7000604A667504F1140025766676A676E576B9
:104B8000216223636663C4F81CE062623860236AB2
:104B90001B68002B00F09C809847012858D0FFF735
:104BA000A3FD0020F8BD012B2AD0FFF737FD012817
:104BB00026D06921D42201232175A27504F1300E7B
:104BC0004B4D4C49237604F1380204F11400E3768E
:104BD00066756676A67625626663C4F81CE0616237
:104BE00022633860236A1B68002B78D0984701281D
:104BF000D5D13B681E605E609E60DE601E613E60D7
:104C000063793A4D012B2AD0FFF708FD012826D001
:104C10006821D622012300262970AA70EB7105F1C4
:104C2000280005F13C033449344A6E702E716E71D0
:104C3000AE71E960AB622E61EE62A8602A643D60ED
:104C4000EB681B68002B3BD02846984701282DD1E4
:104C50003B681E605E609E60DE601E613E600120FB
:104C6000F8BD6379012BFAD0FFF7D8FC0128F6D004
:104C70006822D6232270A370012604F13C0304F1BC
:104C800028001D491D4A657025716571A571E67181
:104C9000E160A3622561E562A06022643C60E36894
:104CA0001B686BB120469847B04201D00020F8BD88
:104CB0003B681D605D609D60DD601D613D60CEE70D
:104CC000002323606360A360E36023613B60C6E769
:104CD000636143608360C36003613B60BFE76361FE
:104CE00043608360C36003613B6089E7080600207E
:104CF000DC0200207C0300203C0200205C1300202A
:104D000060B108B5C3689B6833B19847A0F1010052
:104D1000B0FA80F0400908BD012008BD01207047AD
:104D200060B108B5C368DB6833B19847A0F10100F2
:104D3000B0FA80F0400908BD012008BD012070478D
:104D400020B119B143790B700020704701207047E2
:104D500020B119B103790B70002070470120704712
:104D600068B108B5C26841B1936933B19847A0F101
:104D70000100B0FA80F0400908BD012008BD012003
:104D8000704700BFF8B50026354C0E600F466379BA
:104D900000282FD0012B2BD0FFF740FC012827D073
:104DA0002346304A43F81C2FBC256361BE202E4B9E
:104DB0006670012104F1140226716671A6712570D6
:104DC000A070E171E3602661A661A2603C60E368C7
:104DD0001B68002B3BD020469847012801D00020BB
:104DE000F8BD3B681E605E609E60DE601E613E60D6
:104DF0000120F8BD012BFBD00546FFF70FFC012871
:104E0000F6D02346174A43F81C2FBC266361BE2008
:104E1000154B6570012104F1140225716571A571AE
:104E20002670A070E171E3602561A561A2603C601D
:104E3000E3681B685BB1204698470128CFD13B68E7
:104E40001D605D609D60DD601D613D60D0E70023F9
:104E500023606360A360E36023613B60C8E700BF39
:104E60004C060020481300207800002060B108B5EF
:104E7000C3689B6833B19847A0F10100B0FA80F095
:104E8000400908BD012008BD0120704760B108B588
:104E9000C368DB6833B19847A0F10100B0FA80F035
:104EA000400908BD012008BD0120704720B119B19B
:104EB00043790B70002070470120704768B108B536
:104EC000C26841B1936933B19847A0F10100B0FACB
:104ED00080F0400908BD012008BD0120704700BFD7
:104EE000F8B50026314C0E600F46637960B3012B94
:104EF00028D0FFF793FB012824D004F11C033D25A3
:104F00003C2004F114012A4A667026716671A6716C
:104F1000E6712570A070E26063612661A661A16000
:104F20003C60E3681B68002B38D020469847012876
:104F300001D00020F8BD3B681E605E609E60DE60B0
:104F40001E613E600120F8BD012BFBD00546FFF736
:104F500065FB0128F6D004F11C033D263C2004F13A
:104F60001401134A657025716571A571E57126708C
:104F7000A070E26063612561A561A1603C60E368A7
:104F80001B685BB1204698470128D2D13B681D6061
:104F90005D609D60DD601D613D60D3E7002323609F
:104FA0006360A360E36023613B60CBE76C06002095
:104FB000AC00002060B108B5C3689B6833B1984766
:104FC000A0F10100B0FA80F0400908BD012008BD41
:104FD0000120704760B108B5C368DB6833B19847FA
:104FE000A0F10100B0FA80F0400908BD012008BD21
:104FF0000120704720B119B143790B700020704730
:105000000120704720B119B103790B70002070475F
:105010000120704768B108B5C26841B1936933B1E6
:105020009847A0F10100B0FA80F0400908BD0120C6
:1050300008BD0120704700BF60B108B5C3689B6A16
:1050400033B19847A0F10100B0FA80F0400908BDE3
:10505000012008BD0120704760B108B5C3685B6BD3
:1050600033B19847A0F10100B0FA80F0400908BDC3
:10507000012008BD01207047F8B501284FF0000657
:105080000F4605460E60AE4C00F00E81022800F07F
:10509000D580002800F0A48094F82D30012B36D064
:1050A000FFF7BCFA012832D02346A64A43F8542F12
:1050B0000220B12284F8282084F82C00E3644FF009
:1050C000B80EA14BA14A84F82960012504F14C01D6
:1050D00004F1280084F82D6084F82E6084F82AE01A
:1050E00084F82F506263A363266521633860636B85
:1050F0001B68002B00F015819847012840F0D080F4
:105100003B681E605E609E60DE601E613E60637E86
:105110008B4D012B2FD0FFF781FA01282BD02B4686
:105120008B4A43F8582FB8200026A87501226B64DB
:105130004FF0BD0E874B85F814E005F1440105F1F1
:1051400014006E756E76AE762A76EA762B626E6203
:10515000AE64E96138602B6A1B68002B00F0E880C0
:105160009847012840F0CA803B681E605E609E60E0
:10517000DE601E613E606379714D012B2ED0FFF71A
:105180004DFA01282AD02B46734A43F85C2F00269B
:10519000EB634FF0BD0E6F4B85F800E0BA200121A4
:1051A00005F13C026E702E716E71AE71A870E971DE
:1051B000EB602E612E64AA603D60EB681B68002BDB
:1051C00000F09E8028469847012840F097803B6871
:1051D0001E605E609E60DE601E613E600120F8BD64
:1051E0006379012BFAD0FFF719FA0128F6D023468C
:1051F000594A43F85C2FBD26E363BA20554B6570CE
:10520000012104F13C0225716571A5712670A07021
:10521000E171E36025612564A2603C60E3681B687E
:10522000002B6DD020469847012867D13B681D6050
:105230005D609D60DD601D613D60CFE794F82D30BD
:10524000012BCBD0FFF7EAF90128C7D023463D4A0E
:1052500043F8542FB82084F82A00E3644FF0B10CCF
:10526000394B3A4A84F829604FF0010E04F14C01A1
:1052700004F1280084F82C5084F82D6084F82E6006
:1052800084F828C084F82FE06263A3632665216355
:105290003860636B1B68002B41D09847012896D07B
:1052A000FFF768FA0020F8BD637E012B96D0FFF768
:1052B000B5F9012892D02346254A43F8582F4FF0DC
:1052C000BD0C4FF0B80E04F14401224A667504F19A
:1052D000140025766676A676E576636484F814C0B5
:1052E00084F816E022626662A664E1613860236A8F
:1052F0001B686BB1984701283FF469AF0020F8BDE7
:10530000002323606360A360E36023613B6065E783
:10531000636143608360C36003613B605EE7A362D7
:10532000F7E7A36243608360C36003613B60EEE61E
:105330006B6143608360C36003613B601BE700BF38
:105340008C0600204C13002030010020A00100201A
:1053500058130020080200205413002060B108B543
:10536000C3689B6833B19847A0F10100B0FA80F0A0
:10537000400908BD012008BD0120704760B108B593
:10538000C368DB6833B19847A0F10100B0FA80F040
:10539000400908BD012008BD0120704720B119B1A6
:1053A00043790B70002070470120704720B119B17C
:1053B00003790B70002070470120704768B108B571
:1053C000C26841B1936933B19847A0F10100B0FAC6
:1053D00080F0400908BD012008BD0120704700BFD2
:1053E000F8B500230D460B60834C032800F2CD80F6
:1053F000DFE800F0769F400294F84130012B37D06F
:10540000FFF70CF9012833D023467C4A43F8702F6C
:105410000320B122002684F83C2084F84000A366D3
:105420004FF0B80E764B774A84F83D60012704F1BF
:10543000680104F13C0084F8416084F8426084F81B
:105440003EE084F84370A264E364E6666164286029
:10545000A36C1B68002B00F09C819847012840F04A
:10546000C7802B681E605E609E60DE601E612E60DD
:105470000120F8BD94F82D30012BF9D0FFF7CEF8BC
:105480000128F5D02346604A43F8742FB82000263F
:1054900084F82A0023664FF0BD0E5C4B84F828E0A8
:1054A0000227012104F1600204F1280084F8296038
:1054B00084F82D6084F82E6084F82C7084F82F1006
:1054C0006363A663666622632860636B1B68002BB8
:1054D00055D1A36243608360C36003612B60C7E75B
:1054E0006379012BC4D0FFF799F80128C0D0234677
:1054F000474A43F8782F00262365BC27454B277081
:10550000BE20012104F15002667026716671A671F9
:10551000A070E171E36026616665A2602C60E368BB
:105520001B68002B00F02E812046984701282AD1C5
:1055300097E7637E012B9BD0FFF770F8012897D087
:105540002346354A43F87C2FBD20002620750122D2
:10555000A365BA272D4B667504F1580104F11400B8
:105560006676A676A7752276E27623626662E6659F
:10557000E1612860236A1B68002B00F000819847D6
:1055800001283FF46EAF0020F8BD94F84130012BA4
:105590004AD0FFF743F8012846D02346174A43F87C
:1055A000702F0320B122002684F83C2084F84000AC
:1055B000A3664FF0B80E124B124A84F83D600127E3
:1055C00004F1680104F13C0084F8416084F8426011
:1055D00084F83EE084F84370A264E364E6666164A4
:1055E0002860A36C1B68CBB19847012800F0BF80EE
:1055F000FFF7C0F80020F8BDEC0600204C13002097
:10560000F40000206C01002058130020D401002079
:10561000481300204400002054130020E36343603B
:105620008360C36003612B6094F82D30614E012BC1
:1056300036D0FEF7F3FF012832D033465E4A43F8F6
:10564000742F0220BD22002786F8282086F82C001F
:1056500033664FF0B80E594B86F82970012106F1D8
:10566000600206F1280086F82D7086F82E7086F804
:105670002AE086F82F107363B76377663263286079
:10568000736B1B68002B00F08680984701287FF41D
:105690007AAF2B681F605F609F60DF601F612F60C3
:1056A0006379444E012B2DD0FEF7B8FF012829D095
:1056B0003346434A43F8782F002733654FF0BC0E3A
:1056C000404B86F800E0BE20012106F150027770C1
:1056D00037717771B771B070F171F36037617765C9
:1056E000B2602E60F3681B68002B5BD03046984791
:1056F00001287FF448AF2B681F605F609F60DF6008
:105700001F612F60637E2B4E012B3FF4B1AEFEF77D
:1057100085FF01283FF4ACAE33462B4A43F87C2F7B
:10572000BA200027B0750122B3654FF0BD0E234BA0
:1057300086F814E006F1580106F1140077757776C3
:10574000B7763276F27633627762F765F161286078
:10575000336A1B689BB1984701287FF414AF2B680C
:105760001F605F609F60DF601F612F6080E62B68B5
:105770001E605E609E60DE601E612E6054E7002346
:105780006361A7E623606360A360E36023612B602D
:105790006EE6E3639EE6B36243608360C3600361C9
:1057A0002B607DE733607360B360F36033612B601F
:1057B000A8E700BFEC06002058130020D401002009
:1057C00048130020440000205413002060B108B5A5
:1057D000C3689B6833B19847A0F10100B0FA80F02C
:1057E000400908BD012008BD0120704760B108B51F
:1057F000C368DB6833B19847A0F10100B0FA80F0CC
:10580000400908BD012008BD0120704720B119B131
:1058100043790B70002070470120704768B108B5CC
:10582000C26841B1936933B19847A0F10100B0FA61
:1058300080F0400908BD012008BD0120704700BF6D
:10584000F0B587B00024104B00941A6B0F4D42F056
:1058500001021A631B6B039403F0010306460093D5
:1058600055F82000009B20270223012201A9029263
:1058700004930197FCF74EFC2246394655F8260062
:10588000FCF72EFD07B0F0BD0038024038000020C4
:1058900030B587B01B4B002500951C6B44F0040409
:1058A0001C631B6B03F004030093009B19B10129D7
:1058B00011D007B030BD144B029103EB80004FF4C0
:1058C000005301934068022301A903930493FCF75A
:1058D00021FC07B030BD0C4B0C4A029203EB800058
:1058E00001A94FF40053406801930395FCF712FCA3
:1058F0002A460F212820FCF7D5FA2820FCF70AFBBE
:1059000007B030BD003802403800002000002110F0
:1059100010B51C4613462246FEF7A2FF003018BF02
:10592000012010BD10B51C4613462246FEF74CFF61
:10593000003018BF012010BD08B50A4601230F2111
:10594000FEF78EFF003018BF012008BD2DE9F0479B
:1059500084B00D4603AA022330210446FEF780FFDF
:1059600050B9022303AA362120469DF80C609DF809
:105970000D70FEF775FF18B1012004B0BDE8F08787
:10598000022303AA3A2120469DF80DA09DF80C9011
:10599000FEF766FF0028EFD1204603AA0223282144
:1059A0009DF80D809DF80C40FEF75AFF0028E3D1CA
:1059B0009DF80D209DF80C30DFED215A49EA0A29A7
:1059C00043EA02230FFA89F976081BB2C9EB0303F5
:1059D000C6EB570707EE103A07EE907A44EA082420
:1059E000F8EEE77A24B2B8EEC77AC9EB040927EEDD
:1059F000277A07EE909AF8EEE76A07EE906A87EE4C
:105A0000266AF8EEE77AB2EE047A76EE277A67EE47
:105A1000877AF4EEE57AF1EE10FA04DD4FF47A704D
:105A200028800020A9E7F5EEC07AF1EE10FAF7D44D
:105A3000FCEEE77ACDED017ABDF80400F0E700BF97
:105A400000007A442DE9F04F83B00C4601AA0223EE
:105A500032218046FEF704FF38B901230DF103021D
:105A600035214046FEF7FCFE18B1012003B0BDE829
:105A7000F08F04230DEB03023C2140469DF8037098
:105A80009DF804509DF80560FEF7EAFE0028ECD171
:105A9000404601AA02232A219DF805B09DF80490F2
:105AA0009DF807A09DF80680FEF7DAFE0028DCD1FD
:105AB0009DF805209DF8043043EA02233A0202F4DF
:105AC0004072BF0149EA0B29154307F440770FFAEA
:105AD00089F9ED081BB23E43C9EB0303C5EBD606BB
