:020000040800F2
:10000000400F0020B5C7000891C7000893C700083B
:10001000D9C70008DDC70008E1C7000800000000DC
:10002000000000000000000000000000E5C700081C
:1000300095C7000800000000E9C7000897C700083E
:10004000EDC70008F1C70008F5C70008F9C70008A8
:10005000FDC7000801C8000805C8000809C8000855
:100060000DC8000811C8000815C8000819C8000804
:100070001DC8000821C8000825C8000829C80008B4
:100080002DC8000831C8000835C8000839C8000864
:100090003DC8000841C8000845C8000849C8000814
:1000A0004DC8000851C8000855C8000859C80008C4
:1000B0005DC8000861C8000865C8000869C8000874
:1000C0006DC8000871C8000875C8000879C8000824
:1000D0007DC8000881C8000885C8000889C80008D4
:1000E0009BC700088DC8000891C8000895C8000883
:1000F00099C800089DC80008A1C80008A5C8000844
:10010000A9C80008ADC80008B1C80008B5C80008F3
:10011000B9C80008BDC80008C1C80008C5C80008A3
:10012000C9C80008CDC80008D1C80008D5C8000853
:10013000D9C80008DDC80008E1C80008E5C8000803
:10014000E9C80008EDC80008F1C80008F5C80008B3
:10015000F9C80008FDC8000801C9000805C9000861
:1001600009C900080DC9000811C9000815C900080F
:1001700019C900081DC9000821C9000800000000B5
:1001800025C9000829C9000870B5044682B0A068D6
:100190000668356800208DF800006946204602F0A8
:1001A000F9F800B39DF80000217888421BD10421A2
:1001B000204602F057FBB0B14021204602F0F6F88D
:1001C00088B10021204602F0D1FA60B1DFF8FC09C5
:1001D00070600021204602F05BF920B1002120462A
:1001E00002F003F910B9012002B070BD012028709F
:1001F000607102B0002070BD70B5044682B0A06886
:1002000005682E6800208DF800006946204602F03F
:10021000C1F8002800F0CC809DF8000021788842C9
:1002200040F0C6800021204602F0D6FF002800F0F2
:10023000BF800021204603F089F8002800F0B88034
:100240000021204602F0C5FD002800F0B180002109
:10025000204602F02DFF002800F0AA800021204651
:1002600002F007FF002800F0A3800021204602F0E2
:1002700075FF002800F09C800021204603F028F83C
:10028000002800F095800021204602F0A2FD002801
:1002900000F08E800021204602F0D8FD002800F0FA
:1002A00087800021204602F0BEFA002800F08080FE
:1002B0000021204602F071FB002879D00021204661
:1002C00002F08AFB002873D00021204603F0C9F811
:1002D00000286DD00021204602F0BCFF002867D026
:1002E0000021204603F070F8002861D0002120464C
:1002F00002F06FFD00285BD00021204602F088FD4F
:10030000002855D00021204602F0BFFD00284FD024
:100310000021204602F0D7FD002849D000212046C8
:1003200002F0FAFC002843D00021204602F013FD21
:1003300000283DD00021204602F02CFD002837D0B7
:100340000021204602F029FF002831D0002120465C
:1003500002F0DDFF60B30021204602F03AFD38B321
:100360000021204602F054FD10B30021204602F087
:100370008CFDE8B10021204602F0A5FDC0B10021AE
:10038000204602F0BEFD98B10021204602F0F7FDA4
:1003900070B10021204602F0BFFC48B10021204688
:1003A00002F0D9FC20B10021204602F0F3FC10B984
:1003B000012002B070BD0021204602F0B0FE0028EE
:1003C000F6D00021204602F064FF0028F0D0002182
:1003D000204602F0C3FA0028EAD00021204602F0AD
:1003E000FBFA0028E4D00021204602F014FF002888
:1003F000DED00021204602F0C8FF0028D8D000211E
:10040000204602F0E6FC0028D2D00021204602F06F
:1004100012FE0028CCD00021204602F092FD0028D8
:10042000C6D0A07978B1A0680068011D204600F010
:10043000AFF90128BCD00021204602F029F800289D
:10044000B6D00020A071002068603070607102B0EA
:1004500070BD000010B50446A07901285CD0A068EA
:10046000006890ED010ADFED9B0AB4EE600AF1EE40
:1004700010FA48BF102147D4DFED970AB4EE600AA6
:10048000F1EE10FA48BF20213ED4DFED940AB4EE1D
:10049000600AF1EE10FA48BF302135D4DFED900A42
:1004A000B4EE600AF1EE10FA48BF40212CD4DFED23
:1004B0008D0AB4EE600AF1EE10FA48BF502123D441
:1004C000DFEDAF0AB4EE600AF1EE10FA48BF60212A
:1004D0001AD4DFEDAC0AB4EE600AF1EE10FA48BFB0
:1004E000702111D4DFEDA80AB4EE600AF1EE10FA23
:1004F00048BF802108D4DFEDA50AB4EE600AF1EE12
:1005000010FA4CBF9021A021204601F0C1FF08B98C
:10051000012010BD0120A071002010BD30B504469F
:1005200081B0A07900284ED0A0680068051D6946FA
:10053000204601F0CCFF002840D09DF800000028A4
:1005400030D010282CD0202827D0302822D0402886
:100550001DD0502818D0602813D070280ED08028C5
:1005600009D0902804D0A02825D1DFF89C0719E0F5
:10057000DFF86C0616E0DFF8640613E0DFF85806D3
:1005800010E0DFF850060DE0DFF844060AE0DFF87F
:100590003C0607E0DFF8300604E0DFF8240B01E05A
:1005A000DFF8200B28600021204601F071FF40B9E0
:1005B000012001B030BDDFF8100B2860012001B030
:1005C00030BD0020A07101B030BD00B581B001F098
:1005D000E1FE401E8041C00F01B000BD10B582B0E9
:1005E000044600208DF800006946204601F0D2FE46
:1005F00020B19DF800002178884202D0012002B08D
:1006000010BD002002B010BD2DE9F04184B00C46B1
:100610000021CDE900118046694601F015FF002850
:1006200054D09DF801109DF800209DF8040002EBC5
:1006300001269DF803109DF8022002EB01279DF88A
:10064000051000EB012502A9404601F0EDFE00284F
:100650003CD09DF808000C2838D8DFE800F01037AF
:100660003737073737370D3737370A009FED850A99
:1006700007E09FED850A04E09FED840A01E09FED0D
:10068000840A36B200EE906AF8EEE00A60EE800A64
:10069000FDEEE00AC4ED000A3FB200EE907AF8EEFB
:1006A000E00A60EE800AFDEEE00AC4ED010A2DB218
:1006B00000EE905AF8EEE00A20EE800ABDEEC00A85
:1006C00084ED020A002004B0BDE8F081012004B0EE
:1006D000BDE8F081010050410100D04101005042CD
:1006E0000100D0420100504310B582B00C4669466B
:1006F0000022C1E9002201F0A7FE10B9012002B0DA
:1007000010BD9DF801109DF8002002EB0121218011
:100710009DF802209DF8031002EB012161809DF8F5
:1007200004009DF8051000EB0120A08002B000201D
:1007300010BD000010B582B00C46694601F074FE91
:10074000D0B19DF800000C2813D8DFE800F00712A4
:100750001212101212120C1212120E004C482060CB
:1007600002B0002010BD4948F9E74748F7E745487F
:10077000F5E7DFF8D80A2060012002B010BD0000C4
:100780000100D043014050440180CF440120504536
:1007900010B582B00C46694601F099FE10B90120EF
:1007A00002B010BD9DF80000C8B110281BD0202851
:1007B0001CD030281DD040281ED050281FD06028C3
:1007C00020D0702821D0802822D0902823D0A028A3
:1007D00024D0DFF8F408206002B0012010BD2060B2
:1007E00002B0002010BDDFF8DC08F8E7DFF8D00821
:1007F000F5E7DFF8D403F2E7DFF8D003EFE7DFF83F
:10080000D003ECE7DFF8CC03E9E7DFF8CC03E6E759
:10081000DFF8C803E3E7DFF8C803E0E7DFF8E80440
:10082000DDE7000000B581B08279012A13D10429E7
:100830000ED8DFE801F0090907050300402104E0B4
:10084000302102E0202100E0102101F021FEB0B9AA
:10085000012001B000BD806800680429F8D8DFE8F5
:1008600001F00B0B08060400F2E7D84906E0D64970
:1008700004E0DFF84C1801E0DFF848184160002080
:1008800001B000BD23DBF93E23DB793E23DBF93DDC
:1008900023DB793D00B581B081790129DFED8F0A35
:1008A00055D1B4EE600AF1EE10FA48BF102147D4DA
:1008B000DFED8B0AB4EE600AF1EE10FA48BF20219A
:1008C0003ED4DFED880AB4EE600AF1EE10FA48BFBC
:1008D000302135D4DFED840AB4EE600AF1EE10FA6F
:1008E00048BF40212CD4DFEDB30AB4EE600AF1EE2C
:1008F00010FA48BF502123D4DFEDAF0AB4EE600AEE
:10090000F1EE10FA48BF60211AD4DFEDAC0AB4EE64
:10091000600AF1EE10FA48BF702111D4DFEDA80A89
:10092000B4EE600AF1EE10FA48BF802108D4DFED82
:10093000A50AB4EE600AF1EE10FA4CBF9021A02196
:1009400001F0A6FD00285FD1012001B000BD806844
:100950000068B4EE600AF1EE10FA48BFB2EE0A0A7F
:1009600050D4DFED5F0AB4EE600AF1EE10FA48BF32
:10097000B3EE0A0A46D4DFED5B0AB4EE600AF1EE8C
:1009800010FA48BF9FED900A3CD4DFED570AB4EE51
:10099000600AF1EE10FA48BF9FED8C0A32D4DFED09
:1009A000850AB4EE600AF1EE10FA48BF9FED880A9E
:1009B00028D4DFED810AB4EE600AF1EE10FA48BFE8
:1009C0009FED840A1ED4DFED7D0AB4EE600AF1EEDD
:1009D00010FA48BF9FED800A14D4DFED790AB4EE17
:1009E000600AF1EE10FA48BF9FED7C0A0AD4DFEDF1
:1009F000750AB4EE600AF1EE10FA4CBF9FED780A6A
:100A00009FEDC10A80ED010A002001B000BD000089
:100A100010B582B00C46694601F006FDF0B19DF8B4
:100A200000000C2817D8DFE800F00716161613167A
:100A300016160D16161610004FF08040206002B0FA
:100A4000002010BD4FF08140F8E74FF08240F5E7FD
:100A50004FF08340F2E7DFF8F4072060012002B096
:100A600010BD000000B5042981B010D8DFE801F006
:100A7000030F0B0F0D00002101F0B7FC401E804159
:100A8000C00F01B000BD0821F6E70C21F4E70120FA
:100A900001B000BDDFED9D0A00B5B4EE600AF1EED5
:100AA00010FA81B048BF002111D4DFED990AB4EEED
:100AB000600AF1EE10FA48BF082108D4DFEDBD0A44
:100AC000B4EE600AF1EE10FA4CBF0C21042101F0E3
:100AD0008CFC401E8041C00F01B000BD01005041A0
:100AE0000100D041010050420100D04200B581B068
:100AF000012301F03DFC401E8041C00F01B000BD4C
:100B000000B581B001238DF800206A4601F039FC60
:100B1000401E8041C00F01B000BD10B582B00C4630
:100B2000694602F028F848B19DF80000002818BF77
:100B3000012803D1207002B0002010BD012002B0B6
:100B400010BD70B5044682B0A06806683568002004
:100B50008DF800006946204601F01CFC00B39DF8AA
:100B60000000217888421BD10421204601F07AFE42
:100B7000B0B14021204601F019FC88B10021204687
:100B800001F0F4FD60B1DFF8080870600021204634
:100B900001F001FD20B10C21204601F0A8FC10B9A4
:100BA000012002B070BD01206870607102B00020A9
:100BB00070BD0000010050430100D043014050448B
:100BC0000180CF4401205045000050420000D04237
:100BD000000050430000D043004050440080CF4408
:100BE0000020504570B5044682B0A06805682E68A4
:100BF00000208DF800006946204601F0CBFB98B13B
:100C00009DF80000217888420ED1A07988B1A068B3
:100C10000068011D204600F0CFF9012804D0002112
:100C2000204601F0B8FC10B9012002B070BD0020D0
:100C3000A071002068607070607102B070BD00002B
:100C400010B50446A07901285CD0A068006890ED3A
:100C5000010ADFEDA30AB4EE600AF1EE10FA48BF14
:100C6000102147D4DFED9F0AB4EE600AF1EE10FACE
:100C700048BF20213ED4DFED9C0AB4EE600AF1EEBD
:100C800010FA48BF302135D4DFED980AB4EE600A7F
:100C9000F1EE10FA48BF40212CD4DFED950AB4EEF6
:100CA000600AF1EE10FA48BF502123D4DFED910A1B
:100CB000B4EE600AF1EE10FA48BF60211AD4DFEDFD
:100CC0008E0AB4EE600AF1EE10FA48BF702111D41A
:100CD000DFED8A0AB4EE600AF1EE10FA48BF802117
:100CE00008D4DFEDB40AB4EE600AF1EE10FA4CBF9E
:100CF0009021A021204601F04EFC08B9012010BD32
:100D00000120A071002010BD0020D045010000404E
:100D10000100804030B5044681B0A079002847D05A
:100D2000A0680068051D6946204601F053FC0028B4
:100D300039D09DF80000002829D0102825D020287F
:100D400020D030281BD0402817D0502813D060283E
:100D50000FD070280BD0802807D0902803D0A0286F
:100D60001ED1B44813E0B44811E0B4480FE0B448D1
:100D70000DE0B4480BE0B44809E0B44807E0DFF800
:100D80004C0304E0DFF8380301E0DFF838032860A3
:100D90000021204601F0FFFB40B9012001B030BD29
:100DA000DFF8A8042860012001B030BD0020A07148
:100DB00001B030BD0100004100B581B001F0EAFA98
:100DC000401E8041C00F01B000BD10B582B0044686
:100DD00000208DF800006946204601F0DBFA20B1C2
:100DE0009DF800002178884202D0012002B010BD99
:100DF000002002B010BD00002DE9F04184B0804613
:100E00000C4601A80021C0E90011404601A901F0EB
:100E10009DFB002860D001A89DF80420417802EBDA
:100E200001269DF807108278007902EB01279DF8D2
:100E3000091000EB01250DF10101404601F0F9FB1D
:100E4000002849D09DF80100022808BF9FED970AAD
:100E50001DD06946404601F069FB00283CD09DF852
:100E600000000C2838D8DFE800F0103737370D378E
:100E700037370A37373707009FED8D0A07E09FEDB8
:100E80008D0A04E09FED8C0A01E09FED8C0A36B2DA
:100E900000EE906AF8EEE00A60EE800AFDEEE00AED
:100EA000C4ED000A3FB200EE907AF8EEE00A60EE80
:100EB000800AFDEEE00AC4ED010A2DB200EE905A60
:100EC000F8EEE00A20EE800ABDEEC00A84ED020AC8
:100ED000002004B0BDE8F081012004B0BDE8F0813D
:100EE000010050410100D041010050420100D042B8
:100EF000010050430100D043014050440180CF44E1
:100F000010B582B00C4669460022C1E9002201F00A
:100F10001DFB10B9012002B010BD9DF801109DF815
:100F2000002002EB012121809DF802209DF8031092
:100F300002EB012161809DF804009DF8051000EB93
:100F40000120A08002B0002010BD000030B581B0AB
:100F50000C4605460DF1010101F06BFB68B19DF8EF
:100F60000100022804D15148206001B0002030BDAA
:100F70006946284601F0DAFA10B9012001B030BD07
:100F80009DF800000C2810D8DFE800F0070F0F0FC5
:100F9000090F0F0F0B0F0F0F0D004848E4E74648ED
:100FA000E2E74448E0E74248DEE7A848206001B0B5
:100FB000012030BD0120504510B582B00C46694675
:100FC00001F008FB10B9012002B010BD9DF800002F
:100FD000C0B110281AD020281AD030281AD04028A2
:100FE0001AD050281AD060281AD070281AD0802819
:100FF0001AD090281AD0A0281AD03348206002B006
:10100000012010BD206002B0002010BD2D48F9E77E
:101010002B48F7E72D48F5E70C48F3E70A48F1E7D6
:101020000848EFE70648EDE70448EBE70248E9E740
:101030000048E7E70020D045002050450080CF441D
:10104000004050440000D043000050430000D04214
:1010500000B581B08279012A13D104290ED8DFE8C6
:1010600001F0090907050300402104E0302102E0F6
:10107000202100E0102101F08EFAA0B9012001B07A
:1010800000BD806800680429F8D8DFE801F00A0A8A
:1010900008060400F2E7BE4904E00C4902E00849F2
:1010A00000E008494160002001B000BD00008C4014
:1010B00000008C4200000C4200008C4100000C41FA
:1010C0000000D04100005041000080BF00005042AD
:1010D00000B581B081790129DFED7A0A55D1B4EEEE
:1010E000600AF1EE10FA48BF102147D4DFED9F0AE5
:1010F000B4EE600AF1EE10FA48BF20213ED4DFEDD5
:101100009C0AB4EE600AF1EE10FA48BF302135D4E3
:10111000DFED980AB4EE600AF1EE10FA48BF402104
:101120002CD4DFED950AB4EE600AF1EE10FA48BF58
:10113000502123D4DFED910AB4EE600AF1EE10FAEB
:1011400048BF60211AD4DFED8E0AB4EE600AF1EEDA
:1011500010FA48BF702111D4DFED8A0AB4EE600A9C
:10116000F1EE10FA48BF802108D4DFED870AB4EE13
:10117000600AF1EE10FA4CBF9021A02101F00BFAA9
:1011800000285FD1012001B000BD80680068B4EE86
:10119000600AF1EE10FA48BFB2EE0A0A50D4DFED51
:1011A000730AB4EE600AF1EE10FA48BFB3EE0A0A11
:1011B00046D4DFED6F0AB4EE600AF1EE10FA48BFD4
:1011C0009FED720A3CD4DFED6B0AB4EE600AF1EEDB
:1011D00010FA48BF9FED6E0A32D4DFED670AB4EE15
:1011E000600AF1EE10FA48BF9FED6A0A28D4DFEDDD
:1011F000630AB4EE600AF1EE10FA48BF9FED660A8A
:101200001ED4DFED5F0AB4EE600AF1EE10FA48BFBB
:101210009FEDA50A14D4DFED5B0AB4EE600AF1EE8F
:1012200010FA48BF9FEDA10A0AD4DFED570AB4EEC9
:10123000600AF1EE10FA4CBF9FED9D0A9FED9D0AEA
:1012400080ED010A002001B000BD0000000080BF59
:1012500030B581B00C460546694601F0EAF928B17F
:101260000DF10101284601F061F910B9012001B02A
:1012700030BD9DF80000022805D1DFF8C8092060C4
:1012800001B0002030BD9DF801000C2814D8DFE823
:1012900000F0071313130A1313130D131313100085
:1012A000DFF8A409EBE7DFF8A409E8E7DFF8A00915
:1012B000E5E7DFF8A009E2E7DFF89C09206001B06C
:1012C000012030BD0100504100B5042981B010D883
:1012D000DFE801F0030F0B0F0D00002101F007F90B
:1012E000401E8041C00F01B000BD0421F6E70C2173
:1012F000F4E7012001B000BD30B5DFED970AB4EE90
:10130000600AF1EE10FA81B0044606D5022101F020
:1013100071F938B3002001B030BDDFED900AB4EEB2
:10132000600AF1EE10FA48BF002511D4DFED8C0AF7
:10133000B4EE600AF1EE10FA48BF042508D4DFEDE0
:10134000890AB4EE600AF1EE10FA4CBF08250C25AC
:10135000002101F04FF928B12946204601F0C7F8D5
:101360000028D7D1012001B030BD00000100D041DC
:10137000010050420100D042010050430100D0431F
:10138000014050440180CF440120504500005042AC
:101390000000D042000050430000D04300B581B0AF
:1013A000012300F0E5FF401E8041C00F01B000BDE9
:1013B00000B581B001238DF800206A4600F0E1FFFE
:1013C000401E8041C00F01B000BD10B582B00C4678
:1013D000694601F0E0FB48B19DF8000010B1022819
:1013E00004D10120207002B0002010BD012002B005
:1013F00010BD0000DFED5C0A00B5B4EE600AF1EE4E
:1014000010FA81B048BF102147D4DFED580AB4EE7E
:10141000600AF1EE10FA48BF20213ED4DFED540AF5
:10142000B4EE600AF1EE10FA48BF302135D4DFED9A
:10143000510AB4EE600AF1EE10FA48BF40212CD4F4
:10144000DFED4D0AB4EE600AF1EE10FA48BF50210C
:1014500023D4DFED4A0AB4EE600AF1EE10FA48BF79
:1014600060211AD4DFED460AB4EE600AF1EE10FAFC
:1014700048BF702111D4DFED430AB4EE600AF1EEEB
:1014800010FA48BF802108D4DFED3F0AB4EE600AAD
:10149000F1EE10FA4CBF9021A02100F0F9FF401EA0
:1014A0008041C00F01B000BD004050440080CF44D7
:1014B000002050450020D04530B5044681B0A079C9
:1014C00001280D469FED310A07D12046FFF792FF14
:1014D000012806D1012001B030BDA068006880ED70
:1014E000010A0021204600F080FF002831D00621AB
:1014F000204601F0DDFD60B30021204601F09BFD98
:1015000038B30021204601F077FD10B300212046BA
:1015100001F054FDE8B10321204601F0AAFDC0B15D
:101520008021204601F055FC98B125B1012D0AD04B
:10153000012001B030BD1021204601F04DFE40B128
:10154000002001B030BD1021204601F0FFFE002830
:10155000F6D1012001B030BD0100FA42010075430F
:101560000100FA4301007A44010050410100D041DA
:10157000010050420100D042010050430100D0431D
:10158000014050440180CF44012050450000D04329
:1015900010B50446002101F01FFE70B10021204665
:1015A00001F0D4FE48B10021204601F012FC20B128
:1015B0000021204601F07CFD08B9012010BD00216A
:1015C000204601F056FD401E8041C00F10BD10B5F1
:1015D00082B00C46694601F02EFA48B19DF8000031
:1015E00010B1202804D10120207002B0002010BDCD
:1015F000012002B010BD00B581B001F03AFD401EDF
:101600008041C00F01B000BD10B50446B3EE0A0A18
:10161000A079012805D12046FFF7ECFE012804D16E
:1016200010BDA068006880ED010A0021204600F08E
:10163000DCFE70B11721204601F013FF48B10421F0
:10164000204601F0C9F920B11021204601F0A5F98A
:1016500008B9012010BD8021204601F0E4F8401EA9
:101660008041C00F10BD10B50446002101F0DBF829
:1016700048B10021204601F090F920B10021204618
:1016800001F0AAF908B9012010BD0021204601F09F
:10169000E8FE401E8041C00F10BD10B582B00C4660
:1016A000694601F0FAFA48B19DF8000010B110281F
:1016B00004D10120207002B0002010BD012002B032
:1016C00010BD00B581B001F0B5FE401E8041C00FD5
:1016D00001B000BD00B581B0022101F020F9401E2B
:1016E0008041C00F01B000BD00B581B0002101F004
:1016F00016F9401E8041C00F01B000BD00B581B099
:1017000001F0AFFE401E8041C00F01B000BD30B5FA
:10171000044681B0A07901280D46B3EE0A0A07D12C
:101720002046FFF767FE012806D1012001B030BD39
:10173000A068006880ED010A0021204600F055FEF7
:10174000E8B10421204601F047F9C0B10821204644
:1017500001F004F998B125B1012D0AD0012001B0A2
:1017600030BD0221204601F0DAFC40B1002001B07A
:1017700030BD0221204601F08CFD0028F6D1012069
:1017800001B030BD10B50446002101F0C8FC48B1DD
:101790000021204601F07DFD20B10021204601F00E
:1017A000DDF808B9012010BD0021204601F014F930
:1017B000401E8041C00F10BD10B582B00C46694676
:1017C00001F07BFA48B19DF8000010B1202804D147
:1017D0000120207002B0002010BD012002B010BD19
:1017E00030B5044681B0A07901280D469FEDBA0AB4
:1017F00007D12046FFF7FEFD012806D1012001B0E8
:1018000030BDA068006880ED010A0021204600F08C
:10181000ECFD10B30021204601F00DFCE8B10221DF
:10182000204601F08EFBC0B18021204601F0D1FAA4
:1018300098B125B1012D0AD0012001B030BD202181
:10184000204601F0E8FC40B1002001B030BD20216D
:10185000204601F09AFD0028F6D1012001B030BDEC
:1018600010B50446002101F0D6FC70B100212046DD
:1018700001F08BFD48B10021204601F0AAFA20B109
:101880000021204601F0D7FB08B9012010BD00213E
:10189000204601F056FB401E8041C00F10BD10B520
:1018A00082B00C46694601F0B6F848B19DF80000D8
:1018B00010B1082804D10120207002B0002010BD12
:1018C000012002B010BD00B581B001F03AFB401E0E
:1018D0008041C00F01B000BD30B5044681B0A07991
:1018E00001280D469FED7C0A07D12046FFF782FDB7
:1018F000012806D1012001B030BDA068006880ED4C
:10190000010A0021204600F070FD002837D0082190
:10191000204601F03FFA002831D00421204601F092
:101920001AFA60B30221204601F0F6F938B3082113
:10193000204601F06DFA10B30221204601F0A5FA0D
:10194000E8B10121204601F0BEFAC0B18021204655
:1019500001F03FFA98B125B1012D0AD0012001B064
:1019600030BD4021204601F075FC40B1002001B09F
:1019700030BD4021204601F027FD0028F6D101208E
:1019800001B030BD10B50446002101F063FC10B376
:101990000021204601F018FDE8B10021204601F0A9
:1019A00018FAC0B10021204601F032FA98B10021A6
:1019B000204601F06AFA70B10021204601F083FA56
:1019C00048B10021204601F0A7F920B100212046AE
:1019D00001F0C1F908B9012010BD0021204601F035
:1019E000D9F9401E8041C00F10BD10B582B00C4621
:1019F000694601F040F848B19DF8000010B1202878
:101A000004D10120207002B0002010BD012002B0DE
:101A100010BD000030B5044681B0A07901280D4604
:101A20009FED2D0A07D12046FFF7E4FC012806D1DF
:101A3000012001B030BDA068006880ED010A0021DE
:101A4000204600F0D2FC002843D00821204601F0B7
:101A5000A1F900283DD00421204601F07CF900289E
:101A600037D00221204601F057F9002831D0082153
:101A7000204601F0CDF960B30321204601F005FABC
:101A800038B30321204601F01EFA10B30821204686
:101A900001F037FAE8B18021204601F070FAC0B1B8
:101AA0008021204601F095F998B125B1012D0AD089
:101AB000012001B030BD0821204601F06EFB40B18D
:101AC000002001B030BD0821204601F020FC002894
:101AD000F6D1012001B030BD0000D04310B504465E
:101AE000002101F05AFB00282CD00021204601F0F3
:101AF0000EFC38B30021204601F06BF910B3002131
:101B0000204601F085F9E8B10021204601F0BDF939
:101B1000C0B10021204601F0D6F998B1002120463D
:101B200001F0EFF970B10021204601F028FA48B128
:101B30000021204601F0F0F820B10021204601F0FC
:101B40000AF908B9012010BD0021204601F022F950
:101B5000401E8041C00F10BD10B582B00C466946D2
:101B600000F079FF48B19DF8000010B1102804D1B1
:101B70000120207002B0002010BD012002B010BD75
:101B800000B581B001F044F9401E8041C00F01B0A2
:101B900000BD00B581B001F078F9401E8041C00F52
:101BA00001B000BD00B581B001F08DF9401E80414B
:101BB000C00F01B000BD00B581B001F0A2F9401E18
:101BC0008041C00F01B000BD30B5044681B0A0799E
:101BD00001280D469FED1A0A07D12046FFF70AFC9F
:101BE000012806D1012001B030BDA068006880ED59
:101BF000010A0021204600F0F8FBE8B14021204610
:101C000001F024F9C0B18021204601F0E2F898B13A
:101C100025B1012D0AD0012001B030BD042120469C
:101C200001F09CFA40B1002001B030BD04212046F3
:101C300001F04EFB0028F6D1012001B030BD0000BC
:101C40000000D0430000FA42000075430000FA4350
:101C500000007A440000FA44000080BF10B504463A
:101C6000002101F07BFA48B10021204601F030FB51
:101C700020B10021204601F0ACF808B9012010BDC8
:101C80000021204601F0E2F8401E8041C00F10BD47
:101C900010B582B00C46694600F05DFF48B19DF872
:101CA000000010B1402804D10120207002B00020B3
:101CB00010BD012002B010BD10B582B00C466946BF
:101CC00000F0E9FE48B19DF80000002818BF012887
:101CD00003D1207002B0002010BD012002B010BD61
:101CE00010B582B00C46694600F0E5FE48B19DF89B
:101CF000000010B1022804D10120207002B00020A1
:101D000010BD012002B010BD10B582B00C4669466E
:101D100000F0E1FE48B19DF8000010B1042804D1A4
:101D20000120207002B0002010BD012002B010BDC3
:101D300010B582B00C46694600F0DDFE48B19DF852
:101D4000000010B1082804D10120207002B000204A
:101D500010BD012002B010BD10B582B00C4669461E
:101D600000F0D9FE48B19DF8000010B1102804D150
:101D70000120207002B0002010BD012002B010BD73
:101D800010B582B00C46694600F0D5FE48B19DF80A
:101D9000000010B1202804D10120207002B00020E2
:101DA00010BD012002B010BD30B583B00446002044
:101DB000ADF804008DF8060000900D460421284679
:101DC00001F090FB012301AA1B21204600F0D0FA6C
:101DD000002800F0A88001230DF103021C212046F9
:101DE00000F0C6FA002800F09E8001230DF10602E3
:101DF0001D21204600F0BCFA002800F09480012349
:101E00000DF102025321204600F0B2FA002800F042
:101E10008A8001230DF101025E21204600F0A8FA1C
:101E2000002800F0808001236A465F21204600F0F0
:101E30009FFA002877D001230DF105020D212046DD
:101E400000F096FA00286ED09DF80100C00603D479
:101E50009DF80000C00607D59DF80400800603D554
:101E6000286840F0010028609DF80100800603D436
:101E70009DF80000800607D59DF80400000703D5F3
:101E8000286840F0080028609DF80100400603D44F
:101E90009DF80000400607D59DF80300800603D595
:101EA000286840F0020028609DF80100000703D474
:101EB0009DF80000000707D59DF80300C00603D574
:101EC000286840F0040028609DF80100400703D412
:101ED0009DF80000400707D59DF80600400603D591
:101EE000286840F0400028609DF80500000607D5EE
:101EF0009DF80200C00603D5286840F01000286055
:101F00009DF80100800703D49DF80000800707D5E5
:101F10009DF80200800603D5286840F02000286064
:101F2000002003B030BD012003B030BDDFED920AC8
:101F300000B5B4EE600AF1EE10FA81B048BF082196
:101F400047D4DFEDB40AB4EE600AF1EE10FA48BFF0
:101F500010213ED4DFEDB00AB4EE600AF1EE10FAC3
:101F600048BF182135D4DFEDAD0AB4EE600AF1EEBA
:101F700010FA48BF20212CD4DFEDA90AB4EE600A84
:101F8000F1EE10FA48BF282123D4DFEDA60AB4EE03
:101F9000600AF1EE10FA48BF30211AD4DFEDA20A30
:101FA000B4EE600AF1EE10FA48BF382111D4DFED2B
:101FB0009F0AB4EE600AF1EE10FA48BF402108D43F
:101FC000DFED9B0AB4EE600AF1EE10FA4CBF482137
:101FD000502100F0EAFB401E8041C00F01B000BD5F
:101FE00010B582B00C46694600F016FE68B19DF847
:101FF000000020B1202806D0012002B010BD2070C2
:1020000002B0002010BD0120F9E7012002B010BD90
:1020100010B582B00C46694600F0EEFD68B19DF83F
:10202000000020B1102806D0012002B010BD2070A1
:1020300002B0002010BD0120F9E7012002B010BD60
:1020400010B582B00C46694600F0F6FD68B19DF807
:10205000000020B1402806D0012002B010BD207041
:1020600002B0002010BD0120F9E7012002B010BD30
:1020700000B581B000F0F0FD401E8041C00F01B0FE
:1020800000BD00B581B001F0BEF9401E8041C00F17
:1020900001B000BD00B581B000F08DFD401E804153
:1020A000C00F01B000BD00B5072981B006D800F00F
:1020B000FFFA401E8041C00F01B000BD012001B0F9
:1020C00000BD00B50A0018BF082981B00BD0102947
:1020D00018BF182907D0202918BF282903D0302974
:1020E00018BF382906D100F003FB401E8041C00F05
:1020F00001B000BD012001B000BD000070B582B08C
:102100000D460446694601F07EF9002831D09DF85D
:1021100001009DF8001041EA00260DF10201204661
:1021200000F082F928B39DF802000C2821D8DFE8DE
:1021300000F010202020072020200D2020200A0061
:102140009FED3C0A07E09FED3C0A04E09FED3B0A4F
:1021500001E09FED3B0A36B200EE906AF8EEE00A2D
:1021600020EE800ABDEEC00A85ED000A002002B014
:1021700070BD012002B070BD0100204170B582B079
:102180000D4604460DF1020101F03DF900283ED054
:102190009DF803009DF8021041EA00260DF10101AF
:1021A000204600F046FA002831D09DF801000228B0
:1021B00008BF9FED240A1CD06946204600F0B6F9FE
:1021C00028B39DF800000C2821D8DFE800F010208B
:1021D00020200D2020200A20202007009FED1A0A31
:1021E00007E09FED1A0A04E09FED190A01E09FED58
:1021F000190A36B200EE906AF8EEE00A20EE800A84
:10220000BDEEC00A85ED000A002002B070BD0120BD
:1022100002B070BD0100C841010048420100C8423F
:10222000010048430100C843010048440100C8447C
:1022300001404E4523DBF93E23DB793E23DBF93DAC
:1022400023DB793D00008C4000008C4200000C42F2
:1022500000008C4100000C4100B5062981B00CD86B
:10226000DFE801F004040B04040B040000F07EFA24
:10227000401E8041C00F01B000BD012001B000BD73
:1022800000B50A0018BF202981B006D100F0ACFAD1
:10229000401E8041C00F01B000BD012001B000BD53
:1022A00000B581B000F0D5F9401E8041C00F01B0EB
:1022B00000BD00B50A0018BF802981B006D100F02A
:1022C00036FA401E8041C00F01B000BD012001B0B0
:1022D00000BD00B5012981B006D800F0FEFC401E0B
:1022E0008041C00F01B000BD012001B000BD00B5AC
:1022F000032981B006D800F0D4FA401E8041C00FF7
:1023000001B000BD012001B000BD00B5012981B0C0
:1023100006D800F0E2FC401E8041C00F01B000BDB5
:10232000012001B000BD000000B50C2981B00FD81C
:10233000DFE801F0070E0E0E070E0E0E070E0E0E52
:10234000070000F0CDFA401E8041C00F01B000BD73
:10235000012001B000BD8268521C8260426832B127
:102360000268531C036011704168491E4160704748
:1023700000B581B001F0BEF9401E8041C00F01B030
:1023800000BD00B581B001F06BF9401E8041C00F67
:1023900001B000BD00B50A4681B001230F2101F054
:1023A000A9F9401E8041C00F01B000BD30B581B019
:1023B0000D46044601236A46122101F09BF910B133
:1023C000002001B030BD9DF8000000F0BF002843A0
:1023D0008DF8000001236A461221204601F040F9E1
:1023E000401E8041C00F01B030BD30B581B00D46F8
:1023F000044601236A46102101F07CF910B1002047
:1024000001B030BD9DF8000000F0F30028438DF8C6
:10241000000001236A461021204601F021F9401EE8
:102420008041C00F01B030BD10B50C4601232246DB
:10243000102101F05FF908B1002010BD207800F0F4
:102440000C002070012010BDF0B581B004460D468F
:1024500000260327F6B206F128010123AA19C9B202
:10246000204601F047F950B9761CF6B206F1280172
:102470000123AA19C9B2204601F03CF910B100208D
:1024800001B0F0BD761C7F1EE4D1012001B0F0BD8B
:1024900030B581B00D46044601236A46102101F093
:1024A00029F910B1002001B030BD9DF8000000F006
:1024B0000F0028438DF8000001236A4610212046B2
:1024C00001F0CEF8401E8041C00F01B030BD10B504
:1024D0000C4601232246102101F00CF908B100201E
:1024E00010BD207800F0F0002070012010BD30B544
:1024F00081B00D46044601236A46112101F0FAF825
:1025000010B1002001B030BD9DF8000000F0F300D4
:1025100028438DF8000001236A461121204601F06E
:102520009FF8401E8041C00F01B030BD10B50C4671
:1025300001232246112101F0DDF808B1002010BD71
:10254000207800F00C002070012010BDF0B581B0A3
:1025500004460D4600260327F6B206F122010123A8
:10256000AA19C9B2204601F0C5F850B9761CF6B2D6
:1025700006F122010123AA19C9B2204601F0BAF8D6
:1025800010B1002001B0F0BD761C7F1EE4D1012007
:1025900001B0F0BD000030B581B00D460446012306
:1025A0006A46112101F0A6F810B1002001B030BD3B
:1025B0009DF8000000F00F0028438DF80000012373
:1025C0006A461121204601F04BF8401E8041C00FA1
:1025D00001B030BD10B50C4601232246112101F097
:1025E00089F808B1002010BD207800F0F0002070BC
:1025F000012010BD30B581B00D46044601236A4666
:10260000112101F077F810B1002001B030BD9DF824
:10261000000000F0FD0028438DF8000001236A4609
:102620001121204601F01CF8401E8041C00F01B06E
:1026300030BD10B50C4601232246112101F05AF895
:1026400008B1002010BD207800F0020020700120A9
:1026500010BD70B582B0044601236A460D460621BE
:1026600001F048F82E0A78B98DF8005001236A4627
:102670000621204600F0F4FF30B901236A46072105
:10268000204601F037F810B1002002B070BD9DF86F
:10269000000066F302008DF8000001236A4607215E
:1026A000204600F0DDFF401E8041C00F02B070BD2B
:1026B00030B581B00D46044601236A46082101F079
:1026C00019F810B1002001B030BD9DF8000000F0F5
:1026D000F80028438DF8000001236A4608212046AF
:1026E00000F0BEFF401E8041C00F01B030BD0000B1
:1026F00030B581B00D46044601236A46082100F03A
:10270000F9FF10B1002001B030BD9DF8000000F0CD
:10271000C70028438DF8000001236A46082120469F
:1027200000F09EFF401E8041C00F01B030BD30B5AB
:1027300081B00D46044601236A46092100F0DAFF04
:1027400010B1002001B030BD9DF8000000F07F0006
:1027500028438DF8000001236A460921204600F035
:102760007FFF401E8041C00F01B030BD30B581B049
:102770000D46044601236A460A2100F0BBFF10B152
:10278000002001B030BD9DF8000000F0F8002843A3
:102790008DF8000001236A460A21204600F060FF00
:1027A000401E8041C00F01B030BD30B581B00D4634
:1027B000044601236A460A2100F09CFF10B1002064
:1027C00001B030BD9DF8000000F0870028438DF86F
:1027D000000001236A460A21204600F041FF401E06
:1027E0008041C00F01B030BD30B581B00D46044608
:1027F00001236A460D2100F07DFF10B1002001B0D9
:1028000030BD9DF8000000F0DF0028438DF8000087
:1028100001236A460D21204600F022FF401E804120
:10282000C00F01B030BD30B581B00D460446012364
:102830006A460D2100F05EFF10B1002001B030BDEE
:102840009DF8000000F07F0028438DF80000012370
:102850006A460D21204600F003FF401E8041C00F54
:1028600001B030BD30B581B00D46044601236A4643
:10287000122100F03FFF10B1002001B030BD9DF8E3
:10288000000000F0FB0028438DF8000001236A4699
:102890001221204600F0E4FE401E8041C00F01B02E
:1028A00030BD30B581B00D46044601236A4614217F
:1028B00000F020FF10B1002001B030BD9DF80000F5
:1028C00000F0FC0028438DF8000001236A46142123
:1028D000204600F0C5FE401E8041C00F01B030BD53
:1028E00030B581B00D46044601236A46142100F03C
:1028F00001FF10B1002001B030BD9DF8000000F0D4
:10290000F30028438DF8000001236A461421204675
:1029100000F0A6FE401E8041C00F01B030BD30B5B2
:1029200081B00D46044601236A46192100F0E2FEFB
:1029300010B1002001B030BD9DF8000000F0FD0096
:1029400028438DF8000001236A461921204600F033
:1029500087FE401E8041C00F01B030BD30B581B050
:102960000D46044601236A46192100F0C3FE10B14A
:10297000002001B030BD9DF8000000F0F7002843B2
:102980008DF8000001236A461921204600F068FEF8
:10299000401E8041C00F01B030BD30B581B00D4642
:1029A000044601236A46192100F0A4FE10B100205C
:1029B00001B030BD9DF8000000F0EF0028438DF815
:1029C000000001236A461921204600F049FE401EFE
:1029D0008041C00F01B030BD30B581B00D46044616
:1029E00001236A46192100F085FE10B1002001B0D4
:1029F00030BD9DF8000000F0FB0028438DF800007A
:102A000001236A461921204600F02AFE401E80411B
:102A1000C00F01B030BD10B50C46012322461B216A
:102A200000F068FE08B1002010BD207800F008001A
:102A30002070012010BD10B50C46012322461B2139
:102A400000F058FE08B1002010BD207800F02000F2
:102A50002070012010BD10B50C46012322461C2118
:102A600000F048FE08B1002010BD207800F01000F2
:102A70002070012010BD10B50C46012322461C21F8
:102A800000F038FE08B1002010BD207800F02000D2
:102A90002070012010BD10B50C46012322461D21D7
:102AA00000F028FE08B1002010BD207800F00100E1
:102AB0002070012010BD10B50C46012322461D21B7
:102AC00000F018FE08B1002010BD207800F00200D0
:102AD0002070012010BD10B50C46012322461D2197
:102AE00000F008FE08B1002010BD207800F00400BE
:102AF0002070012010BD10B50C46012322461D2177
:102B000000F0F8FD08B1002010BD207800F00800AA
:102B10002070012010BD10B50C46012322461D2156
:102B200000F0E8FD08B1002010BD207800F0100092
:102B30002070012010BD10B50C46012322461D2136
:102B400000F0D8FD08B1002010BD207800F0200072
:102B50002070012010BD10B50C46012322461D2116
:102B600000F0C8FD08B1002010BD207800F0400042
:102B70002070012010BD10B50C46012322461E21F5
:102B800000F0B8FD08B1002010BD207800F0010071
:102B90002070012010BD10B50C46012322461E21D5
:102BA00000F0A8FD08B1002010BD207800F0020060
:102BB0002070012010BD30B581B00D4604460123C0
:102BC0006A463A2100F096FD38B901230DF1010261
:102BD0003B21204600F08EFD10B1002001B030BD39
:102BE0009DF801009DF8001000F00F0041EA002060
:102BF000288001B0012030BD10B50C4601232246CB
:102C00003B2100F077FD08B1002010BD207800F0D6
:102C100010002070012010BD10B50C460123224683
:102C20003B2100F067FD08B1002010BD207800F0C6
:102C300020002070012010BD10B50C460123224653
:102C40003B2100F057FD08B1002010BD207800F0B6
:102C500040002070012010BD30B581B00D46044603
:102C600001236A463C2100F045FD38B901230DF1EE
:102C700001023D21204600F03DFD10B1002001B0D1
:102C800030BD9DF801009DF8001000F0030041EAFE
:102C90000020288001B0012030BD10B50C46012372
:102CA0002246532100F026FD08B1002010BD2078F7
:102CB00000F010002070012010BD10B50C4601235B
:102CC0002246532100F016FD08B1002010BD2078E7
:102CD00000F020002070012010BD30B581B00D46FD
:102CE000044601236A46582100F004FD10B100207B
:102CF00001B030BD9DF8000000F0FE0028438DF8C3
:102D0000000001236A465821204600F0A9FC401E1D
:102D10008041C00F01B030BD30B581B00D460446D2
:102D200001236A46582100F0E5FC10B1002001B0F3
:102D300030BD9DF8000000F0FD0028438DF8000034
:102D400001236A465821204600F08AFC401E80413B
:102D5000C00F01B030BD30B581B00D46044601232F
:102D60006A46582100F0C6FC10B1002001B030BD09
:102D70009DF8000000F0FB0028438DF800000123BF
:102D80006A465821204600F06BFC401E8041C00F6F
:102D900001B030BD30B581B00D46044601236A460E
:102DA000582100F0A7FC10B1002001B030BD9DF803
:102DB000000000F0F70028438DF8000001236A4668
:102DC0005821204600F04CFC401E8041C00F01B04D
:102DD00030BD30B581B00D46044601236A46582106
:102DE00000F088FC10B1002001B030BD9DF800005B
:102DF00000F07F0028438DF8000001236A46582127
:102E0000204600F02DFC401E8041C00F01B030BDB7
:102E100030B581B00D46044601236A46592100F0C1
:102E200069FC10B1002001B030BD9DF8000065F3D1
:102E300004008DF8000001236A465921204600F065
:102E40000FFC401E8041C00F01B030BD30B581B0D5
:102E50000D46044601236A46592100F04BFC10B18F
:102E6000002001B030BD9DF8000000F09F00284315
:102E70008DF8000001236A465921204600F0F0FB3E
:102E8000401E8041C00F01B030BD30B581B00D464D
:102E9000044601236A465A2100F02CFC10B10020A0
:102EA00001B030BD9DF8000065F301008DF8000011
:102EB00001236A465A21204600F0D2FB401E804181
:102EC000C00F01B030BD30B581B00D4604460123BE
:102ED0006A465A2100F00EFC10B1002001B030BD4E
:102EE0009DF8000065F383008DF8000001236A4619
:102EF0005A21204600F0B4FB401E8041C00F01B0B3
:102F000030BD30B581B00D46044601236A465A21D2
:102F100000F0F0FB10B1002001B030BD9DF80000C2
:102F200000F00F0040EA05108DF8000001236A460A
:102F30005A21204600F094FB401E8041C00F01B092
:102F400030BD30B581B00D46044601236A465B2191
:102F500000F0D0FB10B1002001B030BD9DF80000A2
:102F600065F305008DF8000001236A465B212046C9
:102F700000F076FB401E8041C00F01B030BD30B57F
:102F800081B00D46044601236A465B2100F0B2FB86
:102F900010B1002001B030BD9DF8000000F07F00AE
:102FA00028438DF8000001236A465B21204600F08B
:102FB00057FB401E8041C00F01B030BD30B581B01D
:102FC0000D46044601236A465C2100F093FB10B1D4
:102FD000002001B030BD9DF8000065F303008DF8BE
:102FE000000001236A465C21204600F039FB401EA8
:102FF0008041C00F01B030BD30B581B00D460446F0
:1030000001236A465C2100F075FB10B1002001B07D
:1030100030BD9DF8000000F0EF0028438DF800005F
:1030200001236A465C21204600F01AFB401E8041C5
:10303000C00F01B030BD30B581B00D46044601234C
:103040006A465C2100F056FB10B1002001B030BD93
:103050009DF8000065F346108DF8000001236A46D4
:103060005C21204600F0FCFA401E8041C00F01B0F8
:1030700030BD30B581B00D46044601236A465D215E
:1030800000F038FB10B1002001B030BD9DF8000009
:1030900000F0F80028438DF8000001236A465D2106
:1030A000204600F0DDFA401E8041C00F01B030BD67
:1030B00070B582B0044601236A460E465D2100F0D9
:1030C00019FB7509A8B99DF8000000F0070040EA57
:1030D000C6008DF8000001236A465D21204600F0FD
:1030E000BFFA30B901236A465C21204600F002FB9A
:1030F00010B1002002B070BD9DF8000000F07F000C
:1031000040EAC5108DF8000001236A465C21204684
:1031100000F0A6FA401E8041C00F02B070BD30B56D
:1031200081B00D46044601236A465E2100F0E2FAB2
:1031300010B1002001B030BD9DF8000000F0FD008E
:1031400028438DF8000001236A465E21204600F0E6
:1031500087FA401E8041C00F01B030BD30B581B04C
:103160000D46044601236A465E2100F0C3FA10B101
:10317000002001B030BD9DF8000000F0FB002843A6
:103180008DF8000001236A465E21204600F068FAAF
:10319000401E8041C00F01B030BD30B581B00D463A
:1031A000044601236A465E2100F0A4FA10B1002013
:1031B00001B030BD9DF8000000F0F70028438DF805
:1031C000000001236A465E21204600F049FA401EB5
:1031D0008041C00F01B030BD30B581B00D4604460E
:1031E00001236A465E2100F085FA10B1002001B08B
:1031F00030BD9DF8000000F0EF0028438DF800007E
:1032000001236A465E21204600F02AFA401E8041D2
:10321000C00F01B030BD30B581B00D46044601236A
:103220006A465E2100F066FA10B1002001B030BDA0
:103230009DF8000000F0DF0028438DF80000012316
:103240006A465E21204600F00BFA401E8041C00F06
:1032500001B030BD30B581B00D46044601236A4649
:103260005E2100F047FA10B1002001B030BD9DF89A
:10327000000000F0BF0028438DF8000001236A46DB
:103280005E21204600F0ECF9401E8041C00F01B0E5
:1032900030BD30B581B00D46044601236A465F213A
:1032A00000F028FA10B1002001B030BD9DF80000F8
:1032B00000F0FD0028438DF8000001236A465F21DD
:1032C000204600F0CDF9401E8041C00F01B030BD56
:1032D00030B581B00D46044601236A465F2100F0F7
:1032E00009FA10B1002001B030BD9DF8000000F0D7
:1032F000FB0028438DF8000001236A465F21204629
:1033000000F0AEF9401E8041C00F01B030BD30B5B5
:1033100081B00D46044601236A465F2100F0EAF9B8
:1033200010B1002001B030BD9DF8000000F0F700A2
:1033300028438DF8000001236A465F21204600F0F3
:103340008FF9401E8041C00F01B030BD30B581B053
:103350000D46044601236A465F2100F0CBF910B107
:10336000002001B030BD9DF8000000F0EF002843C0
:103370008DF8000001236A465F21204600F070F9B5
:10338000401E8041C00F01B030BD30B581B00D4648
:10339000044601236A465F2100F0ACF910B1002019
:1033A00001B030BD9DF8000000F0DF0028438DF82B
:1033B000000001236A465F21204600F051F9401EBB
:1033C0008041C00F01B030BD30B581B00D4604461C
:1033D00001236A465F2100F08DF910B1002001B091
:1033E00030BD9DF8000000F0BF0028438DF80000BC
:1033F00001236A465F21204600F032F9401E8041D9
:10340000C00F01B030BD30B50D4681B00446012378
:103410002A463E2100F06EF930B901236A1C3F2193
:10342000204600F067F910B1002001B030BD012046
:1034300001B030BD30B50D4681B0044601232A46A7
:103440004B2100F057F930B901236A1C4C2120466A
:1034500000F050F910B1002001B030BD012001B0E2
:1034600030BD30B581B00D46044601236A460121C6
:1034700000F040F958B99DF8000040F080008DF848
:10348000000001236A460121204600F0E9F80123EB
:103490000DF101020F21204600F02CF99DF80100EA
:1034A00065F304008DF8010001230DF101020F21E5
:1034B000204600F0D5F801236A460121204600F09D
:1034C00019F958B99DF8000000F07F008DF8000050
:1034D00001236A460121204600F0C2F8012001B014
:1034E00030BD0000002200F0B3B9000030B5D14C6F
:1034F00087B0204600F026FE002844D1CE48CF4DAC
:10350000606001A93320A0600120E060CC48206009
:10351000686940F002006861686900F0020000908C
:1035200000984FF440700190122002900220049005
:103530000020039004200590C24800F051FE286A44
:1035400040F4001028620022286A00F40010009065
:1035500000210098286840F400102860286820F4B2
:10356000001028601F2000F040FF1F2000F066FFC1
:1035700000220021202000F038FF202000F05EFF14
:10358000204600F095F9204600F0DCFD20280CBF15
:103590000020012007B030BD70B5AB4DAB4CA94E3B
:1035A0008CB0286840F00200286006A9286800F066
:1035B00002000090009807942020069002200990B5
:1035C00000200890304600F00BFE0022002117205A
:1035D00000F00BFF172000F031FF286840F00200D8
:1035E000286001A9286800F0020000900098029469
:1035F000102001900220049000200390304600F03B
:10360000EFFD002200210A2000F0EFFE0A2000F06A
:1036100015FF00200CB070BD00B58B4887B0016865
:1036200041F00201016001A9006800F00200009071
:1036300000984FF48060019084480290022004902A
:10364000002003907F4800F0CBFD002200212820BD
:1036500000F0CBFE282000F0F1FE002007B000BDF6
:103660002DE9F043044683B02078332818BF402862
:10367000884616461F4603D0B12806D0BC2822D162
:10368000022F20DB48F080081DE00025380016D00E
:10369000DFF8A0914FF48050029000960120019035
:1036A00005EB0802A1780123D2B2484600F072F976
:1036B00008B1484615E06D1C761CBD42EADB0020CF
:1036C00003B0BDE8F0834FF480500290019700965C
:1036D000584DA17801234246284600F05BF928B1F5
:1036E000284600F03DF900F04EF8012003B0BDE897
:1036F000F08300002DE9F043044683B0207833289E
:1037000018BF4028884616461F4603D0B12806D069
:10371000BC2822D1022F20DB48F080081DE00025C4
:10372000380016D0DFF80C914FF4805002900096CC
:103730000120019005EB0802A1780123D2B248468E
:1037400000F018FB08B1484615E06D1C761CBD4220
:10375000EADB002003B0BDE8F0834FF48050029014
:1037600001970096334DA17801234246284600F088
:1037700001FB28B1284600F0F3F800F004F801201E
:1037800003B0BDE8F08330B52A4C87B0204600F086
:10379000D9FC002844D12848284D606001A9332075
:1037A000A0600120E06026482060686940F00200C7
:1037B0006861686900F00200009000984FF4407062
:1037C0000190122002900220049000200390042017
:1037D00005901C4800F004FD286A40F4001028629F
:1037E0000022286A00F40010009000210098286848
:1037F00040F400102860286820F4001028601F2082
:1038000000F0F3FD1F2000F019FE0022002120200F
:1038100000F0EBFD202000F011FE204600F048F8FB
:10382000204600F08FFC20280CBF0020012007B0AC
:1038300030BD0000E41300203A14D11038100240CB
:1038400000540040000400484C10024000001110D9
:10385000401810F0030308D0C91A1FD3DB0748BF74
:1038600000F8012D28BF20F8022D130030B41446B3
:103870001546103928BF20E93C00FAD8490728BF6F
:1038800020E90C0048BF40F8042D890028BF20F82B
:10389000022D48BF00F8012D30BC7047C91818BF71
:1038A00000F8012DCB0728BF00F8012D704700005C
:1038B00010B5040001D1012010BD94F8410020B9D9
:1038C00084F84000204600F089FC242084F8410060
:1038D000206801684908490001606068216820F09B
:1038E000706008612068816821F400418160E068AF
:1038F00021680128A0680CBF40F4004040F4044057
:103900008860E068022803D121684FF400604860B5
:103910002068416841F0007141F400414160206835
:10392000C16821F40041C160206961690843A1694F
:1039300040EA01202168C860E069216A08432168E3
:1039400008602068016841F00101016000206064A6
:10395000202084F841000020206384F8420010BD3C
:1039600010B5040001D1012010BD242084F84100CD
:1039700020680168490849000160204600F084FD84
:103980000020606484F84100206384F8420084F8D9
:10399000400010BD2DE9F0470546894695F84100E5
:1039A00020289246984640F0E181089E002E00F0C3
:1039B0009E81099C200000F09A8195F84000012822
:1039C00000F0D481012085F8400000F05FFD07463B
:1039D0002868816909040FD500F058FDC01B1A281A
:1039E000F6D3202085F84100002085F8420085F8B4
:1039F00040000320BDE8F087212185F841105FFADF
:103A000088F2402185F84210002169646E626C855D
:103A10006963C9F309044168DFF81C9709EA0101E9
:103A2000214341EA024141F0807141F4005141607B
:103A30000A9E2968886980074CD48869C0063BD5EE
:103A40002868816989061BD416F1010FF8D026B1C8
:103A500000F01CFDC01B8642F2D2202085F84100F8
:103A6000002085F8420085F84000686C686C0428E6
:103A700040F0A380002085F840000120BDE8F087D9
:103A80001021C16120202968C861286881698907DF
:103A900044BF0021816228688169C90703D4816914
:103AA00041F0010181612868DFF8902641681140EA
:103AB000416004206864D0E716F1010FB9D026B147
:103AC00000F0E4FCC01B8642B3D2686C40F02000DA
:103AD0006864C2E7B8F1010F48D04FEA1A20886243
:103AE00028688169890741D48069C00628D528687B
:103AF0008169890609D416F1010FF8D06EB300F080
:103B0000C5FCC01B8642F2D227E01021C1612020F3
:103B10002968C86128688169890744BF00218162DA
:103B200028688169C90703D4816941F00101816175
:103B30002868DFF8082641681140416004200BE046
:103B400016F1010FCCD026B100F0A0FCC01B8642BC
:103B5000C6D2686C40F020006864202085F84100DF
:103B6000002085F8420085F840007EE728685FFA6B
:103B70008AF1816228688169090611D416F1010F62
:103B8000F8D026B100F082FCC01B8642F2D2202081
:103B900085F84100002085F8420085F8400065E77F
:103BA000698DFF290FD9FF212985DFF89425416808
:103BB00009EA01012143114310E0002085F840008B
:103BC0000320BDE8F087698D2985C9B2426809EAFA
:103BD0000202224342EA014141F00071416028683B
:103BE0008169890721D43A463146284600F0ADFA6A
:103BF000A0B916F1010FF2D026B100F047FCC01BAE
:103C00008642ECD2686C40F020006864202085F881
:103C10004100002085F8420085F84000686C0428C7
:103C200040F0A1800120BDE8F087696A4A1C6A6201
:103C300009788162688D401E6885288D401E288520
:103C400080B290BB688D80B328688169090613D45F
:103C500016F1010FF8D026B100F018FCC01B864207
:103C6000F2D2202085F84100002085F8420085F836
:103C700040000320BDE8F087698DFF2909D9FF21A5
:103C80002985DFF8BC24416809EA01012143114379
:103C90000AE0698D2985C9B2426809EA0202224315
:103CA00042EA014141F000714160688D002896D1DF
:103CB00028688169890644D48069C00636D5286899
:103CC0008169890616D416F1010FF8D026B100F0EB
:103CD000DDFBC01B8642F2D2202085F84100002087
:103CE00085F8420085F84000686C04283BD101202B
:103CF000BDE8F0871021C16120202968C8612868CB
:103D00008169890744BF0021816228688169C907E8
:103D100003D4816941F0010181612868DFF81C2426
:103D200041681140416004206864D5E726B100F085
:103D3000ADFBC01B8642BBD2686C40F020006864BB
:103D4000CAE72021C1612868DFF8F02341681140EB
:103D50004160202085F84100002085F8420085F868
:103D60004000BDE8F0870320BDE8F0870220BDE8F1
:103D7000F08700002DE9F0470546894695F8410097
:103D800020289246984640F0D481089E002E00F0EC
:103D90009181099C200000F08D8195F84000012858
:103DA00000F0C781012085F8400000F06FFB074656
:103DB0002868816909040FD500F068FBC01B1A2828
:103DC000F6D3202085F84100002085F8420085F8D0
:103DD00040000320BDE8F087222185F841105FFAFA
:103DE00088F2402185F84210002169646E626C857A
:103DF0006963C9F309044168DFF83C9309EA0101EA
:103E0000214341EA024141F4005141600A9E296880
:103E1000886980074CD48869C0063BD528688169C9
:103E200089061BD416F1010FF8D026B100F02EFB45
:103E3000C01B8642F2D2202085F84100002085F880
:103E4000420085F84000686C686C042840F0A4804B
:103E5000002085F840000120BDE8F0871021C161F5
:103E600020202968C86128688169890744BF00212A
:103E7000816228688169C90703D4816941F0010121
:103E800081612868DFF8B422416811404160042054
:103E90006864D0E716F1010FB9D026B100F0F6FA48
:103EA000C01B8642B3D2686C40F020006864C2E751
:103EB000B8F1010F48D04FEA1A208862286881695A
:103EC000890741D48069C00628D528688169890698
:103ED00009D416F1010FF8D06EB300F0D7FAC01B69
:103EE0008642F2D227E01021C16120202968C861F2
:103EF00028688169890744BF002181622868816937
:103F0000C90703D4816941F0010181612868DFF8A4
:103F10002C2241681140416004200BE016F1010F92
:103F2000CCD026B100F0B2FAC01B8642C6D2686C73
:103F300040F020006864202085F84100002085F8CA
:103F4000420085F840007EE728685FFA8AF18162C6
:103F500028688169490611D416F1010FF8D026B1FD
:103F600000F094FAC01B8642F2D2202085F841006E
:103F7000002085F8420085F8400065E7698DFF293B
:103F800010D9FF212985416809EA0101214341F047
:103F9000FE7141F4493112E0002085F84000032011
:103FA000BDE8F087698D2985C9B2426809EA020235
:103FB000224342EA014141F0007141F41051416055
:103FC00028688169490713D416F1010FF8D026B18A
:103FD00000F05CFAC01B8642F2D2202085F8410036
:103FE000002085F8420085F840000320BDE8F087F6
:103FF000696A4A1C6A62406A0870288D401E2885DA
:1040000080B2698D491E698590BB688D80B3286830
:104010008169090613D416F1010FF8D026B100F01A
:1040200035FAC01B8642F2D2202085F841000020DC
:1040300085F8420085F840000320BDE8F087698DCF
:10404000FF2909D9FF212985DFF8F420416809EA11
:104050000101214311430AE0698D2985C9B24268F3
:1040600009EA0202224342EA014141F00071416043
:10407000688D0028A4D128688169890644D48069A4
:10408000C00636D528688169890616D416F1010F55
:10409000F8D026B100F0FAF9C01B8642F2D22020F7
:1040A00085F84100002085F8420085F84000686CE2
:1040B00004283BD10120BDE8F0871021C1612020F8
:1040C0002968C86128688169890744BF0021816225
:1040D00028688169C90703D4816941F001018161C0
:1040E0002868DFF858204168114041600420686466
:1040F000D5E726B100F0CAF9C01B8642BBD2686C76
:1041000040F020006864CAE72021C1612868DFF818
:104110002C20416811404160202085F8410000209A
:1041200085F8420085F84000BDE8F0870320BDE82F
:10413000F0870220BDE8F087009800FC00E800FE50
:104140000000FF0190F84100704770B504460D462D
:1041500020688069C00616463AD5206881698906BC
:1041600012D415F1010FF8D025B100F08FF9801BA2
:104170008542F2D2202084F84100002084F84200D9
:1041800084F84000032070BD1021C1612020216807
:10419000C86120688169890744BF00218162206865
:1041A0008169C90703D4816941F0010181612068F7
:1041B000094A41681140416004206064202084F86D
:1041C0004100002084F8420084F84000012070BDC6
:1041D000002070BD0000000000E800FE70470000F5
:1041E0002DE9F04F81B00C686F4BDFF8C081DFF82C
:1041F000C0910022002C4FF00F0A4FF0010B00F08D
:10420000BE800C680BFA02FC1CEA040E00F0B280BF
:104210004C68022C18BF122C0ED1D40800EB840479
:104220009500266A05F01C050AFA05F7BE430F69DA
:1042300007FA05F5354325625400032506680F7912
:10424000A540ED4307F003072E40A7403E4306601C
:104250004E68012E18BF022E03D0112E18BF122E49
:104260000ED18668CF682E40A7403E4386604668E0
:104270004F68C7F3001726EA0C0697403E43466096
:104280004E6806F00307032F07D1C76AC6F3C006BE
:1042900027EA0C0796403E43C662C6682E408D68EA
:1042A00005FA04F43443C4604C68E40062D5D9F8DC
:1042B000004044F00104C9F800404FEA920CD9F8DC
:1042C000005005F0010400949500009C58F82C6003
:1042D00005F00C040AFA04F526EA0505B0F1904F42
:1042E00008BF00261DD0334EB04208BF012618D0AB
:1042F000314EB04208BF022613D0304EB04208BF44
:1043000003260ED02E4EB04208BF042609D02D4EF3
:10431000B04208BF052604D02B4EB0420CBF062683
:10432000072606FA04F42C4348F82C406FEA0E06E0
:104330001C684D683440ED0348BF4EEA04041C601D
:104340005C684D683440AD0348BF4EEA04045C60CD
:104350009C684D683440ED0248BF4EEA04049C60FE
:10436000DC6806EA040C4C68A40248BF4EEA0C0C58
:10437000C3F80CC0521C0C68D4407FF442AF01B0AB
:10438000BDE8F08F0AB18161704781627047426970
:104390005140416170470D4A136803421CBF1060D1
:1043A00000F028BC704700000004014008000140F4
:1043B000601002400004004800080048000C00485B
:1043C0000010004800140048001800481404014080
:1043D00027490A684FF6FF0300021A4000F4E06024
:1043E0001043244A10430860704730B4204B1B68C8
:1043F000C3F30223C3F10704052C28BF04241D1DA9
:10440000072D34BF0023DB1E012505FA04F4641ECA
:104410002140994005FA03F35B1E1A40114309013C
:10442000002807D5144A00F00F00104400F8041CBF
:1044300030BC7047114A115430BC7047012100F064
:104440001F0291400E4A400942F820107047401E5A
:10445000B0F1807F01D3012070470A494860F02005
:1044600081F8130D00208860072008600020704745
:104470000CED00E00000FA0518ED00E000E400E0BB
:1044800000E100E010E000E0704700000148006833
:10449000704700BF501500202DE9F04F81B0DFF8C4
:1044A000D0472DED028BD2B000F050FC00F05CFC48
:1044B000002000F019FD002000F03EFD0121002049
:1044C00000F04FFD00F040FE0C20009000200A900C
:1044D0000120029000200590684600F0ABFE002805
:1044E0001ABF0120F921FF21E1600A467F21A16066
:1044F000DFF880170860E264DFF87C072060402066
:10450000606000202061A061E061204601F07EFA39
:1045100000B1FEE714208DF80300012202208DF87F
:104520000100694618208DF8020002208DF8000075
:10453000204601F0C2FB00B1FEE708208DF8040020
:10454000012210208DF8050001A90020ADF8060019
:1045500004900590204601F0BBFA00B1FEE704F19B
:104560006C014FF0FF3001F08DFC04F170014FF051
:10457000FF3001F0D3FD04F174014FF0FF3001F082
:10458000C3FE04F178014FF0FF3001F09FFF04F10A
:104590007C014FF0FF3002F07BF804F180014FF016
:1045A000FF3002F0B1F90FF2807B0FF2687ADFF88A
:1045B000CC860FF2D869DFF8C86641F2883520E072
:1045C00000F0BAFC307800281CBF94F8490000289D
:1045D00010D011A802F086FA94F84A008DF87F00F6
:1045E0003820119011A800F097FD002084F84900B0
:1045F00084F84A0094F8480018B14FF4FA7002F0B9
:1046000031FB11A800F008FD58B19DF84800322890
:1046100007D111A802F070FA307810B1002084F8A8
:104620004800606D216D884238D0206D6065D4F8F7
:104630008000216DC90702D502F0C8F901E002F03F
:10464000D5F9A06F216D490702D501F09DFF01E06A
:1046500001F0AAFFE06F216D890702D502F0D0F8C2
:1046600001E002F0DDF8E06E216DC90602D501F02F
:10467000C1FC01E001F0CEFC206F216D890602D55E
:1046800001F0AEFD01E001F0BBFD606F216D490658
:1046900002D501F097FE01E001F0A4FE3178002080
:1046A000002904BF94F84810002911D0002204A961
:1046B000204601F0CCFA002203A9204601F0ACFB11
:1046C000E06C0599411A64225143401C91FBF0F0C3
:1046D000317871B19DF810108DF84B108DF84E00A7
:1046E0009DF811108DF84C109DF812108DF84D109A
:1046F0001EE094F84810D9B1C0B202904A469DF825
:1047000012009DF8103001904FF480719DF8110057
:10471000009004F1840002F0B7FA04F1840002F082
:10472000D5FA82B22B4604F18401404602F01DFB0B
:10473000206DC0076AD50020ADF804000DF1050119
:10474000D4F8800002F062F9002804BF9DF805004B
:1047500001285BD1D4F8800001A902F0ABF99DF8E3
:104760000400002852D094F84900401C84F8490005
:1047700004F1580194F84A0040F0080084F84A0017
:10478000D4F8800002F056F9307838B1042204F1F0
:1047900058010DF14F0002F013FE37E094F8480085
:1047A000A0B394ED160AB5EE400AF1EE10FAB8BFC8
:1047B000B1EE400ABDEEC08AF8EE480A30EE600A5B
:1047C00010EE100A02F038FE0022DFF8B83402F0D2
:1047D0005BFE41EC100B02F028FF51EC100B02F0D5
:1047E00031FF009018EE103A52464FF4807104F1F8
:1047F000840002F049FA04F1840002F067FA82B200
:104800002B4604F18401404602F0AFFA206D4007C8
:1048100067D50020ADF804000DF10501A06F01F08F
:10482000D3FE002804BF9DF80500012859D1A06FD0
:1048300001A901F01DFF9DF80400002851D094F853
:104840004900401C84F8490004F15C0194F84A00D6
:1048500040F0100084F84A00A06F01F0C9FE3078E3
:1048600038B1042204F15C010DF1570002F0A8FDFB
:1048700037E094F84800A0B394ED170AB5EE400A6B
:10488000F1EE10FAB8BFB1EE400ABDEEC08AF8EE04
:10489000480A30EE600A10EE100A02F0CDFD002248
:1048A000DFF8E03302F0F0FD41EC100B02F0BDFE4A
:1048B00051EC100B02F0C6FE009018EE103A5A466A
:1048C0004FF4807104F1840002F0DEF904F18400F9
:1048D00002F0FCF982B22B4604F18401404602F05A
:1048E00044FA206D80076ED50020ADF808000DF168
:1048F0000901E06F01F0A4FF002804BF9DF8090042
:10490000012860D1E06F02A901F0EEFF9DF80800D8
:10491000002858D094F84900401C84F8490004F15C
:10492000600194F84A0040F0200084F84A00E06FEB
:1049300001F09AFF307838B1042204F160010DF1E2
:10494000530002F03DFD3EE094F8480000283AD0C4
:1049500094ED180AB5EE400AF1EE10FAAEBF00274A
:104960000127B1EE400ABDEEC08AF8EE480A30EEEB
:10497000600A10EE100A02F05FFD0022C14B02F047
:1049800083FD41EC100B02F050FE51EC100B02F0D5
:1049900059FE0190002F14BF2D232B238DED008A8B
:1049A0004FF480710FF2903204F1840002F06CF940
:1049B00004F1840002F08AF982B22B4604F18401EA
:1049C000404602F0D2F9206DC00655D50020ADF862
:1049D00008000DF10901E06E01F02CFB002804BF76
:1049E0009DF80900012847D1E06E02A901F086FB7D
:1049F0009DF8080000283FD094F84900401C84F836
:104A0000490004F1240194F84A0040F0010084F8C0
:104A10004A00E06E01F022FB307890B1616A042216
:104A20000DF15B0002F0FBFEA16A04220DF15F00B4
:104A300002F0F5FEE16A04220DF1630002F0EFFEE0
:104A40001AE094F84800B8B1E06A636A0FF258229D
:104A500001904FF48071A06A009004F1840002F08C
:104A600013F904F1840002F031F982B22B4604F10B
:104A70008401404602F079F9206D800655D500206A
:104A8000ADF808000DF10901206F01F0C9FB002805
:104A900004BF9DF80900012847D1206F02A901F049
:104AA00023FC9DF8080000283FD094F84900401CE2
:104AB00084F8490004F1300194F84A0040F0020003
:104AC00084F84A00206F01F0BFFB307890B1216B71
:104AD00004220DF1670002F0A2FE616B04220DF1C9
:104AE0006B0002F09CFEA16B04220DF16F0002F03E
:104AF00096FE1AE094F84800B8B1A06B236B0FF251
:104B0000CC1201904FF48071606B009004F184002E
:104B100002F0BAF804F1840002F0D8F882B22B4611
:104B200004F18401404602F020F9206D400655D57D
:104B30000020ADF808000DF10901606F01F062FC82
:104B4000002804BF9DF80900012847D1606F02A921
:104B500001F0ACFC9DF8080000283FD094F8490013
:104B6000401C84F8490004F13C0194F84A0040F0EC
:104B7000040084F84A00606F01F058FC307890B16E
:104B8000E16B04220DF1730002F049FE216C042256
:104B90000DF1770002F043FE616C04220DF17B0001
:104BA00002F03DFE1AE094F84800B8B1606CE36B87
:104BB0000FF23C1201904FF48071206C009004F1D0
:104BC000840002F061F804F1840002F07FF882B200
:104BD0002B4604F18401404602F0C7F830780028E3
:104BE00004BF94F8480000283FF4EAAC002000F02D
:104BF000AEF9E7E4B0F5005F00D0704710B51C4C8B
:104C0000606E002804BFA06E002802D1FFF73EFCB2
:104C100009E0FFF73BFCA066A06E616E401AB0F59C
:104C2000967F0DD9A06E60661548007808B1002007
:104C300004E094F84810481E8041C00F84F84800F2
:104C400010BD00B585B000238DF800008DF801106F
:104C50008DF802208DF80330019303930493002212
:104C60006946034800F034FF00B1FEE705B000BD1F
:104C700040110020541500200028004000000020B2
:104C8000C404002000005940FEE7000054696D652F
:104C90005374616D703A2025643A25643A25642E78
:104CA00025640D0A000000004143435F583A202567
:104CB000642C204143435F593A2025642C20414312
:104CC000435F5A3A2025640D0A0000004759525F9D
:104CD000583A2025642C204759525F593A202564C0
:104CE0002C204759525F5A3A2025640D0A000000D3
:104CF0004D41475F583A2025642C204D41475F596C
:104D00003A2025642C204D41475F5A3A2025640DF6
:104D10000A00000050524553533A2025642E253096
:104D200032640D0A0000000048554D3A2025642EDB
:104D3000253032640D0A000054454D503A20256359
:104D400025642E253032640D0A00000000B581B0C4
:104D50000320FFF73DFB0F2002F078FD00F003F881
:104D6000002001B000BD704700B597B06846002133
:104D7000002200230EC006C0442102F07DFD102059
:104D8000059001200B9060200D9000200C900220D7
:104D90000F90012010901190282012900220159061
:104DA000072013900420149005A800F043FA08B1DE
:104DB000FFF76AFF0F2000900421032001900020DC
:104DC000029003900490684600F0E8FC08B1FFF7F9
:104DD0005BFF17B000BD0068354A3649904226D3C4
:104DE000354AD1F80014904208BF082048D0334A11
:104DF000904208BF802043D0314A904208BF4FF410
:104E000000603DD02F4A904208BF4FF4004037D099
:104E10002D4A904208BF4FF4002031D02B4A9042D7
:104E200014BF4FF000604FF4000008407047284A5C
:104E30000968904205D0274A904205D18020084059
:104E40007047082008407047234A904206D0234A02
:104E5000904207D14FF40040084070474FF4006083
:104E6000084070471E4A904208D01E4A90420CBF2C
:104E70004FF400004FF00060084070474FF40020EE
:104E8000084070470068406870471649016000217B
:104E90008160C16080210161002141618161202127
:104EA000C1614FF44051016202214160704700002E
:104EB0008100024000000240080402401C0402403D
:104EC0003004024044040240580402406C04024092
:104ED000080002401C000240300002404400024032
:104EE000580002406C00024010B586B001A90022B3
:104EF000002300241CC10CC101000AD1DFF8FC1002
:104F00000A6842F001020A60096801F0010100919B
:104F100000990FF2F801DFF8E82031F81010019144
:104F20000393012102910221049101A952F820006A
:104F3000FFF756F906B010BD0FF2D001DFF8C03010
:104F400031F8101053F820000022FFF71BBA0FF2BF
:104F5000BC01DFF8AC2031F8101052F82000FFF748
:104F600016BA30B587B0044601A8002200230025F8
:104F70002CC00CC020000AD1DFF88000026842F08B
:104F800004020260006800F004000090009808002D
:104F900011D10FF27C0030F814000190029302202E
:104FA0000490039301A9DFF85C0050F82400FFF798
:104FB00017F907B030BD01291DD10FF2540030F8A8
:104FC00014000190039301A9DFF83C000290022035
:104FD0000490DFF8300050F82400FFF701F90FF2D9
:104FE000340030F8144000220F2160B2FFF7FDF9C1
:104FF00060B2FFF723FA07B030BD00004C1002404A
:10500000D4090020D8090020000021102000000051
:1050100000200000280000002DE9F04F0446824DDA
:1050200081B005F17000FFF7D6FE002700286FD190
:1050300005F17000FFF726FFC0F50078B5F8BC60F9
:105040001FFA88F8B045AEBFA8EB060008F500705F
:10505000801B80B20090B9460098012852DBA81945
:10506000761CB6B290F8C000B6F5007FA8BF002647
:10507000F02842D1B5F8BC604FF0000A0BE081196E
:105080000A1201EBD2525212A1EB42265044B6B2A0
:105090007F1C1FFA80FA701CCA451BDA011200EB54
:1050A000D1514912A0EB4121A8191FFA81FB90F8B8
:1050B000C00005EB0B01BFB291F8C010E219121D40
:1050C00002F009FBC0B20028D9D1A5F8BCB001B0EC
:1050D000BDE8F08F011200EBD1514912BFB2A0EB35
:1050E00041262760B6B2A5F8BC60204602F02EFB30
:1050F00018B1012001B0BDE8F08F009809F1010955
:105100008145ACDB0098B0F5807FC8BFA5F8BC80B6
:10511000002001B0BDE8F08F30B581B0044602F048
:10512000E9FA414D4FF431702146284402F0B0FABB
:1051300082B24FF431702918284601B0BDE83040E2
:1051400041F2883301F011BE10B53848364C86B0B4
:10515000416841F001014160416801F001010091A5
:105160000099416841F001014160416801F001018D
:1051700000910099016941F400310161016901F474
:10518000003100910099016841F00101016001A91D
:10519000006800F0010000900098042001900220B7
:1051A00002900020039002200490072005904FF009
:1051B0009040FFF715F80820019001A907200590FD
:1051C0004FF09040FFF70CF819482060D4F8C00267
:1051D00060600020A060E0602061A0610C20606140
:1051E000204601F08FFD00B1FEE704F17000FFF7EB
:1051F0004CFE04F1700002F043FB04F170006066A5
:10520000C4F8984004F1C00060654FF400724FF498
:105210000070A4F8580004F1C0010020E0662046A8
:1052200001F019FE06B010BD000000204810024039
:10523000004400402DE9F041044682B02078DFF8B8
:10524000A057C00640F1B880A86810F00C0F40F0DD
:10525000D0802868800703D5A069002800F0C580A9
:105260002868276A00074EBF2868D5F8940000090F
:1052700000F0F000B84248D2A86D0026C00002D568
:1052800002F0BEFB0EE0A86D40F08050A865A86D4E
:1052900000F080500090009802F0B2FBA96D21F060
:1052A0008051A965B0F5007F05D1812F0ED3A12FC4
:1052B0000BD302260AE0812F28BF032606D2802FB7
:1052C00001D1022602E0702F00D10126DFF8180775
:1052D0000168C90846EAC1010160006800F00700E2
:1052E000B04240F08280286840F0080028602868BA
:1052F000216A20F0F000084328606868E16920F422
:105300007F4040EA0120686047E0286840F00800DC
:10531000286000262868216A20F0F00008432860F1
:105320006868E16920F47F4040EA01206860276AEC
:10533000A86DC00002D502F063FB0EE0A86D40F03E
:105340008050A865A86D00F080500090009802F091
:1053500057FBA96D21F08051A965B0F5007F05D1FB
:10536000812F0ED3A12F0BD302260AE0812F28BF55
:10537000032606D2802F01D1022602E0702F00D131
:105380000126DFF864060168C90846EAC101016028
:10539000006800F00700B04227D100F0B5FAAA6813
:1053A000DFF84816C2F30312895CC840DFF83416F0
:1053B00008600F2002F04AFA2078C00740F18D8083
:1053C000A86800F00C00082809D0A86800F00C00BC
:1053D0000C2802BFE86800F00300032843D12868C6
:1053E00080037AD56068002877D1012002B0BDE83B
:1053F000F081A0690028286823D040F001002860CF
:10540000FFF744F806462868800708D4FFF73EF8FF
:10541000801B0328F7D3032002B0BDE8F081286881
:1054200040F0080028602868216A20F0F000084356
:1054300028606868E16920F47F4040EA01206860E4
:10544000BAE7400840002860FFF720F806462868C1
:105450008007B1D5FFF71AF8801B0328F7D3032084
:1054600002B0BDE8F0816068B0F5803F03D12868E4
:1054700040F4803010E0B0F5A02F286806D140F449
:1054800080202860286840F4803005E020F48030D7
:105490002860286820F480202860606870B1FEF7DA
:1054A000F5FF06462868800317D4FEF7EFFF801B40
:1054B0006528F7D3032002B0BDE8F081FEF7E6FFD0
:1054C00006462868800308D5FEF7E0FF801B6528A4
:1054D000F7D3032002B0BDE8F081207880071CD507
:1054E000A86800F00C00042809D0A86800F00C009F
:1054F0000C2802BFE86800F00300022829D12868C0
:10550000400503D5E06800283FF46FAF6868216963
:1055100020F0F85040EA016068602078000754D518
:1055200060690028D5F894003BD040F00100C5F830
:105530009400FEF7ABFF0646D5F89400800744D4EC
:10554000FEF7A4FF801B0328F6D3032002B0BDE8BA
:10555000F081E0680028286811D040F4807028604D
:10556000FEF794FF064628684005CFD4FEF78EFF6D
:10557000801B0328F7D3032002B0BDE8F08120F49C
:1055800080702860FEF782FF064628684005C4D573
:10559000FEF77CFF801B0328F7D3032002B0BDE891
:1055A000F08140084000C5F89400FEF76FFF064602
:1055B000D5F89400800708D5FEF768FF801B032804
:1055C000F6D3032002B0BDE8F0812078400775D5FE
:1055D000A86D0027C00009D4A86D40F08050A865D0
:1055E0000127A86D00F0805000900098DFF800843B
:1055F000D8F80000C00516D4D8F8000040F4807038
:10560000C8F80000FEF742FF4FEA0006D8F8000095
:10561000C00508D4FEF73AFF801B0328F6D3032009
:1056200002B0BDE8F081A068012804D1D5F890004F
:1056300040F0010014E00528D5F8900008D140F0B2
:105640000400C5F89000D5F8900040F0010007E094
:1056500040084000C5F89000D5F8900020F0040004
:10566000C5F89000A06890B1FEF710FF4FEA000661
:1056700041F28938D5F8900080071AD4FEF706FF6A
:10568000801B4045F6D3032002B0BDE8F081FEF751
:10569000FDFE064641F28938D5F89000800708D50E
:1056A000FEF7F4FE801B4045F6D3032002B0BDE8B0
:1056B000F0811FB1A86D20F08050A865A06A002875
:1056C00068D0A96801F00C010C293FF48EAE0228C5
:1056D000286820F0807028603ED1FEF7D7FE06468D
:1056E0002868800108D5FEF7D1FE801B0328F7D378
:1056F000032002B0BDE8F081206B616B401E0902FF
:1057000041EA0010A16B090940EA4140E16A0843FF
:10571000E16B891E0905490D40EA4150216C891E43
:10572000090601F07E410843E860286840F0807077
:105730002860E86840F08070E860FEF7A7FE064643
:105740002868800126D4FEF7A1FE801B0328F7D32A
:10575000032002B0BDE8F0812868000106D4286863
:10576000800003D4E86880088000E860E868DFF81B
:1057700084120840E860FEF789FE0646286880012A
:1057800008D5FEF783FE801B0328F7D3032002B061
:10579000BDE8F081002002B0BDE8F0812DE9F041C4
:1057A000DFF8446204463068884600F00700404550
:1057B00009D23068C00848EAC0003060306800F0A4
:1057C000070040457AD12078DFF81472800705D5AC
:1057D000B868A16820F0F0000843B8602078C007DE
:1057E0005DD56068022802D13968890308E0032882
:1057F00002D13968890103E00028396804D189079A
:1058000004D40120BDE8F081490557D5B96889085D
:1058100040EA8100B860FEF739FE0546606802285C
:105820000ED1B86800F00C00082838D0FEF72EFE24
:10583000401B41F289318842F3D30320BDE8F08157
:1058400003280ED1B86800F00C000C2827D0FEF712
:105850001DFE401B41F289318842F3D30320BDE88D
:10586000F08168B9B86810F00C0F18D0FEF70EFE82
:10587000401B41F289318842F4D30320BDE8F08116
:10588000B86800F00C00042809D0FEF7FFFD401BAB
:1058900041F289318842F3D30320BDE8F0813068BA
:1058A00000F0070080450CD23068C00848EAC0000C
:1058B0003060306800F00700404502D00120BDE8AC
:1058C000F0812078400705D5B868E16820F4E060F1
:1058D0000843B8602078000706D5B868216920F42D
:1058E000605040EAC100B86000F00EF8BA683F4965
:1058F000C2F30312895CC8403A4908600F2001F0E6
:10590000A5FF0020BDE8F08135498B68002200200A
:1059100013F00C0F09D08B6803F00C030C2B02BFA3
:10592000CB6803F00303012B12D10A68334B120733
:1059300059BFD1F89420C2F303220A68C2F30312BC
:1059400053F822208B6813F00C0F0ED110460CE098
:105950008B6803F00C03042B08BF294805D08B6823
:1059600003F00C03082B08BF26488B6803F00C03D8
:105970000C2B20D1C868CB68C3F302135B1C00F06A
:105980000300022802D0032804D007E01C48B0FB23
:10599000F3F005E01B48B0FBF3F001E0B2FBF3F0DD
:1059A000CA68C968C1F34161C2F30622491C504369
:1059B0004900B0FBF1F070470A480F4A00681268CE
:1059C0001149C2F30222895CC840704705480A4A5F
:1059D000006812680C49C2F3C222895CC840704753
:1059E00000100240DC09002000200240E4C300084F
:1059F00000700040FFFFEEFE08100240F4C30008F4
:105A00000024F40000127A00D0C7000870B504002A
:105A10002BD094F8210020B984F82000204601F012
:105A2000F7FF022084F82100CA2021684862532031
:105A3000216848622068C168490618D44FF0FF31D8
:105A4000C16040F2E936FEF721FD05462068C068D6
:105A500040060CD4FEF71AFD401BB042F6D3216875
:105A6000FF204862042084F82100012070BD2068D6
:105A7000DFF80024816811408160206881686268D5
:105A800023691A43A3691A43114381602168E068BE
:105A9000086120680169A26841EA02410161206849
:105AA000C16821F08001C1602068C16C890889004B
:105AB000C1642068C16CE26963691A431143C1641F
:105AC000FF2021684862012084F82100002070BD79
:105AD0002DE9F04104460D4694F82000012808BF46
