:020000040800F2
:10000000F8050020916B0008696B00086B6B000815
:10001000B56B0008B96B0008BD6B0008000000005C
:10002000000000000000000000000000C16B00089C
:100030006D6B000800000000C56B00086F6B0008C6
:10004000C96B0008CD6B0008D16B0008D56B0008A8
:10005000D96B0008DD6B0008E16B0008E56B000858
:10006000E96B0008ED6B0008F16B0008F56B000808
:10007000F96B0008FD6B0008016C0008056C0008B6
:10008000096C00080D6C0008116C000800000000ED
:10009000000000000000000000000000736B00087A
:1000A000156C0008196C00081D6C0008216C000814
:1000B000256C0008296C00082D6C0008316C0008C4
:1000C000356C0008396C00083D6C0008416C000874
:1000D000456C0008496C00084D6C000800000000E9
:1000E000796B0008516C0008556C00080000000096
:1000F000000000000000000000000000596C000833
:10010000000000005D6C0008616C0008656C000870
:1001100000000000000000000000000000000000DF
:10012000696C00086D6C0008716C0008756C000843
:10013000796C0008000000000000000000000000D2
:100140000000000000000000000000007D6C0008BE
:10015000816C0008856C0008896C00088D6C0008B3
:10016000916C0008956C0008000000000000000081
:10017000000000000000000000000000000000007F
:1001800000000000996C0008000000000000000062
:100190009D6C000870B5044682B0A068066835689A
:1001A00000208DF800006946204601F015FC00B3E0
:1001B0009DF80000217888421BD10421204601F0DF
:1001C000A2FDB0B14021204601F012FC88B100210F
:1001D000204601F01CFD60B1DFF88C097060002141
:1001E000204601F077FC20B10021204601F01FFCE1
:1001F00010B9012002B070BD01202870607102B0FA
:10020000002070BD70B5044682B0A06805682E68F5
:1002100000208DF800006946204601F0DDFB002833
:1002200000F0CC809DF800002178884240F0C68024
:100230000021204602F0F2F9002800F0BF800021E2
:10024000204602F0A5FA002800F0B88000212046E0
:1002500001F0E1FF002800F0B1800021204602F00B
:1002600049F9002800F0AA800021204602F023F975
:10027000002800F0A3800021204602F091F9002818
:1002800000F09C800021204602F044FA002800F093
:1002900095800021204601F0BEFF002800F08E80EE
:1002A0000021204601F0F4FF002800F087800021A3
:1002B000204601F009FD002800F080800021204642
:1002C00001F09DFD002879D00021204601F0B6FD07
:1002D000002873D00021204602F0E5FA00286DD0F6
:1002E0000021204602F0D8F9002867D000212046DE
:1002F00002F08CFA002861D00021204601F08BFF2B
:1003000000285BD00021204601F0A4FF002855D032
:100310000021204601F0DBFF00284FD000212046BD
:1003200001F0F3FF002849D00021204601F016FF1C
:10033000002843D00021204601F02FFF00283DD0A7
:100340000021204601F048FF002837D00021204638
:1003500002F045F9002831D00021204602F0F9F9D9
:1003600060B30021204601F056FF38B3002120463B
:1003700001F070FF10B30021204601F0A8FFE8B1A2
:100380000021204601F0C1FFC0B10021204601F04C
:10039000DAFF98B10021204602F013F870B1002175
:1003A000204601F0DBFE48B10021204601F0F5FEB9
:1003B00020B10021204601F00FFF10B9012002B04A
:1003C00070BD0021204602F0CCF80028F6D00021B4
:1003D000204602F080F90028F0D00021204601F0EC
:1003E000EFFC0028EAD00021204601F027FD00287C
:1003F000E4D00021204602F030F90028DED00021B0
:10040000204602F0E4F90028D8D00021204601F06F
:1004100002FF0028D2D00021204602F02EF800284A
:10042000CCD00021204601F0AEFF0028C6D0A07934
:1004300078B1A0680068011D204600F0AFF90128DE
:10044000BCD00021204601F045FB0028B6D000209A
:10045000A071002068603070607102B070BD000053
:1004600010B50446A07901285CD0A068006890ED22
:10047000010ADFED9B0AB4EE600AF1EE10FA48BF04
:10048000102147D4DFED970AB4EE600AF1EE10FABE
:1004900048BF20213ED4DFED940AB4EE600AF1EEAD
:1004A00010FA48BF302135D4DFED900AB4EE600A6F
:1004B000F1EE10FA48BF40212CD4DFED8D0AB4EEE6
:1004C000600AF1EE10FA48BF502123D4DFEDAF0AE5
:1004D000B4EE600AF1EE10FA48BF60211AD4DFEDE5
:1004E000AC0AB4EE600AF1EE10FA48BF702111D4E4
:1004F000DFEDA80AB4EE600AF1EE10FA48BF8021E1
:1005000008D4DFEDA50AB4EE600AF1EE10FA4CBF94
:100510009021A021204601F0DDFA08B9012010BD8C
:100520000120A071002010BD30B5044681B0A07933
:1005300000284ED0A0680068051D6946204601F0DD
:10054000E8FA002840D09DF80000002830D010289C
:100550002CD0202827D0302822D040281DD0502849
:1005600018D0602813D070280ED0802809D0902889
:1005700004D0A02825D1DFF8080619E0DFF8FC0533
:1005800016E0DFF8F40513E0DFF8E80510E0DFF827
:10059000E0050DE0DFF8D4050AE0DFF8CC0507E060
:1005A000DFF8C00504E0DFF8E80501E0DFF8E40566
:1005B00028600021204601F08DFA40B9012001B0E9
:1005C00030BDDFF8D4052860012001B030BD002027
:1005D000A07101B030BD00B581B001F0FDF9401E41
:1005E0008041C00F01B000BD10B582B004460020AC
:1005F0008DF800006946204601F0EEF920B19DF823
:1006000000002178884202D0012002B010BD0020F5
:1006100002B010BD2DE9F04184B00C460021CDE9B7
:1006200000118046694601F031FA002854D09DF847
:1006300001109DF800209DF8040002EB01269DF8B2
:1006400003109DF8022002EB01279DF8051000EB36
:10065000012502A9404601F009FA00283CD09DF886
:1006600008000C2838D8DFE800F010373737073794
:1006700037370D3737370A009FED850A07E09FEDC2
:10068000850A04E09FED840A01E09FED840A36B2FA
:1006900000EE906AF8EEE00A60EE800AFDEEE00AF5
:1006A000C4ED000A3FB200EE907AF8EEE00A60EE88
:1006B000800AFDEEE00AC4ED010A2DB200EE905A68
:1006C000F8EEE00A20EE800ABDEEC00A84ED020AD0
:1006D000002004B0BDE8F081012004B0BDE8F08145
:1006E000010050410100D041010050420100D042C0
:1006F0000100504310B582B00C4669460022C1E9A2
:10070000002201F0C3F910B9012002B010BD9DF81C
:1007100001109DF8002002EB012121809DF80220AC
:100720009DF8031002EB012161809DF804009DF803
:10073000051000EB0120A08002B0002010BD0000D9
:1007400010B582B00C46694601F090F9D0B19DF821
:1007500000000C2813D8DFE800F007121212101264
:1007600012120C1212120E004C48206002B000202F
:1007700010BD4948F9E74748F7E74548F5E7DFF88E
:100780001C042060012002B010BD00000100D04315
:10079000014050440180CF440120504510B582B043
:1007A0000C46694601F0B5F910B9012002B010BD40
:1007B0009DF80000C8B110281BD020281CD030287C
:1007C0001DD040281ED050281FD0602820D070286F
:1007D00021D0802822D0902823D0A02824D0DFF850
:1007E000B803206002B0012010BD206002B00020DC
:1007F00010BDDFF8A003F8E7DFF89403F5E7DFF8B2
:100800006403F2E7DFF86003EFE7DFF86003ECE78B
:10081000DFF85C03E9E7DFF85C03E6E7DFF858039D
:10082000E3E7DFF85803E0E7DFF85403DDE7000013
:1008300000B581B08279012A13D104290ED8DFE8EE
:1008400001F0090907050300402104E0302102E01E
:10085000202100E0102101F03DF9B0B9012001B0E4
:1008600000BD806800680429F8D8DFE801F00B0BB0
:1008700008060400F2E7BC4906E0BA4904E0DFF8E4
:10088000101301E0DFF80C134160002001B000BD3F
:1008900023DBF93E23DB793E23DBF93D23DB793D86
:1008A00000B581B081790129DFED8F0A55D1B4EE11
:1008B000600AF1EE10FA48BF102147D4DFED8B0A31
:1008C000B4EE600AF1EE10FA48BF20213ED4DFED0D
:1008D000880AB4EE600AF1EE10FA48BF302135D430
:1008E000DFED840AB4EE600AF1EE10FA48BF402151
:1008F0002CD4DFED970AB4EE600AF1EE10FA48BF8F
:10090000502123D4DFED930AB4EE600AF1EE10FA21
:1009100048BF60211AD4DFED900AB4EE600AF1EE10
:1009200010FA48BF702111D4DFED8C0AB4EE600AD2
:10093000F1EE10FA48BF802108D4DFED890AB4EE49
:10094000600AF1EE10FA4CBF9021A02101F0C2F82C
:1009500000285FD1012001B000BD80680068B4EEBE
:10096000600AF1EE10FA48BFB2EE0A0A50D4DFED89
:100970005F0AB4EE600AF1EE10FA48BFB3EE0A0A5D
:1009800046D4DFED5B0AB4EE600AF1EE10FA48BF20
:100990009FED740A3CD4DFED570AB4EE600AF1EE25
:1009A00010FA48BF9FED700A32D4DFED690AB4EE49
:1009B000600AF1EE10FA48BF9FED6C0A28D4DFED13
:1009C000650AB4EE600AF1EE10FA48BF9FED680ABE
:1009D0001ED4DFED610AB4EE600AF1EE10FA48BFF2
:1009E0009FED640A14D4DFED5D0AB4EE600AF1EE07
:1009F00010FA48BF9FED600A0AD4DFED590AB4EE41
:100A0000600AF1EE10FA4CBF9FED5C0A9FED5C0AA4
:100A100080ED010A002001B000BD000010B582B0D9
:100A20000C46694601F022F8F0B19DF800000C2850
:100A300017D8DFE800F007161616131616160D164F
:100A4000161610004FF08040206002B0002010BD4C
:100A50004FF08140F8E74FF08240F5E74FF08340D8
:100A6000F2E7DFF838012060012002B010BD00007D
:100A700000B5042981B010D8DFE801F0030F0B0F97
:100A80000D00002100F0D3FF401E8041C00F01B0D7
:100A900000BD0821F6E70C21F4E7012001B000BDFC
:100AA000DFED380A00B5B4EE600AF1EE10FA81B05D
:100AB00048BF002111D4DFED340AB4EE600AF1EE34
:100AC00010FA48BF082108D4DFED300AB4EE600AFE
:100AD000F1EE10FA4CBF0C21042100F0A8FF401EDB
:100AE0008041C00F01B000BD010050410100D04164
:100AF000010050420100D04200B581B0012300F056
:100B000059FF401E8041C00F01B000BD00B581B04B
:100B100001238DF800206A4600F055FF401E8041F9
:100B2000C00F01B000BD10B582B00C46694601F09F
:100B300054FA48B19DF80000002818BF012803D1DD
:100B4000207002B0002010BD012002B010BD0000D6
:100B5000010050430100D043014050440180CF4484
:100B600001205045000050420000D0420000504398
:100B70000000D043004050440080CF440020504546
:100B80000020D045010000400100804001000041EC
:100B90000000D04100005041000080BF000080BF35
:100BA000DFED540A00B5B4EE600AF1EE10FA81B040
:100BB00048BF102147D4DFED500AB4EE600AF1EED1
:100BC00010FA48BF20213ED4DFED4C0AB4EE600A93
:100BD000F1EE10FA48BF302135D4DFED490AB4EE0A
:100BE000600AF1EE10FA48BF40212CD4DFED450A2F
:100BF000B4EE600AF1EE10FA48BF502123D4DFEDC5
:100C0000420AB4EE600AF1EE10FA48BF60211AD42D
:100C1000DFED3E0AB4EE600AF1EE10FA48BF702133
:100C200011D4DFED3B0AB4EE600AF1EE10FA48BFD2
:100C3000802108D4DFED370AB4EE600AF1EE10FA35
:100C40004CBF9021A02100F045FF401E8041C00F05
:100C500001B000BD30B5044681B0A07901280D4631
:100C60009FED2D0A07D12046FFF79AFF012806D1F4
:100C7000012001B030BDA068006880ED010A0021AC
:100C8000204600F0D4FE002831D00621204601F095
:100C900031FC60B30021204601F0EFFB38B30021A6
:100CA000204601F0CBFB10B30021204601F0A8FB49
:100CB000E8B10321204601F0FEFBC0B180212046AF
:100CC00001F0A9FA98B125B1012D0AD0012001B097
:100CD00030BD1021204601F0A1FC40B1002001B040
:100CE00030BD1021204601F053FD0028F6D101202F
:100CF00001B030BD010050410100D041010050421F
:100D00000100D042010050430100D0430140504453
:100D10000180CF44012050450000D04310B5044667
:100D2000002101F07BFC70B10021204601F030FD74
:100D300048B10021204601F06EFA20B10021204682
:100D400001F0D8FB08B9012010BD0021204601F0B8
:100D5000B2FB401E8041C00F10BD10B582B00C46E2
:100D6000694601F09AF848B19DF8000010B12028BA
:100D700004D10120207002B0002010BD012002B07B
:100D800010BD00B581B001F096FB401E8041C00F40
:100D900001B000BD10B50446B3EE0A0AA0790128DF
:100DA00005D12046FFF7FCFE012804D110BDA06844
:100DB000006880ED010A0021204600F038FE70B185
:100DC0001721204601F06FFD48B10421204601F0B3
:100DD00035F820B11021204601F011F808B90120A2
:100DE00010BD8021204600F06FFF401E8041C00FE3
:100DF00010BD10B50446002100F066FF48B1002187
:100E0000204600F0FCFF20B10021204601F016F83A
:100E100008B9012010BD0021204601F044FD401E0C
:100E20008041C00F10BD10B582B00C46694601F07C
:100E300056F948B19DF8000010B1102804D10120E6
:100E4000207002B0002010BD012002B010BD00B51E
:100E500081B001F011FD401E8041C00F01B000BD06
:100E600000B581B0022100F08CFF401E8041C00F10
:100E700001B000BD00B581B0002100F082FF401E2E
:100E80008041C00F01B000BD00B581B001F00BFD85
:100E9000401E8041C00F01B000BD30B5044681B096
:100EA000A07901280D46B3EE0A0A07D12046FFF7C4
:100EB00077FE012806D1012001B030BDA06800688E
:100EC00080ED010A0021204600F0B1FDE8B10421C7
:100ED000204600F0B3FFC0B10821204600F070FFAB
:100EE00098B125B1012D0AD0012001B030BD0221F9
:100EF000204601F036FB40B1002001B030BD022198
:100F0000204601F0E8FB0028F6D1012001B030BDF9
:100F100010B50446002101F024FB48B10021204611
:100F200001F0D9FB20B10021204600F049FF08B9AB
:100F3000012010BD0021204600F080FF401E8041AE
:100F4000C00F10BD10B582B00C46694601F0D7F84D
:100F500048B19DF8000010B1202804D10120207074
:100F600002B0002010BD012002B010BD30B5044613
:100F700081B0A07901280D469FEDBA0A07D120461D
:100F8000FFF70EFE012806D1012001B030BDA06898
:100F9000006880ED010A0021204600F048FD10B3F2
:100FA0000021204601F069FAE8B10221204601F053
:100FB000EAF9C0B18021204601F02DF998B125B1A0
:100FC000012D0AD0012001B030BD2021204601F0C2
:100FD00044FB40B1002001B030BD2021204601F08B
:100FE000F6FB0028F6D1012001B030BD10B5044653
:100FF000002101F032FB70B10021204601F0E7FB37
:1010000048B10021204601F006F920B10021204618
:1010100001F033FA08B9012010BD0021204601F08B
:10102000B2F9401E8041C00F10BD10B582B00C4611
:10103000694600F022FF48B19DF8000010B1082871
:1010400004D10120207002B0002010BD012002B0A8
:1010500010BD00B581B001F096F9401E8041C00F6F
:1010600001B000BD30B5044681B0A07901280D461D
:101070009FED7C0A07D12046FFF792FD012806D19B
:10108000012001B030BDA068006880ED010A002198
:10109000204600F0CCFC002837D00821204601F083
:1010A0009BF8002831D00421204601F076F860B387
:1010B0000221204601F052F838B30821204601F001
:1010C000C9F810B30221204601F001F9E8B101216D
:1010D000204601F01AF9C0B18021204601F09BF8AA
:1010E00098B125B1012D0AD0012001B030BD4021B9
:1010F000204601F0D1FA40B1002001B030BD4021BE
:10110000204601F083FB0028F6D1012001B030BD5C
:1011100010B50446002101F0BFFA10B300212046AB
:1011200001F074FBE8B10021204601F074F8C0B171
:101130000021204601F08EF898B10021204601F0F0
:10114000C6F870B10021204601F0DFF848B1002157
:10115000204601F003F820B10021204601F01DF8DF
:1011600008B9012010BD0021204601F035F8401ECD
:101170008041C00F10BD10B582B00C46694600F02A
:10118000ACFE48B19DF8000010B1202804D1012028
:10119000207002B0002010BD012002B010BD000080
:1011A00030B5044681B0A07901280D469FED2D0A87
:1011B00007D12046FFF7F4FC012806D1012001B039
:1011C00030BDA068006880ED010A0021204600F0D3
:1011D0002EFC002843D00821204600F0FDFF002807
:1011E0003DD00421204600F0D8FF002837D002214E
:1011F000204600F0B3FF002831D00821204601F03E
:1012000029F860B30321204601F061F838B30321C7
:10121000204601F07AF810B30821204601F093F837
:10122000E8B18021204601F0CCF8C0B180212046F1
:1012300000F0F1FF98B125B1012D0AD0012001B0D5
:1012400030BD0821204601F0CAF940B1002001B0AC
:1012500030BD0821204601F07CFA0028F6D101209B
:1012600001B030BD0000D04310B50446002101F0AC
:10127000B6F900282CD00021204601F06AFA38B3D4
:101280000021204600F0C7FF10B30021204600F0E7
:10129000E1FFE8B10021204601F019F8C0B10021BA
:1012A000204601F032F898B10021204601F04BF8B9
:1012B00070B10021204601F084F848B10021204699
:1012C00000F04CFF20B10021204600F066FF08B975
:1012D000012010BD0021204600F07EFF401E80410D
:1012E000C00F10BD10B582B00C46694600F0E5FD98
:1012F00048B19DF8000010B1102804D101202070E1
:1013000002B0002010BD012002B010BD00B581B0B8
:1013100000F0A0FF401E8041C00F01B000BD00B52D
:1013200081B000F0D4FF401E8041C00F01B000BD6D
:1013300000B581B000F0E9FF401E8041C00F01B050
:1013400000BD00B581B000F0FEFF401E8041C00F1F
:1013500001B000BD30B5044681B0A07901280D462A
:101360009FED1A0A07D12046FFF71AFC012806D183
:10137000012001B030BDA068006880ED010A0021A5
:10138000204600F054FBE8B14021204600F080FFE9
:10139000C0B18021204600F03EFF98B125B1012D5B
:1013A0000AD0012001B030BD0421204601F0F8F838
:1013B00040B1002001B030BD0421204601F0AAF95F
:1013C0000028F6D1012001B030BD00000000D0435C
:1013D00010B50446002101F0E3F848B10021204691
:1013E00001F098F920B10021204600F014FF08B95F
:1013F000012010BD0021204600F04AFF401E804120
:10140000C00F10BD10B582B00C46694600F0D5FD86
:1014100048B19DF8000010B1402804D1012020708F
:1014200002B0002010BD012002B010BD10B582B086
:101430000C46694600F061FD48B19DF800000028A7
:1014400018BF012803D1207002B0002010BD012078
:1014500002B010BD10B582B00C46694600F05DFDCB
:1014600048B19DF8000010B1022804D1012020707D
:1014700002B0002010BD012002B010BD10B582B036
:101480000C46694600F059FD48B19DF8000010B1C6
:10149000042804D10120207002B0002010BD0120DA
:1014A00002B010BD10B582B00C46694600F055FD83
:1014B00048B19DF8000010B1082804D10120207027
:1014C00002B0002010BD012002B010BD10B582B0E6
:1014D0000C46694600F051FD48B19DF8000010B17E
:1014E000102804D10120207002B0002010BD01207E
:1014F00002B010BD10B582B00C46694600F04DFD3B
:1015000048B19DF8000010B1202804D101202070BE
:1015100002B0002010BD012002B010BD30B583B074
:1015200004460020ADF804008DF8060000900D463A
:101530000421284601F0F8F9012301AA1B212046C5
:1015400000F038FA002800F0A88001230DF1030212
:101550001C21204600F02EFA002800F09E80012376
:101560000DF106021D21204600F024FA002800F0AB
:10157000948001230DF102025321204600F01AFA53
:10158000002800F08A8001230DF101025E2120462F
:1015900000F010FA002800F0808001236A465F21E5
:1015A000204600F007FA002877D001230DF105024C
:1015B0000D21204600F0FEF900286ED09DF80100B4
:1015C000C00603D49DF80000C00607D59DF80400AE
:1015D000800603D5286840F0010028609DF80100CE
:1015E000800603D49DF80000800607D59DF804000E
:1015F000000703D5286840F0080028609DF8010026
:10160000400603D49DF80000400607D59DF803006E
:10161000800603D5286840F0020028609DF801008C
:10162000000703D49DF80000000707D59DF80300CC
:10163000C00603D5286840F0040028609DF801002A
:10164000400703D49DF80000400707D59DF8060029
:10165000400603D5286840F0400028609DF805004A
:10166000000607D59DF80200C00603D5286840F0A3
:10167000100028609DF80100800703D49DF8000049
:10168000800707D59DF80200800603D5286840F042
:1016900020002860002003B030BD012003B030BD21
:1016A000DFED840A00B5B4EE600AF1EE10FA81B005
:1016B00048BF082147D4DFED800AB4EE600AF1EE9E
:1016C00010FA48BF10213ED4DFED7C0AB4EE600A68
:1016D000F1EE10FA48BF182135D4DFED790AB4EEE7
:1016E000600AF1EE10FA48BF20212CD4DFED750A14
:1016F000B4EE600AF1EE10FA48BF282123D4DFEDE2
:10170000720AB4EE600AF1EE10FA48BF30211AD422
:10171000DFED6E0AB4EE600AF1EE10FA48BF382130
:1017200011D4DFED6B0AB4EE600AF1EE10FA48BF97
:10173000402108D4DFED670AB4EE600AF1EE10FA3A
:101740004CBF4821502100F081FA401E8041C00F5B
:1017500001B000BD10B582B00C46694600F07EFCB9
:1017600068B19DF8000020B1202806D0012002B009
:1017700010BD207002B0002010BD0120F9E701204B
:1017800002B010BD10B582B00C46694600F056FCA0
:1017900068B19DF8000020B1102806D0012002B0E9
:1017A00010BD207002B0002010BD0120F9E701201B
:1017B00002B010BD10B582B00C46694600F05EFC68
:1017C00068B19DF8000020B1402806D0012002B089
:1017D00010BD207002B0002010BD0120F9E70120EB
:1017E00002B010BD00B581B000F058FC401E804131
:1017F000C00F01B000BD00B581B001F026F8401E59
:101800008041C00F01B000BD00B581B000F0F5FB14
:10181000401E8041C00F01B000BD00B5072981B056
:1018200006D800F0B5F9401E8041C00F01B000BDE0
:10183000012001B000BD000070B582B00D46044625
:10184000694601F002F8002831D09DF801009DF8AA
:10185000001041EA00260DF10201204600F006F9D1
:1018600028B39DF802000C2821D8DFE800F01020F2
:101870002020072020200D2020200A009FED160A9E
:1018800007E09FED160A04E09FED150A01E09FEDC9
:10189000150A36B200EE906AF8EEE00A20EE800AF1
:1018A000BDEEC00A85ED000A002002B070BD012027
:1018B00002B070BD010020410100C8410100484252
:1018C0000100C842010048430100C84301004844E8
:1018D0000100C84401404E4523DBF93E23DB793E3D
:1018E00023DBF93D23DB793D00B5062981B00CD817
:1018F000DFE801F004040B04040B040000F087F996
:10190000401E8041C00F01B000BD012001B000BDEC
:1019100000B50A0018BF202981B006D100F0B5F942
:10192000401E8041C00F01B000BD012001B000BDCC
:1019300000B581B000F0FDF8401E8041C00F01B03D
:1019400000BD00B50A0018BF802981B006D100F0A3
:101950003FF9401E8041C00F01B000BD012001B021
:1019600000BD00B5012981B006D800F0D8FB401EAB
:101970008041C00F01B000BD012001B000BD00B525
:10198000032981B006D800F0DDF9401E8041C00F68
:1019900001B000BD012001B000BD8268521C826010
:1019A000426832B10268531C036011704168491EDD
:1019B0004160704700B581B001F0A6F8401E80413B
:1019C000C00F01B000BD00B581B001F053F8401E5A
:1019D0008041C00F01B000BD00B50A4681B00123AF
:1019E0000F2101F091F8401E8041C00F01B000BDF1
:1019F00030B581B00D46044601236A46122101F03C
:101A000083F810B1002001B030BD9DF8000000F057
:101A1000BF0028438DF8000001236A4612212046AA
:101A200001F028F8401E8041C00F01B030BD30B534
:101A300081B00D46044601236A46102101F064F886
:101A400010B1002001B030BD9DF8000000F0F3009F
:101A500028438DF8000001236A461021204601F03A
:101A600009F8401E8041C00F01B030BD10B50C46D2
:101A700001232246102101F047F808B1002010BDD3
:101A8000207800F00C002070012010BDF0B581B06E
:101A900004460D4600260327F6B206F1280101236D
:101AA000AA19C9B2204601F02FF850B9761CF6B237
:101AB00006F128010123AA19C9B2204601F024F831
:101AC00010B1002001B0F0BD761C7F1EE4D10120D2
:101AD00001B0F0BD30B581B00D46044601236A4621
:101AE000102101F011F810B1002001B030BD9DF8B7
:101AF000000000F00F0028438DF8000001236A4623
:101B00001021204600F0B6FF401E8041C00F01B0FA
:101B100030BD10B50C4601232246102100F0F4FF21
:101B200008B1002010BD207800F0F00020700120E6
:101B300010BD70B582B0044601236A460D460621E9
:101B400000F0E2FF2E0A78B98DF8005001236A46B2
:101B50000621204600F08EFF30B901236A46072196
:101B6000204600F0D1FF10B1002002B070BD9DF8FA
:101B7000000066F302008DF8000001236A46072189
:101B8000204600F077FF401E8041C00F02B070BDBC
:101B900030B581B00D46044601236A46082100F0A5
:101BA000B3FF10B1002001B030BD9DF8000000F07F
:101BB000F80028438DF8000001236A4608212046DA
:101BC00000F058FF401E8041C00F01B030BD000042
:101BD00030B581B00D46044601236A46092100F064
:101BE00093FF10B1002001B030BD9DF8000000F05F
:101BF0007F0028438DF8000001236A460921204612
:101C000000F038FF401E8041C00F01B030BD30B53C
:101C100081B00D46044601236A460A2100F074FF94
:101C200010B1002001B030BD9DF8000000F0F800B8
:101C300028438DF8000001236A460A21204600F05F
:101C400019FF401E8041C00F01B030BD30B581B0DA
:101C50000D46044601236A460A2100F055FF10B1E3
:101C6000002001B030BD9DF8000000F0870028433F
:101C70008DF8000001236A460A21204600F0FAFE92
:101C8000401E8041C00F01B030BD30B581B00D465F
:101C9000044601236A460D2100F036FF10B10020F2
:101CA00001B030BD9DF8000000F0DF0028438DF842
:101CB000000001236A460D21204600F0DBFE401E95
:101CC0008041C00F01B030BD30B581B00D46044633
:101CD00001236A460D2100F017FF10B1002001B06A
:101CE00030BD9DF8000000F07F0028438DF8000013
:101CF00001236A460D21204600F0BCFE401E8041B3
:101D0000C00F01B030BD30B581B00D46044601238F
:101D10006A46122100F0F8FE10B1002001B030BD7B
:101D20009DF8000000F0FB0028438DF8000001231F
:101D30006A461221204600F09DFE401E8041C00FE1
:101D400001B030BD30B581B00D46044601236A466E
:101D5000142100F0D9FE10B1002001B030BD9DF873
:101D6000000000F0FC0028438DF8000001236A46C3
:101D70001421204600F07EFE401E8041C00F01B0BD
:101D800030BD30B581B00D46044601236A461921A5
:101D900000F0BAFE10B1002001B030BD9DF8000087
:101DA00000F0FD0028438DF8000001236A46192148
:101DB000204600F05FFE401E8041C00F01B030BDE4
:101DC00030B581B00D46044601236A46192100F062
:101DD0009BFE10B1002001B030BD9DF8000000F066
:101DE000F70028438DF8000001236A461921204698
:101DF00000F040FE401E8041C00F01B030BD30B544
:101E000081B00D46044601236A46192100F07CFE8C
:101E100010B1002001B030BD9DF8000000F0EF00CF
:101E200028438DF8000001236A461921204600F05E
:101E300021FE401E8041C00F01B030BD30B581B0E1
:101E40000D46044601236A46192100F05DFE10B1DB
:101E5000002001B030BD9DF8000000F0FB002843D9
:101E60008DF8000001236A461921204600F002FE89
:101E7000401E8041C00F01B030BD10B50C4601239B
:101E800022461B2100F040FE08B1002010BD207842
:101E900000F008002070012010BD10B50C46012391
:101EA00022461B2100F030FE08B1002010BD207832
:101EB00000F020002070012010BD10B50C46012359
:101EC00022461C2100F020FE08B1002010BD207821
:101ED00000F010002070012010BD10B50C46012349
:101EE00022461C2100F010FE08B1002010BD207811
:101EF00000F020002070012010BD10B50C46012319
:101F000022461D2100F000FE08B1002010BD2078FF
:101F100000F001002070012010BD10B50C46012317
:101F200022461D2100F0F0FD08B1002010BD2078F0
:101F300000F002002070012010BD10B50C460123F6
:101F400022461D2100F0E0FD08B1002010BD2078E0
:101F500000F004002070012010BD10B50C460123D4
:101F600022461D2100F0D0FD08B1002010BD2078D0
:101F700000F008002070012010BD10B50C460123B0
:101F800022461D2100F0C0FD08B1002010BD2078C0
:101F900000F010002070012010BD10B50C46012388
:101FA00022461D2100F0B0FD08B1002010BD2078B0
:101FB00000F020002070012010BD10B50C46012358
:101FC00022461D2100F0A0FD08B1002010BD2078A0
:101FD00000F040002070012010BD10B50C46012318
:101FE00022461E2100F090FD08B1002010BD20788F
:101FF00000F001002070012010BD30B581B00D4609
:10200000044601236A463A2100F07EFD38B90123D7
:102010000DF101023B21204600F076FD10B10020B9
:1020200001B030BD9DF801009DF8001000F00F00D8
:1020300041EA0020288001B0012030BD10B50C46D7
:10204000012322463B2100F05FFD08B1002010BDB6
:10205000207800F010002070012010BD10B50C4653
:10206000012322463B2100F04FFD08B1002010BDA6
:10207000207800F020002070012010BD10B50C4623
:10208000012322463B2100F03FFD08B1002010BD96
:10209000207800F040002070012010BD30B581B0E4
:1020A0000D46044601236A463C2100F02DFD38B957
:1020B00001230DF101023D21204600F025FD10B164
:1020C000002001B030BD9DF801009DF8001000F027
:1020D000030041EA0020288001B0012030BD10B586
:1020E0000C4601232246532100F00EFD08B10020CA
:1020F00010BD207800F010002070012010BD10B538
:102100000C4601232246532100F0FEFC08B10020BA
:1021100010BD207800F020002070012010BD30B5E7
:1021200081B00D46044601236A46582100F0ECFCBC
:1021300010B1002001B030BD9DF8000000F0FE009D
:1021400028438DF8000001236A465821204600F0FC
:1021500091FC401E8041C00F01B030BD30B581B050
:102160000D46044601236A46582100F0CDFC10B10B
:10217000002001B030BD9DF8000000F0FD002843B4
:102180008DF8000001236A465821204600F072FCB9
:10219000401E8041C00F01B030BD30B581B00D464A
:1021A000044601236A46582100F0AEFC10B100201D
:1021B00001B030BD9DF8000000F0FB0028438DF811
:1021C000000001236A465821204600F053FC401EBF
:1021D0008041C00F01B030BD30B581B00D4604461E
:1021E00001236A46582100F08FFC10B1002001B095
:1021F00030BD9DF8000000F0F70028438DF8000086
:1022000001236A465821204600F034FC401E8041DC
:10221000C00F01B030BD30B581B00D46044601237A
:102220006A46582100F070FC10B1002001B030BDAA
:102230009DF8000000F07F0028438DF80000012386
:102240006A465821204600F015FC401E8041C00F10
:1022500001B030BD30B581B00D46044601236A4659
:10226000592100F051FC10B1002001B030BD9DF8A3
:10227000000065F304008DF8000001236A4659212F
:10228000204600F0F7FB401E8041C00F01B030BD7A
:1022900030B581B00D46044601236A46592100F04D
:1022A00033FC10B1002001B030BD9DF8000000F0FB
:1022B0009F0028438DF8000001236A4659212046DB
:1022C00000F0D8FB401E8041C00F01B030BD30B5DA
:1022D00081B00D46044601236A465A2100F014FCE1
:1022E00010B1002001B030BD9DF8000065F3010081
:1022F0008DF8000001236A465A21204600F0BAFBFF
:10230000401E8041C00F01B030BD30B581B00D46D8
:10231000044601236A465A2100F0F6FB10B1002062
:1023200001B030BD9DF8000065F383008DF800001A
:1023300001236A465A21204600F09CFB401E804142
:10234000C00F01B030BD30B581B00D460446012349
:102350006A465A2100F0D8FB10B1002001B030BD10
:102360009DF8000000F00F0040EA05108DF8000015
:1023700001236A465A21204600F07CFB401E804122
:10238000C00F01B030BD30B581B00D460446012309
:102390006A465B2100F0B8FB10B1002001B030BDEF
:1023A0009DF8000065F305008DF8000001236A46E2
:1023B0005B21204600F05EFB401E8041C00F01B053
:1023C00030BD30B581B00D46044601236A465B211D
:1023D00000F09AFB10B1002001B030BD9DF8000064
:1023E00000F07F0028438DF8000001236A465B213E
:1023F000204600F03FFB401E8041C00F01B030BDC1
:1024000030B581B00D46044601236A465C2100F0D8
:102410007BFB10B1002001B030BD9DF8000065F3DA
:1024200003008DF8000001236A465C21204600F07D
:1024300021FB401E8041C00F01B030BD30B581B0DE
:102440000D46044601236A465C2100F05DFB10B195
:10245000002001B030BD9DF8000000F0EF002843DF
:102460008DF8000001236A465C21204600F002FB43
:10247000401E8041C00F01B030BD30B581B00D4667
:10248000044601236A465C2100F03EFB10B10020A7
:1024900001B030BD9DF8000065F346108DF80000D6
:1024A00001236A465C21204600F0E4FA401E804188
:1024B000C00F01B030BD30B581B00D4604460123D8
:1024C0006A465D2100F020FB10B1002001B030BD54
:1024D0009DF8000000F0F80028438DF8000001236B
:1024E0006A465D21204600F0C5FA401E8041C00FBB
:1024F00001B030BD70B582B0044601236A460E4675
:102500005D2100F001FB7509A8B99DF8000000F0FD
:10251000070040EAC6008DF8000001236A465D21ED
:10252000204600F0A7FA30B901236A465C21204614
:1025300000F0EAFA10B1002002B070BD9DF8000072
:1025400000F07F0040EAC5108DF8000001236A46C4
:102550005C21204600F08EFA401E8041C00F02B080
:1025600070BD30B581B00D46044601236A465E2138
:1025700000F0CAFA10B1002001B030BD9DF8000093
:1025800000F0FD0028438DF8000001236A465E211B
:10259000204600F06FFA401E8041C00F01B030BDF0
:1025A00030B581B00D46044601236A465E2100F035
:1025B000ABFA10B1002001B030BD9DF8000000F072
:1025C000FB0028438DF8000001236A465E21204667
:1025D00000F050FA401E8041C00F01B030BD30B550
:1025E00081B00D46044601236A465E2100F08CFA54
:1025F00010B1002001B030BD9DF8000000F0F700E0
:1026000028438DF8000001236A465E21204600F031
:1026100031FA401E8041C00F01B030BD30B581B0ED
:102620000D46044601236A465E2100F06DFA10B1A2
:10263000002001B030BD9DF8000000F0EF002843FD
:102640008DF8000001236A465E21204600F012FA50
:10265000401E8041C00F01B030BD30B581B00D4685
:10266000044601236A465E2100F04EFA10B10020B4
:1026700001B030BD9DF8000000F0DF0028438DF868
:10268000000001236A465E21204600F0F3F9401E57
:102690008041C00F01B030BD30B581B00D46044659
:1026A00001236A465E2100F02FFA10B1002001B02C
:1026B00030BD9DF8000000F0BF0028438DF80000F9
:1026C00001236A465E21204600F0D4F9401E804175
:1026D000C00F01B030BD30B581B00D4604460123B6
:1026E0006A465F2100F010FA10B1002001B030BD41
:1026F0009DF8000000F0FD0028438DF80000012344
:102700006A465F21204600F0B5F9401E8041C00FA7
:1027100001B030BD30B581B00D46044601236A4694
:102720005F2100F0F1F910B1002001B030BD9DF83B
:10273000000000F0FB0028438DF8000001236A46EA
:102740005F21204600F096F9401E8041C00F01B085
:1027500030BD30B581B00D46044601236A465F2185
:1027600000F0D2F910B1002001B030BD9DF800009A
:1027700000F0F70028438DF8000001236A465F212E
:10278000204600F077F9401E8041C00F01B030BDF7
:1027900030B581B00D46044601236A465F2100F042
:1027A000B3F910B1002001B030BD9DF8000000F079
:1027B000EF0028438DF8000001236A465F21204680
:1027C00000F058F9401E8041C00F01B030BD30B557
:1027D00081B00D46044601236A465F2100F094F95A
:1027E00010B1002001B030BD9DF8000000F0DF0006
:1027F00028438DF8000001236A465F21204600F03F
:1028000039F9401E8041C00F01B030BD30B581B0F4
:102810000D46044601236A465F2100F075F910B1A8
:10282000002001B030BD9DF8000000F0BF0028433B
:102830008DF8000001236A465F21204600F01AF956
:10284000401E8041C00F01B030BD30B50D4681B093
:10285000044601232A463E2100F056F930B90123EF
:102860006A1C3F21204600F04FF910B1002001B052
:1028700030BD012001B030BD30B50D4681B00446F9
:1028800001232A464B2100F03FF930B901236A1C8D
:102890004C21204600F038F910B1002001B030BDC5
:1028A000012001B030BD30B581B00D460446012392
:1028B0006A46012100F028F958B99DF8000040F05F
:1028C00080008DF8000001236A460121204600F0B7
:1028D000D1F801230DF101020F21204600F014F977
:1028E0009DF8010065F304008DF8010001230DF14E
:1028F00001020F21204600F0BDF801236A460121A4
:10290000204600F001F958B99DF8000000F07F0062
:102910008DF8000001236A460121204600F0AAF844
:10292000012001B030BD0000002200F0A1B900007C
:1029300030B5C84C87B0204600F06EFE00284BD161
:10294000C548C64D606001A90020A0603320E0604A
:102950004FF480402061C248206000200090286928
:1029600040F002002861286900F002000090009801
:102970004FF4407001901220029002200490002039
:10298000039004200590B74800F04AFE0020009014
:102990000022286A40F4001028620021286A00F40E
:1029A000001000900098286840F400102860286803
:1029B00020F4001028601F2000F02BFF1F2000F0E3
:1029C00051FF00220021202000F023FF202000F0F2
:1029D00049FF204600F07CF9204600F01DFE20282B
:1029E0000CBF0020012007B030BD70B58CB00020B6
:1029F000009006A99C4E9D4C30689A4D40F0020014
:102A00003060306800F002000090009807942020A9
:102A100006900220099000200890284600F000FE51
:102A200000220021172000F0F4FE172000F01AFF0A
:102A30000020009001A9306840F00200306030684A
:102A400000F00200009000980294102001900220F3
:102A5000049000200390284600F0E2FD00220021AF
:102A60000A2000F0D6FE0A2000F0FCFE00200CB088
:102A700070BD00002DE9F043044683B02078332870
:102A800018BF4028884616461F4603D0B12806D0F6
:102A9000BC2822D1022F20DB48F080081DE0002551
:102AA000380016D0DFF8AC914FF4805002900096B9
:102AB0000120019005EB0802A1780123D2B248461B
:102AC00000F096F908B1484615E06D1C761CBD4231
:102AD000EADB002003B0BDE8F0834FF480500290A1
:102AE000019700965B4DA17801234246284600F0ED
:102AF0007FF928B1284600F05AF900F04EF801207D
:102B000003B0BDE8F08300002DE9F043044683B034
:102B10002078332818BF4028884616461F4603D021
:102B2000B12806D0BC2822D1022F20DB48F0800833
:102B30001DE00025380016D0DFF818914FF48050C2
:102B4000029000960120019005EB0802A178012374
:102B5000D2B2484600F0D1FA08B1484615E06D1CE3
:102B6000761CBD42EADB002003B0BDE8F0834FF4E1
:102B70008050029001970096364DA178012342467D
:102B8000284600F0BAFA28B1284600F010F900F003
:102B900004F8012003B0BDE8F08330B52D4C87B0B8
:102BA000204600F039FD00284BD12B482B4D6060AA
:102BB00001A90020A0603320E0604FF48040206134
:102BC0002748206000200090286940F0020028611A
:102BD000286900F00200009000984FF440700190C6
:102BE00012200290022004900020039004200590FF
:102BF0001C4800F015FD002000900022286A40F4D7
:102C0000001028620021286A00F40010009000984B
:102C1000286840F400102860286820F4001028601C
:102C20001F2000F0F6FD1F2000F01CFE00220021F6
:102C3000202000F0EEFD202000F014FE204600F0E1
:102C400047F8204600F0E8FC20280CBF00200120B7
:102C500007B030BD640A0020801A06002038024008
:102C600000540040000402403038024000001110BF
:102C7000401810F0030308D0C91A1FD3DB0748BF60
:102C800000F8012D28BF20F8022D130030B414469F
:102C90001546103928BF20E93C00FAD8490728BF5B
:102CA00020E90C0048BF40F8042D890028BF20F817
:102CB000022D48BF00F8012D30BC7047C91818BF5D
:102CC00000F8012DCB0728BF00F8012D7047000048
:102CD00030B5040081B008BF012066D094F83D00F3
:102CE00020B984F83C00204600F099FC242084F8A8
:102CF0003D002068016849084900016000F088FE35
:102D0000DFF8E020A0FB02212268C90C5160636853
:102D1000DFF8D420934208D34FF4967313FB01F1EC
:102D2000DFF8C850A1FB0553590A2368491C1962F2
:102D30006168914208D24900B0FBF1F0C0F30B0189
:102D4000042913D2042011E0A26822B901EB410149
:102D5000B0FBF1F005E019225143B0FBF1F040F473
:102D6000804001050CBF012040F400402168C8618B
:102D7000E069216A0843216808602069E168084326
:102D8000216888606069A16908432168C86020687B
:102D9000016841F00101016000202064202084F8D6
:102DA0003D000020206384F83E0001B030BD10B526
:102DB000040001D1012010BD242084F83D002068CA
:102DC0000168490849000160204600F067FE0020C4
:102DD000206484F83D00206384F83E0084F83C00C1
:102DE00010BD000006BD3786A1860100986E1283D3
:102DF0002DE9F04381B0044689461546984600F017
:102E00004FFE064694F83D00202812D120688169C3
:102E1000890712D500F044FE801B1A28F6D3002043
:102E20002063202084F83D00002084F83E0084F8D0
:102E30003C00022001B0BDE8F08394F83C10012969
:102E4000F7D0012184F83C100168C90703D4016858
:102E500041F0010101602068016821F40061016016
:102E6000212084F83D00402084F83E0000202064AA
:102E70000898606209986085DFF89807E062608DC5
:102E800020852068016841F4807101600A9F2068F4
:102E90004169C9071DD417F1010FF8D027B100F01F
:102EA000FFFD801B8742F2D200202063202084F89F
:102EB0003D00002084F83E0084F83C00206C04288B
:102EC00040F08B80002084F83C0001B00120BDE878
:102ED000F08309F0FE01016120684169890720D46F
:102EE000416949050AD5016841F4007101606FF438
:102EF0008060216848610420206408E017F1010F18
:102F0000EAD027B100F0CCFD801B8742E4D200203C
:102F10002063202084F83D00002084F83C00206CD1
:102F2000CCE70021009141690091806900900098F0
:102F300021684869000625D44869400515D56FF415
:102F4000806048610420206400202063202084F8F1
:102F50003D00002084F83C00206C0428AED120689D
:102F6000016841F400710160A8E717F1010FDFD09B
:102F700027B100F095FD801B8742D9D2206C40F02C
:102F80002000E0E7B8F1010F23D0280A086120688B
:102F9000416909061DD44169490504D56FF4806172
:102FA000416104200BE017F1010FF0D027B100F0D0
:102FB00077FD801B8742EAD2206C40F0200020641D
:102FC00000202063202084F83D00002084F83C008D
:102FD000C2E72068EDB2056111E0002084F83C00F2
:102FE000032001B0BDE8F083606A421C6262007891
:102FF0000861208D401E2085608D401E6085208DDB
:1030000000283ED020684169090628D44169490555
:1030100018D56FF480614161042020640020206392
:10302000202084F83D00002084F83C00206C042817
:10303000D6D12068016841F400710160012001B01F
:10304000BDE8F08317F1010FDCD027B100F028FDB7
:10305000801B8742D6D2206C40F02000DDE7616AF9
:103060004A1C626209780161208D401E2085618DB5
:10307000491E618521684A695207C0D580B200287F
:10308000B2D120684169490728D44169490518D55A
:103090006FF48061416104202064002020632020BF
:1030A00084F83D00002084F83C00206C042897D16F
:1030B0002068016841F400710160012001B0BDE8A1
:1030C000F08317F1010FDCD027B100F0E9FC801B81
:1030D0008742D6D2206C40F02000DDE7016841F441
:1030E00000710160202084F83D00002084F83E003B
:1030F00084F83C0001B0BDE8F0832DE9F04381B0D5
:10310000044688461646994600F0CAFC074694F8DD
:103110003D00202812D120688169890712D500F06E
:10312000BFFCC01B1A28F6D300202063202084F89F
:103130003D00002084F83E0084F83C00022001B0ED
:10314000BDE8F08394F83C100129F7D0012184F800
:103150003C100168C90703D4016841F00101016016
:103160002068016821F400610160222084F83D009C
:10317000402084F83E00002020640898606209988E
:103180006085DFF89004E062608D2085206801682A
:1031900041F4806101602068016841F48071016040
:1031A0000A9D20684169C9070BD415F1010FF8D0B9
:1031B000002D00F0BB8000F073FCC01B8542F0D2F4
:1031C000B4E008F0FE0101612068416989071FD45D
:1031D000416949050AD5016841F4007101606FF445
:1031E0008060216848610420206408E015F1010F27
:1031F000EAD025B100F054FCC01B8542E4D2002087
:103200002063202084F83D00002084F83C00B5E0D5
:103210000021009141690091806900900098216827
:10322000486900061DD4486940050DD56FF48060DB
:1032300048610420206400202063202084F83D00A1
:10324000002084F83C0057E015F1010FE7D025B1CC
:1032500000F026FCC01B8542E1D2206C40F020002B
:10326000E8E7B9F1010F23D0300A0861206841690D
:1032700009061DD44169490504D56FF48061416197
:1032800004200BE015F1010FF0D025B100F008FC8F
:10329000C01B8542EAD2206C40F020002064002050
:1032A0002063202084F83D00002084F83C0023E0C7
:1032B0002068F6B2066120684169090625D4416993
:1032C000490504D56FF48061416104200BE015F1DC
:1032D000010FF0D025B100F0E3FBC01B8542EAD21C
:1032E000206C40F02000206400202063202084F81F
:1032F0003D00002084F83C00206C04283FD1206869
:10330000016841F40071016039E0016841F48071A5
:10331000016020684169C90713D415F1010FF8D085
:1033200025B100F0BDFBC01B8542F2D20020206316
:10333000202084F83D00002084F83E0084F83C0002
:103340001DE048F00101C9B20161206841698907A7
:103350002AD4416949051CD5016841F40071016016
:103360006FF480602168486104202064002020639D
:10337000202084F83D00002084F83C00206C206C64
:10338000042817D1002084F83C00012001B0BDE8DA
:10339000F08315F1010FD8D0002DE7D000F080FBAD
:1033A000C01B8542D1D2E1E7218D0A0009D100215D
:1033B00000910FE0002084F83C0001B00320BDE83C
:1033C000F083012910D1016821F48061016000209F
:1033D000009020684169009181690091009901681D
:1033E00041F40071016021E002290CD1016821F44F
:1033F000806101602068016841F400610160002083
:103400000090206801E000210091416900918069ED
:10341000009000980AE0606A421C626209690170CB
:10342000208D401E2085608D401E6085208D01000E
:1034300000F0E480042880F0A580012824D12168D0
:1034400048694006E7D44869C00606D56FF0100009
:10345000486100202064206309E025B100F020FBD2
:10346000C01B8542EBD2206C40F02000206420205D
:1034700084F83D00002084F83C00206C202884D192
:10348000032001B0BDE8F08302282AD120684169F9
:10349000490711D415F1010FF8D025B100F000FB58
:1034A000C01B8542F2D200202063202084F83D001A
:1034B000002084F83E007EE7016841F4007101605D
:1034C000606A411C6162216809690170208D401E9B
:1034D0002085608D401E6085606A411C61622168A4
:1034E0009CE720684169490711D415F1010FF8D014
:1034F00025B100F0D5FAC01B8542F2D2002020632E
:10350000202084F83D00002084F83E0053E7016845
:1035100021F480610160606A411C6162216809696F
:103520000170208D401E2085608D401E60852068C2
:103530004169490711D415F1010FF8D025B100F008
:10354000AFFAC01B8542F2D200202063202084F80D
:103550003D00002084F83E002DE7016841F4007131
:103560000160606A411C6162216809690170208DF7
:10357000401E2085608D401E6085606A411C61622E
:1035800021684BE720684169490621D44169C90691
:1035900013D56FF0100141610020206420632020CA
:1035A00084F83D00002084F83C00206C20287FF443
:1035B000ECAE032001B0BDE8F08325B100F070FA55
:1035C000C01B8542DED2206C40F020002064E6E77C
:1035D000616A4A1C626200690870208D401E208565
:1035E000608D401E60852068416949077FF51EAFE8
:1035F000616A4A1C62620069087011E7202084F841
:103600003D00002084F83E0084F83C0001B0BDE895
:10361000F08300000000FFFF90F83D007047704706
:103620002DE9F04F002381B0024600249946DFF8CF
:10363000A4A1694F4FF00F0E01200D68984000EAD9
:103640000508804540F0A7804D68022D18BF122D57
:1036500011D1DD0802EB850C09F01C05DCF82060B7
:103660000EFA05FB26EA0B06D1F810B00BFA05F5A9
:103670003543CCF8205003261568A6406FEA060CA7
:103680000E7906F003060CEA0505A64035431560E1
:103690004D68012D18BF022D03D0112D18BF122D1A
:1036A0000FD19568CE680CEA0505A64035439560B4
:1036B000556825EA00004D68C5F300159D40284374
:1036C0005060D0688D680CEA0000A5402843D060A7
:1036D0004868C0005FD50020009009F00C0C3868E5
:1036E0003E4E40F480403860386800F480400090DE
:1036F0000098980856F820500EFA0CF6B543384E4C
:10370000B24208BF002613D0364EB24208BF01268F
:103710000ED0354EB24208BF022609D0334EB24217
:1037200008BF032604D0324EB2420CBF042607263F
:1037300006FA0CF62E43294D45F820606FEA080082
:10374000DAF8005000EA050C4D68ED0348BF48EA7E
:103750000C0CCAF800C0DAF8045000EA050C4D68F9
:10376000AD0348BF48EA0C0CCAF804C0DAF80850A8
:1037700000EA050C4D68ED0248BF48EA0C0CCAF897
:1037800008C0DAF80C5028404D68AD0248BF48EA3E
:103790000000CAF80C005B1CA41C102B09F10409E2
:1037A000FFF44AAF01B0BDE8F08F00690840401E49
:1037B0008041C043C00F704702B90904816170475E
:1037C0000C4A136803421CBF106000F073BA7047C4
:1037D00000000000003C014044380240083801402D
:1037E000000002400004024000080240000C0240B9
:1037F00000100240143C014027490A684FF6FF03BD
:1038000000021A4000F4E0601043244A10430860AC
:10381000704730B4204B1B68C3F30223C3F1070485
:10382000052C28BF04241D1D072D34BF0023DB1EDB
:10383000012505FA04F4641E2140994005FA03F3BA
:103840005B1E1A4011430901002807D5144A00F0F5
:103850000F00104400F8041C30BC7047114A11548A
:1038600030BC7047012100F01F0291400E4A400910
:1038700042F820107047401EB0F1807F01D3012034
:1038800070470A494860F02081F8130D00208860D5
:1038900007200860002070470CED00E00000FA05EA
:1038A00018ED00E000E400E000E100E010E000E0DE
:1038B000F0B5614E81B00446D6F800040D4600F024
:1038C0000F00A84207D286F80054D6F8000400F092
:1038D0000F00A84276D12078800705D5B068A1688E
:1038E00020F0F0000843B0602078C0075CD5606825
:1038F000012802D13168890305E0022818BF032896
:1039000005D13168890105D4012001B0F0BD3168CD
:10391000890757D5B168890840EA8100B06000F096
:10392000BFF80746606801280ED1B06800F00C00AF
:10393000042839D000F0B4F8C01B41F28931884224
:10394000F3D3032001B0F0BD02280ED1B06800F01F
:103950000C00082828D000F0A3F8C01B41F28931E0
:103960008842F3D3032001B0F0BD03280ED1B06824
:1039700000F00C000C2817D000F092F8C01B41F2A8
:1039800089318842F3D3032001B0F0BDB06810F054
:103990000C0F09D000F084F8C01B41F28931884235
:1039A000F4D3032001B0F0BDD6F8000400F00F00FE
:1039B00085420AD286F80054D6F8000400F00F00C1
:1039C000A84202D0012001B0F0BD2078400705D503
:1039D000B068E16820F4E0500843B0602078000748
:1039E00006D5B068216920F4604040EAC100B060AB
:1039F00000F02CF8B2681149C2F30312895CC84088
:103A00000F4908600F2000F0B5F9002001B0F0BDAB
:103A10000B480C4A006812680B49C2F38222895C89
:103A2000C84070470648074A006812680649C2F352
:103A30004232895CC8407047003802400464000884
:103A40007C01002008380240AC6B00081048416837
:103A500001F00C01042903D0082903D00D48704758
:103A60000D48704701680268520201F03F014CBFE7
:103A7000094A084AB2FBF1F102680068C0F301404C
:103A8000C2F38812401C51434000B1FBF0F0704774
:103A9000043802400024F40000127A00704700004D
:103AA00001480068704700BF080B002070B594B053
:103AB00000F076F900F092F9002000F0D7F901212A
:103AC000002000F013FA00F06DFA0C20079000209F
:103AD0000D900120099000200C9007A800F0C2FA78
:103AE000814C00281ABF0120F921FF21E1600A461C
:103AF0007F21A16062627D4908607D48206040208E
:103B00006060002020616061A061204600F014FC2C
:103B100000B1FEE78DF80300012201208DF80100BD
:103B20008DF802008DF800006946204600F068FD1F
:103B300000B1FEE78DF808008DF809008DF80A0045
:103B40008DF80B0005900690012202A9204600F096
:103B50004EFC00B1FEE704F1280100F049FE012807
:103B600003D1002000F0ACF9FEE7A06A00F0F8FEF7
:103B7000A06A00F00FFFFFF793FF054640F6B83646
:103B800094F82000B0B1002084F8200001A9A06AB8
:103B900000F03FFF70B90198C0F3001050B100F081
:103BA0001DF8002000F08CF9642000F043FF002095
:103BB00000F091F994F8210028B1A06A00F007FF05
:103BC00008B984F82100FFF76BFF401BB042D7D340
:103BD00000F004F8FFF764FF0546D1E7F0B58BB0BD
:103BE000414C002205A9204600F0D4FC002204A983
:103BF000204600F0C8FD606A0699411A64225143CC
:103C0000401C91FBF0F537A24FF4807104F12C00B9
:103C100000F022FF04F12C0000F040FF354E41F28D
:103C2000883782B23B4604F12C01304600F082FF17
:103C30009DF816009DF814300FF2C0020190EDB20D
:103C40009DF81500009002954FF4807104F12C004E
:103C500000F002FF04F12C0000F020FF82B23B468E
:103C600004F12C01304600F065FFA06A03A900F0C2
:103C700087FEA06A04F1220100F09AFE012807BF26
:103C80009DF80C300FF29802638C0FF2D4024FF4BF
:103C9000807104F12C0000F0DFFE04F12C0000F034
:103CA000FDFE82B23B4604F12C01304600F042FF9B
:103CB0000BB0F0BD00B5B0F5005F81B009D10020B8
:103CC00000F058F958B90849012081F8210001B0E5
:103CD00000BD202803D10449012081F8200001B053
:103CE00000BD00000D0A0000380900200C0B002068
:103CF00000280040F8070020FEE7000054696D65C9
:103D0000207374616D703A20253032643A25303268
:103D1000643A253032642E253032640D0A000000EA
:103D20004572726F722067657474696E6720737470
:103D3000657020636F756E742066726F6D204C53D2
:103D40004D3644534C202D20616363656C65726F62
:103D50006D657465725B25645D2E0D0A00000000C0
:103D60005374657020636F756E743A2025640D0A74
:103D70000000000010B504460748084A0068A0FB90
:103D80000221480AFFF777FD002221464FF0FF305D
:103D9000FFF73FFD002010BD7C010020986E1283CC
:103DA00000B50C4881B0016841F400710160016800
:103DB00041F480610160016841F480710160032079
:103DC000FFF71AFD0F20FFF7D5FF00F005F80020E0
:103DD00001B000BD003C02407047000000B593B048
:103DE000002000901F48016841F080510160006888
:103DF00000F0805000900098002000901A48016860
:103E000021F4404141F400410160006800F4404069
:103E100000900098022006900120099010200A903E
:103E200002200C9000200D9010200E904FF4A870EE
:103E30000F90042010900720119006A800F012F9AE
:103E40000F200190022102200290002003904FF4E5
:103E5000805004900020059001A8FFF729FD13B0C1
:103E600000BD00BF403802400070004070B586B011
:103E7000044600200090DFF81061DFF810010168AF
:103E800041F00101016001A9006800F0010000900B
:103E900000980FF2041030F81450019501200290A0
:103EA000002003900220049056F82400FFF7B8FB8E
:103EB00056F8240000222946FFF77EFC06B070BDAC
:103EC0000FF2D401DFF8C03031F8101053F82000A1
:103ED0000122FFF771BC0FF2C001DFF8AC3031F8FE
:103EE000101053F820000022FFF766BC30B587B0F1
:103EF0000446002000900D46DFF89000016841F074
:103F000004010160006800F004000090280000989F
:103F100010D10FF2880030F81400019001A90020A0
:103F20000290022003900490DFF8640050F824000F
:103F3000FFF776FB012D1BD10FF2600030F8140063
:103F4000019001A900200390DFF848000290DFF8FB
:103F5000400050F82400FFF763FB0FF24400045DBB
:103F600000220F2160B2FFF754FC60B2FFF77AFC29
:103F700007B030BD0FF22401DFF8142031F8101023
:103F800052F82000FFF711BC7401002030380240C5
:103F90007801002000002110200000000020000017
:103FA0002800000010B586B000200090294C2A4857
:103FB000016841F001010160016801F00101009117
:103FC000009900210091016841F001010160016840
:103FD00001F001010091009900210091016941F473
:103FE0000031016101A9006900F4003000900098DF
:103FF00004200190022002900020039002200490EF
:10400000072005902046FFF70BFB0820019001A92F
:10401000072005902046FFF703FB104C1048206056
:104020004FF4E13060600020A060E0602061A0619A
:104030000C206061204600F04DFD00B1FEE704F168
:104040004000A0624FF48070A0850020E06306B0BD
:1040500010BD00000000024030380240F807002088
:1040600000440040F0B5044681B02078AF4DC00751
:104070004CD5A86800F00C00042807D0A86800F010
:104080000C0008280AD16868400207D52868800318
:104090003CD56068D0BB012001B0F0BD6068B0F5D0
:1040A000803F03D1286840F4803010E0B0F5A02FA5
:1040B000286806D140F480202860286840F48030C9
:1040C00005E020F480302860286820F480202860F3
:1040D000606868B1FFF7E4FC06462868800315D4E1
:1040E000FFF7DEFC801B6528F7D3032001B0F0BD8D
:1040F000FFF7D6FC06462868800307D5FFF7D0FCFB
:10410000801B6528F7D3032001B0F0BD207880071D
:1041100018D5A86810F00C0F07D0A86800F00C00A4
:10412000082826D16868400223D42868800702D571
:10413000E0680128AFD12868216920F0F80040EA42
:10414000C10028602078000745D56069784F90B39A
:104150000120C7F8800EFFF7A3FC0646686F8007B2
:1041600039D4FFF79DFC801B0328F7D3032001B04F
:10417000F0BDE0686E4F78B101203860FFF790FC29
:10418000064628688007D6D4FFF78AFC801B0328E0
:10419000F7D3032001B0F0BD3860FFF781FC06467D
:1041A00028688007CED5FFF77BFC801B0328F7D358
:1041B000032001B0F0BDC7F8800EFFF771FC064682
:1041C000686F800707D5FFF76BFC801B0328F7D3C8
:1041D000032001B0F0BD2078400757D500200090A3
:1041E000544F286C40F080502864286C00F08050B8
:1041F00000900098386840F480703860FFF750FCF9
:1042000006463868C00507D4FFF74AFC801B032820
:10421000F7D3032001B0F0BDA068012803D1286FB7
:1042200040F001000FE00528286F06D140F004009F
:104230002867286F40F0010005E04008400028672B
:10424000286F20F004002867A06878B1FFF728FCE9
:10425000064641F28937286F800717D4FFF720FC04
:10426000801BB842F7D3032001B0F0BDFFF718FC64
:10427000064641F28937286F800707D5FFF710FC03
:10428000801BB842F7D3032001B0F0BDA06900281D
:1042900048D0A96801F00C0108293FF4FCAE0228BF
:1042A000234F2FD100203866FFF7FAFB0646286817
:1042B000800107D5FFF7F4FB801B0328F7D3032009
:1042C00001B0F0BDE069216A0843616A40EA8110EB
:1042D000A16A891EC903090C40EA0140E16A40EA6B
:1042E0000160686001203866FFF7DAFB064628683F
:1042F000800117D4FFF7D4FB801B0328F7D30320DA
:1043000001B0F0BD00203866FFF7CAFB06462868FA
:10431000800107D5FFF7C4FB801B0328F7D30320D8
:1043200001B0F0BD002001B0F0BD00BF0038024078
:10433000000047420070004070B5040027D0607F45
:1043400018B92077204600F0ABFD02206077CA2024
:10435000216848625320216848622068C168490684
:1043600017D44FF0FF31C16040F2E936FFF798FBF8
:1043700005462068C06840060BD4FFF791FB401B40
:10438000B042F6D32168FF20486204206077012004
:1043900070BD2068DFF84C2481681140816020687E
:1043A0008168626823691A4363691A431143816013
:1043B0002168E068086120680169A26841EA024159
:1043C00001612068C16821F08001C1602068016C32
:1043D00021F4802101642068016CA2691143016409
:1043E000FF202168486201206077002070BD2DE920
:1043F000F04104460D46207F012808BF022000F04E
:10440000C7800120207702206077002A206880681A
:1044100057D140065CBF0020E870287800210A28A8
:1044200013D30A38491CC0B20A2821BF491C0A38D4
:10443000C0B20A2809D30A38491CC0B20A2821BFD1
:10444000491C0A38C0B20A28EBD240EA0110697848
:104450000A2913D30A39521CC9B20A2921BF521C96
:104460000A39C9B20A2909D30A39521CC9B20A2920
:1044700021BF521C0A39C9B20A29EBD241EA021102
:10448000AA7800230A2A13D30A3A5B1CD2B20A2A5A
:1044900021BF5B1C0A3AD2B20A2A09D30A3A5B1C32
:1044A000D2B20A2A21BF5B1C0A3AD2B20A2AEBD244
:1044B0000906C0B2090C41EA004042EA0311C9B240
:1044C00009E040065CBF0020E8706978287809029E
:1044D00041EA0040A9780843E97840EA01462168AA
:1044E000CA2048625320216848622068C168490692
:1044F00011D44FF0FF31C16040F2E938FFF7D0FA34
:1045000007462068C068400605D4FFF7C9FAC01BFB
:104510004045F6D32BE02168DFF8CC02304008603C
:104520002068816821F48021816020688168EA68C0
:104530002B691A43114381602068C16821F0800112
:10454000C1602068816889061BD4C16821F0A00180
:10455000C16040F2E936FFF7A3FA05462068C0685B
:1045600080060ED4FFF79CFA401BB042F6D32168B8
:10457000FF20486204206077002020770120BDE8FA
:10458000F0812168FF2048620120607700202077B9
:10459000BDE8F0810068836A4B600369C3F30E03D2
:1045A0008B600068DFF840321840030C03F03F0CCA
:1045B00081F800C088704FEA102C03F0400081F8A9
:1045C00001C0C870D2B90A78100900EB800302F06C
:1045D0000F0000EB430008704A78100900EB8003DD
:1045E00002F00F0000EB430048708A78100900EBDE
:1045F000800302F00F0000EB43008870002070473A
:10460000F0B5044681B0207F012808BF022000F0E9
:10461000B8800120207702206077002A487879D17D
:10462000C20603D500F0EF000A3048700022C878B7
:104630000A2813D30A38521CC0B20A2821BF521CC0
:104640000A38C0B20A2809D30A38521CC0B20A2854
:1046500021BF521C0A38C0B20A28EBD240EA02102D
:104660004A7800230A2A13D30A3A5B1CD2B20A2AD8
:1046700021BF5B1C0A3AD2B20A2A09D30A3A5B1C50
:10468000D2B20A2A21BF5B1C0A3AD2B20A2AEBD262
:1046900042EA03128B7800250A2B13D30A3B6D1CC8
:1046A000DBB20A2B21BF6D1C0A3BDBB20A2B09D3FC
:1046B0000A3B6D1CDBB20A2B21BF6D1C0A3BDBB22F
:1046C0000A2BEBD21206C0B2120C42EA004043EAB7
:1046D0000512D2B20978104340EA41352168CA2058
:1046E00048625320216848622068C168490617D48F
:1046F0004FF0FF31C16040F2E936FFF7D1F90746CC
:104700002068C06840060BD4FFF7CAF9C01BB0424E
:10471000F6D325E0CA78000240EA02408A78D9E759
:104720002168DFF8C800284048602068C16821F08F
:104730008001C1602068816889061BD4C16821F0AE
:10474000A001C16040F2E936FFF7AAF905462068EA
:10475000C06880060ED4FFF7A3F9401BB042F6D321
:104760002168FF204862042060770020207701B094
:104770000120F0BD2168FF20486201206077002001
:10478000207701B0F0BD0068DFF860304068184065
:10479000030CCB708870030A03F01F03400B4B70AF
:1047A00000F007000870D2B9CA78100900EB800346
:1047B00002F00F0000EB4300C8704A78100900EBCC
:1047C000800302F00F0000EB430048708A78100964
:1047D00000EB800302F00F0000EB43008870002024
:1047E00070470000BFFF8FFF7F7F7F003FFFFF000C
:1047F00010B50C460021216068B10128204611D077
:1048000000F016F8012804D1204600F055F80128E0
:104810000CD0002010BD204600F00AF80128F8D185
:10482000012010BD00F048F80128F2D1012010BD90
:1048300030B5454D04466879012881B03AD0FEF77D
:1048400077F8012836D06A20287000206870D620BA
:10485000A8700020A880A8710120E87105F1280047
:10486000A8603A48E8603A4828613A48A86305F1E8
:104870003800A8620020E8622560E8680168080046
:1048800008D100200021002207C503C5206001B027
:10489000012030BD28468847012808D1206814210E
:1048A000FEF742F80020206001B0012030BDFEF785
:1048B0009CF8002001B030BD30B5234D0446687E21
:1048C000012881B03DD0FEF733F8012839D03320DC
:1048D0002875002068753220A875012028760020F0
:1048E0006876A8760120E87605F13000E8611A487C
:1048F0002862002068621948286405F14000286396
:104900000020686305F114002060286A016808002F
:1049100005F1140008D10021002200230EC006C0BA
:104920002160012001B030BD8847012808D12068EE
:104930001421FDF7F9FF0020206001B0012030BDF7
:10494000002001B030BD0000B80A00202401002082
:1049500050000020160B002000000020140B002047
:1049600000B581B018B1C16889680A0002D1012080
:1049700001B000BD8847012818BF002001B000BD6C
:10498000002818BF002901D1012070470079087064
:104990000020704700281CBF0169002906D002785A
:1049A0006A2A03D109690A0018BF08470120704725
:1049B00000281CBF0269002A07D031B103786A2B96
:1049C00003D1D269130018BF10470120704730B5DA
:1049D00081B004001CBF2569002D17D020786A28FB
:1049E00014D1296A08001CBF686A00280ED020462E
:1049F000884701280BD00A2000F01CF8696A20467D
:104A00008847012803D0002001B030BD012001B04B
:104A100030BD00281CBF0269002A08D039B10378D4
:104A20006A2B04D1D2F89420130018BF104701203C
:104A30007047000031B5FFF733F8009D15F1010F05
:104A4000044618BF6D1C00BFFFF72AF8001BA842E0
:104A5000FAD301B030BD000008B400B584B005AB96
:104A600003930023029311B90093019302E0009095
:104A7000481E019003AB6946074878441A3000F09D
:104A800051FA009911B1009A00211170002858BF05
:104A9000029804B05DF808FB03CFFFFF00F10103AB
:104AA000810704D010F8011B89B18107FAD102688F
:104AB000B2F10131914311F0803F04BF50F8042F4F
:104AC000F6E710F8011B11B110F8011BFBE7C01A43
:104AD0007047000010B5040001D1012010BD94F80A
:104AE000390020B984F83800204600F0D7F9242096
:104AF00084F839002068C16821F40051C160204663
:104B000000F09BF82068016921F490410161206860
:104B1000416921F02A0141612068C16841F40051D6
:104B2000C1600020E063202084F8390084F83A0056
:104B3000002010BD2DE9F04104460D4694F83900DF
:104B4000202890461E4675D1002D14BF5FEA08004C
:104B5000012070D094F8380001286BD0012084F82F
:104B600038000020E063212084F83900FEF798FF28
:104B7000A4F824800746A4F8268002E015F8011B5B
:104B80004160E08C60B3E08C401EE084A068B0F52A
:104B9000805F17D120680168090609D416F1010F5A
:104BA000F8D056B3FEF77CFFC01B8642F2D224E059
:104BB0002988C1F3080141602069002814BF6D1CD9
:104BC000AD1CDEE7206801680906D7D416F1010F95
:104BD000F8D096B1FEF764FFC01B8642F2D20CE01B
:104BE0002068006840061DD416F1010FF8D026B1E8
:104BF000FEF756FFC01B8642F2D22068C16821F43E
:104C0000D071C16020684169490849004161202094
:104C100084F8390084F83A00002084F83800032032
:104C2000BDE8F081202084F83900002084F83800A5
:104C3000BDE8F0810220BDE8F0812DE9F041044695
:104C400020680169E26821F44051114301618F4AF3
:104C5000C1681140A268114322691143626911437E
:104C6000E2691143C1604169A26921F440711143B5
:104C70004161E2698649B2F5004F40F0A380884265
:104C80001CBF844988424ED1FEF7CCFE0546FEF794
:104C9000C9FE0646FEF7C6FE0746FEF7C3FE80467F
:104CA000FEF7C0FE19225543DFF8ECE16168574377
:104CB0004B00B5FBF3F5A5FB0EEC4FEA9C15B7FBDB
:104CC000F3F7DFF8D4E15643A7FB0EEC6421B6FB03
:104CD000F3F64FEA9C1701FB1766F6003236DFF851
:104CE000B8C1A6FB0CC7BE09760006F4F87606EB41
:104CF000051502FB08F65043B6FBF3F6B0FBF3F0E4
:104D0000654BA0FB0332900901FB1060C0003230FC
:104D1000614AA0FB02218809216800F007004019C0
:104D20008860BDE8F081FEF773FE0546FEF770FE71
:104D30000646FEF76DFE0746FEF76AFE8046FEF762
:104D400067FE19225543DFF850E1616857434B0075
:104D5000B5FBF3F5A5FB0EEC4FEA9C15B7FBF3F79B
:104D6000DFF834E15643A7FB0EEC6421B6FBF3F603
:104D70004FEA9C1701FB1766F6003236DFF818C1C0
:104D8000A6FB0CC7BE09760006F4F87606EB0515FF
:104D900002FB08F65043B6FBF3F6B0FBF3F03E4BD4
:104DA000A0FB0332900901FB1060C00032303A4A88
:104DB000A0FB02218809216800F0070040198860E3
:104DC000BDE8F08188421CBF324988420ED1FEF70F
:104DD00029FE0546FEF726FE0646FEF723FE074699
:104DE000FEF720FE8046FEF71DFE0DE0FEF710FEEA
:104DF0000546FEF70DFE0646FEF70AFE0746FEF7DD
:104E000007FE8046FEF704FE19225543DFF888E0CE
:104E1000616857438B00B5FBF3F5A5FB0EEC4FEA39
:104E20009C15B7FBF3F7DFF870E05643A7FB0EECD9
:104E30006421B6FBF3F64FEA9C1701FB17663601B7
:104E40003236DFF854C0A6FB0CC7BE0906F0F006E8
:104E500006EB051502FB08F65043B6FBF3F6B0FB74
:104E6000F3F00D4BA0FB0332900901FB1060000131
:104E70003230094AA0FB02218809216800F00F00A6
:104E800040198860BDE8F08100000000F369FFFF71
:104E900000100140001401403E0AD7A370470000F3
:104EA0001E4800B5006891B090B90C200590002014
:104EB0000B900120079000200A9005A8FFF7D2F878
:104EC00008B1FEF719FF022000904FF4807011E046
:104ED0000C20059000200B9001200A9000200790E4
:104EE00005A8FFF7BFF808B1FEF706FF0220009003
:104EF0004FF400700390684600F0F6FB08B1FEF72F
:104F0000FBFE07490120086000220F210220FEF766
:104F100080FC0220FEF7A6FC11B000BD0C0B0020A7
:104F20003C0E47422DE9F04F80460FF2A47095B039
:104F300015461E46D0E90023CDE9132303AF002018
:104F40000391B8610DF1340900E02D190020ADF88E
:104F5000020013AB4FF0FF3229460DF1020000F0C2
:104F600067FC0446012C04DA2878441EA441E4437B
:104F7000E40FBDF8020025280CBFA4F1010BA346E5
:104F8000BBF1010F0EDBAA461AF8011B0398C047BC
:104F90000028039000F0DA80B869401CBBF1010BD7
:104FA000B861F1D1BDF80200252804D10020F860D5
:104FB0003861786105E00028C7D1B86906E340F0A0
:104FC000010015F8011F2029F9D023290DD02B2924
:104FD00004D02D2906D030290AD00CE040F0020080
:104FE00080B2EEE740F00400FAE740F00800F7E78F
:104FF00040F01000F4E72A290ED13168316051F8F1
:10500000042B3160002A3A6204D5514240F004007A
:10501000396280B26D1C13E0002139620BE0396AFD
:105020006FF00043994205D001EB810302EB43018D
:10503000303939626D1C2A78A2F130010A29EED389
:1050400029782E2903D04FF0FF31F9611FE015F8C0
:10505000011F2A2907D1316831606D1C51F8042BDA
:105060003160FA6113E00021F9610BE0F9696FF03A
:105070000043994205D001EB810302EB4301303933
:10508000F9616D1C2A78A2F130010A29EED3B884A7
:105090000FF24460297800F0DBFB08B115F8010B32
:1050A0008DF832009DF83200682804BF28786828FF
:1050B00003D162208DF832006D1C0DA8B86015F880
:1050C000014B252C13D0582C4BD0632C00F0A3801F
:1050D000642C18BF692C7CD06F2C42D0702C36D039
:1050E000732C0AD0752C18BF782C3AD0B6E001206A
:1050F000F86025208DF83400BAE09DF832006C2865
:105100003068306018D050F8044B30607C60D7F8BD
:105110001CA0BAF1000F04D52046FFF7BFFC824661
:1051200007E052460021204600F09EFB08B1A0EBAC
:10513000040AC7F810A09BE050F8042B306002A9C5
:10514000404600F02DF9002840F192803CE23068A2
:10515000306050F8041B306002910DA8786078210F
:1051600055E09DF832006C280DD0712818BF6A28D0
:1051700009D13068C01D20F007023260D2E9000179
:105180000832326004E03168316051F8040B31605C
:1051900002909DF83200682802D102A8008803E03E
:1051A000622802D102A80078029097F82400000734
:1051B00028D5029830B344F02000782822D1F8682E
:1051C000302109F80010401C411CF96009F800402A
:1051D00018E09DF83200314600F0BCF8002802903B
:1051E00002D5F8682D2109E0B88C810702D5F8684E
:1051F0002B2103E0C00705D5F868202109F800102D
:10520000401CF8600DA8F96808447860214602A89F
:1052100000F0DFF92CE09DF832006C2809D0012065
:10522000F8603068306050F8041B30608DF834103E
:105230001EE03068306001AA50F8041B3060ADF801
:1052400004100020ADF8060002A94FF0FF30F8610D
:10525000404600F0A5F800280AD577E70120F8605D
:1052600025208DF834001CB10220F86089F8014037
:10527000386AF968401A7969401A3969441A97F806
:105280002400400711D42020012C8DF800000CDBF5
:10529000A24601236A4602A9404600F001FA00280E
:1052A0007FF454AFBAF1010AF3D1D7F80CB0BBF1D7
:1052B000000F0DF1340A0DD01AF8011B0398C047F6
:1052C000002803903FF442AFB869401CBBF1010BCA
:1052D000B861F1D1D7F814A03020BAF1010F8DF8E0
:1052E00000000BDB01236A4602A9404600F0D8F912
:1052F00000287FF42BAFBAF1010AF3D1D7F810B030
:10530000D7F804A0BBF1000F0DD01AF8011B0398C9
:10531000C047002803903FF419AFB869401CBBF1A7
:10532000010BB861F1D197F8240040077FF50EAE6C
:105330002020012C8DF80000FFF608AE01236A46FC
:1053400002A9404600F0ACF900287FF4FFAE641ECD
:10535000F4D1FBE5622815D068280CD06C2818BF62
:10536000742816D07A2814D10A680A6052F8040BFF
:105370000A60002170470A680A6052F8040B0A604C
:1053800000B20BE00A680A6052F8040B0A6040B2EF
:1053900004E00A680A6052F8040B0A60C1177047FB
:1053A0002DE9F44F0D4694B02F6A002F804648BF78
:1053B0006FF0004700F084FA696A401801900FF21C
:1053C0002030D0E90023CDE9022395F828004007DA
:1053D00002D40198412805D240200DF11009019016
:1053E000002606E000F072FA5FEA0009F8D1EBE06F
:1053F0003F1B012FC0F294801498018802AA0DF17E
:10540000010000F0BBFA0028044600F19C801498CB
:10541000008810B9641E00F19680A742C0F2808017
:10542000286901992218914268D26E624042A969A6
:10543000401A6969461A95F82800400710D42020C0
:10544000012E8DF800000BDBB24601236A46294687
:10545000404600F025F9002875D1BAF1010AF4D1CF
:10546000D5F810B0BBF1000FCA460CD01AF8011BDA
:105470006868C0470028686065D0E869401CBBF1D7
:10548000010BE861F2D130208DF80000D5F818A0AA
:10549000BAF1010F0ADB01236A462946404600F0B3
:1054A000FFF800284FD1BAF1010AF4D1D5F814B0B1
:1054B000D5F808A0BBF1000F0CD01AF8011B6868E2
:1054C000C047002868603ED0E869401CBBF1010B72
:1054D000E861F2D195F8280040070DD52020012E73
:1054E0008DF8000008DB01236A462946404600F09B
:1054F000D7F840BB761EF6D100262E6122462869D9
:105500000DF10101484400F047FA2869201828618C
:105510001498801C1490801E008800287FF468AFC7
:10552000686A2969401AA969401A6969471A95F891
:10553000280040070FD4012F0DDB3C46686820216E
:10554000C047686010B94FF0FF3635E0E869401C8D
:10555000641EE861F2D12B694A462946404600F0B4
:105560009FF80028EFD1AC69012C0ADB6868302174
:10557000C04700286860E6D0E869401C641EE86106
:10558000F4D16B69AA682946404600F089F80028E2
:10559000D9D195F8280040070CD5012F0ADB68689F
:1055A0002021C04700286860CDD0E869401C7F1EDC
:1055B000E861F4D12E616E6204A881451CBF4846A3
:1055C00000F026FA304601E04FF0FF3015B0BDE89C
:1055D000F08FF0B4C2686F2908BF082405D041F0ED
:1055E0002003782B14BF0A2410241823066864298A
:1055F00018BF6929374602D1002E48BF7F425FB9E4
:10560000056A4DB9082C27D190F82810090723D531
:1056100030211723D1751FE0B7FBF4F604FB167792
:105620003037FFB25D1E3A2FA4BFA1F1510C674481
:1056300057552B46370003D08568D618B542EBD3B3
:10564000082C09D190F82810090705D5D15C30291C
:1056500002D05B1E3021D1541A448260C3F118017C
:10566000026A4161914208DA511A81614FF6EF7284
:10567000018D11400185F0BC7047002A0ED590F8CD
:10568000282002F01402102A08D1426A0369D21AB3
:105690008369D21A531A012BA8BF8361F0BC7047EB
:1056A000F8B504460D4616461F46002077B116F899
:1056B000011B6868A047686030B1E869401CE86178
:1056C00000207F1EF3D1F2BD4FF0FF30F2BD00008D
:1056D0000000000000000000686C747A4C000000BC
:1056E0000000000000000000F0B5044681B0207802
:1056F00010F0050F28D0494E494D00203060FEF7CC
:10570000CFF907462868000107D5FEF7C9F9C01B85
:105710000328F7D3032001B0F0BDA1686068090732
:1057200041EA8010C5F8840001203060FEF7B8F926
:1057300007462868000107D4FEF7B2F9C01B03280A
:10574000F7D3032001B0F0BD207880075CD500209E
:105750000090334D334E286C40F080502864286C04
:1057600000F0805000900098306840F48070306005
:10577000FEF796F907463068C00507D4FEF790F9A2
:10578000C01B0328F7D3032001B0F0BD286F10F42D
:1057900040701EBFE16801F4407188421DD0286F3F
:1057A0001E4E0121C6F8D81D20F440700021C6F815
:1057B000D81D2867286FC0070FD5FEF771F9074677
:1057C00041F28936286F800707D4FEF769F9C01BBC
:1057D000B042F7D3032001B0F0BDE06800F440719F
:1057E000B1F5407F06D1A9680F4A21F4F8111040A5
:1057F000084302E0A86820F4F810A860286FE16868
:10580000C1F30B01084328672078000702D5207CEC
:1058100006490860002001B0F0BD00006800474262
:105820000038024000700040FFFCFF0FE0114742CB
:10583000F8B504460D4616461F4600F029F93B46CA
:1058400032462946204601B0BDE8F04000F037B9A5
:105850000278C9B28A421AB11CBF10F8012FF9E7C9
:1058600018BF002070470000C9B2830706D0521E3F
:1058700022D310F8013B9942F7D11FE0083A13D325
:1058800002F1040241EA012141EA014150F8043BDE
:10589000121F21BF4B40A3F1013C2CEA030C1CF06A
:1058A000803FF3D0C9B2001F083210F8013B521EEE
:1058B00028BF91EA030FF8D818BF0120401E704797
:1058C00080B500F0E5F8012002BD000070B5054686
:1058D00005F10F00C408AFF30080E400A54232D206
:1058E000082C04D2082402E0083000F091F8224885
:1058F000026811000CD1011D0A6802B31368A342AB
:1059000038BF111DF8D310E01D68A5420DD2191D36
:105910000B68002BF8D11268011D00E0191D0B68FF
:1059200093420CD01D68A542F8D361B10D682A6876
:10593000A2F10803A3420AD26A680A600FE000F0ED
:10594000E1F80028D0D1AFF30080002070BD2B1902
:105950000B60121B6E685E600B681A602C60096831
:1059600000291DBF4A68002A091D00210160AFF30C
:10597000008005F1080070BD000B002070B50446E2
:105980000D46164600F084F8324629462046BDE80A
:10599000704000F087B8000062B38B0708D0521E39
:1059A00011F8013B00F8013B00F024808B07F6D191
:1059B000830740F0208000BF103A07D330B4B1E82D
:1059C0003810103AA0E83810F9D230BC530724BF81
:1059D000B1E80810A0E8081044BF51F8043B40F8B3
:1059E000043BD20724BF31F8022B20F8022B44BF1E
:1059F0000B7803707047083A07D3B1E80810083AEB
:105A000040F8043B40F804CBF7D25307E4E700002A
:105A100000B9704738B5A0F108042068082833D3CE
:105A200010F0070F30D1AFF300801848416809B17A
:105A30008C4203D26160446017E019464B680BB199
:105A4000A342FAD30B68CD18AC421BD3A54204D1B4
:105A50002268D2180A600C4607E04A681AB1236827
:105A600023449A420ED362604C60616851B122684F
:105A7000A3188B4206D100230360086880182060B9
:105A800048686060AFF3008031BD0000000B00206B
:105A900080B5DFF80C0000F04BF8806902BD000013
:105AA0008801002030B430B90FF24800D0E9004539
:105AB000C2E900451BE00170012030BC704730B4E2
:105AC00031B90FF23800D0E90045C3E900450EE0D6
:105AD0001AB930BC6FF00100704708B10A78028033
