:020000040800F2
:1000000000070020356F0008796E00087B6E00083D
:1000100000000000000000000000000000000000E0
:100020000000000000000000000000000F28000891
:100030000000000000000000F32800087D6E0008AA
:100040002F2900081336000887380008C33E00082F
:10005000AF4A0008B35E0008475F0008896E0008D9
:100060002F6C00089F6E0008136F00081F6F0008B8
:10007000616F0008636F000800000000656F0008F2
:1000800000000000676F0008000000000000000092
:10009000696F0008000000006B6F00086D6F0008BA
:1000A0006F6F0008716F0008736F0008756F0008AC
:1000B000776F0008796F00087B6F00087D6F00087C
:1000C00070B582B00400A06805682E6800206946FB
:1000D0000870200001F0ACFB002824D068460078AE
:1000E000217888421FD10421200001F03FFD002823
:1000F00019D04021200001F0A7FB002813D00021D7
:10010000200001F0B7FC00280DD00B4868600021EA
:10011000200001F00DFC002805D00021200001F096
:10012000B2FB002801D1012003E001203070607192
:10013000002002B070BD00000000D042F0B581B0D8
:100140000400A0680668376800256846057069469F
:10015000200001F06DFB002800D1D6E06846007851
:100160002178884200D0D0E00021200002F0B0F9D0
:10017000002800D1C9E00021200002F063FA002825
:1001800000D1C2E00021200001F089FF002800D149
:10019000BBE00021200002F005F9002800D1B4E006
:1001A0000021200002F0DFF8002800D1ADE000219E
:1001B000200002F04FF9002800D1A6E00021200025
:1001C00002F002FA002800D19FE00021200001F097
:1001D00066FF002800D198E00021200001F09FFF79
:1001E000002800D191E00021200001F0A0FC0028AF
:1001F00000D18AE00021200001F034FD002800D168
:1002000083E00021200001F04CFD00287DD000217A
:10021000200002F0A4FA002877D00021200002F08C
:1002200095F9002871D00021200002F049FA002839
:100230006BD00021200001F032FF002865D00021A2
:10024000200001F04BFF00285FD00021200001F0CA
:1002500085FF002859D00021200001F0A0FF0028D0
:1002600053D00021200001F0BDFE00284DD0002118
:10027000200001F0D6FE002847D00021200001F028
:10028000EFFE002841D00021200002F002F90028F2
:100290003BD00021200002F0B6F9002835D0002123
:1002A000200001F0FCFE00282FD00021200001F0EA
:1002B00015FF002829D00021200001F04FFF002861
:1002C00023D00021200001F06AFF00281DD000216A
:1002D000200001F086FF002817D00021200001F047
:1002E000C1FF002811D00021200001F07BFE002872
:1002F0000BD00021200001F094FE002805D0002141
:10030000200001F0ADFE002801D101204BE00021CA
:10031000200002F080F80028F7D00021200002F031
:1003200034F90028F1D00021200001F07CFC0028E5
:10033000EBD00021200001F0B4FC0028E5D0002122
:10034000200002F0E4F80028DFD00021200002F0B5
:1003500098F90028D9D00021200001F0A0FE002843
:10036000D3D00021200001F0DCFF0028CDD00021F7
:10037000200001F056FF0028C7D0A07900280ED039
:10038000A0680068011D200000F06EF90128BCD0B3
:100390000021200001F0CCFA0028B6D0A571002081
:1003A00070603D70657101B0F0BD10B50400A079BA
:1003B000012842D0A06800684068804902F014FA21
:1003C00001D2102130E07E4902F00EFA01D2202144
:1003D0002AE07C4902F008FA01D2302124E09C494D
:1003E00002F002FA01D240211EE09A4902F0FCF923
:1003F00001D2502118E0984902F0F6F901D26021AB
:1004000012E0964902F0F0F901D270210CE0944913
:1004100002F0EAF901D2802106E0924902F0E4F903
:1004200001D2902100E0A021200001F081FA0028F3
:1004300001D1012010BD0120A071002010BD30B5F8
:1004400081B00400A079002841D0A0680068051D93
:100450006946200001F08BFA002834D06846007805
:10046000002826D0102823D020281FD030281BD0C9
:10047000402817D0502813D060280FD070280BD0F8
:10048000802807D0902803D0A0281AD1954810E0E2
:1004900095480EE095480CE095480AE0954808E03C
:1004A000954806E0954804E0954802E0954800E04C
:1004B000954828600021200001F03AFA002804D174
:1004C00001E092482860012001E00020A07101B005
:1004D00030BD00B581B001F0ABF9401E8041C00FC6
:1004E00001B000BD30B581B004000025684605703C
:1004F0006946200001F09CF9002804D06846007885
:100500002178884200D00125280001B030BDF0B527
:1005100083B005000C0001A80021002206C001A93B
:10052000280001F0E0F9002844D001A84178090230
:1005300002788E18C1780902827889186A4651803B
:100540004179090200790F186946280001F0BAF9CB
:1005500000282FD06846007800280CD0042804D04A
:10056000082806D00C2802D024E0824D04E0824DF9
:1005700002E0824D00E0824D30B202F049F92900DC
:1005800002F05FF902F0B6F920600098001402F062
:100590003FF9290002F055F902F0ACF9606038B279
:1005A00002F036F9290002F04CF902F0A3F9A0603C
:1005B000002000E0012003B0F0BD00000100504128
:1005C0000100D0410100504210B582B00C006946D4
:1005D000002200230CC1694601F085F9002801D1F1
:1005E000012010E0684641780902027889182180CC
:1005F000C1780902827889186180417909020079FD
:100600000818A080002002B010BD10B582B00C0008
:10061000694601F057F9002801D101200DE0684634
:100620000078002806D004280DD0082807D00C2810
:1006300007D00AE052482060002002B010BD4F48A9
:10064000F9E74D48F7E74B48F5E730482060E4E725
:100650000100D042010050430100D043014050440A
:100660000180CF440120504510B582B00C0069468E
:1006700001F07DF9002801D101201AE068460078D8
:10068000002814D0102816D0202816D0302816D0D4
:10069000402816D0502816D0602816D0702816D0C2
:1006A000802816D0902816D0A02816D017E02060F9
:1006B000002002B010BD1448F9E71248F7E71048CF
:1006C000F5E70E48F3E70C48F1E70A48EFE708487A
:1006D000EDE70648EBE70448E9E70248E7E70B489F
:1006E0002060C9E70020D045002050450080CF445D
:1006F000004050440000D043000050430000D0426E
:10070000000050420000D04100005041000080BF76
:1007100000B581B08279012A15D100290CD00229B7
:1007200008D009D3042901D002D30AE0402104E013
:10073000302102E0202100E0102101F0F9F800282A
:1007400014D1012013E08068006800290CD0022930
:1007500008D009D3042901D002D3F2E76E4904E09E
:100760006E4902E06E4900E085494160002001B019
:1007700000BD000023DBF93E23DB793E23DBF93D9E
:1007800023DB793D00B581B002000800654993790B
:10079000012B3CD102F028F801D2102130E0794938
:1007A00002F022F801D220212AE0774902F01CF859
:1007B00001D2302124E0754902F016F801D240211F
:1007C0001EE0734902F010F801D2502118E071497F
:1007D00002F00AF801D2602112E06F4902F004F839
:1007E00001D270210CE06D4901F0FEFF01D28021A1
:1007F00006E06B4901F0F8FF01D2902100E0A02152
:10080000100001F095F800282AD1012029E0926813
:10081000126801F0E9FF1FD35A4901F0E5FF1BD32D
:10082000594901F0E1FF17D3584901F0DDFF13D317
:10083000574901F0D9FF0FD3564901F0D5FF0BD32B
:10084000554901F0D1FF07D3544901F0CDFF03D33F
:10085000534901F0C9FF01D2481E00E051485060E1
:10086000002001B000BD10B582B00C00694601F057
:1008700029F8002801D101200EE068460078002800
:1008800006D004280ED0082808D00C2808D00BE089
:100890008020C0052060002002B010BD8120F8E754
:1008A0008220F6E78320F4E73F482060E3E700B5C5
:1008B00081B0002904D0022909D0042909D00AE016
:1008C00000F0E1FF401E8041C00F01B000BD0821D3
:1008D000F6E70C21F4E70120F7E700B581B002004C
:1008E0000800324901F080FF01D200210CE03049BC
:1008F00001F07AFF01D2082106E02E4901F074FFD1
:1009000001D20C2100E00421100000F0BCFF401EC9
:100910008041C00F01B000BD0000D0420000504235
:100920000000D0410100504100B581B0012300F02A
:100930006DFF401E8041C00F01B000BD00B581B009
:100940006B461A7001236A4600F069FF401E804121
:10095000C00F01B000BD10B582B00C00694601F0B7
:100960007AFA002809D068460078002801D00128CA
:1009700003D12070002002B010BD0120FBE7000071
:10098000000050410100D041010050420100D0421E
:10099000010050430100D043014050440180CF4446
:1009A000012050450020D045000080BF01000040DC
:1009B000010080400100004100B581B00200080044
:1009C000804901F011FF01D2102130E07E4901F091
:1009D0000BFF01D220212AE07C4901F005FF01D262
:1009E000302124E07A4901F0FFFE01D240211EE0CF
:1009F000784901F0F9FE01D2502118E0764901F062
:100A0000F3FE01D2602112E0744901F0EDFE01D243
:100A100070210CE0724901F0E7FE01D2802106E06E
:100A2000704901F0E1FE01D2902100E0A021100008
:100A300000F07EFF401E8041C00F01B000BD30B508
:100A400081B004000D00B149A079012805D1200032
:100A5000FFF7B2FF012803D140E0A06800684160C1
:100A60000021200000F00FFF002837D006212000D1
:100A700001F098FC002831D00021200001F051FC49
:100A800000282BD00021200001F02CFC002825D0CC
:100A90000021200001F005FC00281FD003212000C8
:100AA00001F061FC002819D08021200001F0F7FA44
:100AB000002813D0002D02D0012D09D00EE0102106
:100AC000200001F005FD002808D0002001B030BD55
:100AD0001021200001F0B6FD0028F6D10120F5E735
:100AE00010B50400002101F0F3FC002811D0002112
:100AF000200001F0A7FD00280BD00021200001F00C
:100B0000CEFA002805D00021200001F04BFC00287F
:100B100001D1012010BD0021200001F024FC401E65
:100B20008041C00F10BD10B582B00C00694601F0C5
:100B3000E8F800280AD068460078002802D020286B
:100B400004D101202070002002B010BD0120FBE77D
:100B500000B581B001F007FC401E8041C00F01B01C
:100B600000BD10B50400A349A079012805D12000DB
:100B7000FFF722FF012803D110BDA0680068416083
:100B80000021200000F07FFE002811D01721200056
:100B900001F0E5FD00280BD00421200001F081F8D0
:100BA000002805D01021200001F05CF8002801D1B8
:100BB000012010BD8021200000F0B9FF401E8041BF
:100BC000C00F10BD010050410100D0410100504252
:100BD0000100D042010050430100D0430140504485
:100BE0000180CF440120504510B50400002100F0E1
:100BF0009EFF00280BD00021200001F033F80028D0
:100C000005D00021200001F04CF8002801D101207E
:100C100010BD0021200001F0A2FD401E8041C00F48
:100C200010BD10B582B00C00694601F09AF9002899
:100C30000AD068460078002802D0102804D101208C
:100C40002070002002B010BD0120FBE700B581B08C
:100C500001F06DFD401E8041C00F01B000BD00B528
:100C600081B0022100F0C0FF401E8041C00F01B0E2
:100C700000BD00B581B0002100F0B6FF401E8041EC
:100C8000C00F01B000BD00B581B001F068FD401E8D
:100C90008041C00F01B000BD30B581B004000D002F
:100CA0005449A079012805D12000FFF785FE0128CD
:100CB00003D128E0A068006841600021200000F016
:100CC000E2FD00281FD00421200000F0EAFF0028E8
:100CD00019D00821200000F0A6FF002813D0002D15
:100CE00002D0012D09D00EE00221200001F093FB7B
:100CF000002808D0002001B030BD0221200001F002
:100D000044FC0028F6D10120F5E700000000D043A4
:100D100010B50400002101F07EFB00280BD000215B
:100D2000200001F032FC002805D00021200000F056
:100D30007AFF002801D1012010BD0021200000F021
:100D4000B0FF401E8041C00F10BD10B582B00C0036
:100D5000694601F017F900280AD068460078002893
:100D600002D0202804D101202070002002B010BD44
:100D70000120FBE730B581B004000D006A49A0797D
:100D8000012805D12000FFF717FE012803D12EE02E
:100D9000A068006841600021200000F074FD002878
:100DA00025D00021200001F0BCFA00281FD002212C
:100DB000200001F036FA002819D08021200001F02F
:100DC0006EF9002813D0002D02D0012D09D00EE0BD
:100DD0002021200001F09BFB002808D0002001B05A
:100DE00030BD2021200001F04CFC0028F6D101206C
:100DF000F5E700000000D04110B50400002101F02B
:100E000086FB002811D00021200001F03AFC0028C8
:100E10000BD00021200001F042F9002805D000216C
:100E2000200001F07EFA002801D1012010BD002130
:100E3000200001F0F6F9401E8041C00F10BD10B532
:100E400082B00C00694600F04BFF00280AD06846CB
:100E50000078002802D0082804D10120207000204A
:100E600002B010BD0120FBE700B581B001F0D9F957
:100E7000401E8041C00F01B000BD30B581B00400FC
:100E80000D002949A079012805D12000FFF794FD24
:100E9000012803D146E0A0680068416000212000DD
:100EA00000F0F1FC00283DD00821200001F0D8F826
:100EB000002837D00421200001F0B3F8002831D0F9
:100EC0000221200001F08EF800282BD008212000FC
:100ED00001F004F9002825D00221200001F03EF99C
:100EE00000281FD00121200001F059F9002819D055
:100EF0008021200001F0D3F8002813D0002D02D06B
:100F0000012D09D00EE04021200001F01FFB002838
:100F100008D0002001B030BD4021200001F0D0FBFE
:100F20000028F6D10120F5E70000D04310B50400F9
:100F3000002101F00BFB002829D00021200001F046
:100F4000BFFB002823D00021200001F0A8F80028D2
:100F50001DD00021200001F0C1F8002817D0002189
:100F6000200001F0FBF8002811D00021200001F042
:100F700016F900280BD00021200001F033F80028DA
:100F800005D00021200001F04CF8002801D10120FB
:100F900010BD0021200001F063F8401E8041C00F09
:100FA00010BD10B582B00C00694600F0CCFE0028E0
:100FB0000AD068460078002802D0202804D10120F9
:100FC0002070002002B010BD0120FBE730B581B0D9
:100FD00004000D008B49A079012805D12000FFF7FE
:100FE000EBFC012803D152E0A068006841600021B9
:100FF000200000F048FC002849D00821200001F022
:101000002FF8002843D00421200001F00AF800281E
:101010003DD00221200000F0E5FF002837D0082154
:10102000200001F05BF8002831D00321200001F0FE
:1010300095F800282BD00321200001F0B0F80028FB
:1010400025D00821200001F0CCF800281FD08021F5
:10105000200001F007F9002819D08021200001F0BC
:101060001EF8002813D0002D02D0012D09D00EE06B
:101070000821200001F00DFA002808D0002001B05E
:1010800030BD0821200001F0BEFA0028F6D1012071
:10109000F5E710B50400002101F0FBF9002835D078
:1010A0000021200001F0AFFA00282FD000212000FD
:1010B00000F0F5FF002829D00021200001F00EF8F3
:1010C000002823D00021200001F048F800281DD07E
:1010D0000021200001F063F8002817D00021200033
:1010E00001F07FF8002811D00021200001F0BAF8AB
:1010F00000280BD00021200000F074FF002805D04C
:101100000021200000F08DFF002801D1012010BD3A
:101110000021200000F0A4FF401E8041C00F10BD40
:1011200010B582B00C00694600F0FCFD00280AD022
:1011300068460078002802D0102804D101202070D1
:10114000002002B010BD0120FBE700B581B000F027
:10115000C5FF401E8041C00F01B000BD00B581B089
:1011600000F0FCFF401E8041C00F01B000BD00B583
:1011700081B001F014F8401E8041C00F01B000BDE5
:1011800000B581B001F02DF8401E8041C00F01B0C4
:1011900000BD30B581B004000D001A49A0790128C6
:1011A00005D12000FFF708FC012803D128E0A06842
:1011B000006841600021200000F065FB00281FD07E
:1011C0004021200000F0ABFF002819D08021200032
:1011D00000F065FF002813D0002D02D0012D09D0AA
:1011E0000EE00421200001F035F9002808D000208D
:1011F00001B030BD0421200001F0E6F90028F6D14D
:101200000120F5E70000D04310B50400002101F0F3
:1012100021F900280BD00021200001F0D5F9002889
:1012200005D00021200000F03AFF002801D1012064
:1012300010BD0021200000F072FF401E8041C00F51
:1012400010BD10B582B00C00694600F0F3FD002817
:101250000AD068460078002802D0402804D1012036
:101260002070002002B010BD0120FBE710B582B055
:101270000C00694600F078FD002809D06846007827
:10128000002801D0012803D12070002002B010BD39
:101290000120FBE710B582B00C00694600F075FD37
:1012A00000280AD068460078002802D0022804D11D
:1012B00001202070002002B010BD0120FBE710B516
:1012C00082B00C00694600F071FD00280AD0684623
:1012D0000078002802D0042804D1012020700020CA
:1012E00002B010BD0120FBE710B582B00C006946CA
:1012F00000F06DFD00280AD068460078002802D072
:10130000082804D101202070002002B010BD012067
:10131000FBE710B582B00C00694600F069FD0028BB
:101320000AD068460078002802D0102804D1012095
:101330002070002002B010BD0120FBE710B582B084
:101340000C00694600F065FD00280AD06846007868
:10135000002802D0202804D101202070002002B0F3
:1013600010BD0120FBE730B583B005000C00002064
:101370006A469080907110600421200001F0FAFA12
:10138000012301AA1B21280000F040FA002800D107
:10139000A7E0012300AAD21C1C21280000F036FA85
:1013A000002800D19DE0012301AA921C1D212800E4
:1013B00000F02CFA002800D193E0012300AA921C2F
:1013C0005321280000F022FA002800D189E00123EF
:1013D00000AA521C5E21280000F018FA002800D153
:1013E0007FE001236A465F21280000F00FFA002801
:1013F00077D0012301AA521C0D21280000F006FA23
:1014000000286ED068464078C00603D4684600784D
:10141000C00607D568460079800603D520680121FB
:101420000143216068464078800603D4684600780E
:10143000800607D568460079000703D52068082193
:101440000143216068464078400603D4684600782E
:10145000400607D56846C078800603D5206802217B
:101460000143216068464078000703D4684600784D
:10147000000707D56846C078C00603D52068042158
:101480000143216068464078400703D468460078ED
:10149000400707D568468079400603D5206840217B
:1014A0000143216068464079000607D56846807888
:1014B000C00603D5206810210143216068464078AA
:1014C000800703D468460078800707D5684680788F
:1014D000800603D52068202101432160002003B04D
:1014E00030BD0120FBE700B581B002000800714962
:1014F00001F07AF901D2082130E06F4901F074F966
:1015000001D210212AE06D4901F06EF901D21821B3
:1015100024E06B4901F068F901D220211EE06949FD
:1015200001F062F901D2282118E0674901F05CF965
:1015300001D2302112E0654901F056F901D238217B
:101540000CE0634901F050F901D2402106E0614905
:1015500001F04AF901D2482100E05021100000F0CA
:10156000A8FA401E8041C00F01B000BD10B582B086
:101570000C00694600F0B2FC00280CD068460078E8
:10158000002802D0202804D005E02070002002B0FE
:1015900010BD0120F9E70120F9E710B582B00C0079
:1015A000694600F08AFC00280CD0684600780028C4
:1015B00002D0102804D005E02070002002B010BD39
:1015C0000120F9E70120F9E710B582B00C00694667
:1015D00000F095FC00280CD068460078002802D066
:1015E000402804D005E02070002002B010BD01208A
:1015F000F9E70120F9E700B581B000F091FC401E49
:101600008041C00F01B000BD00B581B001F077F896
:10161000401E8041C00F01B000BD00B581B000F098
:101620002BFC401E8041C00F01B000BD00B581B051
:10163000072905D800F0DFF9401E8041C00F00E007
:10164000012001B000BD70B582B004000E0000A9F9
:10165000891C01F054F8002828D000A8801C41788B
:101660000D02007805436946200000F02BF90028A0
:101670001CD06846007800280CD0042804D0082824
:1016800006D00C2802D011E0134C04E0134C02E009
:10169000134C00E0134C28B201F0BAF8210001F01D
:1016A000D0F801F027F93060002000E0012002B0FE
:1016B00070BD0000010020410100C8410100484206
:1016C0000100C842010048430100C84301004844EA
:1016D0000100C84401404E4523DBF93E23DB793E3F
:1016E00023DBF93D23DB793D00B581B0012904D925
:1016F000CA1E012A01D9D21E05D100F0BBF9401E35
:101700008041C00F00E0012001B000BD00B581B0F4
:101710000A0001D0202905D100F0EAF9401E8041DD
:10172000C00F00E0012001B000BD00B581B000F0A5
:101730002FF9401E8041C00F01B000BD00B581B03F
:101740000A0001D0802905D100F075F9401E8041C2
:10175000C00F00E0012001B000BD00B581B001293B
:1017600005D800F020FC401E8041C00F00E00120A1
:1017700001B000BD00B581B0032905D800F015FA0D
:10178000401E8041C00F00E0012001B000BDF8B450
:101790000168421843685908511800918168DB07B5
:1017A00001D54B46C918009B9A4202D10C30F2BCBD
:1017B00070471378521C032403261E4002D116786A
:1017C000F61C521C1D090F2D07D115780F35521C20
:1017D00003E01778521C0F70491C761EF9D1002DBA
:1017E000E1D01678521C9B081C40032C01D11478C0
:1017F000521C2302F3185C420B19AD1CD3D01C7889
:101800005B1C0C70491C6D1ECDD0F8E700B581B093
:1018100001F07EF9401E8041C00F01B000BD00B54F
:1018200081B001F02AF9401E8041C00F01B000BD17
:1018300000B581B001230A000F2101F069F9401EB3
:101840008041C00F01B000BD30B581B005000C0073
:1018500001236A46122101F05BF9002801D0002023
:101860000FE068460078BF2101400C4368460470D1
:1018700001236A461221280001F0FFF8401E804132
:10188000C00F01B030BD30B581B005000C000123A0
:101890006A46102101F03CF9002801D000200FE039
:1018A00068460078F32101400C4368460470012328
:1018B0006A461021280001F0E0F8401E8041C00F68
:1018C00001B030BD10B50C0001232200102101F041
:1018D0001FF9002801D0002010BD20780C21014004
:1018E0002170012010BDF0B581B007000E0000246A
:1018F00003250123E4B2321921002831C9B238008E
:1019000001F006F900280BD1641C0123E4B232195E
:1019100021002831C9B2380001F0FAF8002801D0BE
:10192000002003E0641C6D1EE3D1012001B0F0BD76
:1019300030B581B005000C0001236A46102101F08A
:10194000E7F8002801D000200FE068460078000783
:10195000000F04436846047001236A4610212800E2
:1019600001F08BF8401E8041C00F01B030BD10B5B2
:101970000C0001232200102101F0CAF8002801D038
:10198000002010BD2078F02101402170012010BD01
:1019900070B582B005000C00660501236A46062179
:1019A00001F0B6F8002811D16846047001236A4698
:1019B0000621280001F061F8002807D101236A46BA
:1019C0000721280001F0A4F8002801D0002010E031
:1019D00068460078F8210140700F08436946087096
:1019E00001236A460721280001F047F8401E804184
:1019F000C00F02B070BD30B581B005000C000123EE
:101A00006A46082101F084F8002801D000200FE088
:101A100068460078F82101400C43684604700123B1
:101A20006A460821280001F028F8401E8041C00FB6
:101A300001B030BD000030B581B005000C000123BD
:101A40006A46092101F064F8002801D000200FE067
:101A5000684600784006400E04436846047001233F
:101A60006A460921280001F008F8401E8041C00F95
:101A700001B030BD30B581B005000C0001236A46CD
:101A80000A2101F045F8002801D000200FE0684647
:101A90000078F82101400C436846047001236A462F
:101AA0000A21280000F0E9FF401E8041C00F01B06C
:101AB00030BD30B581B005000C0001236A460A2113
:101AC00001F026F8002801D000200FE068460078D9
:101AD000872101400C436846047001236A460A21AD
:101AE000280000F0CAFF401E8041C00F01B030BD89
:101AF00030B581B005000C0001236A460D2101F0CC
:101B000007F8002801D000200FE068460078DF21A8
:101B100001400C436846047001236A460D212800E9
:101B200000F0ABFF401E8041C00F01B030BD30B5AA
:101B300081B005000C0001236A460D2100F0E8FF8A
:101B4000002801D000200FE0684600784006400ED3
:101B500004436846047001236A460D21280000F002
:101B60008CFF401E8041C00F01B030BD30B581B048
:101B700005000C0001236A46122100F0C9FF00286D
:101B800001D000200FE068460078FB2101400C43A3
:101B90006846047001236A461221280000F06DFF98
:101BA000401E8041C00F01B030BD30B581B005008E
:101BB0000C0001236A46142100F0AAFF002801D07E
:101BC00000200FE068460078FC2101400C43684685
:101BD000047001236A461421280000F04EFF401EC5
:101BE0008041C00F01B030BD30B581B005000C00A0
:101BF00001236A46192100F08BFF002801D0002044
:101C00000FE068460078FD2101400C4368460470EF
:101C100001236A461921280000F02FFF401E804151
:101C2000C00F01B030BD30B581B005000C000123FC
:101C30006A46192100F06CFF002801D000200FE057
:101C400068460078F72101400C4368460470012380
:101C50006A461921280000F010FF401E8041C00F85
:101C600001B030BD30B581B005000C0001236A46DB
:101C7000192100F04DFF002801D000200FE0684638
:101C80000078EF2101400C436846047001236A4646
:101C90001921280000F0F1FE401E8041C00F01B064
:101CA00030BD30B581B005000C0001236A46192112
:101CB00000F02EFF002801D000200FE068460078D9
:101CC000FB2101400C436846047001236A46192138
:101CD000280000F0D2FE401E8041C00F01B030BD90
:101CE00010B50C00012322001B2100F011FF002879
:101CF00001D0002010BD207808210840207001206C
:101D000010BD10B50C00012322001B2100F000FFC4
:101D1000002801D0002010BD20782021084020702C
:101D2000012010BD10B50C00012322001C2100F081
:101D3000EFFE002801D0002010BD207810210840BF
:101D40002070012010BD10B50C00012322001C21C1
:101D500000F0DEFE002801D0002010BD20782021F8
:101D600008402070012010BD10B50C000123220096
:101D70001D2100F0CDFE002801D0002010BD2078EC
:101D8000C107C90F2170012010BD10B50C0001233F
:101D900022001D2100F0BCFE002801D0002010BD53
:101DA0002078022108402070012010BD10B50C00E1
:101DB000012322001D2100F0ABFE002801D00020ED
:101DC00010BD2078042108402070012010BD10B5FE
:101DD0000C00012322001D2100F09AFE002801D0F2
:101DE000002010BD2078082108402070012010BD7F
:101DF00010B50C00012322001D2100F089FE0028EF
:101E000001D0002010BD2078102108402070012052
:101E100010BD10B50C00012322001D2100F078FE3A
:101E2000002801D0002010BD20782021084020701B
:101E3000012010BD10B50C00012322001D2100F06F
:101E400067FE002801D0002010BD20784021084006
:101E50002070012010BD10B50C00012322001E21AE
:101E600000F056FE002801D0002010BD2078C107E8
:101E7000C90F2170012010BD30B581B004000D00E4
:101E800001236A463A2100F043FE002808D10123CD
:101E900000AA521C3B21200000F03AFE002801D08D
:101EA000002008E0684640780007000D6946097880
:101EB00008432880012001B030BD10B50C0001237B
:101EC00022003B2100F024FE002801D0002010BD9C
:101ED0002078102108402070012010BD10B50C00A2
:101EE000012322003B2100F013FE002801D0002036
:101EF00010BD2078202108402070012010BD10B5B1
:101F00000C00012322003B2100F002FE002801D03A
:101F1000002010BD2078402108402070012010BD15
:101F200030B581B004000D0001236A463C2100F069
:101F3000EFFD002808D1012300AA521C3D212000FA
:101F400000F0E6FD002801D0002008E06846407857
:101F50008007800D6946097808432880012001B078
:101F600030BD10B50C0001232200532100F0D0FD3C
:101F7000002801D0002010BD2078102108402070DA
:101F8000012010BD10B50C0001232200532100F0E8
:101F9000BFFD002801D0002010BD2078202108407E
:101FA0002070012010BD30B581B005000C00012368
:101FB0006A46582100F0ACFD002801D000200FE057
:101FC00068460078FE2101400C43684604700123F6
:101FD0006A465821280000F050FD401E8041C00F85
:101FE00001B030BD30B581B005000C0001236A4658
:101FF000582100F08DFD002801D000200FE0684638
:102000000078FD2101400C436846047001236A46B4
:102010005821280000F031FD401E8041C00F01B062
:1020200030BD30B581B005000C0001236A4658214F
:1020300000F06EFD002801D000200FE06846007817
:10204000FB2101400C436846047001236A46582175
:10205000280000F012FD401E8041C00F01B030BDCD
:1020600030B581B005000C0001236A46582100F00C
:102070004FFD002801D000200FE068460078F721CE
:1020800001400C436846047001236A465821280029
:1020900000F0F3FC401E8041C00F01B030BD30B5F0
:1020A00081B005000C0001236A46582100F030FD84
:1020B000002801D000200FE0684600784006400E5E
:1020C00004436846047001236A465821280000F042
:1020D000D4FC401E8041C00F01B030BD30B581B08E
:1020E00005000C0001236A46592100F011FD00286B
:1020F00001D0002011E068460078E0210140E006B0
:10210000C00E08436946087001236A465921280019
:1021100000F0B3FC401E8041C00F01B030BD30B5AF
:1021200081B005000C0001236A46592100F0F0FC43
:10213000002801D000200FE0684600789F21014070
:102140000C436846047001236A465921280000F0B8
:1021500094FC401E8041C00F01B030BD30B581B04D
:1021600005000C0001236A465A2100F0D1FC00282A
:1021700001D0002011E068460078FC210140A00752
:10218000800F08436946087001236A465A212800D7
:1021900000F073FC401E8041C00F01B030BD30B56F
:1021A00081B005000C0001236A465A2100F0B0FC02
:1021B000002801D0002012E068460078F321014099
:1021C000A0000C2202400A436846027001236A46BE
:1021D0005A21280000F051FC401E8041C00F01B080
:1021E00030BD30B581B005000C0001236A465A218C
:1021F00000F08EFC002801D0002010E06846007836
:102200000007000F210101436846017001236A465F
:102210005A21280000F031FC401E8041C00F01B05F
:1022200030BD30B581B005000C0001236A465B214A
:1022300000F06EFC002801D0002011E06846007814
:10224000C0210140A006800E0843694608700123A2
:102250006A465B21280000F010FC401E8041C00F40
:1022600001B030BD30B581B005000C0001236A46D5
:102270005B2100F04DFC002801D000200FE06846F3
:1022800000784006400E04436846047001236A4605
:102290005B21280000F0F1FB401E8041C00F01B01F
:1022A00030BD30B581B005000C0001236A465C21C9
:1022B00000F02EFC002801D0002011E068460078D4
:1022C000F02101402007000F0843694608700123F0
:1022D0006A465C21280000F0D0FB401E8041C00F00
:1022E00001B030BD30B581B005000C0001236A4655
:1022F0005C2100F00DFC002801D000200FE06846B2
:102300000078EF2101400C436846047001236A46BF
:102310005C21280000F0B1FB401E8041C00F01B0DD
:1023200030BD30B581B005000C0001236A465C2148
:1023300000F0EEFB002801D0002012E06846007893
:102340009F2101406001602202400A4368460270FA
:1023500001236A465C21280000F08FFB401E80416B
:10236000C00F01B030BD30B581B005000C000123B5
:102370006A465D2100F0CCFB002801D000200FE070
:1023800068460078F82101400C4368460470012338
:102390006A465D21280000F070FB401E8041C00F9E
:1023A00001B030BD70B582B005000C006609012394
:1023B0006A465D2100F0ACFB002817D16846007822
:1023C0004007400FE10001436846017001236A465F
:1023D0005D21280000F051FB002807D101236A4647
:1023E0005C21280000F094FB002801D0002010E0C0
:1023F000684600784006400EF101014368460170CE
:1024000001236A465C21280000F037FB401E804112
:10241000C00F02B070BD30B581B005000C000123C3
:102420006A465E2100F074FB002801D000200FE016
:1024300068460078FD2101400C4368460470012382
:102440006A465E21280000F018FB401E8041C00F44
:1024500001B030BD30B581B005000C0001236A46E3
:102460005E2100F055FB002801D000200FE06846F7
:102470000078FB2101400C436846047001236A4642
:102480005E21280000F0F9FA401E8041C00F01B023
:1024900030BD30B581B005000C0001236A465E21D5
:1024A00000F036FB002801D000200FE068460078DD
:1024B000F72101400C436846047001236A465E21FF
:1024C000280000F0DAFA401E8041C00F01B030BD94
:1024D00030B581B005000C0001236A465E2100F092
:1024E00017FB002801D000200FE068460078EF219C
:1024F00001400C436846047001236A465E212800AF
:1025000000F0BBFA401E8041C00F01B030BD30B5B5
:1025100081B005000C0001236A465E2100F0F8FA44
:10252000002801D000200FE068460078DF2101403C
:102530000C436846047001236A465E21280000F0BF
:102540009CFA401E8041C00F01B030BD30B581B053
:1025500005000C0001236A465E2100F0D9FA00282C
:1025600001D000200FE068460078BF2101400C43F5
:102570006846047001236A465E21280000F07DFA57
:10258000401E8041C00F01B030BD30B581B00500A4
:102590000C0001236A465F2100F0BAFA002801D03E
:1025A00000200FE068460078FD2101400C4368469A
:1025B000047001236A465F21280000F05EFA401E85
:1025C0008041C00F01B030BD30B581B005000C00B6
:1025D00001236A465F2100F09BFA002801D0002009
:1025E0000FE068460078FB2101400C436846047008
:1025F00001236A465F21280000F03FFA401E804117
:10260000C00F01B030BD30B581B005000C00012312
:102610006A465F2100F07CFA002801D000200FE01C
:1026200068460078F72101400C4368460470012396
:102630006A465F21280000F020FA401E8041C00F4A
:1026400001B030BD30B581B005000C0001236A46F1
:102650005F2100F05DFA002801D000200FE06846FD
:102660000078EF2101400C436846047001236A465C
:102670005F21280000F001FA401E8041C00F01B028
:1026800030BD30B581B005000C0001236A465F21E2
:1026900000F03EFA002801D000200FE068460078E4
:1026A000DF2101400C436846047001236A465F2124
:1026B000280000F0E2F9401E8041C00F01B030BD9B
:1026C00030B581B005000C0001236A465F2100F09F
:1026D0001FFA002801D000200FE068460078BF21D3
:1026E00001400C436846047001236A465F212800BC
:1026F00000F0C3F9401E8041C00F01B030BD30B5BD
:1027000081B005000C00012322003E2100F000FAF8
:10271000002807D10123621C3F21280000F0F8F9AE
:10272000002801D0002000E0012001B030BD30B50C
:1027300081B005000C00012322004B2100F0E8F9D4
:10274000002807D10123621C4C21280000F0E0F989
:10275000002801D0002000E0012001B030BD30B5DC
:1027600081B005000C0001236A46012100F0D0F978
:1027700000280BD16846007880210143684601702B
:1027800001236A460121280000F077F9012300AAFD
:10279000521C0F21280000F0BBF968464078E02168
:1027A0000140E006C00E084369464870012300AAB4
:1027B000521C0F21280000F060F901236A46012114
:1027C000280000F0A5F900280BD1684600784006E3
:1027D000400E6946087001236A460121280000F076
:1027E0004CF9012001B030BD0CB4012212060318CF
:1027F000DA4207D84B18DA4204D802000A4392188A
:1028000002D288420CBC7047FCD08142FAE7FEE756
:102810009D21020008D5F446524200F005F801223D
:10282000D2071043604700000AD002D4491E921814
:10283000FCD5C905100A1206524100D3012A4841AD
:10284000704730B405004D400122D20715404B18A7
:102850000418240E2ED01B0E32D0FF2C34D0FF2BA8
:102860003AD0E4180002090210431143000A090A91
:102870009446C2B24A43000AC3B24B43000A4843DB
:10288000110A5B181A43D2B2190A091801D449185F
:10289000641E080A7F3C23DBFE2C08DAE4050906E7
:1028A0001143634699416041284330BC7047FF2083
:1028B000C005F9E728001B0EFF2BF6D1D043F4E743
:1028C0002800FF2CF1D1F9E74002F7D1FF2B01D10D
:1028D0004902F3D1E005E7E7D8054902E4D0EDE786
:1028E00043020020641CDFD15B129B1CDCD9D8059D
:1028F000DAE7FEE70122D2070118090E7F3910D46A
:1029000049421F310FD4001805D2C0011043C840FE
:1029100000D5D0437047C0011043C84005D44042A1
:102920007047002070470042F3D510007047FEE763
:10293000094205D0830705D00270401C491EF9D119
:1029400070470000130030B414001500103902D392
:1029500010393CC0FCD2490700D30CC000D504C0DC
:10296000890002D30280801C002900D5027030BC8F
:10297000704700000022DBE730B587B08A4C2000AA
:1029800000F0FEFD002835D1884860603320A0604B
:102990000120E06086482060AA4D0220696801435A
:1029A00069606968014000910099C0218900019126
:1029B000122102910490002003900420059001A9A7
:1029C000A14800F027FE8020800329690143296186
:1029D00029680843286028689C4901402960002232
:1029E0000021172000F00CFF172000F024FF20002A
:1029F00000F038F9200000F0C3FD202801D10020AC
:102A000000E0012007B030BDF0B58BB00224904F3C
:102A100038682043386038682040009000982020B3
:102A200006908C4E079609940025089506A98648BD
:102A300000F0F0FD00220021072000F0E1FE072059
:102A400000F0F9FE38682043386038682040009074
:102A500000981020019002960494039501A97A48E9
:102A600000F0D8FD00220021072000F0C9FE072059
:102A700000F0E1FE00200BB0F0BDFAB583B0070016
:102A80003878332805D0402803D0B12809D0BC2895
:102A900025D1022B23DB08468021014368460173C0
:102AA0001DE00024002B18D016006B4D8020400143
:102AB000029001200190009601236846007B0219D4
:102AC000D2B2B978280000F043F9002818D1641C6C
:102AD000761C6846008A8442E8DB002016E05E4DE2
:102AE0008020400102906846008A019000920123F4
:102AF0006846027BB978280000F02AF9002805D042
:102B0000280000F009F900F055F8012005B0F0BDEB
:102B1000FAB583B007003878332805D0402803D0B1
:102B2000B12809D0BC2825D1022B23DB08468021FF
:102B30000143684601731DE00024002B18D01600E5
:102B4000454D802040010290012001900096012314
:102B50006846007B0219D2B2B978280000F01CFB4D
:102B6000002818D1641C761C6846008A8442E8DB81
:102B7000002016E0384D8020400102906846008A0F
:102B80000190009201236846027BB978280000F08A
:102B900003FB002805D0280000F0BEF800F00AF87A
:102BA000012005B0F0BD0000701000202E11B10012
:102BB0000054004030B587B0274C200000F0E0FC06
:102BC000002835D1254860603320A0600120E060F6
:102BD000234820601B4D02206968014369606968D1
:102BE000014000910099C0218900019112210291B8
:102BF0000490002003900420059001A9124800F0E1
:102C000009FD80208003296901432961296808435F
:102C1000286028680D490140296000220021172002
:102C200000F0EEFD172000F006FE200000F01AF87C
:102C3000200000F0A5FC202801D1002000E00120A8
:102C400007B030BD2810024000040050FFFFDFFF36
:102C50002C10024000001110701000202E11B10045
:102C60000054004030B581B0040001D101204CE097
:102C7000250040356878002803D12870200000F036
:102C8000C7FC24206870206801680122914301601C
:102C900060681F4901402068016121681D488A68F9
:102CA00002408A60E1680129A16801D1C24301E0C4
:102CB000842212020A4321688A60E168022903D152
:102CC000802109012268516021684A681F4B134323
:102CD0004B602168CA681040C8602069616901437F
:102CE000A069000208432168C860E069216A0143C5
:102CF000206801602068016801220A430260002008
:102D00006860202169702063A87001B030BD0000A8
:102D1000FFFFFFF0FF7FFFFF30B581B0040001D15E
:102D2000012011E0250040352420687020680168EA
:102D3000012291430160200000F0A4FD00206860A2
:102D400068702063A870287001B030BD0080000258
:102D5000FEB582B0040040304078202800D011E257
:102D60000A9E002E00D1CCE10B9D280000D1C8E1C5
:102D70004020205C012800D104E201204021605461
:102D800000F082FD009020688169090410D500F0F0
:102D90007BFD0099401A1A28F5D3202021004031EC
:102DA00048700027210040318F7040202754E7E110
:102DB0002121220040325170402122004032917086
:102DC0000027210040314F60666265856763694670
:102DD00009898905890D0191AD4E42683240114340
:102DE0006A46128A1206120A0A43AA49114341602E
:102DF0000C9D20688169890756D48069C0063ED53C
:102E000020682026816931401ED10020C0438542C0
:102E1000F6D0002D05D000F037FD0099401A85420C
:102E2000EED2200040304670210040318F704021AA
:102E3000675420004030406820004030406804283B
:102E4000675400D09CE15CE11021C1612068C6613B
:102E500020688169890700D5876220688169C90770
:102E600003D4816901220A43826120684168B34A20
:102E70000A4042600420210040314860D1E7002030
:102E8000C0438542B5D0002D05D000F0FDFC00996F
:102E9000401A8542ADD220262000403040683043A1
:102EA000210040314860BCE76946098A012951D0B8
:102EB00069468989090A816220688169890749D43C
:102EC0008069C00629D520682026816931400CD14F
:102ED0000020C0438542F6D0002D32D000F0D4FC53
:102EE0000099401A8542EED22BE01021C161206882
:102EF000C66120688169890700D587622068816979
:102F0000C90703D4816901220A43826120684168AC
:102F10008A4A0A404260042010E00020C0438542F3
:102F2000CAD0002D05D000F0AFFC0099401A8542B0
:102F3000C2D220262000403040683043210040317A
:102F40004860200040304670210040318F704021A1
:102F500067546EE768468089C0B22168886220683D
:102F60008169090615D40020C0438542F7D0002DA1
:102F700005D000F089FC0099401A8542EFD220204C
:102F8000210040314870210040318F70402167544A
:102F900052E7618DFF2907D9FF2121854168314022
:102FA000019A0A4379490AE0628D228543683340D9
:102FB000019919431206120A0A4380218904114318
:102FC000416020688169890729D4009A290020007E
:102FD00000F0D9FA00281BD10020C0438542F0D070
:102FE000002D05D000F050FC0099401A8542E8D22F
:102FF00020262000403040683043210040314860A6
:10300000200040304670210040318F70402027540E
:10301000200040304068042800D0B1E071E0616ACF
:103020004A1C6262097881625948618D091861857C
:10303000218D0818208500043BD1608D002838D0F0
:1030400020688169090615D40020C0438542F7D065
:10305000002D05D000F018FC0099401A8542EFD2EF
:103060002020210040314870210040318F704020E5
:10307000275485E0618DFF290ED9FF212185416804
:10308000019A31401143414A0A43426011E000BFB6
:10309000009800FC00200001628D228543683340C7
:1030A000019919431206120A0A4380218904114327
:1030B0004160608D002884D12068202681693140DC
:1030C0004ED18069C0063BD52068816931401AD154
:1030D0000020C0438542F7D0002D05D000F0D4FB7E
:1030E0000099401A8542EFD22000403046702100FE
:1030F00040318F7040202754200040304068042821
:103100003ED101203FE01021C1612068C6612068E6
:103110008169890700D5876220688169C90703D45E
:10312000816901220A43826120684168034A0A409A
:1031300042600420210040314860D5E700E800FEED
:10314000002D05D000F0A0FB0099401A8542B3D2B3
:103150002000403040683043210040314860C3E7E0
:10316000C661206841680B4A0A4042602000403036
:103170004670210040318F7040202754002002E02B
:10318000032000E0022005B0F0BD00000000FF01B8
:10319000FFFF000000E800FEFFB583B007464037A0
:1031A0007878202800D0DDE10C9E002E00D1A0E12F
:1031B0000D9D280000D19CE13878012800D1D1E193
:1031C0000120387000F060FB00900398006881696E
:1031D00009040BD500F058FB0099401A1A28F4D3C3
:1031E000202078700024BC703C70B9E122217970F5
:1031F0004021B97000247C6003994E6203994D858B
:1032000003994C636946098A8905890D01919E4E8F
:103210004268324011436A46128B1206120A0A4370
:1032200080218901114341600E9D039800688169E6
:1032300089074CD48069C00638D5039800682026D9
:103240008169314015D10020C0438542F5D0002D61
:1032500005D000F019FB0099401A8542EDD27E702E
:10326000BC703C707868786804283C7000D077E1C6
:103270003FE11021C16103980068C66103980068AE
:103280008169890700D58462039800688169C9074C
:1032900003D4816901220A4382610398006841686E
:1032A000B24A0A40426004207860D8E70020C04358
:1032B0008542BAD0002D05D000F0E6FA0099401AF8
:1032C0008542B2D22026786830437860C7E76946E5
:1032D000098B01294ED06946898A090A81620398BF
:1032E00000688169890745D48069C0062ED5039896
:1032F00000682026816931400CD10020C0438542FE
:10330000F5D0002D32D000F0BFFA0099401A854266
:10331000EDD22BE01021C16103980068C6610398CB
:1033200000688169890700D5846203980068816913
:10333000C90703D4816901220A43826103980068A6
:1033400041688A4A0A40426004200EE00020C043DF
:103350008542C4D0002D05D000F096FA0099401A9D
:103360008542BCD220267868304378607E70BC707D
:103370003C7077E76846808AC0B203990968886222
:10338000039800688169490610D40020C043854233
:10339000F6D0002D05D000F077FA0099401A85424A
:1033A000EED220207870BC703C705CE70399498DA8
:1033B000FF290AD9FF21039A118541683140019AFA
:1033C0000A436B49114341600DE00399498D039A0B
:1033D000118543683340019A1A430906090A1143CB
:1033E000644A0A434260039800688169490710D41F
:1033F0000020C0438542F6D0002D05D000F044FAED
:103400000099401A8542EED220207870BC703C7042
:10341000A6E00399496A4A1C039B5A62406A0870F5
:1034200055480399098D0918039A1185039A528DFD
:103430001018039A5085090437D10398408D00284D
:1034400033D0039800688169090610D40020C04376
:103450008542F6D0002D05D000F016FA0099401AEA
:103460008542EED220207870BC703C7078E00399E1
:10347000498DFF290AD9FF21039A11854168019AD4
:10348000314011433D4A0EE0009800FC0399498DFC
:10349000039A118543683340019A1A430906090AC1
:1034A0001143802292040A4342600398408D002811
:1034B00099D10398006820268169314044D1806900
:1034C000C00635D5039800688169314013D10020CA
:1034D000C0438542F6D0002D05D000F0D5F9009903
:1034E000401A8542EED27E70BC703C707868042829
:1034F00036D1012037E01021C16103980068C66110
:10350000039800688169890700D584620398006880
:103510008169C90703D4816901220A438261039842
:1035200000684168114A0A40426004207860DAE786
:10353000002D05D000F0A8F90099401A8542B8D2B4
:10354000786830437860CEE7C661039800684168C8
:10355000064A0A4042607E700020B8703C7002E06B
:10356000032000E0022007B0F0BD000000E800FEEC
:103570000024FF0100240002FFFF00000000FF0103
:103580004121405C7047F4B504000F00102520680D
:103590008069284037D0206820268169314013D1C6
:1035A0000020C0438742F6D0002F05D000F06CF910
:1035B0000099401A8742EED2200040304670002128
:1035C0008170017003201EE0C5612068C66120681B
:1035D0008169890701D50021816220680121826902
:1035E0000A4002D182691143816120684168074A1B
:1035F0000A404260200040300421416046700021B2
:1036000081700170012001B0F0BD000000E800FEF3
:103610007047FEE7F0B483B0002203230C68002C4F
:1036200000D1C0E00124944002940C68029D254022
:103630000195019C002C00D1B0E04C68022C01D017
:10364000122C13D1D408A4000419276A9600BC4692
:103650000F251C273740BD406746AF430D69AC4678
:103660001C2535406646AE403E4326624C68012C20
:1036700005D0022C03D0112C01D0122C17D1856853
:1036800054006E4634706C4626780324B440A5433B
:10369000CC686E463678B4402C4384604468029D02
:1036A000AC434D68EE06F60F96402643466006682A
:1036B00054006D462C706C4625780324AC40E543DD
:1036C0002E404C681C406F463F78BC403443046039
:1036D000C46825408C686E463678B4402C43C4607C
:1036E0004C68E4005AD53E4C2468012525433C4CE7
:1036F00025603C4C9508AD0064190294246896003E
:103700000C2535400F26AE40B443A026F605B04246
:1037100001D1002614E0344EB04201D101260FE061
:10372000324EB04201D102260AE0314EB04201D100
:10373000032605E02F4EB04201D1052600E0062603
:10374000AE402643029C26602B4C2568019EF44324
:1037500025404E68F60302D52E00019D3543264EC6
:103760003560756825404E68B60302D52E00019D70
:103770003543214E7560B56825404E68F60202D586
:103780002E00019D35431C4EB560F5682C404D68F8
:10379000AD0202D52500019C2C43F460521C0C683C
:1037A000D44000D03EE703B0F0BC70470069084049
:1037B000401E8041C043C00F7047002A01D0816184
:1037C0007047816270470D4A1368034000D170470B
:1037D00000B581B0106000F0FFFA01B000BD00003C
:1037E000341002400800014000040050000800505E
:1037F000000C0050001C0050000401401404014063
:1038000010B4C20018231340FF249C40E2438907F0
:10381000090E9940002804D5154B0007000F083801
:1038200000E0144B80088000181803681A40114308
:10383000016010BC70470121C006C00E81400E48D7
:1038400001607047401E80214904884201D3012055
:1038500070470A4948600A4802681202120AC023E7
:103860001B06134303600020886007220A6070472C
:103870001CED00E000E400E000E100E010E000E00A
:1038800020ED00E07047FEE701480068704700BF88
:103890000C110020F0B587B000206946887300F055
:1038A000FDFA00F00FFB002000F042FB0121002098
:1038B00000F082FB00F0D0FBCF49002000F01CFCA0
:1038C00001281CD1CD4BCE4A80214900CD4800F0C3
:1038D000A1FDCC4800F0C2FDCB4B82B2C949CB4818
:1038E00000F0F9FD002000F049FB642001F061F8D0
:1038F000002000F051FB642001F05BF8F2E7C448BF
:10390000406800F09FFC01281CD1BC4BBC4A8021C0
:103910004900BC4800F07EFDBA4800F09FFDBA4B5C
:1039200082B2B849B94800F0D6FD002000F026FB6D
:10393000642001F03EF8002000F02EFB642001F02E
:1039400038F8F2E70021B248406800F08BFC01280B
:1039500023D00121AE48406800F0E7FC01281CD0CC
:10396000AC49AB48406800F08DFC012815D02021FF
:10397000A748406800F015FD01280ED0FF212E3128
:10398000A348406800F020FD012806D08021A0480F
:10399000406800F02CFD01281CD1984B984A8021EA
:1039A0004900984800F036FD964800F057FD964BC8
:1039B00082B29449954800F08EFD002000F0DEFAB6
:1039C000642000F0F6FF002000F0E6FA642000F02A
:1039D000F0FFF2E7CD4A802149008A4800F01AFD45
:1039E000884800F03BFD884B82B28649874800F04A
:1039F00072FDD64A80214900824800F00BFD8148C3
:103A000000F02CFD804B82B27E49804800F063FDBF
:103A1000CF48006802218843CD4908600121002079
:103A200000F0D4FFCA48006802210143C848016081
:103A300002E002207649087075488078002811D08D
:103A4000002073498870C34A802149006D4800F006
:103A5000E1FC6C4800F002FD6B4B82B269496B4897
:103A600000F039FD6A484078002814D000206849E9
:103A70004870B94A80214900624800F0CBFC614897
:103A800000F0ECFC604B82B25E49604800F023FD20
:103A900000205F4908705E480078002804D00228A2
:103AA00000D118E12AD333E103A9891C58484068A2
:103AB00000F0FBFB01281CD1504B514A80214900EA
:103AC000504800F0A7FC4F4800F0C8FC4E4B82B2B3
:103AD0004C494E4800F0FFFC002000F04FFA6420F3
:103AE00000F067FF002000F057FA642000F061FF4B
:103AF000F2E76846807B01289BD19BE7002000F01D
:103B00003DFA002069468881069003A94048406834
:103B100000F0F5FB012800D1C0E0684683898F4A98
:103B200080214900374800F075FC364800F096FCCB
:103B3000354B82B23349354800F0CDFCFA20800085
:103B400000F037FFBE4A802149002E4800F062FC99
:103B50002C4800F083FC2C4B82B22A492B4800F001
:103B6000BAFC68468089032100F04AFF69468881D3
:103B70001CE0059F641E28D1684603880A2B12DAD0
:103B80000296019500975B1CAE4A802149001D48B2
:103B900000F040FC1B4800F061FC1B4B82B219494D
:103BA0001A4800F098FC0698401C069068468089E8
:103BB0000699814234DA0846694608800020088266
:103BC0000590002700250026032404A9104840681A
:103BD00000F080FB012861D005A90D48406800F085
:103BE000B7FB01285AD06846008A0028C1D00228B5
:103BF00012D013D352E000BF78010020783E0008B5
:103C0000803E00087C01002088130000000F002087
:103C1000740100200040CE45059EABE7059DA9E755
:103C20000B2810DB0A2300BF4DA2802149008C48DD
:103C300000F0F0FB8A4800F011FC8A4B82B2884900
:103C4000894800F048FC642000F0B3FE002000F03A
:103C5000A3F900218548406800F08FFB012800D0BF
:103C6000E7E6834B834A802149007D4800F0D2FB80
:103C70007B4800F0F3FB7B4B82B279497A4800F035
:103C80002AFC002000F07AF9642000F092FE002067
:103C900000F082F9642000F08CFEF2E7744B754A64
:103CA000802149006E4800F0B5FB6D4800F0D6FB5E
:103CB0006C4B82B26A496C4800F00DFC002000F0A9
:103CC0005DF9642000F075FE002000F065F96420C5
:103CD00000F06FFEF2E700BF29A280214900604892
:103CE00000F098FB5E4800F0B9FB5E4B82B25C4985
:103CF0005D4800F0F0FB01215C48406800F03DFBAE
:103D0000012800D084E607B0F0BD00BF306C000889
:103D100059A3584A80214900514800F07BFB504884
:103D200000F09CFB4F4B82B24D494F4800F0D3FB53
:103D3000002000F023F9642000F03BFE002000F09A
:103D40002BF9642000F035FEF2E70000606C0008FB
:103D500010E000E08C6C0008B46C0008106D0008E6
:103D60000D0A53616D706C65206C697374206C6909
:103D70006D6974656420746F3A2025640D0A000033
:103D80000D0A4E75636C656F2070726F6365737397
:103D90006F7220697320656E746572696E67207337
:103DA0006C656570206D6F6465207768696C65204F
:103DB0004C534D3644534C2069732073746F7269B1
:103DC0006E67206461746120696E746F2046494695
:103DD0004F202E2E2E0D0A0010B580218901884219
:103DE00008D1002000F022F9002802D101201F494B
:103DF000887010BD1D4C202802D10120607010BDBC
:103E000011A31C4A49092000083000F003FB2000E0
:103E1000083000F023FB134B82B221000831124816
:103E200000F059FB002000F0A9F8642000F0C1FD6B
:103E3000002000F0B1F8642000F0BBFDF2E70000C4
:103E4000546D0008806D000848414C5F4750494F51
:103E50005F455854495F43616C6C6261636B00005D
:103E60007C01002088130000000F00207401002056
:103E7000783E0008803E00086D61696E0000000019
:103E80000D0A4572726F7220696E202725732720F4
:103E900066756E6374696F6E2E0D0A0000B581B091
:103EA0000648016802220A430260032000F000FE77
:103EB00000F006F8002001B000BD00000020024024
:103EC0007047FEE770B594B0164C606880214905D4
:103ED0000143616014480168144A0A40C10C11434F
:103EE00001600220059001250895102109910F908D
:103EF00000261096400411900001129005A800F0D1
:103F0000EBFD0F200090032001900296039604968B
:103F10000121684601F064F820680543256014B06B
:103F200070BD00BF3410024000700040FFE7FFFF8B
:103F300030B587B00121020007D1434A13680B4313
:103F4000136012680A400092009A00BF19A2430051
:103F5000D55A0195029100210391032104913B4917
:103F600080000C1801A92068FFF754FB00222900EB
:103F70002068FFF722FC07B030BD000000B581B01B
:103F8000012200BF0BA14300C95A304B80001858D2
:103F9000FFF713FC01B000BD00B581B0002200BFE7
:103FA00004A14300C95A294B80001858FFF705FCAB
:103FB00001B000BD2000000030B587B00C0001004A
:103FC00008D10421204A13680B4313601268114082
:103FD00000910099050000BF1AA06900405A0190A5
:103FE0000020039001210491210006D1029001A933
:103FF0001848AA008058FFF70DFB012C12D1144875
:10400000029001A91348AA008058FFF703FB00BFE4
:1040100005A0445D00220F2160B2FFF7F1FB60B202
:10402000FFF709FC07B030BD0700000000B581B004
:1040300004A14200895A074A80001058FFF7B6FBD6
:1040400001B000BD002000002C1002407C020020C6
:10405000000021108002002070B586B001212348A5
:1040600002680A43026002680A400092009A0268ED
:104070000A4302600268114000910099C1688022E1
:1040800092020A43C2600424019402200290002597
:10409000039504900594A026F60501A93000FFF7CA
:1040A000B9FA08200190059401A93000FFF7B2FA8F
:1040B0000F4C10482060E12040026060A560E56080
:1040C0002561A5610C206061200000F0CFF9002877
:1040D00000D0FEE72000703060652000583080215D
:1040E00049000180456106B070BD00002C100240FF
:1040F000000F00200044004010B50C00002121609A
:1041000000280DD0012811D0200000F016F8012859
:1041100004D1200000F04CF801280CD0002010BD84
:10412000200000F00AF80128F8D104E0200000F097
:104130003FF80128F2D1012010BD70B50500002420
:104140003A4E7079012832D0FEF716FC01282ED0A5
:104150006A2030707470D620B070B480B4710120C1
:10416000F07130002830B0603148F0603148306183
:104170003148B06330003830B062F4622E60F068CD
:104180000168080005D100200021002207C603C6EF
:1041900007E030008847012806D114212868FEF77F
:1041A000E9FB2C60012070BDFEF72EFC002070BDE5
:1041B00070B5050000241D4E707E012835D0FEF735
:1041C000DBFB012831D03320307574753220B07597
:1041D000012030767476B476F07630003030F061BD
:1041E00016483062746216483064300040303063E4
:1041F0007463300014302860306A0168080007D109
:10420000300014300021002200230EC006C008E058
:10421000300014308847012806D114212868FEF7A1
:10422000A9FB2C60012070BD002070BDBC100020D7
:104230002401002050000020161100200000002062
:104240001411002000B581B0002803D0C16889682E
:104250000A0001D1012003E08847012800D0002096
:1042600001B000BD00B581B0002803D0C268926AD9
:10427000130001D1012003E09047012800D0002065
:1042800001B000BD00B581B000280BD00269002A42
:1042900008D003786A2B05D19823D258130001D097
:1042A000904700E0012001B000BD00B581B00028BA
:1042B0000DD00269002A0AD0002908D003786A2BA1
:1042C00005D19C23D258130001D0904700E0012073
:1042D00001B000BD00B581B000280DD00269002AF0
:1042E0000AD0002908D003786A2B05D1A823D25818
:1042F000130001D0904700E0012001B000BD00B5DF
:1043000081B00269130000280CD0002A0AD00029CD
:1043100008D002786A2A05D1B0229A58130001D039
:10432000904700E0012001B000BD00B581B0002839
:104330000BD00269002A08D003786A2B05D1B42378
:10434000D258130001D0904700E0012001B000BD19
:1043500000B581B000280DD00269002A0AD00029DA
:1043600008D003786A2B05D1B823D258130001D0A6
:10437000904700E0012001B000BD00B581B00269A6
:10438000130000280AD0002A08D002786A2A05D132
:10439000BC229A58130001D0904700E0012001B0E0
:1043A00000BD00B581B000280BD00269002A08D0FA
:1043B00003786A2B05D1C023D258130001D090474F
:1043C00000E0012001B000BD00B581B000280BD095
:1043D0000269002A08D003786A2B05D1C423D25879
:1043E000130001D0904700E0012001B000BD00B5EE
:1043F00081B000280BD00269002A08D003786A2B0C
:1044000005D1C823D258130001D0904700E0012005
:1044100001B000BD08B410B585B007AB039300240C
:104420000294002902D10094019402E00090491EF8
:10443000019103AB6946084878441C3000F0E8FE5F
:104440000099002900D00C70002800D4029805B013
:10445000019910BC02B00847792A0000010000E071
:10446000491C0A78002AFBD1081A704730B581B080
:10447000040001D101202CE025006835687800286F
:1044800003D12870200000F093FA2420687020687F
:104490000168012291430160606A002802D0200077
:1044A00000F0C0F9200000F09FF8012811D020682A
:1044B00041684B4A0A404260206881682A22914341
:1044C00081602068016801220A430260200000F038
:1044D0000DFA01B030BDF5B581B00D001C000646E7
:1044E0005036707E202877D1002D0DD0002A0BD0B9
:1044F0000198806880214901884207D101980069AC
:10450000002803D1E80701D5012066E0307E0128AC
:1045100062D0012030760027F76121207076FFF706
:10452000B3F9009068460089308068460089708041
:1045300004E02988C905C90D8162AD1C7088002876
:1045400022D07088401E708001980068C1690906F9
:104550000CD40020C0438442F6D0002C25D0FFF7B5
:1045600093F90099401A8442EED21EE001998968BD
:1045700080225201914203D1019909690029D8D0C2
:10458000297881626D1CD9E701980068C0694006EE
:104590001DD40020C0438442F6D0002C05D0FFF784
:1045A00073F90099401A8442EED2019800680168BC
:1045B0000C4A0A4002600198006881680122914318
:1045C000816020207076B0763776032005E02020C9
:1045D00070763776002000E0022003B0F0BD0000C6
:1045E000FFB7FFFF5FFEFFFFF0B583B007001024A9
:1045F0001025002669460E7039680868824A024014
:10460000B86810433A69024378691043FA69024373
:104610000A6048687D4A0240F86810434860B869FB
:104620007B4A914202D00200386A10438A68794B73
:10463000134018438860784881420BD17748C06C9A
:104640008007800F04D0022812D029D3032823E04A
:10465000012528E0724881420CD17048C06C0C21C1
:1046600001401BD004291BD0082901D00C2913E0DC
:10467000022518E06648814215D16848C06CC02107
:10468000090101400AD0A001814209D040008142C5
:10469000EED0C0200001814204D004E0002502E0F9
:1046A000042500E00825022001F0D2F929003D6828
:1046B000574A954233D1002906D0022913D0042944
:1046C00019D008291AD097E000F073FD002800D116
:1046D00095E07A6851008918884200D28CE0110375
:1046E00081420DD288E04D480068044001D09F48C7
:1046F000EFE7A148EDE700F029FDE7E7D00BE8E799
:10470000050E04025008002100196941002301F040
:1047100096FA97494118974A91426DD261E0D20BBF
:10472000FB6993423BD108292CD801A2525C9744E3
:1047300008102252365252524200796840004A080C
:104740001BE000F040FD79680191400049084018E5
:10475000019913E079684808304A1268144001D082
:10476000864A0AE0864A08E000F0F0FC79684000DA
:104770004A0802E0796848082203801800F040F9EE
:10478000060002E00120694608707E49314030068B
:10479000400E4007400F01433868C1602FE00829F0
:1047A0002AD801A0405C8744080E144E284E4E4E75
:1047B0003E0000F0FEFC0EE000F005FD0BE0796825
:1047C0004808164A1268144001D0684A0EE06A4A46
:1047D0000CE000F0BBFC79684A08801800F010F982
:1047E00080B23968C8600AE079684808801800F02B
:1047F00007F980B2E86002E0012069460870684667
:10480000007803B0F0BD0000F369FFEFFFCFFFFFBA
:1048100000480040FFF4FFFF003801400010024054
:10482000004400402421415CC90706D501684A685C
:10483000554B1340826A1A434A602421415C890720
:1048400006D501684A68514B1340C26A1A434A6050
:104850002421415C490706D501684A684C4B134046
:10486000026B1A434A602421415C090706D501689E
:104870004A68484B1340426B1A434A602421415C0A
:10488000C90606D501688A68434B1340826B1A43F8
:104890008A602421415C890606D501688A683F4BFD
:1048A0001340C26B1A438A602421415C490611D52A
:1048B00001684A683A4B1340026C1A434A60026C22
:1048C00080235B039A4205D14A68364B1340426C01
:1048D0001A434A602421415C090606D501684A68EA
:1048E000314B1340806C184348607047F0B581B07D
:1048F00004002500683500266E60FEF7C5FF07003E
:104900002068006800070BD52068C069800207D4C2
:10491000FEF7BAFFC01B802189048842F4D30EE061
:104920002068006840071AD52068C069400216D484
:10493000FEF7AAFFC01B802189048842F4D32068B7
:1049400001681A4A0A400260206881680122914386
:10495000816020206870A8702E70032004E0202061
:104960006870A8702E70002001B0F0BD00093D00F5
:1049700000FDFFFF00FD0F000024F40000127A008C
:104980000048E801F0FF0000FFFFFDFFFFFFFEFF12
:10499000FFFFFBFFFF7FFFFFFFEFFFFFFFDFFFFFDB
:1049A000FFFFEFFFFFFF9FFFFFFFF7FF5FFEFFFF30
:1049B000704711B581B0FEF767FF0400FEF764FF92
:1049C000001B01998842F9D302B010BD10B40A4A05
:1049D00013680324A34318431060084802680423A3
:1049E0009A430260012901D130BF02E040BF20BFDD
:1049F00020BF10BC704700000070004010ED00E0C8
:104A00000022030A8B420BD203098B4219D24308BE
:104A10008B422ED2411A00D20146524110467047B5
:104A2000FF2209023FD012068B4205D3121209025F
:104A30008B4201D31212090203098B4219D300E001
:104A4000090AC3098B4201D3CB01C01A5241830921
:104A50008B4201D38B01C01A524143098B4201D3CF
:104A60004B01C01A524103098B4201D30B01C01AFA
:104A70005241C3088B4201D3CB00C01A5241830874
:104A80008B4201D38B00C01A524143088B4201D3A1
:104A90004B00C01A5241884200D3401A5241CFD233
:104AA00001461046704708B501F0FEF808BDFEE764
:104AB00010B5040007480068FA218900FFF7A0FF3D
:104AC000FEF7C0FE002221000020C043FEF798FE42
:104AD000002010BD84020020F0B581B00400BB4D61
:104AE0002078C0074CD50C21E8680840082808D079
:104AF00080204002EA6811400C290AD1E96801408F
:104B000007D0286880033BD56068002838D1012091
:104B10005BE26168814207D0A022D20291422968FB
:104B200006D182000A432A602968084328600AE007
:104B3000A74A0A402A60296808400090009828681F
:104B4000A449014029608027BF02606800280BD07B
:104B5000FEF79AFE06002868384011D1FEF794FE51
:104B6000801B6528F7D32DE2FEF78EFE060028682D
:104B7000384005D0FEF788FE801B6528F7D321E278
:104B80002078800718D50C21E8680840042806D052
:104B9000E86801400C2937D1E868C00334D428689C
:104BA000400702D5E0680128B1D16868C1490140D9
:104BB00020690002084368602078C00600D4BFE086
:104BC0006F0DE8680C21014000D0CFE02868074055
:104BD00002D0E06900289AD0606AF02100226B6858
:104BE000E02636021E4086425FD20092EA681140FB
:104BF0003FD1C0214901B04F80225205AB6B134019
:104C000027D03A680A402DE0E0680427002810D039
:104C100029680922914308432860FEF735FE060003
:104C200028683840C1D1FEF72FFE801B0328F7D338
:104C3000C8E12868012188432860FEF725FE0600A8
:104C400028683840B8D0FEF71FFE801B0328F7D332
:104C5000B8E1AB6B1A43AA633A680A40AB6BB44E37
:104C60001E40AE638A4204D1C900884201D10120AE
:104C70000090B048016801229143009A0A43026003
:104C80000068C107C90F0098814200D03FE76868FB
:104C9000A9490140606A0843686068680002000A28
:104CA000216A09060143696039E06B68A24E1E4023
:104CB0003043686068680002000A236A1B060343E9
:104CC0006B60606A0092EA6811401AD1C021490104
:104CD000794F80225205AB6B134002D03A680A40EC
:104CE00008E0AB6B1A43AA633A680A40AB6B904E7C
:104CF0001E40AE638A4204D1C900884201D101201E
:104D000000908C48016801229143009A0A43026096
:104D10000068C107C90F0098814200D0F7E6012062
:104D2000616A490B491C8840C003A949EA68120618
:104D3000120F895CC840A74908600320FFF7B8FE3E
:104D40002078000757D560690028286D44D00121DC
:104D500001432965FEF798FD0600286D80074AD4B7
:104D6000FEF792FD801B0328F7D32BE1E0690028B2
:104D700028681CD0A90D01432960FEF785FD0600B7
:104D80002868384005D1FEF77FFD801B0328F7D344
:104D900018E1686868490140606A084368606868AB
:104DA0000002000A216A090601436960C8E78A49CE
:104DB00001402960FEF768FD060028683840BFD032
:104DC000FEF762FD801B0328F7D3FBE000100240D2
:104DD000FFFFFEFFFFFFFBFF012188432865FEF771
:104DE00053FD0600286D800705D5FEF74DFD801B9D
:104DF0000328F7D3E6E02078400766D5002000902E
:104E000080225205A86B104004D1A86B0243AA630C
:104E100001200090284F3868C0050FD43868A90DCC
:104E200001433960FEF730FD06003868C00505D43F
:104E3000FEF72AFD801B6528F7D3C3E0A068A90D03
:104E4000884202D1286D014315E0002801D1286D68
:104E50000BE0A021C9008842286D06D1290D01432D
:104E60002965286DA90D014305E05B4901402965CD
:104E7000286D5A49014029656F0DA06800280CD0A3
:104E8000FEF702FD0600286D384017D1FEF7FCFC46
:104E9000801BAA498842F6D394E0FEF7F5FC060091
:104EA000286D38400AD0FEF7EFFC801BA3498842EA
:104EB000F6D387E0FFE0FFFF007000400098002875
:104EC00003D0A86B1A490140A9632078800635D524
:104ED0009B48A1690029A96816D001220A43AA604B
:104EE000696B01220A436A630168420C0A4302604B
:104EF000FEF7CAFC0600A86880071FD4FEF7C4FCB2
:104F0000801B0328F7D35DE001229143A96001686B
:104F10008C4A0A400260FEF7B7FC0600A8688007CA
:104F20000CD5FEF7B1FC801B0328F7D34AE000BF85
:104F3000FFFFFFEF00200240FF1FFFFFA06A0028D5
:104F400042D0E9680C220A400C2A00D1DFE5802714
:104F5000BF047D490228286827D101402960FEF757
:104F600093FC06002868384005D0FEF78DFC801BB6
:104F70000328F7D326E0E86898490140E06A08432F
:104F8000216B0143606B0843E8602868790801439E
:104F90002960FEF779FC06002868384014D1FEF736
:104FA00073FC801B0328F7D30CE001402960FEF757
:104FB0006BFC06002868384006D0FEF765FC801BB5
:104FC0000328F7D3032000E0002001B0F0BD00006B
:104FD000F86D000884020020FFFEFFFFFFFBFFFFCB
:104FE000F2B504007E480068C107C90F00988142ED
:104FF0000DD27B480068012188430099014378481D
:1050000001600068C107C90F0098814270D1754DD9
:105010002078800705D5E868F0218843A16801431E
:10502000E9602078C0074ED56068022802D129685F
:10503000890308E0032802D12968890103E00128D7
:10504000296802D1490702D452E0890550D5E968A0
:10505000032291430843E860FEF716FC07006068EE
:105060000C2602280AD1E868304008282BD0FEF729
:105070000BFCC01B31498842F5D322E003280AD13A
:10508000E86830400C281ED0FEF7FEFBC01B2B4901
:105090008842F5D315E001280AD1E8683040042899
:1050A00011D0FEF7F1FBC01B24498842F5D308E07C
:1050B000E868304007D0FEF7E7FBC01B1F49884275
:1050C000F6D3032037E0009845490968CA07D20F94
:1050D00090420FD242480068012188430099014361
:1050E0003F4801600068C107C90F0098814201D0A4
:1050F000012020E02078400705D5E8683A490140C2
:10510000E0680843E8602078000706D5E86837497A
:1051100001402069C0000843E86000F017F83449F6
:10512000EA681206120F895CC84032490860032001
:10513000FFF7BEFC002001B0F0BD000089130000A5
:1051400020000140FFDFFFFFFFFFFFFE00B5254A03
:10515000D1680C200840042804D0082809D00C2865
:1051600009D01EE01068C00601D5244800BD2448BF
:1051700000BD244800BD24488B021B0FC05C0902FF
:10518000890F491CD368DB0301D51E4A05E012686C
:10519000D20601D5194A00E0194A5043FFF730FC06
:1051A00000BD506801210004400F401C8140C8032D
:1051B00000BD1048006815490F4A12685205520F89
:1051C000895CC84070470B48006810490A4A126859
:1051D0009204520F895CC84070470000FFFF02FF35
:1051E0000020024000100240FFF8FFFFFFC7FFFF52
:1051F000F86D0008840200200C10024000093D00F8
:105200000024F40000127A00086E0008506F0008B5
:10521000F9B595B014004A487844FF3025300CC8E1
:1052200013A80CC0099108AD0020E86101E00098C6
:10523000241800206946C88013AB0022D243210005
:1052400001A8801C00F031FD0090012805DA2078CB
:10525000411E8941C943C90F00916846C08825286D
:10526000009F00D17F1E012F0EDB260031780998A8
:10527000159A90470990002800D1ECE0E869401C9D
:10528000E861761C7F1EF1D16846C088252804D1CC
:10529000002028616861A86108E06846C08800288D
:1052A000C5D1E869D9E0010001200843641C2178D8
:1052B0002029F8D023290ED02B2904D02D2907D05E
:1052C00030290BD00DE001000220084380B2EDE749
:1052D00001000420F9E701000820F6E70100102092
:1052E000F3E72A2912D116990968169A11600A68FB
:1052F000091D169B19606A62002A05D55142696230
:1053000001000420084380B2641C12E0002169629D
:105310000AE06A6A0B4B9A4205D093009A18520031
:10532000511830396962641C21780A00303A0A2A1F
:10533000EFD321782E2907D00021C943296225E027
:10534000181C0000FFFFFF7F641C21782A290AD166
:1053500016990968169A11600A68091D169B19604A
:105360002A62641C12E0002129620AE02A6AC34B07
:105370009A4205D093009A18520051183039296288
:10538000641C21780A00303A0A2AEFD3288526784F
:10539000310000BFBAA000F096FC002801D0641CC8
:1053A00000E000262A202E54285C682806D12078A8
:1053B000682803D162202A216854641C02A8E8608E
:1053C0002678641C252E15D0582E55D0632E00D17A
:1053D000B3E0642E00D18EE0692E00D18BE06F2EF9
:1053E0004AD0702E3BD0732E0AD0752E44D0782E22
:1053F00042D0CAE001202861252069460872CFE02A
:105400002A20285C6C28169800681699086017D026
:105410000668001D16990860AE602F6A002F03D53C
:105420003000FFF71BF809E03A000021300000F0DF
:1054300054FC002801D0801B00E038006861AFE018
:105440000268001D1699086008A9159800F042F935
:10545000002800D4A4E00020C04317B0F0BD169887
:105460000068169908600168001D169A106008917E
:1054700002A8A86078215CE02A20285C6C2801D171
:10548000169810E0712801D1169802E06A28169843
:1054900009D10268D21D072082431698026003CA10
:1054A000169B1A6005E0016801600868091D169ADC
:1054B000116008902A20285C682802D1089880B2E0
:1054C00003E0622802D10898C0B208902820285C26
:1054D000000729D50898002826D0202030437828B6
:1054E00022D12869302102AA1154401C411C296193
:1054F00002A90E5418E016992A20285C00F0C4F87E
:105500000890002802D528692D2109E0288D8107FF
:1055100002D528692B2103E0C00705D52869202181
:1055200002AA1154401C286102A829694018A860E9
:10553000310008A800F0F8F932E02A20285C6C2835
:105540000CD001202861169800681699086001683F
:10555000001D169A10606846017221E016980068D6
:10556000169908600168001D169A1060684601804F
:10557000002069464880C04328626A4608A91598F9
:1055800000F0A8F800280BD565E701202861252048
:1055900069460872300003D00220286102A84670D4
:1055A000686A2969401AA969401A6969401A009015
:1055B0002820285C400711D42020694608710098F3
:1055C00001280BDB009E012301AA08A9159800F011
:1055D00027FA002800D03EE7761EF4D12F6902AEEC
:1055E000002F0DD031780998159A9047099000281E
:1055F00000D130E7E869401CE861761C7F1EF1D1DC
:10560000302069460871AE69012E0ADB012301AA28
:1056100008A9159800F004FA002800D01BE7761EB0
:10562000F4D1AE686F69002F0DD031780998159AC2
:1056300090470990002800D10DE7E869401CE86117
:10564000761C7F1EF1D12820285C400700D4F0E5AD
:105650002020694608710098012800DAE9E5009EDB
:10566000012301AA08A9159800F0DAF9002800D052
:10567000F1E6761E00D1DCE5F2E700BFFFFFFF7F19
:10568000686C747A4C000000622815D068280CD031
:105690006C2818D0742816D07A2814D10A680A60A9
:1056A0001068121D0A60002170470A680A601068BD
:1056B000121D0A6000B20BE00A680A601068121D31
:1056C0000A6040B204E00A680A601068121D0A60AD
:1056D000C1177047F4B59AB007000C00206A002883
:1056E00000D58E48039000F004FB616A081806900C
:1056F0008BA003C807AA03C22820205C400702D45D
:105700000698412806D209A8029040200690002061
:1057100005900EE000F0F2FA02900028F7D1002088
:10572000C043F8E01A98801C1A9003980199401A17
:1057300003900398012800DA93E007AA1A980188D9
:1057400000A8401C00F036FB0190002800D59FE027
:105750001A980088002804D10198401E019000D5B5
:1057600096E00398019988427BDB20690699019AAB
:105770008218914264D2002161624142A069081AF4
:105780006169401A04902820205C400710D4202032
:1057900069460870049801280ADB049D01236A46C3
:1057A0002100380000F03CF9002871D16D1EF5D1C0
:1057B0002669029D002E0BD029786068B84760608A
:1057C000002865D0E069401CE0616D1C761EF3D1B5
:1057D000302069460870A569012D09DB01236A465E
:1057E0002100380000F01CF9002851D16D1EF5D1C0
:1057F000A5686669002E0BD029786068B84760609C
:10580000002845D0E069401CE0616D1C761EF3D194
:105810002820205C400710D5202069460870049895
:1058200001280ADB049D01236A462100380000F0AC
:10583000F7F800282CD16D1EF5D1002005902061CD
:10584000019A00A9491C02982369C01800F0BEFA09
:1058500020690199401820611A980088002800D01A
:1058600060E7059800284FD1606A2169401AA16954
:10587000401A6169461A2820205C400711D4012E85
:105880000FDB350020216068B8476060002803D135
:105890000020C043059037E0E069401CE0616D1EC8
:1058A000F0D12369029A2100380000F0B9F80028ED
:1058B000EED1A569012D0ADB30216068B847606030
:1058C0000028E5D0E069401CE0616D1EF4D16369F9
:1058D000A2682100380000F0A3F80028D8D12820C1
:1058E000205C40070DD5012E0BDB350020216068C0
:1058F000B84760600028CBD0E069401CE0616D1EB5
:10590000F4D1002020616062029809A9884201D088
:1059100000F08AFA05981BB0F0BD0000FFFFFF7F82
:105920000000000000000000F2B582B00400E06852
:1059300000906846007A6F2801D1082506E02022F1
:105940000243782A01D00A2500E010251827216893
:105950000E00642801D0692803D1002901D57042C6
:105960000600002E0DD1206A00280AD1082D31D161
:105970002820205C00072DD5172730200099C875F6
:1059800028E07F1E019730002900FFF739F83031F9
:10599000C9B23A2903DB6846007A513809180098E1
:1059A000C15530002900FFF72BF8060004D0A0688D
:1059B0000099C9198842E4D3082D0BD12820205C16
:1059C000000707D50098C05D302803D07F1E302027
:1059D0000099C8551820C01B60610099C919A160C1
:1059E000216A884206DA081AA061208D0B4901401D
:1059F000218510E000290ED52821615C14220A407F
:105A0000102A08D1616A2269891AA269891A0F1AB3
:105A1000012F00DBA76103B0F0BD0000EFFF000025
:105A2000F1B50E0014000027002B0FD01D002178C7
:105A30007068009A90477060002806D0F069401C9A
:105A4000F061641C6D1E01D0F1E7FF433800F2BD28
:105A500030B581B00100002001296BD0022977D038
:105A6000042900D183E0082900D198E0102900D151
:105A7000AAE0202906D0402934D080221201914288
:105A800000D0A7E0544A136DC024A402116D214038
:105A900080256D02A94201D1990566E06D00A942F9
:105AA00004D1990700D495E04C4893E0A14200D07E
:105AB00090E011680D4000D18CE010682101014098
:105AC00080204003814209D04000814204D020015F
:105AD000814205D142487DE042487BE0424879E07E
