:020000040800F2
:10000000900500207D5600085556000857560008F8
:10001000995600089D560008A156000800000000EF
:10002000000000000000000000000000A5560008CD
:100030005956000800000000A95600085B56000849
:10004000AD560008B1560008B5560008B95600086C
:10005000BD560008C1560008C5560008C95600081C
:10006000CD560008D1560008D5560008D9560008CC
:10007000DD560008E1560008E5560008E95600087C
:10008000ED560008F1560008F5560008F95600082C
:10009000FD56000801570008055700085F56000884
:1000A000095700080D570008115700081557000898
:1000B000195700081D570008215700082557000848
:1000C000295700082D5700083157000835570008F8
:1000D000395700083D5700084157000845570008A8
:1000E00065560008495700084D5700085157000849
:1000F00055570008595700085D5700086157000818
:1001000065570008695700086D57000871570008C7
:1001100075570008795700087D5700088157000877
:1001200085570008895700088D5700089157000827
:1001300095570008995700089D570008A1570008D7
:10014000A5570008A9570008AD570008B157000887
:10015000B5570008B9570008BD570008C157000837
:10016000C5570008C9570008CD570008D1570008E7
:10017000D5570008D9570008DD57000800000000D7
:10018000E1570008E557000870B5044682B0A06842
:100190000668356800208DF800006946204601F0A9
:1001A00009FC00B39DF80000217888421BD104218E
:1001B000204601F096FDB0B14021204601F006FC3A
:1001C00088B10021204601F010FD60B1DFF88C09F4
:1001D00070600021204601F06BFC20B10021204618
:1001E00001F013FC10B9012002B070BD012028708D
:1001F000607102B0002070BD70B5044682B0A06886
:1002000005682E6800208DF800006946204601F040
:10021000D1FB002800F0CC809DF8000021788842B6
:1002200040F0C6800021204602F0E6F9002800F0E8
:10023000BF800021204602F099FA002800F0B88023
:100240000021204601F0D5FF002800F0B1800021F8
:10025000204602F03DF9002800F0AA800021204647
:1002600002F017F9002800F0A3800021204602F0D8
:1002700085F9002800F09C800021204602F038FA21
:10028000002800F095800021204601F0B2FF0028F0
:1002900000F08E800021204601F0E8FF002800F0E9
:1002A00087800021204601F0FDFC002800F08080BE
:1002B0000021204601F091FD002879D00021204640
:1002C00001F0AAFD002873D00021204602F0D9FADF
:1002D00000286DD00021204602F0CCF9002867D01C
:1002E0000021204602F080FA002861D0002120463B
:1002F00001F07FFF00285BD00021204601F098FF2D
:10030000002855D00021204601F0CFFF00284FD013
:100310000021204601F0E7FF002849D000212046B7
:1003200001F00AFF002843D00021204601F023FFFE
:1003300000283DD00021204601F03CFF002837D0A6
:100340000021204602F039F9002831D00021204652
:1003500002F0EDF960B30021204601F04AFF38B306
:100360000021204601F064FF10B30021204601F077
:100370009CFFE8B10021204601F0B5FFC0B100218B
:10038000204601F0CEFF98B10021204602F007F888
:1003900070B10021204601F0CFFE48B10021204677
:1003A00001F0E9FE20B10021204601F003FF10B961
:1003B000012002B070BD0021204602F0C0F80028E4
:1003C000F6D00021204602F074F90028F0D0002178
:1003D000204601F0E3FC0028EAD00021204601F08D
:1003E0001BFD0028E4D00021204602F024F900285B
:1003F000DED00021204602F0D8F90028D8D0002114
:10040000204601F0F6FE0028D2D00021204602F05E
:1004100022F80028CCD00021204601F0A2FF0028BD
:10042000C6D0A07978B1A0680068011D204600F010
:10043000AFF90128BCD00021204601F039FB00288B
:10044000B6D00020A071002068603070607102B0EA
:1004500070BD000010B50446A07901285CD0A068EA
:10046000006890ED010ADFED9B0AB4EE600AF1EE40
:1004700010FA48BF102147D4DFED970AB4EE600AA6
:10048000F1EE10FA48BF20213ED4DFED940AB4EE1D
:10049000600AF1EE10FA48BF302135D4DFED900A42
:1004A000B4EE600AF1EE10FA48BF40212CD4DFED23
:1004B0008D0AB4EE600AF1EE10FA48BF502123D441
:1004C000DFEDAF0AB4EE600AF1EE10FA48BF60212A
:1004D0001AD4DFEDAC0AB4EE600AF1EE10FA48BFB0
:1004E000702111D4DFEDA80AB4EE600AF1EE10FA23
:1004F00048BF802108D4DFEDA50AB4EE600AF1EE12
:1005000010FA4CBF9021A021204601F0D1FA08B981
:10051000012010BD0120A071002010BD30B504469F
:1005200081B0A07900284ED0A0680068051D6946FA
:10053000204601F0DCFA002840D09DF80000002899
:1005400030D010282CD0202827D0302822D0402886
:100550001DD0502818D0602813D070280ED08028C5
:1005600009D0902804D0A02825D1DFF8080619E08A
:10057000DFF8FC0516E0DFF8F40513E0DFF8E80526
:1005800010E0DFF8E0050DE0DFF8D4050AE0DFF861
:10059000CC0507E0DFF8C00504E0DFF8E80501E07E
:1005A000DFF8E40528600021204601F081FA40B917
:1005B000012001B030BDDFF8D4052860012001B072
:1005C00030BD0020A07101B030BD00B581B001F098
:1005D000F1F9401E8041C00F01B000BD10B582B0DE
:1005E000044600208DF800006946204601F0E2F93B
:1005F00020B19DF800002178884202D0012002B08D
:1006000010BD002002B010BD2DE9F04184B00C46B1
:100610000021CDE900118046694601F025FA002845
:1006200054D09DF801109DF800209DF8040002EBC5
:1006300001269DF803109DF8022002EB01279DF88A
:10064000051000EB012502A9404601F0FDF9002844
:100650003CD09DF808000C2838D8DFE800F01037AF
:100660003737073737370D3737370A009FED850A99
:1006700007E09FED850A04E09FED840A01E09FED0D
:10068000840A36B200EE906AF8EEE00A60EE800A64
:10069000FDEEE00AC4ED000A3FB200EE907AF8EEFB
:1006A000E00A60EE800AFDEEE00AC4ED010A2DB218
:1006B00000EE905AF8EEE00A20EE800ABDEEC00A85
:1006C00084ED020A002004B0BDE8F081012004B0EE
:1006D000BDE8F081010050410100D04101005042CD
:1006E0000100D0420100504310B582B00C4669466B
:1006F0000022C1E9002201F0B7F910B9012002B0CF
:1007000010BD9DF801109DF8002002EB0121218011
:100710009DF802209DF8031002EB012161809DF8F5
:1007200004009DF8051000EB0120A08002B000201D
:1007300010BD000010B582B00C46694601F084F986
:10074000D0B19DF800000C2813D8DFE800F00712A4
:100750001212101212120C1212120E004C482060CB
:1007600002B0002010BD4948F9E74748F7E745487F
:10077000F5E7DFF81C042060012002B010BD000086
:100780000100D043014050440180CF440120504536
:1007900010B582B00C46694601F0A9F910B90120E4
:1007A00002B010BD9DF80000C8B110281BD0202851
:1007B0001CD030281DD040281ED050281FD06028C3
:1007C00020D0702821D0802822D0902823D0A028A3
:1007D00024D0DFF8B803206002B0012010BD2060F3
:1007E00002B0002010BDDFF8A003F8E7DFF89403A3
:1007F000F5E7DFF86403F2E7DFF86003EFE7DFF81F
:100800006003ECE7DFF85C03E9E7DFF85C03E6E7A9
:10081000DFF85803E3E7DFF85803E0E7DFF85403B5
:10082000DDE7000000B581B08279012A13D10429E7
:100830000ED8DFE801F0090907050300402104E0B4
:10084000302102E0202100E0102101F031F9B0B99F
:10085000012001B000BD806800680429F8D8DFE8F5
:1008600001F00B0B08060400F2E7BC4906E0BA49A8
:1008700004E0DFF8101301E0DFF80C134160002002
:1008800001B000BD23DBF93E23DB793E23DBF93DDC
:1008900023DB793D00B581B081790129DFED8F0A35
:1008A00055D1B4EE600AF1EE10FA48BF102147D4DA
:1008B000DFED8B0AB4EE600AF1EE10FA48BF20219A
:1008C0003ED4DFED880AB4EE600AF1EE10FA48BFBC
:1008D000302135D4DFED840AB4EE600AF1EE10FA6F
:1008E00048BF40212CD4DFED970AB4EE600AF1EE48
:1008F00010FA48BF502123D4DFED930AB4EE600A0A
:10090000F1EE10FA48BF60211AD4DFED900AB4EE80
:10091000600AF1EE10FA48BF702111D4DFED8C0AA5
:10092000B4EE600AF1EE10FA48BF802108D4DFED82
:10093000890AB4EE600AF1EE10FA4CBF9021A021B2
:1009400001F0B6F800285FD1012001B000BD806839
:100950000068B4EE600AF1EE10FA48BFB2EE0A0A7F
:1009600050D4DFED5F0AB4EE600AF1EE10FA48BF32
:10097000B3EE0A0A46D4DFED5B0AB4EE600AF1EE8C
:1009800010FA48BF9FED740A3CD4DFED570AB4EE6D
:10099000600AF1EE10FA48BF9FED700A32D4DFED25
:1009A000690AB4EE600AF1EE10FA48BF9FED6C0AD6
:1009B00028D4DFED650AB4EE600AF1EE10FA48BF04
:1009C0009FED680A1ED4DFED610AB4EE600AF1EE15
:1009D00010FA48BF9FED640A14D4DFED5D0AB4EE4F
:1009E000600AF1EE10FA48BF9FED600A0AD4DFED0D
:1009F000590AB4EE600AF1EE10FA4CBF9FED5C0AA2
:100A00009FED5C0A80ED010A002001B000BD0000EE
:100A100010B582B00C46694601F016F8F0B19DF8A9
:100A200000000C2817D8DFE800F00716161613167A
:100A300016160D16161610004FF08040206002B0FA
:100A4000002010BD4FF08140F8E74FF08240F5E7FD
:100A50004FF08340F2E7DFF838012060012002B058
:100A600010BD000000B5042981B010D8DFE801F006
:100A7000030F0B0F0D00002100F0C7FF401E804147
:100A8000C00F01B000BD0821F6E70C21F4E70120FA
:100A900001B000BDDFED380A00B5B4EE600AF1EE3A
:100AA00010FA81B048BF002111D4DFED340AB4EE52
:100AB000600AF1EE10FA48BF082108D4DFED300AD1
:100AC000B4EE600AF1EE10FA4CBF0C21042100F0E4
:100AD0009CFF401E8041C00F01B000BD010050418D
:100AE0000100D041010050420100D04200B581B068
:100AF000012300F04DFF401E8041C00F01B000BD3A
:100B000000B581B001238DF800206A4600F049FF4E
:100B1000401E8041C00F01B000BD10B582B00C4630
:100B2000694601F048FA48B19DF80000002818BF56
:100B3000012803D1207002B0002010BD012002B0B6
:100B400010BD0000010050430100D043014050445B
:100B50000180CF4401205045000050420000D042A7
:100B6000000050430000D043004050440080CF4478
:100B7000002050450020D045010000400100804089
:100B8000010000410000D04100005041000080BF42
:100B9000000080BFDFED540A00B5B4EE600AF1EE4C
:100BA00010FA81B048BF102147D4DFED500AB4EEEF
:100BB000600AF1EE10FA48BF20213ED4DFED4C0A66
:100BC000B4EE600AF1EE10FA48BF302135D4DFED03
:100BD000490AB4EE600AF1EE10FA48BF40212CD465
:100BE000DFED450AB4EE600AF1EE10FA48BF50217D
:100BF00023D4DFED420AB4EE600AF1EE10FA48BFEA
:100C000060211AD4DFED3E0AB4EE600AF1EE10FA6C
:100C100048BF702111D4DFED3B0AB4EE600AF1EE5B
:100C200010FA48BF802108D4DFED370AB4EE600A1D
:100C3000F1EE10FA4CBF9021A02100F039FF401EC8
:100C40008041C00F01B000BD30B5044681B0A0792D
:100C500001280D469FED2D0A07D12046FFF79AFF88
:100C6000012806D1012001B030BDA068006880EDE8
:100C7000010A0021204600F0C8FE002831D00621DC
:100C8000204601F025FC60B30021204601F0E3FB83
:100C900038B30021204601F0BFFB10B300212046ED
:100CA00001F09CFBE8B10321204601F0F2FBC0B14A
:100CB0008021204601F09DFA98B125B1012D0AD07E
:100CC000012001B030BD1021204601F095FC40B15B
:100CD000002001B030BD1021204601F047FD002862
:100CE000F6D1012001B030BD010050410100D041DA
:100CF000010050420100D042010050430100D043A6
:100D0000014050440180CF44012050450000D043B1
:100D100010B50446002101F06FFC70B1002120469F
:100D200001F024FD48B10021204601F062FA20B113
:100D30000021204601F0CCFB08B9012010BD0021A4
:100D4000204601F0A6FB401E8041C00F10BD10B52B
:100D500082B00C46694601F08EF848B19DF800005B
:100D600010B1202804D10120207002B0002010BD55
:100D7000012002B010BD00B581B001F08AFB401E19
:100D80008041C00F01B000BD10B50446B3EE0A0AA1
:100D9000A079012805D12046FFF7FCFE012804D1E7
:100DA00010BDA068006880ED010A0021204600F017
:100DB0002CFE70B11721204601F063FD48B10421DB
:100DC000204601F029F820B11021204601F005F855
:100DD00008B9012010BD8021204600F063FF401EAD
:100DE0008041C00F10BD10B50446002100F05AFF2D
:100DF00048B10021204600F0F0FF20B1002120463C
:100E000001F00AF808B9012010BD0021204601F0C8
:100E100038FD401E8041C00F10BD10B582B00C4699
:100E2000694601F04AF948B19DF8000010B1102858
:100E300004D10120207002B0002010BD012002B0BA
:100E400010BD00B581B001F005FD401E8041C00F0E
:100E500001B000BD00B581B0022100F080FF401E4E
:100E60008041C00F01B000BD00B581B0002100F08D
:100E700076FF401E8041C00F01B000BD00B581B0BB
:100E800001F0FFFC401E8041C00F01B000BD30B535
:100E9000044681B0A07901280D46B3EE0A0A07D1B5
:100EA0002046FFF777FE012806D1012001B030BDB2
:100EB000A068006880ED010A0021204600F0A5FD31
:100EC000E8B10421204600F0A7FFC0B10821204668
:100ED00000F064FF98B125B1012D0AD0012001B0C6
:100EE00030BD0221204601F02AFB40B1002001B0B4
:100EF00030BD0221204601F0DCFB0028F6D10120A4
:100F000001B030BD10B50446002101F018FB48B116
:100F10000021204601F0CDFB20B10021204600F049
:100F20003DFF08B9012010BD0021204600F074FFEC
:100F3000401E8041C00F10BD10B582B00C466946FE
:100F400001F0CBF848B19DF8000010B1202804D181
:100F50000120207002B0002010BD012002B010BDA1
:100F600030B5044681B0A07901280D469FEDBA0A3C
:100F700007D12046FFF70EFE012806D1012001B05F
:100F800030BDA068006880ED010A0021204600F015
:100F90003CFD10B30021204601F05DFAE8B10221CA
:100FA000204601F0DEF9C0B18021204601F021F990
:100FB00098B125B1012D0AD0012001B030BD20210A
:100FC000204601F038FB40B1002001B030BD2021A7
:100FD000204601F0EAFB0028F6D1012001B030BD27
:100FE00010B50446002101F026FB70B10021204617
:100FF00001F0DBFB48B10021204601F0FAF820B1F6
:101000000021204601F027FA08B9012010BD002177
:10101000204601F0A6F9401E8041C00F10BD10B55A
:1010200082B00C46694600F016FF48B19DF80000FA
:1010300010B1082804D10120207002B0002010BD9A
:10104000012002B010BD00B581B001F08AF9401E48
:101050008041C00F01B000BD30B5044681B0A07919
:1010600001280D469FED7C0A07D12046FFF792FD2F
:10107000012806D1012001B030BDA068006880EDD4
:10108000010A0021204600F0C0FC002837D00821CA
:10109000204601F08FF8002831D00421204601F0CD
:1010A0006AF860B30221204601F046F838B30821FF
:1010B000204601F0BDF810B30221204601F0F5F8FA
:1010C000E8B10121204601F00EF9C0B1802120468F
:1010D00001F08FF898B125B1012D0AD0012001B09F
:1010E00030BD4021204601F0C5FA40B1002001B0DA
:1010F00030BD4021204601F077FB0028F6D10120C9
:1011000001B030BD10B50446002101F0B3FA10B3B0
:101110000021204601F068FBE8B10021204601F0E3
:1011200068F8C0B10021204601F082F898B1002192
:10113000204601F0BAF870B10021204601F0D3F842
:1011400048B10021204600F0F7FF20B100212046E1
:1011500001F011F808B9012010BD0021204601F06E
:1011600029F8401E8041C00F10BD10B582B00C465A
:10117000694600F0A0FE48B19DF8000010B120289B
:1011800004D10120207002B0002010BD012002B067
:1011900010BD000030B5044681B0A07901280D468D
:1011A0009FED2D0A07D12046FFF7F4FC012806D158
:1011B000012001B030BDA068006880ED010A002167
:1011C000204600F022FC002843D00821204600F0F1
:1011D000F1FF00283DD00421204600F0CCFF00287C
:1011E00037D00221204600F0A7FF002831D0082187
:1011F000204601F01DF860B30321204601F055F8A8
:1012000038B30321204601F06EF810B308212046C0
:1012100001F087F8E8B18021204601F0C0F8C0B1A4
:101220008021204600F0E5FF98B125B1012D0AD0BC
:10123000012001B030BD0821204601F0BEF940B1C7
:10124000002001B030BD0821204601F070FA0028CE
:10125000F6D1012001B030BD0000D04310B50446E6
:10126000002101F0AAF900282CD00021204601F02D
:101270005EFA38B30021204600F0BBFF10B3002116
:10128000204600F0D5FFE8B10021204601F00DF81E
:10129000C0B10021204601F026F898B10021204677
:1012A00001F03FF870B10021204601F078F848B114
:1012B0000021204600F040FF20B10021204600F030
:1012C0005AFF08B9012010BD0021204600F072FF2E
:1012D000401E8041C00F10BD10B582B00C4669465B
:1012E00000F0D9FD48B19DF8000010B1102804D1DC
:1012F0000120207002B0002010BD012002B010BDFE
:1013000000B581B000F094FF401E8041C00F01B0D5
:1013100000BD00B581B000F0C8FF401E8041C00F85
:1013200001B000BD00B581B000F0DDFF401E80417E
:10133000C00F01B000BD00B581B000F0F2FF401E4B
:101340008041C00F01B000BD30B5044681B0A07926
:1013500001280D469FED1A0A07D12046FFF71AFC17
:10136000012806D1012001B030BDA068006880EDE1
:10137000010A0021204600F048FBE8B14021204648
:1013800000F074FFC0B18021204600F032FF98B118
:1013900025B1012D0AD0012001B030BD0421204625
:1013A00001F0ECF840B1002001B030BD042120462E
:1013B00001F09EF90028F6D1012001B030BD0000F7
:1013C0000000D04310B50446002101F0D7F848B121
:1013D0000021204601F08CF920B10021204600F0C8
:1013E00008FF08B9012010BD0021204600F03EFF93
:1013F000401E8041C00F10BD10B582B00C4669463A
:1014000000F0C9FD48B19DF8000010B1402804D19A
:101410000120207002B0002010BD012002B010BDDC
:1014200010B582B00C46694600F055FD48B19DF8F4
:101430000000002818BF012803D1207002B000204E
:1014400010BD012002B010BD10B582B00C46694637
:1014500000F051FD48B19DF8000010B1022804D100
:101460000120207002B0002010BD012002B010BD8C
:1014700010B582B00C46694600F04DFD48B19DF8AC
:10148000000010B1042804D10120207002B0002017
:1014900010BD012002B010BD10B582B00C466946E7
:1014A00000F049FD48B19DF8000010B1082804D1B2
:1014B0000120207002B0002010BD012002B010BD3C
:1014C00010B582B00C46694600F045FD48B19DF864
:1014D000000010B1102804D10120207002B00020BB
:1014E00010BD012002B010BD10B582B00C46694697
:1014F00000F041FD48B19DF8000010B1202804D152
:101500000120207002B0002010BD012002B010BDEB
:1015100030B583B004460020ADF804008DF8060015
:1015200000900D460421284601F0ECF9012301AAA0
:101530001B21204600F02CFA002800F0A88001238F
:101540000DF103021C21204600F022FA002800F0D1
:101550009E8001230DF106021D21204600F018FA9D
:10156000002800F0948001230DF10202532120464F
:1015700000F00EFA002800F08A8001230DF101022C
:101580005E21204600F004FA002800F0808001234C
:101590006A465F21204600F0FBF9002877D001233E
:1015A0000DF105020D21204600F0F2F900286ED061
:1015B0009DF80100C00603D49DF80000C00607D5C1
:1015C0009DF80400800603D5286840F001002860DB
:1015D0009DF80100800603D49DF80000800607D521
:1015E0009DF80400000703D5286840F00800286033
:1015F0009DF80100400603D49DF80000400607D581
:101600009DF80300800603D5286840F0020028609A
:101610009DF80100000703D49DF80000000707D5DE
:101620009DF80300C00603D5286840F00400286038
:101630009DF80100400703D49DF80000400707D53E
:101640009DF80600400603D5286840F04000286059
:101650009DF80500000607D59DF80200C00603D5D9
:10166000286840F0100028609DF80100800703D42E
:101670009DF80000800707D59DF80200800603D57D
:10168000286840F020002860002003B030BD012011
:1016900003B030BDDFED840A00B5B4EE600AF1EEB0
:1016A00010FA81B048BF082147D4DFED800AB4EEBC
:1016B000600AF1EE10FA48BF10213ED4DFED7C0A3B
:1016C000B4EE600AF1EE10FA48BF182135D4DFED10
:1016D000790AB4EE600AF1EE10FA48BF20212CD44A
:1016E000DFED750AB4EE600AF1EE10FA48BF28216A
:1016F00023D4DFED720AB4EE600AF1EE10FA48BFAF
:1017000030211AD4DFED6E0AB4EE600AF1EE10FA61
:1017100048BF382111D4DFED6B0AB4EE600AF1EE58
:1017200010FA48BF402108D4DFED670AB4EE600A22
:10173000F1EE10FA4CBF4821502100F075FA401E1E
:101740008041C00F01B000BD10B582B00C466946A3
:1017500000F072FC68B19DF8000020B1202806D08E
:10176000012002B010BD207002B0002010BD012089
:10177000F9E7012002B010BD10B582B00C466946F1
:1017800000F04AFC68B19DF8000020B1102806D096
:10179000012002B010BD207002B0002010BD012059
:1017A000F9E7012002B010BD10B582B00C466946C1
:1017B00000F052FC68B19DF8000020B1402806D02E
:1017C000012002B010BD207002B0002010BD012029
:1017D000F9E7012002B010BD00B581B000F04CFC6B
:1017E000401E8041C00F01B000BD00B581B001F0C6
:1017F0001AF8401E8041C00F01B000BD00B581B095
:1018000000F0E9FB401E8041C00F01B000BD00B5F3
:10181000072981B006D800F0A9F9401E8041C00F09
:1018200001B000BD012001B000BD000070B582B064
:101830000D460446694600F0F6FF002831D09DF8B9
:1018400001009DF8001041EA00260DF1020120463A
:1018500000F0FAF828B39DF802000C2821D8DFE840
:1018600000F010202020072020200D2020200A003A
:101870009FED160A07E09FED160A04E09FED150A9A
:1018800001E09FED150A36B200EE906AF8EEE00A2C
:1018900020EE800ABDEEC00A85ED000A002002B0ED
:1018A00070BD012002B070BD010020410100C8419F
:1018B000010048420100C842010048430100C843FA
:1018C000010048440100C84401404E4523DBF93E75
:1018D00023DB793E23DBF93D23DB793D00B5062987
:1018E00081B00CD8DFE801F004040B04040B040001
:1018F00000F07BF9401E8041C00F01B000BD012007
:1019000001B000BD00B50A0018BF202981B006D182
:1019100000F0A9F9401E8041C00F01B000BD0120B8
:1019200001B000BD00B581B000F0F1F8401E80416B
:10193000C00F01B000BD00B50A0018BF802981B0FA
:1019400006D100F033F9401E8041C00F01B000BD48
:10195000012001B000BD00B5012981B006D800F01A
:10196000CCFB401E8041C00F01B000BD012001B082
:1019700000BD00B5032981B006D800F0D1F9401EA2
:101980008041C00F01B000BD012001B000BD0000CA
:1019900000B581B001F09AF8401E8041C00F01B03F
:1019A00000BD00B581B001F047F8401E8041C00F76
:1019B00001B000BD00B50A4681B001230F2101F03E
:1019C00085F8401E8041C00F01B000BD30B581B028
:1019D0000D46044601236A46122101F077F810B142
:1019E000002001B030BD9DF8000000F0BF0028438A
:1019F0008DF8000001236A461221204601F01CF8F0
:101A0000401E8041C00F01B030BD30B581B00D46E1
:101A1000044601236A46102101F058F810B1002055
:101A200001B030BD9DF8000000F0F30028438DF8B0
:101A3000000001236A461021204600F0FDFF401EF1
:101A40008041C00F01B030BD10B50C4601232246C5
:101A5000102101F03BF808B1002010BD207800F003
:101A60000C002070012010BDF0B581B004460D4679
:101A700000260327F6B206F128010123AA19C9B2EC
:101A8000204601F023F850B9761CF6B206F1280181
:101A90000123AA19C9B2204601F018F810B100209C
:101AA00001B0F0BD761C7F1EE4D1012001B0F0BD75
:101AB00030B581B00D46044601236A46102101F07D
:101AC00005F810B1002001B030BD9DF8000000F015
:101AD0000F0028438DF8000001236A46102120469C
:101AE00000F0AAFF401E8041C00F01B030BD10B50C
:101AF0000C4601232246102100F0E8FF08B1002027
:101B000010BD207800F0F0002070012010BD70B5ED
:101B100082B0044601236A460D46062100F0D6FF36
:101B20002E0A78B98DF8005001236A460621204616
:101B300000F082FF30B901236A460721204600F0F9
:101B4000C5FF10B1002002B070BD9DF8000066F323
:101B500002008DF8000001236A460721204600F0AC
:101B60006BFF401E8041C00F02B070BD30B581B028
:101B70000D46044601236A46082100F0A7FF10B174
:101B8000002001B030BD9DF8000000F0F8002843AF
:101B90008DF8000001236A460821204600F04CFF22
:101BA000401E8041C00F01B030BD000030B581B093
:101BB0000D46044601236A46092100F087FF10B153
:101BC000002001B030BD9DF8000000F07F002843E8
:101BD0008DF8000001236A460921204600F02CFF01
:101BE000401E8041C00F01B030BD30B581B00D4600
:101BF000044601236A460A2100F068FF10B1002064
:101C000001B030BD9DF8000000F0F80028438DF8C9
:101C1000000001236A460A21204600F00DFF401E05
:101C20008041C00F01B030BD30B581B00D460446D3
:101C300001236A460A2100F049FF10B1002001B0DB
:101C400030BD9DF8000000F0870028438DF80000AB
:101C500001236A460A21204600F0EEFE401E804124
:101C6000C00F01B030BD30B581B00D460446012330
:101C70006A460D2100F02AFF10B1002001B030BDEE
:101C80009DF8000000F0DF0028438DF800000123DC
:101C90006A460D21204600F0CFFE401E8041C00F55
:101CA00001B030BD30B581B00D46044601236A460F
:101CB0000D2100F00BFF10B1002001B030BD9DF8E8
:101CC000000000F07F0028438DF8000001236A46E1
:101CD0000D21204600F0B0FE401E8041C00F01B033
:101CE00030BD30B581B00D46044601236A4612214D
:101CF00000F0ECFE10B1002001B030BD9DF80000F6
:101D000000F0FB0028438DF8000001236A461221F1
:101D1000204600F091FE401E8041C00F01B030BD52
:101D200030B581B00D46044601236A46142100F007
:101D3000CDFE10B1002001B030BD9DF8000000F0D4
:101D4000FC0028438DF8000001236A461421204638
:101D500000F072FE401E8041C00F01B030BD30B5B2
:101D600081B00D46044601236A46192100F0AEFEFB
:101D700010B1002001B030BD9DF8000000F0FD0062
:101D800028438DF8000001236A461921204600F0FF
:101D900053FE401E8041C00F01B030BD30B581B050
:101DA0000D46044601236A46192100F08FFE10B14A
:101DB000002001B030BD9DF8000000F0F70028437E
:101DC0008DF8000001236A461921204600F034FEF8
:101DD000401E8041C00F01B030BD30B581B00D460E
:101DE000044601236A46192100F070FE10B100205C
:101DF00001B030BD9DF8000000F0EF0028438DF8E1
:101E0000000001236A461921204600F015FE401EFD
:101E10008041C00F01B030BD30B581B00D460446E1
:101E200001236A46192100F051FE10B1002001B0D3
:101E300030BD9DF8000000F0FB0028438DF8000045
:101E400001236A461921204600F0F6FD401E80411C
:101E5000C00F01B030BD10B50C46012322461B2136
:101E600000F034FE08B1002010BD207800F008001A
:101E70002070012010BD10B50C46012322461B2105
:101E800000F024FE08B1002010BD207800F02000F2
:101E90002070012010BD10B50C46012322461C21E4
:101EA00000F014FE08B1002010BD207800F01000F2
:101EB0002070012010BD10B50C46012322461C21C4
:101EC00000F004FE08B1002010BD207800F02000D2
:101ED0002070012010BD10B50C46012322461D21A3
:101EE00000F0F4FD08B1002010BD207800F00100E2
:101EF0002070012010BD10B50C46012322461D2183
:101F000000F0E4FD08B1002010BD207800F00200D0
:101F10002070012010BD10B50C46012322461D2162
:101F200000F0D4FD08B1002010BD207800F00400BE
:101F30002070012010BD10B50C46012322461D2142
:101F400000F0C4FD08B1002010BD207800F00800AA
:101F50002070012010BD10B50C46012322461D2122
:101F600000F0B4FD08B1002010BD207800F0100092
:101F70002070012010BD10B50C46012322461D2102
:101F800000F0A4FD08B1002010BD207800F0200072
:101F90002070012010BD10B50C46012322461D21E2
:101FA00000F094FD08B1002010BD207800F0400042
:101FB0002070012010BD10B50C46012322461E21C1
:101FC00000F084FD08B1002010BD207800F0010071
:101FD0002070012010BD30B581B00D4604460123AC
:101FE0006A463A2100F072FD38B901230DF1010271
:101FF0003B21204600F06AFD10B1002001B030BD49
:102000009DF801009DF8001000F00F0041EA00204B
:10201000288001B0012030BD10B50C4601232246B6
:102020003B2100F053FD08B1002010BD207800F0E6
:1020300010002070012010BD10B50C46012322466F
:102040003B2100F043FD08B1002010BD207800F0D6
:1020500020002070012010BD10B50C46012322463F
:102060003B2100F033FD08B1002010BD207800F0C6
:1020700040002070012010BD30B581B00D460446EF
:1020800001236A463C2100F021FD38B901230DF1FE
:1020900001023D21204600F019FD10B1002001B0E1
:1020A00030BD9DF801009DF8001000F0030041EAEA
:1020B0000020288001B0012030BD10B50C4601235E
:1020C0002246532100F002FD08B1002010BD207807
:1020D00000F010002070012010BD10B50C46012347
:1020E0002246532100F0F2FC08B1002010BD2078F8
:1020F00000F020002070012010BD30B581B00D46E9
:10210000044601236A46582100F0E0FC10B100208B
:1021100001B030BD9DF8000000F0FE0028438DF8AE
:10212000000001236A465821204600F085FC401E2D
:102130008041C00F01B030BD30B581B00D460446BE
:1021400001236A46582100F0C1FC10B1002001B003
:1021500030BD9DF8000000F0FD0028438DF8000020
:1021600001236A465821204600F066FC401E80414B
:10217000C00F01B030BD30B581B00D46044601231B
:102180006A46582100F0A2FC10B1002001B030BD19
:102190009DF8000000F0FB0028438DF800000123AB
:1021A0006A465821204600F047FC401E8041C00F7F
:1021B00001B030BD30B581B00D46044601236A46FA
:1021C000582100F083FC10B1002001B030BD9DF813
:1021D000000000F0F70028438DF8000001236A4654
:1021E0005821204600F028FC401E8041C00F01B05D
:1021F00030BD30B581B00D46044601236A465821F2
:1022000000F064FC10B1002001B030BD9DF800006A
:1022100000F07F0028438DF8000001236A46582112
:10222000204600F009FC401E8041C00F01B030BDC7
:1022300030B581B00D46044601236A46592100F0AD
:1022400045FC10B1002001B030BD9DF8000065F3E1
:1022500004008DF8000001236A465921204600F051
:10226000EBFB401E8041C00F01B030BD30B581B0E6
:102270000D46044601236A46592100F027FC10B19F
:10228000002001B030BD9DF8000000F09F00284301
:102290008DF8000001236A465921204600F0CCFB4E
:1022A000401E8041C00F01B030BD30B581B00D4639
:1022B000044601236A465A2100F008FC10B10020B0
:1022C00001B030BD9DF8000065F301008DF80000FD
:1022D00001236A465A21204600F0AEFB401E804191
:1022E000C00F01B030BD30B581B00D4604460123AA
:1022F0006A465A2100F0EAFB10B1002001B030BD5F
:102300009DF8000065F383008DF8000001236A4604
:102310005A21204600F090FB401E8041C00F01B0C2
:1023200030BD30B581B00D46044601236A465A21BE
:1023300000F0CCFB10B1002001B030BD9DF80000D2
:1023400000F00F0040EA05108DF8000001236A46F6
:102350005A21204600F070FB401E8041C00F01B0A2
:1023600030BD30B581B00D46044601236A465B217D
:1023700000F0ACFB10B1002001B030BD9DF80000B2
:1023800065F305008DF8000001236A465B212046B5
:1023900000F052FB401E8041C00F01B030BD30B58F
:1023A00081B00D46044601236A465B2100F08EFB96
:1023B00010B1002001B030BD9DF8000000F07F009A
:1023C00028438DF8000001236A465B21204600F077
:1023D00033FB401E8041C00F01B030BD30B581B02D
:1023E0000D46044601236A465C2100F06FFB10B1E4
:1023F000002001B030BD9DF8000065F303008DF8AA
:10240000000001236A465C21204600F015FB401EB7
:102410008041C00F01B030BD30B581B00D460446DB
:1024200001236A465C2100F051FB10B1002001B08D
:1024300030BD9DF8000000F0EF0028438DF800004B
:1024400001236A465C21204600F0F6FA401E8041D6
:10245000C00F01B030BD30B581B00D460446012338
:102460006A465C2100F032FB10B1002001B030BDA3
:102470009DF8000065F346108DF8000001236A46C0
:102480005C21204600F0D8FA401E8041C00F01B008
:1024900030BD30B581B00D46044601236A465D214A
:1024A00000F014FB10B1002001B030BD9DF8000019
:1024B00000F0F80028438DF8000001236A465D21F2
:1024C000204600F0B9FA401E8041C00F01B030BD77
:1024D00070B582B0044601236A460E465D2100F0C5
:1024E000F5FA7509A8B99DF8000000F0070040EA68
:1024F000C6008DF8000001236A465D21204600F0E9
:102500009BFA30B901236A465C21204600F0DEFACE
:1025100010B1002002B070BD9DF8000000F07F00F7
:1025200040EAC5108DF8000001236A465C21204670
:1025300000F082FA401E8041C00F02B070BD30B57D
:1025400081B00D46044601236A465E2100F0BEFAC2
:1025500010B1002001B030BD9DF8000000F0FD007A
:1025600028438DF8000001236A465E21204600F0D2
:1025700063FA401E8041C00F01B030BD30B581B05C
:102580000D46044601236A465E2100F09FFA10B111
:10259000002001B030BD9DF8000000F0FB00284392
:1025A0008DF8000001236A465E21204600F044FABF
:1025B000401E8041C00F01B030BD30B581B00D4626
:1025C000044601236A465E2100F080FA10B1002023
:1025D00001B030BD9DF8000000F0F70028438DF8F1
:1025E000000001236A465E21204600F025FA401EC5
:1025F0008041C00F01B030BD30B581B00D460446FA
:1026000001236A465E2100F061FA10B1002001B09A
:1026100030BD9DF8000000F0EF0028438DF8000069
:1026200001236A465E21204600F006FA401E8041E2
:10263000C00F01B030BD30B581B00D460446012356
:102640006A465E2100F042FA10B1002001B030BDB0
:102650009DF8000000F0DF0028438DF80000012302
:102660006A465E21204600F0E7F9401E8041C00F17
:1026700001B030BD30B581B00D46044601236A4635
:102680005E2100F023FA10B1002001B030BD9DF8AA
:10269000000000F0BF0028438DF8000001236A46C7
:1026A0005E21204600F0C8F9401E8041C00F01B0F5
:1026B00030BD30B581B00D46044601236A465F2126
:1026C00000F004FA10B1002001B030BD9DF8000008
:1026D00000F0FD0028438DF8000001236A465F21C9
:1026E000204600F0A9F9401E8041C00F01B030BD66
:1026F00030B581B00D46044601236A465F2100F0E3
:10270000E5F910B1002001B030BD9DF8000000F0E7
:10271000FB0028438DF8000001236A465F21204614
:1027200000F08AF9401E8041C00F01B030BD30B5C5
:1027300081B00D46044601236A465F2100F0C6F9C8
:1027400010B1002001B030BD9DF8000000F0F7008E
:1027500028438DF8000001236A465F21204600F0DF
:102760006BF9401E8041C00F01B030BD30B581B063
:102770000D46044601236A465F2100F0A7F910B117
:10278000002001B030BD9DF8000000F0EF002843AC
:102790008DF8000001236A465F21204600F04CF9C5
:1027A000401E8041C00F01B030BD30B581B00D4634
:1027B000044601236A465F2100F088F910B1002029
:1027C00001B030BD9DF8000000F0DF0028438DF817
:1027D000000001236A465F21204600F02DF9401ECB
:1027E0008041C00F01B030BD30B581B00D46044608
:1027F00001236A465F2100F069F910B1002001B0A1
:1028000030BD9DF8000000F0BF0028438DF80000A7
:1028100001236A465F21204600F00EF9401E8041E8
:10282000C00F01B030BD30B50D4681B00446012364
:102830002A463E2100F04AF930B901236A1C3F21A3
:10284000204600F043F910B1002001B030BD012056
:1028500001B030BD30B50D4681B0044601232A4693
:102860004B2100F033F930B901236A1C4C2120467A
:1028700000F02CF910B1002001B030BD012001B0F2
:1028800030BD30B581B00D46044601236A460121B2
:1028900000F01CF958B99DF8000040F080008DF858
:1028A000000001236A460121204600F0C5F80123FB
:1028B0000DF101020F21204600F008F99DF80100FA
:1028C00065F304008DF8010001230DF101020F21D1
:1028D000204600F0B1F801236A460121204600F0AD
:1028E000F5F858B99DF8000000F07F008DF8000061
:1028F00001236A460121204600F09EF8012001B024
:1029000030BD0000002200F08FB9000030B5BF4C90
:1029100087B0204600F002FE002844D1BC48BD4DDF
:10292000606001A93320A0600120E060BA48206007
:10293000686940F002006861686900F00200009078
:1029400000984FF4407001901220029002200490F1
:102950000020039004200590B04800F02DFE286A66
:1029600040F4001028620022286A00F40010009051
:1029700000210098286840F400102860286820F49E
:10298000001028601F2000F020FF1F2000F046FFED
:1029900000220021202000F018FF202000F03EFF40
:1029A000204600F071F9204600F0B8FD20280CBF49
:1029B0000020012007B030BD70B5994D994C974E5D
:1029C0008CB0286840F00200286006A9286800F052
:1029D00002000090009807942020069002200990A1
:1029E00000200890304600F0E7FD0022002117206B
:1029F00000F0EBFE172000F011FF286840F0020005
:102A0000286001A9286800F0020000900098029454
:102A1000102001900220049000200390304600F026
:102A2000CBFD002200210A2000F0CFFE0A2000F09A
:102A3000F5FE00200CB070BD2DE9F043044683B0D4
:102A40002078332818BF4028884616461F4603D0F2
:102A5000B12806D0BC2822D1022F20DB48F0800804
:102A60001DE00025380016D0DFF8A0914FF480500B
:102A7000029000960120019005EB0802A178012345
:102A8000D2B2484600F072F908B1484615E06D1C14
:102A9000761CBD42EADB002003B0BDE8F0834FF4B2
:102AA0008050029001970096584DA178012342462C
:102AB000284600F05BF928B1284600F03DF900F007
:102AC0004EF8012003B0BDE8F08300002DE9F0438B
:102AD000044683B02078332818BF4028884616461D
:102AE0001F4603D0B12806D0BC2822D1022F20DBFC
:102AF00048F080081DE00025380016D0DFF80C9162
:102B00004FF48050029000960120019005EB0802DE
:102B1000A1780123D2B2484600F018FB08B148461C
:102B200015E06D1C761CBD42EADB002003B0BDE859
:102B3000F0834FF48050029001970096334DA178B6
:102B400001234246284600F001FB28B1284600F048
:102B5000F3F800F004F8012003B0BDE8F08330B5CD
:102B60002A4C87B0204600F0D9FC002844D12848E0
:102B7000284D606001A93320A0600120E060264854
:102B80002060686940F002006861686900F0020036
:102B9000009000984FF440700190122002900220A3
:102BA000049000200390042005901C4800F004FDD0
:102BB000286A40F4001028620022286A00F40010FD
:102BC000009000210098286840F4001028602868D0
:102BD00020F4001028601F2000F0F7FD1F2000F0F7
:102BE0001DFE00220021202000F0EFFD202000F03B
:102BF00015FE204600F048F8204600F08FFC202803
:102C00000CBF0020012007B030BD0000900500205F
:102C10003A14D1103810024000540040000400481B
:102C20004C10024000001110401810F0030308D0AF
:102C3000C91A1FD3DB0748BF00F8012D28BF20F8B1
:102C4000022D130030B414461546103928BF20E970
:102C50003C00FAD8490728BF20E90C0048BF40F8DB
:102C6000042D890028BF20F8022D48BF00F8012D4F
:102C700030BC7047C91818BF00F8012DCB0728BF1A
:102C800000F8012D7047000010B5040001D10120AB
:102C900010BD94F8410020B984F84000204600F0AF
:102CA00089FC242084F84100206801684908490013
:102CB00001606068216820F07060086120688168A8
:102CC00021F400418160E06821680128A0680CBF00
:102CD00040F4004040F404408860E068022803D1DA
:102CE00021684FF4006048602068416841F000713D
:102CF00041F4004141602068C16821F40041C16095
:102D0000206961690843A16940EA01202168C8601F
:102D1000E069216A0843216808602068016841F081
:102D20000101016000206064202084F8410000203F
:102D3000206384F8420010BD10B5040001D10120C9
:102D400010BD242084F8410020680168490849002A
:102D50000160204600F088FD0020606484F8410096
:102D6000206384F8420084F8400010BD2DE9F0474C
:102D70000546894695F8410020289246984640F03D
:102D8000E181089E002E00F09E81099C200000F049
:102D90009A8195F84000012800F0D481012085F83F
:102DA000400000F063FD07462868816909040FD5DB
:102DB00000F05CFDC01B1A28F6D3202085F84100E6
:102DC000002085F8420085F840000320BDE8F08728
:102DD000212185F841105FFA88F2402185F84210E0
:102DE000002169646E626C856963C9F309044168F6
:102DF000DFF81C9709EA0101214341EA024141F051
:102E0000807141F4005141600A9E296888698007F9
:102E10004CD48869C0063BD52868816989061BD4D3
:102E200016F1010FF8D026B100F020FDC01B86423C
:102E3000F2D2202085F84100002085F8420085F874
:102E40004000686C686C042840F0A380002085F87E
:102E500040000120BDE8F0871021C16120202968D1
:102E6000C86128688169890744BF00218162286898
:102E70008169C90703D4816941F001018161286832
:102E8000DFF8902641681140416004206864D0E773
:102E900016F1010FB9D026B100F0E8FCC01B864244
:102EA000B3D2686C40F020006864C2E7B8F1010F4B
:102EB00048D04FEA1A20886228688169890741D47E
:102EC0008069C00628D528688169890609D416F169
:102ED000010FF8D06EB300F0C9FCC01B8642F2D2DD
:102EE00027E01021C16120202968C8612868816914
:102EF000890744BF0021816228688169C90703D41A
:102F0000816941F0010181612868DFF80826416884
:102F10001140416004200BE016F1010FCCD026B126
:102F200000F0A4FCC01B8642C6D2686C40F02000B2
:102F30006864202085F84100002085F8420085F86B
:102F400040007EE728685FFA8AF18162286881691B
:102F5000090611D416F1010FF8D026B100F086FC55
:102F6000C01B8642F2D2202085F84100002085F85F
:102F7000420085F8400065E7698DFF290FD9FF21E0
:102F80002985DFF89425416809EA010121431143AD
:102F900010E0002085F840000320BDE8F087698D2F
:102FA0002985C9B2426809EA0202224342EA014184
:102FB00041F00071416028688169890721D43A464F
:102FC0003146284600F0ADFAA0B916F1010FF2D053
:102FD00026B100F04BFCC01B8642ECD2686C40F07E
:102FE00020006864202085F84100002085F8420018
:102FF00085F84000686C042840F0A1800120BDE8FD
:10300000F087696A4A1C6A6209788162688D401E8D
:103010006885288D401E288580B290BB688D80B35E
:1030200028688169090613D416F1010FF8D026B17A
:1030300000F01CFCC01B8642F2D2202085F8410023
:10304000002085F8420085F840000320BDE8F087A5
:10305000698DFF2909D9FF212985DFF8BC24416842
:1030600009EA0101214311430AE0698D2985C9B2AA
:10307000426809EA0202224342EA014141F000713A
:103080004160688D002896D128688169890644D4FA
:103090008069C00636D528688169890616D416F17C
:1030A000010FF8D026B100F0E1FBC01B8642F2D23E
:1030B000202085F84100002085F8420085F8400076
:1030C000686C04283BD10120BDE8F0871021C16164
:1030D00020202968C86128688169890744BF0021C8
:1030E000816228688169C90703D4816941F00101BF
:1030F00081612868DFF81C24416811404160042088
:103100006864D5E726B100F0B1FBC01B8642BBD294
:10311000686C40F020006864CAE72021C16128681B
:10312000DFF8F023416811404160202085F841001C
:10313000002085F8420085F84000BDE8F0870320B4
:10314000BDE8F0870220BDE8F08700002DE9F047D8
:103150000546894695F8410020289246984640F059
:10316000D481089E002E00F09181099C200000F07F
:103170008D8195F84000012800F0C781012085F875
:10318000400000F073FB07462868816909040FD5E9
:1031900000F06CFBC01B1A28F6D3202085F84100F4
:1031A000002085F8420085F840000320BDE8F08744
:1031B000222185F841105FFA88F2402185F84210FB
:1031C000002169646E626C856963C9F30904416812
:1031D000DFF83C9309EA0101214341EA024141F44D
:1031E000005141600A9E2968886980074CD488692B
:1031F000C0063BD52868816989061BD416F1010FEA
:10320000F8D026B100F032FBC01B8642F2D220205B
:1032100085F84100002085F8420085F84000686C80
:10322000686C042840F0A480002085F8400001204C
:10323000BDE8F0871021C16120202968C861286895
:103240008169890744BF0021816228688169C907B3
:1032500003D4816941F0010181612868DFF8B4225B
:1032600041681140416004206864D0E716F1010F05
:10327000B9D026B100F0FAFAC01B8642B3D2686C0E
:1032800040F020006864C2E7B8F1010F48D04FEA6F
:103290001A20886228688169890741D48069C0063C
:1032A00028D528688169890609D416F1010FF8D05C
:1032B0006EB300F0DBFAC01B8642F2D227E0102189
:1032C000C16120202968C86128688169890744BFD5
:1032D0000021816228688169C90703D4816941F0AE
:1032E000010181612868DFF82C22416811404160AA
:1032F00004200BE016F1010FCCD026B100F0B6FA95
:10330000C01B8642C6D2686C40F020006864202052
:1033100085F84100002085F8420085F840007EE7EE
:1033200028685FFA8AF1816228688169490611D4A8
:1033300016F1010FF8D026B100F098FAC01B8642B2
:10334000F2D2202085F84100002085F8420085F85F
:10335000400065E7698DFF2910D9FF212985416863
:1033600009EA0101214341F0FE7141F4493112E0C3
:10337000002085F840000320BDE8F087698D29858D
:10338000C9B2426809EA0202224342EA014141F01D
:10339000007141F41051416028688169490713D4D4
:1033A00016F1010FF8D026B100F060FAC01B86427A
:1033B000F2D2202085F84100002085F8420085F8EF
:1033C00040000320BDE8F087696A4A1C6A62406ACF
:1033D0000870288D401E288580B2698D491E698538
:1033E00090BB688D80B328688169090613D416F1F3
:1033F000010FF8D026B100F039FAC01B8642F2D294
:10340000202085F84100002085F8420085F8400022
:103410000320BDE8F087698DFF2909D9FF2129859F
:10342000DFF8F420416809EA0101214311430AE071
:10343000698D2985C9B2426809EA0202224342EA3B
:10344000014141F000714160688D0028A4D12868D5
:103450008169890644D48069C00636D528688169A7
:10346000890616D416F1010FF8D026B100F0FEF946
:10347000C01B8642F2D2202085F84100002085F84A
:10348000420085F84000686C04283BD10120BDE86B
:10349000F0871021C16120202968C86128688169EE
:1034A000890744BF0021816228688169C90703D464
:1034B000816941F0010181612868DFF85820416885
:1034C0001140416004206864D5E726B100F0CEF9D0
:1034D000C01B8642BBD2686C40F020006864CAE71B
:1034E0002021C1612868DFF82C204168114041602B
:1034F000202085F84100002085F8420085F8400032
:10350000BDE8F0870320BDE8F0870220BDE8F08722
:10351000009800FC00E800FE0000FF0190F8410068
:10352000704770B504460D4620688069C00616468F
:103530003AD520688169890612D415F1010FF8D0B7
:1035400025B100F093F9801B8542F2D2202084F847
:103550004100002084F8420084F84000032070BD40
:103560001021C16120202168C86120688169890714
:1035700044BF0021816220688169C90703D4816941
:1035800041F0010181612068094A416811404160B0
:1035900004206064202084F84100002084F8420068
:1035A00084F84000012070BD002070BD00000000C4
:1035B00000E800FE704700002DE9F04F81B00C6874
:1035C000714BDFF8C881DFF8C8910022002C4FF062
:1035D0000F0A4FF0010B00F0BE800C680BFA02FCE2
:1035E0001CEA040E00F0B2804C68022C18BF122CAA
:1035F0000ED1D40800EB84049500266A05F01C0562
:103600000AFA05F7BE430F6907FA05F53543256247
:103610005400032506680F79A540ED4307F0030722
:103620002E40A7403E4306604E68012E18BF022E72
:1036300003D0112E18BF122E0ED18668CF682E40EF
:10364000A7403E43866046684F68C7F3001726EAE6
:103650000C0697403E4346604E6806F00307032F72
:1036600007D1C76AC6F3C00627EA0C0796403E4357
:10367000C662C6682E408D6805FA04F43443C460FF
:103680004C68E40062D5D9F8004044F00104C9F860
:1036900000404FEA920CD9F8005005F00104009464
:1036A0009500009C58F82C6005F00C040AFA04F50B
:1036B00026EA0505B0F1904F08BF00261DD0354E13
:1036C000B04208BF012618D0334EB04208BF0226D0
:1036D00013D0324EB04208BF03260ED0304EB04257
:1036E00008BF042609D02F4EB04208BF052604D0DB
:1036F0002D4EB0420CBF0626072606FA04F42C43D2
:1037000048F82C406FEA0E061C684D683440ED0303
:1037100048BF4EEA04041C605C684D683440AD0349
:1037200048BF4EEA04045C609C684D683440ED027A
:1037300048BF4EEA04049C60DC6806EA040C4C684E
:10374000A40248BF4EEA0C0CC3F80CC0521C0C6813
:10375000D4407FF442AF01B0BDE8F08F006908406B
:10376000401E8041C043C00F70470AB1816170475D
:10377000816270470D4A136803421CBF106000F05D
:10378000F4B8704700000000000401400800014048
:10379000601002400004004800080048000C004887
:1037A00000100048001400480018004814040140AC
:1037B00027490A684FF6FF0300021A4000F4E06050
:1037C0001043244A10430860704730B4204B1B68F4
:1037D000C3F30223C3F10704052C28BF04241D1DD5
:1037E000072D34BF0023DB1E012505FA04F4641EF7
:1037F0002140994005FA03F35B1E1A401143090169
:10380000002807D5144A00F00F00104400F8041CEB
:1038100030BC7047114A115430BC7047012100F090
:103820001F0291400E4A400942F820107047401E86
:10383000B0F1807F01D3012070470A494860F02031
:1038400081F8130D00208860072008600020704771
:103850000CED00E00000FA0518ED00E000E400E0E7
:1038600000E100E010E000E070470000014800685F
:10387000704700BF2406002010B582B000F09EF80B
:1038800000F0AAF8002000F0DFF80121002000F08D
:1038900019F9484C04F10801002000F077F90128DB
:1038A00003D1002000F0F8F8FEE7A06800F026FA47
:1038B00047E0022820D1A068694600F067FAD8B92D
:1038C0000098C0F38000B8B1002000F0E5F8642053
:1038D00000F06CFA002000F0EAF8642000F066FACC
:1038E000002000F0D9F8642000F060FA002000F019
:1038F000DEF8642000F05AFA6078012808D1A06848
:10390000002100F00BFA18B901202071002060702E
:10391000A07801280CD1A06800F00EFA40B9A06888
:10392000002100F017FA18B9022020710020A070C1
:10393000E078012805D1A06800F01AFA08B92071D2
:10394000E07020780128D7D100202070207901284C
:10395000AFD1A068694600F019FA0028CCD10098D0
:10396000C0F340000028C7D0BAE700B5B0F5005F4B
:1039700081B016D1002000F0F1F828B90D48017986
:103980000A0003D10121417001B000BD012908BF27
:103990008170F9D0022903D10121C17001B000BDAD
:1039A000FEE7202804D103490120087001B000BDC2
:1039B000FEE7000074010020FEE7000000B581B0C2
:1039C0000320FFF7F5FE0F2000F002FA00F003F8E5
:1039D000002001B000BD704700B597B068460021D7
:1039E000002200230EC006C0442100F007FA102078
:1039F000059001200B9060200D9000200C9002207B
:103A00000F90012010901190282012900220159004
:103A1000072013900420149005A800F0F3F908B1D2
:103A2000FFF7CAFF0F20009004210320019000201F
:103A3000029003900490684600F098FC08B1FFF7EC
:103A4000BBFF17B000BD000010B586B001A9002271
:103A5000002300241CC10CC101000AD1DFF81011A1
:103A60000A6842F001020A60096801F00101009150
:103A700000990FF20C11DFF8FC2031F810100191C1
:103A80000393012102910221049101A952F820001F
:103A9000FFF792FD06B010BD0FF2E401DFF8D4305D
:103AA00031F8101053F820000122FFF75EBE0FF22C
:103AB000D001DFF8C03031F8101053F82000002298
:103AC000FFF753BE30B587B0044601A8002200239B
:103AD00000252CC00CC020000AD1DFF89400026839
:103AE00042F004020260006800F0040000900098B8
:103AF000080011D10FF28C0030F8140001900293ED
:103B000002200490039301A9DFF86C0050F8240010
:103B1000FFF752FD07B030BD01291DD10FF264003F
:103B200030F814000190039301A9DFF850000290CF
:103B300002200490DFF8400050F82400FFF73CFD1D
:103B40000FF2440030F8144000220F2160B2FFF75A
:103B50003CFE60B2FFF762FE07B030BD0FF22401F9
:103B6000DFF8142031F8101052F82000FFF7F6BDEE
:103B70004C10024080010020840100200000211030
:103B800020000000002000002800000010B50C46B6
:103B90000021216068B10128204611D000F016F8FC
:103BA000012804D1204600F055F801280CD000204F
:103BB00010BD204600F00AF80128F8D1012010BD00
:103BC00000F048F80128F2D1012010BD30B5454D74
:103BD00004466879012881B03AD0FEF797FE0128A3
:103BE00036D06A20287000206870D620A870002087
:103BF000A880A8710120E87105F12800A8603A4862
:103C0000E8603A4828613A48A86305F13800A8629C
:103C10000020E8622560E8680168080008D10020FB
:103C20000021002207C503C5206001B0012030BD7E
:103C300028468847012808D120681421FEF762FE33
:103C40000020206001B0012030BDFEF7B5FE00204D
:103C500001B030BD30B5234D0446687E012881B0E7
:103C60003DD0FEF753FE012839D0332028750020BF
:103C700068753220A8750120287600206876A8761D
:103C80000120E87605F13000E8611A48286200203A
:103C900068621948286405F14000286300206863C1
:103CA00005F114002060286A0168080005F114007D
:103CB00008D10021002200230EC006C0216001208F
:103CC00001B030BD8847012808D120681421FEF7D3
:103CD00019FE0020206001B0012030BD002001B09D
:103CE00030BD0000DC050020240100205000002031
:103CF0002A060020000000202806002000B581B020
:103D000018B1C16889680A0002D1012001B000BD64
:103D10008847012818BF002001B000BD00281CBF43
:103D20000269002A06D003786A2B03D1926C130033
:103D300018BF10470120704700281CBF01690029E7
:103D400006D002786A2A03D1C96C0A0018BF084756
:103D50000120704700281CBF0269002A06D00378A2
:103D60006A2B03D1526D130018BF10470120704712
:103D700000281CBF0169002906D002786A2A03D1F5
:103D8000896D0A0018BF08470120704700281CBF32
:103D90000269002A08D039B103786A2B04D1D2F81D
:103DA0009420130018BF10470120704730B581B030
:103DB0000446FFF75BFD14F1010F054618BF641CB4
:103DC000FFF754FD401BA042FAD301B030BD000004
:103DD00010B504460748084A0068A0FB0221480ABB
:103DE000FFF725FD002221464FF0FF30FFF7EDFCE5
:103DF000002010BD88010020986E1283002200F080
:103E0000D5BB00002DE9F041044682B02078DFF8F0
:103E10007857C00640F1B880A86810F00C0F40F049
:103E2000D0802868800703D5A069002800F0C580ED
:103E30002868276A00074EBF2868D5F89400000953
:103E400000F0F000B84248D2A86D0026C00002D5AC
:103E500000F0C6FB0EE0A86D40F08050A865A86D8C
:103E600000F080500090009800F0BAFBA96D21F09E
:103E70008051A965B0F5007F05D1812F0ED3A12F08
:103E80000BD302260AE0812F28BF032606D2802FFB
:103E900001D1022602E0702F00D10126DFF8F006E2
:103EA0000168C90846EAC1010160006800F0070026
:103EB000B04240F08280286840F0080028602868FE
:103EC000216A20F0F000084328606868E16920F466
:103ED0007F4040EA0120686047E0286840F0080021
:103EE000286000262868216A20F0F0000843286036
:103EF0006868E16920F47F4040EA01206860276A31
:103F0000A86DC00002D500F06BFB0EE0A86D40F07C
:103F10008050A865A86D00F080500090009800F0D7
:103F20005FFBA96D21F08051A965B0F5007F05D137
:103F3000812F0ED3A12F0BD302260AE0812F28BF99
:103F4000032606D2802F01D1022602E0702F00D175
:103F50000126DFF83C060168C90846EAC101016094
:103F6000006800F00700B04227D100F0B5FAAA6857
:103F7000DFF82016C2F30312895CC840DFF80C1684
:103F800008600F20FFF724FF2078C00740F18D80E4
:103F9000A86800F00C00082809D0A86800F00C0000
:103FA0000C2802BFE86800F00300032843D128680A
:103FB00080037AD56068002877D1012002B0BDE87F
:103FC000F081A0690028286823D040F00100286013
:103FD000FFF74CFC06462868800708D4FFF746FC2C
:103FE000801B0328F7D3032002B0BDE8F0812868C6
:103FF00040F0080028602868216A20F0F00008439B
:1040000028606868E16920F47F4040EA0120686028
:10401000BAE7400840002860FFF728FC06462868F9
:104020008007B1D5FFF722FC801B0328F7D30320BC
:1040300002B0BDE8F0816068B0F5803F03D1286828
:1040400040F4803010E0B0F5A02F286806D140F48D
:1040500080202860286840F4803005E020F480301B
:104060002860286820F480202860606870B1FFF71D
:10407000FDFB06462868800317D4FFF7F7FB801B7B
:104080006528F7D3032002B0BDE8F081FFF7EEFB0F
:1040900006462868800308D5FFF7E8FB801B6528E3
:1040A000F7D3032002B0BDE8F081207880071CD54B
:1040B000A86800F00C00042809D0A86800F00C00E3
:1040C0000C2802BFE86800F00300022829D1286804
:1040D000400503D5E06800283FF46FAF68682169A8
:1040E00020F0F85040EA016068602078000754D55D
:1040F00060690028D5F894003BD040F00100C5F875
:104100009400FFF7B3FB0646D5F89400800744D42B
:10411000FFF7ACFB801B0328F6D3032002B0BDE8F9
:10412000F081E0680028286811D040F48070286091
:10413000FFF79CFB064628684005CFD4FFF796FBA7
:10414000801B0328F7D3032002B0BDE8F08120F4E0
:1041500080702860FFF78AFB064628684005C4D5B2
:10416000FFF784FB801B0328F7D3032002B0BDE8D0
:10417000F08140084000C5F89400FFF777FB064641
:10418000D5F89400800708D5FFF770FB801B032843
:10419000F6D3032002B0BDE8F0812078400775D542
:1041A000A86D0027C00009D4A86D40F08050A86514
:1041B0000127A86D00F0805000900098DFF8D883A8
:1041C000D8F80000C00516D4D8F8000040F480707C
:1041D000C8F80000FFF74AFB4FEA0006D8F80000D5
:1041E000C00508D4FFF742FB801B0328F6D3032049
:1041F00002B0BDE8F081A068012804D1D5F8900094
:1042000040F0010014E00528D5F8900008D140F0F6
:104210000400C5F89000D5F8900040F0010007E0D8
:1042200040084000C5F89000D5F8900020F0040048
:10423000C5F89000A06890B1FFF718FB4FEA0006A0
:1042400041F28938D5F8900080071AD4FFF70EFBA9
:10425000801B4045F6D3032002B0BDE8F081FFF794
:1042600005FB064641F28938D5F89000800708D54D
:10427000FFF7FCFA801B4045F6D3032002B0BDE8EF
:10428000F0811FB1A86D20F08050A865A06A0028B9
:1042900068D0A96801F00C010C293FF48EAE022809
:1042A000286820F0807028603ED1FFF7DFFA0646CC
:1042B0002868800108D5FFF7D9FA801B0328F7D3B7
:1042C000032002B0BDE8F081206B616B401E090243
:1042D00041EA0010A16B090940EA4140E16A084344
:1042E000E16B891E0905490D40EA4150216C891E88
:1042F000090601F07E410843E860286840F08070BC
:104300002860E86840F08070E860FFF7AFFA064682
:104310002868800126D4FFF7A9FA801B0328F7D369
:10432000032002B0BDE8F0812868000106D42868A7
:10433000800003D4E86880088000E860E868DFF85F
:104340005C120840E860FFF791FA06462868800191
:1043500008D5FFF78BFA801B0328F7D3032002B0A0
:10436000BDE8F081002002B0BDE8F0812DE9F04108
:10437000DFF81C6204463068884600F007004045BC
:1043800009D23068C00848EAC0003060306800F0E8
:10439000070040457AD12078DFF8EC71800705D519
:1043A000B868A16820F0F0000843B8602078C00722
:1043B0005DD56068022802D13968890308E00328C6
:1043C00002D13968890103E00028396804D18907DE
:1043D00004D40120BDE8F081490557D5B9688908A2
:1043E00040EA8100B860FFF741FA0546606802289C
:1043F0000ED1B86800F00C00082838D0FFF736FA64
:10440000401B41F289318842F3D30320BDE8F0819B
:1044100003280ED1B86800F00C000C2827D0FFF755
:1044200025FA401B41F289318842F3D30320BDE8CD
:10443000F08168B9B86810F00C0F18D0FFF716FAC1
:10444000401B41F289318842F4D30320BDE8F0815A
:10445000B86800F00C00042809D0FFF707FA401BE9
:1044600041F289318842F3D30320BDE8F0813068FE
:1044700000F0070080450CD23068C00848EAC00050
:104480003060306800F00700404502D00120BDE8F0
:10449000F0812078400705D5B868E16820F4E06035
:1044A0000843B8602078000706D5B868216920F471
:1044B000605040EAC100B86000F00EF8BA683549B3
:1044C000C2F30312895CC840304908600F20FFF72F
:1044D0007FFC0020BDE8F0812B498B680022002082
:1044E00013F00C0F09D08B6803F00C030C2B02BFE8
:1044F000CB6803F00303012B12D10A68284B120783
:1045000059BFD1F89420C2F303220A68C2F3031200
:1045100053F822208B6813F00C0F0ED110460CE0DC
:104520008B6803F00C03042B08BF1E4805D08B6872
:1045300003F00C03082B08BF1B488B6803F00C0327
:104540000C2B20D1C868CB68C3F302135B1C00F0AE
:104550000300022802D0032804D007E01148B0FB72
:10456000F3F005E01048B0FBF3F001E0B2FBF3F02C
:10457000CA68C968C1F34161C2F30622491C5043AD
:104580004900B0FBF1F070470010024088010020A4
:1045900000200240AC54000800700040FFFFEEFE17
:1045A000BC5400080024F40000127A0000B500BFDB
:1045B000130096469446103928BFA0E80C50FAD84C
:1045C0005FEA417C28BF0CC048BF40F8042BC907F4
:1045D00028BF20F8022B48BF00F8012B00BD0000C7
:1045E000DFF80800006800F4C06070470070004009
:1045F00070B5044682B0A0680668356800208DF862
:1046000000006946204600F049FC50B39DF80000C8
:104610002178884225D18021204600F04BFC00B350
:104620000021204600F060FED8B1DFF8040770607A
:104630000021204600F06CFD98B10021204600F0DA
:1046400058FC70B10121204600F091FD48B10221D3
:10465000204600F0BBFD20B10421204600F0E5FD1E
:1046600010B9012002B070BD01202870607102B045
:10467000002070BDF0B5044681B0A06805682E68C2
:1046800000208DF800006946204600F007FC002855
:1046900046D09DF800002178884241D1A0790028B9
:1046A00035D0A0680068071D6946204600F04FFD20
:1046B000002835D09DF8000008B310281DD0202810
:1046C00018D0302813D040280ED0502809D06028A8
:1046D00004D0702821D1DFF8600610E0DFF854061E
:1046E0000DE0DFF84C060AE0DFF8400607E0DFF8EF
:1046F000580604E0DFF8540601E04FF07E503860C1
:104700000021204600F004FD50B10020A0710020DF
:1047100068603070607101B0F0BDDFF83406386059
:10472000012001B0F0BD000010B50446A0790128B9
:1047300041D0A068006890ED010ADFED430AB4EEB5
:10474000600AF1EE10FA48BF10212CD4DFED3F0AC9
:10475000B4EE600AF1EE10FA48BF202123D4DFED59
:104760003C0AB4EE600AF1EE10FA48BF30211AD4C8
:10477000DFED380AB4EE600AF1EE10FA48BF4021CE
:1047800011D4DFED350AB4EE600AF1EE10FA48BF3D
:10479000502108D4DFEDB60AB4EE600AF1EE10FA4B
:1047A0004CBF60217021204600F0B2FC08B9012006
:1047B00010BD0120A071002010BD30B5044681B0AD
:1047C000A07900283DD0A0680068051D69462046F4
:1047D00000F0BDFC80B39DF8000008B310281DD088
:1047E000202818D0302813D040280ED0502809D0C7
:1047F000602804D070281CD1DFF83C0510E0DFF8F9
:1048000034050DE0DFF828050AE0DFF8200507E0B1
:10481000DFF8340504E0DFF8340501E04FF07E50A6
:1048200028600021204600F073FC40B9012001B04F
:1048300030BDDFF81C052860012001B030BD00202C
:10484000A07101B030BD00000100803F0100204197
:104850000100C841010048420100C84200B581B0D2
:1048600000F01CFB401E8041C00F01B000BD10B520
:1048700082B0044600208DF800006946204600F012
:104880000DFB20B19DF800002178884202D0012064
:1048900002B010BD002002B010BD10B584B00C46AF
:1048A000694600F061FB10B9012004B010BD00980A
:1048B0002060019961600298A06004B0002010BDE2
:1048C00070B584B00C460546694600F0EDFC68B34F
:1048D0000DF10101284600F0D7FC38B39DF8010026
:1048E000082802BF9DF80000002808260AD09DF87D
:1048F0000100D8B99DF8000008B9062602E0082892
:1049000014D1042601A9284600F022FB70B1BDF99C
:10491000040030412080BDF9060030416080BDF9BF
:1049200008003041A08004B0002070BD012004B018
:1049300070BD30B581B00C4605460DF1020100F0A6
:10494000A3FC002800F091800DF10101284600F041
:10495000ABFC002800F089809DF80200002804BF0D
:104960009DF8010000282AD16946284600F0E0FAA7
:1049700000287AD09DF80000B8B110280FD0202868
:1049800007D0302817D1DFF8CC03206001B0002019
:1049900030BDDFF8C403206001B0002030BDDFF877
:1049A000BC03206001B0002030BDDFF8B4032060FC
:1049B00001B0002030BDDFF89803206055E09DF87D
:1049C0000200082804BF9DF8010000282AD169468A
:1049D000284600F0ADFA002847D09DF80000B8B195
:1049E00010280FD0202807D0302817D1DFF8740303
:1049F000206001B0002030BDDFF86C03206001B002
:104A0000002030BDDFF86403206001B0002030BD1D
:104A1000DFF84403206001B0002030BDDFF8300330
:104A2000206022E09DF80200002804BF9DF80100EC
:104A300008281AD16946284600F07AFAA8B19DF8EC
:104A4000000058B1102807D0202803D030280AD100
:104A5000C74804E0C24802E0C64800E0C6482060FB
:104A600001B0002030BDBA482060012001B030BD47
:104A70000100484310B582B00C46694600F067FB60
:104A800010B9012002B010BD9DF8000090B11028AF
:104A900014D0202815D0302815D0402815D0502803
:104AA00015D0602815D0702815D0A948206002B014
:104AB000012010BD206002B0002010BD4FF07E50DC
:104AC000F8E7A248F6E7A048F4E79848F2E79848E4
:104AD000F0E79848EEE79848ECE7000000B581B0B1
:104AE0008279012A15D1042910D8DFE801F00B09D9
:104AF00007050300502106E0402104E0302102E0D8
:104B0000202100E0102100F003FBB8B9012001B022
:104B100000BD806800680429F8D8DFE801F00C0ABD
:104B200008060400F2E7824907E0804905E086496B
:104B300003E0864901E04FF07E514160002001B062
:104B400000BD000000B581B081790129DFED710A57
:104B50003AD1B4EE600AF1EE10FA48BF10212CD41D
:104B6000DFED6D0AB4EE600AF1EE10FA48BF2021C5
:104B700023D4DFED6A0AB4EE600AF1EE10FA48BF02
:104B800030211AD4DFED660AB4EE600AF1EE10FAB5
:104B900048BF402111D4DFED630AB4EE600AF1EEA4
:104BA00010FA48BF502108D4DFED5F0AB4EE600A66
:104BB000F1EE10FA4CBF6021702100F0A9FA002834
:104BC00041D1012001B000BD80680068B4EE600AE8
:104BD000F1EE10FA48BFB7EE000A32D4DFED4E0A0C
:104BE000B4EE600AF1EE10FA48BFB2EE040A28D41F
:104BF000DFED4A0AB4EE600AF1EE10FA48BFB3EEF8
:104C0000090A1ED4DFED460AB4EE600AF1EE10FA8E
:104C100048BF9FED460A14D4DFED420AB4EE600AA5
:104C2000F1EE10FA48BF9FED420A0AD4DFED3E0ACA
:104C3000B4EE600AF1EE10FA4CBF9FED3E0A9FED14
:104C40003E0A80ED010A002001B000BD10B582B01F
:104C50000C46694600F06CF910B9012002B010BD95
:104C60009DF8000050B110280ED020280FD0302819
:104C700010D03748206002B0012010BD4FF08040B6
:104C8000206002B0002010BD4FF08140F8E74FF0E7
:104C90008240F5E74FF08340F2E7000000B50429B9
:104CA00081B010D8DFE801F0030F0B0F0D000021D9
:104CB00000F01FF9401E8041C00F01B000BD10215F
:104CC000F6E72021F4E7012001B000BDDFED1B0A6B
:104CD00000B5B4EE600AF1EE10FA81B048BF0021D1
:104CE00011D4DFED170AB4EE600AF1EE10FA48BFF6
:104CF000102108D4DFED130AB4EE600AF1EE10FAC9
:104D00004CBF2021302100F0F4F8401E8041C00F3C
:104D100001B000BD0100803F010020410100C841F9
:104D2000010048420100C8420100484300004842D7
:104D30000000C842000048430000C8430100004092
:104D400001008040010000410000C84100002041F6
:104D5000000080BF9A993B427B147A41713DFA4032
:104D60009A9979407B943B437B147A427B14FA41B5
:104D70001F853B419A99F93F48E17A3F30B581B0B0
:104D80000D4604460DF1020100F010FA50B10DF18C
:104D90000101204600F039FA20B16946204600F0B2
:104DA00063FA10B9012001B030BD9DF8020001285E
:104DB00018BF002028709DF8010002280CBF0120B8
:104DC000002068709DF8000004280CBF012000201E
:104DD000A87001B0002030BD30B50D4681B004464A
:104DE000287801280CBF01210021204600F0BFF9DE
:104DF00040B1687801280CBF02210021204600F054
:104E0000E5F910B9012001B030BDA87801280CBF28
:104E100004210021204600F008FA401E8041C00F06
:104E200001B030BD00B581B0012300F02EF8401E66
:104E30008041C00F01B000BD04B501236A4600F0F7
:104E40001BF8401E8041C00F01B000BD10B582B0FC
:104E50000C46694600F038FA48B19DF80000002879
:104E600018BF012803D1207002B0002010BD01201E
:104E700002B010BD0000000000B581B0FDF7DCFD00
:104E8000401E8041C00F01B000BD00B581B0FDF7EC
:104E90001DFE401E8041C00F01B000BD00B50A4696
:104EA00081B001230F21FDF711FE401E8041C00F8C
:104EB00001B000BD30B581B00D46044601236A46FD
:104EC0002321FDF703FE10B1002001B030BD9DF895
:104ED000000000F07F0028438DF8000001236A469F
:104EE00023212046FDF7A8FD401E8041C00F01B0E0
:104EF00030BD30B581B00D46044601236A462321FA
:104F0000FDF7E4FD10B1002001B030BD9DF80000B8
:104F100000F0CF0028438DF8000001236A462321CA
:104F20002046FDF789FD401E8041C00F01B030BD15
:104F300010B50C46012322462321FDF7C7FD08B119
:104F4000002010BD207800F030002070012010BD3E
:104F500000B50A4681B006232821FDF7B7FD401EA3
:104F60008041C00F01B000BD2DE9F04184B00C4676
:104F7000804601236A462321FDF7A8FD002728B9B2
:104F80009DF8000000F008008DF8000001230DF1ED
:104F9000010220214046FDF799FD28B99DF8010046
:104FA00000F008008DF801009DF80100082804BFFA
:104FB0009DF8000000281BD14026082501230DF193
:104FC000020223214046FDF781FD28B99DF8020029
:104FD00000F030008DF802009DF80200102805D086
:104FE000202817D0302808BF032714E0012712E03B
:104FF0009DF8010050B99DF8000010B92026062543
:10500000DCE7082802D100260425D7E7002004B0F9
:10501000BDE8F0810227062301AA28214046FDF7BA
:1050200055FD0FF28C00801900EBC700D0E9008716
:10503000BDF904002841C117A8FB002308FB013378
:1050400007FB003312F5FA7043F100014FF47A7256
:10505000002300F069F92060BDF906002841C1175E
:10506000A8FB002308FB013307FB003312F5FA709D
:1050700043F100014FF47A72002300F055F96060AB
:10508000BDF908002841C117A8FB002308FB013324
:1050900007FB003312F5FA7043F100014FF47A7206
:1050A000002300F041F9A06004B00120BDE8F081C8
:1050B000D4030000000000009E0700000000000074
:1050C0003C0F000000000000C82D000000000000A0
:1050D0003C0F0000000000008C1E000000000000DB
:1050E0000E3D00000000000034B70000000000008A
:1050F0000E3D0000000000001C7A000000000000CF
:1051000038F4000000000000BCDC020000000000D9
:1051100030B581B00D46044601236A462021FDF7D3
:10512000D5FC10B1002001B030BD9DF8000000F0AA
:105130000F0028438DF8000001236A4620212046F5
:10514000FDF77AFC401E8041C00F01B030BD10B5A4
:105150000C46012322462021FDF7B8FC08B10020AF
:1051600010BD207800F0F0002070012010BD30B597
:1051700081B00D46044601236A462021FDF7A6FCB6
:1051800010B1002001B030BD9DF8000000F0FE001D
:1051900028438DF8000001236A4620212046FDF7B0
:1051A0004BFC401E8041C00F01B030BD10B50C4615
:1051B000012322462021FDF789FC08B1002010BD03
:1051C000207800F001002070012010BD30B581B0C2
:1051D0000D46044601236A462021FDF777FC10B1F5
:1051E000002001B030BD9DF8000000F0FD00284314
:1051F0008DF8000001236A4620212046FDF71CFCA3
:10520000401E8041C00F01B030BD10B50C460123D7
:1052100022462021FDF75AFC08B1002010BD20785D
:1052200000F002002070012010BD30B581B00D46A5
:10523000044601236A462021FDF748FC10B10020F6
:1052400001B030BD9DF8000000F0FB0028438DF850
:10525000000001236A4620212046FDF7EDFB401E99
:105260008041C00F01B030BD10B50C46012322466D
:105270002021FDF72BFC08B1002010BD207800F0A4
:1052800004002070012010BD10B50C4601232246F9
:105290002021FDF71BFC08B1002010BD207800F094
:1052A00008002070012010BD10B50C4601232246D5
:1052B0002321FDF70BFC08B1002010BD207800F081
:1052C00008002070012010BD10B50C4601232246B5
:1052D0002721FDF7FBFB08B1002010BD207800F06E
:1052E00001002070012010BD30B581B00D4604468C
:1052F00001236A462E21FDF7E9FB10B1002001B021
:1053000030BD9DF8000000F03F0028438DF80000FC
:1053100001236A462E212046FDF78EFB401E804168
:10532000C00F01B030BD000013F0004C03D55B424C
:10533000524263F100039CEA210C00F0178010B583
:10534000644603D34942404261F1000100F00EF887
:10535000640004D34942404261F10001244203D574
:105360005B42524263F1000310BD00001B4213D1A7
:10537000094236D12AB18446B0FBF2F002FB10C2DA
:10538000704700F06BB8FCD30022002370470B007D
:105390000200002100207047904271EB030CF6D30D
:1053A00070B5B1FA81F4B3FA83F52C1BA340C4F1B4
:1053B000200532FA05F63343A2405FF00046E6408E
:1053C00002E05B085FEA3202841A71EB030524BF36
:1053D000204629467641F4D302000B00300000211C
:1053E00070BD012ACFD970B5140C20D0B1FA81F468
:1053F000B2FA82F5C4F120046419B4F12006D6D3C0
:10540000B2405FF00044F440002502E052085FEA39
:105410003303C61A71EB020E24BF30467146644155
:105420006D41F3D302000B002000290070BD0C4633
:10543000B1FBF2F102FB11452D0445EA1045B5FB25
:10544000F2F402FB145580B240EA0545B5FBF2F0D8
:1054500002FB105240EA044070BD0000704700009B
:105460000F48104BD0F8801041F47001C0F8801044
:105470000D490A6842F001020A6000228A600A6847
:105480001A400A604FF48052CA600A6822F48022EF
:105490000A6000228A614FF00061016070470000DD
:1054A00008ED00E0FFFFF6EA0010024000000000F7
:1054B000000000000102030406070809A08601009D
:1054C000400D0300801A060000350C0040420F001A
:1054D00080841E0000093D0000127A000024F400C0
:1054E00000366E010048E801006CDC02F0B401688F
:1054F00044688368014401EB5402E40748BF4B440D
:10550000914202D1F0BC0C30704711F8015B15F0EC
:10551000030604BF11F8014BE61C2C090F2C07D120
:1055200011F8014B0F3403E011F8017B03F8017B04
:10553000761EF9D1002CE3D0AD0811F8016B05F00F
:105540000305032D08BF11F8015B06EB05256D422D
:10555000A41C1D44D4D015F8016B03F8016B641E24
:10556000F9D1CDE719E050F8041BCB0744BFA9F1EE
:1055700001035918121F0023042A41F8043BF9D2F1
:105580005FEA827C0B4604D54FF0000CA1F800C006
:105590009B1CD10744BF0021197050F8042B002A2E
:1055A000E1D1704710B5074979441831064C7C4465
:1055B000163404E00A68081D114488470146A142D8
:1055C000F8D110BD2C000000480000004EF68851B4
:1055D000CEF20001086840F470000860BFF34F8FFE
:1055E000BFF36F8F4FF00070E1EE100A70470000BC
:1055F00075FFFFFF9C0000009005002000000000E8
:10560000EDFEFFFFE401000090020000000000201A
:1056100000F00BF8002801D0FFF7C4FF0020AFF323
:105620000080FEF729F900F002F80120704700F031
:1056300001B800000746384600F002F8FBE700001A
:1056400080B5AFF30080024A11001820ABBEFBE723
:10565000260002007047FEE7704700F007B82020E0
:10566000FEF788B84FF40050FEF784B8024801688E
:10567000491C0160704700BF240600200148804794
:1056800001480047615400088D560008AFF30080C0
:10569000FFF79CFFFFF7BCFFFFF7FEBFFFF7FEBF62
:1056A000FFF7FEBFFFF7FEBFFFF7FEBFFFF7FEBF2E
:1056B000FFF7FEBFFFF7FEBFFFF7FEBFFFF7FEBF1E
:1056C000FFF7FEBFFFF7FEBFFFF7FEBFFFF7FEBF0E
:1056D000FFF7FEBFFFF7FEBFFFF7FEBFFFF7FEBFFE
:1056E000FFF7FEBFFFF7FEBFFFF7FEBFFFF7FEBFEE
:1056F000FFF7FEBFFFF7FEBFFFF7FEBFFFF7FEBFDE
:10570000FFF7FEBFFFF7FEBFFFF7FEBFFFF7FEBFCD
:10571000FFF7FEBFFFF7FEBFFFF7FEBFFFF7FEBFBD
:10572000FFF7FEBFFFF7FEBFFFF7FEBFFFF7FEBFAD
:10573000FFF7FEBFFFF7FEBFFFF7FEBFFFF7FEBF9D
:10574000FFF7FEBFFFF7FEBFFFF7FEBFFFF7FEBF8D
:10575000FFF7FEBFFFF7FEBFFFF7FEBFFFF7FEBF7D
:10576000FFF7FEBFFFF7FEBFFFF7FEBFFFF7FEBF6D
:10577000FFF7FEBFFFF7FEBFFFF7FEBFFFF7FEBF5D
:10578000FFF7FEBFFFF7FEBFFFF7FEBFFFF7FEBF4D
:10579000FFF7FEBFFFF7FEBFFFF7FEBFFFF7FEBF3D
:1057A000FFF7FEBFFFF7FEBFFFF7FEBFFFF7FEBF2D
:1057B000FFF7FEBFFFF7FEBFFFF7FEBFFFF7FEBF1D
:1057C000FFF7FEBFFFF7FEBFFFF7FEBFFFF7FEBF0D
:1057D000FFF7FEBFFFF7FEBFFFF7FEBFFFF7FEBFFD
:1057E000FFF7FEBFFFF7FEBF100BF145000875463F
:1057F000000829470008BB0410035D4800086F0437
:10580000129B0412C1041333492010024A0008DD20
:10581000041007454B00084D4C00089D0412CD04B0
:1058200010037D4D0008D9041003254E00083904EB
:10583000124D041007490C0008110D00084F041206
:10584000770412890412E70410031B0E00084304B6
:10585000125504126904127D04128F0413050F3CC3
:10586000110412610412E10410031F100008470420
:105870001259041003051100086B04129504135DFE
:10588000126C1104100301130008130412250412F2
:10589000370412490412C50412F90413211410111B
:1058A0000412710412990412C10412E904131115AF
:1058B0004412161C1002170008790412A90412D908
:1058C0000412EB0412FD0410030F1800082D04123B
:1058D000DD041305195C1104123704125704127306
:1058E000041389016011041007550400081D050008
:1058F00008CB0412DD0413090660110410033507F8
:10590000000891041325086811041003110A000807
:10591000650412950452000112ED0C17010B0811D9
:1059200004A00100010001156611040001093D00F9
:0400000508000000EF
:00000001FF
