:020000040800F2
:100000006806002091530008695300086B530008EC
:10001000B5530008B9530008BD53000800000000A4
:10002000000000000000000000000000C1530008B4
:100030006D53000800000000C55300086F5300080E
:10004000C9530008CD530008D1530008D553000808
:10005000D9530008DD530008E1530008E5530008B8
:10006000E9530008ED53000873530008F1530008EA
:10007000F5530008F9530008FD5300080154000827
:1000800005540008095400080D5400080000000041
:1000900000000000000000000000000011540008F3
:1000A00015540008195400081D5400082154000874
:1000B00025540008295400082D5400083154000824
:1000C00035540008395400083D54000841540008D4
:1000D00045540008495400084D5400080000000031
:1000E00079530008515400085554000800000000DE
:1000F000000000000000000000000000595400084B
:10010000000000005D5400086154000865540008B8
:1001100000000000000000000000000000000000DF
:10012000695400086D5400087154000875540008A3
:1001300079540008000000000000000000000000EA
:100140000000000000000000000000007D540008D6
:100150008154000885540008895400088D54000813
:1001600091540008955400080000000000000000B1
:10017000000000000000000000000000000000007F
:10018000000000009954000800000000000000007A
:100190009D54000810B582B0044600208DF8000080
:1001A0006946204600F048FE002831D09DF8000046
:1001B000217888422CD10421204600F0C5FF38B3B5
:1001C0004021204600F044FE10B30021204600F0FC
:1001D0005EFFE8B1A068DFF89817006801600021B1
:1001E000204600F083FE98B10C21204600F04FFE1F
:1001F00070B10821204601F004F848B110212046D2
:1002000001F02EF820B12021204601F058F810B955
:10021000012002B010BD0120607102B0002010BDAD
:1002200070B5044682B0A068056800208DF8000013
:100230006946204600F000FE002849D09DF80000E5
:100240002178884244D1A079002839D0A068066876
:100250006946204600F069FE002839D09DF800006C
:1002600030B3102822D020281DD0302818D04028A4
:1002700013D050280ED0602809D0702804D08028D0
:1002800023D1DFF87C0313E0DFF8780310E0DFF818
:1002900078030DE0DFF874030AE0DFF8740307E089
:1002A000DFF8700304E0DFF8500301E0DFF84C03EF
:1002B00030600021204600F019FE48B10020A071F6
:1002C00000202860607102B070BDDFF86805306002
:1002D000012002B070BD000010B50446A0790128CD
:1002E0004AD0A068006890ED000ADFED8F0AB4EEF6
:1002F000600AF1EE10FA48BF102135D4DFED8B0A09
:10030000B4EE600AF1EE10FA48BF20212CD4DFEDE4
:10031000880AB4EE600AF1EE10FA48BF302123D407
:10032000DFED840AB4EE600AF1EE10FA48BF402116
:100330001AD4DFED810AB4EE600AF1EE10FA48BF7C
:10034000502111D4DFED7D0AB4EE600AF1EE10FA0F
:1003500048BF602108D4DFEDA70AB4EE600AF1EED1
:1003600010FA4CBF70218021204600F0BFFD08B973
:10037000012010BD0120A071002010BD30B5044641
:1003800081B0A07900283AD0A06805686946204667
:1003900000F0CBFD00282DD09DF80000F0B1102812
:1003A0001BD0202817D0302813D040280FD0502839
:1003B0000BD0602807D0702803D0802817D1904830
:1003C0000CE090480AE0904808E0904806E0904829
:1003D00004E0904802E0884800E088482860002156
:1003E000204600F083FD40B9012001B030BDDFF8A8
:1003F00044042860012001B030BD0020A07101B08C
:1004000030BD00B581B000F017FD401E8041C00F27
:1004100001B000BD10B582B0044600208DF8000088
:100420006946204600F008FD20B19DF800002178C3
:10043000884202D0012002B010BD002002B010BDE1
:100440002DE9F04184B080460C4601A80021C0E9A6
:100450000011404601A900F078FD002860D001A8F5
:100460009DF80420417802EB01269DF80710827860
:10047000007902EB01279DF8091000EB01250DF131
:100480000101404600F0A5FD002849D09DF801007B
:10049000022808BF9FED950A1DD06946404600F02E
:1004A00015FD00283CD09DF800000C2838D8DFE866
:1004B00000F0103737370D3737370A37373707002F
:1004C0009FED8C0A07E09FED8C0A04E09FED8B0AFC
:1004D00001E09FED8B0A36B200EE906AF8EEE00A7A
:1004E00060EE800AFDEEE00AC4ED000A3FB200EEC5
:1004F000907AF8EEE00A60EE800AFDEEE00AC4EDC4
:10050000010A2DB200EE905AF8EEE00A20EE800AC1
:10051000BDEEC00A84ED020A002004B0BDE8F081FF
:10052000012004B0BDE8F081010050410100D0413C
:10053000010050420100D042010050430100D0436D
:1005400010B582B00C4669460022C1E9002200F0D5
:10055000FCFC10B9012002B010BD9DF801109DF8FF
:10056000002002EB012121809DF802209DF803105C
:1005700002EB012161809DF804009DF8051000EB5D
:100580000120A08002B0002010BD000030B581B075
:100590000C4605460DF1010100F01BFD68B19DF808
:1005A0000100022804D15148206001B0002030BD74
:1005B0006946284600F08AFC10B9012001B030BD20
:1005C0009DF800000C2810D8DFE800F0070F0F0F8F
:1005D000090F0F0F0B0F0F0F0D004948E4E74748B5
:1005E000E2E74548E0E74348DEE79248206001B093
:1005F000012030BD014050440000D0410000504176
:100600000080CF44004050440000D04300005043DD
:100610000000D0420000504210B582B00C4669463E
:1006200000F083FC10B9012002B010BD9DF800005D
:10063000A0B1102816D0202817D0302818D0402874
:1006400018D0502818D0602818D0702818D08028CA
:1006500018D02748206002B0012010BD206002B0F1
:10066000002010BDDFF82C04F8E7DFF82C04F5E7D4
:10067000BE48F3E7BE48F1E7BE48EFE7BE48EDE706
:10068000BE48EBE7DFF8F803E8E7000000B581B00B
:100690008279012A13D104290ED8DFE801F0090973
:1006A00007050300402104E0302102E0202100E0A2
:1006B000102100F01BFCB0B9012001B000BD806822
:1006C00000680429F8D8DFE801F00B0B08060400E5
:1006D000F2E7A74906E0A54904E0DFF8BC1301E012
:1006E000DFF8B0130160002001B000BD00008C40B5
:1006F000000080BF00008C4200000C4200008C41D2
:1007000000000C4100B581B081790129DFED900A2C
:1007100043D1B4EE600AF1EE10FA48BF102135D48F
:10072000DFED8C0AB4EE600AF1EE10FA48BF20212A
:100730002CD4DFED890AB4EE600AF1EE10FA48BF5E
:10074000302123D4DFED850AB4EE600AF1EE10FA11
:1007500048BF40211AD4DFED820AB4EE600AF1EE00
:1007600010FA48BF502111D4DFED7E0AB4EE600AC2
:10077000F1EE10FA48BF602108D4DFED7B0AB4EE39
:10078000600AF1EE10FA4CBF7021802100F0AEFB40
:1007900000284BD1012001B000BD80680068B4EE94
:1007A000600AF1EE10FA48BFB2EE0A0A3CD4DFED5F
:1007B000690AB4EE600AF1EE10FA48BFB3EE0A0A15
:1007C00032D4DFED650AB4EE600AF1EE10FA48BFEC
:1007D0009FED660A28D4DFED610AB4EE600AF1EEFF
:1007E00010FA48BF9FED620A1ED4DFED5D0AB4EE39
:1007F000600AF1EE10FA48BF9FED5E0A14D4DFEDF7
:10080000590AB4EE600AF1EE10FA48BF9FED5A0A99
:100810000AD4DFED550AB4EE600AF1EE10FA4CBFCF
:100820009FED560A9FED960A80ED000A002001B068
:1008300000BD0000000080BF30B581B00C46054609
:10084000694600F0C6FB28B10DF10101284600F011
:100850003DFB10B9012001B030BD9DF80000022819
:1008600005D1DFF83802206001B0002030BD9DF8CE
:1008700001000C2814D8DFE800F0071313130A1343
:1008800013130D1313131000DFF81402EBE7DFF856
:100890001402E8E7DFF81002E5E7DFF81002E2E70C
:1008A000DFF80C02206001B0012030BD00B5042942
:1008B00081B010D8DFE801F0030F0B0F0D0000210D
:1008C00000F0E5FA401E8041C00F01B000BD0421D8
:1008D000F6E70C21F4E7012001B000BD30B5DFEDF3
:1008E000690AB4EE600AF1EE10FA81B0044606D54A
:1008F000022100F04FFB38B3002001B030BDDFED26
:10090000620AB4EE600AF1EE10FA48BF002511D475
:10091000DFED5E0AB4EE600AF1EE10FA48BF04257E
:1009200008D4DFED5B0AB4EE600AF1EE10FA4CBFBA
:1009300008250C25002100F02DFB28B12946204672
:1009400000F0A5FA0028D7D1012001B030BD000089
:10095000010050410100D041010050420100D0424D
:10096000010050430100D043014050440000504278
:100970000000D042000050430000D04300405044EB
:1009800030B581B00D4604460DF1020100F058FC6F
:1009900050B10DF10101204600F081FC20B1694603
:1009A000204600F0ABFC10B9012001B030BD9DF82D
:1009B000020008280CBF0120002028709DF80100CB
:1009C00010280CBF0120002068709DF8000020282E
:1009D0000CBF01200020A87001B0002030BD30B550
:1009E0000D4681B00446287801280CBF082100215B
:1009F000204600F006FC40B1687801280CBF1021A9
:100A00000021204600F02CFC10B9012001B030BDBF
:100A1000A87801280CBF20210021204600F04FFCBF
:100A2000401E8041C00F01B030BD00B581B0012330
:100A300000F0F9F9401E8041C00F01B000BD00B5C3
:100A400081B001238DF800206A4600F0E3F9401ED2
:100A50008041C00F01B000BD10B582B00C466946A0
:100A600000F05CFC48B19DF8000010B1022804D1F0
:100A70000120207002B0002010BD012002B010BD86
:100A80000080CF440100FA42010075430100FA439F
:100A900001007A44000050410000D0410000FA42B9
:100AA000000075430000FA4300007A440000FA4455
:100AB000000080BFDFED6C0A00B5B4EE600AF1EE15
:100AC00010FA81B048BF082147D4DFED8E0AB4EE9A
:100AD000600AF1EE10FA48BF10213ED4DFED8A0A19
:100AE000B4EE600AF1EE10FA48BF182135D4DFEDFC
:100AF000870AB4EE600AF1EE10FA48BF20212CD428
:100B0000DFED830AB4EE600AF1EE10FA48BF282147
:100B100023D4DFED800AB4EE600AF1EE10FA48BF8C
:100B200030211AD4DFED7C0AB4EE600AF1EE10FA3F
:100B300048BF382111D4DFED790AB4EE600AF1EE36
:100B400010FA48BF402108D4DFED750AB4EE600A00
:100B5000F1EE10FA4CBF4821502100F0B7FA401EC8
:100B60008041C00F01B000BD10B582B00C4669468F
:100B700000F015FC68B19DF8000020B1202806D0D7
:100B8000012002B010BD207002B0002010BD012075
:100B9000F9E7012002B010BD10B582B00C466946DD
:100BA00000F0EDFB68B19DF8000020B1102806D0E0
:100BB000012002B010BD207002B0002010BD012045
:100BC000F9E7012002B010BD10B582B00C466946AD
:100BD00000F0F5FB68B19DF8000020B1402806D078
:100BE000012002B010BD207002B0002010BD012015
:100BF000F9E7012002B010BD00B581B000F0EFFBB5
:100C0000401E8041C00F01B000BD00B581B000F0B2
:100C100026FC401E8041C00F01B000BD00B581B070
:100C200000F08CFB401E8041C00F01B000BD00B53C
:100C30000A0018BF082981B00BD0102918BF182945
:100C400007D0202918BF282903D0302918BF3829F8
:100C500006D100F0FDF9401E8041C00F01B000BD7B
:100C6000012001B000BD00000100204170B582B03C
:100C70000D4604460DF1020100F0F1FB00283ED0C4
:100C80009DF803009DF8021041EA00260DF10101D4
:100C9000204600F09EF9002831D09DF8010002287E
:100CA00008BF9FED200A1CD06946204600F00EF9CF
:100CB00028B39DF800000C2821D8DFE800F01020B0
:100CC00020200D2020200A20202007009FED160A5A
:100CD00007E09FED160A04E09FED150A01E09FED85
:100CE000150A36B200EE906AF8EEE00A20EE800AAD
:100CF000BDEEC00A85ED000A002002B070BD0120E3
:100D000002B070BD0100C841010048420100C84264
:100D1000010048430100C843010048440100C844A1
:100D200001404E4500008C4000008C4200000C4207
:100D300000008C4100000C4100B5062981B00CD8A0
:100D4000DFE801F004040B04040B040000F09FF939
:100D5000401E8041C00F01B000BD012001B000BDA8
:100D600000B50A0018BF202981B006D100F0CDF9E6
:100D7000401E8041C00F01B000BD012001B000BD88
:100D800000B581B000F035F9401E8041C00F01B0C0
:100D900000BD00B5012981B006D800F0F4F9401E6D
:100DA0008041C00F01B000BD012001B000BD00B501
:100DB000012981B006D800F033FB401E8041C00FEE
:100DC00001B000BD012001B000BD000000B50C293C
:100DD00081B00FD8DFE801F0070E0E0E070E0E0EE1
:100DE000070E0E0E070000F0EDF9401E8041C00F07
:100DF00001B000BD012001B000BD8268521C8260BC
:100E0000426832B10268531C036011704168491E88
:100E10004160704700B581B000F0D8FB401E8041B2
:100E2000C00F01B000BD00B581B000F019FC401E3C
:100E30008041C00F01B000BD00B50A4681B001235A
:100E40000F2100F00DFC401E8041C00F01B000BD1D
:100E500030B581B00D46044601236A46122100F0E8
:100E6000FFFB10B1002001B030BD9DF8000000F084
:100E7000BF0028438DF8000001236A461221204656
:100E800000F0A4FB401E8041C00F01B030BD30B562
:100E900081B00D46044601236A46112100F0E0FBB3
:100EA00010B1002001B030BD9DF8000000F0F3004B
:100EB00028438DF8000001236A461121204600F0E6
:100EC00085FB401E8041C00F01B030BD10B50C46FF
:100ED00001232246112100F0C3FB08B1002010BD00
:100EE000207800F00C002070012010BD30B581B0DA
:100EF0000D46044601236A46112100F0B1FB10B1F2
:100F0000002001B030BD9DF8000000F00F00284324
:100F10008DF8000001236A461121204600F056FB9F
:100F2000401E8041C00F01B030BD10B50C460123FA
:100F30002246112100F094FB08B1002010BD20785A
:100F400000F0F0002070012010BDF0B581B0044623
:100F50000D4600260327F6B206F122010123AA1945
:100F6000C9B2204600F07CFB50B9761CF6B206F1FF
:100F700022010123AA19C9B2204600F071FB10B169
:100F8000002001B0F0BD761C7F1EE4D1012001B02D
:100F9000F0BD000030B581B00D46044601236A461D
:100FA000112100F05DFB10B1002001B030BD9DF8B3
:100FB000000000F0FD0028438DF8000001236A4680
:100FC0001121204600F002FB401E8041C00F01B0FD
:100FD00030BD10B50C4601232246112100F040FB24
:100FE00008B1002010BD207800F002002070012020
:100FF00010BD70B582B0044601236A460D46062135
:1010000000F02EFB2E0A78B98DF8005001236A46B5
:101010000621204600F0DAFA30B901236A4607219A
:10102000204600F01DFB10B1002002B070BD9DF8FD
:10103000000066F303008DF8000001236A460721D3
:10104000204600F0C3FA401E8041C00F02B070BDC0
:1010500030B581B00D46044601236A46082100F0F0
:10106000FFFA10B1002001B030BD9DF8000000F083
:10107000C70028438DF8000001236A460821204656
:1010800000F0A4FA401E8041C00F01B030BD30B561
:1010900081B00D46044601236A460A2100F0E0FAB9
:1010A00010B1002001B030BD9DF8000000F0F80044
:1010B00028438DF8000001236A460A21204600F0EB
:1010C00085FA401E8041C00F01B030BD30B581B0FF
:1010D0000D46044601236A460A2100F0C1FA10B108
:1010E000002001B030BD9DF8000000F087002843CB
:1010F0008DF8000001236A460A21204600F066FAB6
:10110000401E8041C00F01B030BD30B581B00D46EA
:10111000044601236A460D2100F0A2FA10B1002016
:1011200001B030BD9DF8000000F0DF0028438DF8CD
:10113000000001236A460D21204600F047FA401EB8
:101140008041C00F01B030BD30B581B00D460446BE
:1011500001236A46122100F083FA10B1002001B089
:1011600030BD9DF8000000F0FB0028438DF8000022
:1011700001236A461221204600F028FA401E8041D1
:10118000C00F01B030BD30B581B00D46044601231B
:101190006A46132100F064FA10B1002001B030BD9E
:1011A0009DF8000000F0FE0028438DF800000123A8
:1011B0006A461321204600F009FA401E8041C00F04
:1011C00001B030BD30B581B00D46044601236A46FA
:1011D000142100F045FA10B1002001B030BD9DF897
:1011E000000000F0F30028438DF8000001236A4658
:1011F0001421204600F0EAF9401E8041C00F01B0E2
:1012000030BD30B581B00D46044601236A46192130
:1012100000F026FA10B1002001B030BD9DF80000AA
:1012200000F0F70028438DF8000001236A461921D9
:10123000204600F0CBF9401E8041C00F01B030BD08
:1012400010B50C4601232246192100F009FA08B115
:10125000002010BD207800F008002070012010BD93
:1012600030B581B00D46044601236A46192100F0CD
:10127000F7F910B1002001B030BD9DF8000000F07A
:10128000EF0028438DF8000001236A46192120460B
:1012900000F09CF9401E8041C00F01B030BD10B578
:1012A0000C4601232246192100F0DAF908B100208A
:1012B00010BD207800F010002070012010BD30B566
:1012C00081B00D46044601236A46192100F0C8F991
:1012D00010B1002001B030BD9DF8000000F0DF002B
:1012E00028438DF8000001236A461921204600F0AA
:1012F0006DF9401E8041C00F01B030BD10B50C46E5
:1013000001232246192100F0ABF908B1002010BDDD
:10131000207800F020002070012010BD10B50C4690
:10132000012322461E2100F09BF908B1002010BDC8
:10133000207800F002002070012010BD30B581B08F
:101340000D46044601236A463A2100F089F938B96E
:1013500001230DF101023B21204600F081F910B17B
:10136000002001B030BD9DF801009DF8001000F094
:101370000F0041EA0020288001B0012030BD10B5E7
:101380000C46012322463B2100F06AF908B10020F7
:1013900010BD207800F010002070012010BD10B5A5
:1013A0000C46012322463B2100F05AF908B10020E7
:1013B00010BD207800F020002070012010BD10B575
:1013C0000C46012322463B2100F04AF908B10020D7
:1013D00010BD207800F040002070012010BD30B515
:1013E00081B00D46044601236A463C2100F038F9DD
:1013F00038B901230DF101023D21204600F030F9FA
:1014000010B1002001B030BD9DF801009DF8001022
:1014100000F0030041EA0020288001B0012030BD27
:1014200030B581B00D46044601236A46582100F0CC
:1014300017F910B1002001B030BD9DF8000000F098
:10144000FE0028438DF8000001236A4658212046FB
:1014500000F0BCF8401E8041C00F01B030BD30B577
:101460000D4681B0044601232A463E2100F0F8F8DB
:1014700030B901236A1C3F21204600F0F1F810B179
:10148000002001B030BD012001B030BD30B5C74CE7
:1014900087B0204600F03EFE00284BD1C448C54D21
:1014A000606001A90020A0603320E0604FF480401C
:1014B0002061C148206000200090286940F00200AF
:1014C0002861286900F00200009000984FF44070F5
:1014D000019012200290022004900020039004202A
:1014E0000590B64800F01AFE002000900022286AFD
:1014F00040F4001028620021286A00F400100090D7
:101500000098286840F400102860286820F4001033
:1015100028601F2000F0FBFE1F2000F021FF0022AA
:101520000021202000F0F3FE202000F019FF2046CB
:1015300000F04CF9204600F0EDFD20280CBF002003
:10154000012007B030BD30B58BB00020009006A957
:101550009B4D9C4C286840F001002860286800F0F2
:101560000100009000980794102006900220099036
:1015700000200890944800F0D1FD002200210A20AC
:1015800000F0C5FE0A2000F0EBFE0020009001A94B
:10159000286840F002002860286800F002000090EF
:1015A00000980294012001900220049000200390F2
:1015B000824800F0B3FD00220021062000F0A7FEC3
:1015C000062000F0CDFE00200BB030BD2DE9F04329
:1015D000044683B020783D38884615461E4604D020
:1015E000743807D00B38012823D8022E21DB48F0AD
:1015F00080081EE00027300000F01780DFF8AC9173
:101600004FF48050029000950120019007EB0802F2
:10161000A1780123D2B2484600F068F908B14846E3
:1016200015E07F1C6D1CB742EADB002003B0BDE86B
:10163000F0834FF480500290019600955B4FA178A3
:1016400001234246384600F051F928B1384600F0EF
:101650002CF900F04EF8012003B0BDE8F083000043
:101660002DE9F043044683B020783D38884615467E
:101670001E4604D0743807D00B38012823D8022E18
:1016800021DB48F080081EE00027300000F01780C2
:10169000DFF818914FF480500290009501200190DE
:1016A00007EB0802A1780123D2B2484600F0A3FA62
:1016B00008B1484615E07F1C6D1CB742EADB0020EC
:1016C00003B0BDE8F0834FF480500290019600957E
:1016D000364FA17801234246384600F08CFA28B1F3
:1016E000384600F0E2F800F004F8012003B0BDE84D
:1016F000F08330B52D4C87B0204600F00BFD00285C
:101700004BD12B482B4D606001A90020A0603320F5
:10171000E0604FF480402061274820600020009066
:10172000286940F002002861286900F0020000905A
:1017300000984FF440700190122002900220049013
:1017400000200390042005901C4800F0E7FC0020D6
:1017500000900022286A40F4001028620021286AC4
:1017600000F4001000900098286840F400102860F1
:10177000286820F4001028601F2000F0C8FD1F20FA
:1017800000F0EEFD00220021202000F0C0FD20200E
:1017900000F0E6FD204600F019F8204600F0BAFC03
:1017A00020280CBF0020012007B030BDA809002070
:1017B000801A060020380240005400400004024015
:1017C00030380240000011100000024030B5040023
:1017D00081B008BF012066D094F83D0020B984F89C
:1017E0003C00204600F099FC242084F83D0020684D
:1017F000016849084900016000F088FEDFF8E02038
:10180000A0FB02212268C90C51606368DFF8D42074
:10181000934208D34FF4967313FB01F1DFF8C850DD
:10182000A1FB0553590A2368491C1962616891425A
:1018300008D24900B0FBF1F0C0F30B01042913D228
:10184000042011E0A26822B901EB4101B0FBF1F0E4
:1018500005E019225143B0FBF1F040F4804001054E
:101860000CBF012040F400402168C861E069216A92
:101870000843216808602069E1680843216888609E
:101880006069A16908432168C8602068016841F067
:101890000101016000202064202084F83D00002028
:1018A000206384F83E0001B030BD10B5040001D1C2
:1018B000012010BD242084F83D00206801684908FB
:1018C00049000160204600F067FE0020206484F893
:1018D0003D00206384F83E0084F83C0010BD000009
:1018E00006BD3786A1860100986E12832DE9F0436C
:1018F00081B0044689461546984600F04FFE0646DC
:1019000094F83D00202812D120688169890712D5FA
:1019100000F044FE801B1A28F6D30020206320200C
:1019200084F83D00002084F83E0084F83C0002204A
:1019300001B0BDE8F08394F83C100129F7D00121F3
:1019400084F83C100168C90703D4016841F0010123
:1019500001602068016821F400610160212084F8A1
:101960003D00402084F83E0000202064089860621A
:1019700009986085DFF89807E062608D208520680F
:10198000016841F4807101600A9F20684169C907BC
:101990001DD417F1010FF8D027B100F0FFFD801B17
:1019A0008742F2D200202063202084F83D000020EE
:1019B00084F83E0084F83C00206C042840F08B80C2
:1019C000002084F83C0001B00120BDE8F08309F05C
:1019D000FE01016120684169890720D441694905F8
:1019E0000AD5016841F4007101606FF480602168DC
:1019F00048610420206408E017F1010FEAD027B104
:101A000000F0CCFD801B8742E4D200202063202020
:101A100084F83D00002084F83C00206CCCE70021D5
:101A2000009141690091806900900098216848699F
:101A3000000625D44869400515D56FF480604861DB
:101A40000420206400202063202084F83D00002032
:101A500084F83C00206C0428AED12068016841F471
:101A600000710160A8E717F1010FDFD027B100F086
:101A700095FD801B8742D9D2206C40F02000E0E722
:101A8000B8F1010F23D0280A0861206841690906CE
:101A90001DD44169490504D56FF48061416104207A
:101AA0000BE017F1010FF0D027B100F077FD801B9C
:101AB0008742EAD2206C40F020002064002020639E
:101AC000202084F83D00002084F83C00C2E7206814
:101AD000EDB2056111E0002084F83C00032001B064
:101AE000BDE8F083606A421C626200780861208D64
:101AF000401E2085608D401E6085208D00283ED0D0
:101B000020684169090628D44169490518D56FF450
:101B1000806141610420206400202063202084F83B
:101B20003D00002084F83C00206C0428D6D12068B9
:101B3000016841F400710160012001B0BDE8F0834B
:101B400017F1010FDCD027B100F028FD801B874280
:101B5000D6D2206C40F02000DDE7616A4A1C626248
:101B600009780161208D401E2085618D491E6185A7
:101B700021684A695207C0D580B20028B2D12068D6
:101B80004169490728D44169490518D56FF4806136
:101B900041610420206400202063202084F83D005F
:101BA000002084F83C00206C042897D1206801684C
:101BB00041F400710160012001B0BDE8F08317F12C
:101BC000010FDCD027B100F0E9FC801B8742D6D2A0
:101BD000206C40F02000DDE7016841F400710160F5
:101BE000202084F83D00002084F83E0084F83C006A
:101BF00001B0BDE8F0832DE9F04381B0044688468A
:101C00001646994600F0CAFC074694F83D00202885
:101C100012D120688169890712D500F0BFFCC01B72
:101C20001A28F6D300202063202084F83D000020ED
:101C300084F83E0084F83C00022001B0BDE8F08347
:101C400094F83C100129F7D0012184F83C10016878
:101C5000C90703D4016841F00101016020680168EF
:101C600021F400610160222084F83D00402084F8C6
:101C70003E00002020640898606209986085DFF8C3
:101C80009004E062608D20852068016841F48061E5
:101C900001602068016841F4807101600A9D20683C
:101CA0004169C9070BD415F1010FF8D0002D00F0E0
:101CB000BB8000F073FCC01B8542F0D2B4E008F09A
:101CC000FE0101612068416989071FD44169490506
:101CD0000AD5016841F4007101606FF480602168E9
:101CE00048610420206408E015F1010FEAD025B115
:101CF00000F054FCC01B8542E4D200202063202069
:101D000084F83D00002084F83C00B5E000210091FB
:101D10004169009180690090009821684869000637
:101D20001DD4486940050DD56FF4806048610420DA
:101D3000206400202063202084F83D00002084F8E7
:101D40003C0057E015F1010FE7D025B100F026FC6B
:101D5000C01B8542E1D2206C40F02000E8E7B9F1D9
:101D6000010F23D0300A08612068416909061DD49B
:101D70004169490504D56FF48061416104200BE09D
:101D800015F1010FF0D025B100F008FCC01B854211
:101D9000EAD2206C40F02000206400202063202044
:101DA00084F83D00002084F83C0023E02068F6B26F
:101DB000066120684169090625D44169490504D5B1
:101DC0006FF48061416104200BE015F1010FF0D048
:101DD00025B100F0E3FBC01B8542EAD2206C40F045
:101DE0002000206400202063202084F83D00002093
:101DF00084F83C00206C04283FD12068016841F43D
:101E00000071016039E0016841F48071016020686F
:101E10004169C90713D415F1010FF8D025B100F0BD
:101E2000BDFBC01B8542F2D200202063202084F835
:101E30003D00002084F83E0084F83C001DE048F09E
:101E40000101C9B201612068416989072AD4416949
:101E500049051CD5016841F4007101606FF4806090
:101E6000216848610420206400202063202084F839
:101E70003D00002084F83C00206C206C042817D121
:101E8000002084F83C00012001B0BDE8F08315F18A
:101E9000010FD8D0002DE7D000F080FBC01B854299
:101EA000D1D2E1E7218D0A0009D1002100910FE094
:101EB000002084F83C0001B00320BDE8F083012934
:101EC00010D1016821F48061016000200090206839
:101ED00041690091816900910099016841F40071A4
:101EE000016021E002290CD1016821F480610160C8
:101EF0002068016841F400610160002000902068C2
:101F000001E00021009141690091806900900098F2
:101F10000AE0606A421C626209690170208D401EFD
:101F20002085608D401E6085208D010000F0E480DA
:101F3000042880F0A580012824D121684869400642
:101F4000E7D44869C00606D56FF01000486100204C
:101F50002064206309E025B100F020FBC01B85420E
:101F6000EBD2206C40F020002064202084F83D005B
:101F7000002084F83C00206C202884D1032001B08C
:101F8000BDE8F08302282AD120684169490711D4AD
:101F900015F1010FF8D025B100F000FBC01B854200
:101FA000F2D200202063202084F83D00002084F835
:101FB0003E007EE7016841F400710160606A411CE7
:101FC0006162216809690170208D401E2085608D45
:101FD000401E6085606A411C616221689CE7206840
:101FE0004169490711D415F1010FF8D025B100F06E
:101FF000D5FAC01B8542F2D200202063202084F84D
:102000003D00002084F83E0053E7016821F4806120
:102010000160606A411C6162216809690170208D5C
:10202000401E2085608D401E6085206841694907FB
:1020300011D415F1010FF8D025B100F0AFFAC01B93
:102040008542F2D200202063202084F83D00002049
:1020500084F83E002DE7016841F400710160606A78
:10206000411C6162216809690170208D401E208534
:10207000608D401E6085606A411C616221684BE78B
:1020800020684169490621D44169C90613D56FF01A
:1020900010014161002020642063202084F83D006D
:1020A000002084F83C00206C20287FF4ECAE032054
:1020B00001B0BDE8F08325B100F070FAC01B854285
:1020C000DED2206C40F020002064E6E7616A4A1C02
:1020D000626200690870208D401E2085608D401E60
:1020E00060852068416949077FF51EAF616A4A1C17
:1020F00062620069087011E7202084F83D0000202A
:1021000084F83E0084F83C0001B0BDE8F083000094
:102110000000FFFF90F83D00704770472DE9F04F39
:10212000002381B0024600249946DFF8A4A1694F3C
:102130004FF00F0E01200D68984000EA0508804519
:1021400040F0A7804D68022D18BF122D11D1DD0877
:1021500002EB850C09F01C05DCF820600EFA05FB8B
:1021600026EA0B06D1F810B00BFA05F53543CCF88A
:10217000205003261568A6406FEA060C0E7906F07B
:1021800003060CEA0505A640354315604D68012D90
:1021900018BF022D03D0112D18BF122D0FD1956835
:1021A000CE680CEA0505A64035439560556825EADA
:1021B00000004D68C5F300159D4028435060D0686D
:1021C0008D680CEA0000A5402843D0604868C00034
:1021D0005FD50020009009F00C0C38683E4E40F4AA
:1021E00080403860386800F480400090009898087B
:1021F00056F820500EFA0CF6B543384EB24208BFDE
:10220000002613D0364EB24208BF01260ED0354EFE
:10221000B24208BF022609D0334EB24208BF03269D
:1022200004D0324EB2420CBF0426072606FA0CF642
:102230002E43294D45F820606FEA0800DAF8005077
:1022400000EA050C4D68ED0348BF48EA0C0CCAF8DB
:1022500000C0DAF8045000EA050C4D68AD0348BF31
:1022600048EA0C0CCAF804C0DAF8085000EA050C79
:102270004D68ED0248BF48EA0C0CCAF808C0DAF80D
:102280000C5028404D68AD0248BF48EA0000CAF82B
:102290000C005B1CA41C102B09F10409FFF44AAFCD
:1022A00001B0BDE8F08F00690840401E8041C04386
:1022B000C00F704702B90904816170470C4A136866
:1022C00003421CBF106000F01FBC704700000000FC
:1022D000003C014044380240083801400000024000
:1022E0000004024000080240000C024000100240BE
:1022F000143C014027490A684FF6FF0300021A40C8
:1023000000F4E0601043244A10430860704730B482
:10231000204B1B68C3F30223C3F10704052C28BF1D
:1023200004241D1D072D34BF0023DB1E012505FAE3
:1023300004F4641E2140994005FA03F35B1E1A4021
:1023400011430901002807D5144A00F00F0010447A
:1023500000F8041C30BC7047114A115430BC70475F
:10236000012100F01F0291400E4A400942F820105E
:102370007047401EB0F1807F01D3012070470A49A9
:102380004860F02081F8130D002088600720086065
:10239000002070470CED00E00000FA0518ED00E0A9
:1023A00000E400E000E100E010E000E0F0B5614E84
:1023B00081B00446D6F800040D4600F00F00A84294
:1023C00007D286F80054D6F8000400F00F00A842A7
:1023D00076D12078800705D5B068A16820F0F0009C
:1023E0000843B0602078C0075CD56068012802D13E
:1023F0003168890305E0022818BF032805D1316838
:10240000890105D4012001B0F0BD3168890757D595
:10241000B168890840EA8100B06000F0BFF8074663
:10242000606801280ED1B06800F00C00042839D093
:1024300000F0B4F8C01B41F289318842F3D3032085
:1024400001B0F0BD02280ED1B06800F00C000828E1
:1024500028D000F0A3F8C01B41F289318842F3D3A1
:10246000032001B0F0BD03280ED1B06800F00C00CD
:102470000C2817D000F092F8C01B41F28931884235
:10248000F3D3032001B0F0BDB06810F00C0F09D0F9
:1024900000F084F8C01B41F289318842F4D3032054
:1024A00001B0F0BDD6F8000400F00F0085420AD25A
:1024B00086F80054D6F8000400F00F00A84202D0BD
:1024C000012001B0F0BD2078400705D5B068E16873
:1024D00020F4E0500843B0602078000706D5B068CB
:1024E000216920F4604040EAC100B06000F02CF89F
:1024F000B2681149C2F30312895CC8400F490860F1
:102500000F2000F03DFC002001B0F0BD0B480C4A4C
:10251000006812680B49C2F38222895CC840704788
:102520000648074A006812680649C2F34232895CCD
:10253000C84070470038024068520008EC01002093
:1025400008380240AC5300081048416801F00C0103
:10255000042903D0082903D00D4870470D4870475F
:1025600001680268520201F03F014CBF094A084A63
:10257000B2FBF1F102680068C0F30140C2F38812B7
:10258000401C51434000B1FBF0F07047043802405A
:102590000024F40000127A0070470000014800682F
:1025A000704700BF500A00202DE9F04F87B000208F
:1025B0008DF80E00049000F0F9FB00F015FC0020EF
:1025C00000F05AFC0121002000F096FC00F0F0FC25
:1025D000DFF8F845211D012000F04AFD012823D134
:1025E0000FF2F0530FF27C724FF4807104F1080087
:1025F00000F0A2FE04F1080000F0C0FE82B241F239
:10260000883304F10801DFF8C80500F003FF00205B
:1026100000F05CFC642001F0B3F8002000F061FCE5
:10262000642001F0ADF8F2E7606800F0D5FD012804
:1026300023D10FF2A0530FF22C724FF4807104F1EA
:10264000080000F079FE04F1080000F097FE82B265
:1026500041F2883304F10801DFF8740500F0DAFE76
:10266000002000F033FC642001F08AF8002000F024
:1026700038FC642001F084F8F2E76068002100F083
:10268000BBFD01281ED06068082100F000FE012873
:1026900018D060689FED5A0A00F0BEFD012811D0E5
:1026A0006068202100F01EFE01280BD060685B21CD
:1026B00000F026FE012805D06068012100F02EFE02
:1026C000012823D10FF20C530FF298624FF480715E
:1026D00004F1080000F030FE04F1080000F04EFEA6
:1026E00082B241F2883304F10801DFF8E40400F01B
:1026F00091FE002000F0EAFB642001F041F8002088
:1027000000F0EFFB642001F03BF8F2E70FF2CC425F
:102710004FF4807104F1080000F00EFE04F108008F
:1027200000F02CFE41F2883882B2434604F10801E1
:10273000DFF89C0400F06EFE01E00220607060781B
:10274000042800F2BD81DFE810F005000600470014
:1027500078006901F3E70FF208524FF4807104F139
:10276000080000F0E9FD04F1080000F007FE82B265
:10277000434604F10801DFF8580400F04BFE4FF423
:102780007A7000F0FDFF6068062100F09DFD0128D1
:10279000D3D10FF240430FF2CC524FF4807104F1C9
:1027A000080000F0C9FD04F1080000F0E7FD82B266
:1027B000434604F10801DFF8180400F02BFE002066
:1027C00000F084FB642000F0DBFF002000F089FBB8
:1027D000642000F0D5FFF2E7606804A900F048FD2E
:1027E000012802D107B0BDE8F08FBDF81000BDF898
:1027F0001210884218D0ADF81200C2A202E000BF49
:102800000040CE454FF4807104F1080000F094FDC3
:1028100004F1080000F0B2FD82B2434604F1080161
:10282000DFF8AC0300F0F6FD207800283FF487AF16
:10283000032060700020207081E760680DF10E01B8
:1028400000F0F8FC012822D10FF288330FF2145265
:102850004FF4807104F1080000F06EFD04F10800EF
:1028600000F08CFD82B2434604F10801DFF86003FA
:1028700000F0D0FD002000F029FB642000F080FF74
:10288000002000F02EFB642000F07AFFF2E79DF8B4
:102890000E0001287FF453AF002000F017FB00204A
:1028A000ADF80C0003A9606800F0E2FC00260128E6
:1028B00000F09280BDF80C000FF2D8324AF6AB213E
:1028C0004143480CADF80C0003464FF4807104F10D
:1028D000080000F031FD04F1080000F04FFD82B265
:1028E000434604F10801BA4800F094FD0FF2EC32BF
:1028F0004FF4807104F1080000F01EFD04F108009F
:1029000000F03CFD82B2434604F10801B04800F0FB
:1029100081FD20E0069DBBF1010B29D1B7B20A2F42
:1029200018DACDF808A0CDF8049000957B1C0FF2C2
:10293000FC324FF4807104F1080000F0FDFC04F15A
:10294000080000F01BFD82B2434604F10801A048D4
:1029500000F060FD761CBDF80C00864222DA0020F3
:10296000ADF8140006900025814682464FF0030B17
:10297000606805A900F06DFC01282DD0606806A9EB
:1029800000F093FC012827D0BDF814000028C1D026
:10299000022801D003D31FE0DDF818A0BBE7DDF863
:1029A0001890B8E70B2813DB0A230FF25C324FF4C0
:1029B000807104F1080000F0BFFC04F1080000F091
:1029C000DDFC82B2434604F10801814800F022FD9B
:1029D000002000F086FAB0E60FF2F8130FF284320E
:1029E0004FF4807104F1080000F0A6FC04F1080027
:1029F00000F0C4FC82B2434604F10801744800F0C0
:102A000009FD002000F062FA642000F0B9FE002009
:102A100000F067FA642000F0B3FEF2E7606800217E
:102A200000F052FC012829D00FF2E4124FF480711B
:102A300004F1080000F080FC04F1080000F09EFCA6
:102A400082B2434604F10801614800F0E3FC0FF252
:102A5000E4124FF4807104F1080000F06DFC04F101
:102A6000080000F08BFC82B2434604F1080158488C
:102A700000F0D0FC0020207004905FE60FF25413A9
:102A80000FF2E0224FF4807104F1080000F054FCD2
:102A900004F1080000F072FC82B2434604F1080120
:102AA0004B4800F0B7FC002000F010FA642000F062
:102AB00067FE002000F015FA642000F061FEF2E7E6
:102AC0000FF210130FF29C224FF4807104F10800F2
:102AD00000F032FC04F1080000F050FC82B24346E2
:102AE00004F108013A4800F095FC002000F0EEF9EE
:102AF000642000F045FE002000F0F3F9642000F0AF
:102B00003FFEF2E72E00000010B5B0F5005F34D1B3
:102B1000002000F035FA50B92C4C6078042809D810
:102B2000DFE800F00305060505000120607010BD18
:102B30000420FBE70FF214230FF228224FF48071D8
:102B400004F1080000F0F8FB04F1080000F016FCA6
:102B500082B241F2883304F108011D4800F05AFCAA
:102B6000002000F0B3F9642000F00AFE002000F01D
:102B7000B8F9642000F004FEF2E71028134C02D1EB
:102B80000120207010BD0FF2C4130FF2D8124FF4C1
:102B9000807104F1080000F0CFFB04F1080000F0A0
:102BA000EDFB82B241F2883304F10801084800F0DD
:102BB00031FC002000F08AF9642000F0E1FD0020E3
:102BC00000F08FF9642000F0DBFDF2E7DC0000206C
:102BD000680800206D61696E000000000D0A2D2D4F
:102BE0002D2D2D2D204C534D364453332046494630
:102BF0004F20436F6E74696E756F7573204D6F64EF
:102C0000652044454D4F202D2D2D2D2D2D0D0A00D5
:102C10000D0A4649464F2069732073746F707065C2
:102C20006420696E20427970617373206D6F6465F2
:102C30002E0D0A000D0A50726573732055534552CC
:102C400020627574746F6E20746F20737461727477
:102C5000207468652044454D4F2E2E2E0D0A00002D
:102C60000D0A4C534D3644533320737461727473A0
:102C700020746F2073746F726520746865206461BE
:102C8000746120696E746F204649464F2E2E2E0DBA
:102C90000A0D0A000D0A0D0A25642073616D706C1F
:102CA000657320696E204649464F2E0D0A0D0A5362
:102CB00074617274656420646F776E6C6F616469AF
:102CC0006E6720646174612066726F6D20464946AC
:102CD0004F2E2E2E0D0A0D0A000000005B444154B9
:102CE000412023235D20202020204759525F582077
:102CF000202020204759525F59202020202047596A
:102D0000525F5A0D0A0000000D0A53616D706C6528
:102D1000206C697374206C696D6974656420746FCC
:102D20003A2025640D0A0D0A000000005B4441545E
:102D30004120253032645D202025386C6420202518
:102D4000386C64202025386C640D0A0048414C5FC3
:102D50004750494F5F455854495F43616C6C62610D
:102D6000636B00000D0A4572726F7220696E202736
:102D70002573272066756E6374696F6E2E0D0A00C9
:102D800010B504460748084A0068A0FB0221480A1B
:102D9000FFF7EFFA002221464FF0FF30FFF7B7FAB6
:102DA000002010BDEC010020986E128300B50C4885
:102DB00081B0016841F400710160016841F48061F3
:102DC0000160016841F4807101600320FFF792FA0D
:102DD0000F20FFF7D5FF00F005F8002001B000BD7F
:102DE000003C02407047000000B593B00020009006
:102DF0001F48016841F080510160006800F0805078
:102E000000900098002000901A48016821F4404189
:102E100041F400410160006800F4404000900098D7
:102E2000022006900120099010200A9002200C90A8
:102E300000200D9010200E904FF4A8700F900420E9
:102E400010900720119006A800F0ACFC0F20019014
:102E5000022102200290002003904FF48050049041
:102E60000020059001A8FFF7A1FA13B000BD00BF34
:102E7000403802400070004070B586B00446002023
:102E80000090DFF81061DFF81001016841F00101E6
:102E9000016001A9006800F00100009000980FF2A5
:102EA000041030F814500195012002900020039086
:102EB0000220049056F82400FFF730F956F8240059
:102EC00000222946FFF7F6F906B070BD0FF2D401D3
:102ED000DFF8C03031F8101053F820000122FFF75E
:102EE000E9B90FF2C001DFF8AC3031F8101053F837
:102EF00020000022FFF7DEB930B587B0044600207D
:102F000000900D46DFF89000016841F00401016077
:102F1000006800F0040000902800009810D10FF223
:102F2000880030F81400019001A9002002900220CE
:102F300003900490DFF8640050F82400FFF7EEF8E7
:102F4000012D1BD10FF2600030F81400019001A98F
:102F500000200390DFF848000290DFF8400050F8AE
:102F60002400FFF7DBF80FF24400045D00220F217C
:102F700060B2FFF7CCF960B2FFF7F2F907B030BDED
:102F80000FF22401DFF8142031F8101052F820005D
:102F9000FFF789B9E401002030380240E801002041
:102FA0000000211020000000002000002800000088
:102FB00010B586B000200090294C2A48016841F0E5
:102FC00001010160016801F00101009100990021F7
:102FD0000091016841F001010160016801F0010107
:102FE0000091009900210091016941F400310161D3
:102FF00001A9006900F400300090009804200190BD
:1030000002200290002003900220049007200590E7
:103010002046FFF783F80820019001A907200590BA
:103020002046FFF77BF8104C104820604FF4E13049
:1030300060600020A060E0602061A0610C20606101
:10304000204600F0B7F900B1FEE704F14000A062AD
:103050004FF48070A0850020E06306B010BD000032
:103060000000024030380240680800200044004060
:1030700010B50C460021216068B10128204611D00E
:1030800000F058F8012804D1204600F011F801287A
:103090000CD0002010BD204600F00AF80128F8D11D
:1030A000012010BD00F046F80128F2D1012010BD2A
:1030B00030B5444D04466879012881B038D0FEF718
:1030C000E5F9012834D06820287000206870D620E7
:1030D000A8700020A880A8710120E87105F12800DF
:1030E000A8603948E860002028613848E86305F1A5
:1030F0003800A8620020E8622560E86801680800DE
:1031000008D100200021002207C503C5206001B0BE
:10311000012030BD28468847012808D120681421A5
:1031200000F0AAFC0020206001B0012030BD00208A
:1031300001B030BD30B5234D0446687E012881B012
:103140003DD0FEF7A3F9012839D069202875002069
:103150006875D420A8750120287600206876A876A6
:103160000120E87605F13000E86119482862194825
:10317000686205F1400028630020686305F11400CF
:103180002060286A0168080005F1140008D10021B8
:10319000002200230EC006C02160012001B030BD16
:1031A0008847012808D12068142100F065FC002020
:1031B000206001B0012030BDFEF7C5F9002001B04C
:1031C00030BD0000FC09002000000020400A002063
:1031D0008C0000205000002000B581B018B1C168FB
:1031E00089680A0002D1012001B000BD884701288A
:1031F00018BF002001B000BD00B581B018B1C26891
:10320000926A130002D1012001B000BD904701284D
:1032100018BF002001B000BD00281CBF01690029B3
:1032200006D00278692A03D109680A0018BF084746
:103230000120704700281CBF0269002A07D031B165
:103240000378692B03D15268130018BF104701207F
:10325000704700281CBF0269002A07D031B10378EB
:10326000692B03D11269130018BF10470120704762
:1032700000281CBF0269002A07D031B10378692BEE
:1032800003D19269130018BF10470120704700282E
:103290001CBF0269002A06D00378692B03D1D269CA
:1032A000130018BF10470120704700281CBF026997
:1032B000002A07D031B10378692B03D1126A1300B9
:1032C00018BF10470120704700281CBF0269002A60
:1032D00006D00378692B03D1526A130018BF104738
:1032E0000120704700281CBF0269002A06D003781D
:1032F000692B03D1926A130018BF10470120704751
:1033000000281CBF0269002A06D00378692B03D16C
:10331000D26A130018BF10470120704700281CBF55
:103320000269002A06D00378692B03D1126B1300BF
:1033300018BF10470120704708B400B584B005AB32
:1033400003930023029311B90093019302E00090CC
:10335000481E019003AB6946074878441A3000F0D4
:103360008FFB009911B1009A00211170002858BFFD
:10337000029804B05DF808FB83DAFFFF00F1010357
:10338000810704D010F8011B89B18107FAD10268C6
:10339000B2F10131914311F0803F04BF50F8042F86
:1033A000F6E710F8011B11B110F8011BFBE7C01A7A
:1033B0007047000010B5040001D1012010BD94F841
:1033C000390020B984F83800204600F0D7F92420CD
:1033D00084F839002068C16821F40051C16020469A
:1033E00000F09BF82068016921F490410161206898
:1033F000416921F02A0141612068C16841F400510E
:10340000C1600020E063202084F8390084F83A008D
:10341000002010BD2DE9F04104460D4694F8390016
:10342000202890461E4675D1002D14BF5FEA080083
:10343000012070D094F8380001286BD0012084F866
:1034400038000020E063212084F83900FFF7A6F857
:10345000A4F824800746A4F8268002E015F8011B92
:103460004160E08C60B3E08C401EE084A068B0F561
:10347000805F17D120680168090609D416F1010F91
:10348000F8D056B3FFF78AF8C01B8642F2D224E088
:103490002988C1F3080141602069002814BF6D1C10
:1034A000AD1CDEE7206801680906D7D416F1010FCC
:1034B000F8D096B1FFF772F8C01B8642F2D20CE04A
:1034C0002068006840061DD416F1010FF8D026B11F
:1034D000FFF764F8C01B8642F2D22068C16821F46D
:1034E000D071C160206841694908490041612020CC
:1034F00084F8390084F83A00002084F8380003206A
:10350000BDE8F081202084F83900002084F83800DC
:10351000BDE8F0810220BDE8F0812DE9F0410446CC
:1035200020680169E26821F44051114301618F4A2A
:10353000C1681140A26811432269114362691143B5
:10354000E2691143C1604169A26921F440711143EC
:103550004161E2698649B2F5004F40F0A38088429C
:103560001CBF844988424ED1FEF7DAFF0546FEF7BC
:10357000D7FF0646FEF7D4FF0746FEF7D1FF804689
:10358000FEF7CEFF19225543DFF8ECE1616857439F
:103590004B00B5FBF3F5A5FB0EEC4FEA9C15B7FB12
:1035A000F3F7DFF8D4E15643A7FB0EEC6421B6FB3A
:1035B000F3F64FEA9C1701FB1766F6003236DFF888
:1035C000B8C1A6FB0CC7BE09760006F4F87606EB78
:1035D000051502FB08F65043B6FBF3F6B0FBF3F01B
:1035E000654BA0FB0332900901FB1060C000323034
:1035F000614AA0FB02218809216800F007004019F8
:103600008860BDE8F081FEF781FF0546FEF77EFF8A
:103610000646FEF77BFF0746FEF778FF8046FEF77B
:1036200075FF19225543DFF850E1616857434B009D
:10363000B5FBF3F5A5FB0EEC4FEA9C15B7FBF3F7D2
:10364000DFF834E15643A7FB0EEC6421B6FBF3F63A
:103650004FEA9C1701FB1766F6003236DFF818C1F7
:10366000A6FB0CC7BE09760006F4F87606EB051536
:1036700002FB08F65043B6FBF3F6B0FBF3F03E4B0B
:10368000A0FB0332900901FB1060C00032303A4ABF
:10369000A0FB02218809216800F00700401988601A
:1036A000BDE8F08188421CBF324988420ED1FEF746
:1036B00037FF0546FEF734FF0646FEF731FF0746A3
:1036C000FEF72EFF8046FEF72BFF0DE0FEF71EFFF4
:1036D0000546FEF71BFF0646FEF718FF0746FEF7F6
:1036E00015FF8046FEF712FF19225543DFF888E0E8
:1036F000616857438B00B5FBF3F5A5FB0EEC4FEA71
:103700009C15B7FBF3F7DFF870E05643A7FB0EEC10
:103710006421B6FBF3F64FEA9C1701FB17663601EE
:103720003236DFF854C0A6FB0CC7BE0906F0F0061F
:1037300006EB051502FB08F65043B6FBF3F6B0FBAB
:10374000F3F00D4BA0FB0332900901FB1060000168
:103750003230094AA0FB02218809216800F00F00DD
:1037600040198860BDE8F08100000000F369FFFFA8
:1037700000100140001401403E0AD7A3704700002A
:1037800031B5FEF70BFF009D15F1010F044618BF80
:103790006D1C00BFFEF702FF001BA842FAD301B068
:1037A00030BD0000F0B5044681B02078AF4DC007B1
:1037B0004CD5A86800F00C00042807D0A86800F0D9
:1037C0000C0008280AD16868400207D528688003E1
:1037D0003CD56068D0BB012001B0F0BD6068B0F599
:1037E000803F03D1286840F4803010E0B0F5A02F6E
:1037F000286806D140F480202860286840F4803092
:1038000005E020F480302860286820F480202860BB
:10381000606868B1FEF7C2FE06462868800315D4CA
:10382000FEF7BCFE801B6528F7D3032001B0F0BD76
:10383000FEF7B4FE06462868800307D5FEF7AEFE05
:10384000801B6528F7D3032001B0F0BD20788007E6
:1038500018D5A86810F00C0F07D0A86800F00C006D
:10386000082826D16868400223D42868800702D53A
:10387000E0680128AFD12868216920F0F80040EA0B
:10388000C10028602078000745D56069784F90B363
:103890000120C7F8800EFEF781FE0646686F80079C
:1038A00039D4FEF77BFE801B0328F7D3032001B039
:1038B000F0BDE0686E4F78B101203860FEF76EFE13
:1038C000064628688007D6D4FEF768FE801B0328CA
:1038D000F7D3032001B0F0BD3860FEF75FFE064667
:1038E00028688007CED5FEF759FE801B0328F7D342
:1038F000032001B0F0BDC7F8800EFEF74FFE06466C
:10390000686F800707D5FEF749FE801B0328F7D3B1
:10391000032001B0F0BD2078400757D5002000906B
:10392000544F286C40F080502864286C00F0805080
:1039300000900098386840F480703860FEF72EFEE2
:1039400006463868C00507D4FEF728FE801B03280A
:10395000F7D3032001B0F0BDA068012803D1286F80
:1039600040F001000FE00528286F06D140F0040068
:103970002867286F40F0010005E0400840002867F4
:10398000286F20F004002867A06878B1FEF706FED3
:10399000064641F28937286F800717D4FEF7FEFDEF
:1039A000801BB842F7D3032001B0F0BDFEF7F6FD4F
:1039B000064641F28937286F800707D5FEF7EEFDEE
:1039C000801BB842F7D3032001B0F0BDA0690028E6
:1039D00048D0A96801F00C0108293FF4FCAE022888
:1039E000234F2FD100203866FEF7D8FD0646286801
:1039F000800107D5FEF7D2FD801B0328F7D30320F3
:103A000001B0F0BDE069216A0843616A40EA8110B3
:103A1000A16A891EC903090C40EA0140E16A40EA33
:103A20000160686001203866FEF7B8FD0646286828
:103A3000800117D4FEF7B2FD801B0328F7D30320C3
:103A400001B0F0BD00203866FEF7A8FD06462868E4
:103A5000800107D5FEF7A2FD801B0328F7D30320C2
:103A600001B0F0BD002001B0F0BD00BF0038024041
:103A70000000474200700040002200F0E3BB00005D
:103A80002DE9F04F80460FF2A47095B015461E4602
:103A9000D0E90023CDE9132303AF00200391B861DF
:103AA0000DF1340900E02D190020ADF8020013AB30
:103AB0004FF0FF3229460DF1020000F0F2FB044600
:103AC000012C04DA2878441EA441E443E40FBDF835
:103AD000020025280CBFA4F1010BA346BBF1010F86
:103AE0000EDBAA461AF8011B0398C0470028039072
:103AF00000F0DA80B869401CBBF1010BB861F1D16C
:103B0000BDF80200252804D10020F86038617861F2
:103B100005E00028C7D1B86906E340F0010015F8B8
:103B2000011F2029F9D023290DD02B2904D02D29BC
:103B300006D030290AD00CE040F0020080B2EEE757
:103B400040F00400FAE740F00800F7E740F010000A
:103B5000F4E72A290ED13168316051F8042B316025
:103B6000002A3A6204D5514240F00400396280B222
:103B70006D1C13E0002139620BE0396A6FF00043DD
:103B8000994205D001EB810302EB430130393962E0
:103B90006D1C2A78A2F130010A29EED329782E294A
:103BA00003D04FF0FF31F9611FE015F8011F2A29FA
:103BB00007D1316831606D1C51F8042B3160FA6116
:103BC00013E00021F9610BE0F9696FF000439942BD
:103BD00005D001EB810302EB43013039F9616D1C23
:103BE0002A78A2F130010A29EED3B8840FF244609A
:103BF000297800F067FB08B115F8010B8DF8320049
:103C00009DF83200682804BF2878682803D1622014
:103C10008DF832006D1C0DA8B86015F8014B252CED
:103C200013D0582C4BD0632C00F0A380642C18BF09
:103C3000692C7CD06F2C42D0702C36D0732C0AD0DB
:103C4000752C18BF782C3AD0B6E00120F8602520FA
:103C50008DF83400BAE09DF832006C28306830608E
:103C600018D050F8044B30607C60D7F81CA0BAF133
:103C7000000F04D52046FFF781FB824607E052463D
:103C80000021204600F02AFB08B1A0EB040AC7F887
:103C900010A09BE050F8042B306002A9404600F0D1
:103CA0002DF9002840F192803CE23068306050F8F5
:103CB000041B306002910DA87860782155E09DF8D2
:103CC00032006C280DD0712818BF6A2809D13068DD
:103CD000C01D20F007023260D2E9000108323260D4
:103CE00004E03168316051F8040B316002909DF8B6
:103CF0003200682802D102A8008803E0622802D1BD
:103D000002A80078029097F82400000728D50298AE
:103D100030B344F02000782822D1F868302109F827
:103D20000010401C411CF96009F8004018E09DF8A3
:103D30003200314600F0BCF80028029002D5F86845
:103D40002D2109E0B88C810702D5F8682B2103E00A
:103D5000C00705D5F868202109F80010401CF8605C
:103D60000DA8F96808447860214602A800F0DFF940
:103D70002CE09DF832006C2809D00120F8603068F2
:103D8000306050F8041B30608DF834101EE030684D
:103D9000306001AA50F8041B3060ADF80410002018
:103DA000ADF8060002A94FF0FF30F861404600F080
:103DB000A5F800280AD577E70120F86025208DF8BE
:103DC00034001CB10220F86089F80140386AF968B3
:103DD000401A7969401A3969441A97F82400400753
:103DE00011D42020012C8DF800000CDBA246012309
:103DF0006A4602A9404600F001FA00287FF454AF59
:103E0000BAF1010AF3D1D7F80CB0BBF1000F0DF1F4
:103E1000340A0DD01AF8011B0398C04700280390FC
:103E20003FF442AFB869401CBBF1010BB861F1D15E
:103E3000D7F814A03020BAF1010F8DF800000BDB89
:103E400001236A4602A9404600F0D8F900287FF411
:103E50002BAFBAF1010AF3D1D7F810B0D7F804A00C
:103E6000BBF1000F0DD01AF8011B0398C0470028C2
:103E700003903FF419AFB869401CBBF1010BB86166
:103E8000F1D197F8240040077FF50EAE2020012CD9
:103E90008DF80000FFF608AE01236A4602A94046ED
:103EA00000F0ACF900287FF4FFAE641EF4D1FBE50E
:103EB000622815D068280CD06C2818BF742816D03A
:103EC0007A2814D10A680A6052F8040B0A600021AB
:103ED00070470A680A6052F8040B0A6000B20BE0EF
:103EE0000A680A6052F8040B0A6040B204E00A68EB
:103EF0000A6052F8040B0A60C11770472DE9F44FAD
:103F00000D4694B02F6A002F804648BF6FF00047DF
:103F100000F010FA696A401801900FF22030D0E9E1
:103F20000023CDE9022395F82800400702D4019828
:103F3000412805D240200DF110090190002606E02D
:103F400000F0FEF95FEA0009F8D1EBE03F1B012F1A
:103F5000C0F294801498018802AA0DF1010000F0CB
:103F600047FA0028044600F19C801498008810B994
:103F7000641E00F19680A742C0F2808028690199F2
:103F80002218914268D26E624042A969401A69695A
:103F9000461A95F82800400710D42020012E8DF8ED
:103FA00000000BDBB24601236A462946404600F07A
:103FB00025F9002875D1BAF1010AF4D1D5F810B06D
:103FC000BBF1000FCA460CD01AF8011B6868C04745
:103FD0000028686065D0E869401CBBF1010BE8610E
:103FE000F2D130208DF80000D5F818A0BAF1010FF9
:103FF0000ADB01236A462946404600F0FFF8002804
:104000004FD1BAF1010AF4D1D5F814B0D5F808A00F
:10401000BBF1000F0CD01AF8011B6868C0470028DC
:1040200068603ED0E869401CBBF1010BE861F2D149
:1040300095F8280040070DD52020012E8DF80000AE
:1040400008DB01236A462946404600F0D7F840BB0A
:10405000761EF6D100262E61224628690DF1010157
:10406000484400F0D3F92869201828611498801C6E
:104070001490801E008800287FF468AF686A296960
:10408000401AA969401A6969471A95F8280040073B
:104090000FD4012F0DDB3C4668682021C0476860C3
:1040A00010B94FF0FF3635E0E869401C641EE86146
:1040B000F2D12B694A462946404600F09FF8002875
:1040C000EFD1AC69012C0ADB68683021C0470028B9
:1040D0006860E6D0E869401C641EE861F4D16B6951
:1040E000AA682946404600F089F80028D9D195F8F9
:1040F000280040070CD5012F0ADB68682021C04743
:1041000000286860CDD0E869401C7F1EE861F4D1CA
:104110002E616E6204A881451CBF484600F0B2F9CA
:10412000304601E04FF0FF3015B0BDE8F08FF0B43D
:10413000C2686F2908BF082405D041F02003782BFE
:1041400014BF0A24102418230668642918BF69299B
:10415000374602D1002E48BF7F425FB9056A4DB98C
:10416000082C27D190F82810090723D530211723D0
:10417000D1751FE0B7FBF4F604FB16773037FFB2BA
:104180005D1E3A2FA4BFA1F1510C674457552B4631
:10419000370003D08568D618B542EBD3082C09D177
:1041A00090F82810090705D5D15C302902D05B1E94
:1041B0003021D1541A448260C3F11801026A41616E
:1041C000914208DA511A81614FF6EF72018D114068
:1041D0000185F0BC7047002A0ED590F8282002F027
:1041E0001402102A08D1426A0369D21A8369D21ACA
:1041F000531A012BA8BF8361F0BC7047F8B5044681
:104200000D4616461F46002077B116F8011B686858
:10421000A047686030B1E869401CE86100207F1E5B
:10422000F3D1F2BD4FF0FF30F2BD000000000000FE
:1042300000000000686C747A4C0000000000000070
:1042400000000000401810F0030308D0C91A1FD363
:10425000DB0748BF00F8012D28BF20F8022D13000E
:1042600030B414461546103928BF20E93C00FAD86E
:10427000490728BF20E90C0048BF40F8042D8900F9
:1042800028BF20F8022D48BF00F8012D30BC704730
:10429000C91818BF00F8012DCB0728BF00F8012D61
:1042A0007047F8B504460D4616461F4600F02AF939
:1042B0003B4632462946204601B0BDE8F04000F0BA
:1042C00038B900000278C9B28A421AB11CBF10F88E
:1042D000012FF9E718BF002070470000C9B283071B
:1042E00006D0521E22D310F8013B9942F7D11FE0AD
:1042F000083A13D302F1040241EA012141EA0141E3
:1043000050F8043B121F21BF4B40A3F1013C2CEAA3
:10431000030C1CF0803FF3D0C9B2001F083210F824
:10432000013B521E28BF91EA030FF8D818BF0120A5
:10433000401E704780B500F0E5F8012002BD000086
:1043400070B5054605F10F00C408AFF30080E40026
:10435000A54232D2082C04D2082402E0083000F032
:1043600091F82248026811000CD1011D0A6802B3BD
:104370001368A34238BF111DF8D310E01D68A54291
:104380000DD2191D0B68002BF8D11268011D00E039
:10439000191D0B6893420CD01D68A542F8D361B17A
:1043A0000D682A68A2F10803A3420AD26A680A606B
:1043B0000FE000F0E1F80028D0D1AFF3008000203A
:1043C00070BD2B190B60121B6E685E600B681A6063
:1043D0002C60096800291DBF4A68002A091D0021B8
:1043E0000160AFF3008005F1080070BD480A0020AD
:1043F00070B504460D46164600F084F8324629464C
:104400002046BDE8704000F087B8000062B38B071B
:1044100008D0521E11F8013B00F8013B00F0248047
:104420008B07F6D1830740F0208000BF103A07D3F6
:1044300030B4B1E83810103AA0E83810F9D230BCE6
:10444000530724BFB1E80810A0E8081044BF51F892
:10445000043B40F8043BD20724BF31F8022B20F87C
:10446000022B44BF0B7803707047083A07D3B1E8BA
:104470000810083A40F8043B40F804CBF7D2530741
:10448000E4E7000000B9704738B5A0F108042068DF
:10449000082833D310F0070F30D1AFF3008018484D
:1044A000416809B18C4203D26160446017E019464B
:1044B0004B680BB1A342FAD30B68CD18AC421BD3A7
:1044C000A54204D12268D2180A600C4607E04A6867
:1044D0001AB1236823449A420ED362604C6061682B
:1044E00051B12268A3188B4206D1002303600868EB
:1044F0008018206048686060AFF3008031BD000024
:10450000480A002080B5DFF80C0000F04BF8806905
:1045100002BD0000F801002030B430B90FF24800AD
:10452000D0E90045C2E900451BE00170012030BC24
:10453000704730B431B90FF23800D0E90045C3E913
:1045400000450EE01AB930BC6FF00100704708B1A9
:104550000A7802800978481E804130BCC043C00FF1
:104560007047002030BC70470000000000000000D1
:1045700000000000000000000749086808B10020A2
:1045800070470648C008C00008600549C908C9004E
:10459000091A0160704700BF540A00206F0600200E
:1045A000680800207047000010B582B00446002063
:1045B0008DF800006946204600F08AFC002830D0C3
:1045C0009DF80000217888422BD10421204600F07C
:1045D000C9FD30B3A06800689FED160A80ED000A9F
:1045E0004021406880ED010A204600F0DBFCC0B1AC
:1045F0000021204600F0A7FC98B11821204600F0C9
:1046000073FC70B10821204600F01FFD48B1102155
:10461000204600F049FD20B12021204600F073FD26
:1046200010B9012002B010BD0120607102B000205D
:1046300010BD00000000EE4270B5044682B0A068D4
:10464000056800208DF800006946204600F040FC17
:10465000002844D09DF80000217888423FD1A0680E
:104660000668A079002832D06946204600F08AFC0E
:10467000002834D09DF80000E0B1202818D0402850
:1046800013D060280ED0802809D0A02804D0C028DC
:1046900022D1DFF884040DE0DFF880040AE0DFF8BF
:1046A000800407E0DFF86C0404E0DFF8BC0601E0FA
:1046B000DFF8E80630600021204600F044FC70B1CD
:1046C000716800200870002170684160A1710020AD
:1046D0002860607102B070BDDFF8B4063060012060
:1046E00002B070BD70B5044682B0A0680668A079BB
:1046F000012835465ED095ED000ADFED920AB4EE52
:10470000600AF1EE10FA48BF202123D4DFED8E0AB3
:10471000B4EE600AF1EE10FA48BF40211AD4DFED82
:10472000AD0AB4EE600AF1EE10FA48BF602111D470
:10473000DFEDA90AB4EE600AF1EE10FA48BF80215D
:1047400008D4DFEDA60AB4EE600AF1EE10FA4CBF11
:10475000A021C021204600F0F6FB88B37068061D3A
:104760006946204600F00EFC50B39DF80000E0B111
:10477000202818D0402813D060280ED0802809D0D7
:10478000A02804D0C02818D1DFF88C030DE0DFF892
:104790008C030AE0DFF8880307E0DFF8780304E021
:1047A000DFF8C40501E0DFF8F40530600120696836
:1047B0000870A071002002B070BDDFF8D405306031
:1047C000012002B070BD30B5044681B0A068056814
:1047D000A079002839D06946204600F0D3FB48B3C1
:1047E0009DF80000D0B1202816D0402811D06028B4
:1047F0000DD0802809D0A02804D0C02817D1DFF818
:1048000018030BE0DFF8140308E0C54806E0C148D0
:1048100004E0DFF8540501E0DFF88005286000219E
:10482000204600F090FB40B9012001B030BDDFF818
:1048300060052860012001B030BD69680020087063
:104840000021686841600020A07101B030BD00B552
:1048500081B000F03DFB401E8041C00F01B000BDA3
:1048600010B582B0044600208DF80000694620464D
:1048700000F02EFB20B19DF800002178884202D084
:10488000012002B010BD002002B010BD2DE9F041A2
:1048900084B088460021CDE900110446694600F045
:1048A000A0FB00284AD09DF801109DF800209DF83B
:1048B000040002EB01269DF803109DF8022002EB94
:1048C00001279DF8051000EB012502A9204600F004
:1048D0002AFB98B39DF8080048B1082804D018288E
:1048E0002CD19FED880A04E09FED870A01E09FED3F
:1048F000870A36B200EE906AF8EEE00A60EE800AAF
:10490000FDEEE00AC8ED000A3FB200EE907AF8EE44
:10491000E00A60EE800AFDEEE00AC8ED010A2DB261
:1049200000EE905AF8EEE00A20EE800ABDEEC00AD2
:1049300088ED020A002004B0BDE8F081012004B037
:10494000BDE8F081010070410100704210B582B0F5
:104950000C4669460022C1E9002200F042FB10B972
:10496000012002B010BD9DF801109DF8002002EB5F
:10497000012121809DF802209DF8031002EB012106
:1049800061809DF804009DF8051000EB0120A080D7
:1049900002B0002010BD10B582B00C46694600F090
:1049A000C2FA10B9012002B010BD9DF8000040B15C
:1049B00008280BD018280BD05548206002B00120E1
:1049C00010BD5248206002B0002010BD4E48F9E7EB
:1049D0004C48F7E70100EE4201006E430100EE4350
:1049E00010B582B00C46694600F0CCFA10B901202F
:1049F00002B010BD9DF8000080B1202812D04028E0
:104A000013D0602814D0802814D0A02814D0C02837
:104A100014D03F48206002B0012010BD206002B0D9
:104A2000002010BDDFF87403F8E7DFF83C03F5E77A
:104A30003848F3E73A48F1E73848EFE73648EDE71A
:104A400030B5054681B0A8680468A879012839D135
:104A5000042934D8DFE801F00707050503006021C9
:104A600002E0402100E02021284600F06CFA30B33B
:104A70006068041D6946284600F084FAF8B19DF884
:104A8000000060B1202816D0402812D060280ED037
:104A900080280AD0A02806D0C0280ED11E48206049
:104AA000002001B030BD1D48F9E71D48F7E719485F
:104AB000F5E7AD48F3E7B948F1E715482060012074
:104AC00001B030BD0429FAD8DFE801F014140C0C51
:104AD0000400F4E79FED0F0A84ED000A606880EDA2
:104AE000010ADDE79FEDA00A84ED000A606880ED11
:104AF000010AD5E7B2EE0E0A84ED000A606880ED87
:104B0000010ACDE700008C4200008C4100000C41FE
:104B1000000080BF0000EE4200006E440000EE4343
:104B200000006E4330B5054681B0A8680468A879D6
:104B3000DFED8E0A0128B4EE600A59D1F1EE10FAC9
:104B400048BF202123D4DFED8A0AB4EE600AF1EEDB
:104B500010FA48BF40211AD4DFED860AB4EE600A8D
:104B6000F1EE10FA48BF602111D4DFED830AB4EEF4
:104B7000600AF1EE10FA48BF802108D4DFED7F0A09
:104B8000B4EE600AF1EE10FA4CBFA021C021284615
:104B900000F0D9F948B36068041D6946284600F062
:104BA000F1F910B39DF80000D8B1202818D04028A2
:104BB00013D060280ED0802809D0A02804D0C028A7
:104BC00011D17248206078E06F48206075E06D4830
:104BD000206072E06A4820606FE0634820606CE00B
:104BE0006E48206069E06A482060012001B030BD55
:104BF000F1EE10FA48BFB2EE0E1A28D49FED5C1AFF
:104C0000B4EE410AF1EE10FA48BF9FED571A1ED4D8
:104C10009FED581AB4EE410AF1EE10FA48BF9FED2D
:104C2000581A14D49FED541AB4EE410AF1EE10FA5A
:104C300048BF9FED541A0AD49FED501AB4EE410AB2
:104C4000F1EE10FA4CBF9FED501A9FED501AB4EEE2
:104C5000600AF1EE10FA84ED001A48BFB2EE0E0AB7
:104C600028D4DFED430AB4EE600AF1EE10FA48BF33
:104C70009FED3D0A1ED4DFED3F0AB4EE600AF1EE6F
:104C800010FA48BF9FED3E0A14D4DFED3B0AB4EEA4
:104C9000600AF1EE10FA48BF9FED3A0A0AD4DFED40
:104CA000370AB4EE600AF1EE10FA4CBF9FED360AF7
:104CB0009FED360A606880ED010A002001B030BD2A
:104CC00010B582B00C46694600F02DF910B90120EC
:104CD00002B010BD9DF8000040B108280BD0182884
:104CE0000BD02B48206002B0012010BD2C48206062
:104CF00002B0002010BD2B48F9E72B48F7E7000071
:104D000000B5042981B010D8DFE801F0030F0B0FC4
:104D10000D00002100F0E8F8401E8041C00F01B0F6
:104D200000BD0821F6E71821F4E7012001B000BD1D
:104D3000DFED180A00B5B4EE600AF1EE10FA81B0AA
:104D400048BF002108D4DFED140AB4EE600AF1EE8A
:104D500010FA4CBF0821182100F0C6F8401E80410F
:104D6000C00F01B000BD00000000704201007041A2
:104D7000010070420100EE4201006E430100EE436B
:104D80000000EE4200006E430000EE4300006E445F
:104D9000000080BF010075430100FA43000070412C
:104DA000000075430000FA430000FA4430B581B0BA
:104DB0000D4604460DF1020100F066F950B10DF107
:104DC0000101204600F08FF920B16946204600F02D
:104DD000B9F910B9012001B030BD9DF802000828D2
:104DE0000CBF0120002028709DF8010010280CBF86
:104DF0000120002068709DF8000020280CBF0120D1
:104E00000020A87001B0002030BD30B50D4681B043
:104E10000446287801280CBF08210021204600F014
:104E200014F940B1687801280CBF102100212046F8
:104E300000F03AF910B9012001B030BDA87801287E
:104E40000CBF20210021204600F05DF9401E80416A
:104E5000C00F01B030BD00B581B0012300F02FF8C4
:104E6000401E8041C00F01B000BD00B581B00123DC
:104E70008DF800206A4600F019F8401E8041C00FEE
:104E800001B000BD10B582B00C46694600F0CDF807
:104E900048B19DF8000010B1022804D10120207013
:104EA00002B0002010BD012002B010BD00B581B0DD
:104EB000FCF78CFB401E8041C00F01B000BD00B567
:104EC00081B0FCF7CDFB401E8041C00F01B000BD9A
:104ED00000B50A4681B001230F21FCF7C1FB401E3B
:104EE0008041C00F01B000BD30B581B00D46044611
:104EF00001236A461021FCF7B3FB10B1002001B07A
:104F000030BD9DF8000000F0E70028438DF8000058
:104F100001236A4610212046FCF758FB401E8041C1
:104F2000C00F01B030BD10B50C4601232246102140
:104F3000FCF796FB08B1002010BD207800F01800A7
:104F40002070012010BD30B581B00D46044601230C
:104F50006A461021FCF784FB10B1002001B030BD7F
:104F60009DF8000000F01F0028438DF80000012389
:104F70006A4610212046FCF729FB401E8041C00FE5
:104F800001B030BD10B50C46012322461021FCF7BC
:104F900067FB08B1002010BD207800F0E000207011
:104FA000012010BD30B581B00D46044601236A468C
:104FB0002221FCF755FB10B1002001B030BD9DF857
:104FC000000000F0BF0028438DF8000001236A466E
:104FD00022212046FCF7FAFA401E8041C00F01B0A2
:104FE00030BDF0B581B004460D4600260327F6B269
:104FF00006F118010123AA19C9B22046FCF730FBBB
:1050000050B9761CF6B206F118010123AA19C9B2EB
:105010002046FCF725FB10B1002001B0F0BD761C46
:105020007F1EE4D1012001B0F0BD10B50C46012374
:1050300022462721FCF714FB08B1002010BD207880
:1050400000F002002070012010BD30B581B00D4687
:10505000044601236A461E21FCF702FB10B1002022
:1050600001B030BD9DF8000000F0F70028438DF836
:10507000000001236A461E212046FCF7A7FA401EC5
:105080008041C00F01B030BD10B50C46012322464F
:105090001E21FCF7E5FA08B1002010BD207800F0D1
:1050A00008002070012010BD30B581B00D460446C7
:1050B00001236A461E21FCF7D3FA10B1002001B08B
:1050C00030BD9DF8000000F0EF0028438DF800008F
:1050D00001236A461E212046FCF778FA401E8041D3
:1050E000C00F01B030BD10B50C46012322461E2171
:1050F000FCF7B6FA08B1002010BD207800F01000CF
:105100002070012010BD30B581B00D46044601234A
:105110006A461E21FCF7A4FA10B1002001B030BD90
:105120009DF8000000F0DF0028438DF80000012307
:105130006A461E212046FCF749FA401E8041C00FF6
:1051400001B030BD10B50C46012322461E21FCF7EC
:1051500087FA08B1002010BD207800F020002070F0
:10516000012010BD30B581B00D46044601236A46CA
:105170002221FCF775FA10B1002001B030BD9DF876
:10518000000000F0FB0028438DF8000001236A4670
:1051900022212046FCF71AFA401E8041C00F01B0C0
:1051A00030BDF0B4016844688368014401EB5402E7
:1051B000E40748BF4B44914202D1F0BC0C30704729
:1051C00011F8015B15F0030604BF11F8014BE61C52
:1051D0002C090F2C07D111F8014B0F3403E011F803
:1051E000017B03F8017B761EF9D1002CE3D0AD08DA
:1051F00011F8016B05F00305032D08BF11F8015BE1
:1052000006EB05256D42A41C1D44D4D015F8016B96
:1052100003F8016B641EF9D1CDE700000E480F4B77
:10522000D0F8801041F47001C0F880100C490A6871
:1052300042F001020A6000228A600A681A400A608D
:10524000084A4A600A6822F480220A600022CA6082
:105250004FF000610160704708ED00E0FFFFF6FECF
:105260000038024010300024000000000000000060
:10527000010203040607080919E050F8041BCB07D4
:1052800044BFA9F101035918121F0023042A41F851
:10529000043BF9D25FEA827C0B4604D54FF0000C48
:1052A000A1F800C09B1CD10744BF0021197050F821
:1052B000042B002AE1D1704710B507497944183111
:1052C000064C7C44163404E00A68081D11448847E3
:1052D0000146A142F8D110BD2C000000480000009A
:1052E0004EF68851CEF20001086840F47000086064
:1052F000BFF34F8FBFF36F8F4FF00070E1EE100AD6
:105300007047000075FFFFFFF001000068080020F3
:10531000000000008FFEFFFF88010000A6010000D2
:105320000000002000F00BF8002801D0FFF7C4FFB8
:105330000020AFF30080FDF737F900F002F80120FC
:10534000704700F001B800000746384600F002F848
:10535000FBE7000080B5AFF30080024A110018207F
:10536000ABBEFBE7260002007047FEE7704700F087
:1053700007B81020FCF7A2BF4FF40050FCF79EBF07
:1053800002480168491C0160704700BF500A0020B4
:1053900001488047014800471D520008A1530008FA
:1053A000AFF30080FFF79CFFFFF7BCFF0000000099
:1053B00001020304FFF7FEBFFFF7FEBFFFF7FEBFCA
:1053C000FFF7FEBFFFF7FEBFFFF7FEBFFFF7FEBF11
:1053D000FFF7FEBFFFF7FEBFFFF7FEBFFFF7FEBF01
:1053E000FFF7FEBFFFF7FEBFFFF7FEBFFFF7FEBFF1
:1053F000FFF7FEBFFFF7FEBFFFF7FEBFFFF7FEBFE1
:10540000FFF7FEBFFFF7FEBFFFF7FEBFFFF7FEBFD0
:10541000FFF7FEBFFFF7FEBFFFF7FEBFFFF7FEBFC0
:10542000FFF7FEBFFFF7FEBFFFF7FEBFFFF7FEBFB0
:10543000FFF7FEBFFFF7FEBFFFF7FEBFFFF7FEBFA0
:10544000FFF7FEBFFFF7FEBFFFF7FEBFFFF7FEBF90
:10545000FFF7FEBFFFF7FEBFFFF7FEBFFFF7FEBF80
:10546000FFF7FEBFFFF7FEBFFFF7FEBFFFF7FEBF70
:10547000FFF7FEBFFFF7FEBFFFF7FEBFFFF7FEBF60
:10548000FFF7FEBFFFF7FEBFFFF7FEBFFFF7FEBF50
:10549000FFF7FEBFFFF7FEBFFFF7FEBFFFF7FEBF40
:1054A0001007A945000839460008E5041007C7475A
:1054B00000084F4800086104128D0410034D490094
:1054C00008970412E104100F414A0008254B000818
:1054D000C14C0008014D0008310412AD0410030B4B
:1054E0004E00085704126B041285041007B50A0019
:1054F00008690B0008990412C90412F90410030B7F
:105500000C00081D04122F04126D0413390D6411D0
:105510000412810412930412AF0412CD04100795F3
:1055200001000821020008D90410077D03000803C8
:1055300004000815042241041205941104131906ED
:1055400008110413050748120884110412DD041021
:105550000381090008DF04122B80123F0412590452
:10556000F001F60004000110020240000804F76494
:0355700024F4110F
:0400000508000000EF
:00000001FF
